{
  "transactions": [
    {
      "hash": "0x4fe78362f1b65e585e52c6d2992cb80cb318a4e2bdca48669910848a72e92e53",
      "transactionType": "CALL",
      "contractName": "InitializableImmutableAdminUpgradeabilityProxy",
      "contractAddress": "0x34a4d932E722b9dFb492B9D8131127690CE2430B",
      "function": "approveDelegation(address,uint256)",
      "arguments": [
        "0xA509C7ed1bc160dA25f746C36f6c14503bc91A1f",
        "67430307926386"
      ],
      "transaction": {
        "type": "0x02",
        "from": "0xc5e0b6e472dde70eceffa4c568bd52f2a7a1632a",
        "to": "0x34a4d932e722b9dfb492b9d8131127690ce2430b",
        "gas": "0xc552",
        "value": "0x0",
        "data": "0xc04a8a10000000000000000000000000a509c7ed1bc160da25f746c36f6c14503bc91a1f00000000000000000000000000000000000000000000000000003d53d78d1172",
        "nonce": "0x43",
        "accessList": []
      },
      "additionalContracts": [],
      "isFixedGasLimit": false
    },
    {
      "hash": "0xfe9c4e1290a89924a9c601f24cd2bde950d5d46c914c2f88212b58cd1500149a",
      "transactionType": "CALL",
      "contractName": "InitializableImmutableAdminUpgradeabilityProxy",
      "contractAddress": "0x9844386d29EEd970B9F6a2B9a676083b0478210e",
      "function": "approveDelegation(address,uint256)",
      "arguments": [
        "0xA509C7ed1bc160dA25f746C36f6c14503bc91A1f",
        "10101796759"
      ],
      "transaction": {
        "type": "0x02",
        "from": "0xc5e0b6e472dde70eceffa4c568bd52f2a7a1632a",
        "to": "0x9844386d29eed970b9f6a2b9a676083b0478210e",
        "gas": "0xc542",
        "value": "0x0",
        "data": "0xc04a8a10000000000000000000000000a509c7ed1bc160da25f746c36f6c14503bc91a1f000000000000000000000000000000000000000000000000000000025a1d2f97",
        "nonce": "0x44",
        "accessList": []
      },
      "additionalContracts": [],
      "isFixedGasLimit": false
    },
    {
      "hash": null,
      "transactionType": "CALL",
      "contractName": "InitializableImmutableAdminUpgradeabilityProxy",
      "contractAddress": "0x16dA4541aD1807f4443d92D26044C1147406EB80",
      "function": "approve(address,uint256):(bool)",
      "arguments": [
        "0xA509C7ed1bc160dA25f746C36f6c14503bc91A1f",
        "11007145320"
      ],
      "transaction": {
        "type": "0x02",
        "from": "0x3e122a3db43d225dd5bffd929ad4176ce69117e0",
        "to": "0x16da4541ad1807f4443d92d26044c1147406eb80",
        "gas": "0xb806",
        "value": "0x0",
        "data": "0x095ea7b3000000000000000000000000a509c7ed1bc160da25f746c36f6c14503bc91a1f000000000000000000000000000000000000000000000000000000029013b568",
        "nonce": "0x95",
        "accessList": []
      },
      "additionalContracts": [],
      "isFixedGasLimit": false
    },
    {
      "hash": null,
      "transactionType": "CALL",
      "contractName": "InitializableImmutableAdminUpgradeabilityProxy",
      "contractAddress": "0xAF0F6e8b0Dc5c913bbF4d14c22B4E78Dd14310B6",
      "function": "approve(address,uint256):(bool)",
      "arguments": [
        "0xA509C7ed1bc160dA25f746C36f6c14503bc91A1f",
        "10001015881"
      ],
      "transaction": {
        "type": "0x02",
        "from": "0x3e122a3db43d225dd5bffd929ad4176ce69117e0",
        "to": "0xaf0f6e8b0dc5c913bbf4d14c22b4e78dd14310b6",
        "gas": "0xa8eb",
        "value": "0x0",
        "data": "0x095ea7b3000000000000000000000000a509c7ed1bc160da25f746c36f6c14503bc91a1f00000000000000000000000000000000000000000000000000000002541b6449",
        "nonce": "0x96",
        "accessList": []
      },
      "additionalContracts": [],
      "isFixedGasLimit": false
    }
  ],
  "receipts": [
    {
      "transactionHash": "0x4fe78362f1b65e585e52c6d2992cb80cb318a4e2bdca48669910848a72e92e53",
      "transactionIndex": "0x8",
      "blockHash": "0x92da70d79d9d8c51947e5f0773b1a273b4bdbcdfb9d4c989903654ed5af4a6fb",
      "blockNumber": "0x459242",
      "from": "0xC5e0B6E472dDE70eCEfFa4c568Bd52f2A7a1632A",
      "to": "0x34a4d932E722b9dFb492B9D8131127690CE2430B",
      "cumulativeGasUsed": "0x67fad",
      "gasUsed": "0x8edc",
      "contractAddress": null,
      "logs": [
        {
          "address": "0x34a4d932E722b9dFb492B9D8131127690CE2430B",
          "topics": [
            "0xda919360433220e13b51e8c211e490d148e61a3bd53de8c097194e458b97f3e1",
            "0x000000000000000000000000c5e0b6e472dde70eceffa4c568bd52f2a7a1632a",
            "0x000000000000000000000000a509c7ed1bc160da25f746c36f6c14503bc91a1f",
            "0x000000000000000000000000f8fb3713d459d7c1018bd0a49d19b4c44290ebe5"
          ],
          "data": "0x00000000000000000000000000000000000000000000000000003d53d78d1172",
          "blockHash": "0x92da70d79d9d8c51947e5f0773b1a273b4bdbcdfb9d4c989903654ed5af4a6fb",
          "blockNumber": "0x459242",
          "transactionHash": "0x4fe78362f1b65e585e52c6d2992cb80cb318a4e2bdca48669910848a72e92e53",
          "transactionIndex": "0x8",
          "logIndex": "0x8",
          "removed": false
        }
      ],
      "status": "0x1",
      "logsBloom": "0x00020000000000000000000000002000000000000000000000000000000000000000000040000000000000000000000000000000000000000000000000000000000000000001000000000000000000000000000000000000000000004000100000000000000020000000000000000000000000000000000000000001000000000000000000000000000000000000000000000000000000000000000000000000000000000000020000000000800000000000000040000000000000000000000000000000000000000000000000000000004000000000000000000000000000000000000000000420000000000000000100000000000000000000000000000000",
      "type": "0x2",
      "effectiveGasPrice": "0xffdfe1c4"
    },
    {
      "transactionHash": "0xfe9c4e1290a89924a9c601f24cd2bde950d5d46c914c2f88212b58cd1500149a",
      "transactionIndex": "0x8",
      "blockHash": "0x89dc35b5e584854fca89397c8a69403f865e8405cab02ae3d0e6836b45776be8",
      "blockNumber": "0x459243",
      "from": "0xC5e0B6E472dDE70eCEfFa4c568Bd52f2A7a1632A",
      "to": "0x9844386d29EEd970B9F6a2B9a676083b0478210e",
      "cumulativeGasUsed": "0xdd1fb",
      "gasUsed": "0x8ed0",
      "contractAddress": null,
      "logs": [
        {
          "address": "0x9844386d29EEd970B9F6a2B9a676083b0478210e",
          "topics": [
            "0xda919360433220e13b51e8c211e490d148e61a3bd53de8c097194e458b97f3e1",
            "0x000000000000000000000000c5e0b6e472dde70eceffa4c568bd52f2a7a1632a",
            "0x000000000000000000000000a509c7ed1bc160da25f746c36f6c14503bc91a1f",
            "0x000000000000000000000000aa8e23fb1079ea71e0a56f48a2aa51851d8433d0"
          ],
          "data": "0x000000000000000000000000000000000000000000000000000000025a1d2f97",
          "blockHash": "0x89dc35b5e584854fca89397c8a69403f865e8405cab02ae3d0e6836b45776be8",
          "blockNumber": "0x459243",
          "transactionHash": "0xfe9c4e1290a89924a9c601f24cd2bde950d5d46c914c2f88212b58cd1500149a",
          "transactionIndex": "0x8",
          "logIndex": "0x1",
          "removed": false
        }
      ],
      "status": "0x1",
      "logsBloom": "0x00000000000000000000000000002000000000000000000000000000000000000000000000000000000000000000000000000000000000000000000000000000000000000000000000000000000000000000000000000000000000004000100000000000000000000000000080000000000000000000000000000001000000000000000000000000000000000000000000000000000000000000000000000000000000000000000000000000800000000000000040000000020004000000000000000000000000000000000000000000000200100000000000000000000000000000000000000420000000000000000100010000000000000000000000000000",
      "type": "0x2",
      "effectiveGasPrice": "0x1060fe66a"
    }
  ],
  "libraries": [],
  "pending": [],
  "returns": {},
  "timestamp": 1698230835,
  "chain": 11155111,
  "multi": false,
  "commit": "56fcdfc"
}