{
  "transactions": [
    {
      "hash": "0xef01c9afcb6863191bf47b83d3dbe99aedc0718f111ab76b5f2a12f519170a71",
      "transactionType": "CALL",
      "contractName": "InitializableImmutableAdminUpgradeabilityProxy",
      "contractAddress": "0x34a4d932E722b9dFb492B9D8131127690CE2430B",
      "function": "approveDelegation(address,uint256)",
      "arguments": [
        "0xA509C7ed1bc160dA25f746C36f6c14503bc91A1f",
        "67432008740524"
      ],
      "transaction": {
        "type": "0x02",
        "from": "0xc5e0b6e472dde70eceffa4c568bd52f2a7a1632a",
        "to": "0x34a4d932e722b9dfb492b9d8131127690ce2430b",
        "gas": "0xc552",
        "value": "0x0",
        "data": "0xc04a8a10000000000000000000000000a509c7ed1bc160da25f746c36f6c14503bc91a1f00000000000000000000000000000000000000000000000000003d543ced6eac",
        "nonce": "0x47",
        "accessList": []
      },
      "additionalContracts": [],
      "isFixedGasLimit": false
    },
    {
      "hash": "0xd82f217f9a6dfee17631e0ceb4d6297c3c55cb6e6dcc57d035dd6f3e5290e4d2",
      "transactionType": "CALL",
      "contractName": "InitializableImmutableAdminUpgradeabilityProxy",
      "contractAddress": "0x9844386d29EEd970B9F6a2B9a676083b0478210e",
      "function": "approveDelegation(address,uint256)",
      "arguments": [
        "0xA509C7ed1bc160dA25f746C36f6c14503bc91A1f",
        "10101796761"
      ],
      "transaction": {
        "type": "0x02",
        "from": "0xc5e0b6e472dde70eceffa4c568bd52f2a7a1632a",
        "to": "0x9844386d29eed970b9f6a2b9a676083b0478210e",
        "gas": "0xc542",
        "value": "0x0",
        "data": "0xc04a8a10000000000000000000000000a509c7ed1bc160da25f746c36f6c14503bc91a1f000000000000000000000000000000000000000000000000000000025a1d2f99",
        "nonce": "0x48",
        "accessList": []
      },
      "additionalContracts": [],
      "isFixedGasLimit": false
    },
    {
      "hash": "0x120afd4d1b539237d55a49edc99207c39df3f7b35c2c1a4f4350cb03ad1e56a8",
      "transactionType": "CALL",
      "contractName": "InitializableImmutableAdminUpgradeabilityProxy",
      "contractAddress": "0x16dA4541aD1807f4443d92D26044C1147406EB80",
      "function": "approve(address,uint256):(bool)",
      "arguments": [
        "0xA509C7ed1bc160dA25f746C36f6c14503bc91A1f",
        "11007145394"
      ],
      "transaction": {
        "type": "0x02",
        "from": "0x3e122a3db43d225dd5bffd929ad4176ce69117e0",
        "to": "0x16da4541ad1807f4443d92d26044c1147406eb80",
        "gas": "0xb806",
        "value": "0x0",
        "data": "0x095ea7b3000000000000000000000000a509c7ed1bc160da25f746c36f6c14503bc91a1f000000000000000000000000000000000000000000000000000000029013b5b2",
        "nonce": "0x98",
        "accessList": []
      },
      "additionalContracts": [],
      "isFixedGasLimit": false
    },
    {
      "hash": "0x8a86fdde3fdffdaebeec5a746efb8fde92fde40753db74b27e7b9fdd440a6610",
      "transactionType": "CALL",
      "contractName": "InitializableImmutableAdminUpgradeabilityProxy",
      "contractAddress": "0xAF0F6e8b0Dc5c913bbF4d14c22B4E78Dd14310B6",
      "function": "approve(address,uint256):(bool)",
      "arguments": [
        "0xA509C7ed1bc160dA25f746C36f6c14503bc91A1f",
        "10001015881"
      ],
      "transaction": {
        "type": "0x02",
        "from": "0x3e122a3db43d225dd5bffd929ad4176ce69117e0",
        "to": "0xaf0f6e8b0dc5c913bbf4d14c22b4e78dd14310b6",
        "gas": "0xa8eb",
        "value": "0x0",
        "data": "0x095ea7b3000000000000000000000000a509c7ed1bc160da25f746c36f6c14503bc91a1f00000000000000000000000000000000000000000000000000000002541b6449",
        "nonce": "0x99",
        "accessList": []
      },
      "additionalContracts": [],
      "isFixedGasLimit": false
    },
    {
      "hash": "0xfb3a5652c0680c80b0086694041989d39f01570a297a2da39c94983b93e2b073",
      "transactionType": "CALL",
      "contractName": "InteractWithTeleportAaveV3",
      "contractAddress": "0x33F2D618C504d7860F3279F90e75279963fe9532",
      "function": "teleportAaveV3PositionsBetweenWallets(address,address)",
      "arguments": [
        "0x3e122A3dB43d225DD5BFFD929AD4176ce69117E0",
        "0xC5e0B6E472dDE70eCEfFa4c568Bd52f2A7a1632A"
      ],
      "transaction": {
        "type": "0x02",
        "from": "0x3e122a3db43d225dd5bffd929ad4176ce69117e0",
        "to": "0x33f2d618c504d7860f3279f90e75279963fe9532",
        "gas": "0x203acb",
        "value": "0x0",
        "data": "0xce88a5760000000000000000000000003e122a3db43d225dd5bffd929ad4176ce69117e0000000000000000000000000c5e0b6e472dde70eceffa4c568bd52f2a7a1632a",
        "nonce": "0x9a",
        "accessList": []
      },
      "additionalContracts": [],
      "isFixedGasLimit": false
    }
  ],
  "receipts": [
    {
      "transactionHash": "0xef01c9afcb6863191bf47b83d3dbe99aedc0718f111ab76b5f2a12f519170a71",
      "transactionIndex": "0x0",
      "blockHash": "0x1e2fd444d753b1c3f5d992b84bf4b79483dbc9f7da73512c27a1c15a468ea724",
      "blockNumber": "0x459256",
      "from": "0xC5e0B6E472dDE70eCEfFa4c568Bd52f2A7a1632A",
      "to": "0x34a4d932E722b9dFb492B9D8131127690CE2430B",
      "cumulativeGasUsed": "0x8edc",
      "gasUsed": "0x8edc",
      "contractAddress": null,
      "logs": [
        {
          "address": "0x34a4d932E722b9dFb492B9D8131127690CE2430B",
          "topics": [
            "0xda919360433220e13b51e8c211e490d148e61a3bd53de8c097194e458b97f3e1",
            "0x000000000000000000000000c5e0b6e472dde70eceffa4c568bd52f2a7a1632a",
            "0x000000000000000000000000a509c7ed1bc160da25f746c36f6c14503bc91a1f",
            "0x000000000000000000000000f8fb3713d459d7c1018bd0a49d19b4c44290ebe5"
          ],
          "data": "0x00000000000000000000000000000000000000000000000000003d543ced6eac",
          "blockHash": "0x1e2fd444d753b1c3f5d992b84bf4b79483dbc9f7da73512c27a1c15a468ea724",
          "blockNumber": "0x459256",
          "transactionHash": "0xef01c9afcb6863191bf47b83d3dbe99aedc0718f111ab76b5f2a12f519170a71",
          "transactionIndex": "0x0",
          "logIndex": "0x0",
          "removed": false
        }
      ],
      "status": "0x1",
      "logsBloom": "0x00020000000000000000000000002000000000000000000000000000000000000000000040000000000000000000000000000000000000000000000000000000000000000001000000000000000000000000000000000000000000004000100000000000000020000000000000000000000000000000000000000001000000000000000000000000000000000000000000000000000000000000000000000000000000000000020000000000800000000000000040000000000000000000000000000000000000000000000000000000004000000000000000000000000000000000000000000420000000000000000100000000000000000000000000000000",
      "type": "0x2",
      "effectiveGasPrice": "0xf13ad51f"
    },
    {
      "transactionHash": "0xd82f217f9a6dfee17631e0ceb4d6297c3c55cb6e6dcc57d035dd6f3e5290e4d2",
      "transactionIndex": "0x3",
      "blockHash": "0x219a2a9f10fa5b38012481506f222d373c5bab72ced1af01bb6d8e65e49a1b29",
      "blockNumber": "0x459257",
      "from": "0xC5e0B6E472dDE70eCEfFa4c568Bd52f2A7a1632A",
      "to": "0x9844386d29EEd970B9F6a2B9a676083b0478210e",
      "cumulativeGasUsed": "0xecba3",
      "gasUsed": "0x8ed0",
      "contractAddress": null,
      "logs": [
        {
          "address": "0x9844386d29EEd970B9F6a2B9a676083b0478210e",
          "topics": [
            "0xda919360433220e13b51e8c211e490d148e61a3bd53de8c097194e458b97f3e1",
            "0x000000000000000000000000c5e0b6e472dde70eceffa4c568bd52f2a7a1632a",
            "0x000000000000000000000000a509c7ed1bc160da25f746c36f6c14503bc91a1f",
            "0x000000000000000000000000aa8e23fb1079ea71e0a56f48a2aa51851d8433d0"
          ],
          "data": "0x000000000000000000000000000000000000000000000000000000025a1d2f99",
          "blockHash": "0x219a2a9f10fa5b38012481506f222d373c5bab72ced1af01bb6d8e65e49a1b29",
          "blockNumber": "0x459257",
          "transactionHash": "0xd82f217f9a6dfee17631e0ceb4d6297c3c55cb6e6dcc57d035dd6f3e5290e4d2",
          "transactionIndex": "0x3",
          "logIndex": "0x5",
          "removed": false
        }
      ],
      "status": "0x1",
      "logsBloom": "0x00000000000000000000000000002000000000000000000000000000000000000000000000000000000000000000000000000000000000000000000000000000000000000000000000000000000000000000000000000000000000004000100000000000000000000000000080000000000000000000000000000001000000000000000000000000000000000000000000000000000000000000000000000000000000000000000000000000800000000000000040000000020004000000000000000000000000000000000000000000000200100000000000000000000000000000000000000420000000000000000100010000000000000000000000000000",
      "type": "0x2",
      "effectiveGasPrice": "0xf24f3aac"
    },
    {
      "transactionHash": "0x120afd4d1b539237d55a49edc99207c39df3f7b35c2c1a4f4350cb03ad1e56a8",
      "transactionIndex": "0x4",
      "blockHash": "0x0d72193adbe70181cb79237b587c65d9959dd06686a7f1d52b962a10863f2ec6",
      "blockNumber": "0x459258",
      "from": "0x3e122A3dB43d225DD5BFFD929AD4176ce69117E0",
      "to": "0x16dA4541aD1807f4443d92D26044C1147406EB80",
      "cumulativeGasUsed": "0x6ce0b",
      "gasUsed": "0x853c",
      "contractAddress": null,
      "logs": [
        {
          "address": "0x16dA4541aD1807f4443d92D26044C1147406EB80",
          "topics": [
            "0x8c5be1e5ebec7d5bd14f71427d1e84f3dd0314c0f7b2291e5b200ac8c7c3b925",
            "0x0000000000000000000000003e122a3db43d225dd5bffd929ad4176ce69117e0",
            "0x000000000000000000000000a509c7ed1bc160da25f746c36f6c14503bc91a1f"
          ],
          "data": "0x000000000000000000000000000000000000000000000000000000029013b5b2",
          "blockHash": "0x0d72193adbe70181cb79237b587c65d9959dd06686a7f1d52b962a10863f2ec6",
          "blockNumber": "0x459258",
          "transactionHash": "0x120afd4d1b539237d55a49edc99207c39df3f7b35c2c1a4f4350cb03ad1e56a8",
          "transactionIndex": "0x4",
          "logIndex": "0x8",
          "removed": false
        }
      ],
      "status": "0x1",
      "logsBloom": "0x00000000080000000200000000000000000000000000000000000000000000000000008000000000000000000000000000000000000000000000000000200000000000000000000000000000000000000000000000000000000000004000000000000000000000000000000000000000000000000000000000000000000000000000000000040000000000000000000000000000000000000000000000000000020000000000000000000080000000000000000000000000000000000000000000008000000000000000000000000000000000000000000000000000000000000010000000000420000000000000000000000000000000000000000000000000",
      "type": "0x2",
      "effectiveGasPrice": "0xf19ebeb0"
    },
    {
      "transactionHash": "0x8a86fdde3fdffdaebeec5a746efb8fde92fde40753db74b27e7b9fdd440a6610",
      "transactionIndex": "0x0",
      "blockHash": "0xc436b1388b14b598edbc15b756837d0fc245e4e6eef80ca0ad5287e976388421",
      "blockNumber": "0x459259",
      "from": "0x3e122A3dB43d225DD5BFFD929AD4176ce69117E0",
      "to": "0xAF0F6e8b0Dc5c913bbF4d14c22B4E78Dd14310B6",
      "cumulativeGasUsed": "0x7a4c",
      "gasUsed": "0x7a4c",
      "contractAddress": null,
      "logs": [
        {
          "address": "0xAF0F6e8b0Dc5c913bbF4d14c22B4E78Dd14310B6",
          "topics": [
            "0x8c5be1e5ebec7d5bd14f71427d1e84f3dd0314c0f7b2291e5b200ac8c7c3b925",
            "0x0000000000000000000000003e122a3db43d225dd5bffd929ad4176ce69117e0",
            "0x000000000000000000000000a509c7ed1bc160da25f746c36f6c14503bc91a1f"
          ],
          "data": "0x00000000000000000000000000000000000000000000000000000002541b6449",
          "blockHash": "0xc436b1388b14b598edbc15b756837d0fc245e4e6eef80ca0ad5287e976388421",
          "blockNumber": "0x459259",
          "transactionHash": "0x8a86fdde3fdffdaebeec5a746efb8fde92fde40753db74b27e7b9fdd440a6610",
          "transactionIndex": "0x0",
          "logIndex": "0x0",
          "removed": false
        }
      ],
      "status": "0x1",
      "logsBloom": "0x00000000080000000000000000000000000000000000000000000000000000000000000000000000000000000000000000000000000000000000000000200000000000000000000000000000000000000000000000000000000000004000000000000000000000000000000000000000000000000000000000000000000000000000000000040000000000000000000000000000000000000000000000000000020000000000000000000080000000000000008000000000000000000000000000000000000000000000000000080000000000000000000000000001000000000010000000000420000000000000000000000000000000000000000000000000",
      "type": "0x2",
      "effectiveGasPrice": "0xf977b868"
    },
    {
      "transactionHash": "0xfb3a5652c0680c80b0086694041989d39f01570a297a2da39c94983b93e2b073",
      "transactionIndex": "0x2",
      "blockHash": "0xf1f9d360788dbd1b130be6ba646695656ec5e11a3310e4109660e212134fc0d8",
      "blockNumber": "0x45925a",
      "from": "0x3e122A3dB43d225DD5BFFD929AD4176ce69117E0",
      "to": "0x33F2D618C504d7860F3279F90e75279963fe9532",
      "cumulativeGasUsed": "0x189770",
      "gasUsed": "0x17556e",
      "contractAddress": null,
      "logs": [
        {
          "address": "0xf8Fb3713D459D7C1018BD0A49D19b4C44290EBE5",
          "topics": [
            "0xddf252ad1be2c89b69c2b068fc378daa952ba7f163c4a11628f55a4df523b3ef",
            "0x0000000000000000000000003ffaf50d4f4e96eb78f2407c090b72e86ecaed24",
            "0x000000000000000000000000a509c7ed1bc160da25f746c36f6c14503bc91a1f"
          ],
          "data": "0x00000000000000000000000000000000000000000000000000003c1e48c42eb4",
          "blockHash": "0xf1f9d360788dbd1b130be6ba646695656ec5e11a3310e4109660e212134fc0d8",
          "blockNumber": "0x45925a",
          "transactionHash": "0xfb3a5652c0680c80b0086694041989d39f01570a297a2da39c94983b93e2b073",
          "transactionIndex": "0x2",
          "logIndex": "0x2",
          "removed": false
        },
        {
          "address": "0xaA8E23Fb1079EA71e0a56F48a2aA51851D8433D0",
          "topics": [
            "0xddf252ad1be2c89b69c2b068fc378daa952ba7f163c4a11628f55a4df523b3ef",
            "0x000000000000000000000000af0f6e8b0dc5c913bbf4d14c22b4e78dd14310b6",
            "0x000000000000000000000000a509c7ed1bc160da25f746c36f6c14503bc91a1f"
          ],
          "data": "0x000000000000000000000000000000000000000000000000000000000601cc53",
          "blockHash": "0xf1f9d360788dbd1b130be6ba646695656ec5e11a3310e4109660e212134fc0d8",
          "blockNumber": "0x45925a",
          "transactionHash": "0xfb3a5652c0680c80b0086694041989d39f01570a297a2da39c94983b93e2b073",
          "transactionIndex": "0x2",
          "logIndex": "0x3",
          "removed": false
        },
        {
          "address": "0xf8Fb3713D459D7C1018BD0A49D19b4C44290EBE5",
          "topics": [
            "0x8c5be1e5ebec7d5bd14f71427d1e84f3dd0314c0f7b2291e5b200ac8c7c3b925",
            "0x000000000000000000000000a509c7ed1bc160da25f746c36f6c14503bc91a1f",
            "0x0000000000000000000000006ae43d3271ff6888e7fc43fd7321a503ff738951"
          ],
          "data": "0x00000000000000000000000000000000000000000000000000003c1e48c42eb4",
          "blockHash": "0xf1f9d360788dbd1b130be6ba646695656ec5e11a3310e4109660e212134fc0d8",
          "blockNumber": "0x45925a",
          "transactionHash": "0xfb3a5652c0680c80b0086694041989d39f01570a297a2da39c94983b93e2b073",
          "transactionIndex": "0x2",
          "logIndex": "0x4",
          "removed": false
        },
        {
          "address": "0x34a4d932E722b9dFb492B9D8131127690CE2430B",
          "topics": [
            "0xddf252ad1be2c89b69c2b068fc378daa952ba7f163c4a11628f55a4df523b3ef",
            "0x0000000000000000000000003e122a3db43d225dd5bffd929ad4176ce69117e0",
            "0x0000000000000000000000000000000000000000000000000000000000000000"
          ],
          "data": "0x000000000000000000000000000000000000000000000000000039b29f0ef01f",
          "blockHash": "0xf1f9d360788dbd1b130be6ba646695656ec5e11a3310e4109660e212134fc0d8",
          "blockNumber": "0x45925a",
          "transactionHash": "0xfb3a5652c0680c80b0086694041989d39f01570a297a2da39c94983b93e2b073",
          "transactionIndex": "0x2",
          "logIndex": "0x5",
          "removed": false
        },
        {
          "address": "0x34a4d932E722b9dFb492B9D8131127690CE2430B",
          "topics": [
            "0x4cf25bc1d991c17529c25213d3cc0cda295eeaad5f13f361969b12ea48015f90",
            "0x0000000000000000000000003e122a3db43d225dd5bffd929ad4176ce69117e0",
            "0x0000000000000000000000000000000000000000000000000000000000000000"
          ],
          "data": "0x000000000000000000000000000000000000000000000000000039b29f0ef01f0000000000000000000000000000000000000000000000000000026ba9b53e950000000000000000000000000000000000000000036d367664e94b3be4c568f7",
          "blockHash": "0xf1f9d360788dbd1b130be6ba646695656ec5e11a3310e4109660e212134fc0d8",
          "blockNumber": "0x45925a",
          "transactionHash": "0xfb3a5652c0680c80b0086694041989d39f01570a297a2da39c94983b93e2b073",
          "transactionIndex": "0x2",
          "logIndex": "0x6",
          "removed": false
        },
        {
          "address": "0x6Ae43d3271ff6888e7Fc43Fd7321a503ff738951",
          "topics": [
            "0x804c9b842b2748a22bb64b345453a3de7ca54a6ca45ce00d415894979e22897a",
            "0x000000000000000000000000f8fb3713d459d7c1018bd0a49d19b4c44290ebe5"
          ],
          "data": "0x000000000000000000000000000000000000000007b5df17bd311cd5125ee21200000000000000000000000000000000000000000a07728761db6d017c527587000000000000000000000000000000000000000009bd00499b276176e25275870000000000000000000000000000000000000000036090c9bab055f95d1bfc9b0000000000000000000000000000000000000000036d367664e94b3be4c568f7",
          "blockHash": "0xf1f9d360788dbd1b130be6ba646695656ec5e11a3310e4109660e212134fc0d8",
          "blockNumber": "0x45925a",
          "transactionHash": "0xfb3a5652c0680c80b0086694041989d39f01570a297a2da39c94983b93e2b073",
          "transactionIndex": "0x2",
          "logIndex": "0x7",
          "removed": false
        },
        {
          "address": "0xf8Fb3713D459D7C1018BD0A49D19b4C44290EBE5",
          "topics": [
            "0xddf252ad1be2c89b69c2b068fc378daa952ba7f163c4a11628f55a4df523b3ef",
            "0x000000000000000000000000a509c7ed1bc160da25f746c36f6c14503bc91a1f",
            "0x0000000000000000000000003ffaf50d4f4e96eb78f2407c090b72e86ecaed24"
          ],
          "data": "0x00000000000000000000000000000000000000000000000000003c1e48c42eb4",
          "blockHash": "0xf1f9d360788dbd1b130be6ba646695656ec5e11a3310e4109660e212134fc0d8",
          "blockNumber": "0x45925a",
          "transactionHash": "0xfb3a5652c0680c80b0086694041989d39f01570a297a2da39c94983b93e2b073",
          "transactionIndex": "0x2",
          "logIndex": "0x8",
          "removed": false
        },
        {
          "address": "0xf8Fb3713D459D7C1018BD0A49D19b4C44290EBE5",
          "topics": [
            "0x8c5be1e5ebec7d5bd14f71427d1e84f3dd0314c0f7b2291e5b200ac8c7c3b925",
            "0x000000000000000000000000a509c7ed1bc160da25f746c36f6c14503bc91a1f",
            "0x0000000000000000000000006ae43d3271ff6888e7fc43fd7321a503ff738951"
          ],
          "data": "0x0000000000000000000000000000000000000000000000000000000000000000",
          "blockHash": "0xf1f9d360788dbd1b130be6ba646695656ec5e11a3310e4109660e212134fc0d8",
          "blockNumber": "0x45925a",
          "transactionHash": "0xfb3a5652c0680c80b0086694041989d39f01570a297a2da39c94983b93e2b073",
          "transactionIndex": "0x2",
          "logIndex": "0x9",
          "removed": false
        },
        {
          "address": "0x6Ae43d3271ff6888e7Fc43Fd7321a503ff738951",
          "topics": [
            "0xa534c8dbe71f871f9f3530e97a74601fea17b426cae02e1c5aee42c96c784051",
            "0x000000000000000000000000f8fb3713d459d7c1018bd0a49d19b4c44290ebe5",
            "0x0000000000000000000000003e122a3db43d225dd5bffd929ad4176ce69117e0",
            "0x000000000000000000000000a509c7ed1bc160da25f746c36f6c14503bc91a1f"
          ],
          "data": "0x00000000000000000000000000000000000000000000000000003c1e48c42eb40000000000000000000000000000000000000000000000000000000000000000",
          "blockHash": "0xf1f9d360788dbd1b130be6ba646695656ec5e11a3310e4109660e212134fc0d8",
          "blockNumber": "0x45925a",
          "transactionHash": "0xfb3a5652c0680c80b0086694041989d39f01570a297a2da39c94983b93e2b073",
          "transactionIndex": "0x2",
          "logIndex": "0xa",
          "removed": false
        },
        {
          "address": "0x34a4d932E722b9dFb492B9D8131127690CE2430B",
          "topics": [
            "0xda919360433220e13b51e8c211e490d148e61a3bd53de8c097194e458b97f3e1",
            "0x000000000000000000000000c5e0b6e472dde70eceffa4c568bd52f2a7a1632a",
            "0x000000000000000000000000a509c7ed1bc160da25f746c36f6c14503bc91a1f",
            "0x000000000000000000000000f8fb3713d459d7c1018bd0a49d19b4c44290ebe5"
          ],
          "data": "0x0000000000000000000000000000000000000000000000000000012e42346a71",
          "blockHash": "0xf1f9d360788dbd1b130be6ba646695656ec5e11a3310e4109660e212134fc0d8",
          "blockNumber": "0x45925a",
          "transactionHash": "0xfb3a5652c0680c80b0086694041989d39f01570a297a2da39c94983b93e2b073",
          "transactionIndex": "0x2",
          "logIndex": "0xb",
          "removed": false
        },
        {
          "address": "0x34a4d932E722b9dFb492B9D8131127690CE2430B",
          "topics": [
            "0xddf252ad1be2c89b69c2b068fc378daa952ba7f163c4a11628f55a4df523b3ef",
            "0x0000000000000000000000000000000000000000000000000000000000000000",
            "0x000000000000000000000000c5e0b6e472dde70eceffa4c568bd52f2a7a1632a"
          ],
          "data": "0x00000000000000000000000000000000000000000000000000003c25fab9043b",
          "blockHash": "0xf1f9d360788dbd1b130be6ba646695656ec5e11a3310e4109660e212134fc0d8",
          "blockNumber": "0x45925a",
          "transactionHash": "0xfb3a5652c0680c80b0086694041989d39f01570a297a2da39c94983b93e2b073",
          "transactionIndex": "0x2",
          "logIndex": "0xc",
          "removed": false
        },
        {
          "address": "0x34a4d932E722b9dFb492B9D8131127690CE2430B",
          "topics": [
            "0x458f5fa412d0f69b08dd84872b0215675cc67bc1d5b6fd93300a1c3878b86196",
            "0x000000000000000000000000a509c7ed1bc160da25f746c36f6c14503bc91a1f",
            "0x000000000000000000000000c5e0b6e472dde70eceffa4c568bd52f2a7a1632a"
          ],
          "data": "0x00000000000000000000000000000000000000000000000000003c25fab9043b00000000000000000000000000000000000000000000000000000000000000000000000000000000000000000000000000000000036d367664e94b3be4c568f7",
          "blockHash": "0xf1f9d360788dbd1b130be6ba646695656ec5e11a3310e4109660e212134fc0d8",
          "blockNumber": "0x45925a",
          "transactionHash": "0xfb3a5652c0680c80b0086694041989d39f01570a297a2da39c94983b93e2b073",
          "transactionIndex": "0x2",
          "logIndex": "0xd",
          "removed": false
        },
        {
          "address": "0x6Ae43d3271ff6888e7Fc43Fd7321a503ff738951",
          "topics": [
            "0x804c9b842b2748a22bb64b345453a3de7ca54a6ca45ce00d415894979e22897a",
            "0x000000000000000000000000f8fb3713d459d7c1018bd0a49d19b4c44290ebe5"
          ],
          "data": "0x000000000000000000000000000000000000000007b5df17cde2eaa2ef2bef0300000000000000000000000000000000000000000a0772876f635eb586ac623d000000000000000000000000000000000000000009bd0049a8af532aecac623d0000000000000000000000000000000000000000036090c9bab055f95d1bfc9b0000000000000000000000000000000000000000036d367664e94b3be4c568f7",
          "blockHash": "0xf1f9d360788dbd1b130be6ba646695656ec5e11a3310e4109660e212134fc0d8",
          "blockNumber": "0x45925a",
          "transactionHash": "0xfb3a5652c0680c80b0086694041989d39f01570a297a2da39c94983b93e2b073",
          "transactionIndex": "0x2",
          "logIndex": "0xe",
          "removed": false
        },
        {
          "address": "0xf8Fb3713D459D7C1018BD0A49D19b4C44290EBE5",
          "topics": [
            "0xddf252ad1be2c89b69c2b068fc378daa952ba7f163c4a11628f55a4df523b3ef",
            "0x0000000000000000000000003ffaf50d4f4e96eb78f2407c090b72e86ecaed24",
            "0x000000000000000000000000a509c7ed1bc160da25f746c36f6c14503bc91a1f"
          ],
          "data": "0x00000000000000000000000000000000000000000000000000003c25fab9043b",
          "blockHash": "0xf1f9d360788dbd1b130be6ba646695656ec5e11a3310e4109660e212134fc0d8",
          "blockNumber": "0x45925a",
          "transactionHash": "0xfb3a5652c0680c80b0086694041989d39f01570a297a2da39c94983b93e2b073",
          "transactionIndex": "0x2",
          "logIndex": "0xf",
          "removed": false
        },
        {
          "address": "0x6Ae43d3271ff6888e7Fc43Fd7321a503ff738951",
          "topics": [
            "0xb3d084820fb1a9decffb176436bd02558d15fac9b0ddfed8c465bc7359d7dce0",
            "0x000000000000000000000000f8fb3713d459d7c1018bd0a49d19b4c44290ebe5",
            "0x000000000000000000000000c5e0b6e472dde70eceffa4c568bd52f2a7a1632a",
            "0x0000000000000000000000000000000000000000000000000000000000000000"
          ],
          "data": "0x000000000000000000000000a509c7ed1bc160da25f746c36f6c14503bc91a1f00000000000000000000000000000000000000000000000000003c25fab9043b0000000000000000000000000000000000000000000000000000000000000002000000000000000000000000000000000000000009bd0049a8af532aecac623d",
          "blockHash": "0xf1f9d360788dbd1b130be6ba646695656ec5e11a3310e4109660e212134fc0d8",
          "blockNumber": "0x45925a",
          "transactionHash": "0xfb3a5652c0680c80b0086694041989d39f01570a297a2da39c94983b93e2b073",
          "transactionIndex": "0x2",
          "logIndex": "0x10",
          "removed": false
        },
        {
          "address": "0xf8Fb3713D459D7C1018BD0A49D19b4C44290EBE5",
          "topics": [
            "0x8c5be1e5ebec7d5bd14f71427d1e84f3dd0314c0f7b2291e5b200ac8c7c3b925",
            "0x000000000000000000000000a509c7ed1bc160da25f746c36f6c14503bc91a1f",
            "0x0000000000000000000000006ae43d3271ff6888e7fc43fd7321a503ff738951"
          ],
          "data": "0x00000000000000000000000000000000000000000000000000003c25fab9043b",
          "blockHash": "0xf1f9d360788dbd1b130be6ba646695656ec5e11a3310e4109660e212134fc0d8",
          "blockNumber": "0x45925a",
          "transactionHash": "0xfb3a5652c0680c80b0086694041989d39f01570a297a2da39c94983b93e2b073",
          "transactionIndex": "0x2",
          "logIndex": "0x11",
          "removed": false
        },
        {
          "address": "0xaA8E23Fb1079EA71e0a56F48a2aA51851D8433D0",
          "topics": [
            "0x8c5be1e5ebec7d5bd14f71427d1e84f3dd0314c0f7b2291e5b200ac8c7c3b925",
            "0x000000000000000000000000a509c7ed1bc160da25f746c36f6c14503bc91a1f",
            "0x0000000000000000000000006ae43d3271ff6888e7fc43fd7321a503ff738951"
          ],
          "data": "0x000000000000000000000000000000000000000000000000000000000601cc53",
          "blockHash": "0xf1f9d360788dbd1b130be6ba646695656ec5e11a3310e4109660e212134fc0d8",
          "blockNumber": "0x45925a",
          "transactionHash": "0xfb3a5652c0680c80b0086694041989d39f01570a297a2da39c94983b93e2b073",
          "transactionIndex": "0x2",
          "logIndex": "0x12",
          "removed": false
        },
        {
          "address": "0x9844386d29EEd970B9F6a2B9a676083b0478210e",
          "topics": [
            "0xddf252ad1be2c89b69c2b068fc378daa952ba7f163c4a11628f55a4df523b3ef",
            "0x0000000000000000000000003e122a3db43d225dd5bffd929ad4176ce69117e0",
            "0x0000000000000000000000000000000000000000000000000000000000000000"
          ],
          "data": "0x0000000000000000000000000000000000000000000000000000000005f5e100",
          "blockHash": "0xf1f9d360788dbd1b130be6ba646695656ec5e11a3310e4109660e212134fc0d8",
          "blockNumber": "0x45925a",
          "transactionHash": "0xfb3a5652c0680c80b0086694041989d39f01570a297a2da39c94983b93e2b073",
          "transactionIndex": "0x2",
          "logIndex": "0x13",
          "removed": false
        },
        {
          "address": "0x9844386d29EEd970B9F6a2B9a676083b0478210e",
          "topics": [
            "0x4cf25bc1d991c17529c25213d3cc0cda295eeaad5f13f361969b12ea48015f90",
            "0x0000000000000000000000003e122a3db43d225dd5bffd929ad4176ce69117e0",
            "0x0000000000000000000000000000000000000000000000000000000000000000"
          ],
          "data": "0x0000000000000000000000000000000000000000000000000000000005f5e10000000000000000000000000000000000000000000000000000000000000beb5300000000000000000000000000000000000000000344f9c4e6150e4ba2217ef2",
          "blockHash": "0xf1f9d360788dbd1b130be6ba646695656ec5e11a3310e4109660e212134fc0d8",
          "blockNumber": "0x45925a",
          "transactionHash": "0xfb3a5652c0680c80b0086694041989d39f01570a297a2da39c94983b93e2b073",
          "transactionIndex": "0x2",
          "logIndex": "0x14",
          "removed": false
        },
        {
          "address": "0x6Ae43d3271ff6888e7Fc43Fd7321a503ff738951",
          "topics": [
            "0x804c9b842b2748a22bb64b345453a3de7ca54a6ca45ce00d415894979e22897a",
            "0x000000000000000000000000aa8e23fb1079ea71e0a56f48a2aa51851d8433d0"
          ],
          "data": "0x000000000000000000000000000000000000000000002799ccec1ed0179e22390000000000000000000000000000000000000000002986d10a79c6720b256c5c00000000000000000000000000000000000000000001573ce0ae0044c92b62e300000000000000000000000000000000000000000342a8d626f9952e9fad564d00000000000000000000000000000000000000000344f9c4e6150e4ba2217ef2",
          "blockHash": "0xf1f9d360788dbd1b130be6ba646695656ec5e11a3310e4109660e212134fc0d8",
          "blockNumber": "0x45925a",
          "transactionHash": "0xfb3a5652c0680c80b0086694041989d39f01570a297a2da39c94983b93e2b073",
          "transactionIndex": "0x2",
          "logIndex": "0x15",
          "removed": false
        },
        {
          "address": "0xaA8E23Fb1079EA71e0a56F48a2aA51851D8433D0",
          "topics": [
            "0xddf252ad1be2c89b69c2b068fc378daa952ba7f163c4a11628f55a4df523b3ef",
            "0x000000000000000000000000a509c7ed1bc160da25f746c36f6c14503bc91a1f",
            "0x000000000000000000000000af0f6e8b0dc5c913bbf4d14c22b4e78dd14310b6"
          ],
          "data": "0x000000000000000000000000000000000000000000000000000000000601cc53",
          "blockHash": "0xf1f9d360788dbd1b130be6ba646695656ec5e11a3310e4109660e212134fc0d8",
          "blockNumber": "0x45925a",
          "transactionHash": "0xfb3a5652c0680c80b0086694041989d39f01570a297a2da39c94983b93e2b073",
          "transactionIndex": "0x2",
          "logIndex": "0x16",
          "removed": false
        },
        {
          "address": "0xaA8E23Fb1079EA71e0a56F48a2aA51851D8433D0",
          "topics": [
            "0x8c5be1e5ebec7d5bd14f71427d1e84f3dd0314c0f7b2291e5b200ac8c7c3b925",
            "0x000000000000000000000000a509c7ed1bc160da25f746c36f6c14503bc91a1f",
            "0x0000000000000000000000006ae43d3271ff6888e7fc43fd7321a503ff738951"
          ],
          "data": "0x0000000000000000000000000000000000000000000000000000000000000000",
          "blockHash": "0xf1f9d360788dbd1b130be6ba646695656ec5e11a3310e4109660e212134fc0d8",
          "blockNumber": "0x45925a",
          "transactionHash": "0xfb3a5652c0680c80b0086694041989d39f01570a297a2da39c94983b93e2b073",
          "transactionIndex": "0x2",
          "logIndex": "0x17",
          "removed": false
        },
        {
          "address": "0x6Ae43d3271ff6888e7Fc43Fd7321a503ff738951",
          "topics": [
            "0xa534c8dbe71f871f9f3530e97a74601fea17b426cae02e1c5aee42c96c784051",
            "0x000000000000000000000000aa8e23fb1079ea71e0a56f48a2aa51851d8433d0",
            "0x0000000000000000000000003e122a3db43d225dd5bffd929ad4176ce69117e0",
            "0x000000000000000000000000a509c7ed1bc160da25f746c36f6c14503bc91a1f"
          ],
          "data": "0x000000000000000000000000000000000000000000000000000000000601cc530000000000000000000000000000000000000000000000000000000000000000",
          "blockHash": "0xf1f9d360788dbd1b130be6ba646695656ec5e11a3310e4109660e212134fc0d8",
          "blockNumber": "0x45925a",
          "transactionHash": "0xfb3a5652c0680c80b0086694041989d39f01570a297a2da39c94983b93e2b073",
          "transactionIndex": "0x2",
          "logIndex": "0x18",
          "removed": false
        },
        {
          "address": "0x9844386d29EEd970B9F6a2B9a676083b0478210e",
          "topics": [
            "0xda919360433220e13b51e8c211e490d148e61a3bd53de8c097194e458b97f3e1",
            "0x000000000000000000000000c5e0b6e472dde70eceffa4c568bd52f2a7a1632a",
            "0x000000000000000000000000a509c7ed1bc160da25f746c36f6c14503bc91a1f",
            "0x000000000000000000000000aa8e23fb1079ea71e0a56f48a2aa51851d8433d0"
          ],
          "data": "0x00000000000000000000000000000000000000000000000000000002541a9e6f",
          "blockHash": "0xf1f9d360788dbd1b130be6ba646695656ec5e11a3310e4109660e212134fc0d8",
          "blockNumber": "0x45925a",
          "transactionHash": "0xfb3a5652c0680c80b0086694041989d39f01570a297a2da39c94983b93e2b073",
          "transactionIndex": "0x2",
          "logIndex": "0x19",
          "removed": false
        },
        {
          "address": "0x9844386d29EEd970B9F6a2B9a676083b0478210e",
          "topics": [
            "0xddf252ad1be2c89b69c2b068fc378daa952ba7f163c4a11628f55a4df523b3ef",
            "0x0000000000000000000000000000000000000000000000000000000000000000",
            "0x000000000000000000000000c5e0b6e472dde70eceffa4c568bd52f2a7a1632a"
          ],
          "data": "0x0000000000000000000000000000000000000000000000000000000006036d19",
          "blockHash": "0xf1f9d360788dbd1b130be6ba646695656ec5e11a3310e4109660e212134fc0d8",
          "blockNumber": "0x45925a",
          "transactionHash": "0xfb3a5652c0680c80b0086694041989d39f01570a297a2da39c94983b93e2b073",
          "transactionIndex": "0x2",
          "logIndex": "0x1a",
          "removed": false
        },
        {
          "address": "0x9844386d29EEd970B9F6a2B9a676083b0478210e",
          "topics": [
            "0x458f5fa412d0f69b08dd84872b0215675cc67bc1d5b6fd93300a1c3878b86196",
            "0x000000000000000000000000a509c7ed1bc160da25f746c36f6c14503bc91a1f",
            "0x000000000000000000000000c5e0b6e472dde70eceffa4c568bd52f2a7a1632a"
          ],
          "data": "0x0000000000000000000000000000000000000000000000000000000006036d19000000000000000000000000000000000000000000000000000000000000dbef00000000000000000000000000000000000000000344f9c4e6150e4ba2217ef2",
          "blockHash": "0xf1f9d360788dbd1b130be6ba646695656ec5e11a3310e4109660e212134fc0d8",
          "blockNumber": "0x45925a",
          "transactionHash": "0xfb3a5652c0680c80b0086694041989d39f01570a297a2da39c94983b93e2b073",
          "transactionIndex": "0x2",
          "logIndex": "0x1b",
          "removed": false
        },
        {
          "address": "0x6Ae43d3271ff6888e7Fc43Fd7321a503ff738951",
          "topics": [
            "0x804c9b842b2748a22bb64b345453a3de7ca54a6ca45ce00d415894979e22897a",
            "0x000000000000000000000000aa8e23fb1079ea71e0a56f48a2aa51851d8433d0"
          ],
          "data": "0x00000000000000000000000000000000000000000000279a27ff5fb4ad8583c90000000000000000000000000000000000000000002986d1bf20eb9ac3a302b500000000000000000000000000000000000000000001574285e7298a8d1815a600000000000000000000000000000000000000000342a8d626f9952e9fad564d00000000000000000000000000000000000000000344f9c4e6150e4ba2217ef2",
          "blockHash": "0xf1f9d360788dbd1b130be6ba646695656ec5e11a3310e4109660e212134fc0d8",
          "blockNumber": "0x45925a",
          "transactionHash": "0xfb3a5652c0680c80b0086694041989d39f01570a297a2da39c94983b93e2b073",
          "transactionIndex": "0x2",
          "logIndex": "0x1c",
          "removed": false
        },
        {
          "address": "0xaA8E23Fb1079EA71e0a56F48a2aA51851D8433D0",
          "topics": [
            "0xddf252ad1be2c89b69c2b068fc378daa952ba7f163c4a11628f55a4df523b3ef",
            "0x000000000000000000000000af0f6e8b0dc5c913bbf4d14c22b4e78dd14310b6",
            "0x000000000000000000000000a509c7ed1bc160da25f746c36f6c14503bc91a1f"
          ],
          "data": "0x000000000000000000000000000000000000000000000000000000000602912a",
          "blockHash": "0xf1f9d360788dbd1b130be6ba646695656ec5e11a3310e4109660e212134fc0d8",
          "blockNumber": "0x45925a",
          "transactionHash": "0xfb3a5652c0680c80b0086694041989d39f01570a297a2da39c94983b93e2b073",
          "transactionIndex": "0x2",
          "logIndex": "0x1d",
          "removed": false
        },
        {
          "address": "0x6Ae43d3271ff6888e7Fc43Fd7321a503ff738951",
          "topics": [
            "0xb3d084820fb1a9decffb176436bd02558d15fac9b0ddfed8c465bc7359d7dce0",
            "0x000000000000000000000000aa8e23fb1079ea71e0a56f48a2aa51851d8433d0",
            "0x000000000000000000000000c5e0b6e472dde70eceffa4c568bd52f2a7a1632a",
            "0x0000000000000000000000000000000000000000000000000000000000000000"
          ],
          "data": "0x000000000000000000000000a509c7ed1bc160da25f746c36f6c14503bc91a1f000000000000000000000000000000000000000000000000000000000602912a000000000000000000000000000000000000000000000000000000000000000200000000000000000000000000000000000000000001574285e7298a8d1815a6",
          "blockHash": "0xf1f9d360788dbd1b130be6ba646695656ec5e11a3310e4109660e212134fc0d8",
          "blockNumber": "0x45925a",
          "transactionHash": "0xfb3a5652c0680c80b0086694041989d39f01570a297a2da39c94983b93e2b073",
          "transactionIndex": "0x2",
          "logIndex": "0x1e",
          "removed": false
        },
        {
          "address": "0xaA8E23Fb1079EA71e0a56F48a2aA51851D8433D0",
          "topics": [
            "0x8c5be1e5ebec7d5bd14f71427d1e84f3dd0314c0f7b2291e5b200ac8c7c3b925",
            "0x000000000000000000000000a509c7ed1bc160da25f746c36f6c14503bc91a1f",
            "0x0000000000000000000000006ae43d3271ff6888e7fc43fd7321a503ff738951"
          ],
          "data": "0x000000000000000000000000000000000000000000000000000000000602912a",
          "blockHash": "0xf1f9d360788dbd1b130be6ba646695656ec5e11a3310e4109660e212134fc0d8",
          "blockNumber": "0x45925a",
          "transactionHash": "0xfb3a5652c0680c80b0086694041989d39f01570a297a2da39c94983b93e2b073",
          "transactionIndex": "0x2",
          "logIndex": "0x1f",
          "removed": false
        },
        {
          "address": "0x16dA4541aD1807f4443d92D26044C1147406EB80",
          "topics": [
            "0x8c5be1e5ebec7d5bd14f71427d1e84f3dd0314c0f7b2291e5b200ac8c7c3b925",
            "0x0000000000000000000000003e122a3db43d225dd5bffd929ad4176ce69117e0",
            "0x000000000000000000000000a509c7ed1bc160da25f746c36f6c14503bc91a1f"
          ],
          "data": "0x0000000000000000000000000000000000000000000000000000000253fca19f",
          "blockHash": "0xf1f9d360788dbd1b130be6ba646695656ec5e11a3310e4109660e212134fc0d8",
          "blockNumber": "0x45925a",
          "transactionHash": "0xfb3a5652c0680c80b0086694041989d39f01570a297a2da39c94983b93e2b073",
          "transactionIndex": "0x2",
          "logIndex": "0x20",
          "removed": false
        },
        {
          "address": "0x16dA4541aD1807f4443d92D26044C1147406EB80",
          "topics": [
            "0xddf252ad1be2c89b69c2b068fc378daa952ba7f163c4a11628f55a4df523b3ef",
            "0x0000000000000000000000000000000000000000000000000000000000000000",
            "0x0000000000000000000000003e122a3db43d225dd5bffd929ad4176ce69117e0"
          ],
          "data": "0x00000000000000000000000000000000000000000000000000000000000002ec",
          "blockHash": "0xf1f9d360788dbd1b130be6ba646695656ec5e11a3310e4109660e212134fc0d8",
          "blockNumber": "0x45925a",
          "transactionHash": "0xfb3a5652c0680c80b0086694041989d39f01570a297a2da39c94983b93e2b073",
          "transactionIndex": "0x2",
          "logIndex": "0x21",
          "removed": false
        },
        {
          "address": "0x16dA4541aD1807f4443d92D26044C1147406EB80",
          "topics": [
            "0x458f5fa412d0f69b08dd84872b0215675cc67bc1d5b6fd93300a1c3878b86196",
            "0x000000000000000000000000a509c7ed1bc160da25f746c36f6c14503bc91a1f",
            "0x0000000000000000000000003e122a3db43d225dd5bffd929ad4176ce69117e0"
          ],
          "data": "0x00000000000000000000000000000000000000000000000000000000000002ec00000000000000000000000000000000000000000000000000000000000002ec0000000000000000000000000000000000000000034949527de4afe7aed31502",
          "blockHash": "0xf1f9d360788dbd1b130be6ba646695656ec5e11a3310e4109660e212134fc0d8",
          "blockNumber": "0x45925a",
          "transactionHash": "0xfb3a5652c0680c80b0086694041989d39f01570a297a2da39c94983b93e2b073",
          "transactionIndex": "0x2",
          "logIndex": "0x22",
          "removed": false
        },
        {
          "address": "0x16dA4541aD1807f4443d92D26044C1147406EB80",
          "topics": [
            "0xddf252ad1be2c89b69c2b068fc378daa952ba7f163c4a11628f55a4df523b3ef",
            "0x0000000000000000000000000000000000000000000000000000000000000000",
            "0x000000000000000000000000c5e0b6e472dde70eceffa4c568bd52f2a7a1632a"
          ],
          "data": "0x0000000000000000000000000000000000000000000000000000000000000007",
          "blockHash": "0xf1f9d360788dbd1b130be6ba646695656ec5e11a3310e4109660e212134fc0d8",
          "blockNumber": "0x45925a",
          "transactionHash": "0xfb3a5652c0680c80b0086694041989d39f01570a297a2da39c94983b93e2b073",
          "transactionIndex": "0x2",
          "logIndex": "0x23",
          "removed": false
        },
        {
          "address": "0x16dA4541aD1807f4443d92D26044C1147406EB80",
          "topics": [
            "0x458f5fa412d0f69b08dd84872b0215675cc67bc1d5b6fd93300a1c3878b86196",
            "0x000000000000000000000000a509c7ed1bc160da25f746c36f6c14503bc91a1f",
            "0x000000000000000000000000c5e0b6e472dde70eceffa4c568bd52f2a7a1632a"
          ],
          "data": "0x000000000000000000000000000000000000000000000000000000000000000700000000000000000000000000000000000000000000000000000000000000070000000000000000000000000000000000000000034949527de4afe7aed31502",
          "blockHash": "0xf1f9d360788dbd1b130be6ba646695656ec5e11a3310e4109660e212134fc0d8",
          "blockNumber": "0x45925a",
          "transactionHash": "0xfb3a5652c0680c80b0086694041989d39f01570a297a2da39c94983b93e2b073",
          "transactionIndex": "0x2",
          "logIndex": "0x24",
          "removed": false
        },
        {
          "address": "0x16dA4541aD1807f4443d92D26044C1147406EB80",
          "topics": [
            "0xddf252ad1be2c89b69c2b068fc378daa952ba7f163c4a11628f55a4df523b3ef",
            "0x0000000000000000000000003e122a3db43d225dd5bffd929ad4176ce69117e0",
            "0x000000000000000000000000c5e0b6e472dde70eceffa4c568bd52f2a7a1632a"
          ],
          "data": "0x000000000000000000000000000000000000000000000000000000003c171413",
          "blockHash": "0xf1f9d360788dbd1b130be6ba646695656ec5e11a3310e4109660e212134fc0d8",
          "blockNumber": "0x45925a",
          "transactionHash": "0xfb3a5652c0680c80b0086694041989d39f01570a297a2da39c94983b93e2b073",
          "transactionIndex": "0x2",
          "logIndex": "0x25",
          "removed": false
        },
        {
          "address": "0x6Ae43d3271ff6888e7Fc43Fd7321a503ff738951",
          "topics": [
            "0x44c58d81365b66dd4b1a7f36c25aa97b8c71c361ee4937adc1a00000227db5dd",
            "0x00000000000000000000000094a9d9ac8a22534e3faca9f4e7f2e2cf85d5e4c8",
            "0x0000000000000000000000003e122a3db43d225dd5bffd929ad4176ce69117e0"
          ],
          "data": "0x",
          "blockHash": "0xf1f9d360788dbd1b130be6ba646695656ec5e11a3310e4109660e212134fc0d8",
          "blockNumber": "0x45925a",
          "transactionHash": "0xfb3a5652c0680c80b0086694041989d39f01570a297a2da39c94983b93e2b073",
          "transactionIndex": "0x2",
          "logIndex": "0x26",
          "removed": false
        },
        {
          "address": "0x16dA4541aD1807f4443d92D26044C1147406EB80",
          "topics": [
            "0x4beccb90f994c31aced7a23b5611020728a23d8ec5cddd1a3e9d97b96fda8666",
            "0x0000000000000000000000003e122a3db43d225dd5bffd929ad4176ce69117e0",
            "0x000000000000000000000000c5e0b6e472dde70eceffa4c568bd52f2a7a1632a"
          ],
          "data": "0x000000000000000000000000000000000000000000000000000000003b1526b50000000000000000000000000000000000000000034949527de4afe7aed31502",
          "blockHash": "0xf1f9d360788dbd1b130be6ba646695656ec5e11a3310e4109660e212134fc0d8",
          "blockNumber": "0x45925a",
          "transactionHash": "0xfb3a5652c0680c80b0086694041989d39f01570a297a2da39c94983b93e2b073",
          "transactionIndex": "0x2",
          "logIndex": "0x27",
          "removed": false
        },
        {
          "address": "0xAF0F6e8b0Dc5c913bbF4d14c22B4E78Dd14310B6",
          "topics": [
            "0x8c5be1e5ebec7d5bd14f71427d1e84f3dd0314c0f7b2291e5b200ac8c7c3b925",
            "0x0000000000000000000000003e122a3db43d225dd5bffd929ad4176ce69117e0",
            "0x000000000000000000000000a509c7ed1bc160da25f746c36f6c14503bc91a1f"
          ],
          "data": "0x0000000000000000000000000000000000000000000000000000000253fca1c0",
          "blockHash": "0xf1f9d360788dbd1b130be6ba646695656ec5e11a3310e4109660e212134fc0d8",
          "blockNumber": "0x45925a",
          "transactionHash": "0xfb3a5652c0680c80b0086694041989d39f01570a297a2da39c94983b93e2b073",
          "transactionIndex": "0x2",
          "logIndex": "0x28",
          "removed": false
        },
        {
          "address": "0xAF0F6e8b0Dc5c913bbF4d14c22B4E78Dd14310B6",
          "topics": [
            "0xddf252ad1be2c89b69c2b068fc378daa952ba7f163c4a11628f55a4df523b3ef",
            "0x0000000000000000000000000000000000000000000000000000000000000000",
            "0x0000000000000000000000003e122a3db43d225dd5bffd929ad4176ce69117e0"
          ],
          "data": "0x0000000000000000000000000000000000000000000000000000000000003e09",
          "blockHash": "0xf1f9d360788dbd1b130be6ba646695656ec5e11a3310e4109660e212134fc0d8",
          "blockNumber": "0x45925a",
          "transactionHash": "0xfb3a5652c0680c80b0086694041989d39f01570a297a2da39c94983b93e2b073",
          "transactionIndex": "0x2",
          "logIndex": "0x29",
          "removed": false
        },
        {
          "address": "0xAF0F6e8b0Dc5c913bbF4d14c22B4E78Dd14310B6",
          "topics": [
            "0x458f5fa412d0f69b08dd84872b0215675cc67bc1d5b6fd93300a1c3878b86196",
            "0x000000000000000000000000a509c7ed1bc160da25f746c36f6c14503bc91a1f",
            "0x0000000000000000000000003e122a3db43d225dd5bffd929ad4176ce69117e0"
          ],
          "data": "0x0000000000000000000000000000000000000000000000000000000000003e090000000000000000000000000000000000000000000000000000000000003e0900000000000000000000000000000000000000000342a8d626f9952e9fad564d",
          "blockHash": "0xf1f9d360788dbd1b130be6ba646695656ec5e11a3310e4109660e212134fc0d8",
          "blockNumber": "0x45925a",
          "transactionHash": "0xfb3a5652c0680c80b0086694041989d39f01570a297a2da39c94983b93e2b073",
          "transactionIndex": "0x2",
          "logIndex": "0x2a",
          "removed": false
        },
        {
          "address": "0xAF0F6e8b0Dc5c913bbF4d14c22B4E78Dd14310B6",
          "topics": [
            "0xddf252ad1be2c89b69c2b068fc378daa952ba7f163c4a11628f55a4df523b3ef",
            "0x0000000000000000000000003e122a3db43d225dd5bffd929ad4176ce69117e0",
            "0x000000000000000000000000c5e0b6e472dde70eceffa4c568bd52f2a7a1632a"
          ],
          "data": "0x00000000000000000000000000000000000000000000000000000000001ec289",
          "blockHash": "0xf1f9d360788dbd1b130be6ba646695656ec5e11a3310e4109660e212134fc0d8",
          "blockNumber": "0x45925a",
          "transactionHash": "0xfb3a5652c0680c80b0086694041989d39f01570a297a2da39c94983b93e2b073",
          "transactionIndex": "0x2",
          "logIndex": "0x2b",
          "removed": false
        },
        {
          "address": "0xAF0F6e8b0Dc5c913bbF4d14c22B4E78Dd14310B6",
          "topics": [
            "0x4beccb90f994c31aced7a23b5611020728a23d8ec5cddd1a3e9d97b96fda8666",
            "0x0000000000000000000000003e122a3db43d225dd5bffd929ad4176ce69117e0",
            "0x000000000000000000000000c5e0b6e472dde70eceffa4c568bd52f2a7a1632a"
          ],
          "data": "0x00000000000000000000000000000000000000000000000000000000001e7bfa00000000000000000000000000000000000000000342a8d626f9952e9fad564d",
          "blockHash": "0xf1f9d360788dbd1b130be6ba646695656ec5e11a3310e4109660e212134fc0d8",
          "blockNumber": "0x45925a",
          "transactionHash": "0xfb3a5652c0680c80b0086694041989d39f01570a297a2da39c94983b93e2b073",
          "transactionIndex": "0x2",
          "logIndex": "0x2c",
          "removed": false
        },
        {
          "address": "0x6Ae43d3271ff6888e7Fc43Fd7321a503ff738951",
          "topics": [
            "0x804c9b842b2748a22bb64b345453a3de7ca54a6ca45ce00d415894979e22897a",
            "0x000000000000000000000000f8fb3713d459d7c1018bd0a49d19b4c44290ebe5"
          ],
          "data": "0x000000000000000000000000000000000000000007b5df17bd5d1aedd6c66e9600000000000000000000000000000000000000000a07728761ff1501015fea72000000000000000000000000000000000000000009bd00499b4b0976675fea720000000000000000000000000000000000000000036090c9bab0aadda84cf91b0000000000000000000000000000000000000000036d367664e94b3be4c568f7",
          "blockHash": "0xf1f9d360788dbd1b130be6ba646695656ec5e11a3310e4109660e212134fc0d8",
          "blockNumber": "0x45925a",
          "transactionHash": "0xfb3a5652c0680c80b0086694041989d39f01570a297a2da39c94983b93e2b073",
          "transactionIndex": "0x2",
          "logIndex": "0x2d",
          "removed": false
        },
        {
          "address": "0xf8Fb3713D459D7C1018BD0A49D19b4C44290EBE5",
          "topics": [
            "0xddf252ad1be2c89b69c2b068fc378daa952ba7f163c4a11628f55a4df523b3ef",
            "0x000000000000000000000000a509c7ed1bc160da25f746c36f6c14503bc91a1f",
            "0x0000000000000000000000003ffaf50d4f4e96eb78f2407c090b72e86ecaed24"
          ],
          "data": "0x00000000000000000000000000000000000000000000000000003c25fab9043b",
          "blockHash": "0xf1f9d360788dbd1b130be6ba646695656ec5e11a3310e4109660e212134fc0d8",
          "blockNumber": "0x45925a",
          "transactionHash": "0xfb3a5652c0680c80b0086694041989d39f01570a297a2da39c94983b93e2b073",
          "transactionIndex": "0x2",
          "logIndex": "0x2e",
          "removed": false
        },
        {
          "address": "0xf8Fb3713D459D7C1018BD0A49D19b4C44290EBE5",
          "topics": [
            "0x8c5be1e5ebec7d5bd14f71427d1e84f3dd0314c0f7b2291e5b200ac8c7c3b925",
            "0x000000000000000000000000a509c7ed1bc160da25f746c36f6c14503bc91a1f",
            "0x0000000000000000000000006ae43d3271ff6888e7fc43fd7321a503ff738951"
          ],
          "data": "0x0000000000000000000000000000000000000000000000000000000000000000",
          "blockHash": "0xf1f9d360788dbd1b130be6ba646695656ec5e11a3310e4109660e212134fc0d8",
          "blockNumber": "0x45925a",
          "transactionHash": "0xfb3a5652c0680c80b0086694041989d39f01570a297a2da39c94983b93e2b073",
          "transactionIndex": "0x2",
          "logIndex": "0x2f",
          "removed": false
        },
        {
          "address": "0x6Ae43d3271ff6888e7Fc43Fd7321a503ff738951",
          "topics": [
            "0xefefaba5e921573100900a3ad9cf29f222d995fb3b6045797eaea7521bd8d6f0",
            "0x000000000000000000000000a509c7ed1bc160da25f746c36f6c14503bc91a1f",
            "0x000000000000000000000000f8fb3713d459d7c1018bd0a49d19b4c44290ebe5",
            "0x0000000000000000000000000000000000000000000000000000000000000000"
          ],
          "data": "0x000000000000000000000000a509c7ed1bc160da25f746c36f6c14503bc91a1f00000000000000000000000000000000000000000000000000003c1e48c42eb4000000000000000000000000000000000000000000000000000000000000000000000000000000000000000000000000000000000000000000000007b1f4d587",
          "blockHash": "0xf1f9d360788dbd1b130be6ba646695656ec5e11a3310e4109660e212134fc0d8",
          "blockNumber": "0x45925a",
          "transactionHash": "0xfb3a5652c0680c80b0086694041989d39f01570a297a2da39c94983b93e2b073",
          "transactionIndex": "0x2",
          "logIndex": "0x30",
          "removed": false
        },
        {
          "address": "0x6Ae43d3271ff6888e7Fc43Fd7321a503ff738951",
          "topics": [
            "0x804c9b842b2748a22bb64b345453a3de7ca54a6ca45ce00d415894979e22897a",
            "0x000000000000000000000000aa8e23fb1079ea71e0a56f48a2aa51851d8433d0"
          ],
          "data": "0x00000000000000000000000000000000000000000000279a20531dfc0aa96a370000000000000000000000000000000000000000002986d1b88a2d2e7db911df000000000000000000000000000000000000000000015742513136285dc88ef500000000000000000000000000000000000000000342a8d6375db858d03fb30f00000000000000000000000000000000000000000344f9c4e6150e4ba2217ef2",
          "blockHash": "0xf1f9d360788dbd1b130be6ba646695656ec5e11a3310e4109660e212134fc0d8",
          "blockNumber": "0x45925a",
          "transactionHash": "0xfb3a5652c0680c80b0086694041989d39f01570a297a2da39c94983b93e2b073",
          "transactionIndex": "0x2",
          "logIndex": "0x31",
          "removed": false
        },
        {
          "address": "0xaA8E23Fb1079EA71e0a56F48a2aA51851D8433D0",
          "topics": [
            "0xddf252ad1be2c89b69c2b068fc378daa952ba7f163c4a11628f55a4df523b3ef",
            "0x000000000000000000000000a509c7ed1bc160da25f746c36f6c14503bc91a1f",
            "0x000000000000000000000000af0f6e8b0dc5c913bbf4d14c22b4e78dd14310b6"
          ],
          "data": "0x000000000000000000000000000000000000000000000000000000000602912a",
          "blockHash": "0xf1f9d360788dbd1b130be6ba646695656ec5e11a3310e4109660e212134fc0d8",
          "blockNumber": "0x45925a",
          "transactionHash": "0xfb3a5652c0680c80b0086694041989d39f01570a297a2da39c94983b93e2b073",
          "transactionIndex": "0x2",
          "logIndex": "0x32",
          "removed": false
        },
        {
          "address": "0xaA8E23Fb1079EA71e0a56F48a2aA51851D8433D0",
          "topics": [
            "0x8c5be1e5ebec7d5bd14f71427d1e84f3dd0314c0f7b2291e5b200ac8c7c3b925",
            "0x000000000000000000000000a509c7ed1bc160da25f746c36f6c14503bc91a1f",
            "0x0000000000000000000000006ae43d3271ff6888e7fc43fd7321a503ff738951"
          ],
          "data": "0x0000000000000000000000000000000000000000000000000000000000000000",
          "blockHash": "0xf1f9d360788dbd1b130be6ba646695656ec5e11a3310e4109660e212134fc0d8",
          "blockNumber": "0x45925a",
          "transactionHash": "0xfb3a5652c0680c80b0086694041989d39f01570a297a2da39c94983b93e2b073",
          "transactionIndex": "0x2",
          "logIndex": "0x33",
          "removed": false
        },
        {
          "address": "0x6Ae43d3271ff6888e7Fc43Fd7321a503ff738951",
          "topics": [
            "0xefefaba5e921573100900a3ad9cf29f222d995fb3b6045797eaea7521bd8d6f0",
            "0x000000000000000000000000a509c7ed1bc160da25f746c36f6c14503bc91a1f",
            "0x000000000000000000000000aa8e23fb1079ea71e0a56f48a2aa51851d8433d0",
            "0x0000000000000000000000000000000000000000000000000000000000000000"
          ],
          "data": "0x000000000000000000000000a509c7ed1bc160da25f746c36f6c14503bc91a1f000000000000000000000000000000000000000000000000000000000601cc530000000000000000000000000000000000000000000000000000000000000000000000000000000000000000000000000000000000000000000000000000c4d7",
          "blockHash": "0xf1f9d360788dbd1b130be6ba646695656ec5e11a3310e4109660e212134fc0d8",
          "blockNumber": "0x45925a",
          "transactionHash": "0xfb3a5652c0680c80b0086694041989d39f01570a297a2da39c94983b93e2b073",
          "transactionIndex": "0x2",
          "logIndex": "0x34",
          "removed": false
        }
      ],
      "status": "0x1",
      "logsBloom": "0x10020000080000000200000000002000000000000000000002000000000000800000008040000000000100000004002000050000402000020000000000200000000000000001008080000008000000000000000000000000000000044000300004000000020020000000000080000c00004004000000000008000011401000002000000001040000004000000000000000200000080000000000000000000000020000000000020000000080800000000000008040100000020004000000010002008002000001100000002000080000004200100000060100000001000020040010100000000420000080000001000100010000000800000000000000040000",
      "type": "0x2",
      "effectiveGasPrice": "0xf901e54d"
    }
  ],
  "libraries": [],
  "pending": [],
  "returns": {},
  "timestamp": 1698231135,
  "chain": 11155111,
  "multi": false,
  "commit": "56fcdfc"
}