{
  "transactions": [
    {
      "hash": "0x1514c52d6ea403640866269f5167ccc2542bfaff35cee10d5e8cc897c6b6221b",
      "transactionType": "CREATE",
      "contractName": "DevOpsTools",
      "contractAddress": "0x7129a2701E7ed2793FD0a991dc213A8c38B673ff",
      "function": null,
      "arguments": null,
      "transaction": {
        "type": "0x02",
        "from": "0x3e122a3db43d225dd5bffd929ad4176ce69117e0",
        "gas": "0xebb6e",
        "data": "0x610c7861003a600b82828239805160001a60731461002d57634e487b7160e01b600052600060045260246000fd5b30600052607381538281f3fe730000000000000000000000000000000000000000301460806040526004361061006c5760003560e01c806326dceeb7146100715780632aa1c696146100ae5780633a768463146100e5578063a6066fa514610100578063d76ca83d14610108578063e374cdf11461011b575b600080fd5b81801561007d57600080fd5b5061009161008c366004610897565b61013b565b6040516001600160a01b0390911681526020015b60405180910390f35b6100d86040518060400160405280600b81526020016a0b8bd89c9bd85918d85cdd60aa1b81525081565b6040516100a59190610979565b610091737109709ecfa91a80626ff3989d68f67f5b1dd12d81565b6100d8610507565b6100d861011636600461098c565b610523565b81801561012757600080fd5b506100916101363660046109c1565b6106da565b600061014683610523565b925061015182610523565b60408051600180825281830190925291935060009190816020015b606081526020019060019003908161016c579050509050604051806040016040528060038152602001621c1dd960ea1b815250816000815181106101b2576101b2610a06565b6020908102919091010152604051638916046760e01b8152600090737109709ecfa91a80626ff3989d68f67f5b1dd12d906389160467906101f7908590600401610a1c565b6000604051808303816000875af1158015610216573d6000803e3d6000fd5b505050506040513d6000823e601f3d908101601f1916820160405261023e9190810190610ab5565b60408051600580825260c0820190925291925060009190816020015b606081526020019060019003908161025a579050509050604051806040016040528060048152602001630c4c2e6d60e31b815250816000815181106102a1576102a1610a06565b602002602001018190525081856040516020016102bf929190610afe565b604051602081830303815290604052816001815181106102e1576102e1610a06565b6020026020010181905250878160028151811061030057610300610a06565b602090810291909101015260405163348051d760e11b815260048101889052737109709ecfa91a80626ff3989d68f67f5b1dd12d90636900a3ae90602401600060405180830381865afa15801561035b573d6000803e3d6000fd5b505050506040513d6000823e601f3d908101601f191682016040526103839190810190610ab5565b8160038151811061039657610396610a06565b602002602001018190525081866040516020016103b4929190610b2d565b604051602081830303815290604052816004815181106103d6576103d6610a06565b6020908102919091010152604051638916046760e01b8152600090737109709ecfa91a80626ff3989d68f67f5b1dd12d9063891604679061041b908590600401610a1c565b6000604051808303816000875af115801561043a573d6000803e3d6000fd5b505050506040513d6000823e601f3d908101601f191682016040526104629190810190610ab5565b90506104916040518060400160405280600c81526020016b2932ba3ab937102230ba309d60a11b81525061072c565b61049a81610772565b60006104a582610b69565b60601c905080156104bc5794506104ff9350505050565b60405162461bcd60e51b8152602060048201526014602482015273139bc818dbdb9d1c9858dd0819195c1b1bde595960621b604482015260640160405180910390fd5b949350505050565b604051806060016040528060318152602001610c126031913981565b80516060908290600090815b835181101561057e5783818151811061054a5761054a610a06565b6020910101516001600160f81b031916600160fd1b1461056c5780925061057e565b8061057681610bbb565b91505061052f565b5082515b80156105d85783610594600183610bd4565b815181106105a4576105a4610a06565b6020910101516001600160f81b031916600160fd1b146105c6578091506105d8565b806105d081610be7565b915050610582565b508282815181106105eb576105eb610a06565b01602001516001600160f81b031916601760f91b036106125761060f600183610bfe565b91505b600061061e8383610bd4565b67ffffffffffffffff811115610636576106366107d2565b6040519080825280601f01601f191660200182016040528015610660576020820181803683370190505b50905060005b81518110156106d0578461067a8286610bfe565b8151811061068a5761068a610a06565b602001015160f81c60f81b8282815181106106a7576106a7610a06565b60200101906001600160f81b031916908160001a905350806106c881610bbb565b915050610666565b5095945050505050565b600061072383836040518060400160405280600b81526020016a0b8bd89c9bd85918d85cdd60aa1b815250604051806060016040528060318152602001610c126031913961013b565b90505b92915050565b61076f816040516024016107409190610979565b60408051601f198184030181529190526020810180516001600160e01b031663104c13eb60e21b1790526107b1565b50565b61076f816040516024016107869190610979565b60408051601f198184030181529190526020810180516001600160e01b03166305f3bfab60e11b1790525b80516a636f6e736f6c652e6c6f67602083016000808483855afa5050505050565b634e487b7160e01b600052604160045260246000fd5b604051601f8201601f1916810167ffffffffffffffff81118282101715610811576108116107d2565b604052919050565b600067ffffffffffffffff821115610833576108336107d2565b50601f01601f191660200190565b600082601f83011261085257600080fd5b813561086561086082610819565b6107e8565b81815284602083860101111561087a57600080fd5b816020850160208301376000918101602001919091529392505050565b600080600080608085870312156108ad57600080fd5b843567ffffffffffffffff808211156108c557600080fd5b6108d188838901610841565b95506020870135945060408701359150808211156108ee57600080fd5b6108fa88838901610841565b9350606087013591508082111561091057600080fd5b5061091d87828801610841565b91505092959194509250565b60005b8381101561094457818101518382015260200161092c565b50506000910152565b60008151808452610965816020860160208601610929565b601f01601f19169290920160200192915050565b602081526000610723602083018461094d565b60006020828403121561099e57600080fd5b813567ffffffffffffffff8111156109b557600080fd5b6104ff84828501610841565b600080604083850312156109d457600080fd5b823567ffffffffffffffff8111156109eb57600080fd5b6109f785828601610841565b95602094909401359450505050565b634e487b7160e01b600052603260045260246000fd5b6000602080830181845280855180835260408601915060408160051b870101925083870160005b82811015610a7157603f19888603018452610a5f85835161094d565b94509285019290850190600101610a43565b5092979650505050505050565b6000610a8c61086084610819565b9050828152838383011115610aa057600080fd5b610aae836020830184610929565b9392505050565b600060208284031215610ac757600080fd5b815167ffffffffffffffff811115610ade57600080fd5b8201601f81018413610aef57600080fd5b6104ff84825160208401610a7e565b60008351610b10818460208801610929565b835190830190610b24818360208801610929565b01949350505050565b60008351610b3f818460208801610929565b602f60f81b9083019081528351610b5d816001840160208801610929565b01600101949350505050565b805160208201516bffffffffffffffffffffffff198082169291906014831015610b9d5780818460140360031b1b83161693505b505050919050565b634e487b7160e01b600052601160045260246000fd5b600060018201610bcd57610bcd610ba5565b5060010190565b8181038181111561072657610726610ba5565b600081610bf657610bf6610ba5565b506000190190565b8082018082111561072657610726610ba556fe2e2f6c69622f666f756e6472792d6465766f70732f7372632f6765745f726563656e745f6465706c6f796d656e742e7368a2646970667358221220e61d2929bd3dd49a8a057f736ad090a6e18b4de93cee8bdd7e06faec8e5c038c64736f6c63430008140033",
        "nonce": "0x92",
        "accessList": []
      },
      "additionalContracts": [],
      "isFixedGasLimit": false
    },
    {
      "hash": "0xe10c985f6c131dc32de5bd439c05b7731af40e4fb2fc1b93ef9f707315cfd7dd",
      "transactionType": "CALL",
      "contractName": "InitializableImmutableAdminUpgradeabilityProxy",
      "contractAddress": "0x34a4d932E722b9dFb492B9D8131127690CE2430B",
      "function": "approveDelegation(address,uint256)",
      "arguments": [
        "0xA509C7ed1bc160dA25f746C36f6c14503bc91A1f",
        "67428066009667"
      ],
      "transaction": {
        "type": "0x02",
        "from": "0xc5e0b6e472dde70eceffa4c568bd52f2a7a1632a",
        "to": "0x34a4d932e722b9dfb492b9d8131127690ce2430b",
        "gas": "0x12195",
        "value": "0x0",
        "data": "0xc04a8a10000000000000000000000000a509c7ed1bc160da25f746c36f6c14503bc91a1f00000000000000000000000000000000000000000000000000003d5351ec2243",
        "nonce": "0x41",
        "accessList": []
      },
      "additionalContracts": [],
      "isFixedGasLimit": false
    },
    {
      "hash": "0xf878a1c06e38356e09f22f0f8b5933ddbd19289c0737c5414ba573547b7c5600",
      "transactionType": "CALL",
      "contractName": "InitializableImmutableAdminUpgradeabilityProxy",
      "contractAddress": "0x9844386d29EEd970B9F6a2B9a676083b0478210e",
      "function": "approveDelegation(address,uint256)",
      "arguments": [
        "0xA509C7ed1bc160dA25f746C36f6c14503bc91A1f",
        "10101796757"
      ],
      "transaction": {
        "type": "0x02",
        "from": "0xc5e0b6e472dde70eceffa4c568bd52f2a7a1632a",
        "to": "0x9844386d29eed970b9f6a2b9a676083b0478210e",
        "gas": "0x12184",
        "value": "0x0",
        "data": "0xc04a8a10000000000000000000000000a509c7ed1bc160da25f746c36f6c14503bc91a1f000000000000000000000000000000000000000000000000000000025a1d2f95",
        "nonce": "0x42",
        "accessList": []
      },
      "additionalContracts": [],
      "isFixedGasLimit": false
    },
    {
      "hash": "0xc1e166762a046b002b36214810523ef36fe565af21c1a58d1da99f5ce97352b0",
      "transactionType": "CALL",
      "contractName": "InitializableImmutableAdminUpgradeabilityProxy",
      "contractAddress": "0x16dA4541aD1807f4443d92D26044C1147406EB80",
      "function": "approve(address,uint256):(bool)",
      "arguments": [
        "0xA509C7ed1bc160dA25f746C36f6c14503bc91A1f",
        "11007145224"
      ],
      "transaction": {
        "type": "0x02",
        "from": "0x3e122a3db43d225dd5bffd929ad4176ce69117e0",
        "to": "0x16da4541ad1807f4443d92d26044c1147406eb80",
        "gas": "0x1144a",
        "value": "0x0",
        "data": "0x095ea7b3000000000000000000000000a509c7ed1bc160da25f746c36f6c14503bc91a1f000000000000000000000000000000000000000000000000000000029013b508",
        "nonce": "0x93",
        "accessList": []
      },
      "additionalContracts": [],
      "isFixedGasLimit": false
    },
    {
      "hash": "0xbd415ea1fc6b9f690a660a24e24612927bbd80d6999d08a7d5dabb4a7417c7fd",
      "transactionType": "CALL",
      "contractName": "InitializableImmutableAdminUpgradeabilityProxy",
      "contractAddress": "0xAF0F6e8b0Dc5c913bbF4d14c22B4E78Dd14310B6",
      "function": "approve(address,uint256):(bool)",
      "arguments": [
        "0xA509C7ed1bc160dA25f746C36f6c14503bc91A1f",
        "10001015881"
      ],
      "transaction": {
        "type": "0x02",
        "from": "0x3e122a3db43d225dd5bffd929ad4176ce69117e0",
        "to": "0xaf0f6e8b0dc5c913bbf4d14c22b4e78dd14310b6",
        "gas": "0x1144a",
        "value": "0x0",
        "data": "0x095ea7b3000000000000000000000000a509c7ed1bc160da25f746c36f6c14503bc91a1f00000000000000000000000000000000000000000000000000000002541b6449",
        "nonce": "0x94",
        "accessList": []
      },
      "additionalContracts": [],
      "isFixedGasLimit": false
    }
  ],
  "receipts": [
    {
      "transactionHash": "0x1514c52d6ea403640866269f5167ccc2542bfaff35cee10d5e8cc897c6b6221b",
      "transactionIndex": "0x6",
      "blockHash": "0x7801bddd56cec3d89fae7c22850dc5188faeed36d7572633f9e4220cad91b5da",
      "blockNumber": "0x459227",
      "from": "0x3e122A3dB43d225DD5BFFD929AD4176ce69117E0",
      "to": null,
      "cumulativeGasUsed": "0xfec6d",
      "gasUsed": "0xb55e6",
      "contractAddress": "0x7129a2701E7ed2793FD0a991dc213A8c38B673ff",
      "logs": [],
      "status": "0x1",
      "logsBloom": "0x00000000000000000000000000000000000000000000000000000000000000000000000000000000000000000000000000000000000000000000000000000000000000000000000000000000000000000000000000000000000000000000000000000000000000000000000000000000000000000000000000000000000000000000000000000000000000000000000000000000000000000000000000000000000000000000000000000000000000000000000000000000000000000000000000000000000000000000000000000000000000000000000000000000000000000000000000000000000000000000000000000000000000000000000000000000",
      "type": "0x2",
      "effectiveGasPrice": "0x1042a672a"
    },
    {
      "transactionHash": "0xe10c985f6c131dc32de5bd439c05b7731af40e4fb2fc1b93ef9f707315cfd7dd",
      "transactionIndex": "0x3",
      "blockHash": "0xa3690e717f3140d9cc1b4480cc0815c6196ed5799e7ac9688288e223d2994f84",
      "blockNumber": "0x459228",
      "from": "0xC5e0B6E472dDE70eCEfFa4c568Bd52f2A7a1632A",
      "to": "0x34a4d932E722b9dFb492B9D8131127690CE2430B",
      "cumulativeGasUsed": "0x1c7c0",
      "gasUsed": "0xd1a8",
      "contractAddress": null,
      "logs": [
        {
          "address": "0x34a4d932E722b9dFb492B9D8131127690CE2430B",
          "topics": [
            "0xda919360433220e13b51e8c211e490d148e61a3bd53de8c097194e458b97f3e1",
            "0x000000000000000000000000c5e0b6e472dde70eceffa4c568bd52f2a7a1632a",
            "0x000000000000000000000000a509c7ed1bc160da25f746c36f6c14503bc91a1f",
            "0x000000000000000000000000f8fb3713d459d7c1018bd0a49d19b4c44290ebe5"
          ],
          "data": "0x00000000000000000000000000000000000000000000000000003d5351ec2243",
          "blockHash": "0xa3690e717f3140d9cc1b4480cc0815c6196ed5799e7ac9688288e223d2994f84",
          "blockNumber": "0x459228",
          "transactionHash": "0xe10c985f6c131dc32de5bd439c05b7731af40e4fb2fc1b93ef9f707315cfd7dd",
          "transactionIndex": "0x3",
          "logIndex": "0x0",
          "removed": false
        }
      ],
      "status": "0x1",
      "logsBloom": "0x00020000000000000000000000002000000000000000000000000000000000000000000040000000000000000000000000000000000000000000000000000000000000000001000000000000000000000000000000000000000000004000100000000000000020000000000000000000000000000000000000000001000000000000000000000000000000000000000000000000000000000000000000000000000000000000020000000000800000000000000040000000000000000000000000000000000000000000000000000000004000000000000000000000000000000000000000000420000000000000000100000000000000000000000000000000",
      "type": "0x2",
      "effectiveGasPrice": "0x104db246b"
    },
    {
      "transactionHash": "0xf878a1c06e38356e09f22f0f8b5933ddbd19289c0737c5414ba573547b7c5600",
      "transactionIndex": "0x8",
      "blockHash": "0x9e1a5e58b5bd091a86510b4e9a095c276480c842789392351680738cfce2ded8",
      "blockNumber": "0x459229",
      "from": "0xC5e0B6E472dDE70eCEfFa4c568Bd52f2A7a1632A",
      "to": "0x9844386d29EEd970B9F6a2B9a676083b0478210e",
      "cumulativeGasUsed": "0x595ca",
      "gasUsed": "0xd19c",
      "contractAddress": null,
      "logs": [
        {
          "address": "0x9844386d29EEd970B9F6a2B9a676083b0478210e",
          "topics": [
            "0xda919360433220e13b51e8c211e490d148e61a3bd53de8c097194e458b97f3e1",
            "0x000000000000000000000000c5e0b6e472dde70eceffa4c568bd52f2a7a1632a",
            "0x000000000000000000000000a509c7ed1bc160da25f746c36f6c14503bc91a1f",
            "0x000000000000000000000000aa8e23fb1079ea71e0a56f48a2aa51851d8433d0"
          ],
          "data": "0x000000000000000000000000000000000000000000000000000000025a1d2f95",
          "blockHash": "0x9e1a5e58b5bd091a86510b4e9a095c276480c842789392351680738cfce2ded8",
          "blockNumber": "0x459229",
          "transactionHash": "0xf878a1c06e38356e09f22f0f8b5933ddbd19289c0737c5414ba573547b7c5600",
          "transactionIndex": "0x8",
          "logIndex": "0x1",
          "removed": false
        }
      ],
      "status": "0x1",
      "logsBloom": "0x00000000000000000000000000002000000000000000000000000000000000000000000000000000000000000000000000000000000000000000000000000000000000000000000000000000000000000000000000000000000000004000100000000000000000000000000080000000000000000000000000000001000000000000000000000000000000000000000000000000000000000000000000000000000000000000000000000000800000000000000040000000020004000000000000000000000000000000000000000000000200100000000000000000000000000000000000000420000000000000000100010000000000000000000000000000",
      "type": "0x2",
      "effectiveGasPrice": "0xff5d814f"
    },
    {
      "transactionHash": "0xc1e166762a046b002b36214810523ef36fe565af21c1a58d1da99f5ce97352b0",
      "transactionIndex": "0x5",
      "blockHash": "0xe1af5cb9255164a22ab5524a91998bc7e6ea028ee5418f2aa5a412b296303d60",
      "blockNumber": "0x45922a",
      "from": "0x3e122A3dB43d225DD5BFFD929AD4176ce69117E0",
      "to": "0x16dA4541aD1807f4443d92D26044C1147406EB80",
      "cumulativeGasUsed": "0xf3616",
      "gasUsed": "0xc808",
      "contractAddress": null,
      "logs": [
        {
          "address": "0x16dA4541aD1807f4443d92D26044C1147406EB80",
          "topics": [
            "0x8c5be1e5ebec7d5bd14f71427d1e84f3dd0314c0f7b2291e5b200ac8c7c3b925",
            "0x0000000000000000000000003e122a3db43d225dd5bffd929ad4176ce69117e0",
            "0x000000000000000000000000a509c7ed1bc160da25f746c36f6c14503bc91a1f"
          ],
          "data": "0x000000000000000000000000000000000000000000000000000000029013b508",
          "blockHash": "0xe1af5cb9255164a22ab5524a91998bc7e6ea028ee5418f2aa5a412b296303d60",
          "blockNumber": "0x45922a",
          "transactionHash": "0xc1e166762a046b002b36214810523ef36fe565af21c1a58d1da99f5ce97352b0",
          "transactionIndex": "0x5",
          "logIndex": "0x6",
          "removed": false
        }
      ],
      "status": "0x1",
      "logsBloom": "0x00000000080000000200000000000000000000000000000000000000000000000000008000000000000000000000000000000000000000000000000000200000000000000000000000000000000000000000000000000000000000004000000000000000000000000000000000000000000000000000000000000000000000000000000000040000000000000000000000000000000000000000000000000000020000000000000000000080000000000000000000000000000000000000000000008000000000000000000000000000000000000000000000000000000000000010000000000420000000000000000000000000000000000000000000000000",
      "type": "0x2",
      "effectiveGasPrice": "0xfeeb109a"
    },
    {
      "transactionHash": "0xbd415ea1fc6b9f690a660a24e24612927bbd80d6999d08a7d5dabb4a7417c7fd",
      "transactionIndex": "0x8",
      "blockHash": "0x00c6cca02e6fdb77b260bfeddc3a770242007270c87403828ca14d0f869c34cc",
      "blockNumber": "0x45922b",
      "from": "0x3e122A3dB43d225DD5BFFD929AD4176ce69117E0",
      "to": "0xAF0F6e8b0Dc5c913bbF4d14c22B4E78Dd14310B6",
      "cumulativeGasUsed": "0x622a4",
      "gasUsed": "0xc808",
      "contractAddress": null,
      "logs": [
        {
          "address": "0xAF0F6e8b0Dc5c913bbF4d14c22B4E78Dd14310B6",
          "topics": [
            "0x8c5be1e5ebec7d5bd14f71427d1e84f3dd0314c0f7b2291e5b200ac8c7c3b925",
            "0x0000000000000000000000003e122a3db43d225dd5bffd929ad4176ce69117e0",
            "0x000000000000000000000000a509c7ed1bc160da25f746c36f6c14503bc91a1f"
          ],
          "data": "0x00000000000000000000000000000000000000000000000000000002541b6449",
          "blockHash": "0x00c6cca02e6fdb77b260bfeddc3a770242007270c87403828ca14d0f869c34cc",
          "blockNumber": "0x45922b",
          "transactionHash": "0xbd415ea1fc6b9f690a660a24e24612927bbd80d6999d08a7d5dabb4a7417c7fd",
          "transactionIndex": "0x8",
          "logIndex": "0x2",
          "removed": false
        }
      ],
      "status": "0x1",
      "logsBloom": "0x00000000080000000000000000000000000000000000000000000000000000000000000000000000000000000000000000000000000000000000000000200000000000000000000000000000000000000000000000000000000000004000000000000000000000000000000000000000000000000000000000000000000000000000000000040000000000000000000000000000000000000000000000000000020000000000000000000080000000000000008000000000000000000000000000000000000000000000000000080000000000000000000000000001000000000010000000000420000000000000000000000000000000000000000000000000",
      "type": "0x2",
      "effectiveGasPrice": "0xfc012b6c"
    }
  ],
  "libraries": [
    "lib/foundry-devops/src/DevOpsTools.sol:DevOpsTools:0x7129a2701e7ed2793fd0a991dc213a8c38b673ff"
  ],
  "pending": [],
  "returns": {},
  "timestamp": 1698230543,
  "chain": 11155111,
  "multi": false,
  "commit": "56fcdfc"
}