{
  "transactions": [
    {
      "hash": "0x03665f4195144a442aaf254f80d004044b86a3f2b8a2b68a7026f290306e589f",
      "transactionType": "CALL",
      "contractName": "InitializableImmutableAdminUpgradeabilityProxy",
      "contractAddress": "0x34a4d932E722b9dFb492B9D8131127690CE2430B",
      "function": "approveDelegation(address,uint256)",
      "arguments": [
        "0x25E30Eb1AD42e7176B9711A169D1f2d135A88C2B",
        "135082471802812"
      ],
      "transaction": {
        "type": "0x02",
        "from": "0xc5e0b6e472dde70eceffa4c568bd52f2a7a1632a",
        "to": "0x34a4d932e722b9dfb492b9d8131127690ce2430b",
        "gas": "0x12195",
        "value": "0x0",
        "data": "0xc04a8a1000000000000000000000000025e30eb1ad42e7176b9711a169d1f2d135a88c2b00000000000000000000000000000000000000000000000000007adb56bf47bc",
        "nonce": "0x57",
        "accessList": []
      },
      "additionalContracts": [],
      "isFixedGasLimit": false
    },
    {
      "hash": "0xbabc6737d1428ff284fef3af9b606ee9063a47bb11a93fabbddfed06b8c69e0b",
      "transactionType": "CALL",
      "contractName": "InitializableImmutableAdminUpgradeabilityProxy",
      "contractAddress": "0x9844386d29EEd970B9F6a2B9a676083b0478210e",
      "function": "approveDelegation(address,uint256)",
      "arguments": [
        "0x25E30Eb1AD42e7176B9711A169D1f2d135A88C2B",
        "218160294"
      ],
      "transaction": {
        "type": "0x02",
        "from": "0xc5e0b6e472dde70eceffa4c568bd52f2a7a1632a",
        "to": "0x9844386d29eed970b9f6a2b9a676083b0478210e",
        "gas": "0x12164",
        "value": "0x0",
        "data": "0xc04a8a1000000000000000000000000025e30eb1ad42e7176b9711a169d1f2d135a88c2b000000000000000000000000000000000000000000000000000000000d00dca6",
        "nonce": "0x58",
        "accessList": []
      },
      "additionalContracts": [],
      "isFixedGasLimit": false
    },
    {
      "hash": "0xe34264339d97ef59fb300701d085c154e98cdbb2d62ae8645e1fdb5e0ef7626d",
      "transactionType": "CALL",
      "contractName": "InitializableImmutableAdminUpgradeabilityProxy",
      "contractAddress": "0x3FfAf50D4F4E96eB78f2407c090b72e86eCaed24",
      "function": "approve(address,uint256):(bool)",
      "arguments": [
        "0x25E30Eb1AD42e7176B9711A169D1f2d135A88C2B",
        "2000595755502035601408"
      ],
      "transaction": {
        "type": "0x02",
        "from": "0x3e122a3db43d225dd5bffd929ad4176ce69117e0",
        "to": "0x3ffaf50d4f4e96eb78f2407c090b72e86ecaed24",
        "gas": "0x1147b",
        "value": "0x0",
        "data": "0x095ea7b300000000000000000000000025e30eb1ad42e7176b9711a169d1f2d135a88c2b00000000000000000000000000000000000000000000006c73d7e804bd110800",
        "nonce": "0xa0",
        "accessList": []
      },
      "additionalContracts": [],
      "isFixedGasLimit": false
    },
    {
      "hash": "0x8f7ed2acb964ec52703fe08f96176ea1fdae3b6e26bcc4604826c4fbe11aabf9",
      "transactionType": "CALL",
      "contractName": "InitializableImmutableAdminUpgradeabilityProxy",
      "contractAddress": "0x16dA4541aD1807f4443d92D26044C1147406EB80",
      "function": "approve(address,uint256):(bool)",
      "arguments": [
        "0x25E30Eb1AD42e7176B9711A169D1f2d135A88C2B",
        "2034431950"
      ],
      "transaction": {
        "type": "0x02",
        "from": "0x3e122a3db43d225dd5bffd929ad4176ce69117e0",
        "to": "0x16da4541ad1807f4443d92d26044c1147406eb80",
        "gas": "0x11439",
        "value": "0x0",
        "data": "0x095ea7b300000000000000000000000025e30eb1ad42e7176b9711a169d1f2d135a88c2b000000000000000000000000000000000000000000000000000000007942f7ce",
        "nonce": "0xa1",
        "accessList": []
      },
      "additionalContracts": [],
      "isFixedGasLimit": false
    },
    {
      "hash": "0x2505e977209f67c591796d1d4181f349034e0098bdbf7595935f1a8df22af307",
      "transactionType": "CALL",
      "contractName": "InitializableImmutableAdminUpgradeabilityProxy",
      "contractAddress": "0x1804Bf30507dc2EB3bDEbbbdd859991EAeF6EefF",
      "function": "approve(address,uint256):(bool)",
      "arguments": [
        "0x25E30Eb1AD42e7176B9711A169D1f2d135A88C2B",
        "200000002"
      ],
      "transaction": {
        "type": "0x02",
        "from": "0x3e122a3db43d225dd5bffd929ad4176ce69117e0",
        "to": "0x1804bf30507dc2eb3bdebbbdd859991eaef6eeff",
        "gas": "0x11439",
        "value": "0x0",
        "data": "0x095ea7b300000000000000000000000025e30eb1ad42e7176b9711a169d1f2d135a88c2b000000000000000000000000000000000000000000000000000000000bebc202",
        "nonce": "0xa2",
        "accessList": []
      },
      "additionalContracts": [],
      "isFixedGasLimit": false
    },
    {
      "hash": "0xe89eb56d2ee01445b30fd65e24fb8c3a4dc7522bce5d12e55aa274549fe83c31",
      "transactionType": "CALL",
      "contractName": "InitializableImmutableAdminUpgradeabilityProxy",
      "contractAddress": "0xAF0F6e8b0Dc5c913bbF4d14c22B4E78Dd14310B6",
      "function": "approve(address,uint256):(bool)",
      "arguments": [
        "0x25E30Eb1AD42e7176B9711A169D1f2d135A88C2B",
        "4031762"
      ],
      "transaction": {
        "type": "0x02",
        "from": "0x3e122a3db43d225dd5bffd929ad4176ce69117e0",
        "to": "0xaf0f6e8b0dc5c913bbf4d14c22b4e78dd14310b6",
        "gas": "0x11429",
        "value": "0x0",
        "data": "0x095ea7b300000000000000000000000025e30eb1ad42e7176b9711a169d1f2d135a88c2b00000000000000000000000000000000000000000000000000000000003d8512",
        "nonce": "0xa3",
        "accessList": []
      },
      "additionalContracts": [],
      "isFixedGasLimit": false
    },
    {
      "hash": "0x71708135659f145143e92f9b1e8d31d44a7475810e1cc9d4ab5c6eab88b55793",
      "transactionType": "CALL",
      "contractName": "InitializableImmutableAdminUpgradeabilityProxy",
      "contractAddress": "0x6b8558764d3b7572136F17174Cb9aB1DDc7E1259",
      "function": "approve(address,uint256):(bool)",
      "arguments": [
        "0x25E30Eb1AD42e7176B9711A169D1f2d135A88C2B",
        "200000000000000000000"
      ],
      "transaction": {
        "type": "0x02",
        "from": "0x3e122a3db43d225dd5bffd929ad4176ce69117e0",
        "to": "0x6b8558764d3b7572136f17174cb9ab1ddc7e1259",
        "gas": "0x1146c",
        "value": "0x0",
        "data": "0x095ea7b300000000000000000000000025e30eb1ad42e7176b9711a169d1f2d135a88c2b00000000000000000000000000000000000000000000000ad78ebc5ac6200000",
        "nonce": "0xa4",
        "accessList": []
      },
      "additionalContracts": [],
      "isFixedGasLimit": false
    },
    {
      "hash": "0x4ab4539f8fd45150a88217dcf80ae48e2f1f98f6ee309267df1c3ac2555d154f",
      "transactionType": "CALL",
      "contractName": "InitializableImmutableAdminUpgradeabilityProxy",
      "contractAddress": "0x6Ae43d3271ff6888e7Fc43Fd7321a503ff738951",
      "function": "setUserUseReserveAsCollateral(address,bool)",
      "arguments": [
        "0xf8Fb3713D459D7C1018BD0A49D19b4C44290EBE5",
        "true"
      ],
      "transaction": {
        "type": "0x02",
        "from": "0x3e122a3db43d225dd5bffd929ad4176ce69117e0",
        "to": "0x6ae43d3271ff6888e7fc43fd7321a503ff738951",
        "gas": "0x22f77",
        "value": "0x0",
        "data": "0x5a3b74b9000000000000000000000000f8fb3713d459d7c1018bd0a49d19b4c44290ebe50000000000000000000000000000000000000000000000000000000000000001",
        "nonce": "0xa5",
        "accessList": []
      },
      "additionalContracts": [],
      "isFixedGasLimit": false
    },
    {
      "hash": "0x0d0a39f2cde341070c7670408177520e430feb0f061ecd5eca479b993f60002c",
      "transactionType": "CALL",
      "contractName": "InitializableImmutableAdminUpgradeabilityProxy",
      "contractAddress": "0x6Ae43d3271ff6888e7Fc43Fd7321a503ff738951",
      "function": "setUserUseReserveAsCollateral(address,bool)",
      "arguments": [
        "0x94a9D9AC8a22534E3FaCa9F4e7F2E2cf85d5E4C8",
        "true"
      ],
      "transaction": {
        "type": "0x02",
        "from": "0x3e122a3db43d225dd5bffd929ad4176ce69117e0",
        "to": "0x6ae43d3271ff6888e7fc43fd7321a503ff738951",
        "gas": "0x23925",
        "value": "0x0",
        "data": "0x5a3b74b900000000000000000000000094a9d9ac8a22534e3faca9f4e7f2e2cf85d5e4c80000000000000000000000000000000000000000000000000000000000000001",
        "nonce": "0xa6",
        "accessList": []
      },
      "additionalContracts": [],
      "isFixedGasLimit": false
    },
    {
      "hash": "0x5651aeb5cca6e50a2b29a3931d793435b9cb876ae3dc1c88ed604d5b4c6933fc",
      "transactionType": "CALL",
      "contractName": "InitializableImmutableAdminUpgradeabilityProxy",
      "contractAddress": "0x6Ae43d3271ff6888e7Fc43Fd7321a503ff738951",
      "function": "setUserUseReserveAsCollateral(address,bool)",
      "arguments": [
        "0x29f2D40B0605204364af54EC677bD022dA425d03",
        "true"
      ],
      "transaction": {
        "type": "0x02",
        "from": "0x3e122a3db43d225dd5bffd929ad4176ce69117e0",
        "to": "0x6ae43d3271ff6888e7fc43fd7321a503ff738951",
        "gas": "0x22f77",
        "value": "0x0",
        "data": "0x5a3b74b900000000000000000000000029f2d40b0605204364af54ec677bd022da425d030000000000000000000000000000000000000000000000000000000000000001",
        "nonce": "0xa7",
        "accessList": []
      },
      "additionalContracts": [],
      "isFixedGasLimit": false
    },
    {
      "hash": "0x6aba8b55a8ff8e80014bb45faf8a009a3e74a53682f17b5665a7f44d4fda301d",
      "transactionType": "CALL",
      "contractName": "InitializableImmutableAdminUpgradeabilityProxy",
      "contractAddress": "0x6Ae43d3271ff6888e7Fc43Fd7321a503ff738951",
      "function": "setUserUseReserveAsCollateral(address,bool)",
      "arguments": [
        "0x88541670E55cC00bEEFD87eB59EDd1b7C511AC9a",
        "true"
      ],
      "transaction": {
        "type": "0x02",
        "from": "0x3e122a3db43d225dd5bffd929ad4176ce69117e0",
        "to": "0x6ae43d3271ff6888e7fc43fd7321a503ff738951",
        "gas": "0x22f77",
        "value": "0x0",
        "data": "0x5a3b74b900000000000000000000000088541670e55cc00beefd87eb59edd1b7c511ac9a0000000000000000000000000000000000000000000000000000000000000001",
        "nonce": "0xa8",
        "accessList": []
      },
      "additionalContracts": [],
      "isFixedGasLimit": false
    },
    {
      "hash": "0x1277ec4936c74b2d9dc8ffb82da4e1e32aa2c7f43fac8b2126e7824951d1bef8",
      "transactionType": "CALL",
      "contractName": "InteractWithTeleportAaveV3",
      "contractAddress": "0x5efADa3363f4040A032F4De4c1221ac6c2B73525",
      "function": "teleportAaveV3PositionsBetweenWallets(address,address)",
      "arguments": [
        "0x3e122A3dB43d225DD5BFFD929AD4176ce69117E0",
        "0xC5e0B6E472dDE70eCEfFa4c568Bd52f2A7a1632A"
      ],
      "transaction": {
        "type": "0x02",
        "from": "0x3e122a3db43d225dd5bffd929ad4176ce69117e0",
        "to": "0x5efada3363f4040a032f4de4c1221ac6c2b73525",
        "gas": "0x255fd3",
        "value": "0x0",
        "data": "0xce88a5760000000000000000000000003e122a3db43d225dd5bffd929ad4176ce69117e0000000000000000000000000c5e0b6e472dde70eceffa4c568bd52f2a7a1632a",
        "nonce": "0xa9",
        "accessList": []
      },
      "additionalContracts": [],
      "isFixedGasLimit": false
    }
  ],
  "receipts": [
    {
      "transactionHash": "0x03665f4195144a442aaf254f80d004044b86a3f2b8a2b68a7026f290306e589f",
      "transactionIndex": "0xf",
      "blockHash": "0xe9584f4dd9f0520b36227df79d606a3caf9db2ab949a9ae221c6d0848e65d8a9",
      "blockNumber": "0x4594a5",
      "from": "0xC5e0B6E472dDE70eCEfFa4c568Bd52f2A7a1632A",
      "to": "0x34a4d932E722b9dFb492B9D8131127690CE2430B",
      "cumulativeGasUsed": "0x37608d",
      "gasUsed": "0xd1a8",
      "contractAddress": null,
      "logs": [
        {
          "address": "0x34a4d932E722b9dFb492B9D8131127690CE2430B",
          "topics": [
            "0xda919360433220e13b51e8c211e490d148e61a3bd53de8c097194e458b97f3e1",
            "0x000000000000000000000000c5e0b6e472dde70eceffa4c568bd52f2a7a1632a",
            "0x00000000000000000000000025e30eb1ad42e7176b9711a169d1f2d135a88c2b",
            "0x000000000000000000000000f8fb3713d459d7c1018bd0a49d19b4c44290ebe5"
          ],
          "data": "0x00000000000000000000000000000000000000000000000000007adb56bf47bc",
          "blockHash": "0xe9584f4dd9f0520b36227df79d606a3caf9db2ab949a9ae221c6d0848e65d8a9",
          "blockNumber": "0x4594a5",
          "transactionHash": "0x03665f4195144a442aaf254f80d004044b86a3f2b8a2b68a7026f290306e589f",
          "transactionIndex": "0xf",
          "logIndex": "0x20",
          "removed": false
        }
      ],
      "status": "0x1",
      "logsBloom": "0x00020000000000000000000000002000000000000000000000000000000100000000000040000000000000000000000100000000000000000000000000000000000000000001000000000000000000000000000000000000000000000000100000000000000020000000000000000000000000000000000000000001000000000000000000000000000000000000000000000000000000000000000000000000000000000000020000000000800000000000000040000000000000000000000000000000000000000000000000000000004000000000000000000000000000000000000000000000000000000000000100000000000000000000000000000001",
      "type": "0x2",
      "effectiveGasPrice": "0x1af7748d9"
    },
    {
      "transactionHash": "0xbabc6737d1428ff284fef3af9b606ee9063a47bb11a93fabbddfed06b8c69e0b",
      "transactionIndex": "0xe",
      "blockHash": "0x27446881ec0cf52d003d01f825d4fd95ffe43f880722a511ad529f28036dfe94",
      "blockNumber": "0x4594a6",
      "from": "0xC5e0B6E472dDE70eCEfFa4c568Bd52f2A7a1632A",
      "to": "0x9844386d29EEd970B9F6a2B9a676083b0478210e",
      "cumulativeGasUsed": "0x32442a",
      "gasUsed": "0xd184",
      "contractAddress": null,
      "logs": [
        {
          "address": "0x9844386d29EEd970B9F6a2B9a676083b0478210e",
          "topics": [
            "0xda919360433220e13b51e8c211e490d148e61a3bd53de8c097194e458b97f3e1",
            "0x000000000000000000000000c5e0b6e472dde70eceffa4c568bd52f2a7a1632a",
            "0x00000000000000000000000025e30eb1ad42e7176b9711a169d1f2d135a88c2b",
            "0x000000000000000000000000aa8e23fb1079ea71e0a56f48a2aa51851d8433d0"
          ],
          "data": "0x000000000000000000000000000000000000000000000000000000000d00dca6",
          "blockHash": "0x27446881ec0cf52d003d01f825d4fd95ffe43f880722a511ad529f28036dfe94",
          "blockNumber": "0x4594a6",
          "transactionHash": "0xbabc6737d1428ff284fef3af9b606ee9063a47bb11a93fabbddfed06b8c69e0b",
          "transactionIndex": "0xe",
          "logIndex": "0x25",
          "removed": false
        }
      ],
      "status": "0x1",
      "logsBloom": "0x00000000000000000000000000002000000000000000000000000000000100000000000000000000000000000000000100000000000000000000000000000000000000000000000000000000000000000000000000000000000000000000100000000000000000000000000080000000000000000000000000000001000000000000000000000000000000000000000000000000000000000000000000000000000000000000000000000000800000000000000040000000020004000000000000000000000000000000000000000000000200100000000000000000000000000000000000000000000000000000000100010000000000000000000000000001",
      "type": "0x2",
      "effectiveGasPrice": "0x1c7b7446d"
    },
    {
      "transactionHash": "0xe34264339d97ef59fb300701d085c154e98cdbb2d62ae8645e1fdb5e0ef7626d",
      "transactionIndex": "0x8",
      "blockHash": "0x808d6a8e97661c990c07f9d377f9624e224c29cf0938f8347d586e8c915693b8",
      "blockNumber": "0x4594a7",
      "from": "0x3e122A3dB43d225DD5BFFD929AD4176ce69117E0",
      "to": "0x3FfAf50D4F4E96eB78f2407c090b72e86eCaed24",
      "cumulativeGasUsed": "0x138901",
      "gasUsed": "0xc82c",
      "contractAddress": null,
      "logs": [
        {
          "address": "0x3FfAf50D4F4E96eB78f2407c090b72e86eCaed24",
          "topics": [
            "0x8c5be1e5ebec7d5bd14f71427d1e84f3dd0314c0f7b2291e5b200ac8c7c3b925",
            "0x0000000000000000000000003e122a3db43d225dd5bffd929ad4176ce69117e0",
            "0x00000000000000000000000025e30eb1ad42e7176b9711a169d1f2d135a88c2b"
          ],
          "data": "0x00000000000000000000000000000000000000000000006c73d7e804bd110800",
          "blockHash": "0x808d6a8e97661c990c07f9d377f9624e224c29cf0938f8347d586e8c915693b8",
          "blockNumber": "0x4594a7",
          "transactionHash": "0xe34264339d97ef59fb300701d085c154e98cdbb2d62ae8645e1fdb5e0ef7626d",
          "transactionIndex": "0x8",
          "logIndex": "0xa",
          "removed": false
        }
      ],
      "status": "0x1",
      "logsBloom": "0x00000000080000000000000000000000000000000000000000000000000100000000000000000000000000000000000100000000000000000000000000200000000000000000000000000000000000000000000000000000000000000000000000000000000000000000001000000000000000000000000000000000000000000000008000040000000000000000000000000000000000000000000000000000020000000000000000000080000000000000000000000000000000000000000000000000000000000000000000000000000000000000000000000000000000000010000000000000000000000000000000000000000000000000000001000001",
      "type": "0x2",
      "effectiveGasPrice": "0x1bf40c92c"
    },
    {
      "transactionHash": "0x8f7ed2acb964ec52703fe08f96176ea1fdae3b6e26bcc4604826c4fbe11aabf9",
      "transactionIndex": "0x4",
      "blockHash": "0xb80c977085c7d34e99e993ae719341b0f8debcfb3e6ef542d2a08898ff112a0d",
      "blockNumber": "0x4594a8",
      "from": "0x3e122A3dB43d225DD5BFFD929AD4176ce69117E0",
      "to": "0x16dA4541aD1807f4443d92D26044C1147406EB80",
      "cumulativeGasUsed": "0x2101c",
      "gasUsed": "0xc7fc",
      "contractAddress": null,
      "logs": [
        {
          "address": "0x16dA4541aD1807f4443d92D26044C1147406EB80",
          "topics": [
            "0x8c5be1e5ebec7d5bd14f71427d1e84f3dd0314c0f7b2291e5b200ac8c7c3b925",
            "0x0000000000000000000000003e122a3db43d225dd5bffd929ad4176ce69117e0",
            "0x00000000000000000000000025e30eb1ad42e7176b9711a169d1f2d135a88c2b"
          ],
          "data": "0x000000000000000000000000000000000000000000000000000000007942f7ce",
          "blockHash": "0xb80c977085c7d34e99e993ae719341b0f8debcfb3e6ef542d2a08898ff112a0d",
          "blockNumber": "0x4594a8",
          "transactionHash": "0x8f7ed2acb964ec52703fe08f96176ea1fdae3b6e26bcc4604826c4fbe11aabf9",
          "transactionIndex": "0x4",
          "logIndex": "0x0",
          "removed": false
        }
      ],
      "status": "0x1",
      "logsBloom": "0x00000000080000000200000000000000000000000000000000000000000100000000008000000000000000000000000100000000000000000000000000200000000000000000000000000000000000000000000000000000000000000000000000000000000000000000000000000000000000000000000000000000000000000000000000040000000000000000000000000000000000000000000000000000020000000000000000000080000000000000000000000000000000000000000000008000000000000000000000000000000000000000000000000000000000000010000000000000000000000000000000000000000000000000000000000001",
      "type": "0x2",
      "effectiveGasPrice": "0x1c0c7d9aa"
    },
    {
      "transactionHash": "0x2505e977209f67c591796d1d4181f349034e0098bdbf7595935f1a8df22af307",
      "transactionIndex": "0x19",
      "blockHash": "0xd9b93863b12c6e9f513bb9d9c36f9339a70d200e96f2a598466cc7ab89ee9056",
      "blockNumber": "0x4594a9",
      "from": "0x3e122A3dB43d225DD5BFFD929AD4176ce69117E0",
      "to": "0x1804Bf30507dc2EB3bDEbbbdd859991EAeF6EefF",
      "cumulativeGasUsed": "0x9132c3",
      "gasUsed": "0xc7fc",
      "contractAddress": null,
      "logs": [
        {
          "address": "0x1804Bf30507dc2EB3bDEbbbdd859991EAeF6EefF",
          "topics": [
            "0x8c5be1e5ebec7d5bd14f71427d1e84f3dd0314c0f7b2291e5b200ac8c7c3b925",
            "0x0000000000000000000000003e122a3db43d225dd5bffd929ad4176ce69117e0",
            "0x00000000000000000000000025e30eb1ad42e7176b9711a169d1f2d135a88c2b"
          ],
          "data": "0x000000000000000000000000000000000000000000000000000000000bebc202",
          "blockHash": "0xd9b93863b12c6e9f513bb9d9c36f9339a70d200e96f2a598466cc7ab89ee9056",
          "blockNumber": "0x4594a9",
          "transactionHash": "0x2505e977209f67c591796d1d4181f349034e0098bdbf7595935f1a8df22af307",
          "transactionIndex": "0x19",
          "logIndex": "0x5d",
          "removed": false
        }
      ],
      "status": "0x1",
      "logsBloom": "0x00000000080000000000000000000000000000000000000000000000000100000000000000000000000000000000000100000000000000000000000000200000000000000000000000000000000000000000000000000000000000000000000000000000000000000000000000000000000000000000000000000000000000000000000000040000000000000000000000000000000000000000000000000000020000000000000000000080000000000000000000004000000002000000000000000000000000000000000000000000000000000000000000000000000000000010000008000000000000000000000000000000000000000000000000000001",
      "type": "0x2",
      "effectiveGasPrice": "0x1c6490ae8"
    },
    {
      "transactionHash": "0xe89eb56d2ee01445b30fd65e24fb8c3a4dc7522bce5d12e55aa274549fe83c31",
      "transactionIndex": "0x3",
      "blockHash": "0x911b2f8eea4b3bc65ae8484f778cecb9d75232a0c11bec8ce5d57af414f2e327",
      "blockNumber": "0x4594aa",
      "from": "0x3e122A3dB43d225DD5BFFD929AD4176ce69117E0",
      "to": "0xAF0F6e8b0Dc5c913bbF4d14c22B4E78Dd14310B6",
      "cumulativeGasUsed": "0x2956a",
      "gasUsed": "0xc7f0",
      "contractAddress": null,
      "logs": [
        {
          "address": "0xAF0F6e8b0Dc5c913bbF4d14c22B4E78Dd14310B6",
          "topics": [
            "0x8c5be1e5ebec7d5bd14f71427d1e84f3dd0314c0f7b2291e5b200ac8c7c3b925",
            "0x0000000000000000000000003e122a3db43d225dd5bffd929ad4176ce69117e0",
            "0x00000000000000000000000025e30eb1ad42e7176b9711a169d1f2d135a88c2b"
          ],
          "data": "0x00000000000000000000000000000000000000000000000000000000003d8512",
          "blockHash": "0x911b2f8eea4b3bc65ae8484f778cecb9d75232a0c11bec8ce5d57af414f2e327",
          "blockNumber": "0x4594aa",
          "transactionHash": "0xe89eb56d2ee01445b30fd65e24fb8c3a4dc7522bce5d12e55aa274549fe83c31",
          "transactionIndex": "0x3",
          "logIndex": "0x1",
          "removed": false
        }
      ],
      "status": "0x1",
      "logsBloom": "0x00000000080000000000000000000000000000000000000000000000000100000000000000000000000000000000000100000000000000000000000000200000000000000000000000000000000000000000000000000000000000000000000000000000000000000000000000000000000000000000000000000000000000000000000000040000000000000000000000000000000000000000000000000000020000000000000000000080000000000000008000000000000000000000000000000000000000000000000000080000000000000000000000000001000000000010000000000000000000000000000000000000000000000000000000000001",
      "type": "0x2",
      "effectiveGasPrice": "0x1c01f99a4"
    },
    {
      "transactionHash": "0x71708135659f145143e92f9b1e8d31d44a7475810e1cc9d4ab5c6eab88b55793",
      "transactionIndex": "0x3",
      "blockHash": "0xc2e83148296a2cfa9e52c429b256ab6e952587be930f93479f918059253f3961",
      "blockNumber": "0x4594ab",
      "from": "0x3e122A3dB43d225DD5BFFD929AD4176ce69117E0",
      "to": "0x6b8558764d3b7572136F17174Cb9aB1DDc7E1259",
      "cumulativeGasUsed": "0x5c046",
      "gasUsed": "0xc820",
      "contractAddress": null,
      "logs": [
        {
          "address": "0x6b8558764d3b7572136F17174Cb9aB1DDc7E1259",
          "topics": [
            "0x8c5be1e5ebec7d5bd14f71427d1e84f3dd0314c0f7b2291e5b200ac8c7c3b925",
            "0x0000000000000000000000003e122a3db43d225dd5bffd929ad4176ce69117e0",
            "0x00000000000000000000000025e30eb1ad42e7176b9711a169d1f2d135a88c2b"
          ],
          "data": "0x00000000000000000000000000000000000000000000000ad78ebc5ac6200000",
          "blockHash": "0xc2e83148296a2cfa9e52c429b256ab6e952587be930f93479f918059253f3961",
          "blockNumber": "0x4594ab",
          "transactionHash": "0x71708135659f145143e92f9b1e8d31d44a7475810e1cc9d4ab5c6eab88b55793",
          "transactionIndex": "0x3",
          "logIndex": "0x7",
          "removed": false
        }
      ],
      "status": "0x1",
      "logsBloom": "0x00000000080000000000000000000800000000000000000000000000000100000000000000000000000000000000000100000000000000000000000000200000000000000000000000002000000000000000000000000000000000000000000000000000000000000000000000000000000000000000000000000000000000000000000000040000000000000000000000000000000000000000000000000000020000000000000000000080000000000000000000000000000000000000000000000000000000000000000000000000000000000000000000000000000000000010000400000000000000000000000000000000000000000000000000000001",
      "type": "0x2",
      "effectiveGasPrice": "0x1b448f4f1"
    },
    {
      "transactionHash": "0x4ab4539f8fd45150a88217dcf80ae48e2f1f98f6ee309267df1c3ac2555d154f",
      "transactionIndex": "0x5",
      "blockHash": "0xe8607d389cce853efc6c0e20ea4dd78b9ac13477c98a32b0ea6939f0c987fb3d",
      "blockNumber": "0x4594ac",
      "from": "0x3e122A3dB43d225DD5BFFD929AD4176ce69117E0",
      "to": "0x6Ae43d3271ff6888e7Fc43Fd7321a503ff738951",
      "cumulativeGasUsed": "0x1bd5ed",
      "gasUsed": "0x17e8b",
      "contractAddress": null,
      "logs": [],
      "status": "0x1",
      "logsBloom": "0x00000000000000000000000000000000000000000000000000000000000000000000000000000000000000000000000000000000000000000000000000000000000000000000000000000000000000000000000000000000000000000000000000000000000000000000000000000000000000000000000000000000000000000000000000000000000000000000000000000000000000000000000000000000000000000000000000000000000000000000000000000000000000000000000000000000000000000000000000000000000000000000000000000000000000000000000000000000000000000000000000000000000000000000000000000000",
      "type": "0x2",
      "effectiveGasPrice": "0x1acd7e0ef"
    },
    {
      "transactionHash": "0x0d0a39f2cde341070c7670408177520e430feb0f061ecd5eca479b993f60002c",
      "transactionIndex": "0x4",
      "blockHash": "0x8ae209ee3378384d10943bcd2e46fe108606c1f4aace90d600dcba7cbf041a15",
      "blockNumber": "0x4594ad",
      "from": "0x3e122A3dB43d225DD5BFFD929AD4176ce69117E0",
      "to": "0x6Ae43d3271ff6888e7Fc43Fd7321a503ff738951",
      "cumulativeGasUsed": "0x3c39b",
      "gasUsed": "0x18529",
      "contractAddress": null,
      "logs": [],
      "status": "0x1",
      "logsBloom": "0x00000000000000000000000000000000000000000000000000000000000000000000000000000000000000000000000000000000000000000000000000000000000000000000000000000000000000000000000000000000000000000000000000000000000000000000000000000000000000000000000000000000000000000000000000000000000000000000000000000000000000000000000000000000000000000000000000000000000000000000000000000000000000000000000000000000000000000000000000000000000000000000000000000000000000000000000000000000000000000000000000000000000000000000000000000000",
      "type": "0x2",
      "effectiveGasPrice": "0x1cc080444"
    },
    {
      "transactionHash": "0x5651aeb5cca6e50a2b29a3931d793435b9cb876ae3dc1c88ed604d5b4c6933fc",
      "transactionIndex": "0x5",
      "blockHash": "0x988be690979eac781a183a10881c37a81e4e52fbaf2fe7f09512afe6eae6cd9e",
      "blockNumber": "0x4594ae",
      "from": "0x3e122A3dB43d225DD5BFFD929AD4176ce69117E0",
      "to": "0x6Ae43d3271ff6888e7Fc43Fd7321a503ff738951",
      "cumulativeGasUsed": "0xd6d52",
      "gasUsed": "0x17e8b",
      "contractAddress": null,
      "logs": [],
      "status": "0x1",
      "logsBloom": "0x00000000000000000000000000000000000000000000000000000000000000000000000000000000000000000000000000000000000000000000000000000000000000000000000000000000000000000000000000000000000000000000000000000000000000000000000000000000000000000000000000000000000000000000000000000000000000000000000000000000000000000000000000000000000000000000000000000000000000000000000000000000000000000000000000000000000000000000000000000000000000000000000000000000000000000000000000000000000000000000000000000000000000000000000000000000",
      "type": "0x2",
      "effectiveGasPrice": "0x1c3c44ba5"
    },
    {
      "transactionHash": "0x6aba8b55a8ff8e80014bb45faf8a009a3e74a53682f17b5665a7f44d4fda301d",
      "transactionIndex": "0x8",
      "blockHash": "0xe7d5762da02a365122876ab172134eaddb9d6aa60f728a34eca822727e0b984d",
      "blockNumber": "0x4594af",
      "from": "0x3e122A3dB43d225DD5BFFD929AD4176ce69117E0",
      "to": "0x6Ae43d3271ff6888e7Fc43Fd7321a503ff738951",
      "cumulativeGasUsed": "0x283073",
      "gasUsed": "0x17e8b",
      "contractAddress": null,
      "logs": [],
      "status": "0x1",
      "logsBloom": "0x00000000000000000000000000000000000000000000000000000000000000000000000000000000000000000000000000000000000000000000000000000000000000000000000000000000000000000000000000000000000000000000000000000000000000000000000000000000000000000000000000000000000000000000000000000000000000000000000000000000000000000000000000000000000000000000000000000000000000000000000000000000000000000000000000000000000000000000000000000000000000000000000000000000000000000000000000000000000000000000000000000000000000000000000000000000",
      "type": "0x2",
      "effectiveGasPrice": "0x1b64273b6"
    },
    {
      "transactionHash": "0x1277ec4936c74b2d9dc8ffb82da4e1e32aa2c7f43fac8b2126e7824951d1bef8",
      "transactionIndex": "0x5",
      "blockHash": "0x3ca05d1eb0ac85b4831146ca84847182e5959cb21ea449d9223c4a8d433e1a70",
      "blockNumber": "0x4594b0",
      "from": "0x3e122A3dB43d225DD5BFFD929AD4176ce69117E0",
      "to": "0x5efADa3363f4040A032F4De4c1221ac6c2B73525",
      "cumulativeGasUsed": "0x482984",
      "gasUsed": "0x198e1b",
      "contractAddress": null,
      "logs": [
        {
          "address": "0xf8Fb3713D459D7C1018BD0A49D19b4C44290EBE5",
          "topics": [
            "0xddf252ad1be2c89b69c2b068fc378daa952ba7f163c4a11628f55a4df523b3ef",
            "0x0000000000000000000000003ffaf50d4f4e96eb78f2407c090b72e86ecaed24",
            "0x00000000000000000000000025e30eb1ad42e7176b9711a169d1f2d135a88c2b"
          ],
          "data": "0x00000000000000000000000000000000000000000000000000003c399f420269",
          "blockHash": "0x3ca05d1eb0ac85b4831146ca84847182e5959cb21ea449d9223c4a8d433e1a70",
          "blockNumber": "0x4594b0",
          "transactionHash": "0x1277ec4936c74b2d9dc8ffb82da4e1e32aa2c7f43fac8b2126e7824951d1bef8",
          "transactionIndex": "0x5",
          "logIndex": "0xb",
          "removed": false
        },
        {
          "address": "0xaA8E23Fb1079EA71e0a56F48a2aA51851D8433D0",
          "topics": [
            "0xddf252ad1be2c89b69c2b068fc378daa952ba7f163c4a11628f55a4df523b3ef",
            "0x000000000000000000000000af0f6e8b0dc5c913bbf4d14c22b4e78dd14310b6",
            "0x00000000000000000000000025e30eb1ad42e7176b9711a169d1f2d135a88c2b"
          ],
          "data": "0x00000000000000000000000000000000000000000000000000000000065fcb8b",
          "blockHash": "0x3ca05d1eb0ac85b4831146ca84847182e5959cb21ea449d9223c4a8d433e1a70",
          "blockNumber": "0x4594b0",
          "transactionHash": "0x1277ec4936c74b2d9dc8ffb82da4e1e32aa2c7f43fac8b2126e7824951d1bef8",
          "transactionIndex": "0x5",
          "logIndex": "0xc",
          "removed": false
        },
        {
          "address": "0xf8Fb3713D459D7C1018BD0A49D19b4C44290EBE5",
          "topics": [
            "0x8c5be1e5ebec7d5bd14f71427d1e84f3dd0314c0f7b2291e5b200ac8c7c3b925",
            "0x00000000000000000000000025e30eb1ad42e7176b9711a169d1f2d135a88c2b",
            "0x0000000000000000000000006ae43d3271ff6888e7fc43fd7321a503ff738951"
          ],
          "data": "0x00000000000000000000000000000000000000000000000000003c399f420269",
          "blockHash": "0x3ca05d1eb0ac85b4831146ca84847182e5959cb21ea449d9223c4a8d433e1a70",
          "blockNumber": "0x4594b0",
          "transactionHash": "0x1277ec4936c74b2d9dc8ffb82da4e1e32aa2c7f43fac8b2126e7824951d1bef8",
          "transactionIndex": "0x5",
          "logIndex": "0xd",
          "removed": false
        },
        {
          "address": "0x34a4d932E722b9dFb492B9D8131127690CE2430B",
          "topics": [
            "0xddf252ad1be2c89b69c2b068fc378daa952ba7f163c4a11628f55a4df523b3ef",
            "0x0000000000000000000000003e122a3db43d225dd5bffd929ad4176ce69117e0",
            "0x0000000000000000000000000000000000000000000000000000000000000000"
          ],
          "data": "0x00000000000000000000000000000000000000000000000000003c33c18603b8",
          "blockHash": "0x3ca05d1eb0ac85b4831146ca84847182e5959cb21ea449d9223c4a8d433e1a70",
          "blockNumber": "0x4594b0",
          "transactionHash": "0x1277ec4936c74b2d9dc8ffb82da4e1e32aa2c7f43fac8b2126e7824951d1bef8",
          "transactionIndex": "0x5",
          "logIndex": "0xe",
          "removed": false
        },
        {
          "address": "0x34a4d932E722b9dFb492B9D8131127690CE2430B",
          "topics": [
            "0x4cf25bc1d991c17529c25213d3cc0cda295eeaad5f13f361969b12ea48015f90",
            "0x0000000000000000000000003e122a3db43d225dd5bffd929ad4176ce69117e0",
            "0x0000000000000000000000000000000000000000000000000000000000000000"
          ],
          "data": "0x00000000000000000000000000000000000000000000000000003c33c18603b800000000000000000000000000000000000000000000000000000005ddbbfeb10000000000000000000000000000000000000000036de49084fee2b549365c06",
          "blockHash": "0x3ca05d1eb0ac85b4831146ca84847182e5959cb21ea449d9223c4a8d433e1a70",
          "blockNumber": "0x4594b0",
          "transactionHash": "0x1277ec4936c74b2d9dc8ffb82da4e1e32aa2c7f43fac8b2126e7824951d1bef8",
          "transactionIndex": "0x5",
          "logIndex": "0xf",
          "removed": false
        },
        {
          "address": "0x6Ae43d3271ff6888e7Fc43Fd7321a503ff738951",
          "topics": [
            "0x804c9b842b2748a22bb64b345453a3de7ca54a6ca45ce00d415894979e22897a",
            "0x000000000000000000000000f8fb3713d459d7c1018bd0a49d19b4c44290ebe5"
          ],
          "data": "0x000000000000000000000000000000000000000007a71a32e108406fc3faed7e000000000000000000000000000000000000000009fb74cd2200d3a0324c9311000000000000000000000000000000000000000009b1028f5b4cc815984c931100000000000000000000000000000000000000000361185fed2c837f2201eaeb0000000000000000000000000000000000000000036de49084fee2b549365c06",
          "blockHash": "0x3ca05d1eb0ac85b4831146ca84847182e5959cb21ea449d9223c4a8d433e1a70",
          "blockNumber": "0x4594b0",
          "transactionHash": "0x1277ec4936c74b2d9dc8ffb82da4e1e32aa2c7f43fac8b2126e7824951d1bef8",
          "transactionIndex": "0x5",
          "logIndex": "0x10",
          "removed": false
        },
        {
          "address": "0xf8Fb3713D459D7C1018BD0A49D19b4C44290EBE5",
          "topics": [
            "0xddf252ad1be2c89b69c2b068fc378daa952ba7f163c4a11628f55a4df523b3ef",
            "0x00000000000000000000000025e30eb1ad42e7176b9711a169d1f2d135a88c2b",
            "0x0000000000000000000000003ffaf50d4f4e96eb78f2407c090b72e86ecaed24"
          ],
          "data": "0x00000000000000000000000000000000000000000000000000003c399f420269",
          "blockHash": "0x3ca05d1eb0ac85b4831146ca84847182e5959cb21ea449d9223c4a8d433e1a70",
          "blockNumber": "0x4594b0",
          "transactionHash": "0x1277ec4936c74b2d9dc8ffb82da4e1e32aa2c7f43fac8b2126e7824951d1bef8",
          "transactionIndex": "0x5",
          "logIndex": "0x11",
          "removed": false
        },
        {
          "address": "0xf8Fb3713D459D7C1018BD0A49D19b4C44290EBE5",
          "topics": [
            "0x8c5be1e5ebec7d5bd14f71427d1e84f3dd0314c0f7b2291e5b200ac8c7c3b925",
            "0x00000000000000000000000025e30eb1ad42e7176b9711a169d1f2d135a88c2b",
            "0x0000000000000000000000006ae43d3271ff6888e7fc43fd7321a503ff738951"
          ],
          "data": "0x0000000000000000000000000000000000000000000000000000000000000000",
          "blockHash": "0x3ca05d1eb0ac85b4831146ca84847182e5959cb21ea449d9223c4a8d433e1a70",
          "blockNumber": "0x4594b0",
          "transactionHash": "0x1277ec4936c74b2d9dc8ffb82da4e1e32aa2c7f43fac8b2126e7824951d1bef8",
          "transactionIndex": "0x5",
          "logIndex": "0x12",
          "removed": false
        },
        {
          "address": "0x6Ae43d3271ff6888e7Fc43Fd7321a503ff738951",
          "topics": [
            "0xa534c8dbe71f871f9f3530e97a74601fea17b426cae02e1c5aee42c96c784051",
            "0x000000000000000000000000f8fb3713d459d7c1018bd0a49d19b4c44290ebe5",
            "0x0000000000000000000000003e122a3db43d225dd5bffd929ad4176ce69117e0",
            "0x00000000000000000000000025e30eb1ad42e7176b9711a169d1f2d135a88c2b"
          ],
          "data": "0x00000000000000000000000000000000000000000000000000003c399f4202690000000000000000000000000000000000000000000000000000000000000000",
          "blockHash": "0x3ca05d1eb0ac85b4831146ca84847182e5959cb21ea449d9223c4a8d433e1a70",
          "blockNumber": "0x4594b0",
          "transactionHash": "0x1277ec4936c74b2d9dc8ffb82da4e1e32aa2c7f43fac8b2126e7824951d1bef8",
          "transactionIndex": "0x5",
          "logIndex": "0x13",
          "removed": false
        },
        {
          "address": "0xaA8E23Fb1079EA71e0a56F48a2aA51851D8433D0",
          "topics": [
            "0x8c5be1e5ebec7d5bd14f71427d1e84f3dd0314c0f7b2291e5b200ac8c7c3b925",
            "0x00000000000000000000000025e30eb1ad42e7176b9711a169d1f2d135a88c2b",
            "0x0000000000000000000000006ae43d3271ff6888e7fc43fd7321a503ff738951"
          ],
          "data": "0x00000000000000000000000000000000000000000000000000000000065fcb8b",
          "blockHash": "0x3ca05d1eb0ac85b4831146ca84847182e5959cb21ea449d9223c4a8d433e1a70",
          "blockNumber": "0x4594b0",
          "transactionHash": "0x1277ec4936c74b2d9dc8ffb82da4e1e32aa2c7f43fac8b2126e7824951d1bef8",
          "transactionIndex": "0x5",
          "logIndex": "0x14",
          "removed": false
        },
        {
          "address": "0x9844386d29EEd970B9F6a2B9a676083b0478210e",
          "topics": [
            "0xddf252ad1be2c89b69c2b068fc378daa952ba7f163c4a11628f55a4df523b3ef",
            "0x0000000000000000000000003e122a3db43d225dd5bffd929ad4176ce69117e0",
            "0x0000000000000000000000000000000000000000000000000000000000000000"
          ],
          "data": "0x00000000000000000000000000000000000000000000000000000000065fcb74",
          "blockHash": "0x3ca05d1eb0ac85b4831146ca84847182e5959cb21ea449d9223c4a8d433e1a70",
          "blockNumber": "0x4594b0",
          "transactionHash": "0x1277ec4936c74b2d9dc8ffb82da4e1e32aa2c7f43fac8b2126e7824951d1bef8",
          "transactionIndex": "0x5",
          "logIndex": "0x15",
          "removed": false
        },
        {
          "address": "0x9844386d29EEd970B9F6a2B9a676083b0478210e",
          "topics": [
            "0x4cf25bc1d991c17529c25213d3cc0cda295eeaad5f13f361969b12ea48015f90",
            "0x0000000000000000000000003e122a3db43d225dd5bffd929ad4176ce69117e0",
            "0x0000000000000000000000000000000000000000000000000000000000000000"
          ],
          "data": "0x00000000000000000000000000000000000000000000000000000000065fcb74000000000000000000000000000000000000000000000000000000000000001700000000000000000000000000000000000000000344f9dbd626626d3c1cc2c8",
          "blockHash": "0x3ca05d1eb0ac85b4831146ca84847182e5959cb21ea449d9223c4a8d433e1a70",
          "blockNumber": "0x4594b0",
          "transactionHash": "0x1277ec4936c74b2d9dc8ffb82da4e1e32aa2c7f43fac8b2126e7824951d1bef8",
          "transactionIndex": "0x5",
          "logIndex": "0x16",
          "removed": false
        },
        {
          "address": "0x6Ae43d3271ff6888e7Fc43Fd7321a503ff738951",
          "topics": [
            "0x804c9b842b2748a22bb64b345453a3de7ca54a6ca45ce00d415894979e22897a",
            "0x000000000000000000000000aa8e23fb1079ea71e0a56f48a2aa51851d8433d0"
          ],
          "data": "0x000000000000000000000000000000000000000000002796ea422d47cf5ce3bc0000000000000000000000000000000000000000002986ce76bf02187107330400000000000000000000000000000000000000000001572842d7dd77f839981b00000000000000000000000000000000000000000342a8d8ec54b68f0fa6600f00000000000000000000000000000000000000000344f9dbd626626d3c1cc2c8",
          "blockHash": "0x3ca05d1eb0ac85b4831146ca84847182e5959cb21ea449d9223c4a8d433e1a70",
          "blockNumber": "0x4594b0",
          "transactionHash": "0x1277ec4936c74b2d9dc8ffb82da4e1e32aa2c7f43fac8b2126e7824951d1bef8",
          "transactionIndex": "0x5",
          "logIndex": "0x17",
          "removed": false
        },
        {
          "address": "0xaA8E23Fb1079EA71e0a56F48a2aA51851D8433D0",
          "topics": [
            "0xddf252ad1be2c89b69c2b068fc378daa952ba7f163c4a11628f55a4df523b3ef",
            "0x00000000000000000000000025e30eb1ad42e7176b9711a169d1f2d135a88c2b",
            "0x000000000000000000000000af0f6e8b0dc5c913bbf4d14c22b4e78dd14310b6"
          ],
          "data": "0x00000000000000000000000000000000000000000000000000000000065fcb8b",
          "blockHash": "0x3ca05d1eb0ac85b4831146ca84847182e5959cb21ea449d9223c4a8d433e1a70",
          "blockNumber": "0x4594b0",
          "transactionHash": "0x1277ec4936c74b2d9dc8ffb82da4e1e32aa2c7f43fac8b2126e7824951d1bef8",
          "transactionIndex": "0x5",
          "logIndex": "0x18",
          "removed": false
        },
        {
          "address": "0xaA8E23Fb1079EA71e0a56F48a2aA51851D8433D0",
          "topics": [
            "0x8c5be1e5ebec7d5bd14f71427d1e84f3dd0314c0f7b2291e5b200ac8c7c3b925",
            "0x00000000000000000000000025e30eb1ad42e7176b9711a169d1f2d135a88c2b",
            "0x0000000000000000000000006ae43d3271ff6888e7fc43fd7321a503ff738951"
          ],
          "data": "0x0000000000000000000000000000000000000000000000000000000000000000",
          "blockHash": "0x3ca05d1eb0ac85b4831146ca84847182e5959cb21ea449d9223c4a8d433e1a70",
          "blockNumber": "0x4594b0",
          "transactionHash": "0x1277ec4936c74b2d9dc8ffb82da4e1e32aa2c7f43fac8b2126e7824951d1bef8",
          "transactionIndex": "0x5",
          "logIndex": "0x19",
          "removed": false
        },
        {
          "address": "0x6Ae43d3271ff6888e7Fc43Fd7321a503ff738951",
          "topics": [
            "0xa534c8dbe71f871f9f3530e97a74601fea17b426cae02e1c5aee42c96c784051",
            "0x000000000000000000000000aa8e23fb1079ea71e0a56f48a2aa51851d8433d0",
            "0x0000000000000000000000003e122a3db43d225dd5bffd929ad4176ce69117e0",
            "0x00000000000000000000000025e30eb1ad42e7176b9711a169d1f2d135a88c2b"
          ],
          "data": "0x00000000000000000000000000000000000000000000000000000000065fcb8b0000000000000000000000000000000000000000000000000000000000000000",
          "blockHash": "0x3ca05d1eb0ac85b4831146ca84847182e5959cb21ea449d9223c4a8d433e1a70",
          "blockNumber": "0x4594b0",
          "transactionHash": "0x1277ec4936c74b2d9dc8ffb82da4e1e32aa2c7f43fac8b2126e7824951d1bef8",
          "transactionIndex": "0x5",
          "logIndex": "0x1a",
          "removed": false
        },
        {
          "address": "0x3FfAf50D4F4E96eB78f2407c090b72e86eCaed24",
          "topics": [
            "0x8c5be1e5ebec7d5bd14f71427d1e84f3dd0314c0f7b2291e5b200ac8c7c3b925",
            "0x0000000000000000000000003e122a3db43d225dd5bffd929ad4176ce69117e0",
            "0x00000000000000000000000025e30eb1ad42e7176b9711a169d1f2d135a88c2b"
          ],
          "data": "0x00000000000000000000000000000000000000000000003639b58362bcdccc09",
          "blockHash": "0x3ca05d1eb0ac85b4831146ca84847182e5959cb21ea449d9223c4a8d433e1a70",
          "blockNumber": "0x4594b0",
          "transactionHash": "0x1277ec4936c74b2d9dc8ffb82da4e1e32aa2c7f43fac8b2126e7824951d1bef8",
          "transactionIndex": "0x5",
          "logIndex": "0x1b",
          "removed": false
        },
        {
          "address": "0x3FfAf50D4F4E96eB78f2407c090b72e86eCaed24",
          "topics": [
            "0xddf252ad1be2c89b69c2b068fc378daa952ba7f163c4a11628f55a4df523b3ef",
            "0x0000000000000000000000000000000000000000000000000000000000000000",
            "0x0000000000000000000000003e122a3db43d225dd5bffd929ad4176ce69117e0"
          ],
          "data": "0x000000000000000000000000000000000000000000000000045abe23b91aad0e",
          "blockHash": "0x3ca05d1eb0ac85b4831146ca84847182e5959cb21ea449d9223c4a8d433e1a70",
          "blockNumber": "0x4594b0",
          "transactionHash": "0x1277ec4936c74b2d9dc8ffb82da4e1e32aa2c7f43fac8b2126e7824951d1bef8",
          "transactionIndex": "0x5",
          "logIndex": "0x1c",
          "removed": false
        },
        {
          "address": "0x3FfAf50D4F4E96eB78f2407c090b72e86eCaed24",
          "topics": [
            "0x458f5fa412d0f69b08dd84872b0215675cc67bc1d5b6fd93300a1c3878b86196",
            "0x00000000000000000000000025e30eb1ad42e7176b9711a169d1f2d135a88c2b",
            "0x0000000000000000000000003e122a3db43d225dd5bffd929ad4176ce69117e0"
          ],
          "data": "0x000000000000000000000000000000000000000000000000045abe23b91aad0e000000000000000000000000000000000000000000000000045abe23b91aad0e00000000000000000000000000000000000000000361185fed2c837f2201eaeb",
          "blockHash": "0x3ca05d1eb0ac85b4831146ca84847182e5959cb21ea449d9223c4a8d433e1a70",
          "blockNumber": "0x4594b0",
          "transactionHash": "0x1277ec4936c74b2d9dc8ffb82da4e1e32aa2c7f43fac8b2126e7824951d1bef8",
          "transactionIndex": "0x5",
          "logIndex": "0x1d",
          "removed": false
        },
        {
          "address": "0x3FfAf50D4F4E96eB78f2407c090b72e86eCaed24",
          "topics": [
            "0xddf252ad1be2c89b69c2b068fc378daa952ba7f163c4a11628f55a4df523b3ef",
            "0x0000000000000000000000003e122a3db43d225dd5bffd929ad4176ce69117e0",
            "0x000000000000000000000000c5e0b6e472dde70eceffa4c568bd52f2a7a1632a"
          ],
          "data": "0x0000000000000000000000000000000000000000000000363a2264a200343bf7",
          "blockHash": "0x3ca05d1eb0ac85b4831146ca84847182e5959cb21ea449d9223c4a8d433e1a70",
          "blockNumber": "0x4594b0",
          "transactionHash": "0x1277ec4936c74b2d9dc8ffb82da4e1e32aa2c7f43fac8b2126e7824951d1bef8",
          "transactionIndex": "0x5",
          "logIndex": "0x1e",
          "removed": false
        },
        {
          "address": "0x6Ae43d3271ff6888e7Fc43Fd7321a503ff738951",
          "topics": [
            "0x44c58d81365b66dd4b1a7f36c25aa97b8c71c361ee4937adc1a00000227db5dd",
            "0x000000000000000000000000f8fb3713d459d7c1018bd0a49d19b4c44290ebe5",
            "0x0000000000000000000000003e122a3db43d225dd5bffd929ad4176ce69117e0"
          ],
          "data": "0x",
          "blockHash": "0x3ca05d1eb0ac85b4831146ca84847182e5959cb21ea449d9223c4a8d433e1a70",
          "blockNumber": "0x4594b0",
          "transactionHash": "0x1277ec4936c74b2d9dc8ffb82da4e1e32aa2c7f43fac8b2126e7824951d1bef8",
          "transactionIndex": "0x5",
          "logIndex": "0x1f",
          "removed": false
        },
        {
          "address": "0x6Ae43d3271ff6888e7Fc43Fd7321a503ff738951",
          "topics": [
            "0x00058a56ea94653cdf4f152d227ace22d4c00ad99e2a43f58cb7d9e3feb295f2",
            "0x000000000000000000000000f8fb3713d459d7c1018bd0a49d19b4c44290ebe5",
            "0x000000000000000000000000c5e0b6e472dde70eceffa4c568bd52f2a7a1632a"
          ],
          "data": "0x",
          "blockHash": "0x3ca05d1eb0ac85b4831146ca84847182e5959cb21ea449d9223c4a8d433e1a70",
          "blockNumber": "0x4594b0",
          "transactionHash": "0x1277ec4936c74b2d9dc8ffb82da4e1e32aa2c7f43fac8b2126e7824951d1bef8",
          "transactionIndex": "0x5",
          "logIndex": "0x20",
          "removed": false
        },
        {
          "address": "0x3FfAf50D4F4E96eB78f2407c090b72e86eCaed24",
          "topics": [
            "0x4beccb90f994c31aced7a23b5611020728a23d8ec5cddd1a3e9d97b96fda8666",
            "0x0000000000000000000000003e122a3db43d225dd5bffd929ad4176ce69117e0",
            "0x000000000000000000000000c5e0b6e472dde70eceffa4c568bd52f2a7a1632a"
          ],
          "data": "0x000000000000000000000000000000000000000000000033d9b88afc0d9daf3b00000000000000000000000000000000000000000361185fed2c837f2201eaeb",
          "blockHash": "0x3ca05d1eb0ac85b4831146ca84847182e5959cb21ea449d9223c4a8d433e1a70",
          "blockNumber": "0x4594b0",
          "transactionHash": "0x1277ec4936c74b2d9dc8ffb82da4e1e32aa2c7f43fac8b2126e7824951d1bef8",
          "transactionIndex": "0x5",
          "logIndex": "0x21",
          "removed": false
        },
        {
          "address": "0x16dA4541aD1807f4443d92D26044C1147406EB80",
          "topics": [
            "0x8c5be1e5ebec7d5bd14f71427d1e84f3dd0314c0f7b2291e5b200ac8c7c3b925",
            "0x0000000000000000000000003e122a3db43d225dd5bffd929ad4176ce69117e0",
            "0x00000000000000000000000025e30eb1ad42e7176b9711a169d1f2d135a88c2b"
          ],
          "data": "0x000000000000000000000000000000000000000000000000000000003ca17bad",
          "blockHash": "0x3ca05d1eb0ac85b4831146ca84847182e5959cb21ea449d9223c4a8d433e1a70",
          "blockNumber": "0x4594b0",
          "transactionHash": "0x1277ec4936c74b2d9dc8ffb82da4e1e32aa2c7f43fac8b2126e7824951d1bef8",
          "transactionIndex": "0x5",
          "logIndex": "0x22",
          "removed": false
        },
        {
          "address": "0x16dA4541aD1807f4443d92D26044C1147406EB80",
          "topics": [
            "0xddf252ad1be2c89b69c2b068fc378daa952ba7f163c4a11628f55a4df523b3ef",
            "0x0000000000000000000000000000000000000000000000000000000000000000",
            "0x0000000000000000000000003e122a3db43d225dd5bffd929ad4176ce69117e0"
          ],
          "data": "0x0000000000000000000000000000000000000000000000000000000000000466",
          "blockHash": "0x3ca05d1eb0ac85b4831146ca84847182e5959cb21ea449d9223c4a8d433e1a70",
          "blockNumber": "0x4594b0",
          "transactionHash": "0x1277ec4936c74b2d9dc8ffb82da4e1e32aa2c7f43fac8b2126e7824951d1bef8",
          "transactionIndex": "0x5",
          "logIndex": "0x23",
          "removed": false
        },
        {
          "address": "0x16dA4541aD1807f4443d92D26044C1147406EB80",
          "topics": [
            "0x458f5fa412d0f69b08dd84872b0215675cc67bc1d5b6fd93300a1c3878b86196",
            "0x00000000000000000000000025e30eb1ad42e7176b9711a169d1f2d135a88c2b",
            "0x0000000000000000000000003e122a3db43d225dd5bffd929ad4176ce69117e0"
          ],
          "data": "0x000000000000000000000000000000000000000000000000000000000000046600000000000000000000000000000000000000000000000000000000000004660000000000000000000000000000000000000000034949ce40f651649891516b",
          "blockHash": "0x3ca05d1eb0ac85b4831146ca84847182e5959cb21ea449d9223c4a8d433e1a70",
          "blockNumber": "0x4594b0",
          "transactionHash": "0x1277ec4936c74b2d9dc8ffb82da4e1e32aa2c7f43fac8b2126e7824951d1bef8",
          "transactionIndex": "0x5",
          "logIndex": "0x24",
          "removed": false
        },
        {
          "address": "0x16dA4541aD1807f4443d92D26044C1147406EB80",
          "topics": [
            "0xddf252ad1be2c89b69c2b068fc378daa952ba7f163c4a11628f55a4df523b3ef",
            "0x0000000000000000000000003e122a3db43d225dd5bffd929ad4176ce69117e0",
            "0x000000000000000000000000c5e0b6e472dde70eceffa4c568bd52f2a7a1632a"
          ],
          "data": "0x000000000000000000000000000000000000000000000000000000003ca17c21",
          "blockHash": "0x3ca05d1eb0ac85b4831146ca84847182e5959cb21ea449d9223c4a8d433e1a70",
          "blockNumber": "0x4594b0",
          "transactionHash": "0x1277ec4936c74b2d9dc8ffb82da4e1e32aa2c7f43fac8b2126e7824951d1bef8",
          "transactionIndex": "0x5",
          "logIndex": "0x25",
          "removed": false
        },
        {
          "address": "0x6Ae43d3271ff6888e7Fc43Fd7321a503ff738951",
          "topics": [
            "0x44c58d81365b66dd4b1a7f36c25aa97b8c71c361ee4937adc1a00000227db5dd",
            "0x00000000000000000000000094a9d9ac8a22534e3faca9f4e7f2e2cf85d5e4c8",
            "0x0000000000000000000000003e122a3db43d225dd5bffd929ad4176ce69117e0"
          ],
          "data": "0x",
          "blockHash": "0x3ca05d1eb0ac85b4831146ca84847182e5959cb21ea449d9223c4a8d433e1a70",
          "blockNumber": "0x4594b0",
          "transactionHash": "0x1277ec4936c74b2d9dc8ffb82da4e1e32aa2c7f43fac8b2126e7824951d1bef8",
          "transactionIndex": "0x5",
          "logIndex": "0x26",
          "removed": false
        },
        {
          "address": "0x6Ae43d3271ff6888e7Fc43Fd7321a503ff738951",
          "topics": [
            "0x00058a56ea94653cdf4f152d227ace22d4c00ad99e2a43f58cb7d9e3feb295f2",
            "0x00000000000000000000000094a9d9ac8a22534e3faca9f4e7f2e2cf85d5e4c8",
            "0x000000000000000000000000c5e0b6e472dde70eceffa4c568bd52f2a7a1632a"
          ],
          "data": "0x",
          "blockHash": "0x3ca05d1eb0ac85b4831146ca84847182e5959cb21ea449d9223c4a8d433e1a70",
          "blockNumber": "0x4594b0",
          "transactionHash": "0x1277ec4936c74b2d9dc8ffb82da4e1e32aa2c7f43fac8b2126e7824951d1bef8",
          "transactionIndex": "0x5",
          "logIndex": "0x27",
          "removed": false
        },
        {
          "address": "0x16dA4541aD1807f4443d92D26044C1147406EB80",
          "topics": [
            "0x4beccb90f994c31aced7a23b5611020728a23d8ec5cddd1a3e9d97b96fda8666",
            "0x0000000000000000000000003e122a3db43d225dd5bffd929ad4176ce69117e0",
            "0x000000000000000000000000c5e0b6e472dde70eceffa4c568bd52f2a7a1632a"
          ],
          "data": "0x000000000000000000000000000000000000000000000000000000003b9d33e70000000000000000000000000000000000000000034949ce40f651649891516b",
          "blockHash": "0x3ca05d1eb0ac85b4831146ca84847182e5959cb21ea449d9223c4a8d433e1a70",
          "blockNumber": "0x4594b0",
          "transactionHash": "0x1277ec4936c74b2d9dc8ffb82da4e1e32aa2c7f43fac8b2126e7824951d1bef8",
          "transactionIndex": "0x5",
          "logIndex": "0x28",
          "removed": false
        },
        {
          "address": "0x1804Bf30507dc2EB3bDEbbbdd859991EAeF6EefF",
          "topics": [
            "0x8c5be1e5ebec7d5bd14f71427d1e84f3dd0314c0f7b2291e5b200ac8c7c3b925",
            "0x0000000000000000000000003e122a3db43d225dd5bffd929ad4176ce69117e0",
            "0x00000000000000000000000025e30eb1ad42e7176b9711a169d1f2d135a88c2b"
          ],
          "data": "0x0000000000000000000000000000000000000000000000000000000005f5e101",
          "blockHash": "0x3ca05d1eb0ac85b4831146ca84847182e5959cb21ea449d9223c4a8d433e1a70",
          "blockNumber": "0x4594b0",
          "transactionHash": "0x1277ec4936c74b2d9dc8ffb82da4e1e32aa2c7f43fac8b2126e7824951d1bef8",
          "transactionIndex": "0x5",
          "logIndex": "0x29",
          "removed": false
        },
        {
          "address": "0x1804Bf30507dc2EB3bDEbbbdd859991EAeF6EefF",
          "topics": [
            "0xddf252ad1be2c89b69c2b068fc378daa952ba7f163c4a11628f55a4df523b3ef",
            "0x0000000000000000000000003e122a3db43d225dd5bffd929ad4176ce69117e0",
            "0x000000000000000000000000c5e0b6e472dde70eceffa4c568bd52f2a7a1632a"
          ],
          "data": "0x0000000000000000000000000000000000000000000000000000000005f5e101",
          "blockHash": "0x3ca05d1eb0ac85b4831146ca84847182e5959cb21ea449d9223c4a8d433e1a70",
          "blockNumber": "0x4594b0",
          "transactionHash": "0x1277ec4936c74b2d9dc8ffb82da4e1e32aa2c7f43fac8b2126e7824951d1bef8",
          "transactionIndex": "0x5",
          "logIndex": "0x2a",
          "removed": false
        },
        {
          "address": "0x6Ae43d3271ff6888e7Fc43Fd7321a503ff738951",
          "topics": [
            "0x44c58d81365b66dd4b1a7f36c25aa97b8c71c361ee4937adc1a00000227db5dd",
            "0x00000000000000000000000029f2d40b0605204364af54ec677bd022da425d03",
            "0x0000000000000000000000003e122a3db43d225dd5bffd929ad4176ce69117e0"
          ],
          "data": "0x",
          "blockHash": "0x3ca05d1eb0ac85b4831146ca84847182e5959cb21ea449d9223c4a8d433e1a70",
          "blockNumber": "0x4594b0",
          "transactionHash": "0x1277ec4936c74b2d9dc8ffb82da4e1e32aa2c7f43fac8b2126e7824951d1bef8",
          "transactionIndex": "0x5",
          "logIndex": "0x2b",
          "removed": false
        },
        {
          "address": "0x6Ae43d3271ff6888e7Fc43Fd7321a503ff738951",
          "topics": [
            "0x00058a56ea94653cdf4f152d227ace22d4c00ad99e2a43f58cb7d9e3feb295f2",
            "0x00000000000000000000000029f2d40b0605204364af54ec677bd022da425d03",
            "0x000000000000000000000000c5e0b6e472dde70eceffa4c568bd52f2a7a1632a"
          ],
          "data": "0x",
          "blockHash": "0x3ca05d1eb0ac85b4831146ca84847182e5959cb21ea449d9223c4a8d433e1a70",
          "blockNumber": "0x4594b0",
          "transactionHash": "0x1277ec4936c74b2d9dc8ffb82da4e1e32aa2c7f43fac8b2126e7824951d1bef8",
          "transactionIndex": "0x5",
          "logIndex": "0x2c",
          "removed": false
        },
        {
          "address": "0x1804Bf30507dc2EB3bDEbbbdd859991EAeF6EefF",
          "topics": [
            "0x4beccb90f994c31aced7a23b5611020728a23d8ec5cddd1a3e9d97b96fda8666",
            "0x0000000000000000000000003e122a3db43d225dd5bffd929ad4176ce69117e0",
            "0x000000000000000000000000c5e0b6e472dde70eceffa4c568bd52f2a7a1632a"
          ],
          "data": "0x0000000000000000000000000000000000000000000000000000000005f5a3fb0000000000000000000000000000000000000000033b4f526b381e394c5a5cab",
          "blockHash": "0x3ca05d1eb0ac85b4831146ca84847182e5959cb21ea449d9223c4a8d433e1a70",
          "blockNumber": "0x4594b0",
          "transactionHash": "0x1277ec4936c74b2d9dc8ffb82da4e1e32aa2c7f43fac8b2126e7824951d1bef8",
          "transactionIndex": "0x5",
          "logIndex": "0x2d",
          "removed": false
        },
        {
          "address": "0xAF0F6e8b0Dc5c913bbF4d14c22B4E78Dd14310B6",
          "topics": [
            "0x8c5be1e5ebec7d5bd14f71427d1e84f3dd0314c0f7b2291e5b200ac8c7c3b925",
            "0x0000000000000000000000003e122a3db43d225dd5bffd929ad4176ce69117e0",
            "0x00000000000000000000000025e30eb1ad42e7176b9711a169d1f2d135a88c2b"
          ],
          "data": "0x00000000000000000000000000000000000000000000000000000000001ec289",
          "blockHash": "0x3ca05d1eb0ac85b4831146ca84847182e5959cb21ea449d9223c4a8d433e1a70",
          "blockNumber": "0x4594b0",
          "transactionHash": "0x1277ec4936c74b2d9dc8ffb82da4e1e32aa2c7f43fac8b2126e7824951d1bef8",
          "transactionIndex": "0x5",
          "logIndex": "0x2e",
          "removed": false
        },
        {
          "address": "0xAF0F6e8b0Dc5c913bbF4d14c22B4E78Dd14310B6",
          "topics": [
            "0xddf252ad1be2c89b69c2b068fc378daa952ba7f163c4a11628f55a4df523b3ef",
            "0x0000000000000000000000003e122a3db43d225dd5bffd929ad4176ce69117e0",
            "0x000000000000000000000000c5e0b6e472dde70eceffa4c568bd52f2a7a1632a"
          ],
          "data": "0x00000000000000000000000000000000000000000000000000000000001ec289",
          "blockHash": "0x3ca05d1eb0ac85b4831146ca84847182e5959cb21ea449d9223c4a8d433e1a70",
          "blockNumber": "0x4594b0",
          "transactionHash": "0x1277ec4936c74b2d9dc8ffb82da4e1e32aa2c7f43fac8b2126e7824951d1bef8",
          "transactionIndex": "0x5",
          "logIndex": "0x2f",
          "removed": false
        },
        {
          "address": "0xAF0F6e8b0Dc5c913bbF4d14c22B4E78Dd14310B6",
          "topics": [
            "0x4beccb90f994c31aced7a23b5611020728a23d8ec5cddd1a3e9d97b96fda8666",
            "0x0000000000000000000000003e122a3db43d225dd5bffd929ad4176ce69117e0",
            "0x000000000000000000000000c5e0b6e472dde70eceffa4c568bd52f2a7a1632a"
          ],
          "data": "0x00000000000000000000000000000000000000000000000000000000001e7bfa00000000000000000000000000000000000000000342a8d8ec54b68f0fa6600f",
          "blockHash": "0x3ca05d1eb0ac85b4831146ca84847182e5959cb21ea449d9223c4a8d433e1a70",
          "blockNumber": "0x4594b0",
          "transactionHash": "0x1277ec4936c74b2d9dc8ffb82da4e1e32aa2c7f43fac8b2126e7824951d1bef8",
          "transactionIndex": "0x5",
          "logIndex": "0x30",
          "removed": false
        },
        {
          "address": "0x6b8558764d3b7572136F17174Cb9aB1DDc7E1259",
          "topics": [
            "0x8c5be1e5ebec7d5bd14f71427d1e84f3dd0314c0f7b2291e5b200ac8c7c3b925",
            "0x0000000000000000000000003e122a3db43d225dd5bffd929ad4176ce69117e0",
            "0x00000000000000000000000025e30eb1ad42e7176b9711a169d1f2d135a88c2b"
          ],
          "data": "0x0000000000000000000000000000000000000000000000056bc75e2d63100000",
          "blockHash": "0x3ca05d1eb0ac85b4831146ca84847182e5959cb21ea449d9223c4a8d433e1a70",
          "blockNumber": "0x4594b0",
          "transactionHash": "0x1277ec4936c74b2d9dc8ffb82da4e1e32aa2c7f43fac8b2126e7824951d1bef8",
          "transactionIndex": "0x5",
          "logIndex": "0x31",
          "removed": false
        },
        {
          "address": "0x6b8558764d3b7572136F17174Cb9aB1DDc7E1259",
          "topics": [
            "0xddf252ad1be2c89b69c2b068fc378daa952ba7f163c4a11628f55a4df523b3ef",
            "0x0000000000000000000000003e122a3db43d225dd5bffd929ad4176ce69117e0",
            "0x000000000000000000000000c5e0b6e472dde70eceffa4c568bd52f2a7a1632a"
          ],
          "data": "0x0000000000000000000000000000000000000000000000056bc75e2d63100000",
          "blockHash": "0x3ca05d1eb0ac85b4831146ca84847182e5959cb21ea449d9223c4a8d433e1a70",
          "blockNumber": "0x4594b0",
          "transactionHash": "0x1277ec4936c74b2d9dc8ffb82da4e1e32aa2c7f43fac8b2126e7824951d1bef8",
          "transactionIndex": "0x5",
          "logIndex": "0x32",
          "removed": false
        },
        {
          "address": "0x6Ae43d3271ff6888e7Fc43Fd7321a503ff738951",
          "topics": [
            "0x44c58d81365b66dd4b1a7f36c25aa97b8c71c361ee4937adc1a00000227db5dd",
            "0x00000000000000000000000088541670e55cc00beefd87eb59edd1b7c511ac9a",
            "0x0000000000000000000000003e122a3db43d225dd5bffd929ad4176ce69117e0"
          ],
          "data": "0x",
          "blockHash": "0x3ca05d1eb0ac85b4831146ca84847182e5959cb21ea449d9223c4a8d433e1a70",
          "blockNumber": "0x4594b0",
          "transactionHash": "0x1277ec4936c74b2d9dc8ffb82da4e1e32aa2c7f43fac8b2126e7824951d1bef8",
          "transactionIndex": "0x5",
          "logIndex": "0x33",
          "removed": false
        },
        {
          "address": "0x6Ae43d3271ff6888e7Fc43Fd7321a503ff738951",
          "topics": [
            "0x00058a56ea94653cdf4f152d227ace22d4c00ad99e2a43f58cb7d9e3feb295f2",
            "0x00000000000000000000000088541670e55cc00beefd87eb59edd1b7c511ac9a",
            "0x000000000000000000000000c5e0b6e472dde70eceffa4c568bd52f2a7a1632a"
          ],
          "data": "0x",
          "blockHash": "0x3ca05d1eb0ac85b4831146ca84847182e5959cb21ea449d9223c4a8d433e1a70",
          "blockNumber": "0x4594b0",
          "transactionHash": "0x1277ec4936c74b2d9dc8ffb82da4e1e32aa2c7f43fac8b2126e7824951d1bef8",
          "transactionIndex": "0x5",
          "logIndex": "0x34",
          "removed": false
        },
        {
          "address": "0x6b8558764d3b7572136F17174Cb9aB1DDc7E1259",
          "topics": [
            "0x4beccb90f994c31aced7a23b5611020728a23d8ec5cddd1a3e9d97b96fda8666",
            "0x0000000000000000000000003e122a3db43d225dd5bffd929ad4176ce69117e0",
            "0x000000000000000000000000c5e0b6e472dde70eceffa4c568bd52f2a7a1632a"
          ],
          "data": "0x0000000000000000000000000000000000000000000000056bc74c139cd4f48f0000000000000000000000000000000000000000033b2e4769c27e5b821decfc",
          "blockHash": "0x3ca05d1eb0ac85b4831146ca84847182e5959cb21ea449d9223c4a8d433e1a70",
          "blockNumber": "0x4594b0",
          "transactionHash": "0x1277ec4936c74b2d9dc8ffb82da4e1e32aa2c7f43fac8b2126e7824951d1bef8",
          "transactionIndex": "0x5",
          "logIndex": "0x35",
          "removed": false
        },
        {
          "address": "0x34a4d932E722b9dFb492B9D8131127690CE2430B",
          "topics": [
            "0xda919360433220e13b51e8c211e490d148e61a3bd53de8c097194e458b97f3e1",
            "0x000000000000000000000000c5e0b6e472dde70eceffa4c568bd52f2a7a1632a",
            "0x00000000000000000000000025e30eb1ad42e7176b9711a169d1f2d135a88c2b",
            "0x000000000000000000000000f8fb3713d459d7c1018bd0a49d19b4c44290ebe5"
          ],
          "data": "0x00000000000000000000000000000000000000000000000000003e9a0208a13a",
          "blockHash": "0x3ca05d1eb0ac85b4831146ca84847182e5959cb21ea449d9223c4a8d433e1a70",
          "blockNumber": "0x4594b0",
          "transactionHash": "0x1277ec4936c74b2d9dc8ffb82da4e1e32aa2c7f43fac8b2126e7824951d1bef8",
          "transactionIndex": "0x5",
          "logIndex": "0x36",
          "removed": false
        },
        {
          "address": "0x34a4d932E722b9dFb492B9D8131127690CE2430B",
          "topics": [
            "0xddf252ad1be2c89b69c2b068fc378daa952ba7f163c4a11628f55a4df523b3ef",
            "0x0000000000000000000000000000000000000000000000000000000000000000",
            "0x000000000000000000000000c5e0b6e472dde70eceffa4c568bd52f2a7a1632a"
          ],
          "data": "0x00000000000000000000000000000000000000000000000000003c4154b6a682",
          "blockHash": "0x3ca05d1eb0ac85b4831146ca84847182e5959cb21ea449d9223c4a8d433e1a70",
          "blockNumber": "0x4594b0",
          "transactionHash": "0x1277ec4936c74b2d9dc8ffb82da4e1e32aa2c7f43fac8b2126e7824951d1bef8",
          "transactionIndex": "0x5",
          "logIndex": "0x37",
          "removed": false
        },
        {
          "address": "0x34a4d932E722b9dFb492B9D8131127690CE2430B",
          "topics": [
            "0x458f5fa412d0f69b08dd84872b0215675cc67bc1d5b6fd93300a1c3878b86196",
            "0x00000000000000000000000025e30eb1ad42e7176b9711a169d1f2d135a88c2b",
            "0x000000000000000000000000c5e0b6e472dde70eceffa4c568bd52f2a7a1632a"
          ],
          "data": "0x00000000000000000000000000000000000000000000000000003c4154b6a68200000000000000000000000000000000000000000000000000000000000000000000000000000000000000000000000000000000036de49084fee2b549365c06",
          "blockHash": "0x3ca05d1eb0ac85b4831146ca84847182e5959cb21ea449d9223c4a8d433e1a70",
          "blockNumber": "0x4594b0",
          "transactionHash": "0x1277ec4936c74b2d9dc8ffb82da4e1e32aa2c7f43fac8b2126e7824951d1bef8",
          "transactionIndex": "0x5",
          "logIndex": "0x38",
          "removed": false
        },
        {
          "address": "0x6Ae43d3271ff6888e7Fc43Fd7321a503ff738951",
          "topics": [
            "0x804c9b842b2748a22bb64b345453a3de7ca54a6ca45ce00d415894979e22897a",
            "0x000000000000000000000000f8fb3713d459d7c1018bd0a49d19b4c44290ebe5"
          ],
          "data": "0x000000000000000000000000000000000000000007a71a32f1a423443c6649d3000000000000000000000000000000000000000009fb74cd2f82ecafb7f376c1000000000000000000000000000000000000000009b1028f68cee1251df376c100000000000000000000000000000000000000000361185fed2c837f2201eaeb0000000000000000000000000000000000000000036de49084fee2b549365c06",
          "blockHash": "0x3ca05d1eb0ac85b4831146ca84847182e5959cb21ea449d9223c4a8d433e1a70",
          "blockNumber": "0x4594b0",
          "transactionHash": "0x1277ec4936c74b2d9dc8ffb82da4e1e32aa2c7f43fac8b2126e7824951d1bef8",
          "transactionIndex": "0x5",
          "logIndex": "0x39",
          "removed": false
        },
        {
          "address": "0xf8Fb3713D459D7C1018BD0A49D19b4C44290EBE5",
          "topics": [
            "0xddf252ad1be2c89b69c2b068fc378daa952ba7f163c4a11628f55a4df523b3ef",
            "0x0000000000000000000000003ffaf50d4f4e96eb78f2407c090b72e86ecaed24",
            "0x00000000000000000000000025e30eb1ad42e7176b9711a169d1f2d135a88c2b"
          ],
          "data": "0x00000000000000000000000000000000000000000000000000003c4154b6a682",
          "blockHash": "0x3ca05d1eb0ac85b4831146ca84847182e5959cb21ea449d9223c4a8d433e1a70",
          "blockNumber": "0x4594b0",
          "transactionHash": "0x1277ec4936c74b2d9dc8ffb82da4e1e32aa2c7f43fac8b2126e7824951d1bef8",
          "transactionIndex": "0x5",
          "logIndex": "0x3a",
          "removed": false
        },
        {
          "address": "0x6Ae43d3271ff6888e7Fc43Fd7321a503ff738951",
          "topics": [
            "0xb3d084820fb1a9decffb176436bd02558d15fac9b0ddfed8c465bc7359d7dce0",
            "0x000000000000000000000000f8fb3713d459d7c1018bd0a49d19b4c44290ebe5",
            "0x000000000000000000000000c5e0b6e472dde70eceffa4c568bd52f2a7a1632a",
            "0x0000000000000000000000000000000000000000000000000000000000000000"
          ],
          "data": "0x00000000000000000000000025e30eb1ad42e7176b9711a169d1f2d135a88c2b00000000000000000000000000000000000000000000000000003c4154b6a6820000000000000000000000000000000000000000000000000000000000000002000000000000000000000000000000000000000009b1028f68cee1251df376c1",
          "blockHash": "0x3ca05d1eb0ac85b4831146ca84847182e5959cb21ea449d9223c4a8d433e1a70",
          "blockNumber": "0x4594b0",
          "transactionHash": "0x1277ec4936c74b2d9dc8ffb82da4e1e32aa2c7f43fac8b2126e7824951d1bef8",
          "transactionIndex": "0x5",
          "logIndex": "0x3b",
          "removed": false
        },
        {
          "address": "0xf8Fb3713D459D7C1018BD0A49D19b4C44290EBE5",
          "topics": [
            "0x8c5be1e5ebec7d5bd14f71427d1e84f3dd0314c0f7b2291e5b200ac8c7c3b925",
            "0x00000000000000000000000025e30eb1ad42e7176b9711a169d1f2d135a88c2b",
            "0x0000000000000000000000006ae43d3271ff6888e7fc43fd7321a503ff738951"
          ],
          "data": "0x00000000000000000000000000000000000000000000000000003c4154b6a682",
          "blockHash": "0x3ca05d1eb0ac85b4831146ca84847182e5959cb21ea449d9223c4a8d433e1a70",
          "blockNumber": "0x4594b0",
          "transactionHash": "0x1277ec4936c74b2d9dc8ffb82da4e1e32aa2c7f43fac8b2126e7824951d1bef8",
          "transactionIndex": "0x5",
          "logIndex": "0x3c",
          "removed": false
        },
        {
          "address": "0x9844386d29EEd970B9F6a2B9a676083b0478210e",
          "topics": [
            "0xda919360433220e13b51e8c211e490d148e61a3bd53de8c097194e458b97f3e1",
            "0x000000000000000000000000c5e0b6e472dde70eceffa4c568bd52f2a7a1632a",
            "0x00000000000000000000000025e30eb1ad42e7176b9711a169d1f2d135a88c2b",
            "0x000000000000000000000000aa8e23fb1079ea71e0a56f48a2aa51851d8433d0"
          ],
          "data": "0x0000000000000000000000000000000000000000000000000000000006a0403c",
          "blockHash": "0x3ca05d1eb0ac85b4831146ca84847182e5959cb21ea449d9223c4a8d433e1a70",
          "blockNumber": "0x4594b0",
          "transactionHash": "0x1277ec4936c74b2d9dc8ffb82da4e1e32aa2c7f43fac8b2126e7824951d1bef8",
          "transactionIndex": "0x5",
          "logIndex": "0x3d",
          "removed": false
        },
        {
          "address": "0x9844386d29EEd970B9F6a2B9a676083b0478210e",
          "topics": [
            "0xddf252ad1be2c89b69c2b068fc378daa952ba7f163c4a11628f55a4df523b3ef",
            "0x0000000000000000000000000000000000000000000000000000000000000000",
            "0x000000000000000000000000c5e0b6e472dde70eceffa4c568bd52f2a7a1632a"
          ],
          "data": "0x0000000000000000000000000000000000000000000000000000000006609c6a",
          "blockHash": "0x3ca05d1eb0ac85b4831146ca84847182e5959cb21ea449d9223c4a8d433e1a70",
          "blockNumber": "0x4594b0",
          "transactionHash": "0x1277ec4936c74b2d9dc8ffb82da4e1e32aa2c7f43fac8b2126e7824951d1bef8",
          "transactionIndex": "0x5",
          "logIndex": "0x3e",
          "removed": false
        },
        {
          "address": "0x9844386d29EEd970B9F6a2B9a676083b0478210e",
          "topics": [
            "0x458f5fa412d0f69b08dd84872b0215675cc67bc1d5b6fd93300a1c3878b86196",
            "0x00000000000000000000000025e30eb1ad42e7176b9711a169d1f2d135a88c2b",
            "0x000000000000000000000000c5e0b6e472dde70eceffa4c568bd52f2a7a1632a"
          ],
          "data": "0x0000000000000000000000000000000000000000000000000000000006609c6a000000000000000000000000000000000000000000000000000000000000000000000000000000000000000000000000000000000344f9dbd626626d3c1cc2c8",
          "blockHash": "0x3ca05d1eb0ac85b4831146ca84847182e5959cb21ea449d9223c4a8d433e1a70",
          "blockNumber": "0x4594b0",
          "transactionHash": "0x1277ec4936c74b2d9dc8ffb82da4e1e32aa2c7f43fac8b2126e7824951d1bef8",
          "transactionIndex": "0x5",
          "logIndex": "0x3f",
          "removed": false
        },
        {
          "address": "0x6Ae43d3271ff6888e7Fc43Fd7321a503ff738951",
          "topics": [
            "0x804c9b842b2748a22bb64b345453a3de7ca54a6ca45ce00d415894979e22897a",
            "0x000000000000000000000000aa8e23fb1079ea71e0a56f48a2aa51851d8433d0"
          ],
          "data": "0x0000000000000000000000000000000000000000000027974adb0bab57ac33620000000000000000000000000000000000000000002986cf366595891bf4147c00000000000000000000000000000000000000000001572e400c78fd4fa0a3e300000000000000000000000000000000000000000342a8d8ec54b68f0fa6600f00000000000000000000000000000000000000000344f9dbd626626d3c1cc2c8",
          "blockHash": "0x3ca05d1eb0ac85b4831146ca84847182e5959cb21ea449d9223c4a8d433e1a70",
          "blockNumber": "0x4594b0",
          "transactionHash": "0x1277ec4936c74b2d9dc8ffb82da4e1e32aa2c7f43fac8b2126e7824951d1bef8",
          "transactionIndex": "0x5",
          "logIndex": "0x40",
          "removed": false
        },
        {
          "address": "0xaA8E23Fb1079EA71e0a56F48a2aA51851D8433D0",
          "topics": [
            "0xddf252ad1be2c89b69c2b068fc378daa952ba7f163c4a11628f55a4df523b3ef",
            "0x000000000000000000000000af0f6e8b0dc5c913bbf4d14c22b4e78dd14310b6",
            "0x00000000000000000000000025e30eb1ad42e7176b9711a169d1f2d135a88c2b"
          ],
          "data": "0x0000000000000000000000000000000000000000000000000000000006609c6a",
          "blockHash": "0x3ca05d1eb0ac85b4831146ca84847182e5959cb21ea449d9223c4a8d433e1a70",
          "blockNumber": "0x4594b0",
          "transactionHash": "0x1277ec4936c74b2d9dc8ffb82da4e1e32aa2c7f43fac8b2126e7824951d1bef8",
          "transactionIndex": "0x5",
          "logIndex": "0x41",
          "removed": false
        },
        {
          "address": "0x6Ae43d3271ff6888e7Fc43Fd7321a503ff738951",
          "topics": [
            "0xb3d084820fb1a9decffb176436bd02558d15fac9b0ddfed8c465bc7359d7dce0",
            "0x000000000000000000000000aa8e23fb1079ea71e0a56f48a2aa51851d8433d0",
            "0x000000000000000000000000c5e0b6e472dde70eceffa4c568bd52f2a7a1632a",
            "0x0000000000000000000000000000000000000000000000000000000000000000"
          ],
          "data": "0x00000000000000000000000025e30eb1ad42e7176b9711a169d1f2d135a88c2b0000000000000000000000000000000000000000000000000000000006609c6a000000000000000000000000000000000000000000000000000000000000000200000000000000000000000000000000000000000001572e400c78fd4fa0a3e3",
          "blockHash": "0x3ca05d1eb0ac85b4831146ca84847182e5959cb21ea449d9223c4a8d433e1a70",
          "blockNumber": "0x4594b0",
          "transactionHash": "0x1277ec4936c74b2d9dc8ffb82da4e1e32aa2c7f43fac8b2126e7824951d1bef8",
          "transactionIndex": "0x5",
          "logIndex": "0x42",
          "removed": false
        },
        {
          "address": "0xaA8E23Fb1079EA71e0a56F48a2aA51851D8433D0",
          "topics": [
            "0x8c5be1e5ebec7d5bd14f71427d1e84f3dd0314c0f7b2291e5b200ac8c7c3b925",
            "0x00000000000000000000000025e30eb1ad42e7176b9711a169d1f2d135a88c2b",
            "0x0000000000000000000000006ae43d3271ff6888e7fc43fd7321a503ff738951"
          ],
          "data": "0x0000000000000000000000000000000000000000000000000000000006609c6a",
          "blockHash": "0x3ca05d1eb0ac85b4831146ca84847182e5959cb21ea449d9223c4a8d433e1a70",
          "blockNumber": "0x4594b0",
          "transactionHash": "0x1277ec4936c74b2d9dc8ffb82da4e1e32aa2c7f43fac8b2126e7824951d1bef8",
          "transactionIndex": "0x5",
          "logIndex": "0x43",
          "removed": false
        },
        {
          "address": "0x6Ae43d3271ff6888e7Fc43Fd7321a503ff738951",
          "topics": [
            "0x804c9b842b2748a22bb64b345453a3de7ca54a6ca45ce00d415894979e22897a",
            "0x000000000000000000000000f8fb3713d459d7c1018bd0a49d19b4c44290ebe5"
          ],
          "data": "0x000000000000000000000000000000000000000007a71a32e13f519aa23c1906000000000000000000000000000000000000000009fb74cd222d9cfb330b9d17000000000000000000000000000000000000000009b1028f5b799170990b9d1700000000000000000000000000000000000000000361185fed2cd84c090393d80000000000000000000000000000000000000000036de49084fee2b549365c06",
          "blockHash": "0x3ca05d1eb0ac85b4831146ca84847182e5959cb21ea449d9223c4a8d433e1a70",
          "blockNumber": "0x4594b0",
          "transactionHash": "0x1277ec4936c74b2d9dc8ffb82da4e1e32aa2c7f43fac8b2126e7824951d1bef8",
          "transactionIndex": "0x5",
          "logIndex": "0x44",
          "removed": false
        },
        {
          "address": "0xf8Fb3713D459D7C1018BD0A49D19b4C44290EBE5",
          "topics": [
            "0xddf252ad1be2c89b69c2b068fc378daa952ba7f163c4a11628f55a4df523b3ef",
            "0x00000000000000000000000025e30eb1ad42e7176b9711a169d1f2d135a88c2b",
            "0x0000000000000000000000003ffaf50d4f4e96eb78f2407c090b72e86ecaed24"
          ],
          "data": "0x00000000000000000000000000000000000000000000000000003c4154b6a682",
          "blockHash": "0x3ca05d1eb0ac85b4831146ca84847182e5959cb21ea449d9223c4a8d433e1a70",
          "blockNumber": "0x4594b0",
          "transactionHash": "0x1277ec4936c74b2d9dc8ffb82da4e1e32aa2c7f43fac8b2126e7824951d1bef8",
          "transactionIndex": "0x5",
          "logIndex": "0x45",
          "removed": false
        },
        {
          "address": "0xf8Fb3713D459D7C1018BD0A49D19b4C44290EBE5",
          "topics": [
            "0x8c5be1e5ebec7d5bd14f71427d1e84f3dd0314c0f7b2291e5b200ac8c7c3b925",
            "0x00000000000000000000000025e30eb1ad42e7176b9711a169d1f2d135a88c2b",
            "0x0000000000000000000000006ae43d3271ff6888e7fc43fd7321a503ff738951"
          ],
          "data": "0x0000000000000000000000000000000000000000000000000000000000000000",
          "blockHash": "0x3ca05d1eb0ac85b4831146ca84847182e5959cb21ea449d9223c4a8d433e1a70",
          "blockNumber": "0x4594b0",
          "transactionHash": "0x1277ec4936c74b2d9dc8ffb82da4e1e32aa2c7f43fac8b2126e7824951d1bef8",
          "transactionIndex": "0x5",
          "logIndex": "0x46",
          "removed": false
        },
        {
          "address": "0x6Ae43d3271ff6888e7Fc43Fd7321a503ff738951",
          "topics": [
            "0xefefaba5e921573100900a3ad9cf29f222d995fb3b6045797eaea7521bd8d6f0",
            "0x00000000000000000000000025e30eb1ad42e7176b9711a169d1f2d135a88c2b",
            "0x000000000000000000000000f8fb3713d459d7c1018bd0a49d19b4c44290ebe5",
            "0x0000000000000000000000000000000000000000000000000000000000000000"
          ],
          "data": "0x00000000000000000000000025e30eb1ad42e7176b9711a169d1f2d135a88c2b00000000000000000000000000000000000000000000000000003c399f420269000000000000000000000000000000000000000000000000000000000000000000000000000000000000000000000000000000000000000000000007b574a419",
          "blockHash": "0x3ca05d1eb0ac85b4831146ca84847182e5959cb21ea449d9223c4a8d433e1a70",
          "blockNumber": "0x4594b0",
          "transactionHash": "0x1277ec4936c74b2d9dc8ffb82da4e1e32aa2c7f43fac8b2126e7824951d1bef8",
          "transactionIndex": "0x5",
          "logIndex": "0x47",
          "removed": false
        },
        {
          "address": "0x6Ae43d3271ff6888e7Fc43Fd7321a503ff738951",
          "topics": [
            "0x804c9b842b2748a22bb64b345453a3de7ca54a6ca45ce00d415894979e22897a",
            "0x000000000000000000000000aa8e23fb1079ea71e0a56f48a2aa51851d8433d0"
          ],
          "data": "0x00000000000000000000000000000000000000000000279742b7e03028b49c550000000000000000000000000000000000000000002986cf2f6891608f01f56300000000000000000000000000000000000000000001572e082457b8e80fab1a00000000000000000000000000000000000000000342a8d8fdb84f99c9127e3500000000000000000000000000000000000000000344f9dbd626626d3c1cc2c8",
          "blockHash": "0x3ca05d1eb0ac85b4831146ca84847182e5959cb21ea449d9223c4a8d433e1a70",
          "blockNumber": "0x4594b0",
          "transactionHash": "0x1277ec4936c74b2d9dc8ffb82da4e1e32aa2c7f43fac8b2126e7824951d1bef8",
          "transactionIndex": "0x5",
          "logIndex": "0x48",
          "removed": false
        },
        {
          "address": "0xaA8E23Fb1079EA71e0a56F48a2aA51851D8433D0",
          "topics": [
            "0xddf252ad1be2c89b69c2b068fc378daa952ba7f163c4a11628f55a4df523b3ef",
            "0x00000000000000000000000025e30eb1ad42e7176b9711a169d1f2d135a88c2b",
            "0x000000000000000000000000af0f6e8b0dc5c913bbf4d14c22b4e78dd14310b6"
          ],
          "data": "0x0000000000000000000000000000000000000000000000000000000006609c6a",
          "blockHash": "0x3ca05d1eb0ac85b4831146ca84847182e5959cb21ea449d9223c4a8d433e1a70",
          "blockNumber": "0x4594b0",
          "transactionHash": "0x1277ec4936c74b2d9dc8ffb82da4e1e32aa2c7f43fac8b2126e7824951d1bef8",
          "transactionIndex": "0x5",
          "logIndex": "0x49",
          "removed": false
        },
        {
          "address": "0xaA8E23Fb1079EA71e0a56F48a2aA51851D8433D0",
          "topics": [
            "0x8c5be1e5ebec7d5bd14f71427d1e84f3dd0314c0f7b2291e5b200ac8c7c3b925",
            "0x00000000000000000000000025e30eb1ad42e7176b9711a169d1f2d135a88c2b",
            "0x0000000000000000000000006ae43d3271ff6888e7fc43fd7321a503ff738951"
          ],
          "data": "0x0000000000000000000000000000000000000000000000000000000000000000",
          "blockHash": "0x3ca05d1eb0ac85b4831146ca84847182e5959cb21ea449d9223c4a8d433e1a70",
          "blockNumber": "0x4594b0",
          "transactionHash": "0x1277ec4936c74b2d9dc8ffb82da4e1e32aa2c7f43fac8b2126e7824951d1bef8",
          "transactionIndex": "0x5",
          "logIndex": "0x4a",
          "removed": false
        },
        {
          "address": "0x6Ae43d3271ff6888e7Fc43Fd7321a503ff738951",
          "topics": [
            "0xefefaba5e921573100900a3ad9cf29f222d995fb3b6045797eaea7521bd8d6f0",
            "0x00000000000000000000000025e30eb1ad42e7176b9711a169d1f2d135a88c2b",
            "0x000000000000000000000000aa8e23fb1079ea71e0a56f48a2aa51851d8433d0",
            "0x0000000000000000000000000000000000000000000000000000000000000000"
          ],
          "data": "0x00000000000000000000000025e30eb1ad42e7176b9711a169d1f2d135a88c2b00000000000000000000000000000000000000000000000000000000065fcb8b0000000000000000000000000000000000000000000000000000000000000000000000000000000000000000000000000000000000000000000000000000d0df",
          "blockHash": "0x3ca05d1eb0ac85b4831146ca84847182e5959cb21ea449d9223c4a8d433e1a70",
          "blockNumber": "0x4594b0",
          "transactionHash": "0x1277ec4936c74b2d9dc8ffb82da4e1e32aa2c7f43fac8b2126e7824951d1bef8",
          "transactionIndex": "0x5",
          "logIndex": "0x4b",
          "removed": false
        }
      ],
      "status": "0x1",
      "logsBloom": "0x10120000080008400280000000006800000000000000000002000000000100800000008040000000000100000004002100050000402000020000000000200000000000000001008080002008000000000000000000000000000000040000300004000000020020000000001080000c00004004000000000008000011401000002000008081040000004000000000000000200000080000000000000000000000020000000000020000000080800000000010208040104000020006000000010002008002000001100000002000080000004200100000060100000001000020040010100408000020000080004001000100010000000800000000000001040001",
      "type": "0x2",
      "effectiveGasPrice": "0x1a7ee4c6c"
    }
  ],
  "libraries": [],
  "pending": [],
  "returns": {},
  "timestamp": 1698239274,
  "chain": 11155111,
  "multi": false,
  "commit": "e33be9e"
}