{
  "transactions": [
    {
      "hash": "0xaed4a1e6b22f0308dc988371c2690e7a49129a1d763adb02248affa04c4ffe82",
      "transactionType": "CALL",
      "contractName": "InitializableImmutableAdminUpgradeabilityProxy",
      "contractAddress": "0x34a4d932E722b9dFb492B9D8131127690CE2430B",
      "function": "approveDelegation(address,uint256)",
      "arguments": [
        "0xA509C7ed1bc160dA25f746C36f6c14503bc91A1f",
        "134964055479998"
      ],
      "transaction": {
        "type": "0x02",
        "from": "0x3e122a3db43d225dd5bffd929ad4176ce69117e0",
        "to": "0x34a4d932e722b9dfb492b9d8131127690ce2430b",
        "gas": "0x12195",
        "value": "0x0",
        "data": "0xc04a8a10000000000000000000000000a509c7ed1bc160da25f746c36f6c14503bc91a1f00000000000000000000000000000000000000000000000000007abfc49596be",
        "nonce": "0x9c",
        "accessList": []
      },
      "additionalContracts": [],
      "isFixedGasLimit": false
    },
    {
      "hash": "0x4d3d44685d1d9b520828afecc75101ad7600bf36ab17df3279aa1ae0a86ae19b",
      "transactionType": "CALL",
      "contractName": "InitializableImmutableAdminUpgradeabilityProxy",
      "contractAddress": "0x9844386d29EEd970B9F6a2B9a676083b0478210e",
      "function": "approveDelegation(address,uint256)",
      "arguments": [
        "0xA509C7ed1bc160dA25f746C36f6c14503bc91A1f",
        "218051224"
      ],
      "transaction": {
        "type": "0x02",
        "from": "0x3e122a3db43d225dd5bffd929ad4176ce69117e0",
        "to": "0x9844386d29eed970b9f6a2b9a676083b0478210e",
        "gas": "0x12175",
        "value": "0x0",
        "data": "0xc04a8a10000000000000000000000000a509c7ed1bc160da25f746c36f6c14503bc91a1f000000000000000000000000000000000000000000000000000000000cff3298",
        "nonce": "0x9d",
        "accessList": []
      },
      "additionalContracts": [],
      "isFixedGasLimit": false
    },
    {
      "hash": "0xdfa299823f078935e4889a64fc6f9955d82874a011e72dd073273de94a2df11d",
      "transactionType": "CALL",
      "contractName": "InitializableImmutableAdminUpgradeabilityProxy",
      "contractAddress": "0x16dA4541aD1807f4443d92D26044C1147406EB80",
      "function": "approve(address,uint256):(bool)",
      "arguments": [
        "0xA509C7ed1bc160dA25f746C36f6c14503bc91A1f",
        "2034429720"
      ],
      "transaction": {
        "type": "0x02",
        "from": "0xc5e0b6e472dde70eceffa4c568bd52f2a7a1632a",
        "to": "0x16da4541ad1807f4443d92d26044c1147406eb80",
        "gas": "0x11439",
        "value": "0x0",
        "data": "0x095ea7b3000000000000000000000000a509c7ed1bc160da25f746c36f6c14503bc91a1f000000000000000000000000000000000000000000000000000000007942ef18",
        "nonce": "0x4a",
        "accessList": []
      },
      "additionalContracts": [],
      "isFixedGasLimit": false
    },
    {
      "hash": "0xfe4f50da77427dcdd606e20154b31cb8dc7cfd49a3eda2d2c0bfdf811ae6729d",
      "transactionType": "CALL",
      "contractName": "InitializableImmutableAdminUpgradeabilityProxy",
      "contractAddress": "0x1804Bf30507dc2EB3bDEbbbdd859991EAeF6EefF",
      "function": "approve(address,uint256):(bool)",
      "arguments": [
        "0xA509C7ed1bc160dA25f746C36f6c14503bc91A1f",
        "200000002"
      ],
      "transaction": {
        "type": "0x02",
        "from": "0xc5e0b6e472dde70eceffa4c568bd52f2a7a1632a",
        "to": "0x1804bf30507dc2eb3bdebbbdd859991eaef6eeff",
        "gas": "0x11439",
        "value": "0x0",
        "data": "0x095ea7b3000000000000000000000000a509c7ed1bc160da25f746c36f6c14503bc91a1f000000000000000000000000000000000000000000000000000000000bebc202",
        "nonce": "0x4b",
        "accessList": []
      },
      "additionalContracts": [],
      "isFixedGasLimit": false
    },
    {
      "hash": "0xc34e5993fda7472dfb5ab0c63d3c4ba6d40755df03d02c2653d41953035f51a2",
      "transactionType": "CALL",
      "contractName": "InitializableImmutableAdminUpgradeabilityProxy",
      "contractAddress": "0xAF0F6e8b0Dc5c913bbF4d14c22B4E78Dd14310B6",
      "function": "approve(address,uint256):(bool)",
      "arguments": [
        "0xA509C7ed1bc160dA25f746C36f6c14503bc91A1f",
        "4031762"
      ],
      "transaction": {
        "type": "0x02",
        "from": "0xc5e0b6e472dde70eceffa4c568bd52f2a7a1632a",
        "to": "0xaf0f6e8b0dc5c913bbf4d14c22b4e78dd14310b6",
        "gas": "0x11429",
        "value": "0x0",
        "data": "0x095ea7b3000000000000000000000000a509c7ed1bc160da25f746c36f6c14503bc91a1f00000000000000000000000000000000000000000000000000000000003d8512",
        "nonce": "0x4c",
        "accessList": []
      },
      "additionalContracts": [],
      "isFixedGasLimit": false
    },
    {
      "hash": "0xf6112d92374ac2a843be13696a501a9a5031c94fa008596236777d7ba048f424",
      "transactionType": "CALL",
      "contractName": "InitializableImmutableAdminUpgradeabilityProxy",
      "contractAddress": "0x6b8558764d3b7572136F17174Cb9aB1DDc7E1259",
      "function": "approve(address,uint256):(bool)",
      "arguments": [
        "0xA509C7ed1bc160dA25f746C36f6c14503bc91A1f",
        "200000000000000000000"
      ],
      "transaction": {
        "type": "0x02",
        "from": "0xc5e0b6e472dde70eceffa4c568bd52f2a7a1632a",
        "to": "0x6b8558764d3b7572136f17174cb9ab1ddc7e1259",
        "gas": "0x1146c",
        "value": "0x0",
        "data": "0x095ea7b3000000000000000000000000a509c7ed1bc160da25f746c36f6c14503bc91a1f00000000000000000000000000000000000000000000000ad78ebc5ac6200000",
        "nonce": "0x4d",
        "accessList": []
      },
      "additionalContracts": [],
      "isFixedGasLimit": false
    },
    {
      "hash": "0xdde51295488fa3b0c7826d20a81edd6f8927e46e14d0b1622ff8514d8fe17ca0",
      "transactionType": "CALL",
      "contractName": "InitializableImmutableAdminUpgradeabilityProxy",
      "contractAddress": "0x6Ae43d3271ff6888e7Fc43Fd7321a503ff738951",
      "function": "setUserUseReserveAsCollateral(address,bool)",
      "arguments": [
        "0x29f2D40B0605204364af54EC677bD022dA425d03",
        "true"
      ],
      "transaction": {
        "type": "0x02",
        "from": "0xc5e0b6e472dde70eceffa4c568bd52f2a7a1632a",
        "to": "0x6ae43d3271ff6888e7fc43fd7321a503ff738951",
        "gas": "0x22f77",
        "value": "0x0",
        "data": "0x5a3b74b900000000000000000000000029f2d40b0605204364af54ec677bd022da425d030000000000000000000000000000000000000000000000000000000000000001",
        "nonce": "0x4e",
        "accessList": []
      },
      "additionalContracts": [],
      "isFixedGasLimit": false
    },
    {
      "hash": "0xcb8bf5e393cb581ccb4068a6ba5061f81cc11d329956e898b5622e58da4aa17e",
      "transactionType": "CALL",
      "contractName": "InitializableImmutableAdminUpgradeabilityProxy",
      "contractAddress": "0x6Ae43d3271ff6888e7Fc43Fd7321a503ff738951",
      "function": "setUserUseReserveAsCollateral(address,bool)",
      "arguments": [
        "0x88541670E55cC00bEEFD87eB59EDd1b7C511AC9a",
        "true"
      ],
      "transaction": {
        "type": "0x02",
        "from": "0xc5e0b6e472dde70eceffa4c568bd52f2a7a1632a",
        "to": "0x6ae43d3271ff6888e7fc43fd7321a503ff738951",
        "gas": "0x22f77",
        "value": "0x0",
        "data": "0x5a3b74b900000000000000000000000088541670e55cc00beefd87eb59edd1b7c511ac9a0000000000000000000000000000000000000000000000000000000000000001",
        "nonce": "0x4f",
        "accessList": []
      },
      "additionalContracts": [],
      "isFixedGasLimit": false
    },
    {
      "hash": "0xabb3ed547aff5c09e371a29eb610151c7f0c905940bc2f829d3c83af6f4eac65",
      "transactionType": "CALL",
      "contractName": "InteractWithTeleportAaveV3",
      "contractAddress": "0x33F2D618C504d7860F3279F90e75279963fe9532",
      "function": "teleportAaveV3PositionsBetweenWallets(address,address)",
      "arguments": [
        "0xC5e0B6E472dDE70eCEfFa4c568Bd52f2A7a1632A",
        "0x3e122A3dB43d225DD5BFFD929AD4176ce69117E0"
      ],
      "transaction": {
        "type": "0x02",
        "from": "0xc5e0b6e472dde70eceffa4c568bd52f2a7a1632a",
        "to": "0x33f2d618c504d7860f3279f90e75279963fe9532",
        "gas": "0x216084",
        "value": "0x0",
        "data": "0xce88a576000000000000000000000000c5e0b6e472dde70eceffa4c568bd52f2a7a1632a0000000000000000000000003e122a3db43d225dd5bffd929ad4176ce69117e0",
        "nonce": "0x50",
        "accessList": []
      },
      "additionalContracts": [],
      "isFixedGasLimit": false
    }
  ],
  "receipts": [
    {
      "transactionHash": "0xaed4a1e6b22f0308dc988371c2690e7a49129a1d763adb02248affa04c4ffe82",
      "transactionIndex": "0x3",
      "blockHash": "0xd3f16880b889b1dfb2996841f1db16136f794c9dc3045b8bbcb4094d5ce3dd8e",
      "blockNumber": "0x459386",
      "from": "0x3e122A3dB43d225DD5BFFD929AD4176ce69117E0",
      "to": "0x34a4d932E722b9dFb492B9D8131127690CE2430B",
      "cumulativeGasUsed": "0x110ba0",
      "gasUsed": "0xd1a8",
      "contractAddress": null,
      "logs": [
        {
          "address": "0x34a4d932E722b9dFb492B9D8131127690CE2430B",
          "topics": [
            "0xda919360433220e13b51e8c211e490d148e61a3bd53de8c097194e458b97f3e1",
            "0x0000000000000000000000003e122a3db43d225dd5bffd929ad4176ce69117e0",
            "0x000000000000000000000000a509c7ed1bc160da25f746c36f6c14503bc91a1f",
            "0x000000000000000000000000f8fb3713d459d7c1018bd0a49d19b4c44290ebe5"
          ],
          "data": "0x00000000000000000000000000000000000000000000000000007abfc49596be",
          "blockHash": "0xd3f16880b889b1dfb2996841f1db16136f794c9dc3045b8bbcb4094d5ce3dd8e",
          "blockNumber": "0x459386",
          "transactionHash": "0xaed4a1e6b22f0308dc988371c2690e7a49129a1d763adb02248affa04c4ffe82",
          "transactionIndex": "0x3",
          "logIndex": "0x2",
          "removed": false
        }
      ],
      "status": "0x1",
      "logsBloom": "0x00020000080000000000000000000000000000000000000000000000000000000000000040000000000000000000000000000000000000000000000000000000000000000001000000000000000000000000000000000000000000004000100000000000000020000000000000000000000000000000000000000000000000000000000000040000000000000000000000000000000000000000000000000000000000000000020000000080800000000000000000000000000000000000000000000000000000000000000000000000004000000000000000000000000000000000000000000420000000000000000100000000000000000000000000000000",
      "type": "0x2",
      "effectiveGasPrice": "0xb9fdd42c"
    },
    {
      "transactionHash": "0x4d3d44685d1d9b520828afecc75101ad7600bf36ab17df3279aa1ae0a86ae19b",
      "transactionIndex": "0x1",
      "blockHash": "0xc5f1d162d556bf2b3fe6471a24eb5ec61446834a5b802742f9f76da5160dd01c",
      "blockNumber": "0x459387",
      "from": "0x3e122A3dB43d225DD5BFFD929AD4176ce69117E0",
      "to": "0x9844386d29EEd970B9F6a2B9a676083b0478210e",
      "cumulativeGasUsed": "0x58ab3",
      "gasUsed": "0xd190",
      "contractAddress": null,
      "logs": [
        {
          "address": "0x9844386d29EEd970B9F6a2B9a676083b0478210e",
          "topics": [
            "0xda919360433220e13b51e8c211e490d148e61a3bd53de8c097194e458b97f3e1",
            "0x0000000000000000000000003e122a3db43d225dd5bffd929ad4176ce69117e0",
            "0x000000000000000000000000a509c7ed1bc160da25f746c36f6c14503bc91a1f",
            "0x000000000000000000000000aa8e23fb1079ea71e0a56f48a2aa51851d8433d0"
          ],
          "data": "0x000000000000000000000000000000000000000000000000000000000cff3298",
          "blockHash": "0xc5f1d162d556bf2b3fe6471a24eb5ec61446834a5b802742f9f76da5160dd01c",
          "blockNumber": "0x459387",
          "transactionHash": "0x4d3d44685d1d9b520828afecc75101ad7600bf36ab17df3279aa1ae0a86ae19b",
          "transactionIndex": "0x1",
          "logIndex": "0x5",
          "removed": false
        }
      ],
      "status": "0x1",
      "logsBloom": "0x00000000080000000000000000000000000000000000000000000000000000000000000000000000000000000000000000000000000000000000000000000000000000000000000000000000000000000000000000000000000000004000100000000000000000000000000080000000000000000000000000000000000000000000000000040000000000000000000000000000000000000000000000000000000000000000000000000080800000000000000000000000020004000000000000000000000000000000000000000000000200100000000000000000000000000000000000000420000000000000000100010000000000000000000000000000",
      "type": "0x2",
      "effectiveGasPrice": "0xba0f85bc"
    },
    {
      "transactionHash": "0xdfa299823f078935e4889a64fc6f9955d82874a011e72dd073273de94a2df11d",
      "transactionIndex": "0x2",
      "blockHash": "0x07a0f44617976cd7c87b1d44d41a090bf52a5a6f1d654247af7458b9a10b4a4e",
      "blockNumber": "0x459388",
      "from": "0xC5e0B6E472dDE70eCEfFa4c568Bd52f2A7a1632A",
      "to": "0x16dA4541aD1807f4443d92D26044C1147406EB80",
      "cumulativeGasUsed": "0x3b661",
      "gasUsed": "0xc7fc",
      "contractAddress": null,
      "logs": [
        {
          "address": "0x16dA4541aD1807f4443d92D26044C1147406EB80",
          "topics": [
            "0x8c5be1e5ebec7d5bd14f71427d1e84f3dd0314c0f7b2291e5b200ac8c7c3b925",
            "0x000000000000000000000000c5e0b6e472dde70eceffa4c568bd52f2a7a1632a",
            "0x000000000000000000000000a509c7ed1bc160da25f746c36f6c14503bc91a1f"
          ],
          "data": "0x000000000000000000000000000000000000000000000000000000007942ef18",
          "blockHash": "0x07a0f44617976cd7c87b1d44d41a090bf52a5a6f1d654247af7458b9a10b4a4e",
          "blockNumber": "0x459388",
          "transactionHash": "0xdfa299823f078935e4889a64fc6f9955d82874a011e72dd073273de94a2df11d",
          "transactionIndex": "0x2",
          "logIndex": "0x2",
          "removed": false
        }
      ],
      "status": "0x1",
      "logsBloom": "0x00000000000000000200000000002000000000000000000000000000000000000000008000000000000000000000000000000000000000000000000000200000000000000000000000000000000000000000000000000000000000004000000000000000000000000000000000000000000000000000000000000001000000000000000000000000000000000000000000000000000000000000000000000000020000000000000000000000000000000000000040000000000000000000000000008000000000000000000000000000000000000000000000000000000000000010000000000420000000000000000000000000000000000000000000000000",
      "type": "0x2",
      "effectiveGasPrice": "0xba0d987f"
    },
    {
      "transactionHash": "0xfe4f50da77427dcdd606e20154b31cb8dc7cfd49a3eda2d2c0bfdf811ae6729d",
      "transactionIndex": "0x2",
      "blockHash": "0x72810a9cb2097b9024500f7b83e5845a49989ee505916b7c7ffa312a3838b05a",
      "blockNumber": "0x459389",
      "from": "0xC5e0B6E472dDE70eCEfFa4c568Bd52f2A7a1632A",
      "to": "0x1804Bf30507dc2EB3bDEbbbdd859991EAeF6EefF",
      "cumulativeGasUsed": "0xe20ff",
      "gasUsed": "0xc7fc",
      "contractAddress": null,
      "logs": [
        {
          "address": "0x1804Bf30507dc2EB3bDEbbbdd859991EAeF6EefF",
          "topics": [
            "0x8c5be1e5ebec7d5bd14f71427d1e84f3dd0314c0f7b2291e5b200ac8c7c3b925",
            "0x000000000000000000000000c5e0b6e472dde70eceffa4c568bd52f2a7a1632a",
            "0x000000000000000000000000a509c7ed1bc160da25f746c36f6c14503bc91a1f"
          ],
          "data": "0x000000000000000000000000000000000000000000000000000000000bebc202",
          "blockHash": "0x72810a9cb2097b9024500f7b83e5845a49989ee505916b7c7ffa312a3838b05a",
          "blockNumber": "0x459389",
          "transactionHash": "0xfe4f50da77427dcdd606e20154b31cb8dc7cfd49a3eda2d2c0bfdf811ae6729d",
          "transactionIndex": "0x2",
          "logIndex": "0x6",
          "removed": false
        }
      ],
      "status": "0x1",
      "logsBloom": "0x00000000000000000000000000002000000000000000000000000000000000000000000000000000000000000000000000000000000000000000000000200000000000000000000000000000000000000000000000000000000000004000000000000000000000000000000000000000000000000000000000000001000000000000000000000000000000000000000000000000000000000000000000000000020000000000000000000000000000000000000040004000000002000000000000000000000000000000000000000000000000000000000000000000000000000010000008000420000000000000000000000000000000000000000000000000",
      "type": "0x2",
      "effectiveGasPrice": "0xb9f235c2"
    },
    {
      "transactionHash": "0xc34e5993fda7472dfb5ab0c63d3c4ba6d40755df03d02c2653d41953035f51a2",
      "transactionIndex": "0x2",
      "blockHash": "0xaca3b7c9ee18695779e1fbea80c538c7867f83b0a1448f9c13304778763072f7",
      "blockNumber": "0x45938a",
      "from": "0xC5e0B6E472dDE70eCEfFa4c568Bd52f2A7a1632A",
      "to": "0xAF0F6e8b0Dc5c913bbF4d14c22B4E78Dd14310B6",
      "cumulativeGasUsed": "0x66818",
      "gasUsed": "0xc7f0",
      "contractAddress": null,
      "logs": [
        {
          "address": "0xAF0F6e8b0Dc5c913bbF4d14c22B4E78Dd14310B6",
          "topics": [
            "0x8c5be1e5ebec7d5bd14f71427d1e84f3dd0314c0f7b2291e5b200ac8c7c3b925",
            "0x000000000000000000000000c5e0b6e472dde70eceffa4c568bd52f2a7a1632a",
            "0x000000000000000000000000a509c7ed1bc160da25f746c36f6c14503bc91a1f"
          ],
          "data": "0x00000000000000000000000000000000000000000000000000000000003d8512",
          "blockHash": "0xaca3b7c9ee18695779e1fbea80c538c7867f83b0a1448f9c13304778763072f7",
          "blockNumber": "0x45938a",
          "transactionHash": "0xc34e5993fda7472dfb5ab0c63d3c4ba6d40755df03d02c2653d41953035f51a2",
          "transactionIndex": "0x2",
          "logIndex": "0x3",
          "removed": false
        }
      ],
      "status": "0x1",
      "logsBloom": "0x00000000000000000000000000002000000000000000000000000000000000000000000000000000000000000000000000000000000000000000000000200000000000000000000000000000000000000000000000000000000000004000000000000000000000000000000000000000000000000000000000000001000000000000000000000000000000000000000000000000000000000000000000000000020000000000000000000000000000000000008040000000000000000000000000000000000000000000000000080000000000000000000000000001000000000010000000000420000000000000000000000000000000000000000000000000",
      "type": "0x2",
      "effectiveGasPrice": "0xb9e29c82"
    },
    {
      "transactionHash": "0xf6112d92374ac2a843be13696a501a9a5031c94fa008596236777d7ba048f424",
      "transactionIndex": "0x6",
      "blockHash": "0x0f364347822236169158aed39fd5543d64ddef9b8eb9b4bacb238db6494e55fc",
      "blockNumber": "0x45938b",
      "from": "0xC5e0B6E472dDE70eCEfFa4c568Bd52f2A7a1632A",
      "to": "0x6b8558764d3b7572136F17174Cb9aB1DDc7E1259",
      "cumulativeGasUsed": "0x24e4c0",
      "gasUsed": "0xc820",
      "contractAddress": null,
      "logs": [
        {
          "address": "0x6b8558764d3b7572136F17174Cb9aB1DDc7E1259",
          "topics": [
            "0x8c5be1e5ebec7d5bd14f71427d1e84f3dd0314c0f7b2291e5b200ac8c7c3b925",
            "0x000000000000000000000000c5e0b6e472dde70eceffa4c568bd52f2a7a1632a",
            "0x000000000000000000000000a509c7ed1bc160da25f746c36f6c14503bc91a1f"
          ],
          "data": "0x00000000000000000000000000000000000000000000000ad78ebc5ac6200000",
          "blockHash": "0x0f364347822236169158aed39fd5543d64ddef9b8eb9b4bacb238db6494e55fc",
          "blockNumber": "0x45938b",
          "transactionHash": "0xf6112d92374ac2a843be13696a501a9a5031c94fa008596236777d7ba048f424",
          "transactionIndex": "0x6",
          "logIndex": "0x10",
          "removed": false
        }
      ],
      "status": "0x1",
      "logsBloom": "0x00000000000000000000000000002800000000000000000000000000000000000000000000000000000000000000000000000000000000000000000000200000000000000000000000002000000000000000000000000000000000004000000000000000000000000000000000000000000000000000000000000001000000000000000000000000000000000000000000000000000000000000000000000000020000000000000000000000000000000000000040000000000000000000000000000000000000000000000000000000000000000000000000000000000000000010000400000420000000000000000000000000000000000000000000000000",
      "type": "0x2",
      "effectiveGasPrice": "0xb9b0dcb6"
    },
    {
      "transactionHash": "0xdde51295488fa3b0c7826d20a81edd6f8927e46e14d0b1622ff8514d8fe17ca0",
      "transactionIndex": "0x7",
      "blockHash": "0x89122e3da71be91781bdc61bffb3e5aa7bef07df868c606ddef2c78bdfe6ca93",
      "blockNumber": "0x45938c",
      "from": "0xC5e0B6E472dDE70eCEfFa4c568Bd52f2A7a1632A",
      "to": "0x6Ae43d3271ff6888e7Fc43Fd7321a503ff738951",
      "cumulativeGasUsed": "0x299546",
      "gasUsed": "0x17e8b",
      "contractAddress": null,
      "logs": [],
      "status": "0x1",
      "logsBloom": "0x00000000000000000000000000000000000000000000000000000000000000000000000000000000000000000000000000000000000000000000000000000000000000000000000000000000000000000000000000000000000000000000000000000000000000000000000000000000000000000000000000000000000000000000000000000000000000000000000000000000000000000000000000000000000000000000000000000000000000000000000000000000000000000000000000000000000000000000000000000000000000000000000000000000000000000000000000000000000000000000000000000000000000000000000000000000",
      "type": "0x2",
      "effectiveGasPrice": "0xba85f659"
    },
    {
      "transactionHash": "0xcb8bf5e393cb581ccb4068a6ba5061f81cc11d329956e898b5622e58da4aa17e",
      "transactionIndex": "0x3",
      "blockHash": "0x26ad5c50d0081f914d1d5e0ddfebfb84b5772f314c538bd2d4f70d2a0ab0e346",
      "blockNumber": "0x45938d",
      "from": "0xC5e0B6E472dDE70eCEfFa4c568Bd52f2A7a1632A",
      "to": "0x6Ae43d3271ff6888e7Fc43Fd7321a503ff738951",
      "cumulativeGasUsed": "0xd477e",
      "gasUsed": "0x17e8b",
      "contractAddress": null,
      "logs": [],
      "status": "0x1",
      "logsBloom": "0x00000000000000000000000000000000000000000000000000000000000000000000000000000000000000000000000000000000000000000000000000000000000000000000000000000000000000000000000000000000000000000000000000000000000000000000000000000000000000000000000000000000000000000000000000000000000000000000000000000000000000000000000000000000000000000000000000000000000000000000000000000000000000000000000000000000000000000000000000000000000000000000000000000000000000000000000000000000000000000000000000000000000000000000000000000000",
      "type": "0x2",
      "effectiveGasPrice": "0xbb229538"
    },
    {
      "transactionHash": "0xabb3ed547aff5c09e371a29eb610151c7f0c905940bc2f829d3c83af6f4eac65",
      "transactionIndex": "0x2",
      "blockHash": "0x90ec3a8db7999503e08eedae5d007eb536e73d884d5c7ae6619c96ffb885801f",
      "blockNumber": "0x45938e",
      "from": "0xC5e0B6E472dDE70eCEfFa4c568Bd52f2A7a1632A",
      "to": "0x33F2D618C504d7860F3279F90e75279963fe9532",
      "cumulativeGasUsed": "0x1c0994",
      "gasUsed": "0x182a14",
      "contractAddress": null,
      "logs": [
        {
          "address": "0xf8Fb3713D459D7C1018BD0A49D19b4C44290EBE5",
          "topics": [
            "0xddf252ad1be2c89b69c2b068fc378daa952ba7f163c4a11628f55a4df523b3ef",
            "0x0000000000000000000000003ffaf50d4f4e96eb78f2407c090b72e86ecaed24",
            "0x000000000000000000000000a509c7ed1bc160da25f746c36f6c14503bc91a1f"
          ],
          "data": "0x00000000000000000000000000000000000000000000000000003c2c0dcdf9bd",
          "blockHash": "0x90ec3a8db7999503e08eedae5d007eb536e73d884d5c7ae6619c96ffb885801f",
          "blockNumber": "0x45938e",
          "transactionHash": "0xabb3ed547aff5c09e371a29eb610151c7f0c905940bc2f829d3c83af6f4eac65",
          "transactionIndex": "0x2",
          "logIndex": "0x5",
          "removed": false
        },
        {
          "address": "0xaA8E23Fb1079EA71e0a56F48a2aA51851D8433D0",
          "topics": [
            "0xddf252ad1be2c89b69c2b068fc378daa952ba7f163c4a11628f55a4df523b3ef",
            "0x000000000000000000000000af0f6e8b0dc5c913bbf4d14c22b4e78dd14310b6",
            "0x000000000000000000000000a509c7ed1bc160da25f746c36f6c14503bc91a1f"
          ],
          "data": "0x00000000000000000000000000000000000000000000000000000000065efab0",
          "blockHash": "0x90ec3a8db7999503e08eedae5d007eb536e73d884d5c7ae6619c96ffb885801f",
          "blockNumber": "0x45938e",
          "transactionHash": "0xabb3ed547aff5c09e371a29eb610151c7f0c905940bc2f829d3c83af6f4eac65",
          "transactionIndex": "0x2",
          "logIndex": "0x6",
          "removed": false
        },
        {
          "address": "0xf8Fb3713D459D7C1018BD0A49D19b4C44290EBE5",
          "topics": [
            "0x8c5be1e5ebec7d5bd14f71427d1e84f3dd0314c0f7b2291e5b200ac8c7c3b925",
            "0x000000000000000000000000a509c7ed1bc160da25f746c36f6c14503bc91a1f",
            "0x0000000000000000000000006ae43d3271ff6888e7fc43fd7321a503ff738951"
          ],
          "data": "0x00000000000000000000000000000000000000000000000000003c2c0dcdf9bd",
          "blockHash": "0x90ec3a8db7999503e08eedae5d007eb536e73d884d5c7ae6619c96ffb885801f",
          "blockNumber": "0x45938e",
          "transactionHash": "0xabb3ed547aff5c09e371a29eb610151c7f0c905940bc2f829d3c83af6f4eac65",
          "transactionIndex": "0x2",
          "logIndex": "0x7",
          "removed": false
        },
        {
          "address": "0x34a4d932E722b9dFb492B9D8131127690CE2430B",
          "topics": [
            "0xddf252ad1be2c89b69c2b068fc378daa952ba7f163c4a11628f55a4df523b3ef",
            "0x000000000000000000000000c5e0b6e472dde70eceffa4c568bd52f2a7a1632a",
            "0x0000000000000000000000000000000000000000000000000000000000000000"
          ],
          "data": "0x00000000000000000000000000000000000000000000000000003c25fab9043b",
          "blockHash": "0x90ec3a8db7999503e08eedae5d007eb536e73d884d5c7ae6619c96ffb885801f",
          "blockNumber": "0x45938e",
          "transactionHash": "0xabb3ed547aff5c09e371a29eb610151c7f0c905940bc2f829d3c83af6f4eac65",
          "transactionIndex": "0x2",
          "logIndex": "0x8",
          "removed": false
        },
        {
          "address": "0x34a4d932E722b9dFb492B9D8131127690CE2430B",
          "topics": [
            "0x4cf25bc1d991c17529c25213d3cc0cda295eeaad5f13f361969b12ea48015f90",
            "0x000000000000000000000000c5e0b6e472dde70eceffa4c568bd52f2a7a1632a",
            "0x0000000000000000000000000000000000000000000000000000000000000000"
          ],
          "data": "0x00000000000000000000000000000000000000000000000000003c25fab9043b000000000000000000000000000000000000000000000000000000061314f5820000000000000000000000000000000000000000036d8f0df19111da73ca6f8b",
          "blockHash": "0x90ec3a8db7999503e08eedae5d007eb536e73d884d5c7ae6619c96ffb885801f",
          "blockNumber": "0x45938e",
          "transactionHash": "0xabb3ed547aff5c09e371a29eb610151c7f0c905940bc2f829d3c83af6f4eac65",
          "transactionIndex": "0x2",
          "logIndex": "0x9",
          "removed": false
        },
        {
          "address": "0x6Ae43d3271ff6888e7Fc43Fd7321a503ff738951",
          "topics": [
            "0x804c9b842b2748a22bb64b345453a3de7ca54a6ca45ce00d415894979e22897a",
            "0x000000000000000000000000f8fb3713d459d7c1018bd0a49d19b4c44290ebe5"
          ],
          "data": "0x000000000000000000000000000000000000000007a712e58b5cfc27faf139cc000000000000000000000000000000000000000009fb6edcc7deab5bcae2cacc000000000000000000000000000000000000000009b0fc9f012a9fd130e2cacc00000000000000000000000000000000000000000360d5e6632d68f055e76df60000000000000000000000000000000000000000036d8f0df19111da73ca6f8b",
          "blockHash": "0x90ec3a8db7999503e08eedae5d007eb536e73d884d5c7ae6619c96ffb885801f",
          "blockNumber": "0x45938e",
          "transactionHash": "0xabb3ed547aff5c09e371a29eb610151c7f0c905940bc2f829d3c83af6f4eac65",
          "transactionIndex": "0x2",
          "logIndex": "0xa",
          "removed": false
        },
        {
          "address": "0xf8Fb3713D459D7C1018BD0A49D19b4C44290EBE5",
          "topics": [
            "0xddf252ad1be2c89b69c2b068fc378daa952ba7f163c4a11628f55a4df523b3ef",
            "0x000000000000000000000000a509c7ed1bc160da25f746c36f6c14503bc91a1f",
            "0x0000000000000000000000003ffaf50d4f4e96eb78f2407c090b72e86ecaed24"
          ],
          "data": "0x00000000000000000000000000000000000000000000000000003c2c0dcdf9bd",
          "blockHash": "0x90ec3a8db7999503e08eedae5d007eb536e73d884d5c7ae6619c96ffb885801f",
          "blockNumber": "0x45938e",
          "transactionHash": "0xabb3ed547aff5c09e371a29eb610151c7f0c905940bc2f829d3c83af6f4eac65",
          "transactionIndex": "0x2",
          "logIndex": "0xb",
          "removed": false
        },
        {
          "address": "0xf8Fb3713D459D7C1018BD0A49D19b4C44290EBE5",
          "topics": [
            "0x8c5be1e5ebec7d5bd14f71427d1e84f3dd0314c0f7b2291e5b200ac8c7c3b925",
            "0x000000000000000000000000a509c7ed1bc160da25f746c36f6c14503bc91a1f",
            "0x0000000000000000000000006ae43d3271ff6888e7fc43fd7321a503ff738951"
          ],
          "data": "0x0000000000000000000000000000000000000000000000000000000000000000",
          "blockHash": "0x90ec3a8db7999503e08eedae5d007eb536e73d884d5c7ae6619c96ffb885801f",
          "blockNumber": "0x45938e",
          "transactionHash": "0xabb3ed547aff5c09e371a29eb610151c7f0c905940bc2f829d3c83af6f4eac65",
          "transactionIndex": "0x2",
          "logIndex": "0xc",
          "removed": false
        },
        {
          "address": "0x6Ae43d3271ff6888e7Fc43Fd7321a503ff738951",
          "topics": [
            "0xa534c8dbe71f871f9f3530e97a74601fea17b426cae02e1c5aee42c96c784051",
            "0x000000000000000000000000f8fb3713d459d7c1018bd0a49d19b4c44290ebe5",
            "0x000000000000000000000000c5e0b6e472dde70eceffa4c568bd52f2a7a1632a",
            "0x000000000000000000000000a509c7ed1bc160da25f746c36f6c14503bc91a1f"
          ],
          "data": "0x00000000000000000000000000000000000000000000000000003c2c0dcdf9bd0000000000000000000000000000000000000000000000000000000000000000",
          "blockHash": "0x90ec3a8db7999503e08eedae5d007eb536e73d884d5c7ae6619c96ffb885801f",
          "blockNumber": "0x45938e",
          "transactionHash": "0xabb3ed547aff5c09e371a29eb610151c7f0c905940bc2f829d3c83af6f4eac65",
          "transactionIndex": "0x2",
          "logIndex": "0xd",
          "removed": false
        },
        {
          "address": "0x34a4d932E722b9dFb492B9D8131127690CE2430B",
          "topics": [
            "0xda919360433220e13b51e8c211e490d148e61a3bd53de8c097194e458b97f3e1",
            "0x0000000000000000000000003e122a3db43d225dd5bffd929ad4176ce69117e0",
            "0x000000000000000000000000a509c7ed1bc160da25f746c36f6c14503bc91a1f",
            "0x000000000000000000000000f8fb3713d459d7c1018bd0a49d19b4c44290ebe5"
          ],
          "data": "0x00000000000000000000000000000000000000000000000000003e8c030f9306",
          "blockHash": "0x90ec3a8db7999503e08eedae5d007eb536e73d884d5c7ae6619c96ffb885801f",
          "blockNumber": "0x45938e",
          "transactionHash": "0xabb3ed547aff5c09e371a29eb610151c7f0c905940bc2f829d3c83af6f4eac65",
          "transactionIndex": "0x2",
          "logIndex": "0xe",
          "removed": false
        },
        {
          "address": "0x34a4d932E722b9dFb492B9D8131127690CE2430B",
          "topics": [
            "0xddf252ad1be2c89b69c2b068fc378daa952ba7f163c4a11628f55a4df523b3ef",
            "0x0000000000000000000000000000000000000000000000000000000000000000",
            "0x0000000000000000000000003e122a3db43d225dd5bffd929ad4176ce69117e0"
          ],
          "data": "0x00000000000000000000000000000000000000000000000000003c33c18603b8",
          "blockHash": "0x90ec3a8db7999503e08eedae5d007eb536e73d884d5c7ae6619c96ffb885801f",
          "blockNumber": "0x45938e",
          "transactionHash": "0xabb3ed547aff5c09e371a29eb610151c7f0c905940bc2f829d3c83af6f4eac65",
          "transactionIndex": "0x2",
          "logIndex": "0xf",
          "removed": false
        },
        {
          "address": "0x34a4d932E722b9dFb492B9D8131127690CE2430B",
          "topics": [
            "0x458f5fa412d0f69b08dd84872b0215675cc67bc1d5b6fd93300a1c3878b86196",
            "0x000000000000000000000000a509c7ed1bc160da25f746c36f6c14503bc91a1f",
            "0x0000000000000000000000003e122a3db43d225dd5bffd929ad4176ce69117e0"
          ],
          "data": "0x00000000000000000000000000000000000000000000000000003c33c18603b800000000000000000000000000000000000000000000000000000000000000000000000000000000000000000000000000000000036d8f0df19111da73ca6f8b",
          "blockHash": "0x90ec3a8db7999503e08eedae5d007eb536e73d884d5c7ae6619c96ffb885801f",
          "blockNumber": "0x45938e",
          "transactionHash": "0xabb3ed547aff5c09e371a29eb610151c7f0c905940bc2f829d3c83af6f4eac65",
          "transactionIndex": "0x2",
          "logIndex": "0x10",
          "removed": false
        },
        {
          "address": "0x6Ae43d3271ff6888e7Fc43Fd7321a503ff738951",
          "topics": [
            "0x804c9b842b2748a22bb64b345453a3de7ca54a6ca45ce00d415894979e22897a",
            "0x000000000000000000000000f8fb3713d459d7c1018bd0a49d19b4c44290ebe5"
          ],
          "data": "0x000000000000000000000000000000000000000007a712e59bf6b211fdb7ed02000000000000000000000000000000000000000009fb6edcd55f05650881fd08000000000000000000000000000000000000000009b0fc9f0eaaf9da6e81fd0800000000000000000000000000000000000000000360d5e6632d68f055e76df60000000000000000000000000000000000000000036d8f0df19111da73ca6f8b",
          "blockHash": "0x90ec3a8db7999503e08eedae5d007eb536e73d884d5c7ae6619c96ffb885801f",
          "blockNumber": "0x45938e",
          "transactionHash": "0xabb3ed547aff5c09e371a29eb610151c7f0c905940bc2f829d3c83af6f4eac65",
          "transactionIndex": "0x2",
          "logIndex": "0x11",
          "removed": false
        },
        {
          "address": "0xf8Fb3713D459D7C1018BD0A49D19b4C44290EBE5",
          "topics": [
            "0xddf252ad1be2c89b69c2b068fc378daa952ba7f163c4a11628f55a4df523b3ef",
            "0x0000000000000000000000003ffaf50d4f4e96eb78f2407c090b72e86ecaed24",
            "0x000000000000000000000000a509c7ed1bc160da25f746c36f6c14503bc91a1f"
          ],
          "data": "0x00000000000000000000000000000000000000000000000000003c33c18603b8",
          "blockHash": "0x90ec3a8db7999503e08eedae5d007eb536e73d884d5c7ae6619c96ffb885801f",
          "blockNumber": "0x45938e",
          "transactionHash": "0xabb3ed547aff5c09e371a29eb610151c7f0c905940bc2f829d3c83af6f4eac65",
          "transactionIndex": "0x2",
          "logIndex": "0x12",
          "removed": false
        },
        {
          "address": "0x6Ae43d3271ff6888e7Fc43Fd7321a503ff738951",
          "topics": [
            "0xb3d084820fb1a9decffb176436bd02558d15fac9b0ddfed8c465bc7359d7dce0",
            "0x000000000000000000000000f8fb3713d459d7c1018bd0a49d19b4c44290ebe5",
            "0x0000000000000000000000003e122a3db43d225dd5bffd929ad4176ce69117e0",
            "0x0000000000000000000000000000000000000000000000000000000000000000"
          ],
          "data": "0x000000000000000000000000a509c7ed1bc160da25f746c36f6c14503bc91a1f00000000000000000000000000000000000000000000000000003c33c18603b80000000000000000000000000000000000000000000000000000000000000002000000000000000000000000000000000000000009b0fc9f0eaaf9da6e81fd08",
          "blockHash": "0x90ec3a8db7999503e08eedae5d007eb536e73d884d5c7ae6619c96ffb885801f",
          "blockNumber": "0x45938e",
          "transactionHash": "0xabb3ed547aff5c09e371a29eb610151c7f0c905940bc2f829d3c83af6f4eac65",
          "transactionIndex": "0x2",
          "logIndex": "0x13",
          "removed": false
        },
        {
          "address": "0xf8Fb3713D459D7C1018BD0A49D19b4C44290EBE5",
          "topics": [
            "0x8c5be1e5ebec7d5bd14f71427d1e84f3dd0314c0f7b2291e5b200ac8c7c3b925",
            "0x000000000000000000000000a509c7ed1bc160da25f746c36f6c14503bc91a1f",
            "0x0000000000000000000000006ae43d3271ff6888e7fc43fd7321a503ff738951"
          ],
          "data": "0x00000000000000000000000000000000000000000000000000003c33c18603b8",
          "blockHash": "0x90ec3a8db7999503e08eedae5d007eb536e73d884d5c7ae6619c96ffb885801f",
          "blockNumber": "0x45938e",
          "transactionHash": "0xabb3ed547aff5c09e371a29eb610151c7f0c905940bc2f829d3c83af6f4eac65",
          "transactionIndex": "0x2",
          "logIndex": "0x14",
          "removed": false
        },
        {
          "address": "0xaA8E23Fb1079EA71e0a56F48a2aA51851D8433D0",
          "topics": [
            "0x8c5be1e5ebec7d5bd14f71427d1e84f3dd0314c0f7b2291e5b200ac8c7c3b925",
            "0x000000000000000000000000a509c7ed1bc160da25f746c36f6c14503bc91a1f",
            "0x0000000000000000000000006ae43d3271ff6888e7fc43fd7321a503ff738951"
          ],
          "data": "0x00000000000000000000000000000000000000000000000000000000065efab0",
          "blockHash": "0x90ec3a8db7999503e08eedae5d007eb536e73d884d5c7ae6619c96ffb885801f",
          "blockNumber": "0x45938e",
          "transactionHash": "0xabb3ed547aff5c09e371a29eb610151c7f0c905940bc2f829d3c83af6f4eac65",
          "transactionIndex": "0x2",
          "logIndex": "0x15",
          "removed": false
        },
        {
          "address": "0x9844386d29EEd970B9F6a2B9a676083b0478210e",
          "topics": [
            "0xddf252ad1be2c89b69c2b068fc378daa952ba7f163c4a11628f55a4df523b3ef",
            "0x000000000000000000000000c5e0b6e472dde70eceffa4c568bd52f2a7a1632a",
            "0x0000000000000000000000000000000000000000000000000000000000000000"
          ],
          "data": "0x00000000000000000000000000000000000000000000000000000000065efa99",
          "blockHash": "0x90ec3a8db7999503e08eedae5d007eb536e73d884d5c7ae6619c96ffb885801f",
          "blockNumber": "0x45938e",
          "transactionHash": "0xabb3ed547aff5c09e371a29eb610151c7f0c905940bc2f829d3c83af6f4eac65",
          "transactionIndex": "0x2",
          "logIndex": "0x16",
          "removed": false
        },
        {
          "address": "0x9844386d29EEd970B9F6a2B9a676083b0478210e",
          "topics": [
            "0x4cf25bc1d991c17529c25213d3cc0cda295eeaad5f13f361969b12ea48015f90",
            "0x000000000000000000000000c5e0b6e472dde70eceffa4c568bd52f2a7a1632a",
            "0x0000000000000000000000000000000000000000000000000000000000000000"
          ],
          "data": "0x00000000000000000000000000000000000000000000000000000000065efa99000000000000000000000000000000000000000000000000000000000000001700000000000000000000000000000000000000000344f9d0899c578d02669ff9",
          "blockHash": "0x90ec3a8db7999503e08eedae5d007eb536e73d884d5c7ae6619c96ffb885801f",
          "blockNumber": "0x45938e",
          "transactionHash": "0xabb3ed547aff5c09e371a29eb610151c7f0c905940bc2f829d3c83af6f4eac65",
          "transactionIndex": "0x2",
          "logIndex": "0x17",
          "removed": false
        },
        {
          "address": "0x6Ae43d3271ff6888e7Fc43Fd7321a503ff738951",
          "topics": [
            "0x804c9b842b2748a22bb64b345453a3de7ca54a6ca45ce00d415894979e22897a",
            "0x000000000000000000000000aa8e23fb1079ea71e0a56f48a2aa51851d8433d0"
          ],
          "data": "0x000000000000000000000000000000000000000000002799d5a4037c8fa5d49f0000000000000000000000000000000000000000002986d1020a93d16799c46700000000000000000000000000000000000000000001573c9d346b3facce233200000000000000000000000000000000000000000342a8d78e2a4df8d278150800000000000000000000000000000000000000000344f9d0899c578d02669ff9",
          "blockHash": "0x90ec3a8db7999503e08eedae5d007eb536e73d884d5c7ae6619c96ffb885801f",
          "blockNumber": "0x45938e",
          "transactionHash": "0xabb3ed547aff5c09e371a29eb610151c7f0c905940bc2f829d3c83af6f4eac65",
          "transactionIndex": "0x2",
          "logIndex": "0x18",
          "removed": false
        },
        {
          "address": "0xaA8E23Fb1079EA71e0a56F48a2aA51851D8433D0",
          "topics": [
            "0xddf252ad1be2c89b69c2b068fc378daa952ba7f163c4a11628f55a4df523b3ef",
            "0x000000000000000000000000a509c7ed1bc160da25f746c36f6c14503bc91a1f",
            "0x000000000000000000000000af0f6e8b0dc5c913bbf4d14c22b4e78dd14310b6"
          ],
          "data": "0x00000000000000000000000000000000000000000000000000000000065efab0",
          "blockHash": "0x90ec3a8db7999503e08eedae5d007eb536e73d884d5c7ae6619c96ffb885801f",
          "blockNumber": "0x45938e",
          "transactionHash": "0xabb3ed547aff5c09e371a29eb610151c7f0c905940bc2f829d3c83af6f4eac65",
          "transactionIndex": "0x2",
          "logIndex": "0x19",
          "removed": false
        },
        {
          "address": "0xaA8E23Fb1079EA71e0a56F48a2aA51851D8433D0",
          "topics": [
            "0x8c5be1e5ebec7d5bd14f71427d1e84f3dd0314c0f7b2291e5b200ac8c7c3b925",
            "0x000000000000000000000000a509c7ed1bc160da25f746c36f6c14503bc91a1f",
            "0x0000000000000000000000006ae43d3271ff6888e7fc43fd7321a503ff738951"
          ],
          "data": "0x0000000000000000000000000000000000000000000000000000000000000000",
          "blockHash": "0x90ec3a8db7999503e08eedae5d007eb536e73d884d5c7ae6619c96ffb885801f",
          "blockNumber": "0x45938e",
          "transactionHash": "0xabb3ed547aff5c09e371a29eb610151c7f0c905940bc2f829d3c83af6f4eac65",
          "transactionIndex": "0x2",
          "logIndex": "0x1a",
          "removed": false
        },
        {
          "address": "0x6Ae43d3271ff6888e7Fc43Fd7321a503ff738951",
          "topics": [
            "0xa534c8dbe71f871f9f3530e97a74601fea17b426cae02e1c5aee42c96c784051",
            "0x000000000000000000000000aa8e23fb1079ea71e0a56f48a2aa51851d8433d0",
            "0x000000000000000000000000c5e0b6e472dde70eceffa4c568bd52f2a7a1632a",
            "0x000000000000000000000000a509c7ed1bc160da25f746c36f6c14503bc91a1f"
          ],
          "data": "0x00000000000000000000000000000000000000000000000000000000065efab00000000000000000000000000000000000000000000000000000000000000000",
          "blockHash": "0x90ec3a8db7999503e08eedae5d007eb536e73d884d5c7ae6619c96ffb885801f",
          "blockNumber": "0x45938e",
          "transactionHash": "0xabb3ed547aff5c09e371a29eb610151c7f0c905940bc2f829d3c83af6f4eac65",
          "transactionIndex": "0x2",
          "logIndex": "0x1b",
          "removed": false
        },
        {
          "address": "0x9844386d29EEd970B9F6a2B9a676083b0478210e",
          "topics": [
            "0xda919360433220e13b51e8c211e490d148e61a3bd53de8c097194e458b97f3e1",
            "0x0000000000000000000000003e122a3db43d225dd5bffd929ad4176ce69117e0",
            "0x000000000000000000000000a509c7ed1bc160da25f746c36f6c14503bc91a1f",
            "0x000000000000000000000000aa8e23fb1079ea71e0a56f48a2aa51851d8433d0"
          ],
          "data": "0x00000000000000000000000000000000000000000000000000000000069f6724",
          "blockHash": "0x90ec3a8db7999503e08eedae5d007eb536e73d884d5c7ae6619c96ffb885801f",
          "blockNumber": "0x45938e",
          "transactionHash": "0xabb3ed547aff5c09e371a29eb610151c7f0c905940bc2f829d3c83af6f4eac65",
          "transactionIndex": "0x2",
          "logIndex": "0x1c",
          "removed": false
        },
        {
          "address": "0x9844386d29EEd970B9F6a2B9a676083b0478210e",
          "topics": [
            "0xddf252ad1be2c89b69c2b068fc378daa952ba7f163c4a11628f55a4df523b3ef",
            "0x0000000000000000000000000000000000000000000000000000000000000000",
            "0x0000000000000000000000003e122a3db43d225dd5bffd929ad4176ce69117e0"
          ],
          "data": "0x00000000000000000000000000000000000000000000000000000000065fcb74",
          "blockHash": "0x90ec3a8db7999503e08eedae5d007eb536e73d884d5c7ae6619c96ffb885801f",
          "blockNumber": "0x45938e",
          "transactionHash": "0xabb3ed547aff5c09e371a29eb610151c7f0c905940bc2f829d3c83af6f4eac65",
          "transactionIndex": "0x2",
          "logIndex": "0x1d",
          "removed": false
        },
        {
          "address": "0x9844386d29EEd970B9F6a2B9a676083b0478210e",
          "topics": [
            "0x458f5fa412d0f69b08dd84872b0215675cc67bc1d5b6fd93300a1c3878b86196",
            "0x000000000000000000000000a509c7ed1bc160da25f746c36f6c14503bc91a1f",
            "0x0000000000000000000000003e122a3db43d225dd5bffd929ad4176ce69117e0"
          ],
          "data": "0x00000000000000000000000000000000000000000000000000000000065fcb74000000000000000000000000000000000000000000000000000000000000000000000000000000000000000000000000000000000344f9d0899c578d02669ff9",
          "blockHash": "0x90ec3a8db7999503e08eedae5d007eb536e73d884d5c7ae6619c96ffb885801f",
          "blockNumber": "0x45938e",
          "transactionHash": "0xabb3ed547aff5c09e371a29eb610151c7f0c905940bc2f829d3c83af6f4eac65",
          "transactionIndex": "0x2",
          "logIndex": "0x1e",
          "removed": false
        },
        {
          "address": "0x6Ae43d3271ff6888e7Fc43Fd7321a503ff738951",
          "topics": [
            "0x804c9b842b2748a22bb64b345453a3de7ca54a6ca45ce00d415894979e22897a",
            "0x000000000000000000000000aa8e23fb1079ea71e0a56f48a2aa51851d8433d0"
          ],
          "data": "0x00000000000000000000000000000000000000000000279a363bff22b3c522e80000000000000000000000000000000000000000002986d1c1a405582d59c10700000000000000000000000000000000000000000001574299fff775dace083d00000000000000000000000000000000000000000342a8d78e2a4df8d278150800000000000000000000000000000000000000000344f9d0899c578d02669ff9",
          "blockHash": "0x90ec3a8db7999503e08eedae5d007eb536e73d884d5c7ae6619c96ffb885801f",
          "blockNumber": "0x45938e",
          "transactionHash": "0xabb3ed547aff5c09e371a29eb610151c7f0c905940bc2f829d3c83af6f4eac65",
          "transactionIndex": "0x2",
          "logIndex": "0x1f",
          "removed": false
        },
        {
          "address": "0xaA8E23Fb1079EA71e0a56F48a2aA51851D8433D0",
          "topics": [
            "0xddf252ad1be2c89b69c2b068fc378daa952ba7f163c4a11628f55a4df523b3ef",
            "0x000000000000000000000000af0f6e8b0dc5c913bbf4d14c22b4e78dd14310b6",
            "0x000000000000000000000000a509c7ed1bc160da25f746c36f6c14503bc91a1f"
          ],
          "data": "0x00000000000000000000000000000000000000000000000000000000065fcb74",
          "blockHash": "0x90ec3a8db7999503e08eedae5d007eb536e73d884d5c7ae6619c96ffb885801f",
          "blockNumber": "0x45938e",
          "transactionHash": "0xabb3ed547aff5c09e371a29eb610151c7f0c905940bc2f829d3c83af6f4eac65",
          "transactionIndex": "0x2",
          "logIndex": "0x20",
          "removed": false
        },
        {
          "address": "0x6Ae43d3271ff6888e7Fc43Fd7321a503ff738951",
          "topics": [
            "0xb3d084820fb1a9decffb176436bd02558d15fac9b0ddfed8c465bc7359d7dce0",
            "0x000000000000000000000000aa8e23fb1079ea71e0a56f48a2aa51851d8433d0",
            "0x0000000000000000000000003e122a3db43d225dd5bffd929ad4176ce69117e0",
            "0x0000000000000000000000000000000000000000000000000000000000000000"
          ],
          "data": "0x000000000000000000000000a509c7ed1bc160da25f746c36f6c14503bc91a1f00000000000000000000000000000000000000000000000000000000065fcb74000000000000000000000000000000000000000000000000000000000000000200000000000000000000000000000000000000000001574299fff775dace083d",
          "blockHash": "0x90ec3a8db7999503e08eedae5d007eb536e73d884d5c7ae6619c96ffb885801f",
          "blockNumber": "0x45938e",
          "transactionHash": "0xabb3ed547aff5c09e371a29eb610151c7f0c905940bc2f829d3c83af6f4eac65",
          "transactionIndex": "0x2",
          "logIndex": "0x21",
          "removed": false
        },
        {
          "address": "0xaA8E23Fb1079EA71e0a56F48a2aA51851D8433D0",
          "topics": [
            "0x8c5be1e5ebec7d5bd14f71427d1e84f3dd0314c0f7b2291e5b200ac8c7c3b925",
            "0x000000000000000000000000a509c7ed1bc160da25f746c36f6c14503bc91a1f",
            "0x0000000000000000000000006ae43d3271ff6888e7fc43fd7321a503ff738951"
          ],
          "data": "0x00000000000000000000000000000000000000000000000000000000065fcb74",
          "blockHash": "0x90ec3a8db7999503e08eedae5d007eb536e73d884d5c7ae6619c96ffb885801f",
          "blockNumber": "0x45938e",
          "transactionHash": "0xabb3ed547aff5c09e371a29eb610151c7f0c905940bc2f829d3c83af6f4eac65",
          "transactionIndex": "0x2",
          "logIndex": "0x22",
          "removed": false
        },
        {
          "address": "0x16dA4541aD1807f4443d92D26044C1147406EB80",
          "topics": [
            "0x8c5be1e5ebec7d5bd14f71427d1e84f3dd0314c0f7b2291e5b200ac8c7c3b925",
            "0x000000000000000000000000c5e0b6e472dde70eceffa4c568bd52f2a7a1632a",
            "0x000000000000000000000000a509c7ed1bc160da25f746c36f6c14503bc91a1f"
          ],
          "data": "0x000000000000000000000000000000000000000000000000000000003ca1775d",
          "blockHash": "0x90ec3a8db7999503e08eedae5d007eb536e73d884d5c7ae6619c96ffb885801f",
          "blockNumber": "0x45938e",
          "transactionHash": "0xabb3ed547aff5c09e371a29eb610151c7f0c905940bc2f829d3c83af6f4eac65",
          "transactionIndex": "0x2",
          "logIndex": "0x23",
          "removed": false
        },
        {
          "address": "0x16dA4541aD1807f4443d92D26044C1147406EB80",
          "topics": [
            "0xddf252ad1be2c89b69c2b068fc378daa952ba7f163c4a11628f55a4df523b3ef",
            "0x0000000000000000000000000000000000000000000000000000000000000000",
            "0x000000000000000000000000c5e0b6e472dde70eceffa4c568bd52f2a7a1632a"
          ],
          "data": "0x0000000000000000000000000000000000000000000000000000000000000486",
          "blockHash": "0x90ec3a8db7999503e08eedae5d007eb536e73d884d5c7ae6619c96ffb885801f",
          "blockNumber": "0x45938e",
          "transactionHash": "0xabb3ed547aff5c09e371a29eb610151c7f0c905940bc2f829d3c83af6f4eac65",
          "transactionIndex": "0x2",
          "logIndex": "0x24",
          "removed": false
        },
        {
          "address": "0x16dA4541aD1807f4443d92D26044C1147406EB80",
          "topics": [
            "0x458f5fa412d0f69b08dd84872b0215675cc67bc1d5b6fd93300a1c3878b86196",
            "0x000000000000000000000000a509c7ed1bc160da25f746c36f6c14503bc91a1f",
            "0x000000000000000000000000c5e0b6e472dde70eceffa4c568bd52f2a7a1632a"
          ],
          "data": "0x000000000000000000000000000000000000000000000000000000000000048600000000000000000000000000000000000000000000000000000000000004860000000000000000000000000000000000000000034949913cbc1b60869dca23",
          "blockHash": "0x90ec3a8db7999503e08eedae5d007eb536e73d884d5c7ae6619c96ffb885801f",
          "blockNumber": "0x45938e",
          "transactionHash": "0xabb3ed547aff5c09e371a29eb610151c7f0c905940bc2f829d3c83af6f4eac65",
          "transactionIndex": "0x2",
          "logIndex": "0x25",
          "removed": false
        },
        {
          "address": "0x16dA4541aD1807f4443d92D26044C1147406EB80",
          "topics": [
            "0xddf252ad1be2c89b69c2b068fc378daa952ba7f163c4a11628f55a4df523b3ef",
            "0x000000000000000000000000c5e0b6e472dde70eceffa4c568bd52f2a7a1632a",
            "0x0000000000000000000000003e122a3db43d225dd5bffd929ad4176ce69117e0"
          ],
          "data": "0x000000000000000000000000000000000000000000000000000000003ca177bb",
          "blockHash": "0x90ec3a8db7999503e08eedae5d007eb536e73d884d5c7ae6619c96ffb885801f",
          "blockNumber": "0x45938e",
          "transactionHash": "0xabb3ed547aff5c09e371a29eb610151c7f0c905940bc2f829d3c83af6f4eac65",
          "transactionIndex": "0x2",
          "logIndex": "0x26",
          "removed": false
        },
        {
          "address": "0x6Ae43d3271ff6888e7Fc43Fd7321a503ff738951",
          "topics": [
            "0x00058a56ea94653cdf4f152d227ace22d4c00ad99e2a43f58cb7d9e3feb295f2",
            "0x00000000000000000000000094a9d9ac8a22534e3faca9f4e7f2e2cf85d5e4c8",
            "0x0000000000000000000000003e122a3db43d225dd5bffd929ad4176ce69117e0"
          ],
          "data": "0x",
          "blockHash": "0x90ec3a8db7999503e08eedae5d007eb536e73d884d5c7ae6619c96ffb885801f",
          "blockNumber": "0x45938e",
          "transactionHash": "0xabb3ed547aff5c09e371a29eb610151c7f0c905940bc2f829d3c83af6f4eac65",
          "transactionIndex": "0x2",
          "logIndex": "0x27",
          "removed": false
        },
        {
          "address": "0x16dA4541aD1807f4443d92D26044C1147406EB80",
          "topics": [
            "0x4beccb90f994c31aced7a23b5611020728a23d8ec5cddd1a3e9d97b96fda8666",
            "0x000000000000000000000000c5e0b6e472dde70eceffa4c568bd52f2a7a1632a",
            "0x0000000000000000000000003e122a3db43d225dd5bffd929ad4176ce69117e0"
          ],
          "data": "0x000000000000000000000000000000000000000000000000000000003b9d33e70000000000000000000000000000000000000000034949913cbc1b60869dca23",
          "blockHash": "0x90ec3a8db7999503e08eedae5d007eb536e73d884d5c7ae6619c96ffb885801f",
          "blockNumber": "0x45938e",
          "transactionHash": "0xabb3ed547aff5c09e371a29eb610151c7f0c905940bc2f829d3c83af6f4eac65",
          "transactionIndex": "0x2",
          "logIndex": "0x28",
          "removed": false
        },
        {
          "address": "0x1804Bf30507dc2EB3bDEbbbdd859991EAeF6EefF",
          "topics": [
            "0x8c5be1e5ebec7d5bd14f71427d1e84f3dd0314c0f7b2291e5b200ac8c7c3b925",
            "0x000000000000000000000000c5e0b6e472dde70eceffa4c568bd52f2a7a1632a",
            "0x000000000000000000000000a509c7ed1bc160da25f746c36f6c14503bc91a1f"
          ],
          "data": "0x0000000000000000000000000000000000000000000000000000000005f5e101",
          "blockHash": "0x90ec3a8db7999503e08eedae5d007eb536e73d884d5c7ae6619c96ffb885801f",
          "blockNumber": "0x45938e",
          "transactionHash": "0xabb3ed547aff5c09e371a29eb610151c7f0c905940bc2f829d3c83af6f4eac65",
          "transactionIndex": "0x2",
          "logIndex": "0x29",
          "removed": false
        },
        {
          "address": "0x1804Bf30507dc2EB3bDEbbbdd859991EAeF6EefF",
          "topics": [
            "0xddf252ad1be2c89b69c2b068fc378daa952ba7f163c4a11628f55a4df523b3ef",
            "0x0000000000000000000000000000000000000000000000000000000000000000",
            "0x000000000000000000000000c5e0b6e472dde70eceffa4c568bd52f2a7a1632a"
          ],
          "data": "0x0000000000000000000000000000000000000000000000000000000000000001",
          "blockHash": "0x90ec3a8db7999503e08eedae5d007eb536e73d884d5c7ae6619c96ffb885801f",
          "blockNumber": "0x45938e",
          "transactionHash": "0xabb3ed547aff5c09e371a29eb610151c7f0c905940bc2f829d3c83af6f4eac65",
          "transactionIndex": "0x2",
          "logIndex": "0x2a",
          "removed": false
        },
        {
          "address": "0x1804Bf30507dc2EB3bDEbbbdd859991EAeF6EefF",
          "topics": [
            "0x458f5fa412d0f69b08dd84872b0215675cc67bc1d5b6fd93300a1c3878b86196",
            "0x000000000000000000000000a509c7ed1bc160da25f746c36f6c14503bc91a1f",
            "0x000000000000000000000000c5e0b6e472dde70eceffa4c568bd52f2a7a1632a"
          ],
          "data": "0x000000000000000000000000000000000000000000000000000000000000000100000000000000000000000000000000000000000000000000000000000000010000000000000000000000000000000000000000033b4f526b380890494ff8a2",
          "blockHash": "0x90ec3a8db7999503e08eedae5d007eb536e73d884d5c7ae6619c96ffb885801f",
          "blockNumber": "0x45938e",
          "transactionHash": "0xabb3ed547aff5c09e371a29eb610151c7f0c905940bc2f829d3c83af6f4eac65",
          "transactionIndex": "0x2",
          "logIndex": "0x2b",
          "removed": false
        },
        {
          "address": "0x1804Bf30507dc2EB3bDEbbbdd859991EAeF6EefF",
          "topics": [
            "0xddf252ad1be2c89b69c2b068fc378daa952ba7f163c4a11628f55a4df523b3ef",
            "0x000000000000000000000000c5e0b6e472dde70eceffa4c568bd52f2a7a1632a",
            "0x0000000000000000000000003e122a3db43d225dd5bffd929ad4176ce69117e0"
          ],
          "data": "0x0000000000000000000000000000000000000000000000000000000005f5e101",
          "blockHash": "0x90ec3a8db7999503e08eedae5d007eb536e73d884d5c7ae6619c96ffb885801f",
          "blockNumber": "0x45938e",
          "transactionHash": "0xabb3ed547aff5c09e371a29eb610151c7f0c905940bc2f829d3c83af6f4eac65",
          "transactionIndex": "0x2",
          "logIndex": "0x2c",
          "removed": false
        },
        {
          "address": "0x6Ae43d3271ff6888e7Fc43Fd7321a503ff738951",
          "topics": [
            "0x44c58d81365b66dd4b1a7f36c25aa97b8c71c361ee4937adc1a00000227db5dd",
            "0x00000000000000000000000029f2d40b0605204364af54ec677bd022da425d03",
            "0x000000000000000000000000c5e0b6e472dde70eceffa4c568bd52f2a7a1632a"
          ],
          "data": "0x",
          "blockHash": "0x90ec3a8db7999503e08eedae5d007eb536e73d884d5c7ae6619c96ffb885801f",
          "blockNumber": "0x45938e",
          "transactionHash": "0xabb3ed547aff5c09e371a29eb610151c7f0c905940bc2f829d3c83af6f4eac65",
          "transactionIndex": "0x2",
          "logIndex": "0x2d",
          "removed": false
        },
        {
          "address": "0x6Ae43d3271ff6888e7Fc43Fd7321a503ff738951",
          "topics": [
            "0x00058a56ea94653cdf4f152d227ace22d4c00ad99e2a43f58cb7d9e3feb295f2",
            "0x00000000000000000000000029f2d40b0605204364af54ec677bd022da425d03",
            "0x0000000000000000000000003e122a3db43d225dd5bffd929ad4176ce69117e0"
          ],
          "data": "0x",
          "blockHash": "0x90ec3a8db7999503e08eedae5d007eb536e73d884d5c7ae6619c96ffb885801f",
          "blockNumber": "0x45938e",
          "transactionHash": "0xabb3ed547aff5c09e371a29eb610151c7f0c905940bc2f829d3c83af6f4eac65",
          "transactionIndex": "0x2",
          "logIndex": "0x2e",
          "removed": false
        },
        {
          "address": "0x1804Bf30507dc2EB3bDEbbbdd859991EAeF6EefF",
          "topics": [
            "0x4beccb90f994c31aced7a23b5611020728a23d8ec5cddd1a3e9d97b96fda8666",
            "0x000000000000000000000000c5e0b6e472dde70eceffa4c568bd52f2a7a1632a",
            "0x0000000000000000000000003e122a3db43d225dd5bffd929ad4176ce69117e0"
          ],
          "data": "0x0000000000000000000000000000000000000000000000000000000005f5a3fb0000000000000000000000000000000000000000033b4f526b380890494ff8a2",
          "blockHash": "0x90ec3a8db7999503e08eedae5d007eb536e73d884d5c7ae6619c96ffb885801f",
          "blockNumber": "0x45938e",
          "transactionHash": "0xabb3ed547aff5c09e371a29eb610151c7f0c905940bc2f829d3c83af6f4eac65",
          "transactionIndex": "0x2",
          "logIndex": "0x2f",
          "removed": false
        },
        {
          "address": "0xAF0F6e8b0Dc5c913bbF4d14c22B4E78Dd14310B6",
          "topics": [
            "0x8c5be1e5ebec7d5bd14f71427d1e84f3dd0314c0f7b2291e5b200ac8c7c3b925",
            "0x000000000000000000000000c5e0b6e472dde70eceffa4c568bd52f2a7a1632a",
            "0x000000000000000000000000a509c7ed1bc160da25f746c36f6c14503bc91a1f"
          ],
          "data": "0x00000000000000000000000000000000000000000000000000000000001ec289",
          "blockHash": "0x90ec3a8db7999503e08eedae5d007eb536e73d884d5c7ae6619c96ffb885801f",
          "blockNumber": "0x45938e",
          "transactionHash": "0xabb3ed547aff5c09e371a29eb610151c7f0c905940bc2f829d3c83af6f4eac65",
          "transactionIndex": "0x2",
          "logIndex": "0x30",
          "removed": false
        },
        {
          "address": "0xAF0F6e8b0Dc5c913bbF4d14c22B4E78Dd14310B6",
          "topics": [
            "0xddf252ad1be2c89b69c2b068fc378daa952ba7f163c4a11628f55a4df523b3ef",
            "0x000000000000000000000000c5e0b6e472dde70eceffa4c568bd52f2a7a1632a",
            "0x0000000000000000000000003e122a3db43d225dd5bffd929ad4176ce69117e0"
          ],
          "data": "0x00000000000000000000000000000000000000000000000000000000001ec289",
          "blockHash": "0x90ec3a8db7999503e08eedae5d007eb536e73d884d5c7ae6619c96ffb885801f",
          "blockNumber": "0x45938e",
          "transactionHash": "0xabb3ed547aff5c09e371a29eb610151c7f0c905940bc2f829d3c83af6f4eac65",
          "transactionIndex": "0x2",
          "logIndex": "0x31",
          "removed": false
        },
        {
          "address": "0xAF0F6e8b0Dc5c913bbF4d14c22B4E78Dd14310B6",
          "topics": [
            "0x4beccb90f994c31aced7a23b5611020728a23d8ec5cddd1a3e9d97b96fda8666",
            "0x000000000000000000000000c5e0b6e472dde70eceffa4c568bd52f2a7a1632a",
            "0x0000000000000000000000003e122a3db43d225dd5bffd929ad4176ce69117e0"
          ],
          "data": "0x00000000000000000000000000000000000000000000000000000000001e7bfa00000000000000000000000000000000000000000342a8d78e2a4df8d2781508",
          "blockHash": "0x90ec3a8db7999503e08eedae5d007eb536e73d884d5c7ae6619c96ffb885801f",
          "blockNumber": "0x45938e",
          "transactionHash": "0xabb3ed547aff5c09e371a29eb610151c7f0c905940bc2f829d3c83af6f4eac65",
          "transactionIndex": "0x2",
          "logIndex": "0x32",
          "removed": false
        },
        {
          "address": "0x6b8558764d3b7572136F17174Cb9aB1DDc7E1259",
          "topics": [
            "0x8c5be1e5ebec7d5bd14f71427d1e84f3dd0314c0f7b2291e5b200ac8c7c3b925",
            "0x000000000000000000000000c5e0b6e472dde70eceffa4c568bd52f2a7a1632a",
            "0x000000000000000000000000a509c7ed1bc160da25f746c36f6c14503bc91a1f"
          ],
          "data": "0x0000000000000000000000000000000000000000000000056bc75e2d63100000",
          "blockHash": "0x90ec3a8db7999503e08eedae5d007eb536e73d884d5c7ae6619c96ffb885801f",
          "blockNumber": "0x45938e",
          "transactionHash": "0xabb3ed547aff5c09e371a29eb610151c7f0c905940bc2f829d3c83af6f4eac65",
          "transactionIndex": "0x2",
          "logIndex": "0x33",
          "removed": false
        },
        {
          "address": "0x6b8558764d3b7572136F17174Cb9aB1DDc7E1259",
          "topics": [
            "0xddf252ad1be2c89b69c2b068fc378daa952ba7f163c4a11628f55a4df523b3ef",
            "0x000000000000000000000000c5e0b6e472dde70eceffa4c568bd52f2a7a1632a",
            "0x0000000000000000000000003e122a3db43d225dd5bffd929ad4176ce69117e0"
          ],
          "data": "0x0000000000000000000000000000000000000000000000056bc75e2d63100000",
          "blockHash": "0x90ec3a8db7999503e08eedae5d007eb536e73d884d5c7ae6619c96ffb885801f",
          "blockNumber": "0x45938e",
          "transactionHash": "0xabb3ed547aff5c09e371a29eb610151c7f0c905940bc2f829d3c83af6f4eac65",
          "transactionIndex": "0x2",
          "logIndex": "0x34",
          "removed": false
        },
        {
          "address": "0x6Ae43d3271ff6888e7Fc43Fd7321a503ff738951",
          "topics": [
            "0x44c58d81365b66dd4b1a7f36c25aa97b8c71c361ee4937adc1a00000227db5dd",
            "0x00000000000000000000000088541670e55cc00beefd87eb59edd1b7c511ac9a",
            "0x000000000000000000000000c5e0b6e472dde70eceffa4c568bd52f2a7a1632a"
          ],
          "data": "0x",
          "blockHash": "0x90ec3a8db7999503e08eedae5d007eb536e73d884d5c7ae6619c96ffb885801f",
          "blockNumber": "0x45938e",
          "transactionHash": "0xabb3ed547aff5c09e371a29eb610151c7f0c905940bc2f829d3c83af6f4eac65",
          "transactionIndex": "0x2",
          "logIndex": "0x35",
          "removed": false
        },
        {
          "address": "0x6Ae43d3271ff6888e7Fc43Fd7321a503ff738951",
          "topics": [
            "0x00058a56ea94653cdf4f152d227ace22d4c00ad99e2a43f58cb7d9e3feb295f2",
            "0x00000000000000000000000088541670e55cc00beefd87eb59edd1b7c511ac9a",
            "0x0000000000000000000000003e122a3db43d225dd5bffd929ad4176ce69117e0"
          ],
          "data": "0x",
          "blockHash": "0x90ec3a8db7999503e08eedae5d007eb536e73d884d5c7ae6619c96ffb885801f",
          "blockNumber": "0x45938e",
          "transactionHash": "0xabb3ed547aff5c09e371a29eb610151c7f0c905940bc2f829d3c83af6f4eac65",
          "transactionIndex": "0x2",
          "logIndex": "0x36",
          "removed": false
        },
        {
          "address": "0x6b8558764d3b7572136F17174Cb9aB1DDc7E1259",
          "topics": [
            "0x4beccb90f994c31aced7a23b5611020728a23d8ec5cddd1a3e9d97b96fda8666",
            "0x000000000000000000000000c5e0b6e472dde70eceffa4c568bd52f2a7a1632a",
            "0x0000000000000000000000003e122a3db43d225dd5bffd929ad4176ce69117e0"
          ],
          "data": "0x0000000000000000000000000000000000000000000000056bc74c139cd4f48f0000000000000000000000000000000000000000033b2e4769c27e5b821decfc",
          "blockHash": "0x90ec3a8db7999503e08eedae5d007eb536e73d884d5c7ae6619c96ffb885801f",
          "blockNumber": "0x45938e",
          "transactionHash": "0xabb3ed547aff5c09e371a29eb610151c7f0c905940bc2f829d3c83af6f4eac65",
          "transactionIndex": "0x2",
          "logIndex": "0x37",
          "removed": false
        },
        {
          "address": "0x6Ae43d3271ff6888e7Fc43Fd7321a503ff738951",
          "topics": [
            "0x804c9b842b2748a22bb64b345453a3de7ca54a6ca45ce00d415894979e22897a",
            "0x000000000000000000000000f8fb3713d459d7c1018bd0a49d19b4c44290ebe5"
          ],
          "data": "0x000000000000000000000000000000000000000007a712e58b940bb464df7f0d000000000000000000000000000000000000000009fb6edcc80b73795a2e3733000000000000000000000000000000000000000009b0fc9f015767eec02e373300000000000000000000000000000000000000000360d5e6632dbdabc34173380000000000000000000000000000000000000000036d8f0df19111da73ca6f8b",
          "blockHash": "0x90ec3a8db7999503e08eedae5d007eb536e73d884d5c7ae6619c96ffb885801f",
          "blockNumber": "0x45938e",
          "transactionHash": "0xabb3ed547aff5c09e371a29eb610151c7f0c905940bc2f829d3c83af6f4eac65",
          "transactionIndex": "0x2",
          "logIndex": "0x38",
          "removed": false
        },
        {
          "address": "0xf8Fb3713D459D7C1018BD0A49D19b4C44290EBE5",
          "topics": [
            "0xddf252ad1be2c89b69c2b068fc378daa952ba7f163c4a11628f55a4df523b3ef",
            "0x000000000000000000000000a509c7ed1bc160da25f746c36f6c14503bc91a1f",
            "0x0000000000000000000000003ffaf50d4f4e96eb78f2407c090b72e86ecaed24"
          ],
          "data": "0x00000000000000000000000000000000000000000000000000003c33c18603b8",
          "blockHash": "0x90ec3a8db7999503e08eedae5d007eb536e73d884d5c7ae6619c96ffb885801f",
          "blockNumber": "0x45938e",
          "transactionHash": "0xabb3ed547aff5c09e371a29eb610151c7f0c905940bc2f829d3c83af6f4eac65",
          "transactionIndex": "0x2",
          "logIndex": "0x39",
          "removed": false
        },
        {
          "address": "0xf8Fb3713D459D7C1018BD0A49D19b4C44290EBE5",
          "topics": [
            "0x8c5be1e5ebec7d5bd14f71427d1e84f3dd0314c0f7b2291e5b200ac8c7c3b925",
            "0x000000000000000000000000a509c7ed1bc160da25f746c36f6c14503bc91a1f",
            "0x0000000000000000000000006ae43d3271ff6888e7fc43fd7321a503ff738951"
          ],
          "data": "0x0000000000000000000000000000000000000000000000000000000000000000",
          "blockHash": "0x90ec3a8db7999503e08eedae5d007eb536e73d884d5c7ae6619c96ffb885801f",
          "blockNumber": "0x45938e",
          "transactionHash": "0xabb3ed547aff5c09e371a29eb610151c7f0c905940bc2f829d3c83af6f4eac65",
          "transactionIndex": "0x2",
          "logIndex": "0x3a",
          "removed": false
        },
        {
          "address": "0x6Ae43d3271ff6888e7Fc43Fd7321a503ff738951",
          "topics": [
            "0xefefaba5e921573100900a3ad9cf29f222d995fb3b6045797eaea7521bd8d6f0",
            "0x000000000000000000000000a509c7ed1bc160da25f746c36f6c14503bc91a1f",
            "0x000000000000000000000000f8fb3713d459d7c1018bd0a49d19b4c44290ebe5",
            "0x0000000000000000000000000000000000000000000000000000000000000000"
          ],
          "data": "0x000000000000000000000000a509c7ed1bc160da25f746c36f6c14503bc91a1f00000000000000000000000000000000000000000000000000003c2c0dcdf9bd000000000000000000000000000000000000000000000000000000000000000000000000000000000000000000000000000000000000000000000007b3b809fb",
          "blockHash": "0x90ec3a8db7999503e08eedae5d007eb536e73d884d5c7ae6619c96ffb885801f",
          "blockNumber": "0x45938e",
          "transactionHash": "0xabb3ed547aff5c09e371a29eb610151c7f0c905940bc2f829d3c83af6f4eac65",
          "transactionIndex": "0x2",
          "logIndex": "0x3b",
          "removed": false
        },
        {
          "address": "0x6Ae43d3271ff6888e7Fc43Fd7321a503ff738951",
          "topics": [
            "0x804c9b842b2748a22bb64b345453a3de7ca54a6ca45ce00d415894979e22897a",
            "0x000000000000000000000000aa8e23fb1079ea71e0a56f48a2aa51851d8433d0"
          ],
          "data": "0x00000000000000000000000000000000000000000000279a2e18b563d75834320000000000000000000000000000000000000000002986d1baa711b6e041253000000000000000000000000000000000000000000001574262185a6b7209297e00000000000000000000000000000000000000000342a8d79f8cb009d02cc7c500000000000000000000000000000000000000000344f9d0899c578d02669ff9",
          "blockHash": "0x90ec3a8db7999503e08eedae5d007eb536e73d884d5c7ae6619c96ffb885801f",
          "blockNumber": "0x45938e",
          "transactionHash": "0xabb3ed547aff5c09e371a29eb610151c7f0c905940bc2f829d3c83af6f4eac65",
          "transactionIndex": "0x2",
          "logIndex": "0x3c",
          "removed": false
        },
        {
          "address": "0xaA8E23Fb1079EA71e0a56F48a2aA51851D8433D0",
          "topics": [
            "0xddf252ad1be2c89b69c2b068fc378daa952ba7f163c4a11628f55a4df523b3ef",
            "0x000000000000000000000000a509c7ed1bc160da25f746c36f6c14503bc91a1f",
            "0x000000000000000000000000af0f6e8b0dc5c913bbf4d14c22b4e78dd14310b6"
          ],
          "data": "0x00000000000000000000000000000000000000000000000000000000065fcb74",
          "blockHash": "0x90ec3a8db7999503e08eedae5d007eb536e73d884d5c7ae6619c96ffb885801f",
          "blockNumber": "0x45938e",
          "transactionHash": "0xabb3ed547aff5c09e371a29eb610151c7f0c905940bc2f829d3c83af6f4eac65",
          "transactionIndex": "0x2",
          "logIndex": "0x3d",
          "removed": false
        },
        {
          "address": "0xaA8E23Fb1079EA71e0a56F48a2aA51851D8433D0",
          "topics": [
            "0x8c5be1e5ebec7d5bd14f71427d1e84f3dd0314c0f7b2291e5b200ac8c7c3b925",
            "0x000000000000000000000000a509c7ed1bc160da25f746c36f6c14503bc91a1f",
            "0x0000000000000000000000006ae43d3271ff6888e7fc43fd7321a503ff738951"
          ],
          "data": "0x0000000000000000000000000000000000000000000000000000000000000000",
          "blockHash": "0x90ec3a8db7999503e08eedae5d007eb536e73d884d5c7ae6619c96ffb885801f",
          "blockNumber": "0x45938e",
          "transactionHash": "0xabb3ed547aff5c09e371a29eb610151c7f0c905940bc2f829d3c83af6f4eac65",
          "transactionIndex": "0x2",
          "logIndex": "0x3e",
          "removed": false
        },
        {
          "address": "0x6Ae43d3271ff6888e7Fc43Fd7321a503ff738951",
          "topics": [
            "0xefefaba5e921573100900a3ad9cf29f222d995fb3b6045797eaea7521bd8d6f0",
            "0x000000000000000000000000a509c7ed1bc160da25f746c36f6c14503bc91a1f",
            "0x000000000000000000000000aa8e23fb1079ea71e0a56f48a2aa51851d8433d0",
            "0x0000000000000000000000000000000000000000000000000000000000000000"
          ],
          "data": "0x000000000000000000000000a509c7ed1bc160da25f746c36f6c14503bc91a1f00000000000000000000000000000000000000000000000000000000065efab00000000000000000000000000000000000000000000000000000000000000000000000000000000000000000000000000000000000000000000000000000d0c4",
          "blockHash": "0x90ec3a8db7999503e08eedae5d007eb536e73d884d5c7ae6619c96ffb885801f",
          "blockNumber": "0x45938e",
          "transactionHash": "0xabb3ed547aff5c09e371a29eb610151c7f0c905940bc2f829d3c83af6f4eac65",
          "transactionIndex": "0x2",
          "logIndex": "0x3f",
          "removed": false
        }
      ],
      "status": "0x1",
      "logsBloom": "0x10120000080008400280000000006800000000000000000002000000000000800000008040000000000100000004002000050000402000020000000000200000000000000001008080002008000000000000000000000000000000044000300004000000020020000000000080000c00004004000000000008000011401000002000000081040000004000000000000000200000080000000000000000000000020000000000020000000080800000000010208040104000020006000000010002008002000001100000002000080000004200100000060100000001000020040010100408000420000080004001000100010000000800000000000000040000",
      "type": "0x2",
      "effectiveGasPrice": "0xbb1e8477"
    }
  ],
  "libraries": [],
  "pending": [],
  "returns": {},
  "timestamp": 1698235266,
  "chain": 11155111,
  "multi": false,
  "commit": "56fcdfc"
}