{
  "transactions": [
    {
      "hash": "0xdcf315e2967e3d73657998147ecd0a7e3f76250111436e47fa2a862c822bd6b9",
      "transactionType": "CALL",
      "contractName": "InitializableImmutableAdminUpgradeabilityProxy",
      "contractAddress": "0x34a4d932E722b9dFb492B9D8131127690CE2430B",
      "function": "approveDelegation(address,uint256)",
      "arguments": [
        "0xA509C7ed1bc160dA25f746C36f6c14503bc91A1f",
        "67430926399291"
      ],
      "transaction": {
        "type": "0x02",
        "from": "0xc5e0b6e472dde70eceffa4c568bd52f2a7a1632a",
        "to": "0x34a4d932e722b9dfb492b9d8131127690ce2430b",
        "gas": "0xc552",
        "value": "0x0",
        "data": "0xc04a8a10000000000000000000000000a509c7ed1bc160da25f746c36f6c14503bc91a1f00000000000000000000000000000000000000000000000000003d53fc6a373b",
        "nonce": "0x45",
        "accessList": []
      },
      "additionalContracts": [],
      "isFixedGasLimit": false
    },
    {
      "hash": "0xb79769bbced853cf7f548272b1fb73bcf3afefb412b4057f78c0a219d701d19c",
      "transactionType": "CALL",
      "contractName": "InitializableImmutableAdminUpgradeabilityProxy",
      "contractAddress": "0x9844386d29EEd970B9F6a2B9a676083b0478210e",
      "function": "approveDelegation(address,uint256)",
      "arguments": [
        "0xA509C7ed1bc160dA25f746C36f6c14503bc91A1f",
        "10101796760"
      ],
      "transaction": {
        "type": "0x02",
        "from": "0xc5e0b6e472dde70eceffa4c568bd52f2a7a1632a",
        "to": "0x9844386d29eed970b9f6a2b9a676083b0478210e",
        "gas": "0xc542",
        "value": "0x0",
        "data": "0xc04a8a10000000000000000000000000a509c7ed1bc160da25f746c36f6c14503bc91a1f000000000000000000000000000000000000000000000000000000025a1d2f98",
        "nonce": "0x46",
        "accessList": []
      },
      "additionalContracts": [],
      "isFixedGasLimit": false
    },
    {
      "hash": "0x5241fadadef6f982dceb4cbbbeea972f588ab970a6eb100b5bb155c6f4d613a2",
      "transactionType": "CALL",
      "contractName": "InitializableImmutableAdminUpgradeabilityProxy",
      "contractAddress": "0x16dA4541aD1807f4443d92D26044C1147406EB80",
      "function": "approve(address,uint256):(bool)",
      "arguments": [
        "0xA509C7ed1bc160dA25f746C36f6c14503bc91A1f",
        "11007145347"
      ],
      "transaction": {
        "type": "0x02",
        "from": "0x3e122a3db43d225dd5bffd929ad4176ce69117e0",
        "to": "0x16da4541ad1807f4443d92d26044c1147406eb80",
        "gas": "0xb806",
        "value": "0x0",
        "data": "0x095ea7b3000000000000000000000000a509c7ed1bc160da25f746c36f6c14503bc91a1f000000000000000000000000000000000000000000000000000000029013b583",
        "nonce": "0x96",
        "accessList": []
      },
      "additionalContracts": [],
      "isFixedGasLimit": false
    },
    {
      "hash": "0xc8ea3828424f06b461ad677eb138d7ab3f350ae20b556537c45e13a15526bcca",
      "transactionType": "CALL",
      "contractName": "InitializableImmutableAdminUpgradeabilityProxy",
      "contractAddress": "0xAF0F6e8b0Dc5c913bbF4d14c22B4E78Dd14310B6",
      "function": "approve(address,uint256):(bool)",
      "arguments": [
        "0xA509C7ed1bc160dA25f746C36f6c14503bc91A1f",
        "10001015881"
      ],
      "transaction": {
        "type": "0x02",
        "from": "0x3e122a3db43d225dd5bffd929ad4176ce69117e0",
        "to": "0xaf0f6e8b0dc5c913bbf4d14c22b4e78dd14310b6",
        "gas": "0xa8eb",
        "value": "0x0",
        "data": "0x095ea7b3000000000000000000000000a509c7ed1bc160da25f746c36f6c14503bc91a1f00000000000000000000000000000000000000000000000000000002541b6449",
        "nonce": "0x97",
        "accessList": []
      },
      "additionalContracts": [],
      "isFixedGasLimit": false
    }
  ],
  "receipts": [
    {
      "transactionHash": "0xdcf315e2967e3d73657998147ecd0a7e3f76250111436e47fa2a862c822bd6b9",
      "transactionIndex": "0x4",
      "blockHash": "0xacf77970ed8d1eed606a4b4cdf01ebffaf6648417a75507245a15a8b0720eb08",
      "blockNumber": "0x459249",
      "from": "0xC5e0B6E472dDE70eCEfFa4c568Bd52f2A7a1632A",
      "to": "0x34a4d932E722b9dFb492B9D8131127690CE2430B",
      "cumulativeGasUsed": "0x1d6fc",
      "gasUsed": "0x8edc",
      "contractAddress": null,
      "logs": [
        {
          "address": "0x34a4d932E722b9dFb492B9D8131127690CE2430B",
          "topics": [
            "0xda919360433220e13b51e8c211e490d148e61a3bd53de8c097194e458b97f3e1",
            "0x000000000000000000000000c5e0b6e472dde70eceffa4c568bd52f2a7a1632a",
            "0x000000000000000000000000a509c7ed1bc160da25f746c36f6c14503bc91a1f",
            "0x000000000000000000000000f8fb3713d459d7c1018bd0a49d19b4c44290ebe5"
          ],
          "data": "0x00000000000000000000000000000000000000000000000000003d53fc6a373b",
          "blockHash": "0xacf77970ed8d1eed606a4b4cdf01ebffaf6648417a75507245a15a8b0720eb08",
          "blockNumber": "0x459249",
          "transactionHash": "0xdcf315e2967e3d73657998147ecd0a7e3f76250111436e47fa2a862c822bd6b9",
          "transactionIndex": "0x4",
          "logIndex": "0x0",
          "removed": false
        }
      ],
      "status": "0x1",
      "logsBloom": "0x00020000000000000000000000002000000000000000000000000000000000000000000040000000000000000000000000000000000000000000000000000000000000000001000000000000000000000000000000000000000000004000100000000000000020000000000000000000000000000000000000000001000000000000000000000000000000000000000000000000000000000000000000000000000000000000020000000000800000000000000040000000000000000000000000000000000000000000000000000000004000000000000000000000000000000000000000000420000000000000000100000000000000000000000000000000",
      "type": "0x2",
      "effectiveGasPrice": "0xfc48a36c"
    },
    {
      "transactionHash": "0xb79769bbced853cf7f548272b1fb73bcf3afefb412b4057f78c0a219d701d19c",
      "transactionIndex": "0x1",
      "blockHash": "0x3bb2a0637c509fefbe27f6e7932fabbc00067c958bcc559f8cda2f9eb6ac81e9",
      "blockNumber": "0x45924a",
      "from": "0xC5e0B6E472dDE70eCEfFa4c568Bd52f2A7a1632A",
      "to": "0x9844386d29EEd970B9F6a2B9a676083b0478210e",
      "cumulativeGasUsed": "0xac52e",
      "gasUsed": "0x8ed0",
      "contractAddress": null,
      "logs": [
        {
          "address": "0x9844386d29EEd970B9F6a2B9a676083b0478210e",
          "topics": [
            "0xda919360433220e13b51e8c211e490d148e61a3bd53de8c097194e458b97f3e1",
            "0x000000000000000000000000c5e0b6e472dde70eceffa4c568bd52f2a7a1632a",
            "0x000000000000000000000000a509c7ed1bc160da25f746c36f6c14503bc91a1f",
            "0x000000000000000000000000aa8e23fb1079ea71e0a56f48a2aa51851d8433d0"
          ],
          "data": "0x000000000000000000000000000000000000000000000000000000025a1d2f98",
          "blockHash": "0x3bb2a0637c509fefbe27f6e7932fabbc00067c958bcc559f8cda2f9eb6ac81e9",
          "blockNumber": "0x45924a",
          "transactionHash": "0xb79769bbced853cf7f548272b1fb73bcf3afefb412b4057f78c0a219d701d19c",
          "transactionIndex": "0x1",
          "logIndex": "0x5",
          "removed": false
        }
      ],
      "status": "0x1",
      "logsBloom": "0x00000000000000000000000000002000000000000000000000000000000000000000000000000000000000000000000000000000000000000000000000000000000000000000000000000000000000000000000000000000000000004000100000000000000000000000000080000000000000000000000000000001000000000000000000000000000000000000000000000000000000000000000000000000000000000000000000000000800000000000000040000000020004000000000000000000000000000000000000000000000200100000000000000000000000000000000000000420000000000000000100010000000000000000000000000000",
      "type": "0x2",
      "effectiveGasPrice": "0xfc5f4a59"
    },
    {
      "transactionHash": "0x5241fadadef6f982dceb4cbbbeea972f588ab970a6eb100b5bb155c6f4d613a2",
      "transactionIndex": "0x4",
      "blockHash": "0x34d678d63e41a93cf35fd996fc984e289b6db92c574e4f28a411e850f759189e",
      "blockNumber": "0x45924b",
      "from": "0x3e122A3dB43d225DD5BFFD929AD4176ce69117E0",
      "to": "0x16dA4541aD1807f4443d92D26044C1147406EB80",
      "cumulativeGasUsed": "0x5f8e0",
      "gasUsed": "0x853c",
      "contractAddress": null,
      "logs": [
        {
          "address": "0x16dA4541aD1807f4443d92D26044C1147406EB80",
          "topics": [
            "0x8c5be1e5ebec7d5bd14f71427d1e84f3dd0314c0f7b2291e5b200ac8c7c3b925",
            "0x0000000000000000000000003e122a3db43d225dd5bffd929ad4176ce69117e0",
            "0x000000000000000000000000a509c7ed1bc160da25f746c36f6c14503bc91a1f"
          ],
          "data": "0x000000000000000000000000000000000000000000000000000000029013b583",
          "blockHash": "0x34d678d63e41a93cf35fd996fc984e289b6db92c574e4f28a411e850f759189e",
          "blockNumber": "0x45924b",
          "transactionHash": "0x5241fadadef6f982dceb4cbbbeea972f588ab970a6eb100b5bb155c6f4d613a2",
          "transactionIndex": "0x4",
          "logIndex": "0x7",
          "removed": false
        }
      ],
      "status": "0x1",
      "logsBloom": "0x00000000080000000200000000000000000000000000000000000000000000000000008000000000000000000000000000000000000000000000000000200000000000000000000000000000000000000000000000000000000000004000000000000000000000000000000000000000000000000000000000000000000000000000000000040000000000000000000000000000000000000000000000000000020000000000000000000080000000000000000000000000000000000000000000008000000000000000000000000000000000000000000000000000000000000010000000000420000000000000000000000000000000000000000000000000",
      "type": "0x2",
      "effectiveGasPrice": "0xf71223a3"
    },
    {
      "transactionHash": "0xc8ea3828424f06b461ad677eb138d7ab3f350ae20b556537c45e13a15526bcca",
      "transactionIndex": "0x2",
      "blockHash": "0x726ad8339b9a0e758e56b5a2ad092ef64aa01099cda222e0afcc17a82825b988",
      "blockNumber": "0x45924c",
      "from": "0x3e122A3dB43d225DD5BFFD929AD4176ce69117E0",
      "to": "0xAF0F6e8b0Dc5c913bbF4d14c22B4E78Dd14310B6",
      "cumulativeGasUsed": "0xd128a",
      "gasUsed": "0x7a4c",
      "contractAddress": null,
      "logs": [
        {
          "address": "0xAF0F6e8b0Dc5c913bbF4d14c22B4E78Dd14310B6",
          "topics": [
            "0x8c5be1e5ebec7d5bd14f71427d1e84f3dd0314c0f7b2291e5b200ac8c7c3b925",
            "0x0000000000000000000000003e122a3db43d225dd5bffd929ad4176ce69117e0",
            "0x000000000000000000000000a509c7ed1bc160da25f746c36f6c14503bc91a1f"
          ],
          "data": "0x00000000000000000000000000000000000000000000000000000002541b6449",
          "blockHash": "0x726ad8339b9a0e758e56b5a2ad092ef64aa01099cda222e0afcc17a82825b988",
          "blockNumber": "0x45924c",
          "transactionHash": "0xc8ea3828424f06b461ad677eb138d7ab3f350ae20b556537c45e13a15526bcca",
          "transactionIndex": "0x2",
          "logIndex": "0x0",
          "removed": false
        }
      ],
      "status": "0x1",
      "logsBloom": "0x00000000080000000000000000000000000000000000000000000000000000000000000000000000000000000000000000000000000000000000000000200000000000000000000000000000000000000000000000000000000000004000000000000000000000000000000000000000000000000000000000000000000000000000000000040000000000000000000000000000000000000000000000000000020000000000000000000080000000000000008000000000000000000000000000000000000000000000000000080000000000000000000000000001000000000010000000000420000000000000000000000000000000000000000000000000",
      "type": "0x2",
      "effectiveGasPrice": "0xf2a90842"
    }
  ],
  "libraries": [],
  "pending": [],
  "returns": {},
  "timestamp": 1698230942,
  "chain": 11155111,
  "multi": false,
  "commit": "56fcdfc"
}