{
  "transactions": [
    {
      "hash": "0xa9e664d42b3ff89861247c381e3198e591835f937229c35aa8231cd9925ffffc",
      "transactionType": "CALL",
      "contractName": "InitializableImmutableAdminUpgradeabilityProxy",
      "contractAddress": "0x34a4d932E722b9dFb492B9D8131127690CE2430B",
      "function": "approveDelegation(address,uint256)",
      "arguments": [
        "0x5d6085935AD04FBACC9D025Ba989bEAE91f94090",
        "69955379950810"
      ],
      "transaction": {
        "type": "0x02",
        "from": "0xc5e0b6e472dde70eceffa4c568bd52f2a7a1632a",
        "to": "0x34a4d932e722b9dfb492b9d8131127690ce2430b",
        "gas": "0x12195",
        "value": "0x0",
        "data": "0xc04a8a100000000000000000000000005d6085935ad04fbacc9d025ba989beae91f9409000000000000000000000000000000000000000000000000000003f9fc19274da",
        "nonce": "0x5f",
        "accessList": []
      },
      "additionalContracts": [],
      "isFixedGasLimit": false
    },
    {
      "hash": "0x75ef39f478e85ea834ad172c2651feaefd89fddbb4f8287ce44bb90ac0adf04c",
      "transactionType": "CALL",
      "contractName": "InitializableImmutableAdminUpgradeabilityProxy",
      "contractAddress": "0x9844386d29EEd970B9F6a2B9a676083b0478210e",
      "function": "approveDelegation(address,uint256)",
      "arguments": [
        "0x5d6085935AD04FBACC9D025Ba989bEAE91f94090",
        "109190194"
      ],
      "transaction": {
        "type": "0x02",
        "from": "0xc5e0b6e472dde70eceffa4c568bd52f2a7a1632a",
        "to": "0x9844386d29eed970b9f6a2b9a676083b0478210e",
        "gas": "0x12175",
        "value": "0x0",
        "data": "0xc04a8a100000000000000000000000005d6085935ad04fbacc9d025ba989beae91f940900000000000000000000000000000000000000000000000000000000006821c32",
        "nonce": "0x60",
        "accessList": []
      },
      "additionalContracts": [],
      "isFixedGasLimit": false
    },
    {
      "hash": "0xad4173ab144203581e188f343785a5bd08a56aabadf2dbfd3ec8eaba9f600ea4",
      "transactionType": "CALL",
      "contractName": "InitializableImmutableAdminUpgradeabilityProxy",
      "contractAddress": "0x3FfAf50D4F4E96eB78f2407c090b72e86eCaed24",
      "function": "approve(address,uint256):(bool)",
      "arguments": [
        "0x5d6085935AD04FBACC9D025Ba989bEAE91f94090",
        "1027447968289751177831"
      ],
      "transaction": {
        "type": "0x02",
        "from": "0x3e122a3db43d225dd5bffd929ad4176ce69117e0",
        "to": "0x3ffaf50d4f4e96eb78f2407c090b72e86ecaed24",
        "gas": "0x1148c",
        "value": "0x0",
        "data": "0x095ea7b30000000000000000000000005d6085935ad04fbacc9d025ba989beae91f94090000000000000000000000000000000000000000000000037b2b47381c36e1a67",
        "nonce": "0xb1",
        "accessList": []
      },
      "additionalContracts": [],
      "isFixedGasLimit": false
    },
    {
      "hash": "0xd1faf015a977d37030d680b6844625930be35de669a61ea80e687ce5ed4e9f31",
      "transactionType": "CALL",
      "contractName": "InitializableImmutableAdminUpgradeabilityProxy",
      "contractAddress": "0x16dA4541aD1807f4443d92D26044C1147406EB80",
      "function": "approve(address,uint256):(bool)",
      "arguments": [
        "0x5d6085935AD04FBACC9D025Ba989bEAE91f94090",
        "1017320521"
      ],
      "transaction": {
        "type": "0x02",
        "from": "0x3e122a3db43d225dd5bffd929ad4176ce69117e0",
        "to": "0x16da4541ad1807f4443d92d26044c1147406eb80",
        "gas": "0x11439",
        "value": "0x0",
        "data": "0x095ea7b30000000000000000000000005d6085935ad04fbacc9d025ba989beae91f94090000000000000000000000000000000000000000000000000000000003ca31449",
        "nonce": "0xb2",
        "accessList": []
      },
      "additionalContracts": [],
      "isFixedGasLimit": false
    },
    {
      "hash": "0xcd985026c3150677ac99d98eea3d8520430f9a92b475261ab4190fdc7c21fb72",
      "transactionType": "CALL",
      "contractName": "InitializableImmutableAdminUpgradeabilityProxy",
      "contractAddress": "0x1804Bf30507dc2EB3bDEbbbdd859991EAeF6EefF",
      "function": "approve(address,uint256):(bool)",
      "arguments": [
        "0x5d6085935AD04FBACC9D025Ba989bEAE91f94090",
        "100000001"
      ],
      "transaction": {
        "type": "0x02",
        "from": "0x3e122a3db43d225dd5bffd929ad4176ce69117e0",
        "to": "0x1804bf30507dc2eb3bdebbbdd859991eaef6eeff",
        "gas": "0x11439",
        "value": "0x0",
        "data": "0x095ea7b30000000000000000000000005d6085935ad04fbacc9d025ba989beae91f940900000000000000000000000000000000000000000000000000000000005f5e101",
        "nonce": "0xb3",
        "accessList": []
      },
      "additionalContracts": [],
      "isFixedGasLimit": false
    },
    {
      "hash": "0x880db137f3e0722c56bcf0355366888cbe9009d9b1d4d3c1bcc488bac0805a7a",
      "transactionType": "CALL",
      "contractName": "InitializableImmutableAdminUpgradeabilityProxy",
      "contractAddress": "0xAF0F6e8b0Dc5c913bbF4d14c22B4E78Dd14310B6",
      "function": "approve(address,uint256):(bool)",
      "arguments": [
        "0x5d6085935AD04FBACC9D025Ba989bEAE91f94090",
        "2015883"
      ],
      "transaction": {
        "type": "0x02",
        "from": "0x3e122a3db43d225dd5bffd929ad4176ce69117e0",
        "to": "0xaf0f6e8b0dc5c913bbf4d14c22b4e78dd14310b6",
        "gas": "0x11429",
        "value": "0x0",
        "data": "0x095ea7b30000000000000000000000005d6085935ad04fbacc9d025ba989beae91f9409000000000000000000000000000000000000000000000000000000000001ec28b",
        "nonce": "0xb4",
        "accessList": []
      },
      "additionalContracts": [],
      "isFixedGasLimit": false
    },
    {
      "hash": "0xf25b9abe92a5640b1ff620fff7e826959489de1d43bdae0569c630aec721866c",
      "transactionType": "CALL",
      "contractName": "InitializableImmutableAdminUpgradeabilityProxy",
      "contractAddress": "0x6b8558764d3b7572136F17174Cb9aB1DDc7E1259",
      "function": "approve(address,uint256):(bool)",
      "arguments": [
        "0x5d6085935AD04FBACC9D025Ba989bEAE91f94090",
        "100000000000000000000"
      ],
      "transaction": {
        "type": "0x02",
        "from": "0x3e122a3db43d225dd5bffd929ad4176ce69117e0",
        "to": "0x6b8558764d3b7572136f17174cb9ab1ddc7e1259",
        "gas": "0x1146c",
        "value": "0x0",
        "data": "0x095ea7b30000000000000000000000005d6085935ad04fbacc9d025ba989beae91f940900000000000000000000000000000000000000000000000056bc75e2d63100000",
        "nonce": "0xb5",
        "accessList": []
      },
      "additionalContracts": [],
      "isFixedGasLimit": false
    },
    {
      "hash": "0x0d5aea8fef0b8eee51a66f8cf1bdd70c0f2445aa08cfeb5a3af99a676bc1d630",
      "transactionType": "CALL",
      "contractName": "TeleportAaveV3",
      "contractAddress": "0x5d6085935AD04FBACC9D025Ba989bEAE91f94090",
      "function": "moveAavePositionToAnotherWallet(address,address,address[],uint256[],uint256[],address[],uint256[])",
      "arguments": [
        "0x3e122A3dB43d225DD5BFFD929AD4176ce69117E0",
        "0xC5e0B6E472dDE70eCEfFa4c568Bd52f2A7a1632A",
        "[0xf8Fb3713D459D7C1018BD0A49D19b4C44290EBE5, 0xaA8E23Fb1079EA71e0a56F48a2aA51851D8433D0]",
        "[68583705834128, 107049210]",
        "[0, 0]",
        "[0x3FfAf50D4F4E96eB78f2407c090b72e86eCaed24, 0x16dA4541aD1807f4443d92D26044C1147406EB80, 0x1804Bf30507dc2EB3bDEbbbdd859991EAeF6EefF, 0xAF0F6e8b0Dc5c913bbF4d14c22B4E78Dd14310B6, 0x6b8558764d3b7572136F17174Cb9aB1DDc7E1259]",
        "[1027447968289751177831, 1017320521, 100000001, 2015883, 100000000000000000000]"
      ],
      "transaction": {
        "type": "0x02",
        "from": "0x3e122a3db43d225dd5bffd929ad4176ce69117e0",
        "to": "0x5d6085935ad04fbacc9d025ba989beae91f94090",
        "gas": "0x1693d9",
        "value": "0x0",
        "data": "0x849c37440000000000000000000000003e122a3db43d225dd5bffd929ad4176ce69117e0000000000000000000000000c5e0b6e472dde70eceffa4c568bd52f2a7a1632a00000000000000000000000000000000000000000000000000000000000000e0000000000000000000000000000000000000000000000000000000000000014000000000000000000000000000000000000000000000000000000000000001a0000000000000000000000000000000000000000000000000000000000000020000000000000000000000000000000000000000000000000000000000000002c00000000000000000000000000000000000000000000000000000000000000002000000000000000000000000f8fb3713d459d7c1018bd0a49d19b4c44290ebe5000000000000000000000000aa8e23fb1079ea71e0a56f48a2aa51851d8433d0000000000000000000000000000000000000000000000000000000000000000200000000000000000000000000000000000000000000000000003e60636c729000000000000000000000000000000000000000000000000000000000066170fa00000000000000000000000000000000000000000000000000000000000000020000000000000000000000000000000000000000000000000000000000000000000000000000000000000000000000000000000000000000000000000000000000000000000000000000000000000000000000000000000000000000000000050000000000000000000000003ffaf50d4f4e96eb78f2407c090b72e86ecaed2400000000000000000000000016da4541ad1807f4443d92d26044c1147406eb800000000000000000000000001804bf30507dc2eb3bdebbbdd859991eaef6eeff000000000000000000000000af0f6e8b0dc5c913bbf4d14c22b4e78dd14310b60000000000000000000000006b8558764d3b7572136f17174cb9ab1ddc7e12590000000000000000000000000000000000000000000000000000000000000005000000000000000000000000000000000000000000000037b2b47381c36e1a67000000000000000000000000000000000000000000000000000000003ca314490000000000000000000000000000000000000000000000000000000005f5e10100000000000000000000000000000000000000000000000000000000001ec28b0000000000000000000000000000000000000000000000056bc75e2d63100000",
        "nonce": "0xb6",
        "accessList": []
      },
      "additionalContracts": [],
      "isFixedGasLimit": false
    }
  ],
  "receipts": [
    {
      "transactionHash": "0xa9e664d42b3ff89861247c381e3198e591835f937229c35aa8231cd9925ffffc",
      "transactionIndex": "0x1",
      "blockHash": "0xc4267037de3a0cca2544f9ff964b751c4c82e9c968162a1c8e4379c5c9b7e1d1",
      "blockNumber": "0x460501",
      "from": "0xC5e0B6E472dDE70eCEfFa4c568Bd52f2A7a1632A",
      "to": "0x34a4d932E722b9dFb492B9D8131127690CE2430B",
      "cumulativeGasUsed": "0xaf571",
      "gasUsed": "0xd1a8",
      "contractAddress": null,
      "logs": [
        {
          "address": "0x34a4d932E722b9dFb492B9D8131127690CE2430B",
          "topics": [
            "0xda919360433220e13b51e8c211e490d148e61a3bd53de8c097194e458b97f3e1",
            "0x000000000000000000000000c5e0b6e472dde70eceffa4c568bd52f2a7a1632a",
            "0x0000000000000000000000005d6085935ad04fbacc9d025ba989beae91f94090",
            "0x000000000000000000000000f8fb3713d459d7c1018bd0a49d19b4c44290ebe5"
          ],
          "data": "0x00000000000000000000000000000000000000000000000000003f9fc19274da",
          "blockHash": "0xc4267037de3a0cca2544f9ff964b751c4c82e9c968162a1c8e4379c5c9b7e1d1",
          "blockNumber": "0x460501",
          "transactionHash": "0xa9e664d42b3ff89861247c381e3198e591835f937229c35aa8231cd9925ffffc",
          "transactionIndex": "0x1",
          "logIndex": "0x0",
          "removed": false
        }
      ],
      "status": "0x1",
      "logsBloom": "0x00020000000000000000000000002000000000000000000000000000000000000000000040000000000000000000000000000000008000000000000000000000000000000001000000000000000000000000000000000000000000000000100000000000000020000000000000000000000000000000000000000001000000000000000000000000000000000000000000000000000000000000000000000000000000000000020000000000800000000000000040004000000000000000000000000000000000000000000000000000004000000000000000000000000000000000000000000010000000000000000100000000000000000000000000000000",
      "type": "0x2",
      "effectiveGasPrice": "0xb2d05e0b"
    },
    {
      "transactionHash": "0x75ef39f478e85ea834ad172c2651feaefd89fddbb4f8287ce44bb90ac0adf04c",
      "transactionIndex": "0x0",
      "blockHash": "0xe765c5adcae8238202426846f02b43bbe91204f1bdb27a884ba2419ee781cfa7",
      "blockNumber": "0x460502",
      "from": "0xC5e0B6E472dDE70eCEfFa4c568Bd52f2A7a1632A",
      "to": "0x9844386d29EEd970B9F6a2B9a676083b0478210e",
      "cumulativeGasUsed": "0xd190",
      "gasUsed": "0xd190",
      "contractAddress": null,
      "logs": [
        {
          "address": "0x9844386d29EEd970B9F6a2B9a676083b0478210e",
          "topics": [
            "0xda919360433220e13b51e8c211e490d148e61a3bd53de8c097194e458b97f3e1",
            "0x000000000000000000000000c5e0b6e472dde70eceffa4c568bd52f2a7a1632a",
            "0x0000000000000000000000005d6085935ad04fbacc9d025ba989beae91f94090",
            "0x000000000000000000000000aa8e23fb1079ea71e0a56f48a2aa51851d8433d0"
          ],
          "data": "0x0000000000000000000000000000000000000000000000000000000006821c32",
          "blockHash": "0xe765c5adcae8238202426846f02b43bbe91204f1bdb27a884ba2419ee781cfa7",
          "blockNumber": "0x460502",
          "transactionHash": "0x75ef39f478e85ea834ad172c2651feaefd89fddbb4f8287ce44bb90ac0adf04c",
          "transactionIndex": "0x0",
          "logIndex": "0x0",
          "removed": false
        }
      ],
      "status": "0x1",
      "logsBloom": "0x00000000000000000000000000002000000000000000000000000000000000000000000000000000000000000000000000000000008000000000000000000000000000000000000000000000000000000000000000000000000000000000100000000000000000000000000080000000000000000000000000000001000000000000000000000000000000000000000000000000000000000000000000000000000000000000000000000000800000000000000040004000020004000000000000000000000000000000000000000000000200100000000000000000000000000000000000000010000000000000000100010000000000000000000000000000",
      "type": "0x2",
      "effectiveGasPrice": "0xb2d05e0b"
    },
    {
      "transactionHash": "0xad4173ab144203581e188f343785a5bd08a56aabadf2dbfd3ec8eaba9f600ea4",
      "transactionIndex": "0x0",
      "blockHash": "0x1f4070d64b3d99c5be960be9596947eebabc0073c7c7fd25fcd87464cc47ff34",
      "blockNumber": "0x460503",
      "from": "0x3e122A3dB43d225DD5BFFD929AD4176ce69117E0",
      "to": "0x3FfAf50D4F4E96eB78f2407c090b72e86eCaed24",
      "cumulativeGasUsed": "0xc838",
      "gasUsed": "0xc838",
      "contractAddress": null,
      "logs": [
        {
          "address": "0x3FfAf50D4F4E96eB78f2407c090b72e86eCaed24",
          "topics": [
            "0x8c5be1e5ebec7d5bd14f71427d1e84f3dd0314c0f7b2291e5b200ac8c7c3b925",
            "0x0000000000000000000000003e122a3db43d225dd5bffd929ad4176ce69117e0",
            "0x0000000000000000000000005d6085935ad04fbacc9d025ba989beae91f94090"
          ],
          "data": "0x000000000000000000000000000000000000000000000037b2b47381c36e1a67",
          "blockHash": "0x1f4070d64b3d99c5be960be9596947eebabc0073c7c7fd25fcd87464cc47ff34",
          "blockNumber": "0x460503",
          "transactionHash": "0xad4173ab144203581e188f343785a5bd08a56aabadf2dbfd3ec8eaba9f600ea4",
          "transactionIndex": "0x0",
          "logIndex": "0x0",
          "removed": false
        }
      ],
      "status": "0x1",
      "logsBloom": "0x00000000080000000000000000000000000000000000000000000000000000000000000000000000000000000000000000000000008000000000000000200000000000000000000000000000000000000000000000000000000000000000000000000000000000000000001000000000000000000000000000000000000000000000008000040000000000000000000000000000000000000000000000000000020000000000000000000080000000000000000000004000000000000000000000000000000000000000000000000000000000000000000000000000000000000010000000000010000000000000000000000000000000000000000001000000",
      "type": "0x2",
      "effectiveGasPrice": "0xb2d05e0a"
    },
    {
      "transactionHash": "0xd1faf015a977d37030d680b6844625930be35de669a61ea80e687ce5ed4e9f31",
      "transactionIndex": "0x0",
      "blockHash": "0x916d96746a1032f5a87e2cf73ecd34eac52dd6359ce3fe8de1668d3d68a5b06e",
      "blockNumber": "0x460504",
      "from": "0x3e122A3dB43d225DD5BFFD929AD4176ce69117E0",
      "to": "0x16dA4541aD1807f4443d92D26044C1147406EB80",
      "cumulativeGasUsed": "0xc7fc",
      "gasUsed": "0xc7fc",
      "contractAddress": null,
      "logs": [
        {
          "address": "0x16dA4541aD1807f4443d92D26044C1147406EB80",
          "topics": [
            "0x8c5be1e5ebec7d5bd14f71427d1e84f3dd0314c0f7b2291e5b200ac8c7c3b925",
            "0x0000000000000000000000003e122a3db43d225dd5bffd929ad4176ce69117e0",
            "0x0000000000000000000000005d6085935ad04fbacc9d025ba989beae91f94090"
          ],
          "data": "0x000000000000000000000000000000000000000000000000000000003ca31449",
          "blockHash": "0x916d96746a1032f5a87e2cf73ecd34eac52dd6359ce3fe8de1668d3d68a5b06e",
          "blockNumber": "0x460504",
          "transactionHash": "0xd1faf015a977d37030d680b6844625930be35de669a61ea80e687ce5ed4e9f31",
          "transactionIndex": "0x0",
          "logIndex": "0x0",
          "removed": false
        }
      ],
      "status": "0x1",
      "logsBloom": "0x00000000080000000200000000000000000000000000000000000000000000000000008000000000000000000000000000000000008000000000000000200000000000000000000000000000000000000000000000000000000000000000000000000000000000000000000000000000000000000000000000000000000000000000000000040000000000000000000000000000000000000000000000000000020000000000000000000080000000000000000000004000000000000000000000008000000000000000000000000000000000000000000000000000000000000010000000000010000000000000000000000000000000000000000000000000",
      "type": "0x2",
      "effectiveGasPrice": "0xb2d05e0a"
    },
    {
      "transactionHash": "0xcd985026c3150677ac99d98eea3d8520430f9a92b475261ab4190fdc7c21fb72",
      "transactionIndex": "0x0",
      "blockHash": "0x8aaa6b88159175e79c1508a52d38d2ae67ff2c8e73d30a9dea64fbd694b7ec21",
      "blockNumber": "0x460505",
      "from": "0x3e122A3dB43d225DD5BFFD929AD4176ce69117E0",
      "to": "0x1804Bf30507dc2EB3bDEbbbdd859991EAeF6EefF",
      "cumulativeGasUsed": "0xc7fc",
      "gasUsed": "0xc7fc",
      "contractAddress": null,
      "logs": [
        {
          "address": "0x1804Bf30507dc2EB3bDEbbbdd859991EAeF6EefF",
          "topics": [
            "0x8c5be1e5ebec7d5bd14f71427d1e84f3dd0314c0f7b2291e5b200ac8c7c3b925",
            "0x0000000000000000000000003e122a3db43d225dd5bffd929ad4176ce69117e0",
            "0x0000000000000000000000005d6085935ad04fbacc9d025ba989beae91f94090"
          ],
          "data": "0x0000000000000000000000000000000000000000000000000000000005f5e101",
          "blockHash": "0x8aaa6b88159175e79c1508a52d38d2ae67ff2c8e73d30a9dea64fbd694b7ec21",
          "blockNumber": "0x460505",
          "transactionHash": "0xcd985026c3150677ac99d98eea3d8520430f9a92b475261ab4190fdc7c21fb72",
          "transactionIndex": "0x0",
          "logIndex": "0x0",
          "removed": false
        }
      ],
      "status": "0x1",
      "logsBloom": "0x00000000080000000000000000000000000000000000000000000000000000000000000000000000000000000000000000000000008000000000000000200000000000000000000000000000000000000000000000000000000000000000000000000000000000000000000000000000000000000000000000000000000000000000000000040000000000000000000000000000000000000000000000000000020000000000000000000080000000000000000000004000000002000000000000000000000000000000000000000000000000000000000000000000000000000010000008000010000000000000000000000000000000000000000000000000",
      "type": "0x2",
      "effectiveGasPrice": "0xb2d05e0a"
    },
    {
      "transactionHash": "0x880db137f3e0722c56bcf0355366888cbe9009d9b1d4d3c1bcc488bac0805a7a",
      "transactionIndex": "0x0",
      "blockHash": "0xebace4f76cabf537dccd07a2a2b25de7380b6bdcbc1528bbad6af583b21a1f49",
      "blockNumber": "0x460506",
      "from": "0x3e122A3dB43d225DD5BFFD929AD4176ce69117E0",
      "to": "0xAF0F6e8b0Dc5c913bbF4d14c22B4E78Dd14310B6",
      "cumulativeGasUsed": "0xc7f0",
      "gasUsed": "0xc7f0",
      "contractAddress": null,
      "logs": [
        {
          "address": "0xAF0F6e8b0Dc5c913bbF4d14c22B4E78Dd14310B6",
          "topics": [
            "0x8c5be1e5ebec7d5bd14f71427d1e84f3dd0314c0f7b2291e5b200ac8c7c3b925",
            "0x0000000000000000000000003e122a3db43d225dd5bffd929ad4176ce69117e0",
            "0x0000000000000000000000005d6085935ad04fbacc9d025ba989beae91f94090"
          ],
          "data": "0x00000000000000000000000000000000000000000000000000000000001ec28b",
          "blockHash": "0xebace4f76cabf537dccd07a2a2b25de7380b6bdcbc1528bbad6af583b21a1f49",
          "blockNumber": "0x460506",
          "transactionHash": "0x880db137f3e0722c56bcf0355366888cbe9009d9b1d4d3c1bcc488bac0805a7a",
          "transactionIndex": "0x0",
          "logIndex": "0x0",
          "removed": false
        }
      ],
      "status": "0x1",
      "logsBloom": "0x00000000080000000000000000000000000000000000000000000000000000000000000000000000000000000000000000000000008000000000000000200000000000000000000000000000000000000000000000000000000000000000000000000000000000000000000000000000000000000000000000000000000000000000000000040000000000000000000000000000000000000000000000000000020000000000000000000080000000000000008000004000000000000000000000000000000000000000000000080000000000000000000000000001000000000010000000000010000000000000000000000000000000000000000000000000",
      "type": "0x2",
      "effectiveGasPrice": "0xb2d05e0a"
    },
    {
      "transactionHash": "0xf25b9abe92a5640b1ff620fff7e826959489de1d43bdae0569c630aec721866c",
      "transactionIndex": "0x2",
      "blockHash": "0xe8ae8aa876ec5fe9d74c90aeaee09435b38796a0d4638bf0a4942fa26a867f5c",
      "blockNumber": "0x460507",
      "from": "0x3e122A3dB43d225DD5BFFD929AD4176ce69117E0",
      "to": "0x6b8558764d3b7572136F17174Cb9aB1DDc7E1259",
      "cumulativeGasUsed": "0xd8a8d",
      "gasUsed": "0xc820",
      "contractAddress": null,
      "logs": [
        {
          "address": "0x6b8558764d3b7572136F17174Cb9aB1DDc7E1259",
          "topics": [
            "0x8c5be1e5ebec7d5bd14f71427d1e84f3dd0314c0f7b2291e5b200ac8c7c3b925",
            "0x0000000000000000000000003e122a3db43d225dd5bffd929ad4176ce69117e0",
            "0x0000000000000000000000005d6085935ad04fbacc9d025ba989beae91f94090"
          ],
          "data": "0x0000000000000000000000000000000000000000000000056bc75e2d63100000",
          "blockHash": "0xe8ae8aa876ec5fe9d74c90aeaee09435b38796a0d4638bf0a4942fa26a867f5c",
          "blockNumber": "0x460507",
          "transactionHash": "0xf25b9abe92a5640b1ff620fff7e826959489de1d43bdae0569c630aec721866c",
          "transactionIndex": "0x2",
          "logIndex": "0x1",
          "removed": false
        }
      ],
      "status": "0x1",
      "logsBloom": "0x00000000080000000000000000000800000000000000000000000000000000000000000000000000000000000000000000000000008000000000000000200000000000000000000000002000000000000000000000000000000000000000000000000000000000000000000000000000000000000000000000000000000000000000000000040000000000000000000000000000000000000000000000000000020000000000000000000080000000000000000000004000000000000000000000000000000000000000000000000000000000000000000000000000000000000010000400000010000000000000000000000000000000000000000000000000",
      "type": "0x2",
      "effectiveGasPrice": "0xb2d05e0a"
    },
    {
      "transactionHash": "0x0d5aea8fef0b8eee51a66f8cf1bdd70c0f2445aa08cfeb5a3af99a676bc1d630",
      "transactionIndex": "0x0",
      "blockHash": "0x598c3cd75f39dcb7592d9003f5422a5fcf4e79dc540142e6e8427985c10dd01c",
      "blockNumber": "0x460508",
      "from": "0x3e122A3dB43d225DD5BFFD929AD4176ce69117E0",
      "to": "0x5d6085935AD04FBACC9D025Ba989bEAE91f94090",
      "cumulativeGasUsed": "0xf8724",
      "gasUsed": "0xf8724",
      "contractAddress": null,
      "logs": [
        {
          "address": "0xf8Fb3713D459D7C1018BD0A49D19b4C44290EBE5",
          "topics": [
            "0xddf252ad1be2c89b69c2b068fc378daa952ba7f163c4a11628f55a4df523b3ef",
            "0x0000000000000000000000003ffaf50d4f4e96eb78f2407c090b72e86ecaed24",
            "0x0000000000000000000000005d6085935ad04fbacc9d025ba989beae91f94090"
          ],
          "data": "0x00000000000000000000000000000000000000000000000000003e60636c7290",
          "blockHash": "0x598c3cd75f39dcb7592d9003f5422a5fcf4e79dc540142e6e8427985c10dd01c",
          "blockNumber": "0x460508",
          "transactionHash": "0x0d5aea8fef0b8eee51a66f8cf1bdd70c0f2445aa08cfeb5a3af99a676bc1d630",
          "transactionIndex": "0x0",
          "logIndex": "0x0",
          "removed": false
        },
        {
          "address": "0xaA8E23Fb1079EA71e0a56F48a2aA51851D8433D0",
          "topics": [
            "0xddf252ad1be2c89b69c2b068fc378daa952ba7f163c4a11628f55a4df523b3ef",
            "0x000000000000000000000000af0f6e8b0dc5c913bbf4d14c22b4e78dd14310b6",
            "0x0000000000000000000000005d6085935ad04fbacc9d025ba989beae91f94090"
          ],
          "data": "0x00000000000000000000000000000000000000000000000000000000066170fa",
          "blockHash": "0x598c3cd75f39dcb7592d9003f5422a5fcf4e79dc540142e6e8427985c10dd01c",
          "blockNumber": "0x460508",
          "transactionHash": "0x0d5aea8fef0b8eee51a66f8cf1bdd70c0f2445aa08cfeb5a3af99a676bc1d630",
          "transactionIndex": "0x0",
          "logIndex": "0x1",
          "removed": false
        },
        {
          "address": "0xf8Fb3713D459D7C1018BD0A49D19b4C44290EBE5",
          "topics": [
            "0x8c5be1e5ebec7d5bd14f71427d1e84f3dd0314c0f7b2291e5b200ac8c7c3b925",
            "0x0000000000000000000000005d6085935ad04fbacc9d025ba989beae91f94090",
            "0x0000000000000000000000006ae43d3271ff6888e7fc43fd7321a503ff738951"
          ],
          "data": "0x00000000000000000000000000000000000000000000000000003e60636c7290",
          "blockHash": "0x598c3cd75f39dcb7592d9003f5422a5fcf4e79dc540142e6e8427985c10dd01c",
          "blockNumber": "0x460508",
          "transactionHash": "0x0d5aea8fef0b8eee51a66f8cf1bdd70c0f2445aa08cfeb5a3af99a676bc1d630",
          "transactionIndex": "0x0",
          "logIndex": "0x2",
          "removed": false
        },
        {
          "address": "0x34a4d932E722b9dFb492B9D8131127690CE2430B",
          "topics": [
            "0xddf252ad1be2c89b69c2b068fc378daa952ba7f163c4a11628f55a4df523b3ef",
            "0x0000000000000000000000003e122a3db43d225dd5bffd929ad4176ce69117e0",
            "0x0000000000000000000000000000000000000000000000000000000000000000"
          ],
          "data": "0x00000000000000000000000000000000000000000000000000003e5d660eaab5",
          "blockHash": "0x598c3cd75f39dcb7592d9003f5422a5fcf4e79dc540142e6e8427985c10dd01c",
          "blockNumber": "0x460508",
          "transactionHash": "0x0d5aea8fef0b8eee51a66f8cf1bdd70c0f2445aa08cfeb5a3af99a676bc1d630",
          "transactionIndex": "0x0",
          "logIndex": "0x3",
          "removed": false
        },
        {
          "address": "0x34a4d932E722b9dFb492B9D8131127690CE2430B",
          "topics": [
            "0x4cf25bc1d991c17529c25213d3cc0cda295eeaad5f13f361969b12ea48015f90",
            "0x0000000000000000000000003e122a3db43d225dd5bffd929ad4176ce69117e0",
            "0x0000000000000000000000000000000000000000000000000000000000000000"
          ],
          "data": "0x00000000000000000000000000000000000000000000000000003e5d660eaab500000000000000000000000000000000000000000000000000000002fd5dc7db0000000000000000000000000000000000000000038c5f271b98ab9d8d2f9959",
          "blockHash": "0x598c3cd75f39dcb7592d9003f5422a5fcf4e79dc540142e6e8427985c10dd01c",
          "blockNumber": "0x460508",
          "transactionHash": "0x0d5aea8fef0b8eee51a66f8cf1bdd70c0f2445aa08cfeb5a3af99a676bc1d630",
          "transactionIndex": "0x0",
          "logIndex": "0x4",
          "removed": false
        },
        {
          "address": "0x6Ae43d3271ff6888e7Fc43Fd7321a503ff738951",
          "topics": [
            "0x804c9b842b2748a22bb64b345453a3de7ca54a6ca45ce00d415894979e22897a",
            "0x000000000000000000000000f8fb3713d459d7c1018bd0a49d19b4c44290ebe5"
          ],
          "data": "0x000000000000000000000000000000000000000007602ae0e6a5b0095f00b2ef000000000000000000000000000000000000000009c146b2ce59caccdd8b422900000000000000000000000000000000000000000976d47507a5bf42438b4229000000000000000000000000000000000000000003789502e12d41a649c7f7d90000000000000000000000000000000000000000038c5f271b98ab9d8d2f9959",
          "blockHash": "0x598c3cd75f39dcb7592d9003f5422a5fcf4e79dc540142e6e8427985c10dd01c",
          "blockNumber": "0x460508",
          "transactionHash": "0x0d5aea8fef0b8eee51a66f8cf1bdd70c0f2445aa08cfeb5a3af99a676bc1d630",
          "transactionIndex": "0x0",
          "logIndex": "0x5",
          "removed": false
        },
        {
          "address": "0xf8Fb3713D459D7C1018BD0A49D19b4C44290EBE5",
          "topics": [
            "0xddf252ad1be2c89b69c2b068fc378daa952ba7f163c4a11628f55a4df523b3ef",
            "0x0000000000000000000000005d6085935ad04fbacc9d025ba989beae91f94090",
            "0x0000000000000000000000003ffaf50d4f4e96eb78f2407c090b72e86ecaed24"
          ],
          "data": "0x00000000000000000000000000000000000000000000000000003e60636c7290",
          "blockHash": "0x598c3cd75f39dcb7592d9003f5422a5fcf4e79dc540142e6e8427985c10dd01c",
          "blockNumber": "0x460508",
          "transactionHash": "0x0d5aea8fef0b8eee51a66f8cf1bdd70c0f2445aa08cfeb5a3af99a676bc1d630",
          "transactionIndex": "0x0",
          "logIndex": "0x6",
          "removed": false
        },
        {
          "address": "0xf8Fb3713D459D7C1018BD0A49D19b4C44290EBE5",
          "topics": [
            "0x8c5be1e5ebec7d5bd14f71427d1e84f3dd0314c0f7b2291e5b200ac8c7c3b925",
            "0x0000000000000000000000005d6085935ad04fbacc9d025ba989beae91f94090",
            "0x0000000000000000000000006ae43d3271ff6888e7fc43fd7321a503ff738951"
          ],
          "data": "0x0000000000000000000000000000000000000000000000000000000000000000",
          "blockHash": "0x598c3cd75f39dcb7592d9003f5422a5fcf4e79dc540142e6e8427985c10dd01c",
          "blockNumber": "0x460508",
          "transactionHash": "0x0d5aea8fef0b8eee51a66f8cf1bdd70c0f2445aa08cfeb5a3af99a676bc1d630",
          "transactionIndex": "0x0",
          "logIndex": "0x7",
          "removed": false
        },
        {
          "address": "0x6Ae43d3271ff6888e7Fc43Fd7321a503ff738951",
          "topics": [
            "0xa534c8dbe71f871f9f3530e97a74601fea17b426cae02e1c5aee42c96c784051",
            "0x000000000000000000000000f8fb3713d459d7c1018bd0a49d19b4c44290ebe5",
            "0x0000000000000000000000003e122a3db43d225dd5bffd929ad4176ce69117e0",
            "0x0000000000000000000000005d6085935ad04fbacc9d025ba989beae91f94090"
          ],
          "data": "0x00000000000000000000000000000000000000000000000000003e60636c72900000000000000000000000000000000000000000000000000000000000000000",
          "blockHash": "0x598c3cd75f39dcb7592d9003f5422a5fcf4e79dc540142e6e8427985c10dd01c",
          "blockNumber": "0x460508",
          "transactionHash": "0x0d5aea8fef0b8eee51a66f8cf1bdd70c0f2445aa08cfeb5a3af99a676bc1d630",
          "transactionIndex": "0x0",
          "logIndex": "0x8",
          "removed": false
        },
        {
          "address": "0xaA8E23Fb1079EA71e0a56F48a2aA51851D8433D0",
          "topics": [
            "0x8c5be1e5ebec7d5bd14f71427d1e84f3dd0314c0f7b2291e5b200ac8c7c3b925",
            "0x0000000000000000000000005d6085935ad04fbacc9d025ba989beae91f94090",
            "0x0000000000000000000000006ae43d3271ff6888e7fc43fd7321a503ff738951"
          ],
          "data": "0x00000000000000000000000000000000000000000000000000000000066170fa",
          "blockHash": "0x598c3cd75f39dcb7592d9003f5422a5fcf4e79dc540142e6e8427985c10dd01c",
          "blockNumber": "0x460508",
          "transactionHash": "0x0d5aea8fef0b8eee51a66f8cf1bdd70c0f2445aa08cfeb5a3af99a676bc1d630",
          "transactionIndex": "0x0",
          "logIndex": "0x9",
          "removed": false
        },
        {
          "address": "0x9844386d29EEd970B9F6a2B9a676083b0478210e",
          "topics": [
            "0xddf252ad1be2c89b69c2b068fc378daa952ba7f163c4a11628f55a4df523b3ef",
            "0x0000000000000000000000003e122a3db43d225dd5bffd929ad4176ce69117e0",
            "0x0000000000000000000000000000000000000000000000000000000000000000"
          ],
          "data": "0x00000000000000000000000000000000000000000000000000000000066170f6",
          "blockHash": "0x598c3cd75f39dcb7592d9003f5422a5fcf4e79dc540142e6e8427985c10dd01c",
          "blockNumber": "0x460508",
          "transactionHash": "0x0d5aea8fef0b8eee51a66f8cf1bdd70c0f2445aa08cfeb5a3af99a676bc1d630",
          "transactionIndex": "0x0",
          "logIndex": "0xa",
          "removed": false
        },
        {
          "address": "0x9844386d29EEd970B9F6a2B9a676083b0478210e",
          "topics": [
            "0x4cf25bc1d991c17529c25213d3cc0cda295eeaad5f13f361969b12ea48015f90",
            "0x0000000000000000000000003e122a3db43d225dd5bffd929ad4176ce69117e0",
            "0x0000000000000000000000000000000000000000000000000000000000000000"
          ],
          "data": "0x00000000000000000000000000000000000000000000000000000000066170f6000000000000000000000000000000000000000000000000000000000000000400000000000000000000000000000000000000000344fbb2c8ae91ffd09eb511",
          "blockHash": "0x598c3cd75f39dcb7592d9003f5422a5fcf4e79dc540142e6e8427985c10dd01c",
          "blockNumber": "0x460508",
          "transactionHash": "0x0d5aea8fef0b8eee51a66f8cf1bdd70c0f2445aa08cfeb5a3af99a676bc1d630",
          "transactionIndex": "0x0",
          "logIndex": "0xb",
          "removed": false
        },
        {
          "address": "0x6Ae43d3271ff6888e7Fc43Fd7321a503ff738951",
          "topics": [
            "0x804c9b842b2748a22bb64b345453a3de7ca54a6ca45ce00d415894979e22897a",
            "0x000000000000000000000000aa8e23fb1079ea71e0a56f48a2aa51851d8433d0"
          ],
          "data": "0x000000000000000000000000000000000000000000000c9b92ca4e7941477666000000000000000000000000000000000000000000296a60adeeb4e46f5aa9120000000000000000000000000000000000000000000073b9fc5573d7ead5489300000000000000000000000000000000000000000342a9099f62c2eceb5a570000000000000000000000000000000000000000000344fbb2c8ae91ffd09eb511",
          "blockHash": "0x598c3cd75f39dcb7592d9003f5422a5fcf4e79dc540142e6e8427985c10dd01c",
          "blockNumber": "0x460508",
          "transactionHash": "0x0d5aea8fef0b8eee51a66f8cf1bdd70c0f2445aa08cfeb5a3af99a676bc1d630",
          "transactionIndex": "0x0",
          "logIndex": "0xc",
          "removed": false
        },
        {
          "address": "0xaA8E23Fb1079EA71e0a56F48a2aA51851D8433D0",
          "topics": [
            "0xddf252ad1be2c89b69c2b068fc378daa952ba7f163c4a11628f55a4df523b3ef",
            "0x0000000000000000000000005d6085935ad04fbacc9d025ba989beae91f94090",
            "0x000000000000000000000000af0f6e8b0dc5c913bbf4d14c22b4e78dd14310b6"
          ],
          "data": "0x00000000000000000000000000000000000000000000000000000000066170fa",
          "blockHash": "0x598c3cd75f39dcb7592d9003f5422a5fcf4e79dc540142e6e8427985c10dd01c",
          "blockNumber": "0x460508",
          "transactionHash": "0x0d5aea8fef0b8eee51a66f8cf1bdd70c0f2445aa08cfeb5a3af99a676bc1d630",
          "transactionIndex": "0x0",
          "logIndex": "0xd",
          "removed": false
        },
        {
          "address": "0xaA8E23Fb1079EA71e0a56F48a2aA51851D8433D0",
          "topics": [
            "0x8c5be1e5ebec7d5bd14f71427d1e84f3dd0314c0f7b2291e5b200ac8c7c3b925",
            "0x0000000000000000000000005d6085935ad04fbacc9d025ba989beae91f94090",
            "0x0000000000000000000000006ae43d3271ff6888e7fc43fd7321a503ff738951"
          ],
          "data": "0x0000000000000000000000000000000000000000000000000000000000000000",
          "blockHash": "0x598c3cd75f39dcb7592d9003f5422a5fcf4e79dc540142e6e8427985c10dd01c",
          "blockNumber": "0x460508",
          "transactionHash": "0x0d5aea8fef0b8eee51a66f8cf1bdd70c0f2445aa08cfeb5a3af99a676bc1d630",
          "transactionIndex": "0x0",
          "logIndex": "0xe",
          "removed": false
        },
        {
          "address": "0x6Ae43d3271ff6888e7Fc43Fd7321a503ff738951",
          "topics": [
            "0xa534c8dbe71f871f9f3530e97a74601fea17b426cae02e1c5aee42c96c784051",
            "0x000000000000000000000000aa8e23fb1079ea71e0a56f48a2aa51851d8433d0",
            "0x0000000000000000000000003e122a3db43d225dd5bffd929ad4176ce69117e0",
            "0x0000000000000000000000005d6085935ad04fbacc9d025ba989beae91f94090"
          ],
          "data": "0x00000000000000000000000000000000000000000000000000000000066170fa0000000000000000000000000000000000000000000000000000000000000000",
          "blockHash": "0x598c3cd75f39dcb7592d9003f5422a5fcf4e79dc540142e6e8427985c10dd01c",
          "blockNumber": "0x460508",
          "transactionHash": "0x0d5aea8fef0b8eee51a66f8cf1bdd70c0f2445aa08cfeb5a3af99a676bc1d630",
          "transactionIndex": "0x0",
          "logIndex": "0xf",
          "removed": false
        },
        {
          "address": "0x3FfAf50D4F4E96eB78f2407c090b72e86eCaed24",
          "topics": [
            "0x8c5be1e5ebec7d5bd14f71427d1e84f3dd0314c0f7b2291e5b200ac8c7c3b925",
            "0x0000000000000000000000003e122a3db43d225dd5bffd929ad4176ce69117e0",
            "0x0000000000000000000000005d6085935ad04fbacc9d025ba989beae91f94090"
          ],
          "data": "0x0000000000000000000000000000000000000000000000000000000000000000",
          "blockHash": "0x598c3cd75f39dcb7592d9003f5422a5fcf4e79dc540142e6e8427985c10dd01c",
          "blockNumber": "0x460508",
          "transactionHash": "0x0d5aea8fef0b8eee51a66f8cf1bdd70c0f2445aa08cfeb5a3af99a676bc1d630",
          "transactionIndex": "0x0",
          "logIndex": "0x10",
          "removed": false
        },
        {
          "address": "0x3FfAf50D4F4E96eB78f2407c090b72e86eCaed24",
          "topics": [
            "0xddf252ad1be2c89b69c2b068fc378daa952ba7f163c4a11628f55a4df523b3ef",
            "0x0000000000000000000000000000000000000000000000000000000000000000",
            "0x0000000000000000000000003e122a3db43d225dd5bffd929ad4176ce69117e0"
          ],
          "data": "0x000000000000000000000000000000000000000000000000021492e1484d2fc3",
          "blockHash": "0x598c3cd75f39dcb7592d9003f5422a5fcf4e79dc540142e6e8427985c10dd01c",
          "blockNumber": "0x460508",
          "transactionHash": "0x0d5aea8fef0b8eee51a66f8cf1bdd70c0f2445aa08cfeb5a3af99a676bc1d630",
          "transactionIndex": "0x0",
          "logIndex": "0x11",
          "removed": false
        },
        {
          "address": "0x3FfAf50D4F4E96eB78f2407c090b72e86eCaed24",
          "topics": [
            "0x458f5fa412d0f69b08dd84872b0215675cc67bc1d5b6fd93300a1c3878b86196",
            "0x0000000000000000000000005d6085935ad04fbacc9d025ba989beae91f94090",
            "0x0000000000000000000000003e122a3db43d225dd5bffd929ad4176ce69117e0"
          ],
          "data": "0x000000000000000000000000000000000000000000000000021492e1484d2fc3000000000000000000000000000000000000000000000000021492e1484d2fc3000000000000000000000000000000000000000003789502e12d41a649c7f7d9",
          "blockHash": "0x598c3cd75f39dcb7592d9003f5422a5fcf4e79dc540142e6e8427985c10dd01c",
          "blockNumber": "0x460508",
          "transactionHash": "0x0d5aea8fef0b8eee51a66f8cf1bdd70c0f2445aa08cfeb5a3af99a676bc1d630",
          "transactionIndex": "0x0",
          "logIndex": "0x12",
          "removed": false
        },
        {
          "address": "0x3FfAf50D4F4E96eB78f2407c090b72e86eCaed24",
          "topics": [
            "0xddf252ad1be2c89b69c2b068fc378daa952ba7f163c4a11628f55a4df523b3ef",
            "0x0000000000000000000000000000000000000000000000000000000000000000",
            "0x000000000000000000000000c5e0b6e472dde70eceffa4c568bd52f2a7a1632a"
          ],
          "data": "0x00000000000000000000000000000000000000000000000000000189ac51cfc7",
          "blockHash": "0x598c3cd75f39dcb7592d9003f5422a5fcf4e79dc540142e6e8427985c10dd01c",
          "blockNumber": "0x460508",
          "transactionHash": "0x0d5aea8fef0b8eee51a66f8cf1bdd70c0f2445aa08cfeb5a3af99a676bc1d630",
          "transactionIndex": "0x0",
          "logIndex": "0x13",
          "removed": false
        },
        {
          "address": "0x3FfAf50D4F4E96eB78f2407c090b72e86eCaed24",
          "topics": [
            "0x458f5fa412d0f69b08dd84872b0215675cc67bc1d5b6fd93300a1c3878b86196",
            "0x0000000000000000000000005d6085935ad04fbacc9d025ba989beae91f94090",
            "0x000000000000000000000000c5e0b6e472dde70eceffa4c568bd52f2a7a1632a"
          ],
          "data": "0x00000000000000000000000000000000000000000000000000000189ac51cfc700000000000000000000000000000000000000000000000000000189ac51cfc7000000000000000000000000000000000000000003789502e12d41a649c7f7d9",
          "blockHash": "0x598c3cd75f39dcb7592d9003f5422a5fcf4e79dc540142e6e8427985c10dd01c",
          "blockNumber": "0x460508",
          "transactionHash": "0x0d5aea8fef0b8eee51a66f8cf1bdd70c0f2445aa08cfeb5a3af99a676bc1d630",
          "transactionIndex": "0x0",
          "logIndex": "0x14",
          "removed": false
        },
        {
          "address": "0x3FfAf50D4F4E96eB78f2407c090b72e86eCaed24",
          "topics": [
            "0xddf252ad1be2c89b69c2b068fc378daa952ba7f163c4a11628f55a4df523b3ef",
            "0x0000000000000000000000003e122a3db43d225dd5bffd929ad4176ce69117e0",
            "0x000000000000000000000000c5e0b6e472dde70eceffa4c568bd52f2a7a1632a"
          ],
          "data": "0x000000000000000000000000000000000000000000000037b2b47381c36e1a67",
          "blockHash": "0x598c3cd75f39dcb7592d9003f5422a5fcf4e79dc540142e6e8427985c10dd01c",
          "blockNumber": "0x460508",
          "transactionHash": "0x0d5aea8fef0b8eee51a66f8cf1bdd70c0f2445aa08cfeb5a3af99a676bc1d630",
          "transactionIndex": "0x0",
          "logIndex": "0x15",
          "removed": false
        },
        {
          "address": "0x3FfAf50D4F4E96eB78f2407c090b72e86eCaed24",
          "topics": [
            "0x4beccb90f994c31aced7a23b5611020728a23d8ec5cddd1a3e9d97b96fda8666",
            "0x0000000000000000000000003e122a3db43d225dd5bffd929ad4176ce69117e0",
            "0x000000000000000000000000c5e0b6e472dde70eceffa4c568bd52f2a7a1632a"
          ],
          "data": "0x000000000000000000000000000000000000000000000033d96bda4679548f9b000000000000000000000000000000000000000003789502e12d41a649c7f7d9",
          "blockHash": "0x598c3cd75f39dcb7592d9003f5422a5fcf4e79dc540142e6e8427985c10dd01c",
          "blockNumber": "0x460508",
          "transactionHash": "0x0d5aea8fef0b8eee51a66f8cf1bdd70c0f2445aa08cfeb5a3af99a676bc1d630",
          "transactionIndex": "0x0",
          "logIndex": "0x16",
          "removed": false
        },
        {
          "address": "0x16dA4541aD1807f4443d92D26044C1147406EB80",
          "topics": [
            "0x8c5be1e5ebec7d5bd14f71427d1e84f3dd0314c0f7b2291e5b200ac8c7c3b925",
            "0x0000000000000000000000003e122a3db43d225dd5bffd929ad4176ce69117e0",
            "0x0000000000000000000000005d6085935ad04fbacc9d025ba989beae91f94090"
          ],
          "data": "0x0000000000000000000000000000000000000000000000000000000000000000",
          "blockHash": "0x598c3cd75f39dcb7592d9003f5422a5fcf4e79dc540142e6e8427985c10dd01c",
          "blockNumber": "0x460508",
          "transactionHash": "0x0d5aea8fef0b8eee51a66f8cf1bdd70c0f2445aa08cfeb5a3af99a676bc1d630",
          "transactionIndex": "0x0",
          "logIndex": "0x17",
          "removed": false
        },
        {
          "address": "0x16dA4541aD1807f4443d92D26044C1147406EB80",
          "topics": [
            "0xddf252ad1be2c89b69c2b068fc378daa952ba7f163c4a11628f55a4df523b3ef",
            "0x0000000000000000000000000000000000000000000000000000000000000000",
            "0x0000000000000000000000003e122a3db43d225dd5bffd929ad4176ce69117e0"
          ],
          "data": "0x0000000000000000000000000000000000000000000000000000000000000238",
          "blockHash": "0x598c3cd75f39dcb7592d9003f5422a5fcf4e79dc540142e6e8427985c10dd01c",
          "blockNumber": "0x460508",
          "transactionHash": "0x0d5aea8fef0b8eee51a66f8cf1bdd70c0f2445aa08cfeb5a3af99a676bc1d630",
          "transactionIndex": "0x0",
          "logIndex": "0x18",
          "removed": false
        },
        {
          "address": "0x16dA4541aD1807f4443d92D26044C1147406EB80",
          "topics": [
            "0x458f5fa412d0f69b08dd84872b0215675cc67bc1d5b6fd93300a1c3878b86196",
            "0x0000000000000000000000005d6085935ad04fbacc9d025ba989beae91f94090",
            "0x0000000000000000000000003e122a3db43d225dd5bffd929ad4176ce69117e0"
          ],
          "data": "0x00000000000000000000000000000000000000000000000000000000000002380000000000000000000000000000000000000000000000000000000000000238000000000000000000000000000000000000000003495ff2713977ac9783cf22",
          "blockHash": "0x598c3cd75f39dcb7592d9003f5422a5fcf4e79dc540142e6e8427985c10dd01c",
          "blockNumber": "0x460508",
          "transactionHash": "0x0d5aea8fef0b8eee51a66f8cf1bdd70c0f2445aa08cfeb5a3af99a676bc1d630",
          "transactionIndex": "0x0",
          "logIndex": "0x19",
          "removed": false
        },
        {
          "address": "0x16dA4541aD1807f4443d92D26044C1147406EB80",
          "topics": [
            "0xddf252ad1be2c89b69c2b068fc378daa952ba7f163c4a11628f55a4df523b3ef",
            "0x0000000000000000000000003e122a3db43d225dd5bffd929ad4176ce69117e0",
            "0x000000000000000000000000c5e0b6e472dde70eceffa4c568bd52f2a7a1632a"
          ],
          "data": "0x000000000000000000000000000000000000000000000000000000003ca31449",
          "blockHash": "0x598c3cd75f39dcb7592d9003f5422a5fcf4e79dc540142e6e8427985c10dd01c",
          "blockNumber": "0x460508",
          "transactionHash": "0x0d5aea8fef0b8eee51a66f8cf1bdd70c0f2445aa08cfeb5a3af99a676bc1d630",
          "transactionIndex": "0x0",
          "logIndex": "0x1a",
          "removed": false
        },
        {
          "address": "0x16dA4541aD1807f4443d92D26044C1147406EB80",
          "topics": [
            "0x4beccb90f994c31aced7a23b5611020728a23d8ec5cddd1a3e9d97b96fda8666",
            "0x0000000000000000000000003e122a3db43d225dd5bffd929ad4176ce69117e0",
            "0x000000000000000000000000c5e0b6e472dde70eceffa4c568bd52f2a7a1632a"
          ],
          "data": "0x000000000000000000000000000000000000000000000000000000003b9d3391000000000000000000000000000000000000000003495ff2713977ac9783cf22",
          "blockHash": "0x598c3cd75f39dcb7592d9003f5422a5fcf4e79dc540142e6e8427985c10dd01c",
          "blockNumber": "0x460508",
          "transactionHash": "0x0d5aea8fef0b8eee51a66f8cf1bdd70c0f2445aa08cfeb5a3af99a676bc1d630",
          "transactionIndex": "0x0",
          "logIndex": "0x1b",
          "removed": false
        },
        {
          "address": "0x1804Bf30507dc2EB3bDEbbbdd859991EAeF6EefF",
          "topics": [
            "0x8c5be1e5ebec7d5bd14f71427d1e84f3dd0314c0f7b2291e5b200ac8c7c3b925",
            "0x0000000000000000000000003e122a3db43d225dd5bffd929ad4176ce69117e0",
            "0x0000000000000000000000005d6085935ad04fbacc9d025ba989beae91f94090"
          ],
          "data": "0x0000000000000000000000000000000000000000000000000000000000000000",
          "blockHash": "0x598c3cd75f39dcb7592d9003f5422a5fcf4e79dc540142e6e8427985c10dd01c",
          "blockNumber": "0x460508",
          "transactionHash": "0x0d5aea8fef0b8eee51a66f8cf1bdd70c0f2445aa08cfeb5a3af99a676bc1d630",
          "transactionIndex": "0x0",
          "logIndex": "0x1c",
          "removed": false
        },
        {
          "address": "0x1804Bf30507dc2EB3bDEbbbdd859991EAeF6EefF",
          "topics": [
            "0xddf252ad1be2c89b69c2b068fc378daa952ba7f163c4a11628f55a4df523b3ef",
            "0x0000000000000000000000003e122a3db43d225dd5bffd929ad4176ce69117e0",
            "0x000000000000000000000000c5e0b6e472dde70eceffa4c568bd52f2a7a1632a"
          ],
          "data": "0x0000000000000000000000000000000000000000000000000000000005f5e101",
          "blockHash": "0x598c3cd75f39dcb7592d9003f5422a5fcf4e79dc540142e6e8427985c10dd01c",
          "blockNumber": "0x460508",
          "transactionHash": "0x0d5aea8fef0b8eee51a66f8cf1bdd70c0f2445aa08cfeb5a3af99a676bc1d630",
          "transactionIndex": "0x0",
          "logIndex": "0x1d",
          "removed": false
        },
        {
          "address": "0x6Ae43d3271ff6888e7Fc43Fd7321a503ff738951",
          "topics": [
            "0x00058a56ea94653cdf4f152d227ace22d4c00ad99e2a43f58cb7d9e3feb295f2",
            "0x00000000000000000000000029f2d40b0605204364af54ec677bd022da425d03",
            "0x000000000000000000000000c5e0b6e472dde70eceffa4c568bd52f2a7a1632a"
          ],
          "data": "0x",
          "blockHash": "0x598c3cd75f39dcb7592d9003f5422a5fcf4e79dc540142e6e8427985c10dd01c",
          "blockNumber": "0x460508",
          "transactionHash": "0x0d5aea8fef0b8eee51a66f8cf1bdd70c0f2445aa08cfeb5a3af99a676bc1d630",
          "transactionIndex": "0x0",
          "logIndex": "0x1e",
          "removed": false
        },
        {
          "address": "0x1804Bf30507dc2EB3bDEbbbdd859991EAeF6EefF",
          "topics": [
            "0x4beccb90f994c31aced7a23b5611020728a23d8ec5cddd1a3e9d97b96fda8666",
            "0x0000000000000000000000003e122a3db43d225dd5bffd929ad4176ce69117e0",
            "0x000000000000000000000000c5e0b6e472dde70eceffa4c568bd52f2a7a1632a"
          ],
          "data": "0x0000000000000000000000000000000000000000000000000000000005f5a3fb0000000000000000000000000000000000000000033b4f526b403131fcc738cb",
          "blockHash": "0x598c3cd75f39dcb7592d9003f5422a5fcf4e79dc540142e6e8427985c10dd01c",
          "blockNumber": "0x460508",
          "transactionHash": "0x0d5aea8fef0b8eee51a66f8cf1bdd70c0f2445aa08cfeb5a3af99a676bc1d630",
          "transactionIndex": "0x0",
          "logIndex": "0x1f",
          "removed": false
        },
        {
          "address": "0xAF0F6e8b0Dc5c913bbF4d14c22B4E78Dd14310B6",
          "topics": [
            "0x8c5be1e5ebec7d5bd14f71427d1e84f3dd0314c0f7b2291e5b200ac8c7c3b925",
            "0x0000000000000000000000003e122a3db43d225dd5bffd929ad4176ce69117e0",
            "0x0000000000000000000000005d6085935ad04fbacc9d025ba989beae91f94090"
          ],
          "data": "0x0000000000000000000000000000000000000000000000000000000000000000",
          "blockHash": "0x598c3cd75f39dcb7592d9003f5422a5fcf4e79dc540142e6e8427985c10dd01c",
          "blockNumber": "0x460508",
          "transactionHash": "0x0d5aea8fef0b8eee51a66f8cf1bdd70c0f2445aa08cfeb5a3af99a676bc1d630",
          "transactionIndex": "0x0",
          "logIndex": "0x20",
          "removed": false
        },
        {
          "address": "0xAF0F6e8b0Dc5c913bbF4d14c22B4E78Dd14310B6",
          "topics": [
            "0xddf252ad1be2c89b69c2b068fc378daa952ba7f163c4a11628f55a4df523b3ef",
            "0x0000000000000000000000003e122a3db43d225dd5bffd929ad4176ce69117e0",
            "0x000000000000000000000000c5e0b6e472dde70eceffa4c568bd52f2a7a1632a"
          ],
          "data": "0x00000000000000000000000000000000000000000000000000000000001ec28b",
          "blockHash": "0x598c3cd75f39dcb7592d9003f5422a5fcf4e79dc540142e6e8427985c10dd01c",
          "blockNumber": "0x460508",
          "transactionHash": "0x0d5aea8fef0b8eee51a66f8cf1bdd70c0f2445aa08cfeb5a3af99a676bc1d630",
          "transactionIndex": "0x0",
          "logIndex": "0x21",
          "removed": false
        },
        {
          "address": "0xAF0F6e8b0Dc5c913bbF4d14c22B4E78Dd14310B6",
          "topics": [
            "0x4beccb90f994c31aced7a23b5611020728a23d8ec5cddd1a3e9d97b96fda8666",
            "0x0000000000000000000000003e122a3db43d225dd5bffd929ad4176ce69117e0",
            "0x000000000000000000000000c5e0b6e472dde70eceffa4c568bd52f2a7a1632a"
          ],
          "data": "0x00000000000000000000000000000000000000000000000000000000001e7bfa00000000000000000000000000000000000000000342a9099f62c2eceb5a5700",
          "blockHash": "0x598c3cd75f39dcb7592d9003f5422a5fcf4e79dc540142e6e8427985c10dd01c",
          "blockNumber": "0x460508",
          "transactionHash": "0x0d5aea8fef0b8eee51a66f8cf1bdd70c0f2445aa08cfeb5a3af99a676bc1d630",
          "transactionIndex": "0x0",
          "logIndex": "0x22",
          "removed": false
        },
        {
          "address": "0x6b8558764d3b7572136F17174Cb9aB1DDc7E1259",
          "topics": [
            "0x8c5be1e5ebec7d5bd14f71427d1e84f3dd0314c0f7b2291e5b200ac8c7c3b925",
            "0x0000000000000000000000003e122a3db43d225dd5bffd929ad4176ce69117e0",
            "0x0000000000000000000000005d6085935ad04fbacc9d025ba989beae91f94090"
          ],
          "data": "0x0000000000000000000000000000000000000000000000000000000000000000",
          "blockHash": "0x598c3cd75f39dcb7592d9003f5422a5fcf4e79dc540142e6e8427985c10dd01c",
          "blockNumber": "0x460508",
          "transactionHash": "0x0d5aea8fef0b8eee51a66f8cf1bdd70c0f2445aa08cfeb5a3af99a676bc1d630",
          "transactionIndex": "0x0",
          "logIndex": "0x23",
          "removed": false
        },
        {
          "address": "0x6b8558764d3b7572136F17174Cb9aB1DDc7E1259",
          "topics": [
            "0xddf252ad1be2c89b69c2b068fc378daa952ba7f163c4a11628f55a4df523b3ef",
            "0x0000000000000000000000003e122a3db43d225dd5bffd929ad4176ce69117e0",
            "0x000000000000000000000000c5e0b6e472dde70eceffa4c568bd52f2a7a1632a"
          ],
          "data": "0x0000000000000000000000000000000000000000000000056bc75e2d63100000",
          "blockHash": "0x598c3cd75f39dcb7592d9003f5422a5fcf4e79dc540142e6e8427985c10dd01c",
          "blockNumber": "0x460508",
          "transactionHash": "0x0d5aea8fef0b8eee51a66f8cf1bdd70c0f2445aa08cfeb5a3af99a676bc1d630",
          "transactionIndex": "0x0",
          "logIndex": "0x24",
          "removed": false
        },
        {
          "address": "0x6Ae43d3271ff6888e7Fc43Fd7321a503ff738951",
          "topics": [
            "0x00058a56ea94653cdf4f152d227ace22d4c00ad99e2a43f58cb7d9e3feb295f2",
            "0x00000000000000000000000088541670e55cc00beefd87eb59edd1b7c511ac9a",
            "0x000000000000000000000000c5e0b6e472dde70eceffa4c568bd52f2a7a1632a"
          ],
          "data": "0x",
          "blockHash": "0x598c3cd75f39dcb7592d9003f5422a5fcf4e79dc540142e6e8427985c10dd01c",
          "blockNumber": "0x460508",
          "transactionHash": "0x0d5aea8fef0b8eee51a66f8cf1bdd70c0f2445aa08cfeb5a3af99a676bc1d630",
          "transactionIndex": "0x0",
          "logIndex": "0x25",
          "removed": false
        },
        {
          "address": "0x6b8558764d3b7572136F17174Cb9aB1DDc7E1259",
          "topics": [
            "0x4beccb90f994c31aced7a23b5611020728a23d8ec5cddd1a3e9d97b96fda8666",
            "0x0000000000000000000000003e122a3db43d225dd5bffd929ad4176ce69117e0",
            "0x000000000000000000000000c5e0b6e472dde70eceffa4c568bd52f2a7a1632a"
          ],
          "data": "0x0000000000000000000000000000000000000000000000056bc74c139cd4f48f0000000000000000000000000000000000000000033b2e4769c27e5b821decfc",
          "blockHash": "0x598c3cd75f39dcb7592d9003f5422a5fcf4e79dc540142e6e8427985c10dd01c",
          "blockNumber": "0x460508",
          "transactionHash": "0x0d5aea8fef0b8eee51a66f8cf1bdd70c0f2445aa08cfeb5a3af99a676bc1d630",
          "transactionIndex": "0x0",
          "logIndex": "0x26",
          "removed": false
        },
        {
          "address": "0x34a4d932E722b9dFb492B9D8131127690CE2430B",
          "topics": [
            "0xda919360433220e13b51e8c211e490d148e61a3bd53de8c097194e458b97f3e1",
            "0x000000000000000000000000c5e0b6e472dde70eceffa4c568bd52f2a7a1632a",
            "0x0000000000000000000000005d6085935ad04fbacc9d025ba989beae91f94090",
            "0x000000000000000000000000f8fb3713d459d7c1018bd0a49d19b4c44290ebe5"
          ],
          "data": "0x000000000000000000000000000000000000000000000000000001376231dbd5",
          "blockHash": "0x598c3cd75f39dcb7592d9003f5422a5fcf4e79dc540142e6e8427985c10dd01c",
          "blockNumber": "0x460508",
          "transactionHash": "0x0d5aea8fef0b8eee51a66f8cf1bdd70c0f2445aa08cfeb5a3af99a676bc1d630",
          "transactionIndex": "0x0",
          "logIndex": "0x27",
          "removed": false
        },
        {
          "address": "0x34a4d932E722b9dFb492B9D8131127690CE2430B",
          "topics": [
            "0xddf252ad1be2c89b69c2b068fc378daa952ba7f163c4a11628f55a4df523b3ef",
            "0x0000000000000000000000000000000000000000000000000000000000000000",
            "0x000000000000000000000000c5e0b6e472dde70eceffa4c568bd52f2a7a1632a"
          ],
          "data": "0x00000000000000000000000000000000000000000000000000003e685f636f5e",
          "blockHash": "0x598c3cd75f39dcb7592d9003f5422a5fcf4e79dc540142e6e8427985c10dd01c",
          "blockNumber": "0x460508",
          "transactionHash": "0x0d5aea8fef0b8eee51a66f8cf1bdd70c0f2445aa08cfeb5a3af99a676bc1d630",
          "transactionIndex": "0x0",
          "logIndex": "0x28",
          "removed": false
        },
        {
          "address": "0x34a4d932E722b9dFb492B9D8131127690CE2430B",
          "topics": [
            "0x458f5fa412d0f69b08dd84872b0215675cc67bc1d5b6fd93300a1c3878b86196",
            "0x0000000000000000000000005d6085935ad04fbacc9d025ba989beae91f94090",
            "0x000000000000000000000000c5e0b6e472dde70eceffa4c568bd52f2a7a1632a"
          ],
          "data": "0x00000000000000000000000000000000000000000000000000003e685f636f5e000000000000000000000000000000000000000000000000000000000002d6590000000000000000000000000000000000000000038c5f271b98ab9d8d2f9959",
          "blockHash": "0x598c3cd75f39dcb7592d9003f5422a5fcf4e79dc540142e6e8427985c10dd01c",
          "blockNumber": "0x460508",
          "transactionHash": "0x0d5aea8fef0b8eee51a66f8cf1bdd70c0f2445aa08cfeb5a3af99a676bc1d630",
          "transactionIndex": "0x0",
          "logIndex": "0x29",
          "removed": false
        },
        {
          "address": "0x6Ae43d3271ff6888e7Fc43Fd7321a503ff738951",
          "topics": [
            "0x804c9b842b2748a22bb64b345453a3de7ca54a6ca45ce00d415894979e22897a",
            "0x000000000000000000000000f8fb3713d459d7c1018bd0a49d19b4c44290ebe5"
          ],
          "data": "0x000000000000000000000000000000000000000007602ae0f6c7a7ec1d9e6ec0000000000000000000000000000000000000000009c146b2dbb20edee80aed4a00000000000000000000000000000000000000000976d47514fe03544e0aed4a000000000000000000000000000000000000000003789502e12d41a649c7f7d90000000000000000000000000000000000000000038c5f271b98ab9d8d2f9959",
          "blockHash": "0x598c3cd75f39dcb7592d9003f5422a5fcf4e79dc540142e6e8427985c10dd01c",
          "blockNumber": "0x460508",
          "transactionHash": "0x0d5aea8fef0b8eee51a66f8cf1bdd70c0f2445aa08cfeb5a3af99a676bc1d630",
          "transactionIndex": "0x0",
          "logIndex": "0x2a",
          "removed": false
        },
        {
          "address": "0xf8Fb3713D459D7C1018BD0A49D19b4C44290EBE5",
          "topics": [
            "0xddf252ad1be2c89b69c2b068fc378daa952ba7f163c4a11628f55a4df523b3ef",
            "0x0000000000000000000000003ffaf50d4f4e96eb78f2407c090b72e86ecaed24",
            "0x0000000000000000000000005d6085935ad04fbacc9d025ba989beae91f94090"
          ],
          "data": "0x00000000000000000000000000000000000000000000000000003e685f609905",
          "blockHash": "0x598c3cd75f39dcb7592d9003f5422a5fcf4e79dc540142e6e8427985c10dd01c",
          "blockNumber": "0x460508",
          "transactionHash": "0x0d5aea8fef0b8eee51a66f8cf1bdd70c0f2445aa08cfeb5a3af99a676bc1d630",
          "transactionIndex": "0x0",
          "logIndex": "0x2b",
          "removed": false
        },
        {
          "address": "0x6Ae43d3271ff6888e7Fc43Fd7321a503ff738951",
          "topics": [
            "0xb3d084820fb1a9decffb176436bd02558d15fac9b0ddfed8c465bc7359d7dce0",
            "0x000000000000000000000000f8fb3713d459d7c1018bd0a49d19b4c44290ebe5",
            "0x000000000000000000000000c5e0b6e472dde70eceffa4c568bd52f2a7a1632a",
            "0x0000000000000000000000000000000000000000000000000000000000000000"
          ],
          "data": "0x0000000000000000000000005d6085935ad04fbacc9d025ba989beae91f9409000000000000000000000000000000000000000000000000000003e685f609905000000000000000000000000000000000000000000000000000000000000000200000000000000000000000000000000000000000976d47514fe03544e0aed4a",
          "blockHash": "0x598c3cd75f39dcb7592d9003f5422a5fcf4e79dc540142e6e8427985c10dd01c",
          "blockNumber": "0x460508",
          "transactionHash": "0x0d5aea8fef0b8eee51a66f8cf1bdd70c0f2445aa08cfeb5a3af99a676bc1d630",
          "transactionIndex": "0x0",
          "logIndex": "0x2c",
          "removed": false
        },
        {
          "address": "0xf8Fb3713D459D7C1018BD0A49D19b4C44290EBE5",
          "topics": [
            "0x8c5be1e5ebec7d5bd14f71427d1e84f3dd0314c0f7b2291e5b200ac8c7c3b925",
            "0x0000000000000000000000005d6085935ad04fbacc9d025ba989beae91f94090",
            "0x0000000000000000000000006ae43d3271ff6888e7fc43fd7321a503ff738951"
          ],
          "data": "0x00000000000000000000000000000000000000000000000000003e685f609905",
          "blockHash": "0x598c3cd75f39dcb7592d9003f5422a5fcf4e79dc540142e6e8427985c10dd01c",
          "blockNumber": "0x460508",
          "transactionHash": "0x0d5aea8fef0b8eee51a66f8cf1bdd70c0f2445aa08cfeb5a3af99a676bc1d630",
          "transactionIndex": "0x0",
          "logIndex": "0x2d",
          "removed": false
        },
        {
          "address": "0x9844386d29EEd970B9F6a2B9a676083b0478210e",
          "topics": [
            "0xda919360433220e13b51e8c211e490d148e61a3bd53de8c097194e458b97f3e1",
            "0x000000000000000000000000c5e0b6e472dde70eceffa4c568bd52f2a7a1632a",
            "0x0000000000000000000000005d6085935ad04fbacc9d025ba989beae91f94090",
            "0x000000000000000000000000aa8e23fb1079ea71e0a56f48a2aa51851d8433d0"
          ],
          "data": "0x00000000000000000000000000000000000000000000000000000000001fda23",
          "blockHash": "0x598c3cd75f39dcb7592d9003f5422a5fcf4e79dc540142e6e8427985c10dd01c",
          "blockNumber": "0x460508",
          "transactionHash": "0x0d5aea8fef0b8eee51a66f8cf1bdd70c0f2445aa08cfeb5a3af99a676bc1d630",
          "transactionIndex": "0x0",
          "logIndex": "0x2e",
          "removed": false
        },
        {
          "address": "0x9844386d29EEd970B9F6a2B9a676083b0478210e",
          "topics": [
            "0xddf252ad1be2c89b69c2b068fc378daa952ba7f163c4a11628f55a4df523b3ef",
            "0x0000000000000000000000000000000000000000000000000000000000000000",
            "0x000000000000000000000000c5e0b6e472dde70eceffa4c568bd52f2a7a1632a"
          ],
          "data": "0x000000000000000000000000000000000000000000000000000000000662420f",
          "blockHash": "0x598c3cd75f39dcb7592d9003f5422a5fcf4e79dc540142e6e8427985c10dd01c",
          "blockNumber": "0x460508",
          "transactionHash": "0x0d5aea8fef0b8eee51a66f8cf1bdd70c0f2445aa08cfeb5a3af99a676bc1d630",
          "transactionIndex": "0x0",
          "logIndex": "0x2f",
          "removed": false
        },
        {
          "address": "0x9844386d29EEd970B9F6a2B9a676083b0478210e",
          "topics": [
            "0x458f5fa412d0f69b08dd84872b0215675cc67bc1d5b6fd93300a1c3878b86196",
            "0x0000000000000000000000005d6085935ad04fbacc9d025ba989beae91f94090",
            "0x000000000000000000000000c5e0b6e472dde70eceffa4c568bd52f2a7a1632a"
          ],
          "data": "0x000000000000000000000000000000000000000000000000000000000662420f000000000000000000000000000000000000000000000000000000000000000000000000000000000000000000000000000000000344fbb2c8ae91ffd09eb511",
          "blockHash": "0x598c3cd75f39dcb7592d9003f5422a5fcf4e79dc540142e6e8427985c10dd01c",
          "blockNumber": "0x460508",
          "transactionHash": "0x0d5aea8fef0b8eee51a66f8cf1bdd70c0f2445aa08cfeb5a3af99a676bc1d630",
          "transactionIndex": "0x0",
          "logIndex": "0x30",
          "removed": false
        },
        {
          "address": "0x6Ae43d3271ff6888e7Fc43Fd7321a503ff738951",
          "topics": [
            "0x804c9b842b2748a22bb64b345453a3de7ca54a6ca45ce00d415894979e22897a",
            "0x000000000000000000000000aa8e23fb1079ea71e0a56f48a2aa51851d8433d0"
          ],
          "data": "0x000000000000000000000000000000000000000000000c9b9cfc909b06745171000000000000000000000000000000000000000000296a60ea5a57be145517800000000000000000000000000000000000000000000073bbdfb28aa512a8bbfc00000000000000000000000000000000000000000342a9099f62c2eceb5a570000000000000000000000000000000000000000000344fbb2c8ae91ffd09eb511",
          "blockHash": "0x598c3cd75f39dcb7592d9003f5422a5fcf4e79dc540142e6e8427985c10dd01c",
          "blockNumber": "0x460508",
          "transactionHash": "0x0d5aea8fef0b8eee51a66f8cf1bdd70c0f2445aa08cfeb5a3af99a676bc1d630",
          "transactionIndex": "0x0",
          "logIndex": "0x31",
          "removed": false
        },
        {
          "address": "0xaA8E23Fb1079EA71e0a56F48a2aA51851D8433D0",
          "topics": [
            "0xddf252ad1be2c89b69c2b068fc378daa952ba7f163c4a11628f55a4df523b3ef",
            "0x000000000000000000000000af0f6e8b0dc5c913bbf4d14c22b4e78dd14310b6",
            "0x0000000000000000000000005d6085935ad04fbacc9d025ba989beae91f94090"
          ],
          "data": "0x000000000000000000000000000000000000000000000000000000000662420f",
          "blockHash": "0x598c3cd75f39dcb7592d9003f5422a5fcf4e79dc540142e6e8427985c10dd01c",
          "blockNumber": "0x460508",
          "transactionHash": "0x0d5aea8fef0b8eee51a66f8cf1bdd70c0f2445aa08cfeb5a3af99a676bc1d630",
          "transactionIndex": "0x0",
          "logIndex": "0x32",
          "removed": false
        },
        {
          "address": "0x6Ae43d3271ff6888e7Fc43Fd7321a503ff738951",
          "topics": [
            "0xb3d084820fb1a9decffb176436bd02558d15fac9b0ddfed8c465bc7359d7dce0",
            "0x000000000000000000000000aa8e23fb1079ea71e0a56f48a2aa51851d8433d0",
            "0x000000000000000000000000c5e0b6e472dde70eceffa4c568bd52f2a7a1632a",
            "0x0000000000000000000000000000000000000000000000000000000000000000"
          ],
          "data": "0x0000000000000000000000005d6085935ad04fbacc9d025ba989beae91f94090000000000000000000000000000000000000000000000000000000000662420f00000000000000000000000000000000000000000000000000000000000000020000000000000000000000000000000000000000000073bbdfb28aa512a8bbfc",
          "blockHash": "0x598c3cd75f39dcb7592d9003f5422a5fcf4e79dc540142e6e8427985c10dd01c",
          "blockNumber": "0x460508",
          "transactionHash": "0x0d5aea8fef0b8eee51a66f8cf1bdd70c0f2445aa08cfeb5a3af99a676bc1d630",
          "transactionIndex": "0x0",
          "logIndex": "0x33",
          "removed": false
        },
        {
          "address": "0xaA8E23Fb1079EA71e0a56F48a2aA51851D8433D0",
          "topics": [
            "0x8c5be1e5ebec7d5bd14f71427d1e84f3dd0314c0f7b2291e5b200ac8c7c3b925",
            "0x0000000000000000000000005d6085935ad04fbacc9d025ba989beae91f94090",
            "0x0000000000000000000000006ae43d3271ff6888e7fc43fd7321a503ff738951"
          ],
          "data": "0x000000000000000000000000000000000000000000000000000000000662420f",
          "blockHash": "0x598c3cd75f39dcb7592d9003f5422a5fcf4e79dc540142e6e8427985c10dd01c",
          "blockNumber": "0x460508",
          "transactionHash": "0x0d5aea8fef0b8eee51a66f8cf1bdd70c0f2445aa08cfeb5a3af99a676bc1d630",
          "transactionIndex": "0x0",
          "logIndex": "0x34",
          "removed": false
        },
        {
          "address": "0x6Ae43d3271ff6888e7Fc43Fd7321a503ff738951",
          "topics": [
            "0x804c9b842b2748a22bb64b345453a3de7ca54a6ca45ce00d415894979e22897a",
            "0x000000000000000000000000f8fb3713d459d7c1018bd0a49d19b4c44290ebe5"
          ],
          "data": "0x000000000000000000000000000000000000000007602ae0e7106e52366723cc000000000000000000000000000000000000000009c146b2ceb216cfff38ee9300000000000000000000000000000000000000000976d47507fe0b456538ee93000000000000000000000000000000000000000003789502e12d97b38c09a6850000000000000000000000000000000000000000038c5f271b98ab9d8d2f9959",
          "blockHash": "0x598c3cd75f39dcb7592d9003f5422a5fcf4e79dc540142e6e8427985c10dd01c",
          "blockNumber": "0x460508",
          "transactionHash": "0x0d5aea8fef0b8eee51a66f8cf1bdd70c0f2445aa08cfeb5a3af99a676bc1d630",
          "transactionIndex": "0x0",
          "logIndex": "0x35",
          "removed": false
        },
        {
          "address": "0xf8Fb3713D459D7C1018BD0A49D19b4C44290EBE5",
          "topics": [
            "0xddf252ad1be2c89b69c2b068fc378daa952ba7f163c4a11628f55a4df523b3ef",
            "0x0000000000000000000000005d6085935ad04fbacc9d025ba989beae91f94090",
            "0x0000000000000000000000003ffaf50d4f4e96eb78f2407c090b72e86ecaed24"
          ],
          "data": "0x00000000000000000000000000000000000000000000000000003e685f609905",
          "blockHash": "0x598c3cd75f39dcb7592d9003f5422a5fcf4e79dc540142e6e8427985c10dd01c",
          "blockNumber": "0x460508",
          "transactionHash": "0x0d5aea8fef0b8eee51a66f8cf1bdd70c0f2445aa08cfeb5a3af99a676bc1d630",
          "transactionIndex": "0x0",
          "logIndex": "0x36",
          "removed": false
        },
        {
          "address": "0xf8Fb3713D459D7C1018BD0A49D19b4C44290EBE5",
          "topics": [
            "0x8c5be1e5ebec7d5bd14f71427d1e84f3dd0314c0f7b2291e5b200ac8c7c3b925",
            "0x0000000000000000000000005d6085935ad04fbacc9d025ba989beae91f94090",
            "0x0000000000000000000000006ae43d3271ff6888e7fc43fd7321a503ff738951"
          ],
          "data": "0x0000000000000000000000000000000000000000000000000000000000000000",
          "blockHash": "0x598c3cd75f39dcb7592d9003f5422a5fcf4e79dc540142e6e8427985c10dd01c",
          "blockNumber": "0x460508",
          "transactionHash": "0x0d5aea8fef0b8eee51a66f8cf1bdd70c0f2445aa08cfeb5a3af99a676bc1d630",
          "transactionIndex": "0x0",
          "logIndex": "0x37",
          "removed": false
        },
        {
          "address": "0x6Ae43d3271ff6888e7Fc43Fd7321a503ff738951",
          "topics": [
            "0xefefaba5e921573100900a3ad9cf29f222d995fb3b6045797eaea7521bd8d6f0",
            "0x0000000000000000000000005d6085935ad04fbacc9d025ba989beae91f94090",
            "0x000000000000000000000000f8fb3713d459d7c1018bd0a49d19b4c44290ebe5",
            "0x0000000000000000000000000000000000000000000000000000000000000000"
          ],
          "data": "0x0000000000000000000000005d6085935ad04fbacc9d025ba989beae91f9409000000000000000000000000000000000000000000000000000003e60636c7290000000000000000000000000000000000000000000000000000000000000000000000000000000000000000000000000000000000000000000000007fbf42675",
          "blockHash": "0x598c3cd75f39dcb7592d9003f5422a5fcf4e79dc540142e6e8427985c10dd01c",
          "blockNumber": "0x460508",
          "transactionHash": "0x0d5aea8fef0b8eee51a66f8cf1bdd70c0f2445aa08cfeb5a3af99a676bc1d630",
          "transactionIndex": "0x0",
          "logIndex": "0x38",
          "removed": false
        },
        {
          "address": "0x6Ae43d3271ff6888e7Fc43Fd7321a503ff738951",
          "topics": [
            "0x804c9b842b2748a22bb64b345453a3de7ca54a6ca45ce00d415894979e22897a",
            "0x000000000000000000000000aa8e23fb1079ea71e0a56f48a2aa51851d8433d0"
          ],
          "data": "0x000000000000000000000000000000000000000000000c9b9c478a0d4df8a0c7000000000000000000000000000000000000000000296a60e99c22c4e59702410000000000000000000000000000000000000000000073bbd9c0e2db9cb8120800000000000000000000000000000000000000000342a909a4de3165a1b0746300000000000000000000000000000000000000000344fbb2c8ae91ffd09eb511",
          "blockHash": "0x598c3cd75f39dcb7592d9003f5422a5fcf4e79dc540142e6e8427985c10dd01c",
          "blockNumber": "0x460508",
          "transactionHash": "0x0d5aea8fef0b8eee51a66f8cf1bdd70c0f2445aa08cfeb5a3af99a676bc1d630",
          "transactionIndex": "0x0",
          "logIndex": "0x39",
          "removed": false
        },
        {
          "address": "0xaA8E23Fb1079EA71e0a56F48a2aA51851D8433D0",
          "topics": [
            "0xddf252ad1be2c89b69c2b068fc378daa952ba7f163c4a11628f55a4df523b3ef",
            "0x0000000000000000000000005d6085935ad04fbacc9d025ba989beae91f94090",
            "0x000000000000000000000000af0f6e8b0dc5c913bbf4d14c22b4e78dd14310b6"
          ],
          "data": "0x000000000000000000000000000000000000000000000000000000000662420f",
          "blockHash": "0x598c3cd75f39dcb7592d9003f5422a5fcf4e79dc540142e6e8427985c10dd01c",
          "blockNumber": "0x460508",
          "transactionHash": "0x0d5aea8fef0b8eee51a66f8cf1bdd70c0f2445aa08cfeb5a3af99a676bc1d630",
          "transactionIndex": "0x0",
          "logIndex": "0x3a",
          "removed": false
        },
        {
          "address": "0xaA8E23Fb1079EA71e0a56F48a2aA51851D8433D0",
          "topics": [
            "0x8c5be1e5ebec7d5bd14f71427d1e84f3dd0314c0f7b2291e5b200ac8c7c3b925",
            "0x0000000000000000000000005d6085935ad04fbacc9d025ba989beae91f94090",
            "0x0000000000000000000000006ae43d3271ff6888e7fc43fd7321a503ff738951"
          ],
          "data": "0x0000000000000000000000000000000000000000000000000000000000000000",
          "blockHash": "0x598c3cd75f39dcb7592d9003f5422a5fcf4e79dc540142e6e8427985c10dd01c",
          "blockNumber": "0x460508",
          "transactionHash": "0x0d5aea8fef0b8eee51a66f8cf1bdd70c0f2445aa08cfeb5a3af99a676bc1d630",
          "transactionIndex": "0x0",
          "logIndex": "0x3b",
          "removed": false
        },
        {
          "address": "0x6Ae43d3271ff6888e7Fc43Fd7321a503ff738951",
          "topics": [
            "0xefefaba5e921573100900a3ad9cf29f222d995fb3b6045797eaea7521bd8d6f0",
            "0x0000000000000000000000005d6085935ad04fbacc9d025ba989beae91f94090",
            "0x000000000000000000000000aa8e23fb1079ea71e0a56f48a2aa51851d8433d0",
            "0x0000000000000000000000000000000000000000000000000000000000000000"
          ],
          "data": "0x0000000000000000000000005d6085935ad04fbacc9d025ba989beae91f9409000000000000000000000000000000000000000000000000000000000066170fa0000000000000000000000000000000000000000000000000000000000000000000000000000000000000000000000000000000000000000000000000000d115",
          "blockHash": "0x598c3cd75f39dcb7592d9003f5422a5fcf4e79dc540142e6e8427985c10dd01c",
          "blockNumber": "0x460508",
          "transactionHash": "0x0d5aea8fef0b8eee51a66f8cf1bdd70c0f2445aa08cfeb5a3af99a676bc1d630",
          "transactionIndex": "0x0",
          "logIndex": "0x3c",
          "removed": false
        }
      ],
      "status": "0x1",
      "logsBloom": "0x1012000008000840028000000000680000000000000000000200000000000080000000804000000000000000000400200005000040a000020000000000200000000000000001008000002008000000000000000000000000000000040000300004000000020020000000001080000c00004004000000000008000011401000002000008081040000004000000000000000200000000000000000000000000000020000000000020000000080800000000010208040104000020006000000010002008002000001100000002000080000004200100000040100000001000020040010100408000030000000004001000100010000000800000000000001040000",
      "type": "0x2",
      "effectiveGasPrice": "0xb2d05e0a"
    }
  ],
  "libraries": [],
  "pending": [],
  "returns": {},
  "timestamp": 1698601396,
  "chain": 11155111,
  "multi": false,
  "commit": "d6126e8"
}