{
  "transactions": [
    {
      "hash": "0xccc308de39c2340a8ec76ef671320903903f81cdf5fc9524b8ab0c046c2f4b60",
      "transactionType": "CALL",
      "contractName": "InitializableImmutableAdminUpgradeabilityProxy",
      "contractAddress": "0x22675C506A8FC26447aFFfa33640f6af5d4D4cF0",
      "function": "approveDelegation(address,uint256)",
      "arguments": [
        "0x6A763430e347d1E152823d646c700442A4db84aA",
        "29194369318823690369886"
      ],
      "transaction": {
        "type": "0x02",
        "from": "0x3e122a3db43d225dd5bffd929ad4176ce69117e0",
        "to": "0x22675c506a8fc26447afffa33640f6af5d4d4cf0",
        "gas": "0x121d8",
        "value": "0x0",
        "data": "0xc04a8a100000000000000000000000006a763430e347d1e152823d646c700442a4db84aa00000000000000000000000000000000000000000000062ea143391280d5fb5e",
        "nonce": "0xde",
        "accessList": []
      },
      "additionalContracts": [],
      "isFixedGasLimit": false
    },
    {
      "hash": "0x682d0ad44b643e7c550411a3d6c31a2d16d49772053d4552e4d9950ec689afdc",
      "transactionType": "CALL",
      "contractName": "InitializableImmutableAdminUpgradeabilityProxy",
      "contractAddress": "0xbEF786E742edB13361ff2f005b901A82c23AA491",
      "function": "approveDelegation(address,uint256)",
      "arguments": [
        "0x6A763430e347d1E152823d646c700442A4db84aA",
        "20422437219691775173"
      ],
      "transaction": {
        "type": "0x02",
        "from": "0x3e122a3db43d225dd5bffd929ad4176ce69117e0",
        "to": "0xbef786e742edb13361ff2f005b901a82c23aa491",
        "gas": "0x121a9",
        "value": "0x0",
        "data": "0xc04a8a100000000000000000000000006a763430e347d1e152823d646c700442a4db84aa0000000000000000000000000000000000000000000000011b6b1272d771c4c5",
        "nonce": "0xdf",
        "accessList": []
      },
      "additionalContracts": [],
      "isFixedGasLimit": false
    },
    {
      "hash": "0x93f2dba7db94cacbe657cf866074376ce8b1243ccd8c614ccfe625996382f28d",
      "transactionType": "CALL",
      "contractName": "InitializableImmutableAdminUpgradeabilityProxy",
      "contractAddress": "0x34a4d932E722b9dFb492B9D8131127690CE2430B",
      "function": "approveDelegation(address,uint256)",
      "arguments": [
        "0x6A763430e347d1E152823d646c700442A4db84aA",
        "71614753800687"
      ],
      "transaction": {
        "type": "0x02",
        "from": "0x3e122a3db43d225dd5bffd929ad4176ce69117e0",
        "to": "0x34a4d932e722b9dfb492b9d8131127690ce2430b",
        "gas": "0x12195",
        "value": "0x0",
        "data": "0xc04a8a100000000000000000000000006a763430e347d1e152823d646c700442a4db84aa000000000000000000000000000000000000000000000000000041221bf601ef",
        "nonce": "0xe0",
        "accessList": []
      },
      "additionalContracts": [],
      "isFixedGasLimit": false
    },
    {
      "hash": "0xca73272d5b9f1091edd99856d2854e897ea555cec90024d8fb6ed2381cdbdd29",
      "transactionType": "CALL",
      "contractName": "InitializableImmutableAdminUpgradeabilityProxy",
      "contractAddress": "0x9844386d29EEd970B9F6a2B9a676083b0478210e",
      "function": "approveDelegation(address,uint256)",
      "arguments": [
        "0x6A763430e347d1E152823d646c700442A4db84aA",
        "19392287881"
      ],
      "transaction": {
        "type": "0x02",
        "from": "0x3e122a3db43d225dd5bffd929ad4176ce69117e0",
        "to": "0x9844386d29eed970b9f6a2b9a676083b0478210e",
        "gas": "0x12184",
        "value": "0x0",
        "data": "0xc04a8a100000000000000000000000006a763430e347d1e152823d646c700442a4db84aa0000000000000000000000000000000000000000000000000000000483ded489",
        "nonce": "0xe1",
        "accessList": []
      },
      "additionalContracts": [],
      "isFixedGasLimit": false
    },
    {
      "hash": "0xd37a30a6140dd8690c1b5da66dd581c7fdd1e3fd433b36619e05f9341a2e9f4a",
      "transactionType": "CALL",
      "contractName": "InitializableImmutableAdminUpgradeabilityProxy",
      "contractAddress": "0xEAF54fA3b1C7243033C2893c6B807f9cEaBCf0AF",
      "function": "approveDelegation(address,uint256)",
      "arguments": [
        "0x6A763430e347d1E152823d646c700442A4db84aA",
        "10211223"
      ],
      "transaction": {
        "type": "0x02",
        "from": "0x3e122a3db43d225dd5bffd929ad4176ce69117e0",
        "to": "0xeaf54fa3b1c7243033c2893c6b807f9ceabcf0af",
        "gas": "0x12145",
        "value": "0x0",
        "data": "0xc04a8a100000000000000000000000006a763430e347d1e152823d646c700442a4db84aa00000000000000000000000000000000000000000000000000000000009bcf97",
        "nonce": "0xe2",
        "accessList": []
      },
      "additionalContracts": [],
      "isFixedGasLimit": false
    },
    {
      "hash": "0x26fcac5fc3f506f2193c8ad0ff78a264b87e4e9e2085fdd9664ec3ea5a0a7147",
      "transactionType": "CALL",
      "contractName": "InitializableImmutableAdminUpgradeabilityProxy",
      "contractAddress": "0x94482C7A7477196259D8a0f74fB853277Fa5a75b",
      "function": "approveDelegation(address,uint256)",
      "arguments": [
        "0x6A763430e347d1E152823d646c700442A4db84aA",
        "205"
      ],
      "transaction": {
        "type": "0x02",
        "from": "0x3e122a3db43d225dd5bffd929ad4176ce69117e0",
        "to": "0x94482c7a7477196259d8a0f74fb853277fa5a75b",
        "gas": "0x12142",
        "value": "0x0",
        "data": "0xc04a8a100000000000000000000000006a763430e347d1e152823d646c700442a4db84aa00000000000000000000000000000000000000000000000000000000000000cd",
        "nonce": "0xe3",
        "accessList": []
      },
      "additionalContracts": [],
      "isFixedGasLimit": false
    },
    {
      "hash": "0xf98d4ac6483a00c0fe1fbcdf8485037f9c08e2d6f5e6638a5bf8215249a15f0b",
      "transactionType": "CALL",
      "contractName": "InitializableImmutableAdminUpgradeabilityProxy",
      "contractAddress": "0x08878209484D8178DD1FFA50AB1689F21aDBB856",
      "function": "approveDelegation(address,uint256)",
      "arguments": [
        "0x6A763430e347d1E152823d646c700442A4db84aA",
        "715"
      ],
      "transaction": {
        "type": "0x02",
        "from": "0x3e122a3db43d225dd5bffd929ad4176ce69117e0",
        "to": "0x08878209484d8178dd1ffa50ab1689f21adbb856",
        "gas": "0x13238",
        "value": "0x0",
        "data": "0xc04a8a100000000000000000000000006a763430e347d1e152823d646c700442a4db84aa00000000000000000000000000000000000000000000000000000000000002cb",
        "nonce": "0xe4",
        "accessList": []
      },
      "additionalContracts": [],
      "isFixedGasLimit": false
    },
    {
      "hash": "0x58861700721d7cd0785635b5e97e618b6bcda9847c6a5c9a9c387649b37916fa",
      "transactionType": "CALL",
      "contractName": "InitializableImmutableAdminUpgradeabilityProxy",
      "contractAddress": "0x3FfAf50D4F4E96eB78f2407c090b72e86eCaed24",
      "function": "approve(address,uint256):(bool)",
      "arguments": [
        "0x6A763430e347d1E152823d646c700442A4db84aA",
        "1044936602662747197686"
      ],
      "transaction": {
        "type": "0x02",
        "from": "0xc5e0b6e472dde70eceffa4c568bd52f2a7a1632a",
        "to": "0x3ffaf50d4f4e96eb78f2407c090b72e86ecaed24",
        "gas": "0x1148c",
        "value": "0x0",
        "data": "0x095ea7b30000000000000000000000006a763430e347d1e152823d646c700442a4db84aa000000000000000000000000000000000000000000000038a5688fcf748b50f6",
        "nonce": "0xa7",
        "accessList": []
      },
      "additionalContracts": [],
      "isFixedGasLimit": false
    },
    {
      "hash": "0xcd97461e969a62188d3202d3bdd8fcd585d65f488a83b260d60c6fe7fe449a78",
      "transactionType": "CALL",
      "contractName": "InitializableImmutableAdminUpgradeabilityProxy",
      "contractAddress": "0x16dA4541aD1807f4443d92D26044C1147406EB80",
      "function": "approve(address,uint256):(bool)",
      "arguments": [
        "0x6A763430e347d1E152823d646c700442A4db84aA",
        "1017525648"
      ],
      "transaction": {
        "type": "0x02",
        "from": "0xc5e0b6e472dde70eceffa4c568bd52f2a7a1632a",
        "to": "0x16da4541ad1807f4443d92d26044c1147406eb80",
        "gas": "0x11439",
        "value": "0x0",
        "data": "0x095ea7b30000000000000000000000006a763430e347d1e152823d646c700442a4db84aa000000000000000000000000000000000000000000000000000000003ca63590",
        "nonce": "0xa8",
        "accessList": []
      },
      "additionalContracts": [],
      "isFixedGasLimit": false
    },
    {
      "hash": "0x83284f4e100f7ee8f4c1149a2d4d0e4cd58a8650e9ba67ba3e1ce179acf6a3a0",
      "transactionType": "CALL",
      "contractName": "InitializableImmutableAdminUpgradeabilityProxy",
      "contractAddress": "0x1804Bf30507dc2EB3bDEbbbdd859991EAeF6EefF",
      "function": "approve(address,uint256):(bool)",
      "arguments": [
        "0x6A763430e347d1E152823d646c700442A4db84aA",
        "100000001"
      ],
      "transaction": {
        "type": "0x02",
        "from": "0xc5e0b6e472dde70eceffa4c568bd52f2a7a1632a",
        "to": "0x1804bf30507dc2eb3bdebbbdd859991eaef6eeff",
        "gas": "0x11439",
        "value": "0x0",
        "data": "0x095ea7b30000000000000000000000006a763430e347d1e152823d646c700442a4db84aa0000000000000000000000000000000000000000000000000000000005f5e101",
        "nonce": "0xa9",
        "accessList": []
      },
      "additionalContracts": [],
      "isFixedGasLimit": false
    },
    {
      "hash": "0x263309862d1bdcdf45dd54a4dfa6f46f591405effa759617a8530c222a24b6be",
      "transactionType": "CALL",
      "contractName": "InitializableImmutableAdminUpgradeabilityProxy",
      "contractAddress": "0xAF0F6e8b0Dc5c913bbF4d14c22B4E78Dd14310B6",
      "function": "approve(address,uint256):(bool)",
      "arguments": [
        "0x6A763430e347d1E152823d646c700442A4db84aA",
        "2015913"
      ],
      "transaction": {
        "type": "0x02",
        "from": "0xc5e0b6e472dde70eceffa4c568bd52f2a7a1632a",
        "to": "0xaf0f6e8b0dc5c913bbf4d14c22b4e78dd14310b6",
        "gas": "0x11429",
        "value": "0x0",
        "data": "0x095ea7b30000000000000000000000006a763430e347d1e152823d646c700442a4db84aa00000000000000000000000000000000000000000000000000000000001ec2a9",
        "nonce": "0xaa",
        "accessList": []
      },
      "additionalContracts": [],
      "isFixedGasLimit": false
    },
    {
      "hash": "0x0df3b2ccc95185209426712ef7beb9677f7f10750f7d3b9a37f040a901cbb39d",
      "transactionType": "CALL",
      "contractName": "InitializableImmutableAdminUpgradeabilityProxy",
      "contractAddress": "0x6b8558764d3b7572136F17174Cb9aB1DDc7E1259",
      "function": "approve(address,uint256):(bool)",
      "arguments": [
        "0x6A763430e347d1E152823d646c700442A4db84aA",
        "100000000000000000000"
      ],
      "transaction": {
        "type": "0x02",
        "from": "0xc5e0b6e472dde70eceffa4c568bd52f2a7a1632a",
        "to": "0x6b8558764d3b7572136f17174cb9ab1ddc7e1259",
        "gas": "0x1146c",
        "value": "0x0",
        "data": "0x095ea7b30000000000000000000000006a763430e347d1e152823d646c700442a4db84aa0000000000000000000000000000000000000000000000056bc75e2d63100000",
        "nonce": "0xab",
        "accessList": []
      },
      "additionalContracts": [],
      "isFixedGasLimit": false
    },
    {
      "hash": null,
      "transactionType": "CALL",
      "contractName": "TeleportAaveV3",
      "contractAddress": "0x6A763430e347d1E152823d646c700442A4db84aA",
      "function": "moveAavePositionToAnotherWallet(address,address,address[],uint256[],uint256[],uint256[],address[],uint256[])",
      "arguments": [
        "0xC5e0B6E472dDE70eCEfFa4c568Bd52f2A7a1632A",
        "0x3e122A3dB43d225DD5BFFD929AD4176ce69117E0",
        "[0xFF34B3d4Aee8ddCd6F9AFFFB6Fe49bD371b8a357, 0xFF34B3d4Aee8ddCd6F9AFFFB6Fe49bD371b8a357, 0xf8Fb3713D459D7C1018BD0A49D19b4C44290EBE5, 0xaA8E23Fb1079EA71e0a56F48a2aA51851D8433D0, 0xaA8E23Fb1079EA71e0a56F48a2aA51851D8433D0, 0x6d906e526a4e2Ca02097BA9d0caA3c382F52278E, 0x6d906e526a4e2Ca02097BA9d0caA3c382F52278E]",
        "[28621930704729108205771, 20021997274207622719, 70210542941850, 19012046943, 10011003, 201, 701]",
        "[2, 1, 2, 2, 1, 2, 1]",
        "[0, 0, 0, 0, 0, 0, 0]",
        "[0x3FfAf50D4F4E96eB78f2407c090b72e86eCaed24, 0x16dA4541aD1807f4443d92D26044C1147406EB80, 0x1804Bf30507dc2EB3bDEbbbdd859991EAeF6EefF, 0xAF0F6e8b0Dc5c913bbF4d14c22B4E78Dd14310B6, 0x6b8558764d3b7572136F17174Cb9aB1DDc7E1259]",
        "[1044936602662747197686, 1017525648, 100000001, 2015913, 100000000000000000000]"
      ],
      "transaction": {
        "type": "0x02",
        "from": "0xc5e0b6e472dde70eceffa4c568bd52f2a7a1632a",
        "to": "0x6a763430e347d1e152823d646c700442a4db84aa",
        "gas": "0x3478e6",
        "value": "0x0",
        "data": "0xab745c4a000000000000000000000000c5e0b6e472dde70eceffa4c568bd52f2a7a1632a0000000000000000000000003e122a3db43d225dd5bffd929ad4176ce69117e00000000000000000000000000000000000000000000000000000000000000100000000000000000000000000000000000000000000000000000000000000020000000000000000000000000000000000000000000000000000000000000003000000000000000000000000000000000000000000000000000000000000000400000000000000000000000000000000000000000000000000000000000000050000000000000000000000000000000000000000000000000000000000000005c00000000000000000000000000000000000000000000000000000000000000007000000000000000000000000ff34b3d4aee8ddcd6f9afffb6fe49bd371b8a357000000000000000000000000ff34b3d4aee8ddcd6f9afffb6fe49bd371b8a357000000000000000000000000f8fb3713d459d7c1018bd0a49d19b4c44290ebe5000000000000000000000000aa8e23fb1079ea71e0a56f48a2aa51851d8433d0000000000000000000000000aa8e23fb1079ea71e0a56f48a2aa51851d8433d00000000000000000000000006d906e526a4e2ca02097ba9d0caa3c382f52278e0000000000000000000000006d906e526a4e2ca02097ba9d0caa3c382f52278e000000000000000000000000000000000000000000000000000000000000000700000000000000000000000000000000000000000000060f9914ba76885950cb00000000000000000000000000000000000000000000000115dc6c7096fc163f00000000000000000000000000000000000000000000000000003fdb2a78b69a000000000000000000000000000000000000000000000000000000046d34d05f000000000000000000000000000000000000000000000000000000000098c17b00000000000000000000000000000000000000000000000000000000000000c900000000000000000000000000000000000000000000000000000000000002bd000000000000000000000000000000000000000000000000000000000000000700000000000000000000000000000000000000000000000000000000000000020000000000000000000000000000000000000000000000000000000000000001000000000000000000000000000000000000000000000000000000000000000200000000000000000000000000000000000000000000000000000000000000020000000000000000000000000000000000000000000000000000000000000001000000000000000000000000000000000000000000000000000000000000000200000000000000000000000000000000000000000000000000000000000000010000000000000000000000000000000000000000000000000000000000000007000000000000000000000000000000000000000000000000000000000000000000000000000000000000000000000000000000000000000000000000000000000000000000000000000000000000000000000000000000000000000000000000000000000000000000000000000000000000000000000000000000000000000000000000000000000000000000000000000000000000000000000000000000000000000000000000000000000000000000000000000000000000000000000000000000000000000000000000000000000000000000000000000000000000000000000000000000000000000000000000000000000000000000000000000000050000000000000000000000003ffaf50d4f4e96eb78f2407c090b72e86ecaed2400000000000000000000000016da4541ad1807f4443d92d26044c1147406eb800000000000000000000000001804bf30507dc2eb3bdebbbdd859991eaef6eeff000000000000000000000000af0f6e8b0dc5c913bbf4d14c22b4e78dd14310b60000000000000000000000006b8558764d3b7572136f17174cb9ab1ddc7e12590000000000000000000000000000000000000000000000000000000000000005000000000000000000000000000000000000000000000038a5688fcf748b50f6000000000000000000000000000000000000000000000000000000003ca635900000000000000000000000000000000000000000000000000000000005f5e10100000000000000000000000000000000000000000000000000000000001ec2a90000000000000000000000000000000000000000000000056bc75e2d63100000",
        "nonce": "0xac",
        "accessList": []
      },
      "additionalContracts": [],
      "isFixedGasLimit": false
    }
  ],
  "receipts": [
    {
      "transactionHash": "0xccc308de39c2340a8ec76ef671320903903f81cdf5fc9524b8ab0c046c2f4b60",
      "transactionIndex": "0x5",
      "blockHash": "0x70a68ebd6e869680ef367e3965bba89620d23769da48fe4d74851cedc9b7302d",
      "blockNumber": "0x464fea",
      "from": "0x3e122A3dB43d225DD5BFFD929AD4176ce69117E0",
      "to": "0x22675C506A8FC26447aFFfa33640f6af5d4D4cF0",
      "cumulativeGasUsed": "0x134a61",
      "gasUsed": "0xd1d8",
      "contractAddress": null,
      "logs": [
        {
          "address": "0x22675C506A8FC26447aFFfa33640f6af5d4D4cF0",
          "topics": [
            "0xda919360433220e13b51e8c211e490d148e61a3bd53de8c097194e458b97f3e1",
            "0x0000000000000000000000003e122a3db43d225dd5bffd929ad4176ce69117e0",
            "0x0000000000000000000000006a763430e347d1e152823d646c700442a4db84aa",
            "0x000000000000000000000000ff34b3d4aee8ddcd6f9afffb6fe49bd371b8a357"
          ],
          "data": "0x00000000000000000000000000000000000000000000062ea143391280d5fb5e",
          "blockHash": "0x70a68ebd6e869680ef367e3965bba89620d23769da48fe4d74851cedc9b7302d",
          "blockNumber": "0x464fea",
          "transactionHash": "0xccc308de39c2340a8ec76ef671320903903f81cdf5fc9524b8ab0c046c2f4b60",
          "transactionIndex": "0x5",
          "logIndex": "0x1",
          "removed": false
        }
      ],
      "status": "0x1",
      "logsBloom": "0x00000000080000000000000000000000000000000000800000000000000000800000000000000000000000000000000000000000000000000000000000000000000000000000000040000000000000000000000000000000000000000000100000000000000000000010000000000000000000000000000000000000000000000000000080040000000000000000000000000000000000000000000000002000000000000000004000000080800000000000000000000000000000000002000000000000000010000000000000000000000000000000000000000000000000000000000000000000000000000000000100000000000000000000000000000000",
      "type": "0x2",
      "effectiveGasPrice": "0xf5312dde8"
    },
    {
      "transactionHash": "0x682d0ad44b643e7c550411a3d6c31a2d16d49772053d4552e4d9950ec689afdc",
      "transactionIndex": "0x2",
      "blockHash": "0x4999eb6a0791625f65891a132cefed8c3e18be96add23a1d1be5e51c30d6dfc9",
      "blockNumber": "0x464feb",
      "from": "0x3e122A3dB43d225DD5BFFD929AD4176ce69117E0",
      "to": "0xbEF786E742edB13361ff2f005b901A82c23AA491",
      "cumulativeGasUsed": "0x175c6",
      "gasUsed": "0xd1b6",
      "contractAddress": null,
      "logs": [
        {
          "address": "0xbEF786E742edB13361ff2f005b901A82c23AA491",
          "topics": [
            "0xda919360433220e13b51e8c211e490d148e61a3bd53de8c097194e458b97f3e1",
            "0x0000000000000000000000003e122a3db43d225dd5bffd929ad4176ce69117e0",
            "0x0000000000000000000000006a763430e347d1e152823d646c700442a4db84aa",
            "0x000000000000000000000000ff34b3d4aee8ddcd6f9afffb6fe49bd371b8a357"
          ],
          "data": "0x0000000000000000000000000000000000000000000000011b6b1272d771c4c5",
          "blockHash": "0x4999eb6a0791625f65891a132cefed8c3e18be96add23a1d1be5e51c30d6dfc9",
          "blockNumber": "0x464feb",
          "transactionHash": "0x682d0ad44b643e7c550411a3d6c31a2d16d49772053d4552e4d9950ec689afdc",
          "transactionIndex": "0x2",
          "logIndex": "0x0",
          "removed": false
        }
      ],
      "status": "0x1",
      "logsBloom": "0x00000000080000000000000000000000000000000000800000000000000000800000000000000000000040000000000000000000000000000000000000000000000000000000000040000000000000000000000000000000000000000000100000000000000000000000000000000000000000000000000000000000000000000000000080040000000000000000000000000000000000000000000000000000000000000000000000000084800000000000000000000000000000000002000000000000000010000000000000000000000000000000000000000000000000000000000000800000000000000000000100000000000000000000000000000000",
      "type": "0x2",
      "effectiveGasPrice": "0xe7b379b84"
    },
    {
      "transactionHash": "0x93f2dba7db94cacbe657cf866074376ce8b1243ccd8c614ccfe625996382f28d",
      "transactionIndex": "0x3",
      "blockHash": "0x0bacb0ca996d86d92fb7956aa8982e0fe1be7762910e16fc8b447d98b2536ee0",
      "blockNumber": "0x464fec",
      "from": "0x3e122A3dB43d225DD5BFFD929AD4176ce69117E0",
      "to": "0x34a4d932E722b9dFb492B9D8131127690CE2430B",
      "cumulativeGasUsed": "0x64aad",
      "gasUsed": "0xd1a8",
      "contractAddress": null,
      "logs": [
        {
          "address": "0x34a4d932E722b9dFb492B9D8131127690CE2430B",
          "topics": [
            "0xda919360433220e13b51e8c211e490d148e61a3bd53de8c097194e458b97f3e1",
            "0x0000000000000000000000003e122a3db43d225dd5bffd929ad4176ce69117e0",
            "0x0000000000000000000000006a763430e347d1e152823d646c700442a4db84aa",
            "0x000000000000000000000000f8fb3713d459d7c1018bd0a49d19b4c44290ebe5"
          ],
          "data": "0x000000000000000000000000000000000000000000000000000041221bf601ef",
          "blockHash": "0x0bacb0ca996d86d92fb7956aa8982e0fe1be7762910e16fc8b447d98b2536ee0",
          "blockNumber": "0x464fec",
          "transactionHash": "0x93f2dba7db94cacbe657cf866074376ce8b1243ccd8c614ccfe625996382f28d",
          "transactionIndex": "0x3",
          "logIndex": "0x4",
          "removed": false
        }
      ],
      "status": "0x1",
      "logsBloom": "0x00020000080000000000000000000000000000000000000000000000000000800000000040000000000000000000000000000000000000000000000000000000000000000001000040000000000000000000000000000000000000000000100000000000000020000000000000000000000000000000000000000000000000000000000080040000000000000000000000000000000000000000000000000000000000000000020000000080800000000000000000000000000000000000000000000000000000000000000000000000004000000000000000000000000000000000000000000000000000000000000100000000000000000000000000000000",
      "type": "0x2",
      "effectiveGasPrice": "0xd3e11b075"
    },
    {
      "transactionHash": "0xca73272d5b9f1091edd99856d2854e897ea555cec90024d8fb6ed2381cdbdd29",
      "transactionIndex": "0x5",
      "blockHash": "0x37d7ab4e70240f95eaa990f6e49392e86788efdc11283f77b4503764d5efb2ca",
      "blockNumber": "0x464fee",
      "from": "0x3e122A3dB43d225DD5BFFD929AD4176ce69117E0",
      "to": "0x9844386d29EEd970B9F6a2B9a676083b0478210e",
      "cumulativeGasUsed": "0x52a533",
      "gasUsed": "0xd19c",
      "contractAddress": null,
      "logs": [
        {
          "address": "0x9844386d29EEd970B9F6a2B9a676083b0478210e",
          "topics": [
            "0xda919360433220e13b51e8c211e490d148e61a3bd53de8c097194e458b97f3e1",
            "0x0000000000000000000000003e122a3db43d225dd5bffd929ad4176ce69117e0",
            "0x0000000000000000000000006a763430e347d1e152823d646c700442a4db84aa",
            "0x000000000000000000000000aa8e23fb1079ea71e0a56f48a2aa51851d8433d0"
          ],
          "data": "0x0000000000000000000000000000000000000000000000000000000483ded489",
          "blockHash": "0x37d7ab4e70240f95eaa990f6e49392e86788efdc11283f77b4503764d5efb2ca",
          "blockNumber": "0x464fee",
          "transactionHash": "0xca73272d5b9f1091edd99856d2854e897ea555cec90024d8fb6ed2381cdbdd29",
          "transactionIndex": "0x5",
          "logIndex": "0x1",
          "removed": false
        }
      ],
      "status": "0x1",
      "logsBloom": "0x00000000080000000000000000000000000000000000000000000000000000800000000000000000000000000000000000000000000000000000000000000000000000000000000040000000000000000000000000000000000000000000100000000000000000000000000080000000000000000000000000000000000000000000000080040000000000000000000000000000000000000000000000000000000000000000000000000080800000000000000000000000020004000000000000000000000000000000000000000000000200100000000000000000000000000000000000000000000000000000000100010000000000000000000000000000",
      "type": "0x2",
      "effectiveGasPrice": "0xb837f209e"
    },
    {
      "transactionHash": "0xd37a30a6140dd8690c1b5da66dd581c7fdd1e3fd433b36619e05f9341a2e9f4a",
      "transactionIndex": "0x3",
      "blockHash": "0xd7f9acc56e3917ea6efa1669a4d0255bff4eb3771f673ff2c9ba6a34bcc52b68",
      "blockNumber": "0x464fef",
      "from": "0x3e122A3dB43d225DD5BFFD929AD4176ce69117E0",
      "to": "0xEAF54fA3b1C7243033C2893c6B807f9cEaBCf0AF",
      "cumulativeGasUsed": "0x1c786",
      "gasUsed": "0xd16e",
      "contractAddress": null,
      "logs": [
        {
          "address": "0xEAF54fA3b1C7243033C2893c6B807f9cEaBCf0AF",
          "topics": [
            "0xda919360433220e13b51e8c211e490d148e61a3bd53de8c097194e458b97f3e1",
            "0x0000000000000000000000003e122a3db43d225dd5bffd929ad4176ce69117e0",
            "0x0000000000000000000000006a763430e347d1e152823d646c700442a4db84aa",
            "0x000000000000000000000000aa8e23fb1079ea71e0a56f48a2aa51851d8433d0"
          ],
          "data": "0x00000000000000000000000000000000000000000000000000000000009bcf97",
          "blockHash": "0xd7f9acc56e3917ea6efa1669a4d0255bff4eb3771f673ff2c9ba6a34bcc52b68",
          "blockNumber": "0x464fef",
          "transactionHash": "0xd37a30a6140dd8690c1b5da66dd581c7fdd1e3fd433b36619e05f9341a2e9f4a",
          "transactionIndex": "0x3",
          "logIndex": "0x0",
          "removed": false
        }
      ],
      "status": "0x1",
      "logsBloom": "0x00000000080000000000000000000000000000000040000000000000000000800000000000000000000000000000000000000000000000000000000000000000000000000000000040000000000000000000000000000000000000000000100000000000000000000000000080000000000000000000000000000000000000000000000080040000000000000000000000000000000000000000000000000000000000000000000000000080800000000000000000000000000004000000000000000000000000000000000040000100000000000000000000000000000000000000000000000000000000000000000100010000000000000000000000000000",
      "type": "0x2",
      "effectiveGasPrice": "0xba074c548"
    },
    {
      "transactionHash": "0x26fcac5fc3f506f2193c8ad0ff78a264b87e4e9e2085fdd9664ec3ea5a0a7147",
      "transactionIndex": "0x2",
      "blockHash": "0xfa73296fa2fe9697c014865e0af65ba1c21d86dc5f06806b275737b173d1364a",
      "blockNumber": "0x464ff0",
      "from": "0x3e122A3dB43d225DD5BFFD929AD4176ce69117E0",
      "to": "0x94482C7A7477196259D8a0f74fB853277Fa5a75b",
      "cumulativeGasUsed": "0x3b089",
      "gasUsed": "0xd16c",
      "contractAddress": null,
      "logs": [
        {
          "address": "0x94482C7A7477196259D8a0f74fB853277Fa5a75b",
          "topics": [
            "0xda919360433220e13b51e8c211e490d148e61a3bd53de8c097194e458b97f3e1",
            "0x0000000000000000000000003e122a3db43d225dd5bffd929ad4176ce69117e0",
            "0x0000000000000000000000006a763430e347d1e152823d646c700442a4db84aa",
            "0x0000000000000000000000006d906e526a4e2ca02097ba9d0caa3c382f52278e"
          ],
          "data": "0x00000000000000000000000000000000000000000000000000000000000000cd",
          "blockHash": "0xfa73296fa2fe9697c014865e0af65ba1c21d86dc5f06806b275737b173d1364a",
          "blockNumber": "0x464ff0",
          "transactionHash": "0x26fcac5fc3f506f2193c8ad0ff78a264b87e4e9e2085fdd9664ec3ea5a0a7147",
          "transactionIndex": "0x2",
          "logIndex": "0x0",
          "removed": false
        }
      ],
      "status": "0x1",
      "logsBloom": "0x00000000080000000400000000000000000000000000000000000000000000810000000000000000000000000000000000000000000000000000000000000000000000000000000040000000000000000000000000000000000000000000100000000000000000000000000000200000000000000040000000000000000000000000000080040000000000000000000000000000000000000000000000000000000000000080000000000080800000000000000000000000000000000000000000000040000000000000000000000000000000000000000000000000000000000000000000000000000000000000000100000000000000000000000000000000",
      "type": "0x2",
      "effectiveGasPrice": "0xae20177bc"
    },
    {
      "transactionHash": "0xf98d4ac6483a00c0fe1fbcdf8485037f9c08e2d6f5e6638a5bf8215249a15f0b",
      "transactionIndex": "0x3",
      "blockHash": "0x4558783d48f3dfa89b7405d795af21fc944b0ac8da5753163a5be2e1211649a1",
      "blockNumber": "0x464ff1",
      "from": "0x3e122A3dB43d225DD5BFFD929AD4176ce69117E0",
      "to": "0x08878209484D8178DD1FFA50AB1689F21aDBB856",
      "cumulativeGasUsed": "0x2ac7a",
      "gasUsed": "0xd162",
      "contractAddress": null,
      "logs": [
        {
          "address": "0x08878209484D8178DD1FFA50AB1689F21aDBB856",
          "topics": [
            "0xda919360433220e13b51e8c211e490d148e61a3bd53de8c097194e458b97f3e1",
            "0x0000000000000000000000003e122a3db43d225dd5bffd929ad4176ce69117e0",
            "0x0000000000000000000000006a763430e347d1e152823d646c700442a4db84aa",
            "0x0000000000000000000000006d906e526a4e2ca02097ba9d0caa3c382f52278e"
          ],
          "data": "0x00000000000000000000000000000000000000000000000000000000000002cb",
          "blockHash": "0x4558783d48f3dfa89b7405d795af21fc944b0ac8da5753163a5be2e1211649a1",
          "blockNumber": "0x464ff1",
          "transactionHash": "0xf98d4ac6483a00c0fe1fbcdf8485037f9c08e2d6f5e6638a5bf8215249a15f0b",
          "transactionIndex": "0x3",
          "logIndex": "0x3",
          "removed": false
        }
      ],
      "status": "0x1",
      "logsBloom": "0x00000000080000000000000000000000000000000000000000000000000000800000000000000000000000000000000000000000000000000000000000000000000000000000000040000000000000000000000000000000000000000000100000000000000000000000000000000000000000000040000000000000000000000000000080040000001000000000000000000000000000000000000000000000000000000080400000000080800000000000000000000000000000000000000000000040000000000000000000000000000000000000000000000000000000000000000000000000000000000000000100000000000000000000000000000000",
      "type": "0x2",
      "effectiveGasPrice": "0xa869684ce"
    },
    {
      "transactionHash": "0x58861700721d7cd0785635b5e97e618b6bcda9847c6a5c9a9c387649b37916fa",
      "transactionIndex": "0x5",
      "blockHash": "0xd9bb3c3621a4f267af348390508925e9d1c64effd9157ae2293bd542bbcbe35c",
      "blockNumber": "0x464ff2",
      "from": "0xC5e0B6E472dDE70eCEfFa4c568Bd52f2A7a1632A",
      "to": "0x3FfAf50D4F4E96eB78f2407c090b72e86eCaed24",
      "cumulativeGasUsed": "0x68281",
      "gasUsed": "0xc838",
      "contractAddress": null,
      "logs": [
        {
          "address": "0x3FfAf50D4F4E96eB78f2407c090b72e86eCaed24",
          "topics": [
            "0x8c5be1e5ebec7d5bd14f71427d1e84f3dd0314c0f7b2291e5b200ac8c7c3b925",
            "0x000000000000000000000000c5e0b6e472dde70eceffa4c568bd52f2a7a1632a",
            "0x0000000000000000000000006a763430e347d1e152823d646c700442a4db84aa"
          ],
          "data": "0x000000000000000000000000000000000000000000000038a5688fcf748b50f6",
          "blockHash": "0xd9bb3c3621a4f267af348390508925e9d1c64effd9157ae2293bd542bbcbe35c",
          "blockNumber": "0x464ff2",
          "transactionHash": "0x58861700721d7cd0785635b5e97e618b6bcda9847c6a5c9a9c387649b37916fa",
          "transactionIndex": "0x5",
          "logIndex": "0x1",
          "removed": false
        }
      ],
      "status": "0x1",
      "logsBloom": "0x00000000000000000000000000002000000000000000000000000000000000800000000000000000000000000000000000000000000000000000000000200000000000000000000040000000000000000000000000000000000000000000000000000000000000000000001000000000000000000000000000000001000000000000008080000000000000000000000000000000000000000000000000000000020000000000000000000000000000000000000040000000000000000000000000000000000000000000000000000000000000000000000000000000000000000010000000000000000000000000000000000000000000000000000001000000",
      "type": "0x2",
      "effectiveGasPrice": "0x9f9c435a3"
    },
    {
      "transactionHash": "0xcd97461e969a62188d3202d3bdd8fcd585d65f488a83b260d60c6fe7fe449a78",
      "transactionIndex": "0x3",
      "blockHash": "0xb910fde7bc92eadd4b4f55fd934f69375b0263e0db7173c54f52894691586283",
      "blockNumber": "0x464ff3",
      "from": "0xC5e0B6E472dDE70eCEfFa4c568Bd52f2A7a1632A",
      "to": "0x16dA4541aD1807f4443d92D26044C1147406EB80",
      "cumulativeGasUsed": "0x1be14",
      "gasUsed": "0xc7fc",
      "contractAddress": null,
      "logs": [
        {
          "address": "0x16dA4541aD1807f4443d92D26044C1147406EB80",
          "topics": [
            "0x8c5be1e5ebec7d5bd14f71427d1e84f3dd0314c0f7b2291e5b200ac8c7c3b925",
            "0x000000000000000000000000c5e0b6e472dde70eceffa4c568bd52f2a7a1632a",
            "0x0000000000000000000000006a763430e347d1e152823d646c700442a4db84aa"
          ],
          "data": "0x000000000000000000000000000000000000000000000000000000003ca63590",
          "blockHash": "0xb910fde7bc92eadd4b4f55fd934f69375b0263e0db7173c54f52894691586283",
          "blockNumber": "0x464ff3",
          "transactionHash": "0xcd97461e969a62188d3202d3bdd8fcd585d65f488a83b260d60c6fe7fe449a78",
          "transactionIndex": "0x3",
          "logIndex": "0x0",
          "removed": false
        }
      ],
      "status": "0x1",
      "logsBloom": "0x00000000000000000200000000002000000000000000000000000000000000800000008000000000000000000000000000000000000000000000000000200000000000000000000040000000000000000000000000000000000000000000000000000000000000000000000000000000000000000000000000000001000000000000000080000000000000000000000000000000000000000000000000000000020000000000000000000000000000000000000040000000000000000000000000008000000000000000000000000000000000000000000000000000000000000010000000000000000000000000000000000000000000000000000000000000",
      "type": "0x2",
      "effectiveGasPrice": "0x990829a93"
    },
    {
      "transactionHash": "0x83284f4e100f7ee8f4c1149a2d4d0e4cd58a8650e9ba67ba3e1ce179acf6a3a0",
      "transactionIndex": "0x2",
      "blockHash": "0xc476225871284cb11fd3462aa5d1478b931e618c790f817b7ac9fee14869ec2c",
      "blockNumber": "0x464ff4",
      "from": "0xC5e0B6E472dDE70eCEfFa4c568Bd52f2A7a1632A",
      "to": "0x1804Bf30507dc2EB3bDEbbbdd859991EAeF6EefF",
      "cumulativeGasUsed": "0x34b22",
      "gasUsed": "0xc7fc",
      "contractAddress": null,
      "logs": [
        {
          "address": "0x1804Bf30507dc2EB3bDEbbbdd859991EAeF6EefF",
          "topics": [
            "0x8c5be1e5ebec7d5bd14f71427d1e84f3dd0314c0f7b2291e5b200ac8c7c3b925",
            "0x000000000000000000000000c5e0b6e472dde70eceffa4c568bd52f2a7a1632a",
            "0x0000000000000000000000006a763430e347d1e152823d646c700442a4db84aa"
          ],
          "data": "0x0000000000000000000000000000000000000000000000000000000005f5e101",
          "blockHash": "0xc476225871284cb11fd3462aa5d1478b931e618c790f817b7ac9fee14869ec2c",
          "blockNumber": "0x464ff4",
          "transactionHash": "0x83284f4e100f7ee8f4c1149a2d4d0e4cd58a8650e9ba67ba3e1ce179acf6a3a0",
          "transactionIndex": "0x2",
          "logIndex": "0x3",
          "removed": false
        }
      ],
      "status": "0x1",
      "logsBloom": "0x00000000000000000000000000002000000000000000000000000000000000800000000000000000000000000000000000000000000000000000000000200000000000000000000040000000000000000000000000000000000000000000000000000000000000000000000000000000000000000000000000000001000000000000000080000000000000000000000000000000000000000000000000000000020000000000000000000000000000000000000040004000000002000000000000000000000000000000000000000000000000000000000000000000000000000010000008000000000000000000000000000000000000000000000000000000",
      "type": "0x2",
      "effectiveGasPrice": "0x8c33b19c1"
    },
    {
      "transactionHash": "0x263309862d1bdcdf45dd54a4dfa6f46f591405effa759617a8530c222a24b6be",
      "transactionIndex": "0x8",
      "blockHash": "0xdea07288eaf447cd3f7d9bce7519991ae28e09d9a72de852ee17b37abad2b145",
      "blockNumber": "0x464ff5",
      "from": "0xC5e0B6E472dDE70eCEfFa4c568Bd52f2A7a1632A",
      "to": "0xAF0F6e8b0Dc5c913bbF4d14c22B4E78Dd14310B6",
      "cumulativeGasUsed": "0x6bd5b",
      "gasUsed": "0xc7f0",
      "contractAddress": null,
      "logs": [
        {
          "address": "0xAF0F6e8b0Dc5c913bbF4d14c22B4E78Dd14310B6",
          "topics": [
            "0x8c5be1e5ebec7d5bd14f71427d1e84f3dd0314c0f7b2291e5b200ac8c7c3b925",
            "0x000000000000000000000000c5e0b6e472dde70eceffa4c568bd52f2a7a1632a",
            "0x0000000000000000000000006a763430e347d1e152823d646c700442a4db84aa"
          ],
          "data": "0x00000000000000000000000000000000000000000000000000000000001ec2a9",
          "blockHash": "0xdea07288eaf447cd3f7d9bce7519991ae28e09d9a72de852ee17b37abad2b145",
          "blockNumber": "0x464ff5",
          "transactionHash": "0x263309862d1bdcdf45dd54a4dfa6f46f591405effa759617a8530c222a24b6be",
          "transactionIndex": "0x8",
          "logIndex": "0x1",
          "removed": false
        }
      ],
      "status": "0x1",
      "logsBloom": "0x00000000000000000000000000002000000000000000000000000000000000800000000000000000000000000000000000000000000000000000000000200000000000000000000040000000000000000000000000000000000000000000000000000000000000000000000000000000000000000000000000000001000000000000000080000000000000000000000000000000000000000000000000000000020000000000000000000000000000000000008040000000000000000000000000000000000000000000000000080000000000000000000000000001000000000010000000000000000000000000000000000000000000000000000000000000",
      "type": "0x2",
      "effectiveGasPrice": "0x839deeac6"
    },
    {
      "transactionHash": "0x0df3b2ccc95185209426712ef7beb9677f7f10750f7d3b9a37f040a901cbb39d",
      "transactionIndex": "0xd",
      "blockHash": "0x797c8e14335d0ec2736b2619b489024d7e38bad666e666213a1dd276642c6b5c",
      "blockNumber": "0x464ff6",
      "from": "0xC5e0B6E472dDE70eCEfFa4c568Bd52f2A7a1632A",
      "to": "0x6b8558764d3b7572136F17174Cb9aB1DDc7E1259",
      "cumulativeGasUsed": "0x159821",
      "gasUsed": "0xc820",
      "contractAddress": null,
      "logs": [
        {
          "address": "0x6b8558764d3b7572136F17174Cb9aB1DDc7E1259",
          "topics": [
            "0x8c5be1e5ebec7d5bd14f71427d1e84f3dd0314c0f7b2291e5b200ac8c7c3b925",
            "0x000000000000000000000000c5e0b6e472dde70eceffa4c568bd52f2a7a1632a",
            "0x0000000000000000000000006a763430e347d1e152823d646c700442a4db84aa"
          ],
          "data": "0x0000000000000000000000000000000000000000000000056bc75e2d63100000",
          "blockHash": "0x797c8e14335d0ec2736b2619b489024d7e38bad666e666213a1dd276642c6b5c",
          "blockNumber": "0x464ff6",
          "transactionHash": "0x0df3b2ccc95185209426712ef7beb9677f7f10750f7d3b9a37f040a901cbb39d",
          "transactionIndex": "0xd",
          "logIndex": "0x2",
          "removed": false
        }
      ],
      "status": "0x1",
      "logsBloom": "0x00000000000000000000000000002800000000000000000000000000000000800000000000000000000000000000000000000000000000000000000000200000000000000000000040002000000000000000000000000000000000000000000000000000000000000000000000000000000000000000000000000001000000000000000080000000000000000000000000000000000000000000000000000000020000000000000000000000000000000000000040000000000000000000000000000000000000000000000000000000000000000000000000000000000000000010000400000000000000000000000000000000000000000000000000000000",
      "type": "0x2",
      "effectiveGasPrice": "0x7be0d7a45"
    }
  ],
  "libraries": [],
  "pending": [],
  "returns": {},
  "timestamp": 1698843223,
  "chain": 11155111,
  "multi": false,
  "commit": "0d3f206"
}