{
  "transactions": [
    {
      "hash": "0x731f27b28edfd7ee3adcbcfacb620d69aec03f646fe7768cab0c4f932a9053db",
      "transactionType": "CALL",
      "contractName": "InitializableImmutableAdminUpgradeabilityProxy",
      "contractAddress": "0x22675C506A8FC26447aFFfa33640f6af5d4D4cF0",
      "function": "approveDelegation(address,uint256)",
      "arguments": [
        "0x6A763430e347d1E152823d646c700442A4db84aA",
        "29209101091140079190697"
      ],
      "transaction": {
        "type": "0x02",
        "from": "0xc5e0b6e472dde70eceffa4c568bd52f2a7a1632a",
        "to": "0x22675c506a8fc26447afffa33640f6af5d4d4cf0",
        "gas": "0xc594",
        "value": "0x0",
        "data": "0xc04a8a100000000000000000000000006a763430e347d1e152823d646c700442a4db84aa00000000000000000000000000000000000000000000062f6db4fdf1172002a9",
        "nonce": "0xb2",
        "accessList": []
      },
      "additionalContracts": [],
      "isFixedGasLimit": false
    },
    {
      "hash": "0xe4f0a10afefa339a8de4f1aa84ddf1f090ff060a5a6247559913119a1dc537b2",
      "transactionType": "CALL",
      "contractName": "InitializableImmutableAdminUpgradeabilityProxy",
      "contractAddress": "0xbEF786E742edB13361ff2f005b901A82c23AA491",
      "function": "approveDelegation(address,uint256)",
      "arguments": [
        "0x6A763430e347d1E152823d646c700442A4db84aA",
        "20433110046791646414"
      ],
      "transaction": {
        "type": "0x02",
        "from": "0xc5e0b6e472dde70eceffa4c568bd52f2a7a1632a",
        "to": "0xbef786e742edb13361ff2f005b901a82c23aa491",
        "gas": "0xd102",
        "value": "0x0",
        "data": "0xc04a8a100000000000000000000000006a763430e347d1e152823d646c700442a4db84aa0000000000000000000000000000000000000000000000011b90fd540b7b3cce",
        "nonce": "0xb3",
        "accessList": []
      },
      "additionalContracts": [],
      "isFixedGasLimit": false
    },
    {
      "hash": "0x19559955c5cf3e60064268e274508114b69c08319bcf716ce03f24771e9c12af",
      "transactionType": "CALL",
      "contractName": "InitializableImmutableAdminUpgradeabilityProxy",
      "contractAddress": "0x34a4d932E722b9dFb492B9D8131127690CE2430B",
      "function": "approveDelegation(address,uint256)",
      "arguments": [
        "0x6A763430e347d1E152823d646c700442A4db84aA",
        "71738747130907"
      ],
      "transaction": {
        "type": "0x02",
        "from": "0xc5e0b6e472dde70eceffa4c568bd52f2a7a1632a",
        "to": "0x34a4d932e722b9dfb492b9d8131127690ce2430b",
        "gas": "0xc552",
        "value": "0x0",
        "data": "0xc04a8a100000000000000000000000006a763430e347d1e152823d646c700442a4db84aa0000000000000000000000000000000000000000000000000000413efa8a141b",
        "nonce": "0xb4",
        "accessList": []
      },
      "additionalContracts": [],
      "isFixedGasLimit": false
    },
    {
      "hash": "0x5464985ab0bc1f77e9e7f92dcab5e20b4c1a3d751e9b57e1afd41ad6cded5d74",
      "transactionType": "CALL",
      "contractName": "InitializableImmutableAdminUpgradeabilityProxy",
      "contractAddress": "0x9844386d29EEd970B9F6a2B9a676083b0478210e",
      "function": "approveDelegation(address,uint256)",
      "arguments": [
        "0x6A763430e347d1E152823d646c700442A4db84aA",
        "19401985762"
      ],
      "transaction": {
        "type": "0x02",
        "from": "0xc5e0b6e472dde70eceffa4c568bd52f2a7a1632a",
        "to": "0x9844386d29eed970b9f6a2b9a676083b0478210e",
        "gas": "0xc542",
        "value": "0x0",
        "data": "0xc04a8a100000000000000000000000006a763430e347d1e152823d646c700442a4db84aa000000000000000000000000000000000000000000000000000000048472cee2",
        "nonce": "0xb5",
        "accessList": []
      },
      "additionalContracts": [],
      "isFixedGasLimit": false
    },
    {
      "hash": "0x8cfe30bebfb29f2c9d838a9af0b5ba16bc08b0b4db97ca45ec3f7c7b8141139f",
      "transactionType": "CALL",
      "contractName": "InitializableImmutableAdminUpgradeabilityProxy",
      "contractAddress": "0xEAF54fA3b1C7243033C2893c6B807f9cEaBCf0AF",
      "function": "approveDelegation(address,uint256)",
      "arguments": [
        "0x6A763430e347d1E152823d646c700442A4db84aA",
        "10216554"
      ],
      "transaction": {
        "type": "0x02",
        "from": "0xc5e0b6e472dde70eceffa4c568bd52f2a7a1632a",
        "to": "0xeaf54fa3b1c7243033c2893c6b807f9ceabcf0af",
        "gas": "0xd099",
        "value": "0x0",
        "data": "0xc04a8a100000000000000000000000006a763430e347d1e152823d646c700442a4db84aa00000000000000000000000000000000000000000000000000000000009be46a",
        "nonce": "0xb6",
        "accessList": []
      },
      "additionalContracts": [],
      "isFixedGasLimit": false
    },
    {
      "hash": "0x6eaa15ad0f28929bcf619a6aab9f64cbad0e3898ba82438be3c15958e41a9b89",
      "transactionType": "CALL",
      "contractName": "InitializableImmutableAdminUpgradeabilityProxy",
      "contractAddress": "0x94482C7A7477196259D8a0f74fB853277Fa5a75b",
      "function": "approveDelegation(address,uint256)",
      "arguments": [
        "0x6A763430e347d1E152823d646c700442A4db84aA",
        "205"
      ],
      "transaction": {
        "type": "0x02",
        "from": "0xc5e0b6e472dde70eceffa4c568bd52f2a7a1632a",
        "to": "0x94482c7a7477196259d8a0f74fb853277fa5a75b",
        "gas": "0xc500",
        "value": "0x0",
        "data": "0xc04a8a100000000000000000000000006a763430e347d1e152823d646c700442a4db84aa00000000000000000000000000000000000000000000000000000000000000cd",
        "nonce": "0xb7",
        "accessList": []
      },
      "additionalContracts": [],
      "isFixedGasLimit": false
    },
    {
      "hash": "0x9a9793218943d137fa478a03ed375d012f8ff426953d684af85ebed245c044af",
      "transactionType": "CALL",
      "contractName": "InitializableImmutableAdminUpgradeabilityProxy",
      "contractAddress": "0x08878209484D8178DD1FFA50AB1689F21aDBB856",
      "function": "approveDelegation(address,uint256)",
      "arguments": [
        "0x6A763430e347d1E152823d646c700442A4db84aA",
        "715"
      ],
      "transaction": {
        "type": "0x02",
        "from": "0xc5e0b6e472dde70eceffa4c568bd52f2a7a1632a",
        "to": "0x08878209484d8178dd1ffa50ab1689f21adbb856",
        "gas": "0xc4f1",
        "value": "0x0",
        "data": "0xc04a8a100000000000000000000000006a763430e347d1e152823d646c700442a4db84aa00000000000000000000000000000000000000000000000000000000000002cb",
        "nonce": "0xb8",
        "accessList": []
      },
      "additionalContracts": [],
      "isFixedGasLimit": false
    },
    {
      "hash": "0x62865599f23e53ae6612b14dfecc98d78a3b3ef2db6a7d3a5ba6fc44a12faada",
      "transactionType": "CALL",
      "contractName": "InitializableImmutableAdminUpgradeabilityProxy",
      "contractAddress": "0x3FfAf50D4F4E96eB78f2407c090b72e86eCaed24",
      "function": "approve(address,uint256):(bool)",
      "arguments": [
        "0x6A763430e347d1E152823d646c700442A4db84aA",
        "1045913053676429875952"
      ],
      "transaction": {
        "type": "0x02",
        "from": "0x3e122a3db43d225dd5bffd929ad4176ce69117e0",
        "to": "0x3ffaf50d4f4e96eb78f2407c090b72e86ecaed24",
        "gas": "0x1148c",
        "value": "0x0",
        "data": "0x095ea7b30000000000000000000000006a763430e347d1e152823d646c700442a4db84aa000000000000000000000000000000000000000000000038b2f59cd577ab9af0",
        "nonce": "0xed",
        "accessList": []
      },
      "additionalContracts": [],
      "isFixedGasLimit": false
    },
    {
      "hash": "0xcc3e1066375107952bf55a5c55f57c13455993a9eab7dc6c73d16dca7b7fb6cc",
      "transactionType": "CALL",
      "contractName": "InitializableImmutableAdminUpgradeabilityProxy",
      "contractAddress": "0x16dA4541aD1807f4443d92D26044C1147406EB80",
      "function": "approve(address,uint256):(bool)",
      "arguments": [
        "0x6A763430e347d1E152823d646c700442A4db84aA",
        "1017535375"
      ],
      "transaction": {
        "type": "0x02",
        "from": "0x3e122a3db43d225dd5bffd929ad4176ce69117e0",
        "to": "0x16da4541ad1807f4443d92d26044c1147406eb80",
        "gas": "0x11439",
        "value": "0x0",
        "data": "0x095ea7b30000000000000000000000006a763430e347d1e152823d646c700442a4db84aa000000000000000000000000000000000000000000000000000000003ca65b8f",
        "nonce": "0xee",
        "accessList": []
      },
      "additionalContracts": [],
      "isFixedGasLimit": false
    },
    {
      "hash": "0x284659a839fdb39ff8dda93376abb808193ecb37711949f4ec70ae7099d2f80b",
      "transactionType": "CALL",
      "contractName": "InitializableImmutableAdminUpgradeabilityProxy",
      "contractAddress": "0x1804Bf30507dc2EB3bDEbbbdd859991EAeF6EefF",
      "function": "approve(address,uint256):(bool)",
      "arguments": [
        "0x6A763430e347d1E152823d646c700442A4db84aA",
        "100000001"
      ],
      "transaction": {
        "type": "0x02",
        "from": "0x3e122a3db43d225dd5bffd929ad4176ce69117e0",
        "to": "0x1804bf30507dc2eb3bdebbbdd859991eaef6eeff",
        "gas": "0x11439",
        "value": "0x0",
        "data": "0x095ea7b30000000000000000000000006a763430e347d1e152823d646c700442a4db84aa0000000000000000000000000000000000000000000000000000000005f5e101",
        "nonce": "0xef",
        "accessList": []
      },
      "additionalContracts": [],
      "isFixedGasLimit": false
    },
    {
      "hash": "0x373009566721e2f6cdd8f992df1764a3ae42319e9d9d4ecbba2c8462b34d1f3c",
      "transactionType": "CALL",
      "contractName": "InitializableImmutableAdminUpgradeabilityProxy",
      "contractAddress": "0xAF0F6e8b0Dc5c913bbF4d14c22B4E78Dd14310B6",
      "function": "approve(address,uint256):(bool)",
      "arguments": [
        "0x6A763430e347d1E152823d646c700442A4db84aA",
        "2015913"
      ],
      "transaction": {
        "type": "0x02",
        "from": "0x3e122a3db43d225dd5bffd929ad4176ce69117e0",
        "to": "0xaf0f6e8b0dc5c913bbf4d14c22b4e78dd14310b6",
        "gas": "0x11429",
        "value": "0x0",
        "data": "0x095ea7b30000000000000000000000006a763430e347d1e152823d646c700442a4db84aa00000000000000000000000000000000000000000000000000000000001ec2a9",
        "nonce": "0xf0",
        "accessList": []
      },
      "additionalContracts": [],
      "isFixedGasLimit": false
    },
    {
      "hash": "0x1c494190882175218ebb4196549792493b351b8ad22fe9ad7cab930a34792fb8",
      "transactionType": "CALL",
      "contractName": "InitializableImmutableAdminUpgradeabilityProxy",
      "contractAddress": "0x6b8558764d3b7572136F17174Cb9aB1DDc7E1259",
      "function": "approve(address,uint256):(bool)",
      "arguments": [
        "0x6A763430e347d1E152823d646c700442A4db84aA",
        "100000000000000000000"
      ],
      "transaction": {
        "type": "0x02",
        "from": "0x3e122a3db43d225dd5bffd929ad4176ce69117e0",
        "to": "0x6b8558764d3b7572136f17174cb9ab1ddc7e1259",
        "gas": "0x1146c",
        "value": "0x0",
        "data": "0x095ea7b30000000000000000000000006a763430e347d1e152823d646c700442a4db84aa0000000000000000000000000000000000000000000000056bc75e2d63100000",
        "nonce": "0xf1",
        "accessList": []
      },
      "additionalContracts": [],
      "isFixedGasLimit": false
    },
    {
      "hash": "0xe98389fe8b304016ce92f4ba6d71ab6f674a2aa1a03b2393edb6ceac26b879bc",
      "transactionType": "CALL",
      "contractName": "TeleportAaveV3",
      "contractAddress": "0x6A763430e347d1E152823d646c700442A4db84aA",
      "function": "moveAavePositionToAnotherWallet(address,address,address[],uint256[],uint256[],uint256[],address[],uint256[])",
      "arguments": [
        "0x3e122A3dB43d225DD5BFFD929AD4176ce69117E0",
        "0xC5e0B6E472dDE70eCEfFa4c568Bd52f2A7a1632A",
        "[0xFF34B3d4Aee8ddCd6F9AFFFB6Fe49bD371b8a357, 0xFF34B3d4Aee8ddCd6F9AFFFB6Fe49bD371b8a357, 0xf8Fb3713D459D7C1018BD0A49D19b4C44290EBE5, 0xaA8E23Fb1079EA71e0a56F48a2aA51851D8433D0, 0xaA8E23Fb1079EA71e0a56F48a2aA51851D8433D0, 0x6d906e526a4e2Ca02097BA9d0caA3c382F52278E, 0x6d906e526a4e2Ca02097BA9d0caA3c382F52278E]",
        "[28636373618764783520292, 20032460830187888642, 70332105030301, 19021554669, 10016230, 201, 701]",
        "[2, 1, 2, 2, 1, 2, 1]",
        "[0, 0, 0, 0, 0, 0, 0]",
        "[0x3FfAf50D4F4E96eB78f2407c090b72e86eCaed24, 0x16dA4541aD1807f4443d92D26044C1147406EB80, 0x1804Bf30507dc2EB3bDEbbbdd859991EAeF6EefF, 0xAF0F6e8b0Dc5c913bbF4d14c22B4E78Dd14310B6, 0x6b8558764d3b7572136F17174Cb9aB1DDc7E1259]",
        "[1045913053676429875952, 1017535375, 100000001, 2015913, 100000000000000000000]"
      ],
      "transaction": {
        "type": "0x02",
        "from": "0x3e122a3db43d225dd5bffd929ad4176ce69117e0",
        "to": "0x6a763430e347d1e152823d646c700442a4db84aa",
        "gas": "0x3444aa",
        "value": "0x0",
        "data": "0xab745c4a0000000000000000000000003e122a3db43d225dd5bffd929ad4176ce69117e0000000000000000000000000c5e0b6e472dde70eceffa4c568bd52f2a7a1632a0000000000000000000000000000000000000000000000000000000000000100000000000000000000000000000000000000000000000000000000000000020000000000000000000000000000000000000000000000000000000000000003000000000000000000000000000000000000000000000000000000000000000400000000000000000000000000000000000000000000000000000000000000050000000000000000000000000000000000000000000000000000000000000005c00000000000000000000000000000000000000000000000000000000000000007000000000000000000000000ff34b3d4aee8ddcd6f9afffb6fe49bd371b8a357000000000000000000000000ff34b3d4aee8ddcd6f9afffb6fe49bd371b8a357000000000000000000000000f8fb3713d459d7c1018bd0a49d19b4c44290ebe5000000000000000000000000aa8e23fb1079ea71e0a56f48a2aa51851d8433d0000000000000000000000000aa8e23fb1079ea71e0a56f48a2aa51851d8433d00000000000000000000000006d906e526a4e2ca02097ba9d0caa3c382f52278e0000000000000000000000006d906e526a4e2ca02097ba9d0caa3c382f52278e000000000000000000000000000000000000000000000000000000000000000700000000000000000000000000000000000000000000061061844441b2478a24000000000000000000000000000000000000000000000001160198fd1046a00200000000000000000000000000000000000000000000000000003ff77822fa9d000000000000000000000000000000000000000000000000000000046dc5e3ed000000000000000000000000000000000000000000000000000000000098d5e600000000000000000000000000000000000000000000000000000000000000c900000000000000000000000000000000000000000000000000000000000002bd000000000000000000000000000000000000000000000000000000000000000700000000000000000000000000000000000000000000000000000000000000020000000000000000000000000000000000000000000000000000000000000001000000000000000000000000000000000000000000000000000000000000000200000000000000000000000000000000000000000000000000000000000000020000000000000000000000000000000000000000000000000000000000000001000000000000000000000000000000000000000000000000000000000000000200000000000000000000000000000000000000000000000000000000000000010000000000000000000000000000000000000000000000000000000000000007000000000000000000000000000000000000000000000000000000000000000000000000000000000000000000000000000000000000000000000000000000000000000000000000000000000000000000000000000000000000000000000000000000000000000000000000000000000000000000000000000000000000000000000000000000000000000000000000000000000000000000000000000000000000000000000000000000000000000000000000000000000000000000000000000000000000000000000000000000000000000000000000000000000000000000000000000000000000000000000000000000000000000000000000000000050000000000000000000000003ffaf50d4f4e96eb78f2407c090b72e86ecaed2400000000000000000000000016da4541ad1807f4443d92d26044c1147406eb800000000000000000000000001804bf30507dc2eb3bdebbbdd859991eaef6eeff000000000000000000000000af0f6e8b0dc5c913bbf4d14c22b4e78dd14310b60000000000000000000000006b8558764d3b7572136f17174cb9ab1ddc7e12590000000000000000000000000000000000000000000000000000000000000005000000000000000000000000000000000000000000000038b2f59cd577ab9af0000000000000000000000000000000000000000000000000000000003ca65b8f0000000000000000000000000000000000000000000000000000000005f5e10100000000000000000000000000000000000000000000000000000000001ec2a90000000000000000000000000000000000000000000000056bc75e2d63100000",
        "nonce": "0xf2",
        "accessList": []
      },
      "additionalContracts": [],
      "isFixedGasLimit": false
    }
  ],
  "receipts": [
    {
      "transactionHash": "0x731f27b28edfd7ee3adcbcfacb620d69aec03f646fe7768cab0c4f932a9053db",
      "transactionIndex": "0x5",
      "blockHash": "0x22f4316781d6325e25fa85825900df786ba28bc7fee5a69ff74cddb11e948591",
      "blockNumber": "0x465455",
      "from": "0xC5e0B6E472dDE70eCEfFa4c568Bd52f2A7a1632A",
      "to": "0x22675C506A8FC26447aFFfa33640f6af5d4D4cF0",
      "cumulativeGasUsed": "0x357f7",
      "gasUsed": "0x8f0c",
      "contractAddress": null,
      "logs": [
        {
          "address": "0x22675C506A8FC26447aFFfa33640f6af5d4D4cF0",
          "topics": [
            "0xda919360433220e13b51e8c211e490d148e61a3bd53de8c097194e458b97f3e1",
            "0x000000000000000000000000c5e0b6e472dde70eceffa4c568bd52f2a7a1632a",
            "0x0000000000000000000000006a763430e347d1e152823d646c700442a4db84aa",
            "0x000000000000000000000000ff34b3d4aee8ddcd6f9afffb6fe49bd371b8a357"
          ],
          "data": "0x00000000000000000000000000000000000000000000062f6db4fdf1172002a9",
          "blockHash": "0x22f4316781d6325e25fa85825900df786ba28bc7fee5a69ff74cddb11e948591",
          "blockNumber": "0x465455",
          "transactionHash": "0x731f27b28edfd7ee3adcbcfacb620d69aec03f646fe7768cab0c4f932a9053db",
          "transactionIndex": "0x5",
          "logIndex": "0x3",
          "removed": false
        }
      ],
      "status": "0x1",
      "logsBloom": "0x00000000000000000000000000002000000000000000800000000000000000800000000000000000000000000000000000000000000000000000000000000000000000000000000040000000000000000000000000000000000000000000100000000000000000000010000000000000000000000000000000000001000000000000000080000000000000000000000000000000000000000000000000002000000000000000004000000000800000000000000040000000000000000002000000000000000010000000000000000000000000000000000000000000000000000000000000000000000000000000000100000000000000000000000000000000",
      "type": "0x2",
      "effectiveGasPrice": "0xb2d6bb21"
    },
    {
      "transactionHash": "0xe4f0a10afefa339a8de4f1aa84ddf1f090ff060a5a6247559913119a1dc537b2",
      "transactionIndex": "0x4",
      "blockHash": "0x43b98226bf9f6b6a62dd0405500241a5d57181ebb15df1c64f355d0f4ad3fe3e",
      "blockNumber": "0x465457",
      "from": "0xC5e0B6E472dDE70eCEfFa4c568Bd52f2A7a1632A",
      "to": "0xbEF786E742edB13361ff2f005b901A82c23AA491",
      "cumulativeGasUsed": "0xd9f6f",
      "gasUsed": "0x8eea",
      "contractAddress": null,
      "logs": [
        {
          "address": "0xbEF786E742edB13361ff2f005b901A82c23AA491",
          "topics": [
            "0xda919360433220e13b51e8c211e490d148e61a3bd53de8c097194e458b97f3e1",
            "0x000000000000000000000000c5e0b6e472dde70eceffa4c568bd52f2a7a1632a",
            "0x0000000000000000000000006a763430e347d1e152823d646c700442a4db84aa",
            "0x000000000000000000000000ff34b3d4aee8ddcd6f9afffb6fe49bd371b8a357"
          ],
          "data": "0x0000000000000000000000000000000000000000000000011b90fd540b7b3cce",
          "blockHash": "0x43b98226bf9f6b6a62dd0405500241a5d57181ebb15df1c64f355d0f4ad3fe3e",
          "blockNumber": "0x465457",
          "transactionHash": "0xe4f0a10afefa339a8de4f1aa84ddf1f090ff060a5a6247559913119a1dc537b2",
          "transactionIndex": "0x4",
          "logIndex": "0x1",
          "removed": false
        }
      ],
      "status": "0x1",
      "logsBloom": "0x00000000000000000000000000002000000000000000800000000000000000800000000000000000000040000000000000000000000000000000000000000000000000000000000040000000000000000000000000000000000000000000100000000000000000000000000000000000000000000000000000000001000000000000000080000000000000000000000000000000000000000000000000000000000000000000000000000004800000000000000040000000000000000002000000000000000010000000000000000000000000000000000000000000000000000000000000800000000000000000000100000000000000000000000000000000",
      "type": "0x2",
      "effectiveGasPrice": "0xb2d5ee01"
    },
    {
      "transactionHash": "0x19559955c5cf3e60064268e274508114b69c08319bcf716ce03f24771e9c12af",
      "transactionIndex": "0x4",
      "blockHash": "0x86e53ac1ebd3a8d31a1b472bc4764909915f3ba1ef7391bce234f2bdc5179a8f",
      "blockNumber": "0x465458",
      "from": "0xC5e0B6E472dDE70eCEfFa4c568Bd52f2A7a1632A",
      "to": "0x34a4d932E722b9dFb492B9D8131127690CE2430B",
      "cumulativeGasUsed": "0xf251d",
      "gasUsed": "0x8edc",
      "contractAddress": null,
      "logs": [
        {
          "address": "0x34a4d932E722b9dFb492B9D8131127690CE2430B",
          "topics": [
            "0xda919360433220e13b51e8c211e490d148e61a3bd53de8c097194e458b97f3e1",
            "0x000000000000000000000000c5e0b6e472dde70eceffa4c568bd52f2a7a1632a",
            "0x0000000000000000000000006a763430e347d1e152823d646c700442a4db84aa",
            "0x000000000000000000000000f8fb3713d459d7c1018bd0a49d19b4c44290ebe5"
          ],
          "data": "0x0000000000000000000000000000000000000000000000000000413efa8a141b",
          "blockHash": "0x86e53ac1ebd3a8d31a1b472bc4764909915f3ba1ef7391bce234f2bdc5179a8f",
          "blockNumber": "0x465458",
          "transactionHash": "0x19559955c5cf3e60064268e274508114b69c08319bcf716ce03f24771e9c12af",
          "transactionIndex": "0x4",
          "logIndex": "0x2",
          "removed": false
        }
      ],
      "status": "0x1",
      "logsBloom": "0x00020000000000000000000000002000000000000000000000000000000000800000000040000000000000000000000000000000000000000000000000000000000000000001000040000000000000000000000000000000000000000000100000000000000020000000000000000000000000000000000000000001000000000000000080000000000000000000000000000000000000000000000000000000000000000000020000000000800000000000000040000000000000000000000000000000000000000000000000000000004000000000000000000000000000000000000000000000000000000000000100000000000000000000000000000000",
      "type": "0x2",
      "effectiveGasPrice": "0xb2d5ff41"
    },
    {
      "transactionHash": "0x5464985ab0bc1f77e9e7f92dcab5e20b4c1a3d751e9b57e1afd41ad6cded5d74",
      "transactionIndex": "0x4",
      "blockHash": "0x6f7edef19155aefc1d521ecfab36f3496e5c3f7990b0412b467fbd6e9740a1df",
      "blockNumber": "0x465459",
      "from": "0xC5e0B6E472dDE70eCEfFa4c568Bd52f2A7a1632A",
      "to": "0x9844386d29EEd970B9F6a2B9a676083b0478210e",
      "cumulativeGasUsed": "0xad7a4",
      "gasUsed": "0x8ed0",
      "contractAddress": null,
      "logs": [
        {
          "address": "0x9844386d29EEd970B9F6a2B9a676083b0478210e",
          "topics": [
            "0xda919360433220e13b51e8c211e490d148e61a3bd53de8c097194e458b97f3e1",
            "0x000000000000000000000000c5e0b6e472dde70eceffa4c568bd52f2a7a1632a",
            "0x0000000000000000000000006a763430e347d1e152823d646c700442a4db84aa",
            "0x000000000000000000000000aa8e23fb1079ea71e0a56f48a2aa51851d8433d0"
          ],
          "data": "0x000000000000000000000000000000000000000000000000000000048472cee2",
          "blockHash": "0x6f7edef19155aefc1d521ecfab36f3496e5c3f7990b0412b467fbd6e9740a1df",
          "blockNumber": "0x465459",
          "transactionHash": "0x5464985ab0bc1f77e9e7f92dcab5e20b4c1a3d751e9b57e1afd41ad6cded5d74",
          "transactionIndex": "0x4",
          "logIndex": "0x2",
          "removed": false
        }
      ],
      "status": "0x1",
      "logsBloom": "0x00000000000000000000000000002000000000000000000000000000000000800000000000000000000000000000000000000000000000000000000000000000000000000000000040000000000000000000000000000000000000000000100000000000000000000000000080000000000000000000000000000001000000000000000080000000000000000000000000000000000000000000000000000000000000000000000000000000800000000000000040000000020004000000000000000000000000000000000000000000000200100000000000000000000000000000000000000000000000000000000100010000000000000000000000000000",
      "type": "0x2",
      "effectiveGasPrice": "0xb2d5cdee"
    },
    {
      "transactionHash": "0x8cfe30bebfb29f2c9d838a9af0b5ba16bc08b0b4db97ca45ec3f7c7b8141139f",
      "transactionIndex": "0x9",
      "blockHash": "0xe1c989b22d334787433f514790c378318dc139a9bbb39a79f0161e028352f6a0",
      "blockNumber": "0x46545b",
      "from": "0xC5e0B6E472dDE70eCEfFa4c568Bd52f2A7a1632A",
      "to": "0xEAF54fA3b1C7243033C2893c6B807f9cEaBCf0AF",
      "cumulativeGasUsed": "0x1db40f",
      "gasUsed": "0x8ea2",
      "contractAddress": null,
      "logs": [
        {
          "address": "0xEAF54fA3b1C7243033C2893c6B807f9cEaBCf0AF",
          "topics": [
            "0xda919360433220e13b51e8c211e490d148e61a3bd53de8c097194e458b97f3e1",
            "0x000000000000000000000000c5e0b6e472dde70eceffa4c568bd52f2a7a1632a",
            "0x0000000000000000000000006a763430e347d1e152823d646c700442a4db84aa",
            "0x000000000000000000000000aa8e23fb1079ea71e0a56f48a2aa51851d8433d0"
          ],
          "data": "0x00000000000000000000000000000000000000000000000000000000009be46a",
          "blockHash": "0xe1c989b22d334787433f514790c378318dc139a9bbb39a79f0161e028352f6a0",
          "blockNumber": "0x46545b",
          "transactionHash": "0x8cfe30bebfb29f2c9d838a9af0b5ba16bc08b0b4db97ca45ec3f7c7b8141139f",
          "transactionIndex": "0x9",
          "logIndex": "0x3",
          "removed": false
        }
      ],
      "status": "0x1",
      "logsBloom": "0x00000000000000000000000000002000000000000040000000000000000000800000000000000000000000000000000000000000000000000000000000000000000000000000000040000000000000000000000000000000000000000000100000000000000000000000000080000000000000000000000000000001000000000000000080000000000000000000000000000000000000000000000000000000000000000000000000000000800000000000000040000000000004000000000000000000000000000000000040000100000000000000000000000000000000000000000000000000000000000000000100010000000000000000000000000000",
      "type": "0x2",
      "effectiveGasPrice": "0xb2d50dc8"
    },
    {
      "transactionHash": "0x6eaa15ad0f28929bcf619a6aab9f64cbad0e3898ba82438be3c15958e41a9b89",
      "transactionIndex": "0x3",
      "blockHash": "0x0632794660ea49f209d16265d37d60369a7e4e5b1be31f70c0715858cd50d92b",
      "blockNumber": "0x46545c",
      "from": "0xC5e0B6E472dDE70eCEfFa4c568Bd52f2A7a1632A",
      "to": "0x94482C7A7477196259D8a0f74fB853277Fa5a75b",
      "cumulativeGasUsed": "0x28c43",
      "gasUsed": "0x8ea0",
      "contractAddress": null,
      "logs": [
        {
          "address": "0x94482C7A7477196259D8a0f74fB853277Fa5a75b",
          "topics": [
            "0xda919360433220e13b51e8c211e490d148e61a3bd53de8c097194e458b97f3e1",
            "0x000000000000000000000000c5e0b6e472dde70eceffa4c568bd52f2a7a1632a",
            "0x0000000000000000000000006a763430e347d1e152823d646c700442a4db84aa",
            "0x0000000000000000000000006d906e526a4e2ca02097ba9d0caa3c382f52278e"
          ],
          "data": "0x00000000000000000000000000000000000000000000000000000000000000cd",
          "blockHash": "0x0632794660ea49f209d16265d37d60369a7e4e5b1be31f70c0715858cd50d92b",
          "blockNumber": "0x46545c",
          "transactionHash": "0x6eaa15ad0f28929bcf619a6aab9f64cbad0e3898ba82438be3c15958e41a9b89",
          "transactionIndex": "0x3",
          "logIndex": "0x2",
          "removed": false
        }
      ],
      "status": "0x1",
      "logsBloom": "0x00000000000000000400000000002000000000000000000000000000000000810000000000000000000000000000000000000000000000000000000000000000000000000000000040000000000000000000000000000000000000000000100000000000000000000000000000200000000000000040000000000001000000000000000080000000000000000000000000000000000000000000000000000000000000000080000000000000800000000000000040000000000000000000000000000040000000000000000000000000000000000000000000000000000000000000000000000000000000000000000100000000000000000000000000000000",
      "type": "0x2",
      "effectiveGasPrice": "0xb2d56a84"
    },
    {
      "transactionHash": "0x9a9793218943d137fa478a03ed375d012f8ff426953d684af85ebed245c044af",
      "transactionIndex": "0x2",
      "blockHash": "0x8cd26ba97f318af731108183cc0aebba6faa6d009d0e7408dcfa5930a2b875e9",
      "blockNumber": "0x46545d",
      "from": "0xC5e0B6E472dDE70eCEfFa4c568Bd52f2A7a1632A",
      "to": "0x08878209484D8178DD1FFA50AB1689F21aDBB856",
      "cumulativeGasUsed": "0x2094a",
      "gasUsed": "0x8e96",
      "contractAddress": null,
      "logs": [
        {
          "address": "0x08878209484D8178DD1FFA50AB1689F21aDBB856",
          "topics": [
            "0xda919360433220e13b51e8c211e490d148e61a3bd53de8c097194e458b97f3e1",
            "0x000000000000000000000000c5e0b6e472dde70eceffa4c568bd52f2a7a1632a",
            "0x0000000000000000000000006a763430e347d1e152823d646c700442a4db84aa",
            "0x0000000000000000000000006d906e526a4e2ca02097ba9d0caa3c382f52278e"
          ],
          "data": "0x00000000000000000000000000000000000000000000000000000000000002cb",
          "blockHash": "0x8cd26ba97f318af731108183cc0aebba6faa6d009d0e7408dcfa5930a2b875e9",
          "blockNumber": "0x46545d",
          "transactionHash": "0x9a9793218943d137fa478a03ed375d012f8ff426953d684af85ebed245c044af",
          "transactionIndex": "0x2",
          "logIndex": "0x1",
          "removed": false
        }
      ],
      "status": "0x1",
      "logsBloom": "0x00000000000000000000000000002000000000000000000000000000000000800000000000000000000000000000000000000000000000000000000000000000000000000000000040000000000000000000000000000000000000000000100000000000000000000000000000000000000000000040000000000001000000000000000080000000001000000000000000000000000000000000000000000000000000000080400000000000800000000000000040000000000000000000000000000040000000000000000000000000000000000000000000000000000000000000000000000000000000000000000100000000000000000000000000000000",
      "type": "0x2",
      "effectiveGasPrice": "0xb2d531e2"
    },
    {
      "transactionHash": "0x62865599f23e53ae6612b14dfecc98d78a3b3ef2db6a7d3a5ba6fc44a12faada",
      "transactionIndex": "0x10",
      "blockHash": "0xdceca537f76752569611df214a3b008065b38763afe8abdb58c5c3e490dfd76b",
      "blockNumber": "0x46545e",
      "from": "0x3e122A3dB43d225DD5BFFD929AD4176ce69117E0",
      "to": "0x3FfAf50D4F4E96eB78f2407c090b72e86eCaed24",
      "cumulativeGasUsed": "0x3b586f",
      "gasUsed": "0xc838",
      "contractAddress": null,
      "logs": [
        {
          "address": "0x3FfAf50D4F4E96eB78f2407c090b72e86eCaed24",
          "topics": [
            "0x8c5be1e5ebec7d5bd14f71427d1e84f3dd0314c0f7b2291e5b200ac8c7c3b925",
            "0x0000000000000000000000003e122a3db43d225dd5bffd929ad4176ce69117e0",
            "0x0000000000000000000000006a763430e347d1e152823d646c700442a4db84aa"
          ],
          "data": "0x000000000000000000000000000000000000000000000038b2f59cd577ab9af0",
          "blockHash": "0xdceca537f76752569611df214a3b008065b38763afe8abdb58c5c3e490dfd76b",
          "blockNumber": "0x46545e",
          "transactionHash": "0x62865599f23e53ae6612b14dfecc98d78a3b3ef2db6a7d3a5ba6fc44a12faada",
          "transactionIndex": "0x10",
          "logIndex": "0x26",
          "removed": false
        }
      ],
      "status": "0x1",
      "logsBloom": "0x00000000080000000000000000000000000000000000000000000000000000800000000000000000000000000000000000000000000000000000000000200000000000000000000040000000000000000000000000000000000000000000000000000000000000000000001000000000000000000000000000000000000000000000008080040000000000000000000000000000000000000000000000000000020000000000000000000080000000000000000000000000000000000000000000000000000000000000000000000000000000000000000000000000000000000010000000000000000000000000000000000000000000000000000001000000",
      "type": "0x2",
      "effectiveGasPrice": "0xb2d4f21b"
    },
    {
      "transactionHash": "0xcc3e1066375107952bf55a5c55f57c13455993a9eab7dc6c73d16dca7b7fb6cc",
      "transactionIndex": "0x4",
      "blockHash": "0x83f8141311ac9cba81540bc52bacd9c9d57d54a9805c7b26af17a72c481ef220",
      "blockNumber": "0x46545f",
      "from": "0x3e122A3dB43d225DD5BFFD929AD4176ce69117E0",
      "to": "0x16dA4541aD1807f4443d92D26044C1147406EB80",
      "cumulativeGasUsed": "0x57523",
      "gasUsed": "0xc7fc",
      "contractAddress": null,
      "logs": [
        {
          "address": "0x16dA4541aD1807f4443d92D26044C1147406EB80",
          "topics": [
            "0x8c5be1e5ebec7d5bd14f71427d1e84f3dd0314c0f7b2291e5b200ac8c7c3b925",
            "0x0000000000000000000000003e122a3db43d225dd5bffd929ad4176ce69117e0",
            "0x0000000000000000000000006a763430e347d1e152823d646c700442a4db84aa"
          ],
          "data": "0x000000000000000000000000000000000000000000000000000000003ca65b8f",
          "blockHash": "0x83f8141311ac9cba81540bc52bacd9c9d57d54a9805c7b26af17a72c481ef220",
          "blockNumber": "0x46545f",
          "transactionHash": "0xcc3e1066375107952bf55a5c55f57c13455993a9eab7dc6c73d16dca7b7fb6cc",
          "transactionIndex": "0x4",
          "logIndex": "0x1",
          "removed": false
        }
      ],
      "status": "0x1",
      "logsBloom": "0x00000000080000000200000000000000000000000000000000000000000000800000008000000000000000000000000000000000000000000000000000200000000000000000000040000000000000000000000000000000000000000000000000000000000000000000000000000000000000000000000000000000000000000000000080040000000000000000000000000000000000000000000000000000020000000000000000000080000000000000000000000000000000000000000000008000000000000000000000000000000000000000000000000000000000000010000000000000000000000000000000000000000000000000000000000000",
      "type": "0x2",
      "effectiveGasPrice": "0xb2d4c199"
    },
    {
      "transactionHash": "0x284659a839fdb39ff8dda93376abb808193ecb37711949f4ec70ae7099d2f80b",
      "transactionIndex": "0x4",
      "blockHash": "0x825c30d2151d8cb055df5b6b2801007aebf292092df4832bcfa0d1a57ff49d70",
      "blockNumber": "0x465460",
      "from": "0x3e122A3dB43d225DD5BFFD929AD4176ce69117E0",
      "to": "0x1804Bf30507dc2EB3bDEbbbdd859991EAeF6EefF",
      "cumulativeGasUsed": "0x15b348",
      "gasUsed": "0xc7fc",
      "contractAddress": null,
      "logs": [
        {
          "address": "0x1804Bf30507dc2EB3bDEbbbdd859991EAeF6EefF",
          "topics": [
            "0x8c5be1e5ebec7d5bd14f71427d1e84f3dd0314c0f7b2291e5b200ac8c7c3b925",
            "0x0000000000000000000000003e122a3db43d225dd5bffd929ad4176ce69117e0",
            "0x0000000000000000000000006a763430e347d1e152823d646c700442a4db84aa"
          ],
          "data": "0x0000000000000000000000000000000000000000000000000000000005f5e101",
          "blockHash": "0x825c30d2151d8cb055df5b6b2801007aebf292092df4832bcfa0d1a57ff49d70",
          "blockNumber": "0x465460",
          "transactionHash": "0x284659a839fdb39ff8dda93376abb808193ecb37711949f4ec70ae7099d2f80b",
          "transactionIndex": "0x4",
          "logIndex": "0xa",
          "removed": false
        }
      ],
      "status": "0x1",
      "logsBloom": "0x00000000080000000000000000000000000000000000000000000000000000800000000000000000000000000000000000000000000000000000000000200000000000000000000040000000000000000000000000000000000000000000000000000000000000000000000000000000000000000000000000000000000000000000000080040000000000000000000000000000000000000000000000000000020000000000000000000080000000000000000000004000000002000000000000000000000000000000000000000000000000000000000000000000000000000010000008000000000000000000000000000000000000000000000000000000",
      "type": "0x2",
      "effectiveGasPrice": "0xb2d4700f"
    },
    {
      "transactionHash": "0x373009566721e2f6cdd8f992df1764a3ae42319e9d9d4ecbba2c8462b34d1f3c",
      "transactionIndex": "0x2",
      "blockHash": "0x3c9232f41f3a6b64adb07c16d1c15941fcc423cdf89c82bc93361d9095699772",
      "blockNumber": "0x465461",
      "from": "0x3e122A3dB43d225DD5BFFD929AD4176ce69117E0",
      "to": "0xAF0F6e8b0Dc5c913bbF4d14c22B4E78Dd14310B6",
      "cumulativeGasUsed": "0x16c00",
      "gasUsed": "0xc7f0",
      "contractAddress": null,
      "logs": [
        {
          "address": "0xAF0F6e8b0Dc5c913bbF4d14c22B4E78Dd14310B6",
          "topics": [
            "0x8c5be1e5ebec7d5bd14f71427d1e84f3dd0314c0f7b2291e5b200ac8c7c3b925",
            "0x0000000000000000000000003e122a3db43d225dd5bffd929ad4176ce69117e0",
            "0x0000000000000000000000006a763430e347d1e152823d646c700442a4db84aa"
          ],
          "data": "0x00000000000000000000000000000000000000000000000000000000001ec2a9",
          "blockHash": "0x3c9232f41f3a6b64adb07c16d1c15941fcc423cdf89c82bc93361d9095699772",
          "blockNumber": "0x465461",
          "transactionHash": "0x373009566721e2f6cdd8f992df1764a3ae42319e9d9d4ecbba2c8462b34d1f3c",
          "transactionIndex": "0x2",
          "logIndex": "0x0",
          "removed": false
        }
      ],
      "status": "0x1",
      "logsBloom": "0x00000000080000000000000000000000000000000000000000000000000000800000000000000000000000000000000000000000000000000000000000200000000000000000000040000000000000000000000000000000000000000000000000000000000000000000000000000000000000000000000000000000000000000000000080040000000000000000000000000000000000000000000000000000020000000000000000000080000000000000008000000000000000000000000000000000000000000000000000080000000000000000000000000001000000000010000000000000000000000000000000000000000000000000000000000000",
      "type": "0x2",
      "effectiveGasPrice": "0xb2d4592c"
    },
    {
      "transactionHash": "0x1c494190882175218ebb4196549792493b351b8ad22fe9ad7cab930a34792fb8",
      "transactionIndex": "0x3",
      "blockHash": "0x189066e364317746b3680b84ae662c63c52d905e24fceed5283ba82d04f9f507",
      "blockNumber": "0x465462",
      "from": "0x3e122A3dB43d225DD5BFFD929AD4176ce69117E0",
      "to": "0x6b8558764d3b7572136F17174Cb9aB1DDc7E1259",
      "cumulativeGasUsed": "0x4c5e2",
      "gasUsed": "0xc820",
      "contractAddress": null,
      "logs": [
        {
          "address": "0x6b8558764d3b7572136F17174Cb9aB1DDc7E1259",
          "topics": [
            "0x8c5be1e5ebec7d5bd14f71427d1e84f3dd0314c0f7b2291e5b200ac8c7c3b925",
            "0x0000000000000000000000003e122a3db43d225dd5bffd929ad4176ce69117e0",
            "0x0000000000000000000000006a763430e347d1e152823d646c700442a4db84aa"
          ],
          "data": "0x0000000000000000000000000000000000000000000000056bc75e2d63100000",
          "blockHash": "0x189066e364317746b3680b84ae662c63c52d905e24fceed5283ba82d04f9f507",
          "blockNumber": "0x465462",
          "transactionHash": "0x1c494190882175218ebb4196549792493b351b8ad22fe9ad7cab930a34792fb8",
          "transactionIndex": "0x3",
          "logIndex": "0x1",
          "removed": false
        }
      ],
      "status": "0x1",
      "logsBloom": "0x00000000080000000000000000000800000000000000000000000000000000800000000000000000000000000000000000000000000000000000000000200000000000000000000040002000000000000000000000000000000000000000000000000000000000000000000000000000000000000000000000000000000000000000000080040000000000000000000000000000000000000000000000000000020000000000000000000080000000000000000000000000000000000000000000000000000000000000000000000000000000000000000000000000000000000010000400000000000000000000000000000000000000000000000000000000",
      "type": "0x2",
      "effectiveGasPrice": "0xb2d404aa"
    },
    {
      "transactionHash": "0xe98389fe8b304016ce92f4ba6d71ab6f674a2aa1a03b2393edb6ceac26b879bc",
      "transactionIndex": "0x3",
      "blockHash": "0x5c39f3cc4b84e52664970e0981a65ffb7a609c17b9ef1fad465c44846a038543",
      "blockNumber": "0x465463",
      "from": "0x3e122A3dB43d225DD5BFFD929AD4176ce69117E0",
      "to": "0x6A763430e347d1E152823d646c700442A4db84aA",
      "cumulativeGasUsed": "0x28eb9f",
      "gasUsed": "0x26066c",
      "contractAddress": null,
      "logs": [
        {
          "address": "0xFF34B3d4Aee8ddCd6F9AFFFB6Fe49bD371b8a357",
          "topics": [
            "0xddf252ad1be2c89b69c2b068fc378daa952ba7f163c4a11628f55a4df523b3ef",
            "0x00000000000000000000000029598b72eb5cebd806c5dcd549490fda35b13cd8",
            "0x0000000000000000000000006a763430e347d1e152823d646c700442a4db84aa"
          ],
          "data": "0x00000000000000000000000000000000000000000000061061844441b2478a24",
          "blockHash": "0x5c39f3cc4b84e52664970e0981a65ffb7a609c17b9ef1fad465c44846a038543",
          "blockNumber": "0x465463",
          "transactionHash": "0xe98389fe8b304016ce92f4ba6d71ab6f674a2aa1a03b2393edb6ceac26b879bc",
          "transactionIndex": "0x3",
          "logIndex": "0x1",
          "removed": false
        },
        {
          "address": "0xFF34B3d4Aee8ddCd6F9AFFFB6Fe49bD371b8a357",
          "topics": [
            "0xddf252ad1be2c89b69c2b068fc378daa952ba7f163c4a11628f55a4df523b3ef",
            "0x00000000000000000000000029598b72eb5cebd806c5dcd549490fda35b13cd8",
            "0x0000000000000000000000006a763430e347d1e152823d646c700442a4db84aa"
          ],
          "data": "0x000000000000000000000000000000000000000000000001160198fd1046a002",
          "blockHash": "0x5c39f3cc4b84e52664970e0981a65ffb7a609c17b9ef1fad465c44846a038543",
          "blockNumber": "0x465463",
          "transactionHash": "0xe98389fe8b304016ce92f4ba6d71ab6f674a2aa1a03b2393edb6ceac26b879bc",
          "transactionIndex": "0x3",
          "logIndex": "0x2",
          "removed": false
        },
        {
          "address": "0xf8Fb3713D459D7C1018BD0A49D19b4C44290EBE5",
          "topics": [
            "0xddf252ad1be2c89b69c2b068fc378daa952ba7f163c4a11628f55a4df523b3ef",
            "0x0000000000000000000000003ffaf50d4f4e96eb78f2407c090b72e86ecaed24",
            "0x0000000000000000000000006a763430e347d1e152823d646c700442a4db84aa"
          ],
          "data": "0x00000000000000000000000000000000000000000000000000003ff77822fa9d",
          "blockHash": "0x5c39f3cc4b84e52664970e0981a65ffb7a609c17b9ef1fad465c44846a038543",
          "blockNumber": "0x465463",
          "transactionHash": "0xe98389fe8b304016ce92f4ba6d71ab6f674a2aa1a03b2393edb6ceac26b879bc",
          "transactionIndex": "0x3",
          "logIndex": "0x3",
          "removed": false
        },
        {
          "address": "0xaA8E23Fb1079EA71e0a56F48a2aA51851D8433D0",
          "topics": [
            "0xddf252ad1be2c89b69c2b068fc378daa952ba7f163c4a11628f55a4df523b3ef",
            "0x000000000000000000000000af0f6e8b0dc5c913bbf4d14c22b4e78dd14310b6",
            "0x0000000000000000000000006a763430e347d1e152823d646c700442a4db84aa"
          ],
          "data": "0x000000000000000000000000000000000000000000000000000000046dc5e3ed",
          "blockHash": "0x5c39f3cc4b84e52664970e0981a65ffb7a609c17b9ef1fad465c44846a038543",
          "blockNumber": "0x465463",
          "transactionHash": "0xe98389fe8b304016ce92f4ba6d71ab6f674a2aa1a03b2393edb6ceac26b879bc",
          "transactionIndex": "0x3",
          "logIndex": "0x4",
          "removed": false
        },
        {
          "address": "0xaA8E23Fb1079EA71e0a56F48a2aA51851D8433D0",
          "topics": [
            "0xddf252ad1be2c89b69c2b068fc378daa952ba7f163c4a11628f55a4df523b3ef",
            "0x000000000000000000000000af0f6e8b0dc5c913bbf4d14c22b4e78dd14310b6",
            "0x0000000000000000000000006a763430e347d1e152823d646c700442a4db84aa"
          ],
          "data": "0x000000000000000000000000000000000000000000000000000000000098d5e6",
          "blockHash": "0x5c39f3cc4b84e52664970e0981a65ffb7a609c17b9ef1fad465c44846a038543",
          "blockNumber": "0x465463",
          "transactionHash": "0xe98389fe8b304016ce92f4ba6d71ab6f674a2aa1a03b2393edb6ceac26b879bc",
          "transactionIndex": "0x3",
          "logIndex": "0x5",
          "removed": false
        },
        {
          "address": "0x6d906e526a4e2Ca02097BA9d0caA3c382F52278E",
          "topics": [
            "0xddf252ad1be2c89b69c2b068fc378daa952ba7f163c4a11628f55a4df523b3ef",
            "0x000000000000000000000000b20691021f9aced8631edaa3c0cd2949eb45662d",
            "0x0000000000000000000000006a763430e347d1e152823d646c700442a4db84aa"
          ],
          "data": "0x00000000000000000000000000000000000000000000000000000000000000c9",
          "blockHash": "0x5c39f3cc4b84e52664970e0981a65ffb7a609c17b9ef1fad465c44846a038543",
          "blockNumber": "0x465463",
          "transactionHash": "0xe98389fe8b304016ce92f4ba6d71ab6f674a2aa1a03b2393edb6ceac26b879bc",
          "transactionIndex": "0x3",
          "logIndex": "0x6",
          "removed": false
        },
        {
          "address": "0x6d906e526a4e2Ca02097BA9d0caA3c382F52278E",
          "topics": [
            "0xddf252ad1be2c89b69c2b068fc378daa952ba7f163c4a11628f55a4df523b3ef",
            "0x000000000000000000000000b20691021f9aced8631edaa3c0cd2949eb45662d",
            "0x0000000000000000000000006a763430e347d1e152823d646c700442a4db84aa"
          ],
          "data": "0x00000000000000000000000000000000000000000000000000000000000002bd",
          "blockHash": "0x5c39f3cc4b84e52664970e0981a65ffb7a609c17b9ef1fad465c44846a038543",
          "blockNumber": "0x465463",
          "transactionHash": "0xe98389fe8b304016ce92f4ba6d71ab6f674a2aa1a03b2393edb6ceac26b879bc",
          "transactionIndex": "0x3",
          "logIndex": "0x7",
          "removed": false
        },
        {
          "address": "0xFF34B3d4Aee8ddCd6F9AFFFB6Fe49bD371b8a357",
          "topics": [
            "0x8c5be1e5ebec7d5bd14f71427d1e84f3dd0314c0f7b2291e5b200ac8c7c3b925",
            "0x0000000000000000000000006a763430e347d1e152823d646c700442a4db84aa",
            "0x0000000000000000000000006ae43d3271ff6888e7fc43fd7321a503ff738951"
          ],
          "data": "0x00000000000000000000000000000000000000000000061061844441b2478a24",
          "blockHash": "0x5c39f3cc4b84e52664970e0981a65ffb7a609c17b9ef1fad465c44846a038543",
          "blockNumber": "0x465463",
          "transactionHash": "0xe98389fe8b304016ce92f4ba6d71ab6f674a2aa1a03b2393edb6ceac26b879bc",
          "transactionIndex": "0x3",
          "logIndex": "0x8",
          "removed": false
        },
        {
          "address": "0x22675C506A8FC26447aFFfa33640f6af5d4D4cF0",
          "topics": [
            "0xddf252ad1be2c89b69c2b068fc378daa952ba7f163c4a11628f55a4df523b3ef",
            "0x0000000000000000000000003e122a3db43d225dd5bffd929ad4176ce69117e0",
            "0x0000000000000000000000000000000000000000000000000000000000000000"
          ],
          "data": "0x0000000000000000000000000000000000000000000006105fba043e15622cbc",
          "blockHash": "0x5c39f3cc4b84e52664970e0981a65ffb7a609c17b9ef1fad465c44846a038543",
          "blockNumber": "0x465463",
          "transactionHash": "0xe98389fe8b304016ce92f4ba6d71ab6f674a2aa1a03b2393edb6ceac26b879bc",
          "transactionIndex": "0x3",
          "logIndex": "0x9",
          "removed": false
        },
        {
          "address": "0x22675C506A8FC26447aFFfa33640f6af5d4D4cF0",
          "topics": [
            "0x4cf25bc1d991c17529c25213d3cc0cda295eeaad5f13f361969b12ea48015f90",
            "0x0000000000000000000000003e122a3db43d225dd5bffd929ad4176ce69117e0",
            "0x0000000000000000000000000000000000000000000000000000000000000000"
          ],
          "data": "0x0000000000000000000000000000000000000000000006105fba043e15622cbc00000000000000000000000000000000000000000000000001ca40039ce55d6800000000000000000000000000000000000000000346f5b61e4a3072acbf8439",
          "blockHash": "0x5c39f3cc4b84e52664970e0981a65ffb7a609c17b9ef1fad465c44846a038543",
          "blockNumber": "0x465463",
          "transactionHash": "0xe98389fe8b304016ce92f4ba6d71ab6f674a2aa1a03b2393edb6ceac26b879bc",
          "transactionIndex": "0x3",
          "logIndex": "0xa",
          "removed": false
        },
        {
          "address": "0x6Ae43d3271ff6888e7Fc43Fd7321a503ff738951",
          "topics": [
            "0x804c9b842b2748a22bb64b345453a3de7ca54a6ca45ce00d415894979e22897a",
            "0x000000000000000000000000ff34b3d4aee8ddcd6f9afffb6fe49bd371b8a357"
          ],
          "data": "0x00000000000000000000000000000000000000000001e2253237d409d5d04e0f0000000000000000000000000000000000000000002a6b8d96c8bd3d67c9972e000000000000000000000000000000000000000000087d214325b69fae4cb97000000000000000000000000000000000000000000345451611769583a3a1f5ef00000000000000000000000000000000000000000346f5b61e4a3072acbf8439",
          "blockHash": "0x5c39f3cc4b84e52664970e0981a65ffb7a609c17b9ef1fad465c44846a038543",
          "blockNumber": "0x465463",
          "transactionHash": "0xe98389fe8b304016ce92f4ba6d71ab6f674a2aa1a03b2393edb6ceac26b879bc",
          "transactionIndex": "0x3",
          "logIndex": "0xb",
          "removed": false
        },
        {
          "address": "0xFF34B3d4Aee8ddCd6F9AFFFB6Fe49bD371b8a357",
          "topics": [
            "0xddf252ad1be2c89b69c2b068fc378daa952ba7f163c4a11628f55a4df523b3ef",
            "0x0000000000000000000000006a763430e347d1e152823d646c700442a4db84aa",
            "0x00000000000000000000000029598b72eb5cebd806c5dcd549490fda35b13cd8"
          ],
          "data": "0x00000000000000000000000000000000000000000000061061844441b2478a24",
          "blockHash": "0x5c39f3cc4b84e52664970e0981a65ffb7a609c17b9ef1fad465c44846a038543",
          "blockNumber": "0x465463",
          "transactionHash": "0xe98389fe8b304016ce92f4ba6d71ab6f674a2aa1a03b2393edb6ceac26b879bc",
          "transactionIndex": "0x3",
          "logIndex": "0xc",
          "removed": false
        },
        {
          "address": "0xFF34B3d4Aee8ddCd6F9AFFFB6Fe49bD371b8a357",
          "topics": [
            "0x8c5be1e5ebec7d5bd14f71427d1e84f3dd0314c0f7b2291e5b200ac8c7c3b925",
            "0x0000000000000000000000006a763430e347d1e152823d646c700442a4db84aa",
            "0x0000000000000000000000006ae43d3271ff6888e7fc43fd7321a503ff738951"
          ],
          "data": "0x0000000000000000000000000000000000000000000000000000000000000000",
          "blockHash": "0x5c39f3cc4b84e52664970e0981a65ffb7a609c17b9ef1fad465c44846a038543",
          "blockNumber": "0x465463",
          "transactionHash": "0xe98389fe8b304016ce92f4ba6d71ab6f674a2aa1a03b2393edb6ceac26b879bc",
          "transactionIndex": "0x3",
          "logIndex": "0xd",
          "removed": false
        },
        {
          "address": "0x6Ae43d3271ff6888e7Fc43Fd7321a503ff738951",
          "topics": [
            "0xa534c8dbe71f871f9f3530e97a74601fea17b426cae02e1c5aee42c96c784051",
            "0x000000000000000000000000ff34b3d4aee8ddcd6f9afffb6fe49bd371b8a357",
            "0x0000000000000000000000003e122a3db43d225dd5bffd929ad4176ce69117e0",
            "0x0000000000000000000000006a763430e347d1e152823d646c700442a4db84aa"
          ],
          "data": "0x00000000000000000000000000000000000000000000061061844441b2478a240000000000000000000000000000000000000000000000000000000000000000",
          "blockHash": "0x5c39f3cc4b84e52664970e0981a65ffb7a609c17b9ef1fad465c44846a038543",
          "blockNumber": "0x465463",
          "transactionHash": "0xe98389fe8b304016ce92f4ba6d71ab6f674a2aa1a03b2393edb6ceac26b879bc",
          "transactionIndex": "0x3",
          "logIndex": "0xe",
          "removed": false
        },
        {
          "address": "0xFF34B3d4Aee8ddCd6F9AFFFB6Fe49bD371b8a357",
          "topics": [
            "0x8c5be1e5ebec7d5bd14f71427d1e84f3dd0314c0f7b2291e5b200ac8c7c3b925",
            "0x0000000000000000000000006a763430e347d1e152823d646c700442a4db84aa",
            "0x0000000000000000000000006ae43d3271ff6888e7fc43fd7321a503ff738951"
          ],
          "data": "0x000000000000000000000000000000000000000000000001160198fd1046a002",
          "blockHash": "0x5c39f3cc4b84e52664970e0981a65ffb7a609c17b9ef1fad465c44846a038543",
          "blockNumber": "0x465463",
          "transactionHash": "0xe98389fe8b304016ce92f4ba6d71ab6f674a2aa1a03b2393edb6ceac26b879bc",
          "transactionIndex": "0x3",
          "logIndex": "0xf",
          "removed": false
        },
        {
          "address": "0xbEF786E742edB13361ff2f005b901A82c23AA491",
          "topics": [
            "0xddf252ad1be2c89b69c2b068fc378daa952ba7f163c4a11628f55a4df523b3ef",
            "0x0000000000000000000000003e122a3db43d225dd5bffd929ad4176ce69117e0",
            "0x0000000000000000000000000000000000000000000000000000000000000000"
          ],
          "data": "0x000000000000000000000000000000000000000000000001160006a1c14a37bd",
          "blockHash": "0x5c39f3cc4b84e52664970e0981a65ffb7a609c17b9ef1fad465c44846a038543",
          "blockNumber": "0x465463",
          "transactionHash": "0xe98389fe8b304016ce92f4ba6d71ab6f674a2aa1a03b2393edb6ceac26b879bc",
          "transactionIndex": "0x3",
          "logIndex": "0x10",
          "removed": false
        },
        {
          "address": "0xbEF786E742edB13361ff2f005b901A82c23AA491",
          "topics": [
            "0x44bd20a79e993bdcc7cbedf54a3b4d19fb78490124b6b90d04fe3242eea579e8",
            "0x0000000000000000000000003e122a3db43d225dd5bffd929ad4176ce69117e0"
          ],
          "data": "0x000000000000000000000000000000000000000000000001160006a1c14a37bd0000000000000000000000000000000000000000000000011601a0759cd1fcdd0000000000000000000000000000000000000000000000000001925b4efc68450000000000000000000000000000000000000000002c882423b31de2a5e08907000000000000000000000000000000000000000000000b798f47cd2636566661",
          "blockHash": "0x5c39f3cc4b84e52664970e0981a65ffb7a609c17b9ef1fad465c44846a038543",
          "blockNumber": "0x465463",
          "transactionHash": "0xe98389fe8b304016ce92f4ba6d71ab6f674a2aa1a03b2393edb6ceac26b879bc",
          "transactionIndex": "0x3",
          "logIndex": "0x11",
          "removed": false
        },
        {
          "address": "0x6Ae43d3271ff6888e7Fc43Fd7321a503ff738951",
          "topics": [
            "0x804c9b842b2748a22bb64b345453a3de7ca54a6ca45ce00d415894979e22897a",
            "0x000000000000000000000000ff34b3d4aee8ddcd6f9afffb6fe49bd371b8a357"
          ],
          "data": "0x00000000000000000000000000000000000000000001e21a7d43787d1f6abfdf0000000000000000000000000000000000000000002a6b8c5f35f861fb079656000000000000000000000000000000000000000000087d17868f8fc4483cb2ae00000000000000000000000000000000000000000345451611769583a3a1f5ef00000000000000000000000000000000000000000346f5b61e4a3072acbf8439",
          "blockHash": "0x5c39f3cc4b84e52664970e0981a65ffb7a609c17b9ef1fad465c44846a038543",
          "blockNumber": "0x465463",
          "transactionHash": "0xe98389fe8b304016ce92f4ba6d71ab6f674a2aa1a03b2393edb6ceac26b879bc",
          "transactionIndex": "0x3",
          "logIndex": "0x12",
          "removed": false
        },
        {
          "address": "0xFF34B3d4Aee8ddCd6F9AFFFB6Fe49bD371b8a357",
          "topics": [
            "0xddf252ad1be2c89b69c2b068fc378daa952ba7f163c4a11628f55a4df523b3ef",
            "0x0000000000000000000000006a763430e347d1e152823d646c700442a4db84aa",
            "0x00000000000000000000000029598b72eb5cebd806c5dcd549490fda35b13cd8"
          ],
          "data": "0x000000000000000000000000000000000000000000000001160198fd1046a002",
          "blockHash": "0x5c39f3cc4b84e52664970e0981a65ffb7a609c17b9ef1fad465c44846a038543",
          "blockNumber": "0x465463",
          "transactionHash": "0xe98389fe8b304016ce92f4ba6d71ab6f674a2aa1a03b2393edb6ceac26b879bc",
          "transactionIndex": "0x3",
          "logIndex": "0x13",
          "removed": false
        },
        {
          "address": "0xFF34B3d4Aee8ddCd6F9AFFFB6Fe49bD371b8a357",
          "topics": [
            "0x8c5be1e5ebec7d5bd14f71427d1e84f3dd0314c0f7b2291e5b200ac8c7c3b925",
            "0x0000000000000000000000006a763430e347d1e152823d646c700442a4db84aa",
            "0x0000000000000000000000006ae43d3271ff6888e7fc43fd7321a503ff738951"
          ],
          "data": "0x0000000000000000000000000000000000000000000000000000000000000000",
          "blockHash": "0x5c39f3cc4b84e52664970e0981a65ffb7a609c17b9ef1fad465c44846a038543",
          "blockNumber": "0x465463",
          "transactionHash": "0xe98389fe8b304016ce92f4ba6d71ab6f674a2aa1a03b2393edb6ceac26b879bc",
          "transactionIndex": "0x3",
          "logIndex": "0x14",
          "removed": false
        },
        {
          "address": "0x6Ae43d3271ff6888e7Fc43Fd7321a503ff738951",
          "topics": [
            "0xa534c8dbe71f871f9f3530e97a74601fea17b426cae02e1c5aee42c96c784051",
            "0x000000000000000000000000ff34b3d4aee8ddcd6f9afffb6fe49bd371b8a357",
            "0x0000000000000000000000003e122a3db43d225dd5bffd929ad4176ce69117e0",
            "0x0000000000000000000000006a763430e347d1e152823d646c700442a4db84aa"
          ],
          "data": "0x000000000000000000000000000000000000000000000001160198fd1046a0020000000000000000000000000000000000000000000000000000000000000000",
          "blockHash": "0x5c39f3cc4b84e52664970e0981a65ffb7a609c17b9ef1fad465c44846a038543",
          "blockNumber": "0x465463",
          "transactionHash": "0xe98389fe8b304016ce92f4ba6d71ab6f674a2aa1a03b2393edb6ceac26b879bc",
          "transactionIndex": "0x3",
          "logIndex": "0x15",
          "removed": false
        },
        {
          "address": "0xf8Fb3713D459D7C1018BD0A49D19b4C44290EBE5",
          "topics": [
            "0x8c5be1e5ebec7d5bd14f71427d1e84f3dd0314c0f7b2291e5b200ac8c7c3b925",
            "0x0000000000000000000000006a763430e347d1e152823d646c700442a4db84aa",
            "0x0000000000000000000000006ae43d3271ff6888e7fc43fd7321a503ff738951"
          ],
          "data": "0x00000000000000000000000000000000000000000000000000003ff77822fa9d",
          "blockHash": "0x5c39f3cc4b84e52664970e0981a65ffb7a609c17b9ef1fad465c44846a038543",
          "blockNumber": "0x465463",
          "transactionHash": "0xe98389fe8b304016ce92f4ba6d71ab6f674a2aa1a03b2393edb6ceac26b879bc",
          "transactionIndex": "0x3",
          "logIndex": "0x16",
          "removed": false
        },
        {
          "address": "0x34a4d932E722b9dFb492B9D8131127690CE2430B",
          "topics": [
            "0xddf252ad1be2c89b69c2b068fc378daa952ba7f163c4a11628f55a4df523b3ef",
            "0x0000000000000000000000003e122a3db43d225dd5bffd929ad4176ce69117e0",
            "0x0000000000000000000000000000000000000000000000000000000000000000"
          ],
          "data": "0x00000000000000000000000000000000000000000000000000003fe3cabe028d",
          "blockHash": "0x5c39f3cc4b84e52664970e0981a65ffb7a609c17b9ef1fad465c44846a038543",
          "blockNumber": "0x465463",
          "transactionHash": "0xe98389fe8b304016ce92f4ba6d71ab6f674a2aa1a03b2393edb6ceac26b879bc",
          "transactionIndex": "0x3",
          "logIndex": "0x17",
          "removed": false
        },
        {
          "address": "0x34a4d932E722b9dFb492B9D8131127690CE2430B",
          "topics": [
            "0x4cf25bc1d991c17529c25213d3cc0cda295eeaad5f13f361969b12ea48015f90",
            "0x0000000000000000000000003e122a3db43d225dd5bffd929ad4176ce69117e0",
            "0x0000000000000000000000000000000000000000000000000000000000000000"
          ],
          "data": "0x00000000000000000000000000000000000000000000000000003fe3cabe028d00000000000000000000000000000000000000000000000000000013ad64f810000000000000000000000000000000000000000003a1adff2dbac1efc57936db",
          "blockHash": "0x5c39f3cc4b84e52664970e0981a65ffb7a609c17b9ef1fad465c44846a038543",
          "blockNumber": "0x465463",
          "transactionHash": "0xe98389fe8b304016ce92f4ba6d71ab6f674a2aa1a03b2393edb6ceac26b879bc",
          "transactionIndex": "0x3",
          "logIndex": "0x18",
          "removed": false
        },
        {
          "address": "0x6Ae43d3271ff6888e7Fc43Fd7321a503ff738951",
          "topics": [
            "0x804c9b842b2748a22bb64b345453a3de7ca54a6ca45ce00d415894979e22897a",
            "0x000000000000000000000000f8fb3713d459d7c1018bd0a49d19b4c44290ebe5"
          ],
          "data": "0x000000000000000000000000000000000000000006d7f81c7390892b00b0cbfb0000000000000000000000000000000000000000094eb04629fc4f568c632049000000000000000000000000000000000000000009043e08634843cbf2632049000000000000000000000000000000000000000003888f3e8a752750605a52bd000000000000000000000000000000000000000003a1adff2dbac1efc57936db",
          "blockHash": "0x5c39f3cc4b84e52664970e0981a65ffb7a609c17b9ef1fad465c44846a038543",
          "blockNumber": "0x465463",
          "transactionHash": "0xe98389fe8b304016ce92f4ba6d71ab6f674a2aa1a03b2393edb6ceac26b879bc",
          "transactionIndex": "0x3",
          "logIndex": "0x19",
          "removed": false
        },
        {
          "address": "0xf8Fb3713D459D7C1018BD0A49D19b4C44290EBE5",
          "topics": [
            "0xddf252ad1be2c89b69c2b068fc378daa952ba7f163c4a11628f55a4df523b3ef",
            "0x0000000000000000000000006a763430e347d1e152823d646c700442a4db84aa",
            "0x0000000000000000000000003ffaf50d4f4e96eb78f2407c090b72e86ecaed24"
          ],
          "data": "0x00000000000000000000000000000000000000000000000000003ff77822fa9d",
          "blockHash": "0x5c39f3cc4b84e52664970e0981a65ffb7a609c17b9ef1fad465c44846a038543",
          "blockNumber": "0x465463",
          "transactionHash": "0xe98389fe8b304016ce92f4ba6d71ab6f674a2aa1a03b2393edb6ceac26b879bc",
          "transactionIndex": "0x3",
          "logIndex": "0x1a",
          "removed": false
        },
        {
          "address": "0xf8Fb3713D459D7C1018BD0A49D19b4C44290EBE5",
          "topics": [
            "0x8c5be1e5ebec7d5bd14f71427d1e84f3dd0314c0f7b2291e5b200ac8c7c3b925",
            "0x0000000000000000000000006a763430e347d1e152823d646c700442a4db84aa",
            "0x0000000000000000000000006ae43d3271ff6888e7fc43fd7321a503ff738951"
          ],
          "data": "0x0000000000000000000000000000000000000000000000000000000000000000",
          "blockHash": "0x5c39f3cc4b84e52664970e0981a65ffb7a609c17b9ef1fad465c44846a038543",
          "blockNumber": "0x465463",
          "transactionHash": "0xe98389fe8b304016ce92f4ba6d71ab6f674a2aa1a03b2393edb6ceac26b879bc",
          "transactionIndex": "0x3",
          "logIndex": "0x1b",
          "removed": false
        },
        {
          "address": "0x6Ae43d3271ff6888e7Fc43Fd7321a503ff738951",
          "topics": [
            "0xa534c8dbe71f871f9f3530e97a74601fea17b426cae02e1c5aee42c96c784051",
            "0x000000000000000000000000f8fb3713d459d7c1018bd0a49d19b4c44290ebe5",
            "0x0000000000000000000000003e122a3db43d225dd5bffd929ad4176ce69117e0",
            "0x0000000000000000000000006a763430e347d1e152823d646c700442a4db84aa"
          ],
          "data": "0x00000000000000000000000000000000000000000000000000003ff77822fa9d0000000000000000000000000000000000000000000000000000000000000000",
          "blockHash": "0x5c39f3cc4b84e52664970e0981a65ffb7a609c17b9ef1fad465c44846a038543",
          "blockNumber": "0x465463",
          "transactionHash": "0xe98389fe8b304016ce92f4ba6d71ab6f674a2aa1a03b2393edb6ceac26b879bc",
          "transactionIndex": "0x3",
          "logIndex": "0x1c",
          "removed": false
        },
        {
          "address": "0xaA8E23Fb1079EA71e0a56F48a2aA51851D8433D0",
          "topics": [
            "0x8c5be1e5ebec7d5bd14f71427d1e84f3dd0314c0f7b2291e5b200ac8c7c3b925",
            "0x0000000000000000000000006a763430e347d1e152823d646c700442a4db84aa",
            "0x0000000000000000000000006ae43d3271ff6888e7fc43fd7321a503ff738951"
          ],
          "data": "0x000000000000000000000000000000000000000000000000000000046dc5e3ed",
          "blockHash": "0x5c39f3cc4b84e52664970e0981a65ffb7a609c17b9ef1fad465c44846a038543",
          "blockNumber": "0x465463",
          "transactionHash": "0xe98389fe8b304016ce92f4ba6d71ab6f674a2aa1a03b2393edb6ceac26b879bc",
          "transactionIndex": "0x3",
          "logIndex": "0x1d",
          "removed": false
        },
        {
          "address": "0x9844386d29EEd970B9F6a2B9a676083b0478210e",
          "topics": [
            "0xddf252ad1be2c89b69c2b068fc378daa952ba7f163c4a11628f55a4df523b3ef",
            "0x0000000000000000000000003e122a3db43d225dd5bffd929ad4176ce69117e0",
            "0x0000000000000000000000000000000000000000000000000000000000000000"
          ],
          "data": "0x000000000000000000000000000000000000000000000000000000046dc5dd6d",
          "blockHash": "0x5c39f3cc4b84e52664970e0981a65ffb7a609c17b9ef1fad465c44846a038543",
          "blockNumber": "0x465463",
          "transactionHash": "0xe98389fe8b304016ce92f4ba6d71ab6f674a2aa1a03b2393edb6ceac26b879bc",
          "transactionIndex": "0x3",
          "logIndex": "0x1e",
          "removed": false
        },
        {
          "address": "0x9844386d29EEd970B9F6a2B9a676083b0478210e",
          "topics": [
            "0x4cf25bc1d991c17529c25213d3cc0cda295eeaad5f13f361969b12ea48015f90",
            "0x0000000000000000000000003e122a3db43d225dd5bffd929ad4176ce69117e0",
            "0x0000000000000000000000000000000000000000000000000000000000000000"
          ],
          "data": "0x000000000000000000000000000000000000000000000000000000046dc5dd6d000000000000000000000000000000000000000000000000000000000000068000000000000000000000000000000000000000000345056922d511d9f0e25e26",
          "blockHash": "0x5c39f3cc4b84e52664970e0981a65ffb7a609c17b9ef1fad465c44846a038543",
          "blockNumber": "0x465463",
          "transactionHash": "0xe98389fe8b304016ce92f4ba6d71ab6f674a2aa1a03b2393edb6ceac26b879bc",
          "transactionIndex": "0x3",
          "logIndex": "0x1f",
          "removed": false
        },
        {
          "address": "0x6Ae43d3271ff6888e7Fc43Fd7321a503ff738951",
          "topics": [
            "0x804c9b842b2748a22bb64b345453a3de7ca54a6ca45ce00d415894979e22897a",
            "0x000000000000000000000000aa8e23fb1079ea71e0a56f48a2aa51851d8433d0"
          ],
          "data": "0x000000000000000000000000000000000000000000000394599078cac0a2ed6a00000000000000000000000000000000000000000029613be867d092e3a8fd39000000000000000000000000000000000000000000002a93d01e514b8d47e9c600000000000000000000000000000000000000000342ac40cdec3fc2557e15fc00000000000000000000000000000000000000000345056922d511d9f0e25e26",
          "blockHash": "0x5c39f3cc4b84e52664970e0981a65ffb7a609c17b9ef1fad465c44846a038543",
          "blockNumber": "0x465463",
          "transactionHash": "0xe98389fe8b304016ce92f4ba6d71ab6f674a2aa1a03b2393edb6ceac26b879bc",
          "transactionIndex": "0x3",
          "logIndex": "0x20",
          "removed": false
        },
        {
          "address": "0xaA8E23Fb1079EA71e0a56F48a2aA51851D8433D0",
          "topics": [
            "0xddf252ad1be2c89b69c2b068fc378daa952ba7f163c4a11628f55a4df523b3ef",
            "0x0000000000000000000000006a763430e347d1e152823d646c700442a4db84aa",
            "0x000000000000000000000000af0f6e8b0dc5c913bbf4d14c22b4e78dd14310b6"
          ],
          "data": "0x000000000000000000000000000000000000000000000000000000046dc5e3ed",
          "blockHash": "0x5c39f3cc4b84e52664970e0981a65ffb7a609c17b9ef1fad465c44846a038543",
          "blockNumber": "0x465463",
          "transactionHash": "0xe98389fe8b304016ce92f4ba6d71ab6f674a2aa1a03b2393edb6ceac26b879bc",
          "transactionIndex": "0x3",
          "logIndex": "0x21",
          "removed": false
        },
        {
          "address": "0xaA8E23Fb1079EA71e0a56F48a2aA51851D8433D0",
          "topics": [
            "0x8c5be1e5ebec7d5bd14f71427d1e84f3dd0314c0f7b2291e5b200ac8c7c3b925",
            "0x0000000000000000000000006a763430e347d1e152823d646c700442a4db84aa",
            "0x0000000000000000000000006ae43d3271ff6888e7fc43fd7321a503ff738951"
          ],
          "data": "0x0000000000000000000000000000000000000000000000000000000000000000",
          "blockHash": "0x5c39f3cc4b84e52664970e0981a65ffb7a609c17b9ef1fad465c44846a038543",
          "blockNumber": "0x465463",
          "transactionHash": "0xe98389fe8b304016ce92f4ba6d71ab6f674a2aa1a03b2393edb6ceac26b879bc",
          "transactionIndex": "0x3",
          "logIndex": "0x22",
          "removed": false
        },
        {
          "address": "0x6Ae43d3271ff6888e7Fc43Fd7321a503ff738951",
          "topics": [
            "0xa534c8dbe71f871f9f3530e97a74601fea17b426cae02e1c5aee42c96c784051",
            "0x000000000000000000000000aa8e23fb1079ea71e0a56f48a2aa51851d8433d0",
            "0x0000000000000000000000003e122a3db43d225dd5bffd929ad4176ce69117e0",
            "0x0000000000000000000000006a763430e347d1e152823d646c700442a4db84aa"
          ],
          "data": "0x000000000000000000000000000000000000000000000000000000046dc5e3ed0000000000000000000000000000000000000000000000000000000000000000",
          "blockHash": "0x5c39f3cc4b84e52664970e0981a65ffb7a609c17b9ef1fad465c44846a038543",
          "blockNumber": "0x465463",
          "transactionHash": "0xe98389fe8b304016ce92f4ba6d71ab6f674a2aa1a03b2393edb6ceac26b879bc",
          "transactionIndex": "0x3",
          "logIndex": "0x23",
          "removed": false
        },
        {
          "address": "0xaA8E23Fb1079EA71e0a56F48a2aA51851D8433D0",
          "topics": [
            "0x8c5be1e5ebec7d5bd14f71427d1e84f3dd0314c0f7b2291e5b200ac8c7c3b925",
            "0x0000000000000000000000006a763430e347d1e152823d646c700442a4db84aa",
            "0x0000000000000000000000006ae43d3271ff6888e7fc43fd7321a503ff738951"
          ],
          "data": "0x000000000000000000000000000000000000000000000000000000000098d5e6",
          "blockHash": "0x5c39f3cc4b84e52664970e0981a65ffb7a609c17b9ef1fad465c44846a038543",
          "blockNumber": "0x465463",
          "transactionHash": "0xe98389fe8b304016ce92f4ba6d71ab6f674a2aa1a03b2393edb6ceac26b879bc",
          "transactionIndex": "0x3",
          "logIndex": "0x24",
          "removed": false
        },
        {
          "address": "0xEAF54fA3b1C7243033C2893c6B807f9cEaBCf0AF",
          "topics": [
            "0xddf252ad1be2c89b69c2b068fc378daa952ba7f163c4a11628f55a4df523b3ef",
            "0x0000000000000000000000003e122a3db43d225dd5bffd929ad4176ce69117e0",
            "0x0000000000000000000000000000000000000000000000000000000000000000"
          ],
          "data": "0x000000000000000000000000000000000000000000000000000000000098d50e",
          "blockHash": "0x5c39f3cc4b84e52664970e0981a65ffb7a609c17b9ef1fad465c44846a038543",
          "blockNumber": "0x465463",
          "transactionHash": "0xe98389fe8b304016ce92f4ba6d71ab6f674a2aa1a03b2393edb6ceac26b879bc",
          "transactionIndex": "0x3",
          "logIndex": "0x25",
          "removed": false
        },
        {
          "address": "0xEAF54fA3b1C7243033C2893c6B807f9cEaBCf0AF",
          "topics": [
            "0x44bd20a79e993bdcc7cbedf54a3b4d19fb78490124b6b90d04fe3242eea579e8",
            "0x0000000000000000000000003e122a3db43d225dd5bffd929ad4176ce69117e0"
          ],
          "data": "0x000000000000000000000000000000000000000000000000000000000098d50e000000000000000000000000000000000000000000000000000000000098d5ea00000000000000000000000000000000000000000000000000000000000000d80000000000000000000000000000000000000000002b61797a8d6cdb1302d00a0000000000000000000000000000000000000000000000000000001e2691fbce",
          "blockHash": "0x5c39f3cc4b84e52664970e0981a65ffb7a609c17b9ef1fad465c44846a038543",
          "blockNumber": "0x465463",
          "transactionHash": "0xe98389fe8b304016ce92f4ba6d71ab6f674a2aa1a03b2393edb6ceac26b879bc",
          "transactionIndex": "0x3",
          "logIndex": "0x26",
          "removed": false
        },
        {
          "address": "0x6Ae43d3271ff6888e7Fc43Fd7321a503ff738951",
          "topics": [
            "0x804c9b842b2748a22bb64b345453a3de7ca54a6ca45ce00d415894979e22897a",
            "0x000000000000000000000000aa8e23fb1079ea71e0a56f48a2aa51851d8433d0"
          ],
          "data": "0x00000000000000000000000000000000000000000000039448f89d9f96e50de200000000000000000000000000000000000000000029613be65d983cf90a350c000000000000000000000000000000000000000000002a93bfcc8e9c3851a85900000000000000000000000000000000000000000342ac40cdec3fc2557e15fc00000000000000000000000000000000000000000345056922d511d9f0e25e26",
          "blockHash": "0x5c39f3cc4b84e52664970e0981a65ffb7a609c17b9ef1fad465c44846a038543",
          "blockNumber": "0x465463",
          "transactionHash": "0xe98389fe8b304016ce92f4ba6d71ab6f674a2aa1a03b2393edb6ceac26b879bc",
          "transactionIndex": "0x3",
          "logIndex": "0x27",
          "removed": false
        },
        {
          "address": "0xaA8E23Fb1079EA71e0a56F48a2aA51851D8433D0",
          "topics": [
            "0xddf252ad1be2c89b69c2b068fc378daa952ba7f163c4a11628f55a4df523b3ef",
            "0x0000000000000000000000006a763430e347d1e152823d646c700442a4db84aa",
            "0x000000000000000000000000af0f6e8b0dc5c913bbf4d14c22b4e78dd14310b6"
          ],
          "data": "0x000000000000000000000000000000000000000000000000000000000098d5e6",
          "blockHash": "0x5c39f3cc4b84e52664970e0981a65ffb7a609c17b9ef1fad465c44846a038543",
          "blockNumber": "0x465463",
          "transactionHash": "0xe98389fe8b304016ce92f4ba6d71ab6f674a2aa1a03b2393edb6ceac26b879bc",
          "transactionIndex": "0x3",
          "logIndex": "0x28",
          "removed": false
        },
        {
          "address": "0xaA8E23Fb1079EA71e0a56F48a2aA51851D8433D0",
          "topics": [
            "0x8c5be1e5ebec7d5bd14f71427d1e84f3dd0314c0f7b2291e5b200ac8c7c3b925",
            "0x0000000000000000000000006a763430e347d1e152823d646c700442a4db84aa",
            "0x0000000000000000000000006ae43d3271ff6888e7fc43fd7321a503ff738951"
          ],
          "data": "0x0000000000000000000000000000000000000000000000000000000000000000",
          "blockHash": "0x5c39f3cc4b84e52664970e0981a65ffb7a609c17b9ef1fad465c44846a038543",
          "blockNumber": "0x465463",
          "transactionHash": "0xe98389fe8b304016ce92f4ba6d71ab6f674a2aa1a03b2393edb6ceac26b879bc",
          "transactionIndex": "0x3",
          "logIndex": "0x29",
          "removed": false
        },
        {
          "address": "0x6Ae43d3271ff6888e7Fc43Fd7321a503ff738951",
          "topics": [
            "0xa534c8dbe71f871f9f3530e97a74601fea17b426cae02e1c5aee42c96c784051",
            "0x000000000000000000000000aa8e23fb1079ea71e0a56f48a2aa51851d8433d0",
            "0x0000000000000000000000003e122a3db43d225dd5bffd929ad4176ce69117e0",
            "0x0000000000000000000000006a763430e347d1e152823d646c700442a4db84aa"
          ],
          "data": "0x000000000000000000000000000000000000000000000000000000000098d5e60000000000000000000000000000000000000000000000000000000000000000",
          "blockHash": "0x5c39f3cc4b84e52664970e0981a65ffb7a609c17b9ef1fad465c44846a038543",
          "blockNumber": "0x465463",
          "transactionHash": "0xe98389fe8b304016ce92f4ba6d71ab6f674a2aa1a03b2393edb6ceac26b879bc",
          "transactionIndex": "0x3",
          "logIndex": "0x2a",
          "removed": false
        },
        {
          "address": "0x6d906e526a4e2Ca02097BA9d0caA3c382F52278E",
          "topics": [
            "0x8c5be1e5ebec7d5bd14f71427d1e84f3dd0314c0f7b2291e5b200ac8c7c3b925",
            "0x0000000000000000000000006a763430e347d1e152823d646c700442a4db84aa",
            "0x0000000000000000000000006ae43d3271ff6888e7fc43fd7321a503ff738951"
          ],
          "data": "0x00000000000000000000000000000000000000000000000000000000000000c9",
          "blockHash": "0x5c39f3cc4b84e52664970e0981a65ffb7a609c17b9ef1fad465c44846a038543",
          "blockNumber": "0x465463",
          "transactionHash": "0xe98389fe8b304016ce92f4ba6d71ab6f674a2aa1a03b2393edb6ceac26b879bc",
          "transactionIndex": "0x3",
          "logIndex": "0x2b",
          "removed": false
        },
        {
          "address": "0x94482C7A7477196259D8a0f74fB853277Fa5a75b",
          "topics": [
            "0xddf252ad1be2c89b69c2b068fc378daa952ba7f163c4a11628f55a4df523b3ef",
            "0x0000000000000000000000003e122a3db43d225dd5bffd929ad4176ce69117e0",
            "0x0000000000000000000000000000000000000000000000000000000000000000"
          ],
          "data": "0x00000000000000000000000000000000000000000000000000000000000000c9",
          "blockHash": "0x5c39f3cc4b84e52664970e0981a65ffb7a609c17b9ef1fad465c44846a038543",
          "blockNumber": "0x465463",
          "transactionHash": "0xe98389fe8b304016ce92f4ba6d71ab6f674a2aa1a03b2393edb6ceac26b879bc",
          "transactionIndex": "0x3",
          "logIndex": "0x2c",
          "removed": false
        },
        {
          "address": "0x94482C7A7477196259D8a0f74fB853277Fa5a75b",
          "topics": [
            "0x4cf25bc1d991c17529c25213d3cc0cda295eeaad5f13f361969b12ea48015f90",
            "0x0000000000000000000000003e122a3db43d225dd5bffd929ad4176ce69117e0",
            "0x0000000000000000000000000000000000000000000000000000000000000000"
          ],
          "data": "0x00000000000000000000000000000000000000000000000000000000000000c900000000000000000000000000000000000000000000000000000000000000000000000000000000000000000000000000000000034eb0651256b5e24fbc2f1a",
          "blockHash": "0x5c39f3cc4b84e52664970e0981a65ffb7a609c17b9ef1fad465c44846a038543",
          "blockNumber": "0x465463",
          "transactionHash": "0xe98389fe8b304016ce92f4ba6d71ab6f674a2aa1a03b2393edb6ceac26b879bc",
          "transactionIndex": "0x3",
          "logIndex": "0x2d",
          "removed": false
        },
        {
          "address": "0x6Ae43d3271ff6888e7Fc43Fd7321a503ff738951",
          "topics": [
            "0x804c9b842b2748a22bb64b345453a3de7ca54a6ca45ce00d415894979e22897a",
            "0x0000000000000000000000006d906e526a4e2ca02097ba9d0caa3c382f52278e"
          ],
          "data": "0x0000000000000000000000000000000000000000014b809f5cdc793496278e7d0000000000000000000000000000000000000000018c36f45c1bfbfbda10a54e0000000000000000000000000000000000000000017fce94bafdfa0f6b10a54e0000000000000000000000000000000000000000034b4bc4188433350daa54920000000000000000000000000000000000000000034eb0651256b5e24fbc2f1a",
          "blockHash": "0x5c39f3cc4b84e52664970e0981a65ffb7a609c17b9ef1fad465c44846a038543",
          "blockNumber": "0x465463",
          "transactionHash": "0xe98389fe8b304016ce92f4ba6d71ab6f674a2aa1a03b2393edb6ceac26b879bc",
          "transactionIndex": "0x3",
          "logIndex": "0x2e",
          "removed": false
        },
        {
          "address": "0x6d906e526a4e2Ca02097BA9d0caA3c382F52278E",
          "topics": [
            "0xddf252ad1be2c89b69c2b068fc378daa952ba7f163c4a11628f55a4df523b3ef",
            "0x0000000000000000000000006a763430e347d1e152823d646c700442a4db84aa",
            "0x000000000000000000000000b20691021f9aced8631edaa3c0cd2949eb45662d"
          ],
          "data": "0x00000000000000000000000000000000000000000000000000000000000000c9",
          "blockHash": "0x5c39f3cc4b84e52664970e0981a65ffb7a609c17b9ef1fad465c44846a038543",
          "blockNumber": "0x465463",
          "transactionHash": "0xe98389fe8b304016ce92f4ba6d71ab6f674a2aa1a03b2393edb6ceac26b879bc",
          "transactionIndex": "0x3",
          "logIndex": "0x2f",
          "removed": false
        },
        {
          "address": "0x6d906e526a4e2Ca02097BA9d0caA3c382F52278E",
          "topics": [
            "0x8c5be1e5ebec7d5bd14f71427d1e84f3dd0314c0f7b2291e5b200ac8c7c3b925",
            "0x0000000000000000000000006a763430e347d1e152823d646c700442a4db84aa",
            "0x0000000000000000000000006ae43d3271ff6888e7fc43fd7321a503ff738951"
          ],
          "data": "0x0000000000000000000000000000000000000000000000000000000000000000",
          "blockHash": "0x5c39f3cc4b84e52664970e0981a65ffb7a609c17b9ef1fad465c44846a038543",
          "blockNumber": "0x465463",
          "transactionHash": "0xe98389fe8b304016ce92f4ba6d71ab6f674a2aa1a03b2393edb6ceac26b879bc",
          "transactionIndex": "0x3",
          "logIndex": "0x30",
          "removed": false
        },
        {
          "address": "0x6Ae43d3271ff6888e7Fc43Fd7321a503ff738951",
          "topics": [
            "0xa534c8dbe71f871f9f3530e97a74601fea17b426cae02e1c5aee42c96c784051",
            "0x0000000000000000000000006d906e526a4e2ca02097ba9d0caa3c382f52278e",
            "0x0000000000000000000000003e122a3db43d225dd5bffd929ad4176ce69117e0",
            "0x0000000000000000000000006a763430e347d1e152823d646c700442a4db84aa"
          ],
          "data": "0x00000000000000000000000000000000000000000000000000000000000000c90000000000000000000000000000000000000000000000000000000000000000",
          "blockHash": "0x5c39f3cc4b84e52664970e0981a65ffb7a609c17b9ef1fad465c44846a038543",
          "blockNumber": "0x465463",
          "transactionHash": "0xe98389fe8b304016ce92f4ba6d71ab6f674a2aa1a03b2393edb6ceac26b879bc",
          "transactionIndex": "0x3",
          "logIndex": "0x31",
          "removed": false
        },
        {
          "address": "0x6d906e526a4e2Ca02097BA9d0caA3c382F52278E",
          "topics": [
            "0x8c5be1e5ebec7d5bd14f71427d1e84f3dd0314c0f7b2291e5b200ac8c7c3b925",
            "0x0000000000000000000000006a763430e347d1e152823d646c700442a4db84aa",
            "0x0000000000000000000000006ae43d3271ff6888e7fc43fd7321a503ff738951"
          ],
          "data": "0x00000000000000000000000000000000000000000000000000000000000002bd",
          "blockHash": "0x5c39f3cc4b84e52664970e0981a65ffb7a609c17b9ef1fad465c44846a038543",
          "blockNumber": "0x465463",
          "transactionHash": "0xe98389fe8b304016ce92f4ba6d71ab6f674a2aa1a03b2393edb6ceac26b879bc",
          "transactionIndex": "0x3",
          "logIndex": "0x32",
          "removed": false
        },
        {
          "address": "0x08878209484D8178DD1FFA50AB1689F21aDBB856",
          "topics": [
            "0xddf252ad1be2c89b69c2b068fc378daa952ba7f163c4a11628f55a4df523b3ef",
            "0x0000000000000000000000003e122a3db43d225dd5bffd929ad4176ce69117e0",
            "0x0000000000000000000000000000000000000000000000000000000000000000"
          ],
          "data": "0x00000000000000000000000000000000000000000000000000000000000002bd",
          "blockHash": "0x5c39f3cc4b84e52664970e0981a65ffb7a609c17b9ef1fad465c44846a038543",
          "blockNumber": "0x465463",
          "transactionHash": "0xe98389fe8b304016ce92f4ba6d71ab6f674a2aa1a03b2393edb6ceac26b879bc",
          "transactionIndex": "0x3",
          "logIndex": "0x33",
          "removed": false
        },
        {
          "address": "0x08878209484D8178DD1FFA50AB1689F21aDBB856",
          "topics": [
            "0x44bd20a79e993bdcc7cbedf54a3b4d19fb78490124b6b90d04fe3242eea579e8",
            "0x0000000000000000000000003e122a3db43d225dd5bffd929ad4176ce69117e0"
          ],
          "data": "0x00000000000000000000000000000000000000000000000000000000000002bd00000000000000000000000000000000000000000000000000000000000002bd00000000000000000000000000000000000000000000000000000000000000000000000000000000000000000000000000000000002bb09f72bdca94c0cad90100000000000000000000000000000000000000000000000000000000003fe956",
          "blockHash": "0x5c39f3cc4b84e52664970e0981a65ffb7a609c17b9ef1fad465c44846a038543",
          "blockNumber": "0x465463",
          "transactionHash": "0xe98389fe8b304016ce92f4ba6d71ab6f674a2aa1a03b2393edb6ceac26b879bc",
          "transactionIndex": "0x3",
          "logIndex": "0x34",
          "removed": false
        },
        {
          "address": "0x6Ae43d3271ff6888e7Fc43Fd7321a503ff738951",
          "topics": [
            "0x804c9b842b2748a22bb64b345453a3de7ca54a6ca45ce00d415894979e22897a",
            "0x0000000000000000000000006d906e526a4e2ca02097ba9d0caa3c382f52278e"
          ],
          "data": "0x0000000000000000000000000000000000000000014b7e297bc869413355b6b00000000000000000000000000000000000000000018c34522e5a3fc5106362b00000000000000000000000000000000000000000017fcbf28d3c3dd8a16362b00000000000000000000000000000000000000000034b4bc4188433350daa54920000000000000000000000000000000000000000034eb0651256b5e24fbc2f1a",
          "blockHash": "0x5c39f3cc4b84e52664970e0981a65ffb7a609c17b9ef1fad465c44846a038543",
          "blockNumber": "0x465463",
          "transactionHash": "0xe98389fe8b304016ce92f4ba6d71ab6f674a2aa1a03b2393edb6ceac26b879bc",
          "transactionIndex": "0x3",
          "logIndex": "0x35",
          "removed": false
        },
        {
          "address": "0x6d906e526a4e2Ca02097BA9d0caA3c382F52278E",
          "topics": [
            "0xddf252ad1be2c89b69c2b068fc378daa952ba7f163c4a11628f55a4df523b3ef",
            "0x0000000000000000000000006a763430e347d1e152823d646c700442a4db84aa",
            "0x000000000000000000000000b20691021f9aced8631edaa3c0cd2949eb45662d"
          ],
          "data": "0x00000000000000000000000000000000000000000000000000000000000002bd",
          "blockHash": "0x5c39f3cc4b84e52664970e0981a65ffb7a609c17b9ef1fad465c44846a038543",
          "blockNumber": "0x465463",
          "transactionHash": "0xe98389fe8b304016ce92f4ba6d71ab6f674a2aa1a03b2393edb6ceac26b879bc",
          "transactionIndex": "0x3",
          "logIndex": "0x36",
          "removed": false
        },
        {
          "address": "0x6d906e526a4e2Ca02097BA9d0caA3c382F52278E",
          "topics": [
            "0x8c5be1e5ebec7d5bd14f71427d1e84f3dd0314c0f7b2291e5b200ac8c7c3b925",
            "0x0000000000000000000000006a763430e347d1e152823d646c700442a4db84aa",
            "0x0000000000000000000000006ae43d3271ff6888e7fc43fd7321a503ff738951"
          ],
          "data": "0x0000000000000000000000000000000000000000000000000000000000000000",
          "blockHash": "0x5c39f3cc4b84e52664970e0981a65ffb7a609c17b9ef1fad465c44846a038543",
          "blockNumber": "0x465463",
          "transactionHash": "0xe98389fe8b304016ce92f4ba6d71ab6f674a2aa1a03b2393edb6ceac26b879bc",
          "transactionIndex": "0x3",
          "logIndex": "0x37",
          "removed": false
        },
        {
          "address": "0x6Ae43d3271ff6888e7Fc43Fd7321a503ff738951",
          "topics": [
            "0xa534c8dbe71f871f9f3530e97a74601fea17b426cae02e1c5aee42c96c784051",
            "0x0000000000000000000000006d906e526a4e2ca02097ba9d0caa3c382f52278e",
            "0x0000000000000000000000003e122a3db43d225dd5bffd929ad4176ce69117e0",
            "0x0000000000000000000000006a763430e347d1e152823d646c700442a4db84aa"
          ],
          "data": "0x00000000000000000000000000000000000000000000000000000000000002bd0000000000000000000000000000000000000000000000000000000000000000",
          "blockHash": "0x5c39f3cc4b84e52664970e0981a65ffb7a609c17b9ef1fad465c44846a038543",
          "blockNumber": "0x465463",
          "transactionHash": "0xe98389fe8b304016ce92f4ba6d71ab6f674a2aa1a03b2393edb6ceac26b879bc",
          "transactionIndex": "0x3",
          "logIndex": "0x38",
          "removed": false
        },
        {
          "address": "0x3FfAf50D4F4E96eB78f2407c090b72e86eCaed24",
          "topics": [
            "0x8c5be1e5ebec7d5bd14f71427d1e84f3dd0314c0f7b2291e5b200ac8c7c3b925",
            "0x0000000000000000000000003e122a3db43d225dd5bffd929ad4176ce69117e0",
            "0x0000000000000000000000006a763430e347d1e152823d646c700442a4db84aa"
          ],
          "data": "0x0000000000000000000000000000000000000000000000000000000000000000",
          "blockHash": "0x5c39f3cc4b84e52664970e0981a65ffb7a609c17b9ef1fad465c44846a038543",
          "blockNumber": "0x465463",
          "transactionHash": "0xe98389fe8b304016ce92f4ba6d71ab6f674a2aa1a03b2393edb6ceac26b879bc",
          "transactionIndex": "0x3",
          "logIndex": "0x39",
          "removed": false
        },
        {
          "address": "0x3FfAf50D4F4E96eB78f2407c090b72e86eCaed24",
          "topics": [
            "0xddf252ad1be2c89b69c2b068fc378daa952ba7f163c4a11628f55a4df523b3ef",
            "0x0000000000000000000000000000000000000000000000000000000000000000",
            "0x0000000000000000000000003e122a3db43d225dd5bffd929ad4176ce69117e0"
          ],
          "data": "0x0000000000000000000000000000000000000000000000000d3ee07bda105bc7",
          "blockHash": "0x5c39f3cc4b84e52664970e0981a65ffb7a609c17b9ef1fad465c44846a038543",
          "blockNumber": "0x465463",
          "transactionHash": "0xe98389fe8b304016ce92f4ba6d71ab6f674a2aa1a03b2393edb6ceac26b879bc",
          "transactionIndex": "0x3",
          "logIndex": "0x3a",
          "removed": false
        },
        {
          "address": "0x3FfAf50D4F4E96eB78f2407c090b72e86eCaed24",
          "topics": [
            "0x458f5fa412d0f69b08dd84872b0215675cc67bc1d5b6fd93300a1c3878b86196",
            "0x0000000000000000000000006a763430e347d1e152823d646c700442a4db84aa",
            "0x0000000000000000000000003e122a3db43d225dd5bffd929ad4176ce69117e0"
          ],
          "data": "0x0000000000000000000000000000000000000000000000000d3ee07bda105bc70000000000000000000000000000000000000000000000000d3ee07bda105bc7000000000000000000000000000000000000000003888f3e8a752750605a52bd",
          "blockHash": "0x5c39f3cc4b84e52664970e0981a65ffb7a609c17b9ef1fad465c44846a038543",
          "blockNumber": "0x465463",
          "transactionHash": "0xe98389fe8b304016ce92f4ba6d71ab6f674a2aa1a03b2393edb6ceac26b879bc",
          "transactionIndex": "0x3",
          "logIndex": "0x3b",
          "removed": false
        },
        {
          "address": "0x3FfAf50D4F4E96eB78f2407c090b72e86eCaed24",
          "topics": [
            "0xddf252ad1be2c89b69c2b068fc378daa952ba7f163c4a11628f55a4df523b3ef",
            "0x0000000000000000000000000000000000000000000000000000000000000000",
            "0x000000000000000000000000c5e0b6e472dde70eceffa4c568bd52f2a7a1632a"
          ],
          "data": "0x00000000000000000000000000000000000000000000000000000ca1c125ea40",
          "blockHash": "0x5c39f3cc4b84e52664970e0981a65ffb7a609c17b9ef1fad465c44846a038543",
          "blockNumber": "0x465463",
          "transactionHash": "0xe98389fe8b304016ce92f4ba6d71ab6f674a2aa1a03b2393edb6ceac26b879bc",
          "transactionIndex": "0x3",
          "logIndex": "0x3c",
          "removed": false
        },
        {
          "address": "0x3FfAf50D4F4E96eB78f2407c090b72e86eCaed24",
          "topics": [
            "0x458f5fa412d0f69b08dd84872b0215675cc67bc1d5b6fd93300a1c3878b86196",
            "0x0000000000000000000000006a763430e347d1e152823d646c700442a4db84aa",
            "0x000000000000000000000000c5e0b6e472dde70eceffa4c568bd52f2a7a1632a"
          ],
          "data": "0x00000000000000000000000000000000000000000000000000000ca1c125ea4000000000000000000000000000000000000000000000000000000ca1c125ea40000000000000000000000000000000000000000003888f3e8a752750605a52bd",
          "blockHash": "0x5c39f3cc4b84e52664970e0981a65ffb7a609c17b9ef1fad465c44846a038543",
          "blockNumber": "0x465463",
          "transactionHash": "0xe98389fe8b304016ce92f4ba6d71ab6f674a2aa1a03b2393edb6ceac26b879bc",
          "transactionIndex": "0x3",
          "logIndex": "0x3d",
          "removed": false
        },
        {
          "address": "0x3FfAf50D4F4E96eB78f2407c090b72e86eCaed24",
          "topics": [
            "0xddf252ad1be2c89b69c2b068fc378daa952ba7f163c4a11628f55a4df523b3ef",
            "0x0000000000000000000000003e122a3db43d225dd5bffd929ad4176ce69117e0",
            "0x000000000000000000000000c5e0b6e472dde70eceffa4c568bd52f2a7a1632a"
          ],
          "data": "0x000000000000000000000000000000000000000000000038b2f59cd577ab9af0",
          "blockHash": "0x5c39f3cc4b84e52664970e0981a65ffb7a609c17b9ef1fad465c44846a038543",
          "blockNumber": "0x465463",
          "transactionHash": "0xe98389fe8b304016ce92f4ba6d71ab6f674a2aa1a03b2393edb6ceac26b879bc",
          "transactionIndex": "0x3",
          "logIndex": "0x3e",
          "removed": false
        },
        {
          "address": "0x3FfAf50D4F4E96eB78f2407c090b72e86eCaed24",
          "topics": [
            "0x4beccb90f994c31aced7a23b5611020728a23d8ec5cddd1a3e9d97b96fda8666",
            "0x0000000000000000000000003e122a3db43d225dd5bffd929ad4176ce69117e0",
            "0x000000000000000000000000c5e0b6e472dde70eceffa4c568bd52f2a7a1632a"
          ],
          "data": "0x000000000000000000000000000000000000000000000033d94d961ea145d302000000000000000000000000000000000000000003888f3e8a752750605a52bd",
          "blockHash": "0x5c39f3cc4b84e52664970e0981a65ffb7a609c17b9ef1fad465c44846a038543",
          "blockNumber": "0x465463",
          "transactionHash": "0xe98389fe8b304016ce92f4ba6d71ab6f674a2aa1a03b2393edb6ceac26b879bc",
          "transactionIndex": "0x3",
          "logIndex": "0x3f",
          "removed": false
        },
        {
          "address": "0x16dA4541aD1807f4443d92D26044C1147406EB80",
          "topics": [
            "0x8c5be1e5ebec7d5bd14f71427d1e84f3dd0314c0f7b2291e5b200ac8c7c3b925",
            "0x0000000000000000000000003e122a3db43d225dd5bffd929ad4176ce69117e0",
            "0x0000000000000000000000006a763430e347d1e152823d646c700442a4db84aa"
          ],
          "data": "0x0000000000000000000000000000000000000000000000000000000000000000",
          "blockHash": "0x5c39f3cc4b84e52664970e0981a65ffb7a609c17b9ef1fad465c44846a038543",
          "blockNumber": "0x465463",
          "transactionHash": "0xe98389fe8b304016ce92f4ba6d71ab6f674a2aa1a03b2393edb6ceac26b879bc",
          "transactionIndex": "0x3",
          "logIndex": "0x40",
          "removed": false
        },
        {
          "address": "0x16dA4541aD1807f4443d92D26044C1147406EB80",
          "topics": [
            "0xddf252ad1be2c89b69c2b068fc378daa952ba7f163c4a11628f55a4df523b3ef",
            "0x0000000000000000000000000000000000000000000000000000000000000000",
            "0x0000000000000000000000003e122a3db43d225dd5bffd929ad4176ce69117e0"
          ],
          "data": "0x00000000000000000000000000000000000000000000000000000000000025a7",
          "blockHash": "0x5c39f3cc4b84e52664970e0981a65ffb7a609c17b9ef1fad465c44846a038543",
          "blockNumber": "0x465463",
          "transactionHash": "0xe98389fe8b304016ce92f4ba6d71ab6f674a2aa1a03b2393edb6ceac26b879bc",
          "transactionIndex": "0x3",
          "logIndex": "0x41",
          "removed": false
        },
        {
          "address": "0x16dA4541aD1807f4443d92D26044C1147406EB80",
          "topics": [
            "0x458f5fa412d0f69b08dd84872b0215675cc67bc1d5b6fd93300a1c3878b86196",
            "0x0000000000000000000000006a763430e347d1e152823d646c700442a4db84aa",
            "0x0000000000000000000000003e122a3db43d225dd5bffd929ad4176ce69117e0"
          ],
          "data": "0x00000000000000000000000000000000000000000000000000000000000025a700000000000000000000000000000000000000000000000000000000000025a7000000000000000000000000000000000000000003498d720a37b9f0e6c833bc",
          "blockHash": "0x5c39f3cc4b84e52664970e0981a65ffb7a609c17b9ef1fad465c44846a038543",
          "blockNumber": "0x465463",
          "transactionHash": "0xe98389fe8b304016ce92f4ba6d71ab6f674a2aa1a03b2393edb6ceac26b879bc",
          "transactionIndex": "0x3",
          "logIndex": "0x42",
          "removed": false
        },
        {
          "address": "0x16dA4541aD1807f4443d92D26044C1147406EB80",
          "topics": [
            "0xddf252ad1be2c89b69c2b068fc378daa952ba7f163c4a11628f55a4df523b3ef",
            "0x0000000000000000000000003e122a3db43d225dd5bffd929ad4176ce69117e0",
            "0x000000000000000000000000c5e0b6e472dde70eceffa4c568bd52f2a7a1632a"
          ],
          "data": "0x000000000000000000000000000000000000000000000000000000003ca65b8f",
          "blockHash": "0x5c39f3cc4b84e52664970e0981a65ffb7a609c17b9ef1fad465c44846a038543",
          "blockNumber": "0x465463",
          "transactionHash": "0xe98389fe8b304016ce92f4ba6d71ab6f674a2aa1a03b2393edb6ceac26b879bc",
          "transactionIndex": "0x3",
          "logIndex": "0x43",
          "removed": false
        },
        {
          "address": "0x16dA4541aD1807f4443d92D26044C1147406EB80",
          "topics": [
            "0x4beccb90f994c31aced7a23b5611020728a23d8ec5cddd1a3e9d97b96fda8666",
            "0x0000000000000000000000003e122a3db43d225dd5bffd929ad4176ce69117e0",
            "0x000000000000000000000000c5e0b6e472dde70eceffa4c568bd52f2a7a1632a"
          ],
          "data": "0x000000000000000000000000000000000000000000000000000000003b9d3369000000000000000000000000000000000000000003498d720a37b9f0e6c833bc",
          "blockHash": "0x5c39f3cc4b84e52664970e0981a65ffb7a609c17b9ef1fad465c44846a038543",
          "blockNumber": "0x465463",
          "transactionHash": "0xe98389fe8b304016ce92f4ba6d71ab6f674a2aa1a03b2393edb6ceac26b879bc",
          "transactionIndex": "0x3",
          "logIndex": "0x44",
          "removed": false
        },
        {
          "address": "0x1804Bf30507dc2EB3bDEbbbdd859991EAeF6EefF",
          "topics": [
            "0x8c5be1e5ebec7d5bd14f71427d1e84f3dd0314c0f7b2291e5b200ac8c7c3b925",
            "0x0000000000000000000000003e122a3db43d225dd5bffd929ad4176ce69117e0",
            "0x0000000000000000000000006a763430e347d1e152823d646c700442a4db84aa"
          ],
          "data": "0x0000000000000000000000000000000000000000000000000000000000000000",
          "blockHash": "0x5c39f3cc4b84e52664970e0981a65ffb7a609c17b9ef1fad465c44846a038543",
          "blockNumber": "0x465463",
          "transactionHash": "0xe98389fe8b304016ce92f4ba6d71ab6f674a2aa1a03b2393edb6ceac26b879bc",
          "transactionIndex": "0x3",
          "logIndex": "0x45",
          "removed": false
        },
        {
          "address": "0x1804Bf30507dc2EB3bDEbbbdd859991EAeF6EefF",
          "topics": [
            "0xddf252ad1be2c89b69c2b068fc378daa952ba7f163c4a11628f55a4df523b3ef",
            "0x0000000000000000000000003e122a3db43d225dd5bffd929ad4176ce69117e0",
            "0x000000000000000000000000c5e0b6e472dde70eceffa4c568bd52f2a7a1632a"
          ],
          "data": "0x0000000000000000000000000000000000000000000000000000000005f5e101",
          "blockHash": "0x5c39f3cc4b84e52664970e0981a65ffb7a609c17b9ef1fad465c44846a038543",
          "blockNumber": "0x465463",
          "transactionHash": "0xe98389fe8b304016ce92f4ba6d71ab6f674a2aa1a03b2393edb6ceac26b879bc",
          "transactionIndex": "0x3",
          "logIndex": "0x46",
          "removed": false
        },
        {
          "address": "0x6Ae43d3271ff6888e7Fc43Fd7321a503ff738951",
          "topics": [
            "0x44c58d81365b66dd4b1a7f36c25aa97b8c71c361ee4937adc1a00000227db5dd",
            "0x00000000000000000000000029f2d40b0605204364af54ec677bd022da425d03",
            "0x0000000000000000000000003e122a3db43d225dd5bffd929ad4176ce69117e0"
          ],
          "data": "0x",
          "blockHash": "0x5c39f3cc4b84e52664970e0981a65ffb7a609c17b9ef1fad465c44846a038543",
          "blockNumber": "0x465463",
          "transactionHash": "0xe98389fe8b304016ce92f4ba6d71ab6f674a2aa1a03b2393edb6ceac26b879bc",
          "transactionIndex": "0x3",
          "logIndex": "0x47",
          "removed": false
        },
        {
          "address": "0x6Ae43d3271ff6888e7Fc43Fd7321a503ff738951",
          "topics": [
            "0x00058a56ea94653cdf4f152d227ace22d4c00ad99e2a43f58cb7d9e3feb295f2",
            "0x00000000000000000000000029f2d40b0605204364af54ec677bd022da425d03",
            "0x000000000000000000000000c5e0b6e472dde70eceffa4c568bd52f2a7a1632a"
          ],
          "data": "0x",
          "blockHash": "0x5c39f3cc4b84e52664970e0981a65ffb7a609c17b9ef1fad465c44846a038543",
          "blockNumber": "0x465463",
          "transactionHash": "0xe98389fe8b304016ce92f4ba6d71ab6f674a2aa1a03b2393edb6ceac26b879bc",
          "transactionIndex": "0x3",
          "logIndex": "0x48",
          "removed": false
        },
        {
          "address": "0x1804Bf30507dc2EB3bDEbbbdd859991EAeF6EefF",
          "topics": [
            "0x4beccb90f994c31aced7a23b5611020728a23d8ec5cddd1a3e9d97b96fda8666",
            "0x0000000000000000000000003e122a3db43d225dd5bffd929ad4176ce69117e0",
            "0x000000000000000000000000c5e0b6e472dde70eceffa4c568bd52f2a7a1632a"
          ],
          "data": "0x0000000000000000000000000000000000000000000000000000000005f5a3fb0000000000000000000000000000000000000000033b4f526b4638ccbc45fce5",
          "blockHash": "0x5c39f3cc4b84e52664970e0981a65ffb7a609c17b9ef1fad465c44846a038543",
          "blockNumber": "0x465463",
          "transactionHash": "0xe98389fe8b304016ce92f4ba6d71ab6f674a2aa1a03b2393edb6ceac26b879bc",
          "transactionIndex": "0x3",
          "logIndex": "0x49",
          "removed": false
        },
        {
          "address": "0xAF0F6e8b0Dc5c913bbF4d14c22B4E78Dd14310B6",
          "topics": [
            "0x8c5be1e5ebec7d5bd14f71427d1e84f3dd0314c0f7b2291e5b200ac8c7c3b925",
            "0x0000000000000000000000003e122a3db43d225dd5bffd929ad4176ce69117e0",
            "0x0000000000000000000000006a763430e347d1e152823d646c700442a4db84aa"
          ],
          "data": "0x0000000000000000000000000000000000000000000000000000000000000000",
          "blockHash": "0x5c39f3cc4b84e52664970e0981a65ffb7a609c17b9ef1fad465c44846a038543",
          "blockNumber": "0x465463",
          "transactionHash": "0xe98389fe8b304016ce92f4ba6d71ab6f674a2aa1a03b2393edb6ceac26b879bc",
          "transactionIndex": "0x3",
          "logIndex": "0x4a",
          "removed": false
        },
        {
          "address": "0xAF0F6e8b0Dc5c913bbF4d14c22B4E78Dd14310B6",
          "topics": [
            "0xddf252ad1be2c89b69c2b068fc378daa952ba7f163c4a11628f55a4df523b3ef",
            "0x0000000000000000000000003e122a3db43d225dd5bffd929ad4176ce69117e0",
            "0x000000000000000000000000c5e0b6e472dde70eceffa4c568bd52f2a7a1632a"
          ],
          "data": "0x00000000000000000000000000000000000000000000000000000000001ec2a9",
          "blockHash": "0x5c39f3cc4b84e52664970e0981a65ffb7a609c17b9ef1fad465c44846a038543",
          "blockNumber": "0x465463",
          "transactionHash": "0xe98389fe8b304016ce92f4ba6d71ab6f674a2aa1a03b2393edb6ceac26b879bc",
          "transactionIndex": "0x3",
          "logIndex": "0x4b",
          "removed": false
        },
        {
          "address": "0xAF0F6e8b0Dc5c913bbF4d14c22B4E78Dd14310B6",
          "topics": [
            "0x4beccb90f994c31aced7a23b5611020728a23d8ec5cddd1a3e9d97b96fda8666",
            "0x0000000000000000000000003e122a3db43d225dd5bffd929ad4176ce69117e0",
            "0x000000000000000000000000c5e0b6e472dde70eceffa4c568bd52f2a7a1632a"
          ],
          "data": "0x00000000000000000000000000000000000000000000000000000000001e7bfa00000000000000000000000000000000000000000342ac40cdec3fc2557e15fc",
          "blockHash": "0x5c39f3cc4b84e52664970e0981a65ffb7a609c17b9ef1fad465c44846a038543",
          "blockNumber": "0x465463",
          "transactionHash": "0xe98389fe8b304016ce92f4ba6d71ab6f674a2aa1a03b2393edb6ceac26b879bc",
          "transactionIndex": "0x3",
          "logIndex": "0x4c",
          "removed": false
        },
        {
          "address": "0x6b8558764d3b7572136F17174Cb9aB1DDc7E1259",
          "topics": [
            "0x8c5be1e5ebec7d5bd14f71427d1e84f3dd0314c0f7b2291e5b200ac8c7c3b925",
            "0x0000000000000000000000003e122a3db43d225dd5bffd929ad4176ce69117e0",
            "0x0000000000000000000000006a763430e347d1e152823d646c700442a4db84aa"
          ],
          "data": "0x0000000000000000000000000000000000000000000000000000000000000000",
          "blockHash": "0x5c39f3cc4b84e52664970e0981a65ffb7a609c17b9ef1fad465c44846a038543",
          "blockNumber": "0x465463",
          "transactionHash": "0xe98389fe8b304016ce92f4ba6d71ab6f674a2aa1a03b2393edb6ceac26b879bc",
          "transactionIndex": "0x3",
          "logIndex": "0x4d",
          "removed": false
        },
        {
          "address": "0x6b8558764d3b7572136F17174Cb9aB1DDc7E1259",
          "topics": [
            "0xddf252ad1be2c89b69c2b068fc378daa952ba7f163c4a11628f55a4df523b3ef",
            "0x0000000000000000000000003e122a3db43d225dd5bffd929ad4176ce69117e0",
            "0x000000000000000000000000c5e0b6e472dde70eceffa4c568bd52f2a7a1632a"
          ],
          "data": "0x0000000000000000000000000000000000000000000000056bc75e2d63100000",
          "blockHash": "0x5c39f3cc4b84e52664970e0981a65ffb7a609c17b9ef1fad465c44846a038543",
          "blockNumber": "0x465463",
          "transactionHash": "0xe98389fe8b304016ce92f4ba6d71ab6f674a2aa1a03b2393edb6ceac26b879bc",
          "transactionIndex": "0x3",
          "logIndex": "0x4e",
          "removed": false
        },
        {
          "address": "0x6Ae43d3271ff6888e7Fc43Fd7321a503ff738951",
          "topics": [
            "0x44c58d81365b66dd4b1a7f36c25aa97b8c71c361ee4937adc1a00000227db5dd",
            "0x00000000000000000000000088541670e55cc00beefd87eb59edd1b7c511ac9a",
            "0x0000000000000000000000003e122a3db43d225dd5bffd929ad4176ce69117e0"
          ],
          "data": "0x",
          "blockHash": "0x5c39f3cc4b84e52664970e0981a65ffb7a609c17b9ef1fad465c44846a038543",
          "blockNumber": "0x465463",
          "transactionHash": "0xe98389fe8b304016ce92f4ba6d71ab6f674a2aa1a03b2393edb6ceac26b879bc",
          "transactionIndex": "0x3",
          "logIndex": "0x4f",
          "removed": false
        },
        {
          "address": "0x6Ae43d3271ff6888e7Fc43Fd7321a503ff738951",
          "topics": [
            "0x00058a56ea94653cdf4f152d227ace22d4c00ad99e2a43f58cb7d9e3feb295f2",
            "0x00000000000000000000000088541670e55cc00beefd87eb59edd1b7c511ac9a",
            "0x000000000000000000000000c5e0b6e472dde70eceffa4c568bd52f2a7a1632a"
          ],
          "data": "0x",
          "blockHash": "0x5c39f3cc4b84e52664970e0981a65ffb7a609c17b9ef1fad465c44846a038543",
          "blockNumber": "0x465463",
          "transactionHash": "0xe98389fe8b304016ce92f4ba6d71ab6f674a2aa1a03b2393edb6ceac26b879bc",
          "transactionIndex": "0x3",
          "logIndex": "0x50",
          "removed": false
        },
        {
          "address": "0x6b8558764d3b7572136F17174Cb9aB1DDc7E1259",
          "topics": [
            "0x4beccb90f994c31aced7a23b5611020728a23d8ec5cddd1a3e9d97b96fda8666",
            "0x0000000000000000000000003e122a3db43d225dd5bffd929ad4176ce69117e0",
            "0x000000000000000000000000c5e0b6e472dde70eceffa4c568bd52f2a7a1632a"
          ],
          "data": "0x0000000000000000000000000000000000000000000000056bc74c139cd4f48f0000000000000000000000000000000000000000033b2e4769c27e5b821decfc",
          "blockHash": "0x5c39f3cc4b84e52664970e0981a65ffb7a609c17b9ef1fad465c44846a038543",
          "blockNumber": "0x465463",
          "transactionHash": "0xe98389fe8b304016ce92f4ba6d71ab6f674a2aa1a03b2393edb6ceac26b879bc",
          "transactionIndex": "0x3",
          "logIndex": "0x51",
          "removed": false
        },
        {
          "address": "0x22675C506A8FC26447aFFfa33640f6af5d4D4cF0",
          "topics": [
            "0xda919360433220e13b51e8c211e490d148e61a3bd53de8c097194e458b97f3e1",
            "0x000000000000000000000000c5e0b6e472dde70eceffa4c568bd52f2a7a1632a",
            "0x0000000000000000000000006a763430e347d1e152823d646c700442a4db84aa",
            "0x000000000000000000000000ff34b3d4aee8ddcd6f9afffb6fe49bd371b8a357"
          ],
          "data": "0x00000000000000000000000000000000000000000000001e457c4ea49beca8b5",
          "blockHash": "0x5c39f3cc4b84e52664970e0981a65ffb7a609c17b9ef1fad465c44846a038543",
          "blockNumber": "0x465463",
          "transactionHash": "0xe98389fe8b304016ce92f4ba6d71ab6f674a2aa1a03b2393edb6ceac26b879bc",
          "transactionIndex": "0x3",
          "logIndex": "0x52",
          "removed": false
        },
        {
          "address": "0x22675C506A8FC26447aFFfa33640f6af5d4D4cF0",
          "topics": [
            "0xddf252ad1be2c89b69c2b068fc378daa952ba7f163c4a11628f55a4df523b3ef",
            "0x0000000000000000000000000000000000000000000000000000000000000000",
            "0x000000000000000000000000c5e0b6e472dde70eceffa4c568bd52f2a7a1632a"
          ],
          "data": "0x0000000000000000000000000000000000000000000006112838af4ea20dcc53",
          "blockHash": "0x5c39f3cc4b84e52664970e0981a65ffb7a609c17b9ef1fad465c44846a038543",
          "blockNumber": "0x465463",
          "transactionHash": "0xe98389fe8b304016ce92f4ba6d71ab6f674a2aa1a03b2393edb6ceac26b879bc",
          "transactionIndex": "0x3",
          "logIndex": "0x53",
          "removed": false
        },
        {
          "address": "0x22675C506A8FC26447aFFfa33640f6af5d4D4cF0",
          "topics": [
            "0x458f5fa412d0f69b08dd84872b0215675cc67bc1d5b6fd93300a1c3878b86196",
            "0x0000000000000000000000006a763430e347d1e152823d646c700442a4db84aa",
            "0x000000000000000000000000c5e0b6e472dde70eceffa4c568bd52f2a7a1632a"
          ],
          "data": "0x0000000000000000000000000000000000000000000006112838af4ea20dcc530000000000000000000000000000000000000000000000000000000226da725f00000000000000000000000000000000000000000346f5b61e4a3072acbf8439",
          "blockHash": "0x5c39f3cc4b84e52664970e0981a65ffb7a609c17b9ef1fad465c44846a038543",
          "blockNumber": "0x465463",
          "transactionHash": "0xe98389fe8b304016ce92f4ba6d71ab6f674a2aa1a03b2393edb6ceac26b879bc",
          "transactionIndex": "0x3",
          "logIndex": "0x54",
          "removed": false
        },
        {
          "address": "0x6Ae43d3271ff6888e7Fc43Fd7321a503ff738951",
          "topics": [
            "0x804c9b842b2748a22bb64b345453a3de7ca54a6ca45ce00d415894979e22897a",
            "0x000000000000000000000000ff34b3d4aee8ddcd6f9afffb6fe49bd371b8a357"
          ],
          "data": "0x00000000000000000000000000000000000000000001f5f9b16f2077c904063f0000000000000000000000000000000000000000002a72590f829498cd0c25f500000000000000000000000000000000000000000008b37d08f4717ad8612fa700000000000000000000000000000000000000000345451611769583a3a1f5ef00000000000000000000000000000000000000000346f5b61e4a3072acbf8439",
          "blockHash": "0x5c39f3cc4b84e52664970e0981a65ffb7a609c17b9ef1fad465c44846a038543",
          "blockNumber": "0x465463",
          "transactionHash": "0xe98389fe8b304016ce92f4ba6d71ab6f674a2aa1a03b2393edb6ceac26b879bc",
          "transactionIndex": "0x3",
          "logIndex": "0x55",
          "removed": false
        },
        {
          "address": "0xFF34B3d4Aee8ddCd6F9AFFFB6Fe49bD371b8a357",
          "topics": [
            "0xddf252ad1be2c89b69c2b068fc378daa952ba7f163c4a11628f55a4df523b3ef",
            "0x00000000000000000000000029598b72eb5cebd806c5dcd549490fda35b13cd8",
            "0x0000000000000000000000006a763430e347d1e152823d646c700442a4db84aa"
          ],
          "data": "0x0000000000000000000000000000000000000000000006112838af4c7b3359f4",
          "blockHash": "0x5c39f3cc4b84e52664970e0981a65ffb7a609c17b9ef1fad465c44846a038543",
          "blockNumber": "0x465463",
          "transactionHash": "0xe98389fe8b304016ce92f4ba6d71ab6f674a2aa1a03b2393edb6ceac26b879bc",
          "transactionIndex": "0x3",
          "logIndex": "0x56",
          "removed": false
        },
        {
          "address": "0x6Ae43d3271ff6888e7Fc43Fd7321a503ff738951",
          "topics": [
            "0xb3d084820fb1a9decffb176436bd02558d15fac9b0ddfed8c465bc7359d7dce0",
            "0x000000000000000000000000ff34b3d4aee8ddcd6f9afffb6fe49bd371b8a357",
            "0x000000000000000000000000c5e0b6e472dde70eceffa4c568bd52f2a7a1632a",
            "0x0000000000000000000000000000000000000000000000000000000000000000"
          ],
          "data": "0x0000000000000000000000006a763430e347d1e152823d646c700442a4db84aa0000000000000000000000000000000000000000000006112838af4c7b3359f4000000000000000000000000000000000000000000000000000000000000000200000000000000000000000000000000000000000008b37d08f4717ad8612fa7",
          "blockHash": "0x5c39f3cc4b84e52664970e0981a65ffb7a609c17b9ef1fad465c44846a038543",
          "blockNumber": "0x465463",
          "transactionHash": "0xe98389fe8b304016ce92f4ba6d71ab6f674a2aa1a03b2393edb6ceac26b879bc",
          "transactionIndex": "0x3",
          "logIndex": "0x57",
          "removed": false
        },
        {
          "address": "0xFF34B3d4Aee8ddCd6F9AFFFB6Fe49bD371b8a357",
          "topics": [
            "0x8c5be1e5ebec7d5bd14f71427d1e84f3dd0314c0f7b2291e5b200ac8c7c3b925",
            "0x0000000000000000000000006a763430e347d1e152823d646c700442a4db84aa",
            "0x0000000000000000000000006ae43d3271ff6888e7fc43fd7321a503ff738951"
          ],
          "data": "0xffffffffffffffffffffffffffffffffffffffffffffffffffffffffffffffff",
          "blockHash": "0x5c39f3cc4b84e52664970e0981a65ffb7a609c17b9ef1fad465c44846a038543",
          "blockNumber": "0x465463",
          "transactionHash": "0xe98389fe8b304016ce92f4ba6d71ab6f674a2aa1a03b2393edb6ceac26b879bc",
          "transactionIndex": "0x3",
          "logIndex": "0x58",
          "removed": false
        },
        {
          "address": "0xbEF786E742edB13361ff2f005b901A82c23AA491",
          "topics": [
            "0xda919360433220e13b51e8c211e490d148e61a3bd53de8c097194e458b97f3e1",
            "0x000000000000000000000000c5e0b6e472dde70eceffa4c568bd52f2a7a1632a",
            "0x0000000000000000000000006a763430e347d1e152823d646c700442a4db84aa",
            "0x000000000000000000000000ff34b3d4aee8ddcd6f9afffb6fe49bd371b8a357"
          ],
          "data": "0x000000000000000000000000000000000000000000000000056bcea19b534c14",
          "blockHash": "0x5c39f3cc4b84e52664970e0981a65ffb7a609c17b9ef1fad465c44846a038543",
          "blockNumber": "0x465463",
          "transactionHash": "0xe98389fe8b304016ce92f4ba6d71ab6f674a2aa1a03b2393edb6ceac26b879bc",
          "transactionIndex": "0x3",
          "logIndex": "0x59",
          "removed": false
        },
        {
          "address": "0xbEF786E742edB13361ff2f005b901A82c23AA491",
          "topics": [
            "0xddf252ad1be2c89b69c2b068fc378daa952ba7f163c4a11628f55a4df523b3ef",
            "0x0000000000000000000000000000000000000000000000000000000000000000",
            "0x000000000000000000000000c5e0b6e472dde70eceffa4c568bd52f2a7a1632a"
          ],
          "data": "0x00000000000000000000000000000000000000000000000116252eb2796b5732",
          "blockHash": "0x5c39f3cc4b84e52664970e0981a65ffb7a609c17b9ef1fad465c44846a038543",
          "blockNumber": "0x465463",
          "transactionHash": "0xe98389fe8b304016ce92f4ba6d71ab6f674a2aa1a03b2393edb6ceac26b879bc",
          "transactionIndex": "0x3",
          "logIndex": "0x5a",
          "removed": false
        },
        {
          "address": "0xbEF786E742edB13361ff2f005b901A82c23AA491",
          "topics": [
            "0xc16f4e4ca34d790de4c656c72fd015c667d688f20be64eea360618545c4c530f",
            "0x0000000000000000000000006a763430e347d1e152823d646c700442a4db84aa",
            "0x000000000000000000000000c5e0b6e472dde70eceffa4c568bd52f2a7a1632a"
          ],
          "data": "0x00000000000000000000000000000000000000000000000116252eb2796b5732000000000000000000000000000000000000000000000000000006668202b3e400000000000000000000000000000000000000000000000000000000094366780000000000000000000000000000000000000000002a72590f82adbaedc7b7e70000000000000000000000000000000000000000002c87f19d90770fecbdea07000000000000000000000000000000000000000000000b7aa56cfbd8a67e571b",
          "blockHash": "0x5c39f3cc4b84e52664970e0981a65ffb7a609c17b9ef1fad465c44846a038543",
          "blockNumber": "0x465463",
          "transactionHash": "0xe98389fe8b304016ce92f4ba6d71ab6f674a2aa1a03b2393edb6ceac26b879bc",
          "transactionIndex": "0x3",
          "logIndex": "0x5b",
          "removed": false
        },
        {
          "address": "0x6Ae43d3271ff6888e7Fc43Fd7321a503ff738951",
          "topics": [
            "0x804c9b842b2748a22bb64b345453a3de7ca54a6ca45ce00d415894979e22897a",
            "0x000000000000000000000000ff34b3d4aee8ddcd6f9afffb6fe49bd371b8a357"
          ],
          "data": "0x00000000000000000000000000000000000000000001f60473492e7b83e55eb00000000000000000000000000000000000000000002a725a473d3b16a3b7356500000000000000000000000000000000000000000008b386c6c9a5698db9ab2400000000000000000000000000000000000000000345451611769583a3a1f5ef00000000000000000000000000000000000000000346f5b61e4a3072acbf8439",
          "blockHash": "0x5c39f3cc4b84e52664970e0981a65ffb7a609c17b9ef1fad465c44846a038543",
          "blockNumber": "0x465463",
          "transactionHash": "0xe98389fe8b304016ce92f4ba6d71ab6f674a2aa1a03b2393edb6ceac26b879bc",
          "transactionIndex": "0x3",
          "logIndex": "0x5c",
          "removed": false
        },
        {
          "address": "0xFF34B3d4Aee8ddCd6F9AFFFB6Fe49bD371b8a357",
          "topics": [
            "0xddf252ad1be2c89b69c2b068fc378daa952ba7f163c4a11628f55a4df523b3ef",
            "0x00000000000000000000000029598b72eb5cebd806c5dcd549490fda35b13cd8",
            "0x0000000000000000000000006a763430e347d1e152823d646c700442a4db84aa"
          ],
          "data": "0x00000000000000000000000000000000000000000000000116252eb27027f0ba",
          "blockHash": "0x5c39f3cc4b84e52664970e0981a65ffb7a609c17b9ef1fad465c44846a038543",
          "blockNumber": "0x465463",
          "transactionHash": "0xe98389fe8b304016ce92f4ba6d71ab6f674a2aa1a03b2393edb6ceac26b879bc",
          "transactionIndex": "0x3",
          "logIndex": "0x5d",
          "removed": false
        },
        {
          "address": "0x6Ae43d3271ff6888e7Fc43Fd7321a503ff738951",
          "topics": [
            "0xb3d084820fb1a9decffb176436bd02558d15fac9b0ddfed8c465bc7359d7dce0",
            "0x000000000000000000000000ff34b3d4aee8ddcd6f9afffb6fe49bd371b8a357",
            "0x000000000000000000000000c5e0b6e472dde70eceffa4c568bd52f2a7a1632a",
            "0x0000000000000000000000000000000000000000000000000000000000000000"
          ],
          "data": "0x0000000000000000000000006a763430e347d1e152823d646c700442a4db84aa00000000000000000000000000000000000000000000000116252eb27027f0ba00000000000000000000000000000000000000000000000000000000000000010000000000000000000000000000000000000000002a72590f829498cd0c25f5",
          "blockHash": "0x5c39f3cc4b84e52664970e0981a65ffb7a609c17b9ef1fad465c44846a038543",
          "blockNumber": "0x465463",
          "transactionHash": "0xe98389fe8b304016ce92f4ba6d71ab6f674a2aa1a03b2393edb6ceac26b879bc",
          "transactionIndex": "0x3",
          "logIndex": "0x5e",
          "removed": false
        },
        {
          "address": "0xFF34B3d4Aee8ddCd6F9AFFFB6Fe49bD371b8a357",
          "topics": [
            "0x8c5be1e5ebec7d5bd14f71427d1e84f3dd0314c0f7b2291e5b200ac8c7c3b925",
            "0x0000000000000000000000006a763430e347d1e152823d646c700442a4db84aa",
            "0x0000000000000000000000006ae43d3271ff6888e7fc43fd7321a503ff738951"
          ],
          "data": "0xffffffffffffffffffffffffffffffffffffffffffffffffffffffffffffffff",
          "blockHash": "0x5c39f3cc4b84e52664970e0981a65ffb7a609c17b9ef1fad465c44846a038543",
          "blockNumber": "0x465463",
          "transactionHash": "0xe98389fe8b304016ce92f4ba6d71ab6f674a2aa1a03b2393edb6ceac26b879bc",
          "transactionIndex": "0x3",
          "logIndex": "0x5f",
          "removed": false
        },
        {
          "address": "0x34a4d932E722b9dFb492B9D8131127690CE2430B",
          "topics": [
            "0xda919360433220e13b51e8c211e490d148e61a3bd53de8c097194e458b97f3e1",
            "0x000000000000000000000000c5e0b6e472dde70eceffa4c568bd52f2a7a1632a",
            "0x0000000000000000000000006a763430e347d1e152823d646c700442a4db84aa",
            "0x000000000000000000000000f8fb3713d459d7c1018bd0a49d19b4c44290ebe5"
          ],
          "data": "0x0000000000000000000000000000000000000000000000000000013f5257b8db",
          "blockHash": "0x5c39f3cc4b84e52664970e0981a65ffb7a609c17b9ef1fad465c44846a038543",
          "blockNumber": "0x465463",
          "transactionHash": "0xe98389fe8b304016ce92f4ba6d71ab6f674a2aa1a03b2393edb6ceac26b879bc",
          "transactionIndex": "0x3",
          "logIndex": "0x60",
          "removed": false
        },
        {
          "address": "0x34a4d932E722b9dFb492B9D8131127690CE2430B",
          "topics": [
            "0xddf252ad1be2c89b69c2b068fc378daa952ba7f163c4a11628f55a4df523b3ef",
            "0x0000000000000000000000000000000000000000000000000000000000000000",
            "0x000000000000000000000000c5e0b6e472dde70eceffa4c568bd52f2a7a1632a"
          ],
          "data": "0x00000000000000000000000000000000000000000000000000003fffa84b0b4e",
          "blockHash": "0x5c39f3cc4b84e52664970e0981a65ffb7a609c17b9ef1fad465c44846a038543",
          "blockNumber": "0x465463",
          "transactionHash": "0xe98389fe8b304016ce92f4ba6d71ab6f674a2aa1a03b2393edb6ceac26b879bc",
          "transactionIndex": "0x3",
          "logIndex": "0x61",
          "removed": false
        },
        {
          "address": "0x34a4d932E722b9dFb492B9D8131127690CE2430B",
          "topics": [
            "0x458f5fa412d0f69b08dd84872b0215675cc67bc1d5b6fd93300a1c3878b86196",
            "0x0000000000000000000000006a763430e347d1e152823d646c700442a4db84aa",
            "0x000000000000000000000000c5e0b6e472dde70eceffa4c568bd52f2a7a1632a"
          ],
          "data": "0x00000000000000000000000000000000000000000000000000003fffa84b0b4e000000000000000000000000000000000000000000000000000000000018b00e000000000000000000000000000000000000000003a1adff2dbac1efc57936db",
          "blockHash": "0x5c39f3cc4b84e52664970e0981a65ffb7a609c17b9ef1fad465c44846a038543",
          "blockNumber": "0x465463",
          "transactionHash": "0xe98389fe8b304016ce92f4ba6d71ab6f674a2aa1a03b2393edb6ceac26b879bc",
          "transactionIndex": "0x3",
          "logIndex": "0x62",
          "removed": false
        },
        {
          "address": "0x6Ae43d3271ff6888e7Fc43Fd7321a503ff738951",
          "topics": [
            "0x804c9b842b2748a22bb64b345453a3de7ca54a6ca45ce00d415894979e22897a",
            "0x000000000000000000000000f8fb3713d459d7c1018bd0a49d19b4c44290ebe5"
          ],
          "data": "0x000000000000000000000000000000000000000006d7f81c82c651e7f245cd310000000000000000000000000000000000000000094eb04637013c47469243ce000000000000000000000000000000000000000009043e08704d30bcac9243ce000000000000000000000000000000000000000003888f3e8a752750605a52bd000000000000000000000000000000000000000003a1adff2dbac1efc57936db",
          "blockHash": "0x5c39f3cc4b84e52664970e0981a65ffb7a609c17b9ef1fad465c44846a038543",
          "blockNumber": "0x465463",
          "transactionHash": "0xe98389fe8b304016ce92f4ba6d71ab6f674a2aa1a03b2393edb6ceac26b879bc",
          "transactionIndex": "0x3",
          "logIndex": "0x63",
          "removed": false
        },
        {
          "address": "0xf8Fb3713D459D7C1018BD0A49D19b4C44290EBE5",
          "topics": [
            "0xddf252ad1be2c89b69c2b068fc378daa952ba7f163c4a11628f55a4df523b3ef",
            "0x0000000000000000000000003ffaf50d4f4e96eb78f2407c090b72e86ecaed24",
            "0x0000000000000000000000006a763430e347d1e152823d646c700442a4db84aa"
          ],
          "data": "0x00000000000000000000000000000000000000000000000000003fffa8325b40",
          "blockHash": "0x5c39f3cc4b84e52664970e0981a65ffb7a609c17b9ef1fad465c44846a038543",
          "blockNumber": "0x465463",
          "transactionHash": "0xe98389fe8b304016ce92f4ba6d71ab6f674a2aa1a03b2393edb6ceac26b879bc",
          "transactionIndex": "0x3",
          "logIndex": "0x64",
          "removed": false
        },
        {
          "address": "0x6Ae43d3271ff6888e7Fc43Fd7321a503ff738951",
          "topics": [
            "0xb3d084820fb1a9decffb176436bd02558d15fac9b0ddfed8c465bc7359d7dce0",
            "0x000000000000000000000000f8fb3713d459d7c1018bd0a49d19b4c44290ebe5",
            "0x000000000000000000000000c5e0b6e472dde70eceffa4c568bd52f2a7a1632a",
            "0x0000000000000000000000000000000000000000000000000000000000000000"
          ],
          "data": "0x0000000000000000000000006a763430e347d1e152823d646c700442a4db84aa00000000000000000000000000000000000000000000000000003fffa8325b400000000000000000000000000000000000000000000000000000000000000002000000000000000000000000000000000000000009043e08704d30bcac9243ce",
          "blockHash": "0x5c39f3cc4b84e52664970e0981a65ffb7a609c17b9ef1fad465c44846a038543",
          "blockNumber": "0x465463",
          "transactionHash": "0xe98389fe8b304016ce92f4ba6d71ab6f674a2aa1a03b2393edb6ceac26b879bc",
          "transactionIndex": "0x3",
          "logIndex": "0x65",
          "removed": false
        },
        {
          "address": "0xf8Fb3713D459D7C1018BD0A49D19b4C44290EBE5",
          "topics": [
            "0x8c5be1e5ebec7d5bd14f71427d1e84f3dd0314c0f7b2291e5b200ac8c7c3b925",
            "0x0000000000000000000000006a763430e347d1e152823d646c700442a4db84aa",
            "0x0000000000000000000000006ae43d3271ff6888e7fc43fd7321a503ff738951"
          ],
          "data": "0xffffffffffffffffffffffffffffffffffffffffffffffffffffffffffffffff",
          "blockHash": "0x5c39f3cc4b84e52664970e0981a65ffb7a609c17b9ef1fad465c44846a038543",
          "blockNumber": "0x465463",
          "transactionHash": "0xe98389fe8b304016ce92f4ba6d71ab6f674a2aa1a03b2393edb6ceac26b879bc",
          "transactionIndex": "0x3",
          "logIndex": "0x66",
          "removed": false
        },
        {
          "address": "0x9844386d29EEd970B9F6a2B9a676083b0478210e",
          "topics": [
            "0xda919360433220e13b51e8c211e490d148e61a3bd53de8c097194e458b97f3e1",
            "0x000000000000000000000000c5e0b6e472dde70eceffa4c568bd52f2a7a1632a",
            "0x0000000000000000000000006a763430e347d1e152823d646c700442a4db84aa",
            "0x000000000000000000000000aa8e23fb1079ea71e0a56f48a2aa51851d8433d0"
          ],
          "data": "0x00000000000000000000000000000000000000000000000000000000161bcb7c",
          "blockHash": "0x5c39f3cc4b84e52664970e0981a65ffb7a609c17b9ef1fad465c44846a038543",
          "blockNumber": "0x465463",
          "transactionHash": "0xe98389fe8b304016ce92f4ba6d71ab6f674a2aa1a03b2393edb6ceac26b879bc",
          "transactionIndex": "0x3",
          "logIndex": "0x67",
          "removed": false
        },
        {
          "address": "0x9844386d29EEd970B9F6a2B9a676083b0478210e",
          "topics": [
            "0xddf252ad1be2c89b69c2b068fc378daa952ba7f163c4a11628f55a4df523b3ef",
            "0x0000000000000000000000000000000000000000000000000000000000000000",
            "0x000000000000000000000000c5e0b6e472dde70eceffa4c568bd52f2a7a1632a"
          ],
          "data": "0x000000000000000000000000000000000000000000000000000000046e570366",
          "blockHash": "0x5c39f3cc4b84e52664970e0981a65ffb7a609c17b9ef1fad465c44846a038543",
          "blockNumber": "0x465463",
          "transactionHash": "0xe98389fe8b304016ce92f4ba6d71ab6f674a2aa1a03b2393edb6ceac26b879bc",
          "transactionIndex": "0x3",
          "logIndex": "0x68",
          "removed": false
        },
        {
          "address": "0x9844386d29EEd970B9F6a2B9a676083b0478210e",
          "topics": [
            "0x458f5fa412d0f69b08dd84872b0215675cc67bc1d5b6fd93300a1c3878b86196",
            "0x0000000000000000000000006a763430e347d1e152823d646c700442a4db84aa",
            "0x000000000000000000000000c5e0b6e472dde70eceffa4c568bd52f2a7a1632a"
          ],
          "data": "0x000000000000000000000000000000000000000000000000000000046e570366000000000000000000000000000000000000000000000000000000000000000000000000000000000000000000000000000000000345056922d511d9f0e25e26",
          "blockHash": "0x5c39f3cc4b84e52664970e0981a65ffb7a609c17b9ef1fad465c44846a038543",
          "blockNumber": "0x465463",
          "transactionHash": "0xe98389fe8b304016ce92f4ba6d71ab6f674a2aa1a03b2393edb6ceac26b879bc",
          "transactionIndex": "0x3",
          "logIndex": "0x69",
          "removed": false
        },
        {
          "address": "0x6Ae43d3271ff6888e7Fc43Fd7321a503ff738951",
          "topics": [
            "0x804c9b842b2748a22bb64b345453a3de7ca54a6ca45ce00d415894979e22897a",
            "0x000000000000000000000000aa8e23fb1079ea71e0a56f48a2aa51851d8433d0"
          ],
          "data": "0x0000000000000000000000000000000000000000000003953d52d26327d95bb900000000000000000000000000000000000000000029614b0a439f01e78908f6000000000000000000000000000000000000000000002b0cdefcc4c3ac4847b500000000000000000000000000000000000000000342ac40cdec3fc2557e15fc00000000000000000000000000000000000000000345056922d511d9f0e25e26",
          "blockHash": "0x5c39f3cc4b84e52664970e0981a65ffb7a609c17b9ef1fad465c44846a038543",
          "blockNumber": "0x465463",
          "transactionHash": "0xe98389fe8b304016ce92f4ba6d71ab6f674a2aa1a03b2393edb6ceac26b879bc",
          "transactionIndex": "0x3",
          "logIndex": "0x6a",
          "removed": false
        },
        {
          "address": "0xaA8E23Fb1079EA71e0a56F48a2aA51851D8433D0",
          "topics": [
            "0xddf252ad1be2c89b69c2b068fc378daa952ba7f163c4a11628f55a4df523b3ef",
            "0x000000000000000000000000af0f6e8b0dc5c913bbf4d14c22b4e78dd14310b6",
            "0x0000000000000000000000006a763430e347d1e152823d646c700442a4db84aa"
          ],
          "data": "0x000000000000000000000000000000000000000000000000000000046e570366",
          "blockHash": "0x5c39f3cc4b84e52664970e0981a65ffb7a609c17b9ef1fad465c44846a038543",
          "blockNumber": "0x465463",
          "transactionHash": "0xe98389fe8b304016ce92f4ba6d71ab6f674a2aa1a03b2393edb6ceac26b879bc",
          "transactionIndex": "0x3",
          "logIndex": "0x6b",
          "removed": false
        },
        {
          "address": "0x6Ae43d3271ff6888e7Fc43Fd7321a503ff738951",
          "topics": [
            "0xb3d084820fb1a9decffb176436bd02558d15fac9b0ddfed8c465bc7359d7dce0",
            "0x000000000000000000000000aa8e23fb1079ea71e0a56f48a2aa51851d8433d0",
            "0x000000000000000000000000c5e0b6e472dde70eceffa4c568bd52f2a7a1632a",
            "0x0000000000000000000000000000000000000000000000000000000000000000"
          ],
          "data": "0x0000000000000000000000006a763430e347d1e152823d646c700442a4db84aa000000000000000000000000000000000000000000000000000000046e5703660000000000000000000000000000000000000000000000000000000000000002000000000000000000000000000000000000000000002b0cdefcc4c3ac4847b5",
          "blockHash": "0x5c39f3cc4b84e52664970e0981a65ffb7a609c17b9ef1fad465c44846a038543",
          "blockNumber": "0x465463",
          "transactionHash": "0xe98389fe8b304016ce92f4ba6d71ab6f674a2aa1a03b2393edb6ceac26b879bc",
          "transactionIndex": "0x3",
          "logIndex": "0x6c",
          "removed": false
        },
        {
          "address": "0xaA8E23Fb1079EA71e0a56F48a2aA51851D8433D0",
          "topics": [
            "0x8c5be1e5ebec7d5bd14f71427d1e84f3dd0314c0f7b2291e5b200ac8c7c3b925",
            "0x0000000000000000000000006a763430e347d1e152823d646c700442a4db84aa",
            "0x0000000000000000000000006ae43d3271ff6888e7fc43fd7321a503ff738951"
          ],
          "data": "0xffffffffffffffffffffffffffffffffffffffffffffffffffffffffffffffff",
          "blockHash": "0x5c39f3cc4b84e52664970e0981a65ffb7a609c17b9ef1fad465c44846a038543",
          "blockNumber": "0x465463",
          "transactionHash": "0xe98389fe8b304016ce92f4ba6d71ab6f674a2aa1a03b2393edb6ceac26b879bc",
          "transactionIndex": "0x3",
          "logIndex": "0x6d",
          "removed": false
        },
        {
          "address": "0xEAF54fA3b1C7243033C2893c6B807f9cEaBCf0AF",
          "topics": [
            "0xda919360433220e13b51e8c211e490d148e61a3bd53de8c097194e458b97f3e1",
            "0x000000000000000000000000c5e0b6e472dde70eceffa4c568bd52f2a7a1632a",
            "0x0000000000000000000000006a763430e347d1e152823d646c700442a4db84aa",
            "0x000000000000000000000000aa8e23fb1079ea71e0a56f48a2aa51851d8433d0"
          ],
          "data": "0x000000000000000000000000000000000000000000000000000000000002faf4",
          "blockHash": "0x5c39f3cc4b84e52664970e0981a65ffb7a609c17b9ef1fad465c44846a038543",
          "blockNumber": "0x465463",
          "transactionHash": "0xe98389fe8b304016ce92f4ba6d71ab6f674a2aa1a03b2393edb6ceac26b879bc",
          "transactionIndex": "0x3",
          "logIndex": "0x6e",
          "removed": false
        },
        {
          "address": "0xEAF54fA3b1C7243033C2893c6B807f9cEaBCf0AF",
          "topics": [
            "0xddf252ad1be2c89b69c2b068fc378daa952ba7f163c4a11628f55a4df523b3ef",
            "0x0000000000000000000000000000000000000000000000000000000000000000",
            "0x000000000000000000000000c5e0b6e472dde70eceffa4c568bd52f2a7a1632a"
          ],
          "data": "0x000000000000000000000000000000000000000000000000000000000098e976",
          "blockHash": "0x5c39f3cc4b84e52664970e0981a65ffb7a609c17b9ef1fad465c44846a038543",
          "blockNumber": "0x465463",
          "transactionHash": "0xe98389fe8b304016ce92f4ba6d71ab6f674a2aa1a03b2393edb6ceac26b879bc",
          "transactionIndex": "0x3",
          "logIndex": "0x6f",
          "removed": false
        },
        {
          "address": "0xEAF54fA3b1C7243033C2893c6B807f9cEaBCf0AF",
          "topics": [
            "0xc16f4e4ca34d790de4c656c72fd015c667d688f20be64eea360618545c4c530f",
            "0x0000000000000000000000006a763430e347d1e152823d646c700442a4db84aa",
            "0x000000000000000000000000c5e0b6e472dde70eceffa4c568bd52f2a7a1632a"
          ],
          "data": "0x000000000000000000000000000000000000000000000000000000000098e9760000000000000000000000000000000000000000000000000000000000000003000000000000000000000000000000000000000000000000000000000000000000000000000000000000000000000000000000000029614b0a439fb50e8801220000000000000000000000000000000000000000002b616f552d4962928b3f500000000000000000000000000000000000000000000000000000001e272ae544",
          "blockHash": "0x5c39f3cc4b84e52664970e0981a65ffb7a609c17b9ef1fad465c44846a038543",
          "blockNumber": "0x465463",
          "transactionHash": "0xe98389fe8b304016ce92f4ba6d71ab6f674a2aa1a03b2393edb6ceac26b879bc",
          "transactionIndex": "0x3",
          "logIndex": "0x70",
          "removed": false
        },
        {
          "address": "0x6Ae43d3271ff6888e7Fc43Fd7321a503ff738951",
          "topics": [
            "0x804c9b842b2748a22bb64b345453a3de7ca54a6ca45ce00d415894979e22897a",
            "0x000000000000000000000000aa8e23fb1079ea71e0a56f48a2aa51851d8433d0"
          ],
          "data": "0x0000000000000000000000000000000000000000000003954decfdb3db7a23fc00000000000000000000000000000000000000000029614b0c4e1a2f88f1ab64000000000000000000000000000000000000000000002b0cef509e30b78d5b2500000000000000000000000000000000000000000342ac40cdec3fc2557e15fc00000000000000000000000000000000000000000345056922d511d9f0e25e26",
          "blockHash": "0x5c39f3cc4b84e52664970e0981a65ffb7a609c17b9ef1fad465c44846a038543",
          "blockNumber": "0x465463",
          "transactionHash": "0xe98389fe8b304016ce92f4ba6d71ab6f674a2aa1a03b2393edb6ceac26b879bc",
          "transactionIndex": "0x3",
          "logIndex": "0x71",
          "removed": false
        },
        {
          "address": "0xaA8E23Fb1079EA71e0a56F48a2aA51851D8433D0",
          "topics": [
            "0xddf252ad1be2c89b69c2b068fc378daa952ba7f163c4a11628f55a4df523b3ef",
            "0x000000000000000000000000af0f6e8b0dc5c913bbf4d14c22b4e78dd14310b6",
            "0x0000000000000000000000006a763430e347d1e152823d646c700442a4db84aa"
          ],
          "data": "0x000000000000000000000000000000000000000000000000000000000098e976",
          "blockHash": "0x5c39f3cc4b84e52664970e0981a65ffb7a609c17b9ef1fad465c44846a038543",
          "blockNumber": "0x465463",
          "transactionHash": "0xe98389fe8b304016ce92f4ba6d71ab6f674a2aa1a03b2393edb6ceac26b879bc",
          "transactionIndex": "0x3",
          "logIndex": "0x72",
          "removed": false
        },
        {
          "address": "0x6Ae43d3271ff6888e7Fc43Fd7321a503ff738951",
          "topics": [
            "0xb3d084820fb1a9decffb176436bd02558d15fac9b0ddfed8c465bc7359d7dce0",
            "0x000000000000000000000000aa8e23fb1079ea71e0a56f48a2aa51851d8433d0",
            "0x000000000000000000000000c5e0b6e472dde70eceffa4c568bd52f2a7a1632a",
            "0x0000000000000000000000000000000000000000000000000000000000000000"
          ],
          "data": "0x0000000000000000000000006a763430e347d1e152823d646c700442a4db84aa000000000000000000000000000000000000000000000000000000000098e976000000000000000000000000000000000000000000000000000000000000000100000000000000000000000000000000000000000029614b0a439f01e78908f6",
          "blockHash": "0x5c39f3cc4b84e52664970e0981a65ffb7a609c17b9ef1fad465c44846a038543",
          "blockNumber": "0x465463",
          "transactionHash": "0xe98389fe8b304016ce92f4ba6d71ab6f674a2aa1a03b2393edb6ceac26b879bc",
          "transactionIndex": "0x3",
          "logIndex": "0x73",
          "removed": false
        },
        {
          "address": "0xaA8E23Fb1079EA71e0a56F48a2aA51851D8433D0",
          "topics": [
            "0x8c5be1e5ebec7d5bd14f71427d1e84f3dd0314c0f7b2291e5b200ac8c7c3b925",
            "0x0000000000000000000000006a763430e347d1e152823d646c700442a4db84aa",
            "0x0000000000000000000000006ae43d3271ff6888e7fc43fd7321a503ff738951"
          ],
          "data": "0xffffffffffffffffffffffffffffffffffffffffffffffffffffffffffffffff",
          "blockHash": "0x5c39f3cc4b84e52664970e0981a65ffb7a609c17b9ef1fad465c44846a038543",
          "blockNumber": "0x465463",
          "transactionHash": "0xe98389fe8b304016ce92f4ba6d71ab6f674a2aa1a03b2393edb6ceac26b879bc",
          "transactionIndex": "0x3",
          "logIndex": "0x74",
          "removed": false
        },
        {
          "address": "0x94482C7A7477196259D8a0f74fB853277Fa5a75b",
          "topics": [
            "0xda919360433220e13b51e8c211e490d148e61a3bd53de8c097194e458b97f3e1",
            "0x000000000000000000000000c5e0b6e472dde70eceffa4c568bd52f2a7a1632a",
            "0x0000000000000000000000006a763430e347d1e152823d646c700442a4db84aa",
            "0x0000000000000000000000006d906e526a4e2ca02097ba9d0caa3c382f52278e"
          ],
          "data": "0x0000000000000000000000000000000000000000000000000000000000000004",
          "blockHash": "0x5c39f3cc4b84e52664970e0981a65ffb7a609c17b9ef1fad465c44846a038543",
          "blockNumber": "0x465463",
          "transactionHash": "0xe98389fe8b304016ce92f4ba6d71ab6f674a2aa1a03b2393edb6ceac26b879bc",
          "transactionIndex": "0x3",
          "logIndex": "0x75",
          "removed": false
        },
        {
          "address": "0x94482C7A7477196259D8a0f74fB853277Fa5a75b",
          "topics": [
            "0xddf252ad1be2c89b69c2b068fc378daa952ba7f163c4a11628f55a4df523b3ef",
            "0x0000000000000000000000000000000000000000000000000000000000000000",
            "0x000000000000000000000000c5e0b6e472dde70eceffa4c568bd52f2a7a1632a"
          ],
          "data": "0x00000000000000000000000000000000000000000000000000000000000000c9",
          "blockHash": "0x5c39f3cc4b84e52664970e0981a65ffb7a609c17b9ef1fad465c44846a038543",
          "blockNumber": "0x465463",
          "transactionHash": "0xe98389fe8b304016ce92f4ba6d71ab6f674a2aa1a03b2393edb6ceac26b879bc",
          "transactionIndex": "0x3",
          "logIndex": "0x76",
          "removed": false
        },
        {
          "address": "0x94482C7A7477196259D8a0f74fB853277Fa5a75b",
          "topics": [
            "0x458f5fa412d0f69b08dd84872b0215675cc67bc1d5b6fd93300a1c3878b86196",
            "0x0000000000000000000000006a763430e347d1e152823d646c700442a4db84aa",
            "0x000000000000000000000000c5e0b6e472dde70eceffa4c568bd52f2a7a1632a"
          ],
          "data": "0x00000000000000000000000000000000000000000000000000000000000000c900000000000000000000000000000000000000000000000000000000000000000000000000000000000000000000000000000000034eb0651256b5e24fbc2f1a",
          "blockHash": "0x5c39f3cc4b84e52664970e0981a65ffb7a609c17b9ef1fad465c44846a038543",
          "blockNumber": "0x465463",
          "transactionHash": "0xe98389fe8b304016ce92f4ba6d71ab6f674a2aa1a03b2393edb6ceac26b879bc",
          "transactionIndex": "0x3",
          "logIndex": "0x77",
          "removed": false
        },
        {
          "address": "0x6Ae43d3271ff6888e7Fc43Fd7321a503ff738951",
          "topics": [
            "0x804c9b842b2748a22bb64b345453a3de7ca54a6ca45ce00d415894979e22897a",
            "0x0000000000000000000000006d906e526a4e2ca02097ba9d0caa3c382f52278e"
          ],
          "data": "0x0000000000000000000000000000000000000000014b7edda84a039e055f6f3a0000000000000000000000000000000000000000018c35137d9287a1a583892a0000000000000000000000000000000000000000017fccb3dc7485b53683892a0000000000000000000000000000000000000000034b4bc4188433350daa54920000000000000000000000000000000000000000034eb0651256b5e24fbc2f1a",
          "blockHash": "0x5c39f3cc4b84e52664970e0981a65ffb7a609c17b9ef1fad465c44846a038543",
          "blockNumber": "0x465463",
          "transactionHash": "0xe98389fe8b304016ce92f4ba6d71ab6f674a2aa1a03b2393edb6ceac26b879bc",
          "transactionIndex": "0x3",
          "logIndex": "0x78",
          "removed": false
        },
        {
          "address": "0x6d906e526a4e2Ca02097BA9d0caA3c382F52278E",
          "topics": [
            "0xddf252ad1be2c89b69c2b068fc378daa952ba7f163c4a11628f55a4df523b3ef",
            "0x000000000000000000000000b20691021f9aced8631edaa3c0cd2949eb45662d",
            "0x0000000000000000000000006a763430e347d1e152823d646c700442a4db84aa"
          ],
          "data": "0x00000000000000000000000000000000000000000000000000000000000000c9",
          "blockHash": "0x5c39f3cc4b84e52664970e0981a65ffb7a609c17b9ef1fad465c44846a038543",
          "blockNumber": "0x465463",
          "transactionHash": "0xe98389fe8b304016ce92f4ba6d71ab6f674a2aa1a03b2393edb6ceac26b879bc",
          "transactionIndex": "0x3",
          "logIndex": "0x79",
          "removed": false
        },
        {
          "address": "0x6Ae43d3271ff6888e7Fc43Fd7321a503ff738951",
          "topics": [
            "0xb3d084820fb1a9decffb176436bd02558d15fac9b0ddfed8c465bc7359d7dce0",
            "0x0000000000000000000000006d906e526a4e2ca02097ba9d0caa3c382f52278e",
            "0x000000000000000000000000c5e0b6e472dde70eceffa4c568bd52f2a7a1632a",
            "0x0000000000000000000000000000000000000000000000000000000000000000"
          ],
          "data": "0x0000000000000000000000006a763430e347d1e152823d646c700442a4db84aa00000000000000000000000000000000000000000000000000000000000000c900000000000000000000000000000000000000000000000000000000000000020000000000000000000000000000000000000000017fccb3dc7485b53683892a",
          "blockHash": "0x5c39f3cc4b84e52664970e0981a65ffb7a609c17b9ef1fad465c44846a038543",
          "blockNumber": "0x465463",
          "transactionHash": "0xe98389fe8b304016ce92f4ba6d71ab6f674a2aa1a03b2393edb6ceac26b879bc",
          "transactionIndex": "0x3",
          "logIndex": "0x7a",
          "removed": false
        },
        {
          "address": "0x6d906e526a4e2Ca02097BA9d0caA3c382F52278E",
          "topics": [
            "0x8c5be1e5ebec7d5bd14f71427d1e84f3dd0314c0f7b2291e5b200ac8c7c3b925",
            "0x0000000000000000000000006a763430e347d1e152823d646c700442a4db84aa",
            "0x0000000000000000000000006ae43d3271ff6888e7fc43fd7321a503ff738951"
          ],
          "data": "0xffffffffffffffffffffffffffffffffffffffffffffffffffffffffffffffff",
          "blockHash": "0x5c39f3cc4b84e52664970e0981a65ffb7a609c17b9ef1fad465c44846a038543",
          "blockNumber": "0x465463",
          "transactionHash": "0xe98389fe8b304016ce92f4ba6d71ab6f674a2aa1a03b2393edb6ceac26b879bc",
          "transactionIndex": "0x3",
          "logIndex": "0x7b",
          "removed": false
        },
        {
          "address": "0x08878209484D8178DD1FFA50AB1689F21aDBB856",
          "topics": [
            "0xda919360433220e13b51e8c211e490d148e61a3bd53de8c097194e458b97f3e1",
            "0x000000000000000000000000c5e0b6e472dde70eceffa4c568bd52f2a7a1632a",
            "0x0000000000000000000000006a763430e347d1e152823d646c700442a4db84aa",
            "0x0000000000000000000000006d906e526a4e2ca02097ba9d0caa3c382f52278e"
          ],
          "data": "0x000000000000000000000000000000000000000000000000000000000000000e",
          "blockHash": "0x5c39f3cc4b84e52664970e0981a65ffb7a609c17b9ef1fad465c44846a038543",
          "blockNumber": "0x465463",
          "transactionHash": "0xe98389fe8b304016ce92f4ba6d71ab6f674a2aa1a03b2393edb6ceac26b879bc",
          "transactionIndex": "0x3",
          "logIndex": "0x7c",
          "removed": false
        },
        {
          "address": "0x08878209484D8178DD1FFA50AB1689F21aDBB856",
          "topics": [
            "0xddf252ad1be2c89b69c2b068fc378daa952ba7f163c4a11628f55a4df523b3ef",
            "0x0000000000000000000000000000000000000000000000000000000000000000",
            "0x000000000000000000000000c5e0b6e472dde70eceffa4c568bd52f2a7a1632a"
          ],
          "data": "0x00000000000000000000000000000000000000000000000000000000000002bd",
          "blockHash": "0x5c39f3cc4b84e52664970e0981a65ffb7a609c17b9ef1fad465c44846a038543",
          "blockNumber": "0x465463",
          "transactionHash": "0xe98389fe8b304016ce92f4ba6d71ab6f674a2aa1a03b2393edb6ceac26b879bc",
          "transactionIndex": "0x3",
          "logIndex": "0x7d",
          "removed": false
        },
        {
          "address": "0x08878209484D8178DD1FFA50AB1689F21aDBB856",
          "topics": [
            "0xc16f4e4ca34d790de4c656c72fd015c667d688f20be64eea360618545c4c530f",
            "0x0000000000000000000000006a763430e347d1e152823d646c700442a4db84aa",
            "0x000000000000000000000000c5e0b6e472dde70eceffa4c568bd52f2a7a1632a"
          ],
          "data": "0x00000000000000000000000000000000000000000000000000000000000002bd000000000000000000000000000000000000000000000000000000000000000000000000000000000000000000000000000000000000000000000000000000000000000000000000000000000000000000000000018c35137d936bf0ee0bd7190000000000000000000000000000000000000000002bbfb9511ea17f159d694c00000000000000000000000000000000000000000000000000000000003fec13",
          "blockHash": "0x5c39f3cc4b84e52664970e0981a65ffb7a609c17b9ef1fad465c44846a038543",
          "blockNumber": "0x465463",
          "transactionHash": "0xe98389fe8b304016ce92f4ba6d71ab6f674a2aa1a03b2393edb6ceac26b879bc",
          "transactionIndex": "0x3",
          "logIndex": "0x7e",
          "removed": false
        },
        {
          "address": "0x6Ae43d3271ff6888e7Fc43Fd7321a503ff738951",
          "topics": [
            "0x804c9b842b2748a22bb64b345453a3de7ca54a6ca45ce00d415894979e22897a",
            "0x0000000000000000000000006d906e526a4e2ca02097ba9d0caa3c382f52278e"
          ],
          "data": "0x0000000000000000000000000000000000000000014b81538acadba086ee9d930000000000000000000000000000000000000000018c37b5ab5443d86f30cbc20000000000000000000000000000000000000000017fcf560a3641ec0030cbc20000000000000000000000000000000000000000034b4bc4188433350daa54920000000000000000000000000000000000000000034eb0651256b5e24fbc2f1a",
          "blockHash": "0x5c39f3cc4b84e52664970e0981a65ffb7a609c17b9ef1fad465c44846a038543",
          "blockNumber": "0x465463",
          "transactionHash": "0xe98389fe8b304016ce92f4ba6d71ab6f674a2aa1a03b2393edb6ceac26b879bc",
          "transactionIndex": "0x3",
          "logIndex": "0x7f",
          "removed": false
        },
        {
          "address": "0x6d906e526a4e2Ca02097BA9d0caA3c382F52278E",
          "topics": [
            "0xddf252ad1be2c89b69c2b068fc378daa952ba7f163c4a11628f55a4df523b3ef",
            "0x000000000000000000000000b20691021f9aced8631edaa3c0cd2949eb45662d",
            "0x0000000000000000000000006a763430e347d1e152823d646c700442a4db84aa"
          ],
          "data": "0x00000000000000000000000000000000000000000000000000000000000002bd",
          "blockHash": "0x5c39f3cc4b84e52664970e0981a65ffb7a609c17b9ef1fad465c44846a038543",
          "blockNumber": "0x465463",
          "transactionHash": "0xe98389fe8b304016ce92f4ba6d71ab6f674a2aa1a03b2393edb6ceac26b879bc",
          "transactionIndex": "0x3",
          "logIndex": "0x80",
          "removed": false
        },
        {
          "address": "0x6Ae43d3271ff6888e7Fc43Fd7321a503ff738951",
          "topics": [
            "0xb3d084820fb1a9decffb176436bd02558d15fac9b0ddfed8c465bc7359d7dce0",
            "0x0000000000000000000000006d906e526a4e2ca02097ba9d0caa3c382f52278e",
            "0x000000000000000000000000c5e0b6e472dde70eceffa4c568bd52f2a7a1632a",
            "0x0000000000000000000000000000000000000000000000000000000000000000"
          ],
          "data": "0x0000000000000000000000006a763430e347d1e152823d646c700442a4db84aa00000000000000000000000000000000000000000000000000000000000002bd00000000000000000000000000000000000000000000000000000000000000010000000000000000000000000000000000000000018c35137d9287a1a583892a",
          "blockHash": "0x5c39f3cc4b84e52664970e0981a65ffb7a609c17b9ef1fad465c44846a038543",
          "blockNumber": "0x465463",
          "transactionHash": "0xe98389fe8b304016ce92f4ba6d71ab6f674a2aa1a03b2393edb6ceac26b879bc",
          "transactionIndex": "0x3",
          "logIndex": "0x81",
          "removed": false
        },
        {
          "address": "0x6d906e526a4e2Ca02097BA9d0caA3c382F52278E",
          "topics": [
            "0x8c5be1e5ebec7d5bd14f71427d1e84f3dd0314c0f7b2291e5b200ac8c7c3b925",
            "0x0000000000000000000000006a763430e347d1e152823d646c700442a4db84aa",
            "0x0000000000000000000000006ae43d3271ff6888e7fc43fd7321a503ff738951"
          ],
          "data": "0xffffffffffffffffffffffffffffffffffffffffffffffffffffffffffffffff",
          "blockHash": "0x5c39f3cc4b84e52664970e0981a65ffb7a609c17b9ef1fad465c44846a038543",
          "blockNumber": "0x465463",
          "transactionHash": "0xe98389fe8b304016ce92f4ba6d71ab6f674a2aa1a03b2393edb6ceac26b879bc",
          "transactionIndex": "0x3",
          "logIndex": "0x82",
          "removed": false
        },
        {
          "address": "0x6Ae43d3271ff6888e7Fc43Fd7321a503ff738951",
          "topics": [
            "0x804c9b842b2748a22bb64b345453a3de7ca54a6ca45ce00d415894979e22897a",
            "0x000000000000000000000000ff34b3d4aee8ddcd6f9afffb6fe49bd371b8a357"
          ],
          "data": "0x00000000000000000000000000000000000000000001f167db8becd6209f06f60000000000000000000000000000000000000000002a70edefec6ce19f833b0500000000000000000000000000000000000000000008a8240c4333c16c19d8270000000000000000000000000000000000000000034545a22ce3ee3e4d87b1f900000000000000000000000000000000000000000346f5b61e4a3072acbf8439",
          "blockHash": "0x5c39f3cc4b84e52664970e0981a65ffb7a609c17b9ef1fad465c44846a038543",
          "blockNumber": "0x465463",
          "transactionHash": "0xe98389fe8b304016ce92f4ba6d71ab6f674a2aa1a03b2393edb6ceac26b879bc",
          "transactionIndex": "0x3",
          "logIndex": "0x83",
          "removed": false
        },
        {
          "address": "0xFF34B3d4Aee8ddCd6F9AFFFB6Fe49bD371b8a357",
          "topics": [
            "0xddf252ad1be2c89b69c2b068fc378daa952ba7f163c4a11628f55a4df523b3ef",
            "0x0000000000000000000000006a763430e347d1e152823d646c700442a4db84aa",
            "0x00000000000000000000000029598b72eb5cebd806c5dcd549490fda35b13cd8"
          ],
          "data": "0x0000000000000000000000000000000000000000000006112838af4c7b3359f4",
          "blockHash": "0x5c39f3cc4b84e52664970e0981a65ffb7a609c17b9ef1fad465c44846a038543",
          "blockNumber": "0x465463",
          "transactionHash": "0xe98389fe8b304016ce92f4ba6d71ab6f674a2aa1a03b2393edb6ceac26b879bc",
          "transactionIndex": "0x3",
          "logIndex": "0x84",
          "removed": false
        },
        {
          "address": "0xFF34B3d4Aee8ddCd6F9AFFFB6Fe49bD371b8a357",
          "topics": [
            "0x8c5be1e5ebec7d5bd14f71427d1e84f3dd0314c0f7b2291e5b200ac8c7c3b925",
            "0x0000000000000000000000006a763430e347d1e152823d646c700442a4db84aa",
            "0x0000000000000000000000006ae43d3271ff6888e7fc43fd7321a503ff738951"
          ],
          "data": "0xfffffffffffffffffffffffffffffffffffffffffffff9eed7c750b384cca60b",
          "blockHash": "0x5c39f3cc4b84e52664970e0981a65ffb7a609c17b9ef1fad465c44846a038543",
          "blockNumber": "0x465463",
          "transactionHash": "0xe98389fe8b304016ce92f4ba6d71ab6f674a2aa1a03b2393edb6ceac26b879bc",
          "transactionIndex": "0x3",
          "logIndex": "0x85",
          "removed": false
        },
        {
          "address": "0x6Ae43d3271ff6888e7Fc43Fd7321a503ff738951",
          "topics": [
            "0xefefaba5e921573100900a3ad9cf29f222d995fb3b6045797eaea7521bd8d6f0",
            "0x0000000000000000000000006a763430e347d1e152823d646c700442a4db84aa",
            "0x000000000000000000000000ff34b3d4aee8ddcd6f9afffb6fe49bd371b8a357",
            "0x0000000000000000000000000000000000000000000000000000000000000000"
          ],
          "data": "0x0000000000000000000000006a763430e347d1e152823d646c700442a4db84aa00000000000000000000000000000000000000000000061061844441b2478a240000000000000000000000000000000000000000000000000000000000000000000000000000000000000000000000000000000000000000c6b46b0ac8ebcfd0",
          "blockHash": "0x5c39f3cc4b84e52664970e0981a65ffb7a609c17b9ef1fad465c44846a038543",
          "blockNumber": "0x465463",
          "transactionHash": "0xe98389fe8b304016ce92f4ba6d71ab6f674a2aa1a03b2393edb6ceac26b879bc",
          "transactionIndex": "0x3",
          "logIndex": "0x86",
          "removed": false
        },
        {
          "address": "0x6Ae43d3271ff6888e7Fc43Fd7321a503ff738951",
          "topics": [
            "0x804c9b842b2748a22bb64b345453a3de7ca54a6ca45ce00d415894979e22897a",
            "0x000000000000000000000000ff34b3d4aee8ddcd6f9afffb6fe49bd371b8a357"
          ],
          "data": "0x00000000000000000000000000000000000000000001f16709aec578e5be42c20000000000000000000000000000000000000000002a70edaf027b5ee076801800000000000000000000000000000000000000000008a82204f3a7ab73b400c10000000000000000000000000000000000000000034545a245fb3479f517c7c500000000000000000000000000000000000000000346f5b61e4a3072acbf8439",
          "blockHash": "0x5c39f3cc4b84e52664970e0981a65ffb7a609c17b9ef1fad465c44846a038543",
          "blockNumber": "0x465463",
          "transactionHash": "0xe98389fe8b304016ce92f4ba6d71ab6f674a2aa1a03b2393edb6ceac26b879bc",
          "transactionIndex": "0x3",
          "logIndex": "0x87",
          "removed": false
        },
        {
          "address": "0xFF34B3d4Aee8ddCd6F9AFFFB6Fe49bD371b8a357",
          "topics": [
            "0xddf252ad1be2c89b69c2b068fc378daa952ba7f163c4a11628f55a4df523b3ef",
            "0x0000000000000000000000006a763430e347d1e152823d646c700442a4db84aa",
            "0x00000000000000000000000029598b72eb5cebd806c5dcd549490fda35b13cd8"
          ],
          "data": "0x00000000000000000000000000000000000000000000000116252eb27027f0ba",
          "blockHash": "0x5c39f3cc4b84e52664970e0981a65ffb7a609c17b9ef1fad465c44846a038543",
          "blockNumber": "0x465463",
          "transactionHash": "0xe98389fe8b304016ce92f4ba6d71ab6f674a2aa1a03b2393edb6ceac26b879bc",
          "transactionIndex": "0x3",
          "logIndex": "0x88",
          "removed": false
        },
        {
          "address": "0xFF34B3d4Aee8ddCd6F9AFFFB6Fe49bD371b8a357",
          "topics": [
            "0x8c5be1e5ebec7d5bd14f71427d1e84f3dd0314c0f7b2291e5b200ac8c7c3b925",
            "0x0000000000000000000000006a763430e347d1e152823d646c700442a4db84aa",
            "0x0000000000000000000000006ae43d3271ff6888e7fc43fd7321a503ff738951"
          ],
          "data": "0xfffffffffffffffffffffffffffffffffffffffffffff9edc1a2220114a4b551",
          "blockHash": "0x5c39f3cc4b84e52664970e0981a65ffb7a609c17b9ef1fad465c44846a038543",
          "blockNumber": "0x465463",
          "transactionHash": "0xe98389fe8b304016ce92f4ba6d71ab6f674a2aa1a03b2393edb6ceac26b879bc",
          "transactionIndex": "0x3",
          "logIndex": "0x89",
          "removed": false
        },
        {
          "address": "0x6Ae43d3271ff6888e7Fc43Fd7321a503ff738951",
          "topics": [
            "0xefefaba5e921573100900a3ad9cf29f222d995fb3b6045797eaea7521bd8d6f0",
            "0x0000000000000000000000006a763430e347d1e152823d646c700442a4db84aa",
            "0x000000000000000000000000ff34b3d4aee8ddcd6f9afffb6fe49bd371b8a357",
            "0x0000000000000000000000000000000000000000000000000000000000000000"
          ],
          "data": "0x0000000000000000000000006a763430e347d1e152823d646c700442a4db84aa000000000000000000000000000000000000000000000001160198fd1046a0020000000000000000000000000000000000000000000000000000000000000000000000000000000000000000000000000000000000000000002395b55fe150b8",
          "blockHash": "0x5c39f3cc4b84e52664970e0981a65ffb7a609c17b9ef1fad465c44846a038543",
          "blockNumber": "0x465463",
          "transactionHash": "0xe98389fe8b304016ce92f4ba6d71ab6f674a2aa1a03b2393edb6ceac26b879bc",
          "transactionIndex": "0x3",
          "logIndex": "0x8a",
          "removed": false
        },
        {
          "address": "0x6Ae43d3271ff6888e7Fc43Fd7321a503ff738951",
          "topics": [
            "0x804c9b842b2748a22bb64b345453a3de7ca54a6ca45ce00d415894979e22897a",
            "0x000000000000000000000000f8fb3713d459d7c1018bd0a49d19b4c44290ebe5"
          ],
          "data": "0x000000000000000000000000000000000000000006d7f81c745810744dd0147a0000000000000000000000000000000000000000094eb0462aa71930fa79ef57000000000000000000000000000000000000000009043e0863f30da66079ef57000000000000000000000000000000000000000003888f3e8a757cc704ad5c86000000000000000000000000000000000000000003a1adff2dbac1efc57936db",
          "blockHash": "0x5c39f3cc4b84e52664970e0981a65ffb7a609c17b9ef1fad465c44846a038543",
          "blockNumber": "0x465463",
          "transactionHash": "0xe98389fe8b304016ce92f4ba6d71ab6f674a2aa1a03b2393edb6ceac26b879bc",
          "transactionIndex": "0x3",
          "logIndex": "0x8b",
          "removed": false
        },
        {
          "address": "0xf8Fb3713D459D7C1018BD0A49D19b4C44290EBE5",
          "topics": [
            "0xddf252ad1be2c89b69c2b068fc378daa952ba7f163c4a11628f55a4df523b3ef",
            "0x0000000000000000000000006a763430e347d1e152823d646c700442a4db84aa",
            "0x0000000000000000000000003ffaf50d4f4e96eb78f2407c090b72e86ecaed24"
          ],
          "data": "0x00000000000000000000000000000000000000000000000000003fffa8325b40",
          "blockHash": "0x5c39f3cc4b84e52664970e0981a65ffb7a609c17b9ef1fad465c44846a038543",
          "blockNumber": "0x465463",
          "transactionHash": "0xe98389fe8b304016ce92f4ba6d71ab6f674a2aa1a03b2393edb6ceac26b879bc",
          "transactionIndex": "0x3",
          "logIndex": "0x8c",
          "removed": false
        },
        {
          "address": "0xf8Fb3713D459D7C1018BD0A49D19b4C44290EBE5",
          "topics": [
            "0x8c5be1e5ebec7d5bd14f71427d1e84f3dd0314c0f7b2291e5b200ac8c7c3b925",
            "0x0000000000000000000000006a763430e347d1e152823d646c700442a4db84aa",
            "0x0000000000000000000000006ae43d3271ff6888e7fc43fd7321a503ff738951"
          ],
          "data": "0xffffffffffffffffffffffffffffffffffffffffffffffffffffc00057cda4bf",
          "blockHash": "0x5c39f3cc4b84e52664970e0981a65ffb7a609c17b9ef1fad465c44846a038543",
          "blockNumber": "0x465463",
          "transactionHash": "0xe98389fe8b304016ce92f4ba6d71ab6f674a2aa1a03b2393edb6ceac26b879bc",
          "transactionIndex": "0x3",
          "logIndex": "0x8d",
          "removed": false
        },
        {
          "address": "0x6Ae43d3271ff6888e7Fc43Fd7321a503ff738951",
          "topics": [
            "0xefefaba5e921573100900a3ad9cf29f222d995fb3b6045797eaea7521bd8d6f0",
            "0x0000000000000000000000006a763430e347d1e152823d646c700442a4db84aa",
            "0x000000000000000000000000f8fb3713d459d7c1018bd0a49d19b4c44290ebe5",
            "0x0000000000000000000000000000000000000000000000000000000000000000"
          ],
          "data": "0x0000000000000000000000006a763430e347d1e152823d646c700442a4db84aa00000000000000000000000000000000000000000000000000003ff77822fa9d000000000000000000000000000000000000000000000000000000000000000000000000000000000000000000000000000000000000000000000008300f60a3",
          "blockHash": "0x5c39f3cc4b84e52664970e0981a65ffb7a609c17b9ef1fad465c44846a038543",
          "blockNumber": "0x465463",
          "transactionHash": "0xe98389fe8b304016ce92f4ba6d71ab6f674a2aa1a03b2393edb6ceac26b879bc",
          "transactionIndex": "0x3",
          "logIndex": "0x8e",
          "removed": false
        },
        {
          "address": "0x6Ae43d3271ff6888e7Fc43Fd7321a503ff738951",
          "topics": [
            "0x804c9b842b2748a22bb64b345453a3de7ca54a6ca45ce00d415894979e22897a",
            "0x000000000000000000000000aa8e23fb1079ea71e0a56f48a2aa51851d8433d0"
          ],
          "data": "0x0000000000000000000000000000000000000000000003954194b0dcd1f07a2400000000000000000000000000000000000000000029614afa939d36d2669db6000000000000000000000000000000000000000000002b0c617cb66b0334edb100000000000000000000000000000000000000000342ac422d943779853a6fb200000000000000000000000000000000000000000345056922d511d9f0e25e26",
          "blockHash": "0x5c39f3cc4b84e52664970e0981a65ffb7a609c17b9ef1fad465c44846a038543",
          "blockNumber": "0x465463",
          "transactionHash": "0xe98389fe8b304016ce92f4ba6d71ab6f674a2aa1a03b2393edb6ceac26b879bc",
          "transactionIndex": "0x3",
          "logIndex": "0x8f",
          "removed": false
        },
        {
          "address": "0xaA8E23Fb1079EA71e0a56F48a2aA51851D8433D0",
          "topics": [
            "0xddf252ad1be2c89b69c2b068fc378daa952ba7f163c4a11628f55a4df523b3ef",
            "0x0000000000000000000000006a763430e347d1e152823d646c700442a4db84aa",
            "0x000000000000000000000000af0f6e8b0dc5c913bbf4d14c22b4e78dd14310b6"
          ],
          "data": "0x000000000000000000000000000000000000000000000000000000046e570366",
          "blockHash": "0x5c39f3cc4b84e52664970e0981a65ffb7a609c17b9ef1fad465c44846a038543",
          "blockNumber": "0x465463",
          "transactionHash": "0xe98389fe8b304016ce92f4ba6d71ab6f674a2aa1a03b2393edb6ceac26b879bc",
          "transactionIndex": "0x3",
          "logIndex": "0x90",
          "removed": false
        },
        {
          "address": "0xaA8E23Fb1079EA71e0a56F48a2aA51851D8433D0",
          "topics": [
            "0x8c5be1e5ebec7d5bd14f71427d1e84f3dd0314c0f7b2291e5b200ac8c7c3b925",
            "0x0000000000000000000000006a763430e347d1e152823d646c700442a4db84aa",
            "0x0000000000000000000000006ae43d3271ff6888e7fc43fd7321a503ff738951"
          ],
          "data": "0xfffffffffffffffffffffffffffffffffffffffffffffffffffffffb91a8fc99",
          "blockHash": "0x5c39f3cc4b84e52664970e0981a65ffb7a609c17b9ef1fad465c44846a038543",
          "blockNumber": "0x465463",
          "transactionHash": "0xe98389fe8b304016ce92f4ba6d71ab6f674a2aa1a03b2393edb6ceac26b879bc",
          "transactionIndex": "0x3",
          "logIndex": "0x91",
          "removed": false
        },
        {
          "address": "0x6Ae43d3271ff6888e7Fc43Fd7321a503ff738951",
          "topics": [
            "0xefefaba5e921573100900a3ad9cf29f222d995fb3b6045797eaea7521bd8d6f0",
            "0x0000000000000000000000006a763430e347d1e152823d646c700442a4db84aa",
            "0x000000000000000000000000aa8e23fb1079ea71e0a56f48a2aa51851d8433d0",
            "0x0000000000000000000000000000000000000000000000000000000000000000"
          ],
          "data": "0x0000000000000000000000006a763430e347d1e152823d646c700442a4db84aa000000000000000000000000000000000000000000000000000000046dc5e3ed00000000000000000000000000000000000000000000000000000000000000000000000000000000000000000000000000000000000000000000000000911f79",
          "blockHash": "0x5c39f3cc4b84e52664970e0981a65ffb7a609c17b9ef1fad465c44846a038543",
          "blockNumber": "0x465463",
          "transactionHash": "0xe98389fe8b304016ce92f4ba6d71ab6f674a2aa1a03b2393edb6ceac26b879bc",
          "transactionIndex": "0x3",
          "logIndex": "0x92",
          "removed": false
        },
        {
          "address": "0x6Ae43d3271ff6888e7Fc43Fd7321a503ff738951",
          "topics": [
            "0x804c9b842b2748a22bb64b345453a3de7ca54a6ca45ce00d415894979e22897a",
            "0x000000000000000000000000aa8e23fb1079ea71e0a56f48a2aa51851d8433d0"
          ],
          "data": "0x000000000000000000000000000000000000000000000395419306de4884d8db00000000000000000000000000000000000000000029614afa913971e895edea000000000000000000000000000000000000000000002b0c61699843b4af6f5500000000000000000000000000000000000000000342ac422dc39eab03aaf7da00000000000000000000000000000000000000000345056922d511d9f0e25e26",
          "blockHash": "0x5c39f3cc4b84e52664970e0981a65ffb7a609c17b9ef1fad465c44846a038543",
          "blockNumber": "0x465463",
          "transactionHash": "0xe98389fe8b304016ce92f4ba6d71ab6f674a2aa1a03b2393edb6ceac26b879bc",
          "transactionIndex": "0x3",
          "logIndex": "0x93",
          "removed": false
        },
        {
          "address": "0xaA8E23Fb1079EA71e0a56F48a2aA51851D8433D0",
          "topics": [
            "0xddf252ad1be2c89b69c2b068fc378daa952ba7f163c4a11628f55a4df523b3ef",
            "0x0000000000000000000000006a763430e347d1e152823d646c700442a4db84aa",
            "0x000000000000000000000000af0f6e8b0dc5c913bbf4d14c22b4e78dd14310b6"
          ],
          "data": "0x000000000000000000000000000000000000000000000000000000000098e976",
          "blockHash": "0x5c39f3cc4b84e52664970e0981a65ffb7a609c17b9ef1fad465c44846a038543",
          "blockNumber": "0x465463",
          "transactionHash": "0xe98389fe8b304016ce92f4ba6d71ab6f674a2aa1a03b2393edb6ceac26b879bc",
          "transactionIndex": "0x3",
          "logIndex": "0x94",
          "removed": false
        },
        {
          "address": "0xaA8E23Fb1079EA71e0a56F48a2aA51851D8433D0",
          "topics": [
            "0x8c5be1e5ebec7d5bd14f71427d1e84f3dd0314c0f7b2291e5b200ac8c7c3b925",
            "0x0000000000000000000000006a763430e347d1e152823d646c700442a4db84aa",
            "0x0000000000000000000000006ae43d3271ff6888e7fc43fd7321a503ff738951"
          ],
          "data": "0xfffffffffffffffffffffffffffffffffffffffffffffffffffffffb91101323",
          "blockHash": "0x5c39f3cc4b84e52664970e0981a65ffb7a609c17b9ef1fad465c44846a038543",
          "blockNumber": "0x465463",
          "transactionHash": "0xe98389fe8b304016ce92f4ba6d71ab6f674a2aa1a03b2393edb6ceac26b879bc",
          "transactionIndex": "0x3",
          "logIndex": "0x95",
          "removed": false
        },
        {
          "address": "0x6Ae43d3271ff6888e7Fc43Fd7321a503ff738951",
          "topics": [
            "0xefefaba5e921573100900a3ad9cf29f222d995fb3b6045797eaea7521bd8d6f0",
            "0x0000000000000000000000006a763430e347d1e152823d646c700442a4db84aa",
            "0x000000000000000000000000aa8e23fb1079ea71e0a56f48a2aa51851d8433d0",
            "0x0000000000000000000000000000000000000000000000000000000000000000"
          ],
          "data": "0x0000000000000000000000006a763430e347d1e152823d646c700442a4db84aa000000000000000000000000000000000000000000000000000000000098d5e600000000000000000000000000000000000000000000000000000000000000000000000000000000000000000000000000000000000000000000000000001390",
          "blockHash": "0x5c39f3cc4b84e52664970e0981a65ffb7a609c17b9ef1fad465c44846a038543",
          "blockNumber": "0x465463",
          "transactionHash": "0xe98389fe8b304016ce92f4ba6d71ab6f674a2aa1a03b2393edb6ceac26b879bc",
          "transactionIndex": "0x3",
          "logIndex": "0x96",
          "removed": false
        },
        {
          "address": "0x6Ae43d3271ff6888e7Fc43Fd7321a503ff738951",
          "topics": [
            "0x804c9b842b2748a22bb64b345453a3de7ca54a6ca45ce00d415894979e22897a",
            "0x0000000000000000000000006d906e526a4e2ca02097ba9d0caa3c382f52278e"
          ],
          "data": "0x0000000000000000000000000000000000000000014b80a4cd0695c7a44156050000000000000000000000000000000000000000018c36fa07c82a87ef6ea3100000000000000000000000000000000000000000017fce9a66aa289b806ea3100000000000000000000000000000000000000000034b4bc4188433350daa54920000000000000000000000000000000000000000034eb0651256b5e24fbc2f1a",
          "blockHash": "0x5c39f3cc4b84e52664970e0981a65ffb7a609c17b9ef1fad465c44846a038543",
          "blockNumber": "0x465463",
          "transactionHash": "0xe98389fe8b304016ce92f4ba6d71ab6f674a2aa1a03b2393edb6ceac26b879bc",
          "transactionIndex": "0x3",
          "logIndex": "0x97",
          "removed": false
        },
        {
          "address": "0x6d906e526a4e2Ca02097BA9d0caA3c382F52278E",
          "topics": [
            "0xddf252ad1be2c89b69c2b068fc378daa952ba7f163c4a11628f55a4df523b3ef",
            "0x0000000000000000000000006a763430e347d1e152823d646c700442a4db84aa",
            "0x000000000000000000000000b20691021f9aced8631edaa3c0cd2949eb45662d"
          ],
          "data": "0x00000000000000000000000000000000000000000000000000000000000000c9",
          "blockHash": "0x5c39f3cc4b84e52664970e0981a65ffb7a609c17b9ef1fad465c44846a038543",
          "blockNumber": "0x465463",
          "transactionHash": "0xe98389fe8b304016ce92f4ba6d71ab6f674a2aa1a03b2393edb6ceac26b879bc",
          "transactionIndex": "0x3",
          "logIndex": "0x98",
          "removed": false
        },
        {
          "address": "0x6d906e526a4e2Ca02097BA9d0caA3c382F52278E",
          "topics": [
            "0x8c5be1e5ebec7d5bd14f71427d1e84f3dd0314c0f7b2291e5b200ac8c7c3b925",
            "0x0000000000000000000000006a763430e347d1e152823d646c700442a4db84aa",
            "0x0000000000000000000000006ae43d3271ff6888e7fc43fd7321a503ff738951"
          ],
          "data": "0xffffffffffffffffffffffffffffffffffffffffffffffffffffffffffffff36",
          "blockHash": "0x5c39f3cc4b84e52664970e0981a65ffb7a609c17b9ef1fad465c44846a038543",
          "blockNumber": "0x465463",
          "transactionHash": "0xe98389fe8b304016ce92f4ba6d71ab6f674a2aa1a03b2393edb6ceac26b879bc",
          "transactionIndex": "0x3",
          "logIndex": "0x99",
          "removed": false
        },
        {
          "address": "0x6Ae43d3271ff6888e7Fc43Fd7321a503ff738951",
          "topics": [
            "0xefefaba5e921573100900a3ad9cf29f222d995fb3b6045797eaea7521bd8d6f0",
            "0x0000000000000000000000006a763430e347d1e152823d646c700442a4db84aa",
            "0x0000000000000000000000006d906e526a4e2ca02097ba9d0caa3c382f52278e",
            "0x0000000000000000000000000000000000000000000000000000000000000000"
          ],
          "data": "0x0000000000000000000000006a763430e347d1e152823d646c700442a4db84aa00000000000000000000000000000000000000000000000000000000000000c900000000000000000000000000000000000000000000000000000000000000000000000000000000000000000000000000000000000000000000000000000000",
          "blockHash": "0x5c39f3cc4b84e52664970e0981a65ffb7a609c17b9ef1fad465c44846a038543",
          "blockNumber": "0x465463",
          "transactionHash": "0xe98389fe8b304016ce92f4ba6d71ab6f674a2aa1a03b2393edb6ceac26b879bc",
          "transactionIndex": "0x3",
          "logIndex": "0x9a",
          "removed": false
        },
        {
          "address": "0x6Ae43d3271ff6888e7Fc43Fd7321a503ff738951",
          "topics": [
            "0x804c9b842b2748a22bb64b345453a3de7ca54a6ca45ce00d415894979e22897a",
            "0x0000000000000000000000006d906e526a4e2ca02097ba9d0caa3c382f52278e"
          ],
          "data": "0x0000000000000000000000000000000000000000014b7e436208abf0914d45ae0000000000000000000000000000000000000000018c346ba145352ac95125560000000000000000000000000000000000000000017fcc0c0027333e5a5125560000000000000000000000000000000000000000034b4bc4188433350daa54920000000000000000000000000000000000000000034eb0651256b5e24fbc2f1a",
          "blockHash": "0x5c39f3cc4b84e52664970e0981a65ffb7a609c17b9ef1fad465c44846a038543",
          "blockNumber": "0x465463",
          "transactionHash": "0xe98389fe8b304016ce92f4ba6d71ab6f674a2aa1a03b2393edb6ceac26b879bc",
          "transactionIndex": "0x3",
          "logIndex": "0x9b",
          "removed": false
        },
        {
          "address": "0x6d906e526a4e2Ca02097BA9d0caA3c382F52278E",
          "topics": [
            "0xddf252ad1be2c89b69c2b068fc378daa952ba7f163c4a11628f55a4df523b3ef",
            "0x0000000000000000000000006a763430e347d1e152823d646c700442a4db84aa",
            "0x000000000000000000000000b20691021f9aced8631edaa3c0cd2949eb45662d"
          ],
          "data": "0x00000000000000000000000000000000000000000000000000000000000002bd",
          "blockHash": "0x5c39f3cc4b84e52664970e0981a65ffb7a609c17b9ef1fad465c44846a038543",
          "blockNumber": "0x465463",
          "transactionHash": "0xe98389fe8b304016ce92f4ba6d71ab6f674a2aa1a03b2393edb6ceac26b879bc",
          "transactionIndex": "0x3",
          "logIndex": "0x9c",
          "removed": false
        },
        {
          "address": "0x6d906e526a4e2Ca02097BA9d0caA3c382F52278E",
          "topics": [
            "0x8c5be1e5ebec7d5bd14f71427d1e84f3dd0314c0f7b2291e5b200ac8c7c3b925",
            "0x0000000000000000000000006a763430e347d1e152823d646c700442a4db84aa",
            "0x0000000000000000000000006ae43d3271ff6888e7fc43fd7321a503ff738951"
          ],
          "data": "0xfffffffffffffffffffffffffffffffffffffffffffffffffffffffffffffc79",
          "blockHash": "0x5c39f3cc4b84e52664970e0981a65ffb7a609c17b9ef1fad465c44846a038543",
          "blockNumber": "0x465463",
          "transactionHash": "0xe98389fe8b304016ce92f4ba6d71ab6f674a2aa1a03b2393edb6ceac26b879bc",
          "transactionIndex": "0x3",
          "logIndex": "0x9d",
          "removed": false
        },
        {
          "address": "0x6Ae43d3271ff6888e7Fc43Fd7321a503ff738951",
          "topics": [
            "0xefefaba5e921573100900a3ad9cf29f222d995fb3b6045797eaea7521bd8d6f0",
            "0x0000000000000000000000006a763430e347d1e152823d646c700442a4db84aa",
            "0x0000000000000000000000006d906e526a4e2ca02097ba9d0caa3c382f52278e",
            "0x0000000000000000000000000000000000000000000000000000000000000000"
          ],
          "data": "0x0000000000000000000000006a763430e347d1e152823d646c700442a4db84aa00000000000000000000000000000000000000000000000000000000000002bd00000000000000000000000000000000000000000000000000000000000000000000000000000000000000000000000000000000000000000000000000000000",
          "blockHash": "0x5c39f3cc4b84e52664970e0981a65ffb7a609c17b9ef1fad465c44846a038543",
          "blockNumber": "0x465463",
          "transactionHash": "0xe98389fe8b304016ce92f4ba6d71ab6f674a2aa1a03b2393edb6ceac26b879bc",
          "transactionIndex": "0x3",
          "logIndex": "0x9e",
          "removed": false
        }
      ],
      "status": "0x1",
      "logsBloom": "0x101208000800084006800002000068000000000000408000020004000000008100000080400000000000400000040020000500004020000200000000002000000000000000010080c0002008080000000000000000000000000000040000300004000000020020000010001080200c00004204000040000008000011401000002000008081040000005000000000000000200000080000000000000000002000020000000080424000000084800000000010308c40104000020006000102010002008042000011100000002040080300004280100000040100000001000020040010500408800020000080004001000100010000000801000000002001050000",
      "type": "0x2",
      "effectiveGasPrice": "0xb2d3d9b4"
    }
  ],
  "libraries": [],
  "pending": [],
  "returns": {},
  "timestamp": 1698857090,
  "chain": 11155111,
  "multi": false,
  "commit": "0d3f206"
}