{
  "transactions": [
    {
      "hash": "0x2224e3bae86daa4b47e6372faa15441439322acff6fd0ed7bb2cd14057f26d8e",
      "transactionType": "CALL",
      "contractName": "InitializableImmutableAdminUpgradeabilityProxy",
      "contractAddress": "0x22675C506A8FC26447aFFfa33640f6af5d4D4cF0",
      "function": "approveDelegation(address,uint256)",
      "arguments": [
        "0x6A763430e347d1E152823d646c700442A4db84aA",
        "29179747241575717694185"
      ],
      "transaction": {
        "type": "0x02",
        "from": "0xc5e0b6e472dde70eceffa4c568bd52f2a7a1632a",
        "to": "0x22675c506a8fc26447afffa33640f6af5d4d4cf0",
        "gas": "0x121d8",
        "value": "0x0",
        "data": "0xc04a8a100000000000000000000000006a763430e347d1e152823d646c700442a4db84aa00000000000000000000000000000000000000000000062dd6572b494d1a6ae9",
        "nonce": "0x9b",
        "accessList": []
      },
      "additionalContracts": [],
      "isFixedGasLimit": false
    },
    {
      "hash": "0x8a548e005355ed6ea13dd9cb4298f25bbe3a76d871f69db9728d4eddb61f21fd",
      "transactionType": "CALL",
      "contractName": "InitializableImmutableAdminUpgradeabilityProxy",
      "contractAddress": "0xbEF786E742edB13361ff2f005b901A82c23AA491",
      "function": "approveDelegation(address,uint256)",
      "arguments": [
        "0x6A763430e347d1E152823d646c700442A4db84aA",
        "20412120713822159329"
      ],
      "transaction": {
        "type": "0x02",
        "from": "0xc5e0b6e472dde70eceffa4c568bd52f2a7a1632a",
        "to": "0xbef786e742edb13361ff2f005b901a82c23aa491",
        "gas": "0x121a9",
        "value": "0x0",
        "data": "0xc04a8a100000000000000000000000006a763430e347d1e152823d646c700442a4db84aa0000000000000000000000000000000000000000000000011b466ba423c341e1",
        "nonce": "0x9c",
        "accessList": []
      },
      "additionalContracts": [],
      "isFixedGasLimit": false
    },
    {
      "hash": "0xa1d47cb6eecb62ca15f075ea29d07e21adf55db1aea78367b448e7688bce6d3e",
      "transactionType": "CALL",
      "contractName": "InitializableImmutableAdminUpgradeabilityProxy",
      "contractAddress": "0x34a4d932E722b9dFb492B9D8131127690CE2430B",
      "function": "approveDelegation(address,uint256)",
      "arguments": [
        "0x6A763430e347d1E152823d646c700442A4db84aA",
        "71557870746426"
      ],
      "transaction": {
        "type": "0x02",
        "from": "0xc5e0b6e472dde70eceffa4c568bd52f2a7a1632a",
        "to": "0x34a4d932e722b9dfb492b9d8131127690ce2430b",
        "gas": "0x12195",
        "value": "0x0",
        "data": "0xc04a8a100000000000000000000000006a763430e347d1e152823d646c700442a4db84aa00000000000000000000000000000000000000000000000000004114dd777b3a",
        "nonce": "0x9d",
        "accessList": []
      },
      "additionalContracts": [],
      "isFixedGasLimit": false
    },
    {
      "hash": "0x0e0f0b6749e22fae7f34a4b4feb814086b976b34d38352595984111efdae2e3c",
      "transactionType": "CALL",
      "contractName": "InitializableImmutableAdminUpgradeabilityProxy",
      "contractAddress": "0x9844386d29EEd970B9F6a2B9a676083b0478210e",
      "function": "approveDelegation(address,uint256)",
      "arguments": [
        "0x6A763430e347d1E152823d646c700442A4db84aA",
        "19679516989"
      ],
      "transaction": {
        "type": "0x02",
        "from": "0xc5e0b6e472dde70eceffa4c568bd52f2a7a1632a",
        "to": "0x9844386d29eed970b9f6a2b9a676083b0478210e",
        "gas": "0x12184",
        "value": "0x0",
        "data": "0xc04a8a100000000000000000000000006a763430e347d1e152823d646c700442a4db84aa0000000000000000000000000000000000000000000000000000000494fd993d",
        "nonce": "0x9e",
        "accessList": []
      },
      "additionalContracts": [],
      "isFixedGasLimit": false
    },
    {
      "hash": "0x0ab19dadc31d036b66c0a13f0b7b6474f2318b021cb3d080bd73768677a07aea",
      "transactionType": "CALL",
      "contractName": "InitializableImmutableAdminUpgradeabilityProxy",
      "contractAddress": "0xEAF54fA3b1C7243033C2893c6B807f9cEaBCf0AF",
      "function": "approveDelegation(address,uint256)",
      "arguments": [
        "0x6A763430e347d1E152823d646c700442A4db84aA",
        "10206065"
      ],
      "transaction": {
        "type": "0x02",
        "from": "0xc5e0b6e472dde70eceffa4c568bd52f2a7a1632a",
        "to": "0xeaf54fa3b1c7243033c2893c6b807f9ceabcf0af",
        "gas": "0x12145",
        "value": "0x0",
        "data": "0xc04a8a100000000000000000000000006a763430e347d1e152823d646c700442a4db84aa00000000000000000000000000000000000000000000000000000000009bbb71",
        "nonce": "0x9f",
        "accessList": []
      },
      "additionalContracts": [],
      "isFixedGasLimit": false
    },
    {
      "hash": "0x97ecd571b273146ef0cb74b374c355f36bb2aa978eb2f4cacfe4f0e8b6cd0a35",
      "transactionType": "CALL",
      "contractName": "InitializableImmutableAdminUpgradeabilityProxy",
      "contractAddress": "0x94482C7A7477196259D8a0f74fB853277Fa5a75b",
      "function": "approveDelegation(address,uint256)",
      "arguments": [
        "0x6A763430e347d1E152823d646c700442A4db84aA",
        "205"
      ],
      "transaction": {
        "type": "0x02",
        "from": "0xc5e0b6e472dde70eceffa4c568bd52f2a7a1632a",
        "to": "0x94482c7a7477196259d8a0f74fb853277fa5a75b",
        "gas": "0x12142",
        "value": "0x0",
        "data": "0xc04a8a100000000000000000000000006a763430e347d1e152823d646c700442a4db84aa00000000000000000000000000000000000000000000000000000000000000cd",
        "nonce": "0xa0",
        "accessList": []
      },
      "additionalContracts": [],
      "isFixedGasLimit": false
    },
    {
      "hash": "0x41d80e6cb96d2e5f7acce29287087230a75ddb0a226612986662172e6d03be2e",
      "transactionType": "CALL",
      "contractName": "InitializableImmutableAdminUpgradeabilityProxy",
      "contractAddress": "0x08878209484D8178DD1FFA50AB1689F21aDBB856",
      "function": "approveDelegation(address,uint256)",
      "arguments": [
        "0x6A763430e347d1E152823d646c700442A4db84aA",
        "715"
      ],
      "transaction": {
        "type": "0x02",
        "from": "0xc5e0b6e472dde70eceffa4c568bd52f2a7a1632a",
        "to": "0x08878209484d8178dd1ffa50ab1689f21adbb856",
        "gas": "0x13238",
        "value": "0x0",
        "data": "0xc04a8a100000000000000000000000006a763430e347d1e152823d646c700442a4db84aa00000000000000000000000000000000000000000000000000000000000002cb",
        "nonce": "0xa1",
        "accessList": []
      },
      "additionalContracts": [],
      "isFixedGasLimit": false
    },
    {
      "hash": "0x92f83f8437c329dccd97f2de9713b663b9e10dea2a480581e12a7f02f06dfa59",
      "transactionType": "CALL",
      "contractName": "InitializableImmutableAdminUpgradeabilityProxy",
      "contractAddress": "0x3FfAf50D4F4E96eB78f2407c090b72e86eCaed24",
      "function": "approve(address,uint256):(bool)",
      "arguments": [
        "0x6A763430e347d1E152823d646c700442A4db84aA",
        "1044702619157327403324"
      ],
      "transaction": {
        "type": "0x02",
        "from": "0x3e122a3db43d225dd5bffd929ad4176ce69117e0",
        "to": "0x3ffaf50d4f4e96eb78f2407c090b72e86ecaed24",
        "gas": "0x1148c",
        "value": "0x0",
        "data": "0x095ea7b30000000000000000000000006a763430e347d1e152823d646c700442a4db84aa000000000000000000000000000000000000000000000038a229490d48b2593c",
        "nonce": "0xd5",
        "accessList": []
      },
      "additionalContracts": [],
      "isFixedGasLimit": false
    },
    {
      "hash": "0xfc63a0d81fbc1a597d36e9c6f9c3f1efe0ada755077003141bb7902cdafcbeba",
      "transactionType": "CALL",
      "contractName": "InitializableImmutableAdminUpgradeabilityProxy",
      "contractAddress": "0x16dA4541aD1807f4443d92D26044C1147406EB80",
      "function": "approve(address,uint256):(bool)",
      "arguments": [
        "0x6A763430e347d1E152823d646c700442A4db84aA",
        "1017518758"
      ],
      "transaction": {
        "type": "0x02",
        "from": "0x3e122a3db43d225dd5bffd929ad4176ce69117e0",
        "to": "0x16da4541ad1807f4443d92d26044c1147406eb80",
        "gas": "0x11439",
        "value": "0x0",
        "data": "0x095ea7b30000000000000000000000006a763430e347d1e152823d646c700442a4db84aa000000000000000000000000000000000000000000000000000000003ca61aa6",
        "nonce": "0xd6",
        "accessList": []
      },
      "additionalContracts": [],
      "isFixedGasLimit": false
    },
    {
      "hash": "0x32a95ea382ac1bac6b99f05b30eead9546c814c11a77ad60a5f8f3fcf0158e66",
      "transactionType": "CALL",
      "contractName": "InitializableImmutableAdminUpgradeabilityProxy",
      "contractAddress": "0x1804Bf30507dc2EB3bDEbbbdd859991EAeF6EefF",
      "function": "approve(address,uint256):(bool)",
      "arguments": [
        "0x6A763430e347d1E152823d646c700442A4db84aA",
        "100000001"
      ],
      "transaction": {
        "type": "0x02",
        "from": "0x3e122a3db43d225dd5bffd929ad4176ce69117e0",
        "to": "0x1804bf30507dc2eb3bdebbbdd859991eaef6eeff",
        "gas": "0x11439",
        "value": "0x0",
        "data": "0x095ea7b30000000000000000000000006a763430e347d1e152823d646c700442a4db84aa0000000000000000000000000000000000000000000000000000000005f5e101",
        "nonce": "0xd7",
        "accessList": []
      },
      "additionalContracts": [],
      "isFixedGasLimit": false
    },
    {
      "hash": "0x8a25b4608e3978605a78044409cc441dd736c5ff67c68dc2ceac92d99bcd3a2f",
      "transactionType": "CALL",
      "contractName": "InitializableImmutableAdminUpgradeabilityProxy",
      "contractAddress": "0xAF0F6e8b0Dc5c913bbF4d14c22B4E78Dd14310B6",
      "function": "approve(address,uint256):(bool)",
      "arguments": [
        "0x6A763430e347d1E152823d646c700442A4db84aA",
        "2015913"
      ],
      "transaction": {
        "type": "0x02",
        "from": "0x3e122a3db43d225dd5bffd929ad4176ce69117e0",
        "to": "0xaf0f6e8b0dc5c913bbf4d14c22b4e78dd14310b6",
        "gas": "0x11429",
        "value": "0x0",
        "data": "0x095ea7b30000000000000000000000006a763430e347d1e152823d646c700442a4db84aa00000000000000000000000000000000000000000000000000000000001ec2a9",
        "nonce": "0xd8",
        "accessList": []
      },
      "additionalContracts": [],
      "isFixedGasLimit": false
    },
    {
      "hash": "0x6687ddb48478ed6e11ad39490416dafa16bdb619c51bef4b89f5742435fdfc77",
      "transactionType": "CALL",
      "contractName": "InitializableImmutableAdminUpgradeabilityProxy",
      "contractAddress": "0x6b8558764d3b7572136F17174Cb9aB1DDc7E1259",
      "function": "approve(address,uint256):(bool)",
      "arguments": [
        "0x6A763430e347d1E152823d646c700442A4db84aA",
        "100000000000000000000"
      ],
      "transaction": {
        "type": "0x02",
        "from": "0x3e122a3db43d225dd5bffd929ad4176ce69117e0",
        "to": "0x6b8558764d3b7572136f17174cb9ab1ddc7e1259",
        "gas": "0x1146c",
        "value": "0x0",
        "data": "0x095ea7b30000000000000000000000006a763430e347d1e152823d646c700442a4db84aa0000000000000000000000000000000000000000000000056bc75e2d63100000",
        "nonce": "0xd9",
        "accessList": []
      },
      "additionalContracts": [],
      "isFixedGasLimit": false
    },
    {
      "hash": "0x16760e03345df3644d03c76e32f0bb0e7c05375aee3c0f79fa326a94765218c0",
      "transactionType": "CALL",
      "contractName": "TeleportAaveV3",
      "contractAddress": "0x6A763430e347d1E152823d646c700442A4db84aA",
      "function": "moveAavePositionToAnotherWallet(address,address,address[],uint256[],uint256[],uint256[],address[],uint256[])",
      "arguments": [
        "0x3e122A3dB43d225DD5BFFD929AD4176ce69117E0",
        "0xC5e0B6E472dDE70eCEfFa4c568Bd52f2A7a1632A",
        "[0xFF34B3d4Aee8ddCd6F9AFFFB6Fe49bD371b8a357, 0xFF34B3d4Aee8ddCd6F9AFFFB6Fe49bD371b8a357, 0xf8Fb3713D459D7C1018BD0A49D19b4C44290EBE5, 0xaA8E23Fb1079EA71e0a56F48a2aA51851D8433D0, 0xaA8E23Fb1079EA71e0a56F48a2aA51851D8433D0, 0x6d906e526a4e2Ca02097BA9d0caA3c382F52278E, 0x6d906e526a4e2Ca02097BA9d0caA3c382F52278E]",
        "[28607595334878154602143, 20011883052766822872, 70154775241595, 19293644107, 10005947, 201, 701]",
        "[2, 1, 2, 2, 1, 2, 1]",
        "[0, 0, 0, 0, 0, 0, 0]",
        "[0x3FfAf50D4F4E96eB78f2407c090b72e86eCaed24, 0x16dA4541aD1807f4443d92D26044C1147406EB80, 0x1804Bf30507dc2EB3bDEbbbdd859991EAeF6EefF, 0xAF0F6e8b0Dc5c913bbF4d14c22B4E78Dd14310B6, 0x6b8558764d3b7572136F17174Cb9aB1DDc7E1259]",
        "[1044702619157327403324, 1017518758, 100000001, 2015913, 100000000000000000000]"
      ],
      "transaction": {
        "type": "0x02",
        "from": "0x3e122a3db43d225dd5bffd929ad4176ce69117e0",
        "to": "0x6a763430e347d1e152823d646c700442a4db84aa",
        "gas": "0x369c64",
        "value": "0x0",
        "data": "0xab745c4a0000000000000000000000003e122a3db43d225dd5bffd929ad4176ce69117e0000000000000000000000000c5e0b6e472dde70eceffa4c568bd52f2a7a1632a0000000000000000000000000000000000000000000000000000000000000100000000000000000000000000000000000000000000000000000000000000020000000000000000000000000000000000000000000000000000000000000003000000000000000000000000000000000000000000000000000000000000000400000000000000000000000000000000000000000000000000000000000000050000000000000000000000000000000000000000000000000000000000000005c00000000000000000000000000000000000000000000000000000000000000007000000000000000000000000ff34b3d4aee8ddcd6f9afffb6fe49bd371b8a357000000000000000000000000ff34b3d4aee8ddcd6f9afffb6fe49bd371b8a357000000000000000000000000f8fb3713d459d7c1018bd0a49d19b4c44290ebe5000000000000000000000000aa8e23fb1079ea71e0a56f48a2aa51851d8433d0000000000000000000000000aa8e23fb1079ea71e0a56f48a2aa51851d8433d00000000000000000000000006d906e526a4e2ca02097ba9d0caa3c382f52278e0000000000000000000000006d906e526a4e2ca02097ba9d0caa3c382f52278e000000000000000000000000000000000000000000000000000000000000000700000000000000000000000000000000000000000000060ed22343891e6a369f00000000000000000000000000000000000000000000000115b87d9be6d381d800000000000000000000000000000000000000000000000000003fce2e75237b000000000000000000000000000000000000000000000000000000047dfda54b000000000000000000000000000000000000000000000000000000000098adbb00000000000000000000000000000000000000000000000000000000000000c900000000000000000000000000000000000000000000000000000000000002bd000000000000000000000000000000000000000000000000000000000000000700000000000000000000000000000000000000000000000000000000000000020000000000000000000000000000000000000000000000000000000000000001000000000000000000000000000000000000000000000000000000000000000200000000000000000000000000000000000000000000000000000000000000020000000000000000000000000000000000000000000000000000000000000001000000000000000000000000000000000000000000000000000000000000000200000000000000000000000000000000000000000000000000000000000000010000000000000000000000000000000000000000000000000000000000000007000000000000000000000000000000000000000000000000000000000000000000000000000000000000000000000000000000000000000000000000000000000000000000000000000000000000000000000000000000000000000000000000000000000000000000000000000000000000000000000000000000000000000000000000000000000000000000000000000000000000000000000000000000000000000000000000000000000000000000000000000000000000000000000000000000000000000000000000000000000000000000000000000000000000000000000000000000000000000000000000000000000000000000000000000000050000000000000000000000003ffaf50d4f4e96eb78f2407c090b72e86ecaed2400000000000000000000000016da4541ad1807f4443d92d26044c1147406eb800000000000000000000000001804bf30507dc2eb3bdebbbdd859991eaef6eeff000000000000000000000000af0f6e8b0dc5c913bbf4d14c22b4e78dd14310b60000000000000000000000006b8558764d3b7572136f17174cb9ab1ddc7e12590000000000000000000000000000000000000000000000000000000000000005000000000000000000000000000000000000000000000038a229490d48b2593c000000000000000000000000000000000000000000000000000000003ca61aa60000000000000000000000000000000000000000000000000000000005f5e10100000000000000000000000000000000000000000000000000000000001ec2a90000000000000000000000000000000000000000000000056bc75e2d63100000",
        "nonce": "0xda",
        "accessList": []
      },
      "additionalContracts": [],
      "isFixedGasLimit": false
    }
  ],
  "receipts": [
    {
      "transactionHash": "0x2224e3bae86daa4b47e6372faa15441439322acff6fd0ed7bb2cd14057f26d8e",
      "transactionIndex": "0x1d",
      "blockHash": "0xaf275967a7bb2da77151f3449119563ee8cc6bc903287779970928c7c863d8bc",
      "blockNumber": "0x464edd",
      "from": "0xC5e0B6E472dDE70eCEfFa4c568Bd52f2A7a1632A",
      "to": "0x22675C506A8FC26447aFFfa33640f6af5d4D4cF0",
      "cumulativeGasUsed": "0x1a8d4f",
      "gasUsed": "0xd1d8",
      "contractAddress": null,
      "logs": [
        {
          "address": "0x22675C506A8FC26447aFFfa33640f6af5d4D4cF0",
          "topics": [
            "0xda919360433220e13b51e8c211e490d148e61a3bd53de8c097194e458b97f3e1",
            "0x000000000000000000000000c5e0b6e472dde70eceffa4c568bd52f2a7a1632a",
            "0x0000000000000000000000006a763430e347d1e152823d646c700442a4db84aa",
            "0x000000000000000000000000ff34b3d4aee8ddcd6f9afffb6fe49bd371b8a357"
          ],
          "data": "0x00000000000000000000000000000000000000000000062dd6572b494d1a6ae9",
          "blockHash": "0xaf275967a7bb2da77151f3449119563ee8cc6bc903287779970928c7c863d8bc",
          "blockNumber": "0x464edd",
          "transactionHash": "0x2224e3bae86daa4b47e6372faa15441439322acff6fd0ed7bb2cd14057f26d8e",
          "transactionIndex": "0x1d",
          "logIndex": "0x9",
          "removed": false
        }
      ],
      "status": "0x1",
      "logsBloom": "0x00000000000000000000000000002000000000000000800000000000000000800000000000000000000000000000000000000000000000000000000000000000000000000000000040000000000000000000000000000000000000000000100000000000000000000010000000000000000000000000000000000001000000000000000080000000000000000000000000000000000000000000000000002000000000000000004000000000800000000000000040000000000000000002000000000000000010000000000000000000000000000000000000000000000000000000000000000000000000000000000100000000000000000000000000000000",
      "type": "0x2",
      "effectiveGasPrice": "0xca1c9100c"
    },
    {
      "transactionHash": "0x8a548e005355ed6ea13dd9cb4298f25bbe3a76d871f69db9728d4eddb61f21fd",
      "transactionIndex": "0x6",
      "blockHash": "0xfa1143278b70050724511c7a8e77de1309edd0bd8eb644d8687fd26d6c973c19",
      "blockNumber": "0x464ede",
      "from": "0xC5e0B6E472dDE70eCEfFa4c568Bd52f2A7a1632A",
      "to": "0xbEF786E742edB13361ff2f005b901A82c23AA491",
      "cumulativeGasUsed": "0x15f112",
      "gasUsed": "0xd1b6",
      "contractAddress": null,
      "logs": [
        {
          "address": "0xbEF786E742edB13361ff2f005b901A82c23AA491",
          "topics": [
            "0xda919360433220e13b51e8c211e490d148e61a3bd53de8c097194e458b97f3e1",
            "0x000000000000000000000000c5e0b6e472dde70eceffa4c568bd52f2a7a1632a",
            "0x0000000000000000000000006a763430e347d1e152823d646c700442a4db84aa",
            "0x000000000000000000000000ff34b3d4aee8ddcd6f9afffb6fe49bd371b8a357"
          ],
          "data": "0x0000000000000000000000000000000000000000000000011b466ba423c341e1",
          "blockHash": "0xfa1143278b70050724511c7a8e77de1309edd0bd8eb644d8687fd26d6c973c19",
          "blockNumber": "0x464ede",
          "transactionHash": "0x8a548e005355ed6ea13dd9cb4298f25bbe3a76d871f69db9728d4eddb61f21fd",
          "transactionIndex": "0x6",
          "logIndex": "0x0",
          "removed": false
        }
      ],
      "status": "0x1",
      "logsBloom": "0x00000000000000000000000000002000000000000000800000000000000000800000000000000000000040000000000000000000000000000000000000000000000000000000000040000000000000000000000000000000000000000000100000000000000000000000000000000000000000000000000000000001000000000000000080000000000000000000000000000000000000000000000000000000000000000000000000000004800000000000000040000000000000000002000000000000000010000000000000000000000000000000000000000000000000000000000000800000000000000000000100000000000000000000000000000000",
      "type": "0x2",
      "effectiveGasPrice": "0xc1326ae7e"
    },
    {
      "transactionHash": "0xa1d47cb6eecb62ca15f075ea29d07e21adf55db1aea78367b448e7688bce6d3e",
      "transactionIndex": "0x7",
      "blockHash": "0xf694d64255b9deb59d95e0094c319066b082b3d306541874ce611f6a50149bdc",
      "blockNumber": "0x464edf",
      "from": "0xC5e0B6E472dDE70eCEfFa4c568Bd52f2A7a1632A",
      "to": "0x34a4d932E722b9dFb492B9D8131127690CE2430B",
      "cumulativeGasUsed": "0x6a7de",
      "gasUsed": "0xd1a8",
      "contractAddress": null,
      "logs": [
        {
          "address": "0x34a4d932E722b9dFb492B9D8131127690CE2430B",
          "topics": [
            "0xda919360433220e13b51e8c211e490d148e61a3bd53de8c097194e458b97f3e1",
            "0x000000000000000000000000c5e0b6e472dde70eceffa4c568bd52f2a7a1632a",
            "0x0000000000000000000000006a763430e347d1e152823d646c700442a4db84aa",
            "0x000000000000000000000000f8fb3713d459d7c1018bd0a49d19b4c44290ebe5"
          ],
          "data": "0x00000000000000000000000000000000000000000000000000004114dd777b3a",
          "blockHash": "0xf694d64255b9deb59d95e0094c319066b082b3d306541874ce611f6a50149bdc",
          "blockNumber": "0x464edf",
          "transactionHash": "0xa1d47cb6eecb62ca15f075ea29d07e21adf55db1aea78367b448e7688bce6d3e",
          "transactionIndex": "0x7",
          "logIndex": "0x2",
          "removed": false
        }
      ],
      "status": "0x1",
      "logsBloom": "0x00020000000000000000000000002000000000000000000000000000000000800000000040000000000000000000000000000000000000000000000000000000000000000001000040000000000000000000000000000000000000000000100000000000000020000000000000000000000000000000000000000001000000000000000080000000000000000000000000000000000000000000000000000000000000000000020000000000800000000000000040000000000000000000000000000000000000000000000000000000004000000000000000000000000000000000000000000000000000000000000100000000000000000000000000000000",
      "type": "0x2",
      "effectiveGasPrice": "0xb611b2dd9"
    },
    {
      "transactionHash": "0x0e0f0b6749e22fae7f34a4b4feb814086b976b34d38352595984111efdae2e3c",
      "transactionIndex": "0x5",
      "blockHash": "0xe4a7ef7ff5bf01e7fef35bfdece275b5de32b4d4770dc187e447122267d05aef",
      "blockNumber": "0x464ee0",
      "from": "0xC5e0B6E472dDE70eCEfFa4c568Bd52f2A7a1632A",
      "to": "0x9844386d29EEd970B9F6a2B9a676083b0478210e",
      "cumulativeGasUsed": "0x568ea",
      "gasUsed": "0xd19c",
      "contractAddress": null,
      "logs": [
        {
          "address": "0x9844386d29EEd970B9F6a2B9a676083b0478210e",
          "topics": [
            "0xda919360433220e13b51e8c211e490d148e61a3bd53de8c097194e458b97f3e1",
            "0x000000000000000000000000c5e0b6e472dde70eceffa4c568bd52f2a7a1632a",
            "0x0000000000000000000000006a763430e347d1e152823d646c700442a4db84aa",
            "0x000000000000000000000000aa8e23fb1079ea71e0a56f48a2aa51851d8433d0"
          ],
          "data": "0x0000000000000000000000000000000000000000000000000000000494fd993d",
          "blockHash": "0xe4a7ef7ff5bf01e7fef35bfdece275b5de32b4d4770dc187e447122267d05aef",
          "blockNumber": "0x464ee0",
          "transactionHash": "0x0e0f0b6749e22fae7f34a4b4feb814086b976b34d38352595984111efdae2e3c",
          "transactionIndex": "0x5",
          "logIndex": "0x0",
          "removed": false
        }
      ],
      "status": "0x1",
      "logsBloom": "0x00000000000000000000000000002000000000000000000000000000000000800000000000000000000000000000000000000000000000000000000000000000000000000000000040000000000000000000000000000000000000000000100000000000000000000000000080000000000000000000000000000001000000000000000080000000000000000000000000000000000000000000000000000000000000000000000000000000800000000000000040000000020004000000000000000000000000000000000000000000000200100000000000000000000000000000000000000000000000000000000100010000000000000000000000000000",
      "type": "0x2",
      "effectiveGasPrice": "0xab9207e7e"
    },
    {
      "transactionHash": "0x0ab19dadc31d036b66c0a13f0b7b6474f2318b021cb3d080bd73768677a07aea",
      "transactionIndex": "0xc",
      "blockHash": "0x43e754a5cd0f9bf39c024476c738d672b2dcd8c6f51c2ab3e8b6bb7c7fdfc72c",
      "blockNumber": "0x464ee1",
      "from": "0xC5e0B6E472dDE70eCEfFa4c568Bd52f2A7a1632A",
      "to": "0xEAF54fA3b1C7243033C2893c6B807f9cEaBCf0AF",
      "cumulativeGasUsed": "0x2a8923",
      "gasUsed": "0xd16e",
      "contractAddress": null,
      "logs": [
        {
          "address": "0xEAF54fA3b1C7243033C2893c6B807f9cEaBCf0AF",
          "topics": [
            "0xda919360433220e13b51e8c211e490d148e61a3bd53de8c097194e458b97f3e1",
            "0x000000000000000000000000c5e0b6e472dde70eceffa4c568bd52f2a7a1632a",
            "0x0000000000000000000000006a763430e347d1e152823d646c700442a4db84aa",
            "0x000000000000000000000000aa8e23fb1079ea71e0a56f48a2aa51851d8433d0"
          ],
          "data": "0x00000000000000000000000000000000000000000000000000000000009bbb71",
          "blockHash": "0x43e754a5cd0f9bf39c024476c738d672b2dcd8c6f51c2ab3e8b6bb7c7fdfc72c",
          "blockNumber": "0x464ee1",
          "transactionHash": "0x0ab19dadc31d036b66c0a13f0b7b6474f2318b021cb3d080bd73768677a07aea",
          "transactionIndex": "0xc",
          "logIndex": "0x17",
          "removed": false
        }
      ],
      "status": "0x1",
      "logsBloom": "0x00000000000000000000000000002000000000000040000000000000000000800000000000000000000000000000000000000000000000000000000000000000000000000000000040000000000000000000000000000000000000000000100000000000000000000000000080000000000000000000000000000001000000000000000080000000000000000000000000000000000000000000000000000000000000000000000000000000800000000000000040000000000004000000000000000000000000000000000040000100000000000000000000000000000000000000000000000000000000000000000100010000000000000000000000000000",
      "type": "0x2",
      "effectiveGasPrice": "0xa6f22c59e"
    },
    {
      "transactionHash": "0x97ecd571b273146ef0cb74b374c355f36bb2aa978eb2f4cacfe4f0e8b6cd0a35",
      "transactionIndex": "0x7",
      "blockHash": "0x779e99b511b9d7eacf61cd708dc4c5c0d9ffe6ab24dee7bd44244d4868503c12",
      "blockNumber": "0x464ee2",
      "from": "0xC5e0B6E472dDE70eCEfFa4c568Bd52f2A7a1632A",
      "to": "0x94482C7A7477196259D8a0f74fB853277Fa5a75b",
      "cumulativeGasUsed": "0x6a7a2",
      "gasUsed": "0xd16c",
      "contractAddress": null,
      "logs": [
        {
          "address": "0x94482C7A7477196259D8a0f74fB853277Fa5a75b",
          "topics": [
            "0xda919360433220e13b51e8c211e490d148e61a3bd53de8c097194e458b97f3e1",
            "0x000000000000000000000000c5e0b6e472dde70eceffa4c568bd52f2a7a1632a",
            "0x0000000000000000000000006a763430e347d1e152823d646c700442a4db84aa",
            "0x0000000000000000000000006d906e526a4e2ca02097ba9d0caa3c382f52278e"
          ],
          "data": "0x00000000000000000000000000000000000000000000000000000000000000cd",
          "blockHash": "0x779e99b511b9d7eacf61cd708dc4c5c0d9ffe6ab24dee7bd44244d4868503c12",
          "blockNumber": "0x464ee2",
          "transactionHash": "0x97ecd571b273146ef0cb74b374c355f36bb2aa978eb2f4cacfe4f0e8b6cd0a35",
          "transactionIndex": "0x7",
          "logIndex": "0x2",
          "removed": false
        }
      ],
      "status": "0x1",
      "logsBloom": "0x00000000000000000400000000002000000000000000000000000000000000810000000000000000000000000000000000000000000000000000000000000000000000000000000040000000000000000000000000000000000000000000100000000000000000000000000000200000000000000040000000000001000000000000000080000000000000000000000000000000000000000000000000000000000000000080000000000000800000000000000040000000000000000000000000000040000000000000000000000000000000000000000000000000000000000000000000000000000000000000000100000000000000000000000000000000",
      "type": "0x2",
      "effectiveGasPrice": "0xa6d0a21c1"
    },
    {
      "transactionHash": "0x41d80e6cb96d2e5f7acce29287087230a75ddb0a226612986662172e6d03be2e",
      "transactionIndex": "0x8",
      "blockHash": "0xc3af286e2012b25eddfb940155dfb18e85ce2c87168f6da613ec248c80f4cd6a",
      "blockNumber": "0x464ee3",
      "from": "0xC5e0B6E472dDE70eCEfFa4c568Bd52f2A7a1632A",
      "to": "0x08878209484D8178DD1FFA50AB1689F21aDBB856",
      "cumulativeGasUsed": "0x108532",
      "gasUsed": "0xd162",
      "contractAddress": null,
      "logs": [
        {
          "address": "0x08878209484D8178DD1FFA50AB1689F21aDBB856",
          "topics": [
            "0xda919360433220e13b51e8c211e490d148e61a3bd53de8c097194e458b97f3e1",
            "0x000000000000000000000000c5e0b6e472dde70eceffa4c568bd52f2a7a1632a",
            "0x0000000000000000000000006a763430e347d1e152823d646c700442a4db84aa",
            "0x0000000000000000000000006d906e526a4e2ca02097ba9d0caa3c382f52278e"
          ],
          "data": "0x00000000000000000000000000000000000000000000000000000000000002cb",
          "blockHash": "0xc3af286e2012b25eddfb940155dfb18e85ce2c87168f6da613ec248c80f4cd6a",
          "blockNumber": "0x464ee3",
          "transactionHash": "0x41d80e6cb96d2e5f7acce29287087230a75ddb0a226612986662172e6d03be2e",
          "transactionIndex": "0x8",
          "logIndex": "0x2",
          "removed": false
        }
      ],
      "status": "0x1",
      "logsBloom": "0x00000000000000000000000000002000000000000000000000000000000000800000000000000000000000000000000000000000000000000000000000000000000000000000000040000000000000000000000000000000000000000000100000000000000000000000000000000000000000000040000000000001000000000000000080000000001000000000000000000000000000000000000000000000000000000080400000000000800000000000000040000000000000000000000000000040000000000000000000000000000000000000000000000000000000000000000000000000000000000000000100000000000000000000000000000000",
      "type": "0x2",
      "effectiveGasPrice": "0xa1651e215"
    },
    {
      "transactionHash": "0x92f83f8437c329dccd97f2de9713b663b9e10dea2a480581e12a7f02f06dfa59",
      "transactionIndex": "0x6",
      "blockHash": "0x171c05a55fee5866641da156d300f7ba05496c9843683185a819bca41012e0c0",
      "blockNumber": "0x464ee4",
      "from": "0x3e122A3dB43d225DD5BFFD929AD4176ce69117E0",
      "to": "0x3FfAf50D4F4E96eB78f2407c090b72e86eCaed24",
      "cumulativeGasUsed": "0x1da65f",
      "gasUsed": "0xc838",
      "contractAddress": null,
      "logs": [
        {
          "address": "0x3FfAf50D4F4E96eB78f2407c090b72e86eCaed24",
          "topics": [
            "0x8c5be1e5ebec7d5bd14f71427d1e84f3dd0314c0f7b2291e5b200ac8c7c3b925",
            "0x0000000000000000000000003e122a3db43d225dd5bffd929ad4176ce69117e0",
            "0x0000000000000000000000006a763430e347d1e152823d646c700442a4db84aa"
          ],
          "data": "0x000000000000000000000000000000000000000000000038a229490d48b2593c",
          "blockHash": "0x171c05a55fee5866641da156d300f7ba05496c9843683185a819bca41012e0c0",
          "blockNumber": "0x464ee4",
          "transactionHash": "0x92f83f8437c329dccd97f2de9713b663b9e10dea2a480581e12a7f02f06dfa59",
          "transactionIndex": "0x6",
          "logIndex": "0x1",
          "removed": false
        }
      ],
      "status": "0x1",
      "logsBloom": "0x00000000080000000000000000000000000000000000000000000000000000800000000000000000000000000000000000000000000000000000000000200000000000000000000040000000000000000000000000000000000000000000000000000000000000000000001000000000000000000000000000000000000000000000008080040000000000000000000000000000000000000000000000000000020000000000000000000080000000000000000000000000000000000000000000000000000000000000000000000000000000000000000000000000000000000010000000000000000000000000000000000000000000000000000001000000",
      "type": "0x2",
      "effectiveGasPrice": "0x9e1deae69"
    },
    {
      "transactionHash": "0xfc63a0d81fbc1a597d36e9c6f9c3f1efe0ada755077003141bb7902cdafcbeba",
      "transactionIndex": "0x1a",
      "blockHash": "0x9b652e1f9c59602ec0640cae42ff1b5ed23d2132972ab322254e97651a6cacf3",
      "blockNumber": "0x464ee5",
      "from": "0x3e122A3dB43d225DD5BFFD929AD4176ce69117E0",
      "to": "0x16dA4541aD1807f4443d92D26044C1147406EB80",
      "cumulativeGasUsed": "0x7102ea",
      "gasUsed": "0xc7fc",
      "contractAddress": null,
      "logs": [
        {
          "address": "0x16dA4541aD1807f4443d92D26044C1147406EB80",
          "topics": [
            "0x8c5be1e5ebec7d5bd14f71427d1e84f3dd0314c0f7b2291e5b200ac8c7c3b925",
            "0x0000000000000000000000003e122a3db43d225dd5bffd929ad4176ce69117e0",
            "0x0000000000000000000000006a763430e347d1e152823d646c700442a4db84aa"
          ],
          "data": "0x000000000000000000000000000000000000000000000000000000003ca61aa6",
          "blockHash": "0x9b652e1f9c59602ec0640cae42ff1b5ed23d2132972ab322254e97651a6cacf3",
          "blockNumber": "0x464ee5",
          "transactionHash": "0xfc63a0d81fbc1a597d36e9c6f9c3f1efe0ada755077003141bb7902cdafcbeba",
          "transactionIndex": "0x1a",
          "logIndex": "0x38",
          "removed": false
        }
      ],
      "status": "0x1",
      "logsBloom": "0x00000000080000000200000000000000000000000000000000000000000000800000008000000000000000000000000000000000000000000000000000200000000000000000000040000000000000000000000000000000000000000000000000000000000000000000000000000000000000000000000000000000000000000000000080040000000000000000000000000000000000000000000000000000020000000000000000000080000000000000000000000000000000000000000000008000000000000000000000000000000000000000000000000000000000000010000000000000000000000000000000000000000000000000000000000000",
      "type": "0x2",
      "effectiveGasPrice": "0x99ec22af4"
    },
    {
      "transactionHash": "0x32a95ea382ac1bac6b99f05b30eead9546c814c11a77ad60a5f8f3fcf0158e66",
      "transactionIndex": "0x7",
      "blockHash": "0x15fcc64eab753d64520f317b5810b085cff8dbe37b60a636c3cc6b84b48918e6",
      "blockNumber": "0x464ee6",
      "from": "0x3e122A3dB43d225DD5BFFD929AD4176ce69117E0",
      "to": "0x1804Bf30507dc2EB3bDEbbbdd859991EAeF6EefF",
      "cumulativeGasUsed": "0x60366",
      "gasUsed": "0xc7fc",
      "contractAddress": null,
      "logs": [
        {
          "address": "0x1804Bf30507dc2EB3bDEbbbdd859991EAeF6EefF",
          "topics": [
            "0x8c5be1e5ebec7d5bd14f71427d1e84f3dd0314c0f7b2291e5b200ac8c7c3b925",
            "0x0000000000000000000000003e122a3db43d225dd5bffd929ad4176ce69117e0",
            "0x0000000000000000000000006a763430e347d1e152823d646c700442a4db84aa"
          ],
          "data": "0x0000000000000000000000000000000000000000000000000000000005f5e101",
          "blockHash": "0x15fcc64eab753d64520f317b5810b085cff8dbe37b60a636c3cc6b84b48918e6",
          "blockNumber": "0x464ee6",
          "transactionHash": "0x32a95ea382ac1bac6b99f05b30eead9546c814c11a77ad60a5f8f3fcf0158e66",
          "transactionIndex": "0x7",
          "logIndex": "0x0",
          "removed": false
        }
      ],
      "status": "0x1",
      "logsBloom": "0x00000000080000000000000000000000000000000000000000000000000000800000000000000000000000000000000000000000000000000000000000200000000000000000000040000000000000000000000000000000000000000000000000000000000000000000000000000000000000000000000000000000000000000000000080040000000000000000000000000000000000000000000000000000020000000000000000000080000000000000000000004000000002000000000000000000000000000000000000000000000000000000000000000000000000000010000008000000000000000000000000000000000000000000000000000000",
      "type": "0x2",
      "effectiveGasPrice": "0x95dbed611"
    },
    {
      "transactionHash": "0x8a25b4608e3978605a78044409cc441dd736c5ff67c68dc2ceac92d99bcd3a2f",
      "transactionIndex": "0x35",
      "blockHash": "0xce1d6cae752e3cffc4f1c547e1c10453b881b69dbc1e39bb4cd17cd76eb97956",
      "blockNumber": "0x464ee9",
      "from": "0x3e122A3dB43d225DD5BFFD929AD4176ce69117E0",
      "to": "0xAF0F6e8b0Dc5c913bbF4d14c22B4E78Dd14310B6",
      "cumulativeGasUsed": "0x30fa7d",
      "gasUsed": "0xc7f0",
      "contractAddress": null,
      "logs": [
        {
          "address": "0xAF0F6e8b0Dc5c913bbF4d14c22B4E78Dd14310B6",
          "topics": [
            "0x8c5be1e5ebec7d5bd14f71427d1e84f3dd0314c0f7b2291e5b200ac8c7c3b925",
            "0x0000000000000000000000003e122a3db43d225dd5bffd929ad4176ce69117e0",
            "0x0000000000000000000000006a763430e347d1e152823d646c700442a4db84aa"
          ],
          "data": "0x00000000000000000000000000000000000000000000000000000000001ec2a9",
          "blockHash": "0xce1d6cae752e3cffc4f1c547e1c10453b881b69dbc1e39bb4cd17cd76eb97956",
          "blockNumber": "0x464ee9",
          "transactionHash": "0x8a25b4608e3978605a78044409cc441dd736c5ff67c68dc2ceac92d99bcd3a2f",
          "transactionIndex": "0x35",
          "logIndex": "0x8",
          "removed": false
        }
      ],
      "status": "0x1",
      "logsBloom": "0x00000000080000000000000000000000000000000000000000000000000000800000000000000000000000000000000000000000000000000000000000200000000000000000000040000000000000000000000000000000000000000000000000000000000000000000000000000000000000000000000000000000000000000000000080040000000000000000000000000000000000000000000000000000020000000000000000000080000000000000008000000000000000000000000000000000000000000000000000080000000000000000000000000001000000000010000000000000000000000000000000000000000000000000000000000000",
      "type": "0x2",
      "effectiveGasPrice": "0x6cdb36983"
    },
    {
      "transactionHash": "0x6687ddb48478ed6e11ad39490416dafa16bdb619c51bef4b89f5742435fdfc77",
      "transactionIndex": "0x8",
      "blockHash": "0x90b64ebd94f8dcca900a24d209a606d0eb17916da437929a2b09c352494a8ad4",
      "blockNumber": "0x464eea",
      "from": "0x3e122A3dB43d225DD5BFFD929AD4176ce69117E0",
      "to": "0x6b8558764d3b7572136F17174Cb9aB1DDc7E1259",
      "cumulativeGasUsed": "0x78069",
      "gasUsed": "0xc820",
      "contractAddress": null,
      "logs": [
        {
          "address": "0x6b8558764d3b7572136F17174Cb9aB1DDc7E1259",
          "topics": [
            "0x8c5be1e5ebec7d5bd14f71427d1e84f3dd0314c0f7b2291e5b200ac8c7c3b925",
            "0x0000000000000000000000003e122a3db43d225dd5bffd929ad4176ce69117e0",
            "0x0000000000000000000000006a763430e347d1e152823d646c700442a4db84aa"
          ],
          "data": "0x0000000000000000000000000000000000000000000000056bc75e2d63100000",
          "blockHash": "0x90b64ebd94f8dcca900a24d209a606d0eb17916da437929a2b09c352494a8ad4",
          "blockNumber": "0x464eea",
          "transactionHash": "0x6687ddb48478ed6e11ad39490416dafa16bdb619c51bef4b89f5742435fdfc77",
          "transactionIndex": "0x8",
          "logIndex": "0x3",
          "removed": false
        }
      ],
      "status": "0x1",
      "logsBloom": "0x00000000080000000000000000000800000000000000000000000000000000800000000000000000000000000000000000000000000000000000000000200000000000000000000040002000000000000000000000000000000000000000000000000000000000000000000000000000000000000000000000000000000000000000000080040000000000000000000000000000000000000000000000000000020000000000000000000080000000000000000000000000000000000000000000000000000000000000000000000000000000000000000000000000000000000010000400000000000000000000000000000000000000000000000000000000",
      "type": "0x2",
      "effectiveGasPrice": "0x790948ff0"
    },
    {
      "transactionHash": "0x16760e03345df3644d03c76e32f0bb0e7c05375aee3c0f79fa326a94765218c0",
      "transactionIndex": "0x9",
      "blockHash": "0xf38e202f4c788bb16a81f92d31c8d4314f1eb77708b2d46b39ec507b76a0d8c5",
      "blockNumber": "0x464eeb",
      "from": "0x3e122A3dB43d225DD5BFFD929AD4176ce69117E0",
      "to": "0x6A763430e347d1E152823d646c700442A4db84aA",
      "cumulativeGasUsed": "0x3417a4",
      "gasUsed": "0x27898e",
      "contractAddress": null,
      "logs": [
        {
          "address": "0xFF34B3d4Aee8ddCd6F9AFFFB6Fe49bD371b8a357",
          "topics": [
            "0xddf252ad1be2c89b69c2b068fc378daa952ba7f163c4a11628f55a4df523b3ef",
            "0x00000000000000000000000029598b72eb5cebd806c5dcd549490fda35b13cd8",
            "0x0000000000000000000000006a763430e347d1e152823d646c700442a4db84aa"
          ],
          "data": "0x00000000000000000000000000000000000000000000060ed22343891e6a369f",
          "blockHash": "0xf38e202f4c788bb16a81f92d31c8d4314f1eb77708b2d46b39ec507b76a0d8c5",
          "blockNumber": "0x464eeb",
          "transactionHash": "0x16760e03345df3644d03c76e32f0bb0e7c05375aee3c0f79fa326a94765218c0",
          "transactionIndex": "0x9",
          "logIndex": "0x1",
          "removed": false
        },
        {
          "address": "0xFF34B3d4Aee8ddCd6F9AFFFB6Fe49bD371b8a357",
          "topics": [
            "0xddf252ad1be2c89b69c2b068fc378daa952ba7f163c4a11628f55a4df523b3ef",
            "0x00000000000000000000000029598b72eb5cebd806c5dcd549490fda35b13cd8",
            "0x0000000000000000000000006a763430e347d1e152823d646c700442a4db84aa"
          ],
          "data": "0x00000000000000000000000000000000000000000000000115b87d9be6d381d8",
          "blockHash": "0xf38e202f4c788bb16a81f92d31c8d4314f1eb77708b2d46b39ec507b76a0d8c5",
          "blockNumber": "0x464eeb",
          "transactionHash": "0x16760e03345df3644d03c76e32f0bb0e7c05375aee3c0f79fa326a94765218c0",
          "transactionIndex": "0x9",
          "logIndex": "0x2",
          "removed": false
        },
        {
          "address": "0xf8Fb3713D459D7C1018BD0A49D19b4C44290EBE5",
          "topics": [
            "0xddf252ad1be2c89b69c2b068fc378daa952ba7f163c4a11628f55a4df523b3ef",
            "0x0000000000000000000000003ffaf50d4f4e96eb78f2407c090b72e86ecaed24",
            "0x0000000000000000000000006a763430e347d1e152823d646c700442a4db84aa"
          ],
          "data": "0x00000000000000000000000000000000000000000000000000003fce2e75237b",
          "blockHash": "0xf38e202f4c788bb16a81f92d31c8d4314f1eb77708b2d46b39ec507b76a0d8c5",
          "blockNumber": "0x464eeb",
          "transactionHash": "0x16760e03345df3644d03c76e32f0bb0e7c05375aee3c0f79fa326a94765218c0",
          "transactionIndex": "0x9",
          "logIndex": "0x3",
          "removed": false
        },
        {
          "address": "0xaA8E23Fb1079EA71e0a56F48a2aA51851D8433D0",
          "topics": [
            "0xddf252ad1be2c89b69c2b068fc378daa952ba7f163c4a11628f55a4df523b3ef",
            "0x000000000000000000000000af0f6e8b0dc5c913bbf4d14c22b4e78dd14310b6",
            "0x0000000000000000000000006a763430e347d1e152823d646c700442a4db84aa"
          ],
          "data": "0x000000000000000000000000000000000000000000000000000000047dfda54b",
          "blockHash": "0xf38e202f4c788bb16a81f92d31c8d4314f1eb77708b2d46b39ec507b76a0d8c5",
          "blockNumber": "0x464eeb",
          "transactionHash": "0x16760e03345df3644d03c76e32f0bb0e7c05375aee3c0f79fa326a94765218c0",
          "transactionIndex": "0x9",
          "logIndex": "0x4",
          "removed": false
        },
        {
          "address": "0xaA8E23Fb1079EA71e0a56F48a2aA51851D8433D0",
          "topics": [
            "0xddf252ad1be2c89b69c2b068fc378daa952ba7f163c4a11628f55a4df523b3ef",
            "0x000000000000000000000000af0f6e8b0dc5c913bbf4d14c22b4e78dd14310b6",
            "0x0000000000000000000000006a763430e347d1e152823d646c700442a4db84aa"
          ],
          "data": "0x000000000000000000000000000000000000000000000000000000000098adbb",
          "blockHash": "0xf38e202f4c788bb16a81f92d31c8d4314f1eb77708b2d46b39ec507b76a0d8c5",
          "blockNumber": "0x464eeb",
          "transactionHash": "0x16760e03345df3644d03c76e32f0bb0e7c05375aee3c0f79fa326a94765218c0",
          "transactionIndex": "0x9",
          "logIndex": "0x5",
          "removed": false
        },
        {
          "address": "0x6d906e526a4e2Ca02097BA9d0caA3c382F52278E",
          "topics": [
            "0xddf252ad1be2c89b69c2b068fc378daa952ba7f163c4a11628f55a4df523b3ef",
            "0x000000000000000000000000b20691021f9aced8631edaa3c0cd2949eb45662d",
            "0x0000000000000000000000006a763430e347d1e152823d646c700442a4db84aa"
          ],
          "data": "0x00000000000000000000000000000000000000000000000000000000000000c9",
          "blockHash": "0xf38e202f4c788bb16a81f92d31c8d4314f1eb77708b2d46b39ec507b76a0d8c5",
          "blockNumber": "0x464eeb",
          "transactionHash": "0x16760e03345df3644d03c76e32f0bb0e7c05375aee3c0f79fa326a94765218c0",
          "transactionIndex": "0x9",
          "logIndex": "0x6",
          "removed": false
        },
        {
          "address": "0x6d906e526a4e2Ca02097BA9d0caA3c382F52278E",
          "topics": [
            "0xddf252ad1be2c89b69c2b068fc378daa952ba7f163c4a11628f55a4df523b3ef",
            "0x000000000000000000000000b20691021f9aced8631edaa3c0cd2949eb45662d",
            "0x0000000000000000000000006a763430e347d1e152823d646c700442a4db84aa"
          ],
          "data": "0x00000000000000000000000000000000000000000000000000000000000002bd",
          "blockHash": "0xf38e202f4c788bb16a81f92d31c8d4314f1eb77708b2d46b39ec507b76a0d8c5",
          "blockNumber": "0x464eeb",
          "transactionHash": "0x16760e03345df3644d03c76e32f0bb0e7c05375aee3c0f79fa326a94765218c0",
          "transactionIndex": "0x9",
          "logIndex": "0x7",
          "removed": false
        },
        {
          "address": "0xFF34B3d4Aee8ddCd6F9AFFFB6Fe49bD371b8a357",
          "topics": [
            "0x8c5be1e5ebec7d5bd14f71427d1e84f3dd0314c0f7b2291e5b200ac8c7c3b925",
            "0x0000000000000000000000006a763430e347d1e152823d646c700442a4db84aa",
            "0x0000000000000000000000006ae43d3271ff6888e7fc43fd7321a503ff738951"
          ],
          "data": "0x00000000000000000000000000000000000000000000060ed22343891e6a369f",
          "blockHash": "0xf38e202f4c788bb16a81f92d31c8d4314f1eb77708b2d46b39ec507b76a0d8c5",
          "blockNumber": "0x464eeb",
          "transactionHash": "0x16760e03345df3644d03c76e32f0bb0e7c05375aee3c0f79fa326a94765218c0",
          "transactionIndex": "0x9",
          "logIndex": "0x8",
          "removed": false
        },
        {
          "address": "0x22675C506A8FC26447aFFfa33640f6af5d4D4cF0",
          "topics": [
            "0xddf252ad1be2c89b69c2b068fc378daa952ba7f163c4a11628f55a4df523b3ef",
            "0x0000000000000000000000003e122a3db43d225dd5bffd929ad4176ce69117e0",
            "0x0000000000000000000000000000000000000000000000000000000000000000"
          ],
          "data": "0x00000000000000000000000000000000000000000000060ed1de747adeb5055b",
          "blockHash": "0xf38e202f4c788bb16a81f92d31c8d4314f1eb77708b2d46b39ec507b76a0d8c5",
          "blockNumber": "0x464eeb",
          "transactionHash": "0x16760e03345df3644d03c76e32f0bb0e7c05375aee3c0f79fa326a94765218c0",
          "transactionIndex": "0x9",
          "logIndex": "0x9",
          "removed": false
        },
        {
          "address": "0x22675C506A8FC26447aFFfa33640f6af5d4D4cF0",
          "topics": [
            "0x4cf25bc1d991c17529c25213d3cc0cda295eeaad5f13f361969b12ea48015f90",
            "0x0000000000000000000000003e122a3db43d225dd5bffd929ad4176ce69117e0",
            "0x0000000000000000000000000000000000000000000000000000000000000000"
          ],
          "data": "0x00000000000000000000000000000000000000000000060ed1de747adeb5055b0000000000000000000000000000000000000000000000000044cf0e3fb5314400000000000000000000000000000000000000000346f47c8e355cf0700802ff",
          "blockHash": "0xf38e202f4c788bb16a81f92d31c8d4314f1eb77708b2d46b39ec507b76a0d8c5",
          "blockNumber": "0x464eeb",
          "transactionHash": "0x16760e03345df3644d03c76e32f0bb0e7c05375aee3c0f79fa326a94765218c0",
          "transactionIndex": "0x9",
          "logIndex": "0xa",
          "removed": false
        },
        {
          "address": "0x6Ae43d3271ff6888e7Fc43Fd7321a503ff738951",
          "topics": [
            "0x804c9b842b2748a22bb64b345453a3de7ca54a6ca45ce00d415894979e22897a",
            "0x000000000000000000000000ff34b3d4aee8ddcd6f9afffb6fe49bd371b8a357"
          ],
          "data": "0x00000000000000000000000000000000000000000001e2375ddb052865b37ec60000000000000000000000000000000000000000002a6b93723a77ca736212bf000000000000000000000000000000000000000000087d501eb38b080b1095f80000000000000000000000000000000000000000034543b79aaa21fde6f27ae600000000000000000000000000000000000000000346f47c8e355cf0700802ff",
          "blockHash": "0xf38e202f4c788bb16a81f92d31c8d4314f1eb77708b2d46b39ec507b76a0d8c5",
          "blockNumber": "0x464eeb",
          "transactionHash": "0x16760e03345df3644d03c76e32f0bb0e7c05375aee3c0f79fa326a94765218c0",
          "transactionIndex": "0x9",
          "logIndex": "0xb",
          "removed": false
        },
        {
          "address": "0xFF34B3d4Aee8ddCd6F9AFFFB6Fe49bD371b8a357",
          "topics": [
            "0xddf252ad1be2c89b69c2b068fc378daa952ba7f163c4a11628f55a4df523b3ef",
            "0x0000000000000000000000006a763430e347d1e152823d646c700442a4db84aa",
            "0x00000000000000000000000029598b72eb5cebd806c5dcd549490fda35b13cd8"
          ],
          "data": "0x00000000000000000000000000000000000000000000060ed22343891e6a369f",
          "blockHash": "0xf38e202f4c788bb16a81f92d31c8d4314f1eb77708b2d46b39ec507b76a0d8c5",
          "blockNumber": "0x464eeb",
          "transactionHash": "0x16760e03345df3644d03c76e32f0bb0e7c05375aee3c0f79fa326a94765218c0",
          "transactionIndex": "0x9",
          "logIndex": "0xc",
          "removed": false
        },
        {
          "address": "0xFF34B3d4Aee8ddCd6F9AFFFB6Fe49bD371b8a357",
          "topics": [
            "0x8c5be1e5ebec7d5bd14f71427d1e84f3dd0314c0f7b2291e5b200ac8c7c3b925",
            "0x0000000000000000000000006a763430e347d1e152823d646c700442a4db84aa",
            "0x0000000000000000000000006ae43d3271ff6888e7fc43fd7321a503ff738951"
          ],
          "data": "0x0000000000000000000000000000000000000000000000000000000000000000",
          "blockHash": "0xf38e202f4c788bb16a81f92d31c8d4314f1eb77708b2d46b39ec507b76a0d8c5",
          "blockNumber": "0x464eeb",
          "transactionHash": "0x16760e03345df3644d03c76e32f0bb0e7c05375aee3c0f79fa326a94765218c0",
          "transactionIndex": "0x9",
          "logIndex": "0xd",
          "removed": false
        },
        {
          "address": "0x6Ae43d3271ff6888e7Fc43Fd7321a503ff738951",
          "topics": [
            "0xa534c8dbe71f871f9f3530e97a74601fea17b426cae02e1c5aee42c96c784051",
            "0x000000000000000000000000ff34b3d4aee8ddcd6f9afffb6fe49bd371b8a357",
            "0x0000000000000000000000003e122a3db43d225dd5bffd929ad4176ce69117e0",
            "0x0000000000000000000000006a763430e347d1e152823d646c700442a4db84aa"
          ],
          "data": "0x00000000000000000000000000000000000000000000060ed22343891e6a369f0000000000000000000000000000000000000000000000000000000000000000",
          "blockHash": "0xf38e202f4c788bb16a81f92d31c8d4314f1eb77708b2d46b39ec507b76a0d8c5",
          "blockNumber": "0x464eeb",
          "transactionHash": "0x16760e03345df3644d03c76e32f0bb0e7c05375aee3c0f79fa326a94765218c0",
          "transactionIndex": "0x9",
          "logIndex": "0xe",
          "removed": false
        },
        {
          "address": "0xFF34B3d4Aee8ddCd6F9AFFFB6Fe49bD371b8a357",
          "topics": [
            "0x8c5be1e5ebec7d5bd14f71427d1e84f3dd0314c0f7b2291e5b200ac8c7c3b925",
            "0x0000000000000000000000006a763430e347d1e152823d646c700442a4db84aa",
            "0x0000000000000000000000006ae43d3271ff6888e7fc43fd7321a503ff738951"
          ],
          "data": "0x00000000000000000000000000000000000000000000000115b87d9be6d381d8",
          "blockHash": "0xf38e202f4c788bb16a81f92d31c8d4314f1eb77708b2d46b39ec507b76a0d8c5",
          "blockNumber": "0x464eeb",
          "transactionHash": "0x16760e03345df3644d03c76e32f0bb0e7c05375aee3c0f79fa326a94765218c0",
          "transactionIndex": "0x9",
          "logIndex": "0xf",
          "removed": false
        },
        {
          "address": "0xbEF786E742edB13361ff2f005b901A82c23AA491",
          "topics": [
            "0xddf252ad1be2c89b69c2b068fc378daa952ba7f163c4a11628f55a4df523b3ef",
            "0x0000000000000000000000003e122a3db43d225dd5bffd929ad4176ce69117e0",
            "0x0000000000000000000000000000000000000000000000000000000000000000"
          ],
          "data": "0x00000000000000000000000000000000000000000000000115b841314c8b1bb0",
          "blockHash": "0xf38e202f4c788bb16a81f92d31c8d4314f1eb77708b2d46b39ec507b76a0d8c5",
          "blockNumber": "0x464eeb",
          "transactionHash": "0x16760e03345df3644d03c76e32f0bb0e7c05375aee3c0f79fa326a94765218c0",
          "transactionIndex": "0x9",
          "logIndex": "0x10",
          "removed": false
        },
        {
          "address": "0xbEF786E742edB13361ff2f005b901A82c23AA491",
          "topics": [
            "0x44bd20a79e993bdcc7cbedf54a3b4d19fb78490124b6b90d04fe3242eea579e8",
            "0x0000000000000000000000003e122a3db43d225dd5bffd929ad4176ce69117e0"
          ],
          "data": "0x00000000000000000000000000000000000000000000000115b841314c8b1bb000000000000000000000000000000000000000000000000115b885127c1a204f00000000000000000000000000000000000000000000000000003c6a9a4866280000000000000000000000000000000000000000002c882423b783d25acb0555000000000000000000000000000000000000000000000b79793869d213d55ddd",
          "blockHash": "0xf38e202f4c788bb16a81f92d31c8d4314f1eb77708b2d46b39ec507b76a0d8c5",
          "blockNumber": "0x464eeb",
          "transactionHash": "0x16760e03345df3644d03c76e32f0bb0e7c05375aee3c0f79fa326a94765218c0",
          "transactionIndex": "0x9",
          "logIndex": "0x11",
          "removed": false
        },
        {
          "address": "0x6Ae43d3271ff6888e7Fc43Fd7321a503ff738951",
          "topics": [
            "0x804c9b842b2748a22bb64b345453a3de7ca54a6ca45ce00d415894979e22897a",
            "0x000000000000000000000000ff34b3d4aee8ddcd6f9afffb6fe49bd371b8a357"
          ],
          "data": "0x00000000000000000000000000000000000000000001e22cab6e6e572f02ce8e0000000000000000000000000000000000000000002a6b923af2606c01631e88000000000000000000000000000000000000000000087d466472d0147b18f4400000000000000000000000000000000000000000034543b79aaa21fde6f27ae600000000000000000000000000000000000000000346f47c8e355cf0700802ff",
          "blockHash": "0xf38e202f4c788bb16a81f92d31c8d4314f1eb77708b2d46b39ec507b76a0d8c5",
          "blockNumber": "0x464eeb",
          "transactionHash": "0x16760e03345df3644d03c76e32f0bb0e7c05375aee3c0f79fa326a94765218c0",
          "transactionIndex": "0x9",
          "logIndex": "0x12",
          "removed": false
        },
        {
          "address": "0xFF34B3d4Aee8ddCd6F9AFFFB6Fe49bD371b8a357",
          "topics": [
            "0xddf252ad1be2c89b69c2b068fc378daa952ba7f163c4a11628f55a4df523b3ef",
            "0x0000000000000000000000006a763430e347d1e152823d646c700442a4db84aa",
            "0x00000000000000000000000029598b72eb5cebd806c5dcd549490fda35b13cd8"
          ],
          "data": "0x00000000000000000000000000000000000000000000000115b87d9be6d381d8",
          "blockHash": "0xf38e202f4c788bb16a81f92d31c8d4314f1eb77708b2d46b39ec507b76a0d8c5",
          "blockNumber": "0x464eeb",
          "transactionHash": "0x16760e03345df3644d03c76e32f0bb0e7c05375aee3c0f79fa326a94765218c0",
          "transactionIndex": "0x9",
          "logIndex": "0x13",
          "removed": false
        },
        {
          "address": "0xFF34B3d4Aee8ddCd6F9AFFFB6Fe49bD371b8a357",
          "topics": [
            "0x8c5be1e5ebec7d5bd14f71427d1e84f3dd0314c0f7b2291e5b200ac8c7c3b925",
            "0x0000000000000000000000006a763430e347d1e152823d646c700442a4db84aa",
            "0x0000000000000000000000006ae43d3271ff6888e7fc43fd7321a503ff738951"
          ],
          "data": "0x0000000000000000000000000000000000000000000000000000000000000000",
          "blockHash": "0xf38e202f4c788bb16a81f92d31c8d4314f1eb77708b2d46b39ec507b76a0d8c5",
          "blockNumber": "0x464eeb",
          "transactionHash": "0x16760e03345df3644d03c76e32f0bb0e7c05375aee3c0f79fa326a94765218c0",
          "transactionIndex": "0x9",
          "logIndex": "0x14",
          "removed": false
        },
        {
          "address": "0x6Ae43d3271ff6888e7Fc43Fd7321a503ff738951",
          "topics": [
            "0xa534c8dbe71f871f9f3530e97a74601fea17b426cae02e1c5aee42c96c784051",
            "0x000000000000000000000000ff34b3d4aee8ddcd6f9afffb6fe49bd371b8a357",
            "0x0000000000000000000000003e122a3db43d225dd5bffd929ad4176ce69117e0",
            "0x0000000000000000000000006a763430e347d1e152823d646c700442a4db84aa"
          ],
          "data": "0x00000000000000000000000000000000000000000000000115b87d9be6d381d80000000000000000000000000000000000000000000000000000000000000000",
          "blockHash": "0xf38e202f4c788bb16a81f92d31c8d4314f1eb77708b2d46b39ec507b76a0d8c5",
          "blockNumber": "0x464eeb",
          "transactionHash": "0x16760e03345df3644d03c76e32f0bb0e7c05375aee3c0f79fa326a94765218c0",
          "transactionIndex": "0x9",
          "logIndex": "0x15",
          "removed": false
        },
        {
          "address": "0xf8Fb3713D459D7C1018BD0A49D19b4C44290EBE5",
          "topics": [
            "0x8c5be1e5ebec7d5bd14f71427d1e84f3dd0314c0f7b2291e5b200ac8c7c3b925",
            "0x0000000000000000000000006a763430e347d1e152823d646c700442a4db84aa",
            "0x0000000000000000000000006ae43d3271ff6888e7fc43fd7321a503ff738951"
          ],
          "data": "0x00000000000000000000000000000000000000000000000000003fce2e75237b",
          "blockHash": "0xf38e202f4c788bb16a81f92d31c8d4314f1eb77708b2d46b39ec507b76a0d8c5",
          "blockNumber": "0x464eeb",
          "transactionHash": "0x16760e03345df3644d03c76e32f0bb0e7c05375aee3c0f79fa326a94765218c0",
          "transactionIndex": "0x9",
          "logIndex": "0x16",
          "removed": false
        },
        {
          "address": "0x34a4d932E722b9dFb492B9D8131127690CE2430B",
          "topics": [
            "0xddf252ad1be2c89b69c2b068fc378daa952ba7f163c4a11628f55a4df523b3ef",
            "0x0000000000000000000000003e122a3db43d225dd5bffd929ad4176ce69117e0",
            "0x0000000000000000000000000000000000000000000000000000000000000000"
          ],
          "data": "0x00000000000000000000000000000000000000000000000000003fcb3a175c35",
          "blockHash": "0xf38e202f4c788bb16a81f92d31c8d4314f1eb77708b2d46b39ec507b76a0d8c5",
          "blockNumber": "0x464eeb",
          "transactionHash": "0x16760e03345df3644d03c76e32f0bb0e7c05375aee3c0f79fa326a94765218c0",
          "transactionIndex": "0x9",
          "logIndex": "0x17",
          "removed": false
        },
        {
          "address": "0x34a4d932E722b9dFb492B9D8131127690CE2430B",
          "topics": [
            "0x4cf25bc1d991c17529c25213d3cc0cda295eeaad5f13f361969b12ea48015f90",
            "0x0000000000000000000000003e122a3db43d225dd5bffd929ad4176ce69117e0",
            "0x0000000000000000000000000000000000000000000000000000000000000000"
          ],
          "data": "0x00000000000000000000000000000000000000000000000000003fcb3a175c3500000000000000000000000000000000000000000000000000000002f45dc746000000000000000000000000000000000000000003a043e4063f889ed41f1e8e",
          "blockHash": "0xf38e202f4c788bb16a81f92d31c8d4314f1eb77708b2d46b39ec507b76a0d8c5",
          "blockNumber": "0x464eeb",
          "transactionHash": "0x16760e03345df3644d03c76e32f0bb0e7c05375aee3c0f79fa326a94765218c0",
          "transactionIndex": "0x9",
          "logIndex": "0x18",
          "removed": false
        },
        {
          "address": "0x6Ae43d3271ff6888e7Fc43Fd7321a503ff738951",
          "topics": [
            "0x804c9b842b2748a22bb64b345453a3de7ca54a6ca45ce00d415894979e22897a",
            "0x000000000000000000000000f8fb3713d459d7c1018bd0a49d19b4c44290ebe5"
          ],
          "data": "0x000000000000000000000000000000000000000006ddbc87e6ebe20c9db3d3a6000000000000000000000000000000000000000009539f15ef726012fe400279000000000000000000000000000000000000000009092cd828be5488644002790000000000000000000000000000000000000000038783a257d78fbb4332503c000000000000000000000000000000000000000003a043e4063f889ed41f1e8e",
          "blockHash": "0xf38e202f4c788bb16a81f92d31c8d4314f1eb77708b2d46b39ec507b76a0d8c5",
          "blockNumber": "0x464eeb",
          "transactionHash": "0x16760e03345df3644d03c76e32f0bb0e7c05375aee3c0f79fa326a94765218c0",
          "transactionIndex": "0x9",
          "logIndex": "0x19",
          "removed": false
        },
        {
          "address": "0xf8Fb3713D459D7C1018BD0A49D19b4C44290EBE5",
          "topics": [
            "0xddf252ad1be2c89b69c2b068fc378daa952ba7f163c4a11628f55a4df523b3ef",
            "0x0000000000000000000000006a763430e347d1e152823d646c700442a4db84aa",
            "0x0000000000000000000000003ffaf50d4f4e96eb78f2407c090b72e86ecaed24"
          ],
          "data": "0x00000000000000000000000000000000000000000000000000003fce2e75237b",
          "blockHash": "0xf38e202f4c788bb16a81f92d31c8d4314f1eb77708b2d46b39ec507b76a0d8c5",
          "blockNumber": "0x464eeb",
          "transactionHash": "0x16760e03345df3644d03c76e32f0bb0e7c05375aee3c0f79fa326a94765218c0",
          "transactionIndex": "0x9",
          "logIndex": "0x1a",
          "removed": false
        },
        {
          "address": "0xf8Fb3713D459D7C1018BD0A49D19b4C44290EBE5",
          "topics": [
            "0x8c5be1e5ebec7d5bd14f71427d1e84f3dd0314c0f7b2291e5b200ac8c7c3b925",
            "0x0000000000000000000000006a763430e347d1e152823d646c700442a4db84aa",
            "0x0000000000000000000000006ae43d3271ff6888e7fc43fd7321a503ff738951"
          ],
          "data": "0x0000000000000000000000000000000000000000000000000000000000000000",
          "blockHash": "0xf38e202f4c788bb16a81f92d31c8d4314f1eb77708b2d46b39ec507b76a0d8c5",
          "blockNumber": "0x464eeb",
          "transactionHash": "0x16760e03345df3644d03c76e32f0bb0e7c05375aee3c0f79fa326a94765218c0",
          "transactionIndex": "0x9",
          "logIndex": "0x1b",
          "removed": false
        },
        {
          "address": "0x6Ae43d3271ff6888e7Fc43Fd7321a503ff738951",
          "topics": [
            "0xa534c8dbe71f871f9f3530e97a74601fea17b426cae02e1c5aee42c96c784051",
            "0x000000000000000000000000f8fb3713d459d7c1018bd0a49d19b4c44290ebe5",
            "0x0000000000000000000000003e122a3db43d225dd5bffd929ad4176ce69117e0",
            "0x0000000000000000000000006a763430e347d1e152823d646c700442a4db84aa"
          ],
          "data": "0x00000000000000000000000000000000000000000000000000003fce2e75237b0000000000000000000000000000000000000000000000000000000000000000",
          "blockHash": "0xf38e202f4c788bb16a81f92d31c8d4314f1eb77708b2d46b39ec507b76a0d8c5",
          "blockNumber": "0x464eeb",
          "transactionHash": "0x16760e03345df3644d03c76e32f0bb0e7c05375aee3c0f79fa326a94765218c0",
          "transactionIndex": "0x9",
          "logIndex": "0x1c",
          "removed": false
        },
        {
          "address": "0xaA8E23Fb1079EA71e0a56F48a2aA51851D8433D0",
          "topics": [
            "0x8c5be1e5ebec7d5bd14f71427d1e84f3dd0314c0f7b2291e5b200ac8c7c3b925",
            "0x0000000000000000000000006a763430e347d1e152823d646c700442a4db84aa",
            "0x0000000000000000000000006ae43d3271ff6888e7fc43fd7321a503ff738951"
          ],
          "data": "0x000000000000000000000000000000000000000000000000000000047dfda54b",
          "blockHash": "0xf38e202f4c788bb16a81f92d31c8d4314f1eb77708b2d46b39ec507b76a0d8c5",
          "blockNumber": "0x464eeb",
          "transactionHash": "0x16760e03345df3644d03c76e32f0bb0e7c05375aee3c0f79fa326a94765218c0",
          "transactionIndex": "0x9",
          "logIndex": "0x1d",
          "removed": false
        },
        {
          "address": "0x9844386d29EEd970B9F6a2B9a676083b0478210e",
          "topics": [
            "0xddf252ad1be2c89b69c2b068fc378daa952ba7f163c4a11628f55a4df523b3ef",
            "0x0000000000000000000000003e122a3db43d225dd5bffd929ad4176ce69117e0",
            "0x0000000000000000000000000000000000000000000000000000000000000000"
          ],
          "data": "0x000000000000000000000000000000000000000000000000000000047dfda44d",
          "blockHash": "0xf38e202f4c788bb16a81f92d31c8d4314f1eb77708b2d46b39ec507b76a0d8c5",
          "blockNumber": "0x464eeb",
          "transactionHash": "0x16760e03345df3644d03c76e32f0bb0e7c05375aee3c0f79fa326a94765218c0",
          "transactionIndex": "0x9",
          "logIndex": "0x1e",
          "removed": false
        },
        {
          "address": "0x9844386d29EEd970B9F6a2B9a676083b0478210e",
          "topics": [
            "0x4cf25bc1d991c17529c25213d3cc0cda295eeaad5f13f361969b12ea48015f90",
            "0x0000000000000000000000003e122a3db43d225dd5bffd929ad4176ce69117e0",
            "0x0000000000000000000000000000000000000000000000000000000000000000"
          ],
          "data": "0x000000000000000000000000000000000000000000000000000000047dfda44d00000000000000000000000000000000000000000000000000000000000000fe0000000000000000000000000000000000000000034505630f83f324e4248d66",
          "blockHash": "0xf38e202f4c788bb16a81f92d31c8d4314f1eb77708b2d46b39ec507b76a0d8c5",
          "blockNumber": "0x464eeb",
          "transactionHash": "0x16760e03345df3644d03c76e32f0bb0e7c05375aee3c0f79fa326a94765218c0",
          "transactionIndex": "0x9",
          "logIndex": "0x1f",
          "removed": false
        },
        {
          "address": "0x6Ae43d3271ff6888e7Fc43Fd7321a503ff738951",
          "topics": [
            "0x804c9b842b2748a22bb64b345453a3de7ca54a6ca45ce00d415894979e22897a",
            "0x000000000000000000000000aa8e23fb1079ea71e0a56f48a2aa51851d8433d0"
          ],
          "data": "0x0000000000000000000000000000000000000000000003945165459291705c2f00000000000000000000000000000000000000000029613bc956324cab2c3c9a000000000000000000000000000000000000000000002a92d7915f19c961e4d700000000000000000000000000000000000000000342ac3d88478d1c26d014ae0000000000000000000000000000000000000000034505630f83f324e4248d66",
          "blockHash": "0xf38e202f4c788bb16a81f92d31c8d4314f1eb77708b2d46b39ec507b76a0d8c5",
          "blockNumber": "0x464eeb",
          "transactionHash": "0x16760e03345df3644d03c76e32f0bb0e7c05375aee3c0f79fa326a94765218c0",
          "transactionIndex": "0x9",
          "logIndex": "0x20",
          "removed": false
        },
        {
          "address": "0xaA8E23Fb1079EA71e0a56F48a2aA51851D8433D0",
          "topics": [
            "0xddf252ad1be2c89b69c2b068fc378daa952ba7f163c4a11628f55a4df523b3ef",
            "0x0000000000000000000000006a763430e347d1e152823d646c700442a4db84aa",
            "0x000000000000000000000000af0f6e8b0dc5c913bbf4d14c22b4e78dd14310b6"
          ],
          "data": "0x000000000000000000000000000000000000000000000000000000047dfda54b",
          "blockHash": "0xf38e202f4c788bb16a81f92d31c8d4314f1eb77708b2d46b39ec507b76a0d8c5",
          "blockNumber": "0x464eeb",
          "transactionHash": "0x16760e03345df3644d03c76e32f0bb0e7c05375aee3c0f79fa326a94765218c0",
          "transactionIndex": "0x9",
          "logIndex": "0x21",
          "removed": false
        },
        {
          "address": "0xaA8E23Fb1079EA71e0a56F48a2aA51851D8433D0",
          "topics": [
            "0x8c5be1e5ebec7d5bd14f71427d1e84f3dd0314c0f7b2291e5b200ac8c7c3b925",
            "0x0000000000000000000000006a763430e347d1e152823d646c700442a4db84aa",
            "0x0000000000000000000000006ae43d3271ff6888e7fc43fd7321a503ff738951"
          ],
          "data": "0x0000000000000000000000000000000000000000000000000000000000000000",
          "blockHash": "0xf38e202f4c788bb16a81f92d31c8d4314f1eb77708b2d46b39ec507b76a0d8c5",
          "blockNumber": "0x464eeb",
          "transactionHash": "0x16760e03345df3644d03c76e32f0bb0e7c05375aee3c0f79fa326a94765218c0",
          "transactionIndex": "0x9",
          "logIndex": "0x22",
          "removed": false
        },
        {
          "address": "0x6Ae43d3271ff6888e7Fc43Fd7321a503ff738951",
          "topics": [
            "0xa534c8dbe71f871f9f3530e97a74601fea17b426cae02e1c5aee42c96c784051",
            "0x000000000000000000000000aa8e23fb1079ea71e0a56f48a2aa51851d8433d0",
            "0x0000000000000000000000003e122a3db43d225dd5bffd929ad4176ce69117e0",
            "0x0000000000000000000000006a763430e347d1e152823d646c700442a4db84aa"
          ],
          "data": "0x000000000000000000000000000000000000000000000000000000047dfda54b0000000000000000000000000000000000000000000000000000000000000000",
          "blockHash": "0xf38e202f4c788bb16a81f92d31c8d4314f1eb77708b2d46b39ec507b76a0d8c5",
          "blockNumber": "0x464eeb",
          "transactionHash": "0x16760e03345df3644d03c76e32f0bb0e7c05375aee3c0f79fa326a94765218c0",
          "transactionIndex": "0x9",
          "logIndex": "0x23",
          "removed": false
        },
        {
          "address": "0xaA8E23Fb1079EA71e0a56F48a2aA51851D8433D0",
          "topics": [
            "0x8c5be1e5ebec7d5bd14f71427d1e84f3dd0314c0f7b2291e5b200ac8c7c3b925",
            "0x0000000000000000000000006a763430e347d1e152823d646c700442a4db84aa",
            "0x0000000000000000000000006ae43d3271ff6888e7fc43fd7321a503ff738951"
          ],
          "data": "0x000000000000000000000000000000000000000000000000000000000098adbb",
          "blockHash": "0xf38e202f4c788bb16a81f92d31c8d4314f1eb77708b2d46b39ec507b76a0d8c5",
          "blockNumber": "0x464eeb",
          "transactionHash": "0x16760e03345df3644d03c76e32f0bb0e7c05375aee3c0f79fa326a94765218c0",
          "transactionIndex": "0x9",
          "logIndex": "0x24",
          "removed": false
        },
        {
          "address": "0xEAF54fA3b1C7243033C2893c6B807f9cEaBCf0AF",
          "topics": [
            "0xddf252ad1be2c89b69c2b068fc378daa952ba7f163c4a11628f55a4df523b3ef",
            "0x0000000000000000000000003e122a3db43d225dd5bffd929ad4176ce69117e0",
            "0x0000000000000000000000000000000000000000000000000000000000000000"
          ],
          "data": "0x000000000000000000000000000000000000000000000000000000000098ad9b",
          "blockHash": "0xf38e202f4c788bb16a81f92d31c8d4314f1eb77708b2d46b39ec507b76a0d8c5",
          "blockNumber": "0x464eeb",
          "transactionHash": "0x16760e03345df3644d03c76e32f0bb0e7c05375aee3c0f79fa326a94765218c0",
          "transactionIndex": "0x9",
          "logIndex": "0x25",
          "removed": false
        },
        {
          "address": "0xEAF54fA3b1C7243033C2893c6B807f9cEaBCf0AF",
          "topics": [
            "0x44bd20a79e993bdcc7cbedf54a3b4d19fb78490124b6b90d04fe3242eea579e8",
            "0x0000000000000000000000003e122a3db43d225dd5bffd929ad4176ce69117e0"
          ],
          "data": "0x000000000000000000000000000000000000000000000000000000000098ad9b000000000000000000000000000000000000000000000000000000000098adbf00000000000000000000000000000000000000000000000000000000000000200000000000000000000000000000000000000000002b61797a8e6c6112acc6d10000000000000000000000000000000000000000000000000000001e26598494",
          "blockHash": "0xf38e202f4c788bb16a81f92d31c8d4314f1eb77708b2d46b39ec507b76a0d8c5",
          "blockNumber": "0x464eeb",
          "transactionHash": "0x16760e03345df3644d03c76e32f0bb0e7c05375aee3c0f79fa326a94765218c0",
          "transactionIndex": "0x9",
          "logIndex": "0x26",
          "removed": false
        },
        {
          "address": "0x6Ae43d3271ff6888e7Fc43Fd7321a503ff738951",
          "topics": [
            "0x804c9b842b2748a22bb64b345453a3de7ca54a6ca45ce00d415894979e22897a",
            "0x000000000000000000000000aa8e23fb1079ea71e0a56f48a2aa51851d8433d0"
          ],
          "data": "0x00000000000000000000000000000000000000000000039440d1c64b77b5ac1c00000000000000000000000000000000000000000029613bc74c831bd538dccc000000000000000000000000000000000000000000002a92c743e59319c6e66000000000000000000000000000000000000000000342ac3d88478d1c26d014ae0000000000000000000000000000000000000000034505630f83f324e4248d66",
          "blockHash": "0xf38e202f4c788bb16a81f92d31c8d4314f1eb77708b2d46b39ec507b76a0d8c5",
          "blockNumber": "0x464eeb",
          "transactionHash": "0x16760e03345df3644d03c76e32f0bb0e7c05375aee3c0f79fa326a94765218c0",
          "transactionIndex": "0x9",
          "logIndex": "0x27",
          "removed": false
        },
        {
          "address": "0xaA8E23Fb1079EA71e0a56F48a2aA51851D8433D0",
          "topics": [
            "0xddf252ad1be2c89b69c2b068fc378daa952ba7f163c4a11628f55a4df523b3ef",
            "0x0000000000000000000000006a763430e347d1e152823d646c700442a4db84aa",
            "0x000000000000000000000000af0f6e8b0dc5c913bbf4d14c22b4e78dd14310b6"
          ],
          "data": "0x000000000000000000000000000000000000000000000000000000000098adbb",
          "blockHash": "0xf38e202f4c788bb16a81f92d31c8d4314f1eb77708b2d46b39ec507b76a0d8c5",
          "blockNumber": "0x464eeb",
          "transactionHash": "0x16760e03345df3644d03c76e32f0bb0e7c05375aee3c0f79fa326a94765218c0",
          "transactionIndex": "0x9",
          "logIndex": "0x28",
          "removed": false
        },
        {
          "address": "0xaA8E23Fb1079EA71e0a56F48a2aA51851D8433D0",
          "topics": [
            "0x8c5be1e5ebec7d5bd14f71427d1e84f3dd0314c0f7b2291e5b200ac8c7c3b925",
            "0x0000000000000000000000006a763430e347d1e152823d646c700442a4db84aa",
            "0x0000000000000000000000006ae43d3271ff6888e7fc43fd7321a503ff738951"
          ],
          "data": "0x0000000000000000000000000000000000000000000000000000000000000000",
          "blockHash": "0xf38e202f4c788bb16a81f92d31c8d4314f1eb77708b2d46b39ec507b76a0d8c5",
          "blockNumber": "0x464eeb",
          "transactionHash": "0x16760e03345df3644d03c76e32f0bb0e7c05375aee3c0f79fa326a94765218c0",
          "transactionIndex": "0x9",
          "logIndex": "0x29",
          "removed": false
        },
        {
          "address": "0x6Ae43d3271ff6888e7Fc43Fd7321a503ff738951",
          "topics": [
            "0xa534c8dbe71f871f9f3530e97a74601fea17b426cae02e1c5aee42c96c784051",
            "0x000000000000000000000000aa8e23fb1079ea71e0a56f48a2aa51851d8433d0",
            "0x0000000000000000000000003e122a3db43d225dd5bffd929ad4176ce69117e0",
            "0x0000000000000000000000006a763430e347d1e152823d646c700442a4db84aa"
          ],
          "data": "0x000000000000000000000000000000000000000000000000000000000098adbb0000000000000000000000000000000000000000000000000000000000000000",
          "blockHash": "0xf38e202f4c788bb16a81f92d31c8d4314f1eb77708b2d46b39ec507b76a0d8c5",
          "blockNumber": "0x464eeb",
          "transactionHash": "0x16760e03345df3644d03c76e32f0bb0e7c05375aee3c0f79fa326a94765218c0",
          "transactionIndex": "0x9",
          "logIndex": "0x2a",
          "removed": false
        },
        {
          "address": "0x6d906e526a4e2Ca02097BA9d0caA3c382F52278E",
          "topics": [
            "0x8c5be1e5ebec7d5bd14f71427d1e84f3dd0314c0f7b2291e5b200ac8c7c3b925",
            "0x0000000000000000000000006a763430e347d1e152823d646c700442a4db84aa",
            "0x0000000000000000000000006ae43d3271ff6888e7fc43fd7321a503ff738951"
          ],
          "data": "0x00000000000000000000000000000000000000000000000000000000000000c9",
          "blockHash": "0xf38e202f4c788bb16a81f92d31c8d4314f1eb77708b2d46b39ec507b76a0d8c5",
          "blockNumber": "0x464eeb",
          "transactionHash": "0x16760e03345df3644d03c76e32f0bb0e7c05375aee3c0f79fa326a94765218c0",
          "transactionIndex": "0x9",
          "logIndex": "0x2b",
          "removed": false
        },
        {
          "address": "0x94482C7A7477196259D8a0f74fB853277Fa5a75b",
          "topics": [
            "0xddf252ad1be2c89b69c2b068fc378daa952ba7f163c4a11628f55a4df523b3ef",
            "0x0000000000000000000000003e122a3db43d225dd5bffd929ad4176ce69117e0",
            "0x0000000000000000000000000000000000000000000000000000000000000000"
          ],
          "data": "0x00000000000000000000000000000000000000000000000000000000000000c9",
          "blockHash": "0xf38e202f4c788bb16a81f92d31c8d4314f1eb77708b2d46b39ec507b76a0d8c5",
          "blockNumber": "0x464eeb",
          "transactionHash": "0x16760e03345df3644d03c76e32f0bb0e7c05375aee3c0f79fa326a94765218c0",
          "transactionIndex": "0x9",
          "logIndex": "0x2c",
          "removed": false
        },
        {
          "address": "0x94482C7A7477196259D8a0f74fB853277Fa5a75b",
          "topics": [
            "0x4cf25bc1d991c17529c25213d3cc0cda295eeaad5f13f361969b12ea48015f90",
            "0x0000000000000000000000003e122a3db43d225dd5bffd929ad4176ce69117e0",
            "0x0000000000000000000000000000000000000000000000000000000000000000"
          ],
          "data": "0x00000000000000000000000000000000000000000000000000000000000000c900000000000000000000000000000000000000000000000000000000000000000000000000000000000000000000000000000000034e799b2869d13dee850853",
          "blockHash": "0xf38e202f4c788bb16a81f92d31c8d4314f1eb77708b2d46b39ec507b76a0d8c5",
          "blockNumber": "0x464eeb",
          "transactionHash": "0x16760e03345df3644d03c76e32f0bb0e7c05375aee3c0f79fa326a94765218c0",
          "transactionIndex": "0x9",
          "logIndex": "0x2d",
          "removed": false
        },
        {
          "address": "0x6Ae43d3271ff6888e7Fc43Fd7321a503ff738951",
          "topics": [
            "0x804c9b842b2748a22bb64b345453a3de7ca54a6ca45ce00d415894979e22897a",
            "0x0000000000000000000000006d906e526a4e2ca02097ba9d0caa3c382f52278e"
          ],
          "data": "0x0000000000000000000000000000000000000000014b747bd773971314a65bda0000000000000000000000000000000000000000018c2a274a6d0c34f17135880000000000000000000000000000000000000000017fc1c7a94f0a48827135880000000000000000000000000000000000000000034b1ca28b72a81a3d5d35dd0000000000000000000000000000000000000000034e799b2869d13dee850853",
          "blockHash": "0xf38e202f4c788bb16a81f92d31c8d4314f1eb77708b2d46b39ec507b76a0d8c5",
          "blockNumber": "0x464eeb",
          "transactionHash": "0x16760e03345df3644d03c76e32f0bb0e7c05375aee3c0f79fa326a94765218c0",
          "transactionIndex": "0x9",
          "logIndex": "0x2e",
          "removed": false
        },
        {
          "address": "0x6d906e526a4e2Ca02097BA9d0caA3c382F52278E",
          "topics": [
            "0xddf252ad1be2c89b69c2b068fc378daa952ba7f163c4a11628f55a4df523b3ef",
            "0x0000000000000000000000006a763430e347d1e152823d646c700442a4db84aa",
            "0x000000000000000000000000b20691021f9aced8631edaa3c0cd2949eb45662d"
          ],
          "data": "0x00000000000000000000000000000000000000000000000000000000000000c9",
          "blockHash": "0xf38e202f4c788bb16a81f92d31c8d4314f1eb77708b2d46b39ec507b76a0d8c5",
          "blockNumber": "0x464eeb",
          "transactionHash": "0x16760e03345df3644d03c76e32f0bb0e7c05375aee3c0f79fa326a94765218c0",
          "transactionIndex": "0x9",
          "logIndex": "0x2f",
          "removed": false
        },
        {
          "address": "0x6d906e526a4e2Ca02097BA9d0caA3c382F52278E",
          "topics": [
            "0x8c5be1e5ebec7d5bd14f71427d1e84f3dd0314c0f7b2291e5b200ac8c7c3b925",
            "0x0000000000000000000000006a763430e347d1e152823d646c700442a4db84aa",
            "0x0000000000000000000000006ae43d3271ff6888e7fc43fd7321a503ff738951"
          ],
          "data": "0x0000000000000000000000000000000000000000000000000000000000000000",
          "blockHash": "0xf38e202f4c788bb16a81f92d31c8d4314f1eb77708b2d46b39ec507b76a0d8c5",
          "blockNumber": "0x464eeb",
          "transactionHash": "0x16760e03345df3644d03c76e32f0bb0e7c05375aee3c0f79fa326a94765218c0",
          "transactionIndex": "0x9",
          "logIndex": "0x30",
          "removed": false
        },
        {
          "address": "0x6Ae43d3271ff6888e7Fc43Fd7321a503ff738951",
          "topics": [
            "0xa534c8dbe71f871f9f3530e97a74601fea17b426cae02e1c5aee42c96c784051",
            "0x0000000000000000000000006d906e526a4e2ca02097ba9d0caa3c382f52278e",
            "0x0000000000000000000000003e122a3db43d225dd5bffd929ad4176ce69117e0",
            "0x0000000000000000000000006a763430e347d1e152823d646c700442a4db84aa"
          ],
          "data": "0x00000000000000000000000000000000000000000000000000000000000000c90000000000000000000000000000000000000000000000000000000000000000",
          "blockHash": "0xf38e202f4c788bb16a81f92d31c8d4314f1eb77708b2d46b39ec507b76a0d8c5",
          "blockNumber": "0x464eeb",
          "transactionHash": "0x16760e03345df3644d03c76e32f0bb0e7c05375aee3c0f79fa326a94765218c0",
          "transactionIndex": "0x9",
          "logIndex": "0x31",
          "removed": false
        },
        {
          "address": "0x6d906e526a4e2Ca02097BA9d0caA3c382F52278E",
          "topics": [
            "0x8c5be1e5ebec7d5bd14f71427d1e84f3dd0314c0f7b2291e5b200ac8c7c3b925",
            "0x0000000000000000000000006a763430e347d1e152823d646c700442a4db84aa",
            "0x0000000000000000000000006ae43d3271ff6888e7fc43fd7321a503ff738951"
          ],
          "data": "0x00000000000000000000000000000000000000000000000000000000000002bd",
          "blockHash": "0xf38e202f4c788bb16a81f92d31c8d4314f1eb77708b2d46b39ec507b76a0d8c5",
          "blockNumber": "0x464eeb",
          "transactionHash": "0x16760e03345df3644d03c76e32f0bb0e7c05375aee3c0f79fa326a94765218c0",
          "transactionIndex": "0x9",
          "logIndex": "0x32",
          "removed": false
        },
        {
          "address": "0x08878209484D8178DD1FFA50AB1689F21aDBB856",
          "topics": [
            "0xddf252ad1be2c89b69c2b068fc378daa952ba7f163c4a11628f55a4df523b3ef",
            "0x0000000000000000000000003e122a3db43d225dd5bffd929ad4176ce69117e0",
            "0x0000000000000000000000000000000000000000000000000000000000000000"
          ],
          "data": "0x00000000000000000000000000000000000000000000000000000000000002bd",
          "blockHash": "0xf38e202f4c788bb16a81f92d31c8d4314f1eb77708b2d46b39ec507b76a0d8c5",
          "blockNumber": "0x464eeb",
          "transactionHash": "0x16760e03345df3644d03c76e32f0bb0e7c05375aee3c0f79fa326a94765218c0",
          "transactionIndex": "0x9",
          "logIndex": "0x33",
          "removed": false
        },
        {
          "address": "0x08878209484D8178DD1FFA50AB1689F21aDBB856",
          "topics": [
            "0x44bd20a79e993bdcc7cbedf54a3b4d19fb78490124b6b90d04fe3242eea579e8",
            "0x0000000000000000000000003e122a3db43d225dd5bffd929ad4176ce69117e0"
          ],
          "data": "0x00000000000000000000000000000000000000000000000000000000000002bd00000000000000000000000000000000000000000000000000000000000002bd00000000000000000000000000000000000000000000000000000000000000000000000000000000000000000000000000000000002bb09f5663f2c243f44baa00000000000000000000000000000000000000000000000000000000003fe8de",
          "blockHash": "0xf38e202f4c788bb16a81f92d31c8d4314f1eb77708b2d46b39ec507b76a0d8c5",
          "blockNumber": "0x464eeb",
          "transactionHash": "0x16760e03345df3644d03c76e32f0bb0e7c05375aee3c0f79fa326a94765218c0",
          "transactionIndex": "0x9",
          "logIndex": "0x34",
          "removed": false
        },
        {
          "address": "0x6Ae43d3271ff6888e7Fc43Fd7321a503ff738951",
          "topics": [
            "0x804c9b842b2748a22bb64b345453a3de7ca54a6ca45ce00d415894979e22897a",
            "0x0000000000000000000000006d906e526a4e2ca02097ba9d0caa3c382f52278e"
          ],
          "data": "0x0000000000000000000000000000000000000000014b7205d196b632308e2a090000000000000000000000000000000000000000018c2784f2cac4e54705fdfc0000000000000000000000000000000000000000017fbf2551acc2f8d805fdfc0000000000000000000000000000000000000000034b1ca28b72a81a3d5d35dd0000000000000000000000000000000000000000034e799b2869d13dee850853",
          "blockHash": "0xf38e202f4c788bb16a81f92d31c8d4314f1eb77708b2d46b39ec507b76a0d8c5",
          "blockNumber": "0x464eeb",
          "transactionHash": "0x16760e03345df3644d03c76e32f0bb0e7c05375aee3c0f79fa326a94765218c0",
          "transactionIndex": "0x9",
          "logIndex": "0x35",
          "removed": false
        },
        {
          "address": "0x6d906e526a4e2Ca02097BA9d0caA3c382F52278E",
          "topics": [
            "0xddf252ad1be2c89b69c2b068fc378daa952ba7f163c4a11628f55a4df523b3ef",
            "0x0000000000000000000000006a763430e347d1e152823d646c700442a4db84aa",
            "0x000000000000000000000000b20691021f9aced8631edaa3c0cd2949eb45662d"
          ],
          "data": "0x00000000000000000000000000000000000000000000000000000000000002bd",
          "blockHash": "0xf38e202f4c788bb16a81f92d31c8d4314f1eb77708b2d46b39ec507b76a0d8c5",
          "blockNumber": "0x464eeb",
          "transactionHash": "0x16760e03345df3644d03c76e32f0bb0e7c05375aee3c0f79fa326a94765218c0",
          "transactionIndex": "0x9",
          "logIndex": "0x36",
          "removed": false
        },
        {
          "address": "0x6d906e526a4e2Ca02097BA9d0caA3c382F52278E",
          "topics": [
            "0x8c5be1e5ebec7d5bd14f71427d1e84f3dd0314c0f7b2291e5b200ac8c7c3b925",
            "0x0000000000000000000000006a763430e347d1e152823d646c700442a4db84aa",
            "0x0000000000000000000000006ae43d3271ff6888e7fc43fd7321a503ff738951"
          ],
          "data": "0x0000000000000000000000000000000000000000000000000000000000000000",
          "blockHash": "0xf38e202f4c788bb16a81f92d31c8d4314f1eb77708b2d46b39ec507b76a0d8c5",
          "blockNumber": "0x464eeb",
          "transactionHash": "0x16760e03345df3644d03c76e32f0bb0e7c05375aee3c0f79fa326a94765218c0",
          "transactionIndex": "0x9",
          "logIndex": "0x37",
          "removed": false
        },
        {
          "address": "0x6Ae43d3271ff6888e7Fc43Fd7321a503ff738951",
          "topics": [
            "0xa534c8dbe71f871f9f3530e97a74601fea17b426cae02e1c5aee42c96c784051",
            "0x0000000000000000000000006d906e526a4e2ca02097ba9d0caa3c382f52278e",
            "0x0000000000000000000000003e122a3db43d225dd5bffd929ad4176ce69117e0",
            "0x0000000000000000000000006a763430e347d1e152823d646c700442a4db84aa"
          ],
          "data": "0x00000000000000000000000000000000000000000000000000000000000002bd0000000000000000000000000000000000000000000000000000000000000000",
          "blockHash": "0xf38e202f4c788bb16a81f92d31c8d4314f1eb77708b2d46b39ec507b76a0d8c5",
          "blockNumber": "0x464eeb",
          "transactionHash": "0x16760e03345df3644d03c76e32f0bb0e7c05375aee3c0f79fa326a94765218c0",
          "transactionIndex": "0x9",
          "logIndex": "0x38",
          "removed": false
        },
        {
          "address": "0x3FfAf50D4F4E96eB78f2407c090b72e86eCaed24",
          "topics": [
            "0x8c5be1e5ebec7d5bd14f71427d1e84f3dd0314c0f7b2291e5b200ac8c7c3b925",
            "0x0000000000000000000000003e122a3db43d225dd5bffd929ad4176ce69117e0",
            "0x0000000000000000000000006a763430e347d1e152823d646c700442a4db84aa"
          ],
          "data": "0x0000000000000000000000000000000000000000000000000000000000000000",
          "blockHash": "0xf38e202f4c788bb16a81f92d31c8d4314f1eb77708b2d46b39ec507b76a0d8c5",
          "blockNumber": "0x464eeb",
          "transactionHash": "0x16760e03345df3644d03c76e32f0bb0e7c05375aee3c0f79fa326a94765218c0",
          "transactionIndex": "0x9",
          "logIndex": "0x39",
          "removed": false
        },
        {
          "address": "0x3FfAf50D4F4E96eB78f2407c090b72e86eCaed24",
          "topics": [
            "0xddf252ad1be2c89b69c2b068fc378daa952ba7f163c4a11628f55a4df523b3ef",
            "0x0000000000000000000000000000000000000000000000000000000000000000",
            "0x0000000000000000000000003e122a3db43d225dd5bffd929ad4176ce69117e0"
          ],
          "data": "0x00000000000000000000000000000000000000000000000001fe1ce6e24a6c01",
          "blockHash": "0xf38e202f4c788bb16a81f92d31c8d4314f1eb77708b2d46b39ec507b76a0d8c5",
          "blockNumber": "0x464eeb",
          "transactionHash": "0x16760e03345df3644d03c76e32f0bb0e7c05375aee3c0f79fa326a94765218c0",
          "transactionIndex": "0x9",
          "logIndex": "0x3a",
          "removed": false
        },
        {
          "address": "0x3FfAf50D4F4E96eB78f2407c090b72e86eCaed24",
          "topics": [
            "0x458f5fa412d0f69b08dd84872b0215675cc67bc1d5b6fd93300a1c3878b86196",
            "0x0000000000000000000000006a763430e347d1e152823d646c700442a4db84aa",
            "0x0000000000000000000000003e122a3db43d225dd5bffd929ad4176ce69117e0"
          ],
          "data": "0x00000000000000000000000000000000000000000000000001fe1ce6e24a6c0100000000000000000000000000000000000000000000000001fe1ce6e24a6c010000000000000000000000000000000000000000038783a257d78fbb4332503c",
          "blockHash": "0xf38e202f4c788bb16a81f92d31c8d4314f1eb77708b2d46b39ec507b76a0d8c5",
          "blockNumber": "0x464eeb",
          "transactionHash": "0x16760e03345df3644d03c76e32f0bb0e7c05375aee3c0f79fa326a94765218c0",
          "transactionIndex": "0x9",
          "logIndex": "0x3b",
          "removed": false
        },
        {
          "address": "0x3FfAf50D4F4E96eB78f2407c090b72e86eCaed24",
          "topics": [
            "0xddf252ad1be2c89b69c2b068fc378daa952ba7f163c4a11628f55a4df523b3ef",
            "0x0000000000000000000000000000000000000000000000000000000000000000",
            "0x000000000000000000000000c5e0b6e472dde70eceffa4c568bd52f2a7a1632a"
          ],
          "data": "0x0000000000000000000000000000000000000000000000000000021bfa5082eb",
          "blockHash": "0xf38e202f4c788bb16a81f92d31c8d4314f1eb77708b2d46b39ec507b76a0d8c5",
          "blockNumber": "0x464eeb",
          "transactionHash": "0x16760e03345df3644d03c76e32f0bb0e7c05375aee3c0f79fa326a94765218c0",
          "transactionIndex": "0x9",
          "logIndex": "0x3c",
          "removed": false
        },
        {
          "address": "0x3FfAf50D4F4E96eB78f2407c090b72e86eCaed24",
          "topics": [
            "0x458f5fa412d0f69b08dd84872b0215675cc67bc1d5b6fd93300a1c3878b86196",
            "0x0000000000000000000000006a763430e347d1e152823d646c700442a4db84aa",
            "0x000000000000000000000000c5e0b6e472dde70eceffa4c568bd52f2a7a1632a"
          ],
          "data": "0x0000000000000000000000000000000000000000000000000000021bfa5082eb0000000000000000000000000000000000000000000000000000021bfa5082eb0000000000000000000000000000000000000000038783a257d78fbb4332503c",
          "blockHash": "0xf38e202f4c788bb16a81f92d31c8d4314f1eb77708b2d46b39ec507b76a0d8c5",
          "blockNumber": "0x464eeb",
          "transactionHash": "0x16760e03345df3644d03c76e32f0bb0e7c05375aee3c0f79fa326a94765218c0",
          "transactionIndex": "0x9",
          "logIndex": "0x3d",
          "removed": false
        },
        {
          "address": "0x3FfAf50D4F4E96eB78f2407c090b72e86eCaed24",
          "topics": [
            "0xddf252ad1be2c89b69c2b068fc378daa952ba7f163c4a11628f55a4df523b3ef",
            "0x0000000000000000000000003e122a3db43d225dd5bffd929ad4176ce69117e0",
            "0x000000000000000000000000c5e0b6e472dde70eceffa4c568bd52f2a7a1632a"
          ],
          "data": "0x000000000000000000000000000000000000000000000038a229490d48b2593c",
          "blockHash": "0xf38e202f4c788bb16a81f92d31c8d4314f1eb77708b2d46b39ec507b76a0d8c5",
          "blockNumber": "0x464eeb",
          "transactionHash": "0x16760e03345df3644d03c76e32f0bb0e7c05375aee3c0f79fa326a94765218c0",
          "transactionIndex": "0x9",
          "logIndex": "0x3e",
          "removed": false
        },
        {
          "address": "0x3FfAf50D4F4E96eB78f2407c090b72e86eCaed24",
          "topics": [
            "0x4beccb90f994c31aced7a23b5611020728a23d8ec5cddd1a3e9d97b96fda8666",
            "0x0000000000000000000000003e122a3db43d225dd5bffd929ad4176ce69117e0",
            "0x000000000000000000000000c5e0b6e472dde70eceffa4c568bd52f2a7a1632a"
          ],
          "data": "0x000000000000000000000000000000000000000000000033d947f7ae49c0743d0000000000000000000000000000000000000000038783a257d78fbb4332503c",
          "blockHash": "0xf38e202f4c788bb16a81f92d31c8d4314f1eb77708b2d46b39ec507b76a0d8c5",
          "blockNumber": "0x464eeb",
          "transactionHash": "0x16760e03345df3644d03c76e32f0bb0e7c05375aee3c0f79fa326a94765218c0",
          "transactionIndex": "0x9",
          "logIndex": "0x3f",
          "removed": false
        },
        {
          "address": "0x16dA4541aD1807f4443d92D26044C1147406EB80",
          "topics": [
            "0x8c5be1e5ebec7d5bd14f71427d1e84f3dd0314c0f7b2291e5b200ac8c7c3b925",
            "0x0000000000000000000000003e122a3db43d225dd5bffd929ad4176ce69117e0",
            "0x0000000000000000000000006a763430e347d1e152823d646c700442a4db84aa"
          ],
          "data": "0x0000000000000000000000000000000000000000000000000000000000000000",
          "blockHash": "0xf38e202f4c788bb16a81f92d31c8d4314f1eb77708b2d46b39ec507b76a0d8c5",
          "blockNumber": "0x464eeb",
          "transactionHash": "0x16760e03345df3644d03c76e32f0bb0e7c05375aee3c0f79fa326a94765218c0",
          "transactionIndex": "0x9",
          "logIndex": "0x40",
          "removed": false
        },
        {
          "address": "0x16dA4541aD1807f4443d92D26044C1147406EB80",
          "topics": [
            "0xddf252ad1be2c89b69c2b068fc378daa952ba7f163c4a11628f55a4df523b3ef",
            "0x0000000000000000000000000000000000000000000000000000000000000000",
            "0x0000000000000000000000003e122a3db43d225dd5bffd929ad4176ce69117e0"
          ],
          "data": "0x0000000000000000000000000000000000000000000000000000000000000246",
          "blockHash": "0xf38e202f4c788bb16a81f92d31c8d4314f1eb77708b2d46b39ec507b76a0d8c5",
          "blockNumber": "0x464eeb",
          "transactionHash": "0x16760e03345df3644d03c76e32f0bb0e7c05375aee3c0f79fa326a94765218c0",
          "transactionIndex": "0x9",
          "logIndex": "0x41",
          "removed": false
        },
        {
          "address": "0x16dA4541aD1807f4443d92D26044C1147406EB80",
          "topics": [
            "0x458f5fa412d0f69b08dd84872b0215675cc67bc1d5b6fd93300a1c3878b86196",
            "0x0000000000000000000000006a763430e347d1e152823d646c700442a4db84aa",
            "0x0000000000000000000000003e122a3db43d225dd5bffd929ad4176ce69117e0"
          ],
          "data": "0x00000000000000000000000000000000000000000000000000000000000002460000000000000000000000000000000000000000000000000000000000000246000000000000000000000000000000000000000003498b22c1e74a948fb276c0",
          "blockHash": "0xf38e202f4c788bb16a81f92d31c8d4314f1eb77708b2d46b39ec507b76a0d8c5",
          "blockNumber": "0x464eeb",
          "transactionHash": "0x16760e03345df3644d03c76e32f0bb0e7c05375aee3c0f79fa326a94765218c0",
          "transactionIndex": "0x9",
          "logIndex": "0x42",
          "removed": false
        },
        {
          "address": "0x16dA4541aD1807f4443d92D26044C1147406EB80",
          "topics": [
            "0xddf252ad1be2c89b69c2b068fc378daa952ba7f163c4a11628f55a4df523b3ef",
            "0x0000000000000000000000003e122a3db43d225dd5bffd929ad4176ce69117e0",
            "0x000000000000000000000000c5e0b6e472dde70eceffa4c568bd52f2a7a1632a"
          ],
          "data": "0x000000000000000000000000000000000000000000000000000000003ca61aa6",
          "blockHash": "0xf38e202f4c788bb16a81f92d31c8d4314f1eb77708b2d46b39ec507b76a0d8c5",
          "blockNumber": "0x464eeb",
          "transactionHash": "0x16760e03345df3644d03c76e32f0bb0e7c05375aee3c0f79fa326a94765218c0",
          "transactionIndex": "0x9",
          "logIndex": "0x43",
          "removed": false
        },
        {
          "address": "0x16dA4541aD1807f4443d92D26044C1147406EB80",
          "topics": [
            "0x4beccb90f994c31aced7a23b5611020728a23d8ec5cddd1a3e9d97b96fda8666",
            "0x0000000000000000000000003e122a3db43d225dd5bffd929ad4176ce69117e0",
            "0x000000000000000000000000c5e0b6e472dde70eceffa4c568bd52f2a7a1632a"
          ],
          "data": "0x000000000000000000000000000000000000000000000000000000003b9d1d7f000000000000000000000000000000000000000003498b22c1e74a948fb276c0",
          "blockHash": "0xf38e202f4c788bb16a81f92d31c8d4314f1eb77708b2d46b39ec507b76a0d8c5",
          "blockNumber": "0x464eeb",
          "transactionHash": "0x16760e03345df3644d03c76e32f0bb0e7c05375aee3c0f79fa326a94765218c0",
          "transactionIndex": "0x9",
          "logIndex": "0x44",
          "removed": false
        },
        {
          "address": "0x1804Bf30507dc2EB3bDEbbbdd859991EAeF6EefF",
          "topics": [
            "0x8c5be1e5ebec7d5bd14f71427d1e84f3dd0314c0f7b2291e5b200ac8c7c3b925",
            "0x0000000000000000000000003e122a3db43d225dd5bffd929ad4176ce69117e0",
            "0x0000000000000000000000006a763430e347d1e152823d646c700442a4db84aa"
          ],
          "data": "0x0000000000000000000000000000000000000000000000000000000000000000",
          "blockHash": "0xf38e202f4c788bb16a81f92d31c8d4314f1eb77708b2d46b39ec507b76a0d8c5",
          "blockNumber": "0x464eeb",
          "transactionHash": "0x16760e03345df3644d03c76e32f0bb0e7c05375aee3c0f79fa326a94765218c0",
          "transactionIndex": "0x9",
          "logIndex": "0x45",
          "removed": false
        },
        {
          "address": "0x1804Bf30507dc2EB3bDEbbbdd859991EAeF6EefF",
          "topics": [
            "0xddf252ad1be2c89b69c2b068fc378daa952ba7f163c4a11628f55a4df523b3ef",
            "0x0000000000000000000000003e122a3db43d225dd5bffd929ad4176ce69117e0",
            "0x000000000000000000000000c5e0b6e472dde70eceffa4c568bd52f2a7a1632a"
          ],
          "data": "0x0000000000000000000000000000000000000000000000000000000005f5e101",
          "blockHash": "0xf38e202f4c788bb16a81f92d31c8d4314f1eb77708b2d46b39ec507b76a0d8c5",
          "blockNumber": "0x464eeb",
          "transactionHash": "0x16760e03345df3644d03c76e32f0bb0e7c05375aee3c0f79fa326a94765218c0",
          "transactionIndex": "0x9",
          "logIndex": "0x46",
          "removed": false
        },
        {
          "address": "0x6Ae43d3271ff6888e7Fc43Fd7321a503ff738951",
          "topics": [
            "0x44c58d81365b66dd4b1a7f36c25aa97b8c71c361ee4937adc1a00000227db5dd",
            "0x00000000000000000000000029f2d40b0605204364af54ec677bd022da425d03",
            "0x0000000000000000000000003e122a3db43d225dd5bffd929ad4176ce69117e0"
          ],
          "data": "0x",
          "blockHash": "0xf38e202f4c788bb16a81f92d31c8d4314f1eb77708b2d46b39ec507b76a0d8c5",
          "blockNumber": "0x464eeb",
          "transactionHash": "0x16760e03345df3644d03c76e32f0bb0e7c05375aee3c0f79fa326a94765218c0",
          "transactionIndex": "0x9",
          "logIndex": "0x47",
          "removed": false
        },
        {
          "address": "0x6Ae43d3271ff6888e7Fc43Fd7321a503ff738951",
          "topics": [
            "0x00058a56ea94653cdf4f152d227ace22d4c00ad99e2a43f58cb7d9e3feb295f2",
            "0x00000000000000000000000029f2d40b0605204364af54ec677bd022da425d03",
            "0x000000000000000000000000c5e0b6e472dde70eceffa4c568bd52f2a7a1632a"
          ],
          "data": "0x",
          "blockHash": "0xf38e202f4c788bb16a81f92d31c8d4314f1eb77708b2d46b39ec507b76a0d8c5",
          "blockNumber": "0x464eeb",
          "transactionHash": "0x16760e03345df3644d03c76e32f0bb0e7c05375aee3c0f79fa326a94765218c0",
          "transactionIndex": "0x9",
          "logIndex": "0x48",
          "removed": false
        },
        {
          "address": "0x1804Bf30507dc2EB3bDEbbbdd859991EAeF6EefF",
          "topics": [
            "0x4beccb90f994c31aced7a23b5611020728a23d8ec5cddd1a3e9d97b96fda8666",
            "0x0000000000000000000000003e122a3db43d225dd5bffd929ad4176ce69117e0",
            "0x000000000000000000000000c5e0b6e472dde70eceffa4c568bd52f2a7a1632a"
          ],
          "data": "0x0000000000000000000000000000000000000000000000000000000005f5a3fb0000000000000000000000000000000000000000033b4f526b45cedd8b30ec1c",
          "blockHash": "0xf38e202f4c788bb16a81f92d31c8d4314f1eb77708b2d46b39ec507b76a0d8c5",
          "blockNumber": "0x464eeb",
          "transactionHash": "0x16760e03345df3644d03c76e32f0bb0e7c05375aee3c0f79fa326a94765218c0",
          "transactionIndex": "0x9",
          "logIndex": "0x49",
          "removed": false
        },
        {
          "address": "0xAF0F6e8b0Dc5c913bbF4d14c22B4E78Dd14310B6",
          "topics": [
            "0x8c5be1e5ebec7d5bd14f71427d1e84f3dd0314c0f7b2291e5b200ac8c7c3b925",
            "0x0000000000000000000000003e122a3db43d225dd5bffd929ad4176ce69117e0",
            "0x0000000000000000000000006a763430e347d1e152823d646c700442a4db84aa"
          ],
          "data": "0x0000000000000000000000000000000000000000000000000000000000000000",
          "blockHash": "0xf38e202f4c788bb16a81f92d31c8d4314f1eb77708b2d46b39ec507b76a0d8c5",
          "blockNumber": "0x464eeb",
          "transactionHash": "0x16760e03345df3644d03c76e32f0bb0e7c05375aee3c0f79fa326a94765218c0",
          "transactionIndex": "0x9",
          "logIndex": "0x4a",
          "removed": false
        },
        {
          "address": "0xAF0F6e8b0Dc5c913bbF4d14c22B4E78Dd14310B6",
          "topics": [
            "0xddf252ad1be2c89b69c2b068fc378daa952ba7f163c4a11628f55a4df523b3ef",
            "0x0000000000000000000000003e122a3db43d225dd5bffd929ad4176ce69117e0",
            "0x000000000000000000000000c5e0b6e472dde70eceffa4c568bd52f2a7a1632a"
          ],
          "data": "0x00000000000000000000000000000000000000000000000000000000001ec2a9",
          "blockHash": "0xf38e202f4c788bb16a81f92d31c8d4314f1eb77708b2d46b39ec507b76a0d8c5",
          "blockNumber": "0x464eeb",
          "transactionHash": "0x16760e03345df3644d03c76e32f0bb0e7c05375aee3c0f79fa326a94765218c0",
          "transactionIndex": "0x9",
          "logIndex": "0x4b",
          "removed": false
        },
        {
          "address": "0xAF0F6e8b0Dc5c913bbF4d14c22B4E78Dd14310B6",
          "topics": [
            "0x4beccb90f994c31aced7a23b5611020728a23d8ec5cddd1a3e9d97b96fda8666",
            "0x0000000000000000000000003e122a3db43d225dd5bffd929ad4176ce69117e0",
            "0x000000000000000000000000c5e0b6e472dde70eceffa4c568bd52f2a7a1632a"
          ],
          "data": "0x00000000000000000000000000000000000000000000000000000000001e7bfa00000000000000000000000000000000000000000342ac3d88478d1c26d014ae",
          "blockHash": "0xf38e202f4c788bb16a81f92d31c8d4314f1eb77708b2d46b39ec507b76a0d8c5",
          "blockNumber": "0x464eeb",
          "transactionHash": "0x16760e03345df3644d03c76e32f0bb0e7c05375aee3c0f79fa326a94765218c0",
          "transactionIndex": "0x9",
          "logIndex": "0x4c",
          "removed": false
        },
        {
          "address": "0x6b8558764d3b7572136F17174Cb9aB1DDc7E1259",
          "topics": [
            "0x8c5be1e5ebec7d5bd14f71427d1e84f3dd0314c0f7b2291e5b200ac8c7c3b925",
            "0x0000000000000000000000003e122a3db43d225dd5bffd929ad4176ce69117e0",
            "0x0000000000000000000000006a763430e347d1e152823d646c700442a4db84aa"
          ],
          "data": "0x0000000000000000000000000000000000000000000000000000000000000000",
          "blockHash": "0xf38e202f4c788bb16a81f92d31c8d4314f1eb77708b2d46b39ec507b76a0d8c5",
          "blockNumber": "0x464eeb",
          "transactionHash": "0x16760e03345df3644d03c76e32f0bb0e7c05375aee3c0f79fa326a94765218c0",
          "transactionIndex": "0x9",
          "logIndex": "0x4d",
          "removed": false
        },
        {
          "address": "0x6b8558764d3b7572136F17174Cb9aB1DDc7E1259",
          "topics": [
            "0xddf252ad1be2c89b69c2b068fc378daa952ba7f163c4a11628f55a4df523b3ef",
            "0x0000000000000000000000003e122a3db43d225dd5bffd929ad4176ce69117e0",
            "0x000000000000000000000000c5e0b6e472dde70eceffa4c568bd52f2a7a1632a"
          ],
          "data": "0x0000000000000000000000000000000000000000000000056bc75e2d63100000",
          "blockHash": "0xf38e202f4c788bb16a81f92d31c8d4314f1eb77708b2d46b39ec507b76a0d8c5",
          "blockNumber": "0x464eeb",
          "transactionHash": "0x16760e03345df3644d03c76e32f0bb0e7c05375aee3c0f79fa326a94765218c0",
          "transactionIndex": "0x9",
          "logIndex": "0x4e",
          "removed": false
        },
        {
          "address": "0x6Ae43d3271ff6888e7Fc43Fd7321a503ff738951",
          "topics": [
            "0x44c58d81365b66dd4b1a7f36c25aa97b8c71c361ee4937adc1a00000227db5dd",
            "0x00000000000000000000000088541670e55cc00beefd87eb59edd1b7c511ac9a",
            "0x0000000000000000000000003e122a3db43d225dd5bffd929ad4176ce69117e0"
          ],
          "data": "0x",
          "blockHash": "0xf38e202f4c788bb16a81f92d31c8d4314f1eb77708b2d46b39ec507b76a0d8c5",
          "blockNumber": "0x464eeb",
          "transactionHash": "0x16760e03345df3644d03c76e32f0bb0e7c05375aee3c0f79fa326a94765218c0",
          "transactionIndex": "0x9",
          "logIndex": "0x4f",
          "removed": false
        },
        {
          "address": "0x6Ae43d3271ff6888e7Fc43Fd7321a503ff738951",
          "topics": [
            "0x00058a56ea94653cdf4f152d227ace22d4c00ad99e2a43f58cb7d9e3feb295f2",
            "0x00000000000000000000000088541670e55cc00beefd87eb59edd1b7c511ac9a",
            "0x000000000000000000000000c5e0b6e472dde70eceffa4c568bd52f2a7a1632a"
          ],
          "data": "0x",
          "blockHash": "0xf38e202f4c788bb16a81f92d31c8d4314f1eb77708b2d46b39ec507b76a0d8c5",
          "blockNumber": "0x464eeb",
          "transactionHash": "0x16760e03345df3644d03c76e32f0bb0e7c05375aee3c0f79fa326a94765218c0",
          "transactionIndex": "0x9",
          "logIndex": "0x50",
          "removed": false
        },
        {
          "address": "0x6b8558764d3b7572136F17174Cb9aB1DDc7E1259",
          "topics": [
            "0x4beccb90f994c31aced7a23b5611020728a23d8ec5cddd1a3e9d97b96fda8666",
            "0x0000000000000000000000003e122a3db43d225dd5bffd929ad4176ce69117e0",
            "0x000000000000000000000000c5e0b6e472dde70eceffa4c568bd52f2a7a1632a"
          ],
          "data": "0x0000000000000000000000000000000000000000000000056bc74c139cd4f48f0000000000000000000000000000000000000000033b2e4769c27e5b821decfc",
          "blockHash": "0xf38e202f4c788bb16a81f92d31c8d4314f1eb77708b2d46b39ec507b76a0d8c5",
          "blockNumber": "0x464eeb",
          "transactionHash": "0x16760e03345df3644d03c76e32f0bb0e7c05375aee3c0f79fa326a94765218c0",
          "transactionIndex": "0x9",
          "logIndex": "0x51",
          "removed": false
        },
        {
          "address": "0x22675C506A8FC26447aFFfa33640f6af5d4D4cF0",
          "topics": [
            "0xda919360433220e13b51e8c211e490d148e61a3bd53de8c097194e458b97f3e1",
            "0x000000000000000000000000c5e0b6e472dde70eceffa4c568bd52f2a7a1632a",
            "0x0000000000000000000000006a763430e347d1e152823d646c700442a4db84aa",
            "0x000000000000000000000000ff34b3d4aee8ddcd6f9afffb6fe49bd371b8a357"
          ],
          "data": "0x00000000000000000000000000000000000000000000001e3db29b8e93ebcc95",
          "blockHash": "0xf38e202f4c788bb16a81f92d31c8d4314f1eb77708b2d46b39ec507b76a0d8c5",
          "blockNumber": "0x464eeb",
          "transactionHash": "0x16760e03345df3644d03c76e32f0bb0e7c05375aee3c0f79fa326a94765218c0",
          "transactionIndex": "0x9",
          "logIndex": "0x52",
          "removed": false
        },
        {
          "address": "0x22675C506A8FC26447aFFfa33640f6af5d4D4cF0",
          "topics": [
            "0xddf252ad1be2c89b69c2b068fc378daa952ba7f163c4a11628f55a4df523b3ef",
            "0x0000000000000000000000000000000000000000000000000000000000000000",
            "0x000000000000000000000000c5e0b6e472dde70eceffa4c568bd52f2a7a1632a"
          ],
          "data": "0x00000000000000000000000000000000000000000000060f98a48fbb151595a9",
          "blockHash": "0xf38e202f4c788bb16a81f92d31c8d4314f1eb77708b2d46b39ec507b76a0d8c5",
          "blockNumber": "0x464eeb",
          "transactionHash": "0x16760e03345df3644d03c76e32f0bb0e7c05375aee3c0f79fa326a94765218c0",
          "transactionIndex": "0x9",
          "logIndex": "0x53",
          "removed": false
        },
        {
          "address": "0x22675C506A8FC26447aFFfa33640f6af5d4D4cF0",
          "topics": [
            "0x458f5fa412d0f69b08dd84872b0215675cc67bc1d5b6fd93300a1c3878b86196",
            "0x0000000000000000000000006a763430e347d1e152823d646c700442a4db84aa",
            "0x000000000000000000000000c5e0b6e472dde70eceffa4c568bd52f2a7a1632a"
          ],
          "data": "0x00000000000000000000000000000000000000000000060f98a48fbb151595a9000000000000000000000000000000000000000000000000000000005be6f75500000000000000000000000000000000000000000346f47c8e355cf0700802ff",
          "blockHash": "0xf38e202f4c788bb16a81f92d31c8d4314f1eb77708b2d46b39ec507b76a0d8c5",
          "blockNumber": "0x464eeb",
          "transactionHash": "0x16760e03345df3644d03c76e32f0bb0e7c05375aee3c0f79fa326a94765218c0",
          "transactionIndex": "0x9",
          "logIndex": "0x54",
          "removed": false
        },
        {
          "address": "0x6Ae43d3271ff6888e7Fc43Fd7321a503ff738951",
          "topics": [
            "0x804c9b842b2748a22bb64b345453a3de7ca54a6ca45ce00d415894979e22897a",
            "0x000000000000000000000000ff34b3d4aee8ddcd6f9afffb6fe49bd371b8a357"
          ],
          "data": "0x00000000000000000000000000000000000000000001f607972e5bd961317dee0000000000000000000000000000000000000000002a725d53f641dca021479f00000000000000000000000000000000000000000008b39f2c91db99710a3cf50000000000000000000000000000000000000000034543b79aaa21fde6f27ae600000000000000000000000000000000000000000346f47c8e355cf0700802ff",
          "blockHash": "0xf38e202f4c788bb16a81f92d31c8d4314f1eb77708b2d46b39ec507b76a0d8c5",
          "blockNumber": "0x464eeb",
          "transactionHash": "0x16760e03345df3644d03c76e32f0bb0e7c05375aee3c0f79fa326a94765218c0",
          "transactionIndex": "0x9",
          "logIndex": "0x55",
          "removed": false
        },
        {
          "address": "0xFF34B3d4Aee8ddCd6F9AFFFB6Fe49bD371b8a357",
          "topics": [
            "0xddf252ad1be2c89b69c2b068fc378daa952ba7f163c4a11628f55a4df523b3ef",
            "0x00000000000000000000000029598b72eb5cebd806c5dcd549490fda35b13cd8",
            "0x0000000000000000000000006a763430e347d1e152823d646c700442a4db84aa"
          ],
          "data": "0x00000000000000000000000000000000000000000000060f98a48fbab92e9e54",
          "blockHash": "0xf38e202f4c788bb16a81f92d31c8d4314f1eb77708b2d46b39ec507b76a0d8c5",
          "blockNumber": "0x464eeb",
          "transactionHash": "0x16760e03345df3644d03c76e32f0bb0e7c05375aee3c0f79fa326a94765218c0",
          "transactionIndex": "0x9",
          "logIndex": "0x56",
          "removed": false
        },
        {
          "address": "0x6Ae43d3271ff6888e7Fc43Fd7321a503ff738951",
          "topics": [
            "0xb3d084820fb1a9decffb176436bd02558d15fac9b0ddfed8c465bc7359d7dce0",
            "0x000000000000000000000000ff34b3d4aee8ddcd6f9afffb6fe49bd371b8a357",
            "0x000000000000000000000000c5e0b6e472dde70eceffa4c568bd52f2a7a1632a",
            "0x0000000000000000000000000000000000000000000000000000000000000000"
          ],
          "data": "0x0000000000000000000000006a763430e347d1e152823d646c700442a4db84aa00000000000000000000000000000000000000000000060f98a48fbab92e9e54000000000000000000000000000000000000000000000000000000000000000200000000000000000000000000000000000000000008b39f2c91db99710a3cf5",
          "blockHash": "0xf38e202f4c788bb16a81f92d31c8d4314f1eb77708b2d46b39ec507b76a0d8c5",
          "blockNumber": "0x464eeb",
          "transactionHash": "0x16760e03345df3644d03c76e32f0bb0e7c05375aee3c0f79fa326a94765218c0",
          "transactionIndex": "0x9",
          "logIndex": "0x57",
          "removed": false
        },
        {
          "address": "0xFF34B3d4Aee8ddCd6F9AFFFB6Fe49bD371b8a357",
          "topics": [
            "0x8c5be1e5ebec7d5bd14f71427d1e84f3dd0314c0f7b2291e5b200ac8c7c3b925",
            "0x0000000000000000000000006a763430e347d1e152823d646c700442a4db84aa",
            "0x0000000000000000000000006ae43d3271ff6888e7fc43fd7321a503ff738951"
          ],
          "data": "0xffffffffffffffffffffffffffffffffffffffffffffffffffffffffffffffff",
          "blockHash": "0xf38e202f4c788bb16a81f92d31c8d4314f1eb77708b2d46b39ec507b76a0d8c5",
          "blockNumber": "0x464eeb",
          "transactionHash": "0x16760e03345df3644d03c76e32f0bb0e7c05375aee3c0f79fa326a94765218c0",
          "transactionIndex": "0x9",
          "logIndex": "0x58",
          "removed": false
        },
        {
          "address": "0xbEF786E742edB13361ff2f005b901A82c23AA491",
          "topics": [
            "0xda919360433220e13b51e8c211e490d148e61a3bd53de8c097194e458b97f3e1",
            "0x000000000000000000000000c5e0b6e472dde70eceffa4c568bd52f2a7a1632a",
            "0x0000000000000000000000006a763430e347d1e152823d646c700442a4db84aa",
            "0x000000000000000000000000ff34b3d4aee8ddcd6f9afffb6fe49bd371b8a357"
          ],
          "data": "0x000000000000000000000000000000000000000000000000056a61ae6e9cf4d6",
          "blockHash": "0xf38e202f4c788bb16a81f92d31c8d4314f1eb77708b2d46b39ec507b76a0d8c5",
          "blockNumber": "0x464eeb",
          "transactionHash": "0x16760e03345df3644d03c76e32f0bb0e7c05375aee3c0f79fa326a94765218c0",
          "transactionIndex": "0x9",
          "logIndex": "0x59",
          "removed": false
        },
        {
          "address": "0xbEF786E742edB13361ff2f005b901A82c23AA491",
          "topics": [
            "0xddf252ad1be2c89b69c2b068fc378daa952ba7f163c4a11628f55a4df523b3ef",
            "0x0000000000000000000000000000000000000000000000000000000000000000",
            "0x000000000000000000000000c5e0b6e472dde70eceffa4c568bd52f2a7a1632a"
          ],
          "data": "0x00000000000000000000000000000000000000000000000115dc09f5b6b14e6f",
          "blockHash": "0xf38e202f4c788bb16a81f92d31c8d4314f1eb77708b2d46b39ec507b76a0d8c5",
          "blockNumber": "0x464eeb",
          "transactionHash": "0x16760e03345df3644d03c76e32f0bb0e7c05375aee3c0f79fa326a94765218c0",
          "transactionIndex": "0x9",
          "logIndex": "0x5a",
          "removed": false
        },
        {
          "address": "0xbEF786E742edB13361ff2f005b901A82c23AA491",
          "topics": [
            "0xc16f4e4ca34d790de4c656c72fd015c667d688f20be64eea360618545c4c530f",
            "0x0000000000000000000000006a763430e347d1e152823d646c700442a4db84aa",
            "0x000000000000000000000000c5e0b6e472dde70eceffa4c568bd52f2a7a1632a"
          ],
          "data": "0x00000000000000000000000000000000000000000000000115dc09f5b6b14e6f0000000000000000000000000000000000000000000000000000071938f3a72200000000000000000000000000000000000000000000000000000000018b01640000000000000000000000000000000000000000002a725d53bcb8363b0d900b0000000000000000000000000000000000000000002c87f1aae32db9ec744ec8000000000000000000000000000000000000000000000b7a8f1473c7c8fbaae8",
          "blockHash": "0xf38e202f4c788bb16a81f92d31c8d4314f1eb77708b2d46b39ec507b76a0d8c5",
          "blockNumber": "0x464eeb",
          "transactionHash": "0x16760e03345df3644d03c76e32f0bb0e7c05375aee3c0f79fa326a94765218c0",
          "transactionIndex": "0x9",
          "logIndex": "0x5b",
          "removed": false
        },
        {
          "address": "0x6Ae43d3271ff6888e7Fc43Fd7321a503ff738951",
          "topics": [
            "0x804c9b842b2748a22bb64b345453a3de7ca54a6ca45ce00d415894979e22897a",
            "0x000000000000000000000000ff34b3d4aee8ddcd6f9afffb6fe49bd371b8a357"
          ],
          "data": "0x00000000000000000000000000000000000000000001f612567c296461be94830000000000000000000000000000000000000000002a725e8b66314e722ed34000000000000000000000000000000000000000000008b3a8e811572801769a010000000000000000000000000000000000000000034543b79aaa21fde6f27ae600000000000000000000000000000000000000000346f47c8e355cf0700802ff",
          "blockHash": "0xf38e202f4c788bb16a81f92d31c8d4314f1eb77708b2d46b39ec507b76a0d8c5",
          "blockNumber": "0x464eeb",
          "transactionHash": "0x16760e03345df3644d03c76e32f0bb0e7c05375aee3c0f79fa326a94765218c0",
          "transactionIndex": "0x9",
          "logIndex": "0x5c",
          "removed": false
        },
        {
          "address": "0xFF34B3d4Aee8ddCd6F9AFFFB6Fe49bD371b8a357",
          "topics": [
            "0xddf252ad1be2c89b69c2b068fc378daa952ba7f163c4a11628f55a4df523b3ef",
            "0x00000000000000000000000029598b72eb5cebd806c5dcd549490fda35b13cd8",
            "0x0000000000000000000000006a763430e347d1e152823d646c700442a4db84aa"
          ],
          "data": "0x00000000000000000000000000000000000000000000000115dc09f5b5264d0b",
          "blockHash": "0xf38e202f4c788bb16a81f92d31c8d4314f1eb77708b2d46b39ec507b76a0d8c5",
          "blockNumber": "0x464eeb",
          "transactionHash": "0x16760e03345df3644d03c76e32f0bb0e7c05375aee3c0f79fa326a94765218c0",
          "transactionIndex": "0x9",
          "logIndex": "0x5d",
          "removed": false
        },
        {
          "address": "0x6Ae43d3271ff6888e7Fc43Fd7321a503ff738951",
          "topics": [
            "0xb3d084820fb1a9decffb176436bd02558d15fac9b0ddfed8c465bc7359d7dce0",
            "0x000000000000000000000000ff34b3d4aee8ddcd6f9afffb6fe49bd371b8a357",
            "0x000000000000000000000000c5e0b6e472dde70eceffa4c568bd52f2a7a1632a",
            "0x0000000000000000000000000000000000000000000000000000000000000000"
          ],
          "data": "0x0000000000000000000000006a763430e347d1e152823d646c700442a4db84aa00000000000000000000000000000000000000000000000115dc09f5b5264d0b00000000000000000000000000000000000000000000000000000000000000010000000000000000000000000000000000000000002a725d53f641dca021479f",
          "blockHash": "0xf38e202f4c788bb16a81f92d31c8d4314f1eb77708b2d46b39ec507b76a0d8c5",
          "blockNumber": "0x464eeb",
          "transactionHash": "0x16760e03345df3644d03c76e32f0bb0e7c05375aee3c0f79fa326a94765218c0",
          "transactionIndex": "0x9",
          "logIndex": "0x5e",
          "removed": false
        },
        {
          "address": "0xFF34B3d4Aee8ddCd6F9AFFFB6Fe49bD371b8a357",
          "topics": [
            "0x8c5be1e5ebec7d5bd14f71427d1e84f3dd0314c0f7b2291e5b200ac8c7c3b925",
            "0x0000000000000000000000006a763430e347d1e152823d646c700442a4db84aa",
            "0x0000000000000000000000006ae43d3271ff6888e7fc43fd7321a503ff738951"
          ],
          "data": "0xffffffffffffffffffffffffffffffffffffffffffffffffffffffffffffffff",
          "blockHash": "0xf38e202f4c788bb16a81f92d31c8d4314f1eb77708b2d46b39ec507b76a0d8c5",
          "blockNumber": "0x464eeb",
          "transactionHash": "0x16760e03345df3644d03c76e32f0bb0e7c05375aee3c0f79fa326a94765218c0",
          "transactionIndex": "0x9",
          "logIndex": "0x5f",
          "removed": false
        },
        {
          "address": "0x34a4d932E722b9dFb492B9D8131127690CE2430B",
          "topics": [
            "0xda919360433220e13b51e8c211e490d148e61a3bd53de8c097194e458b97f3e1",
            "0x000000000000000000000000c5e0b6e472dde70eceffa4c568bd52f2a7a1632a",
            "0x0000000000000000000000006a763430e347d1e152823d646c700442a4db84aa",
            "0x000000000000000000000000f8fb3713d459d7c1018bd0a49d19b4c44290ebe5"
          ],
          "data": "0x0000000000000000000000000000000000000000000000000000013e843be25a",
          "blockHash": "0xf38e202f4c788bb16a81f92d31c8d4314f1eb77708b2d46b39ec507b76a0d8c5",
          "blockNumber": "0x464eeb",
          "transactionHash": "0x16760e03345df3644d03c76e32f0bb0e7c05375aee3c0f79fa326a94765218c0",
          "transactionIndex": "0x9",
          "logIndex": "0x60",
          "removed": false
        },
        {
          "address": "0x34a4d932E722b9dFb492B9D8131127690CE2430B",
          "topics": [
            "0xddf252ad1be2c89b69c2b068fc378daa952ba7f163c4a11628f55a4df523b3ef",
            "0x0000000000000000000000000000000000000000000000000000000000000000",
            "0x000000000000000000000000c5e0b6e472dde70eceffa4c568bd52f2a7a1632a"
          ],
          "data": "0x00000000000000000000000000000000000000000000000000003fd6593fb722",
          "blockHash": "0xf38e202f4c788bb16a81f92d31c8d4314f1eb77708b2d46b39ec507b76a0d8c5",
          "blockNumber": "0x464eeb",
          "transactionHash": "0x16760e03345df3644d03c76e32f0bb0e7c05375aee3c0f79fa326a94765218c0",
          "transactionIndex": "0x9",
          "logIndex": "0x61",
          "removed": false
        },
        {
          "address": "0x34a4d932E722b9dFb492B9D8131127690CE2430B",
          "topics": [
            "0x458f5fa412d0f69b08dd84872b0215675cc67bc1d5b6fd93300a1c3878b86196",
            "0x0000000000000000000000006a763430e347d1e152823d646c700442a4db84aa",
            "0x000000000000000000000000c5e0b6e472dde70eceffa4c568bd52f2a7a1632a"
          ],
          "data": "0x00000000000000000000000000000000000000000000000000003fd6593fb7220000000000000000000000000000000000000000000000000000000000041e42000000000000000000000000000000000000000003a043e4063f889ed41f1e8e",
          "blockHash": "0xf38e202f4c788bb16a81f92d31c8d4314f1eb77708b2d46b39ec507b76a0d8c5",
          "blockNumber": "0x464eeb",
          "transactionHash": "0x16760e03345df3644d03c76e32f0bb0e7c05375aee3c0f79fa326a94765218c0",
          "transactionIndex": "0x9",
          "logIndex": "0x62",
          "removed": false
        },
        {
          "address": "0x6Ae43d3271ff6888e7Fc43Fd7321a503ff738951",
          "topics": [
            "0x804c9b842b2748a22bb64b345453a3de7ca54a6ca45ce00d415894979e22897a",
            "0x000000000000000000000000f8fb3713d459d7c1018bd0a49d19b4c44290ebe5"
          ],
          "data": "0x000000000000000000000000000000000000000006ddbc87f62814e3ce1cddf6000000000000000000000000000000000000000009539f15fc77ccd84b2b79d6000000000000000000000000000000000000000009092cd835c3c14db12b79d60000000000000000000000000000000000000000038783a257d78fbb4332503c000000000000000000000000000000000000000003a043e4063f889ed41f1e8e",
          "blockHash": "0xf38e202f4c788bb16a81f92d31c8d4314f1eb77708b2d46b39ec507b76a0d8c5",
          "blockNumber": "0x464eeb",
          "transactionHash": "0x16760e03345df3644d03c76e32f0bb0e7c05375aee3c0f79fa326a94765218c0",
          "transactionIndex": "0x9",
          "logIndex": "0x63",
          "removed": false
        },
        {
          "address": "0xf8Fb3713D459D7C1018BD0A49D19b4C44290EBE5",
          "topics": [
            "0xddf252ad1be2c89b69c2b068fc378daa952ba7f163c4a11628f55a4df523b3ef",
            "0x0000000000000000000000003ffaf50d4f4e96eb78f2407c090b72e86ecaed24",
            "0x0000000000000000000000006a763430e347d1e152823d646c700442a4db84aa"
          ],
          "data": "0x00000000000000000000000000000000000000000000000000003fd6593b98e0",
          "blockHash": "0xf38e202f4c788bb16a81f92d31c8d4314f1eb77708b2d46b39ec507b76a0d8c5",
          "blockNumber": "0x464eeb",
          "transactionHash": "0x16760e03345df3644d03c76e32f0bb0e7c05375aee3c0f79fa326a94765218c0",
          "transactionIndex": "0x9",
          "logIndex": "0x64",
          "removed": false
        },
        {
          "address": "0x6Ae43d3271ff6888e7Fc43Fd7321a503ff738951",
          "topics": [
            "0xb3d084820fb1a9decffb176436bd02558d15fac9b0ddfed8c465bc7359d7dce0",
            "0x000000000000000000000000f8fb3713d459d7c1018bd0a49d19b4c44290ebe5",
            "0x000000000000000000000000c5e0b6e472dde70eceffa4c568bd52f2a7a1632a",
            "0x0000000000000000000000000000000000000000000000000000000000000000"
          ],
          "data": "0x0000000000000000000000006a763430e347d1e152823d646c700442a4db84aa00000000000000000000000000000000000000000000000000003fd6593b98e00000000000000000000000000000000000000000000000000000000000000002000000000000000000000000000000000000000009092cd835c3c14db12b79d6",
          "blockHash": "0xf38e202f4c788bb16a81f92d31c8d4314f1eb77708b2d46b39ec507b76a0d8c5",
          "blockNumber": "0x464eeb",
          "transactionHash": "0x16760e03345df3644d03c76e32f0bb0e7c05375aee3c0f79fa326a94765218c0",
          "transactionIndex": "0x9",
          "logIndex": "0x65",
          "removed": false
        },
        {
          "address": "0xf8Fb3713D459D7C1018BD0A49D19b4C44290EBE5",
          "topics": [
            "0x8c5be1e5ebec7d5bd14f71427d1e84f3dd0314c0f7b2291e5b200ac8c7c3b925",
            "0x0000000000000000000000006a763430e347d1e152823d646c700442a4db84aa",
            "0x0000000000000000000000006ae43d3271ff6888e7fc43fd7321a503ff738951"
          ],
          "data": "0xffffffffffffffffffffffffffffffffffffffffffffffffffffffffffffffff",
          "blockHash": "0xf38e202f4c788bb16a81f92d31c8d4314f1eb77708b2d46b39ec507b76a0d8c5",
          "blockNumber": "0x464eeb",
          "transactionHash": "0x16760e03345df3644d03c76e32f0bb0e7c05375aee3c0f79fa326a94765218c0",
          "transactionIndex": "0x9",
          "logIndex": "0x66",
          "removed": false
        },
        {
          "address": "0x9844386d29EEd970B9F6a2B9a676083b0478210e",
          "topics": [
            "0xda919360433220e13b51e8c211e490d148e61a3bd53de8c097194e458b97f3e1",
            "0x000000000000000000000000c5e0b6e472dde70eceffa4c568bd52f2a7a1632a",
            "0x0000000000000000000000006a763430e347d1e152823d646c700442a4db84aa",
            "0x000000000000000000000000aa8e23fb1079ea71e0a56f48a2aa51851d8433d0"
          ],
          "data": "0x00000000000000000000000000000000000000000000000000000000166cc10c",
          "blockHash": "0xf38e202f4c788bb16a81f92d31c8d4314f1eb77708b2d46b39ec507b76a0d8c5",
          "blockNumber": "0x464eeb",
          "transactionHash": "0x16760e03345df3644d03c76e32f0bb0e7c05375aee3c0f79fa326a94765218c0",
          "transactionIndex": "0x9",
          "logIndex": "0x67",
          "removed": false
        },
        {
          "address": "0x9844386d29EEd970B9F6a2B9a676083b0478210e",
          "topics": [
            "0xddf252ad1be2c89b69c2b068fc378daa952ba7f163c4a11628f55a4df523b3ef",
            "0x0000000000000000000000000000000000000000000000000000000000000000",
            "0x000000000000000000000000c5e0b6e472dde70eceffa4c568bd52f2a7a1632a"
          ],
          "data": "0x000000000000000000000000000000000000000000000000000000047e90d831",
          "blockHash": "0xf38e202f4c788bb16a81f92d31c8d4314f1eb77708b2d46b39ec507b76a0d8c5",
          "blockNumber": "0x464eeb",
          "transactionHash": "0x16760e03345df3644d03c76e32f0bb0e7c05375aee3c0f79fa326a94765218c0",
          "transactionIndex": "0x9",
          "logIndex": "0x68",
          "removed": false
        },
        {
          "address": "0x9844386d29EEd970B9F6a2B9a676083b0478210e",
          "topics": [
            "0x458f5fa412d0f69b08dd84872b0215675cc67bc1d5b6fd93300a1c3878b86196",
            "0x0000000000000000000000006a763430e347d1e152823d646c700442a4db84aa",
            "0x000000000000000000000000c5e0b6e472dde70eceffa4c568bd52f2a7a1632a"
          ],
          "data": "0x000000000000000000000000000000000000000000000000000000047e90d83100000000000000000000000000000000000000000000000000000000000000000000000000000000000000000000000000000000034505630f83f324e4248d66",
          "blockHash": "0xf38e202f4c788bb16a81f92d31c8d4314f1eb77708b2d46b39ec507b76a0d8c5",
          "blockNumber": "0x464eeb",
          "transactionHash": "0x16760e03345df3644d03c76e32f0bb0e7c05375aee3c0f79fa326a94765218c0",
          "transactionIndex": "0x9",
          "logIndex": "0x69",
          "removed": false
        },
        {
          "address": "0x6Ae43d3271ff6888e7Fc43Fd7321a503ff738951",
          "topics": [
            "0x804c9b842b2748a22bb64b345453a3de7ca54a6ca45ce00d415894979e22897a",
            "0x000000000000000000000000aa8e23fb1079ea71e0a56f48a2aa51851d8433d0"
          ],
          "data": "0x00000000000000000000000000000000000000000000039538aa433c653e9a1a00000000000000000000000000000000000000000029614b22a472d88470ba3a000000000000000000000000000000000000000000002b0da20363789385d1cf00000000000000000000000000000000000000000342ac3d88478d1c26d014ae0000000000000000000000000000000000000000034505630f83f324e4248d66",
          "blockHash": "0xf38e202f4c788bb16a81f92d31c8d4314f1eb77708b2d46b39ec507b76a0d8c5",
          "blockNumber": "0x464eeb",
          "transactionHash": "0x16760e03345df3644d03c76e32f0bb0e7c05375aee3c0f79fa326a94765218c0",
          "transactionIndex": "0x9",
          "logIndex": "0x6a",
          "removed": false
        },
        {
          "address": "0xaA8E23Fb1079EA71e0a56F48a2aA51851D8433D0",
          "topics": [
            "0xddf252ad1be2c89b69c2b068fc378daa952ba7f163c4a11628f55a4df523b3ef",
            "0x000000000000000000000000af0f6e8b0dc5c913bbf4d14c22b4e78dd14310b6",
            "0x0000000000000000000000006a763430e347d1e152823d646c700442a4db84aa"
          ],
          "data": "0x000000000000000000000000000000000000000000000000000000047e90d831",
          "blockHash": "0xf38e202f4c788bb16a81f92d31c8d4314f1eb77708b2d46b39ec507b76a0d8c5",
          "blockNumber": "0x464eeb",
          "transactionHash": "0x16760e03345df3644d03c76e32f0bb0e7c05375aee3c0f79fa326a94765218c0",
          "transactionIndex": "0x9",
          "logIndex": "0x6b",
          "removed": false
        },
        {
          "address": "0x6Ae43d3271ff6888e7Fc43Fd7321a503ff738951",
          "topics": [
            "0xb3d084820fb1a9decffb176436bd02558d15fac9b0ddfed8c465bc7359d7dce0",
            "0x000000000000000000000000aa8e23fb1079ea71e0a56f48a2aa51851d8433d0",
            "0x000000000000000000000000c5e0b6e472dde70eceffa4c568bd52f2a7a1632a",
            "0x0000000000000000000000000000000000000000000000000000000000000000"
          ],
          "data": "0x0000000000000000000000006a763430e347d1e152823d646c700442a4db84aa000000000000000000000000000000000000000000000000000000047e90d8310000000000000000000000000000000000000000000000000000000000000002000000000000000000000000000000000000000000002b0da20363789385d1cf",
          "blockHash": "0xf38e202f4c788bb16a81f92d31c8d4314f1eb77708b2d46b39ec507b76a0d8c5",
          "blockNumber": "0x464eeb",
          "transactionHash": "0x16760e03345df3644d03c76e32f0bb0e7c05375aee3c0f79fa326a94765218c0",
          "transactionIndex": "0x9",
          "logIndex": "0x6c",
          "removed": false
        },
        {
          "address": "0xaA8E23Fb1079EA71e0a56F48a2aA51851D8433D0",
          "topics": [
            "0x8c5be1e5ebec7d5bd14f71427d1e84f3dd0314c0f7b2291e5b200ac8c7c3b925",
            "0x0000000000000000000000006a763430e347d1e152823d646c700442a4db84aa",
            "0x0000000000000000000000006ae43d3271ff6888e7fc43fd7321a503ff738951"
          ],
          "data": "0xffffffffffffffffffffffffffffffffffffffffffffffffffffffffffffffff",
          "blockHash": "0xf38e202f4c788bb16a81f92d31c8d4314f1eb77708b2d46b39ec507b76a0d8c5",
          "blockNumber": "0x464eeb",
          "transactionHash": "0x16760e03345df3644d03c76e32f0bb0e7c05375aee3c0f79fa326a94765218c0",
          "transactionIndex": "0x9",
          "logIndex": "0x6d",
          "removed": false
        },
        {
          "address": "0xEAF54fA3b1C7243033C2893c6B807f9cEaBCf0AF",
          "topics": [
            "0xda919360433220e13b51e8c211e490d148e61a3bd53de8c097194e458b97f3e1",
            "0x000000000000000000000000c5e0b6e472dde70eceffa4c568bd52f2a7a1632a",
            "0x0000000000000000000000006a763430e347d1e152823d646c700442a4db84aa",
            "0x000000000000000000000000aa8e23fb1079ea71e0a56f48a2aa51851d8433d0"
          ],
          "data": "0x000000000000000000000000000000000000000000000000000000000002fa2b",
          "blockHash": "0xf38e202f4c788bb16a81f92d31c8d4314f1eb77708b2d46b39ec507b76a0d8c5",
          "blockNumber": "0x464eeb",
          "transactionHash": "0x16760e03345df3644d03c76e32f0bb0e7c05375aee3c0f79fa326a94765218c0",
          "transactionIndex": "0x9",
          "logIndex": "0x6e",
          "removed": false
        },
        {
          "address": "0xEAF54fA3b1C7243033C2893c6B807f9cEaBCf0AF",
          "topics": [
            "0xddf252ad1be2c89b69c2b068fc378daa952ba7f163c4a11628f55a4df523b3ef",
            "0x0000000000000000000000000000000000000000000000000000000000000000",
            "0x000000000000000000000000c5e0b6e472dde70eceffa4c568bd52f2a7a1632a"
          ],
          "data": "0x000000000000000000000000000000000000000000000000000000000098c146",
          "blockHash": "0xf38e202f4c788bb16a81f92d31c8d4314f1eb77708b2d46b39ec507b76a0d8c5",
          "blockNumber": "0x464eeb",
          "transactionHash": "0x16760e03345df3644d03c76e32f0bb0e7c05375aee3c0f79fa326a94765218c0",
          "transactionIndex": "0x9",
          "logIndex": "0x6f",
          "removed": false
        },
        {
          "address": "0xEAF54fA3b1C7243033C2893c6B807f9cEaBCf0AF",
          "topics": [
            "0xc16f4e4ca34d790de4c656c72fd015c667d688f20be64eea360618545c4c530f",
            "0x0000000000000000000000006a763430e347d1e152823d646c700442a4db84aa",
            "0x000000000000000000000000c5e0b6e472dde70eceffa4c568bd52f2a7a1632a"
          ],
          "data": "0x000000000000000000000000000000000000000000000000000000000098c1460000000000000000000000000000000000000000000000000000000000000004000000000000000000000000000000000000000000000000000000000000000000000000000000000000000000000000000000000029614b2c2de6c9ff21370a0000000000000000000000000000000000000000002b616f57c65ca1d8eee7290000000000000000000000000000000000000000000000000000001e26f245da",
          "blockHash": "0xf38e202f4c788bb16a81f92d31c8d4314f1eb77708b2d46b39ec507b76a0d8c5",
          "blockNumber": "0x464eeb",
          "transactionHash": "0x16760e03345df3644d03c76e32f0bb0e7c05375aee3c0f79fa326a94765218c0",
          "transactionIndex": "0x9",
          "logIndex": "0x70",
          "removed": false
        },
        {
          "address": "0x6Ae43d3271ff6888e7Fc43Fd7321a503ff738951",
          "topics": [
            "0x804c9b842b2748a22bb64b345453a3de7ca54a6ca45ce00d415894979e22897a",
            "0x000000000000000000000000aa8e23fb1079ea71e0a56f48a2aa51851d8433d0"
          ],
          "data": "0x000000000000000000000000000000000000000000000395494012be4304304700000000000000000000000000000000000000000029614b24ae64cffefd75c0000000000000000000000000000000000000000000002b0db252f33467ebae0000000000000000000000000000000000000000000342ac3d88478d1c26d014ae0000000000000000000000000000000000000000034505630f83f324e4248d66",
          "blockHash": "0xf38e202f4c788bb16a81f92d31c8d4314f1eb77708b2d46b39ec507b76a0d8c5",
          "blockNumber": "0x464eeb",
          "transactionHash": "0x16760e03345df3644d03c76e32f0bb0e7c05375aee3c0f79fa326a94765218c0",
          "transactionIndex": "0x9",
          "logIndex": "0x71",
          "removed": false
        },
        {
          "address": "0xaA8E23Fb1079EA71e0a56F48a2aA51851D8433D0",
          "topics": [
            "0xddf252ad1be2c89b69c2b068fc378daa952ba7f163c4a11628f55a4df523b3ef",
            "0x000000000000000000000000af0f6e8b0dc5c913bbf4d14c22b4e78dd14310b6",
            "0x0000000000000000000000006a763430e347d1e152823d646c700442a4db84aa"
          ],
          "data": "0x000000000000000000000000000000000000000000000000000000000098c146",
          "blockHash": "0xf38e202f4c788bb16a81f92d31c8d4314f1eb77708b2d46b39ec507b76a0d8c5",
          "blockNumber": "0x464eeb",
          "transactionHash": "0x16760e03345df3644d03c76e32f0bb0e7c05375aee3c0f79fa326a94765218c0",
          "transactionIndex": "0x9",
          "logIndex": "0x72",
          "removed": false
        },
        {
          "address": "0x6Ae43d3271ff6888e7Fc43Fd7321a503ff738951",
          "topics": [
            "0xb3d084820fb1a9decffb176436bd02558d15fac9b0ddfed8c465bc7359d7dce0",
            "0x000000000000000000000000aa8e23fb1079ea71e0a56f48a2aa51851d8433d0",
            "0x000000000000000000000000c5e0b6e472dde70eceffa4c568bd52f2a7a1632a",
            "0x0000000000000000000000000000000000000000000000000000000000000000"
          ],
          "data": "0x0000000000000000000000006a763430e347d1e152823d646c700442a4db84aa000000000000000000000000000000000000000000000000000000000098c146000000000000000000000000000000000000000000000000000000000000000100000000000000000000000000000000000000000029614b22a472d88470ba3a",
          "blockHash": "0xf38e202f4c788bb16a81f92d31c8d4314f1eb77708b2d46b39ec507b76a0d8c5",
          "blockNumber": "0x464eeb",
          "transactionHash": "0x16760e03345df3644d03c76e32f0bb0e7c05375aee3c0f79fa326a94765218c0",
          "transactionIndex": "0x9",
          "logIndex": "0x73",
          "removed": false
        },
        {
          "address": "0xaA8E23Fb1079EA71e0a56F48a2aA51851D8433D0",
          "topics": [
            "0x8c5be1e5ebec7d5bd14f71427d1e84f3dd0314c0f7b2291e5b200ac8c7c3b925",
            "0x0000000000000000000000006a763430e347d1e152823d646c700442a4db84aa",
            "0x0000000000000000000000006ae43d3271ff6888e7fc43fd7321a503ff738951"
          ],
          "data": "0xffffffffffffffffffffffffffffffffffffffffffffffffffffffffffffffff",
          "blockHash": "0xf38e202f4c788bb16a81f92d31c8d4314f1eb77708b2d46b39ec507b76a0d8c5",
          "blockNumber": "0x464eeb",
          "transactionHash": "0x16760e03345df3644d03c76e32f0bb0e7c05375aee3c0f79fa326a94765218c0",
          "transactionIndex": "0x9",
          "logIndex": "0x74",
          "removed": false
        },
        {
          "address": "0x94482C7A7477196259D8a0f74fB853277Fa5a75b",
          "topics": [
            "0xda919360433220e13b51e8c211e490d148e61a3bd53de8c097194e458b97f3e1",
            "0x000000000000000000000000c5e0b6e472dde70eceffa4c568bd52f2a7a1632a",
            "0x0000000000000000000000006a763430e347d1e152823d646c700442a4db84aa",
            "0x0000000000000000000000006d906e526a4e2ca02097ba9d0caa3c382f52278e"
          ],
          "data": "0x0000000000000000000000000000000000000000000000000000000000000004",
          "blockHash": "0xf38e202f4c788bb16a81f92d31c8d4314f1eb77708b2d46b39ec507b76a0d8c5",
          "blockNumber": "0x464eeb",
          "transactionHash": "0x16760e03345df3644d03c76e32f0bb0e7c05375aee3c0f79fa326a94765218c0",
          "transactionIndex": "0x9",
          "logIndex": "0x75",
          "removed": false
        },
        {
          "address": "0x94482C7A7477196259D8a0f74fB853277Fa5a75b",
          "topics": [
            "0xddf252ad1be2c89b69c2b068fc378daa952ba7f163c4a11628f55a4df523b3ef",
            "0x0000000000000000000000000000000000000000000000000000000000000000",
            "0x000000000000000000000000c5e0b6e472dde70eceffa4c568bd52f2a7a1632a"
          ],
          "data": "0x00000000000000000000000000000000000000000000000000000000000000c9",
          "blockHash": "0xf38e202f4c788bb16a81f92d31c8d4314f1eb77708b2d46b39ec507b76a0d8c5",
          "blockNumber": "0x464eeb",
          "transactionHash": "0x16760e03345df3644d03c76e32f0bb0e7c05375aee3c0f79fa326a94765218c0",
          "transactionIndex": "0x9",
          "logIndex": "0x76",
          "removed": false
        },
        {
          "address": "0x94482C7A7477196259D8a0f74fB853277Fa5a75b",
          "topics": [
            "0x458f5fa412d0f69b08dd84872b0215675cc67bc1d5b6fd93300a1c3878b86196",
            "0x0000000000000000000000006a763430e347d1e152823d646c700442a4db84aa",
            "0x000000000000000000000000c5e0b6e472dde70eceffa4c568bd52f2a7a1632a"
          ],
          "data": "0x00000000000000000000000000000000000000000000000000000000000000c900000000000000000000000000000000000000000000000000000000000000000000000000000000000000000000000000000000034e799b2869d13dee850853",
          "blockHash": "0xf38e202f4c788bb16a81f92d31c8d4314f1eb77708b2d46b39ec507b76a0d8c5",
          "blockNumber": "0x464eeb",
          "transactionHash": "0x16760e03345df3644d03c76e32f0bb0e7c05375aee3c0f79fa326a94765218c0",
          "transactionIndex": "0x9",
          "logIndex": "0x77",
          "removed": false
        },
        {
          "address": "0x6Ae43d3271ff6888e7Fc43Fd7321a503ff738951",
          "topics": [
            "0x804c9b842b2748a22bb64b345453a3de7ca54a6ca45ce00d415894979e22897a",
            "0x0000000000000000000000006d906e526a4e2ca02097ba9d0caa3c382f52278e"
          ],
          "data": "0x0000000000000000000000000000000000000000014b72ba08455505223144f20000000000000000000000000000000000000000018c28464e04fc66c1a834440000000000000000000000000000000000000000017fbfe6ace6fa7a52a834440000000000000000000000000000000000000000034b1ca28b72a81a3d5d35dd0000000000000000000000000000000000000000034e799b2869d13dee850853",
          "blockHash": "0xf38e202f4c788bb16a81f92d31c8d4314f1eb77708b2d46b39ec507b76a0d8c5",
          "blockNumber": "0x464eeb",
          "transactionHash": "0x16760e03345df3644d03c76e32f0bb0e7c05375aee3c0f79fa326a94765218c0",
          "transactionIndex": "0x9",
          "logIndex": "0x78",
          "removed": false
        },
        {
          "address": "0x6d906e526a4e2Ca02097BA9d0caA3c382F52278E",
          "topics": [
            "0xddf252ad1be2c89b69c2b068fc378daa952ba7f163c4a11628f55a4df523b3ef",
            "0x000000000000000000000000b20691021f9aced8631edaa3c0cd2949eb45662d",
            "0x0000000000000000000000006a763430e347d1e152823d646c700442a4db84aa"
          ],
          "data": "0x00000000000000000000000000000000000000000000000000000000000000c9",
          "blockHash": "0xf38e202f4c788bb16a81f92d31c8d4314f1eb77708b2d46b39ec507b76a0d8c5",
          "blockNumber": "0x464eeb",
          "transactionHash": "0x16760e03345df3644d03c76e32f0bb0e7c05375aee3c0f79fa326a94765218c0",
          "transactionIndex": "0x9",
          "logIndex": "0x79",
          "removed": false
        },
        {
          "address": "0x6Ae43d3271ff6888e7Fc43Fd7321a503ff738951",
          "topics": [
            "0xb3d084820fb1a9decffb176436bd02558d15fac9b0ddfed8c465bc7359d7dce0",
            "0x0000000000000000000000006d906e526a4e2ca02097ba9d0caa3c382f52278e",
            "0x000000000000000000000000c5e0b6e472dde70eceffa4c568bd52f2a7a1632a",
            "0x0000000000000000000000000000000000000000000000000000000000000000"
          ],
          "data": "0x0000000000000000000000006a763430e347d1e152823d646c700442a4db84aa00000000000000000000000000000000000000000000000000000000000000c900000000000000000000000000000000000000000000000000000000000000020000000000000000000000000000000000000000017fbfe6ace6fa7a52a83444",
          "blockHash": "0xf38e202f4c788bb16a81f92d31c8d4314f1eb77708b2d46b39ec507b76a0d8c5",
          "blockNumber": "0x464eeb",
          "transactionHash": "0x16760e03345df3644d03c76e32f0bb0e7c05375aee3c0f79fa326a94765218c0",
          "transactionIndex": "0x9",
          "logIndex": "0x7a",
          "removed": false
        },
        {
          "address": "0x6d906e526a4e2Ca02097BA9d0caA3c382F52278E",
          "topics": [
            "0x8c5be1e5ebec7d5bd14f71427d1e84f3dd0314c0f7b2291e5b200ac8c7c3b925",
            "0x0000000000000000000000006a763430e347d1e152823d646c700442a4db84aa",
            "0x0000000000000000000000006ae43d3271ff6888e7fc43fd7321a503ff738951"
          ],
          "data": "0xffffffffffffffffffffffffffffffffffffffffffffffffffffffffffffffff",
          "blockHash": "0xf38e202f4c788bb16a81f92d31c8d4314f1eb77708b2d46b39ec507b76a0d8c5",
          "blockNumber": "0x464eeb",
          "transactionHash": "0x16760e03345df3644d03c76e32f0bb0e7c05375aee3c0f79fa326a94765218c0",
          "transactionIndex": "0x9",
          "logIndex": "0x7b",
          "removed": false
        },
        {
          "address": "0x08878209484D8178DD1FFA50AB1689F21aDBB856",
          "topics": [
            "0xda919360433220e13b51e8c211e490d148e61a3bd53de8c097194e458b97f3e1",
            "0x000000000000000000000000c5e0b6e472dde70eceffa4c568bd52f2a7a1632a",
            "0x0000000000000000000000006a763430e347d1e152823d646c700442a4db84aa",
            "0x0000000000000000000000006d906e526a4e2ca02097ba9d0caa3c382f52278e"
          ],
          "data": "0x000000000000000000000000000000000000000000000000000000000000000e",
          "blockHash": "0xf38e202f4c788bb16a81f92d31c8d4314f1eb77708b2d46b39ec507b76a0d8c5",
          "blockNumber": "0x464eeb",
          "transactionHash": "0x16760e03345df3644d03c76e32f0bb0e7c05375aee3c0f79fa326a94765218c0",
          "transactionIndex": "0x9",
          "logIndex": "0x7c",
          "removed": false
        },
        {
          "address": "0x08878209484D8178DD1FFA50AB1689F21aDBB856",
          "topics": [
            "0xddf252ad1be2c89b69c2b068fc378daa952ba7f163c4a11628f55a4df523b3ef",
            "0x0000000000000000000000000000000000000000000000000000000000000000",
            "0x000000000000000000000000c5e0b6e472dde70eceffa4c568bd52f2a7a1632a"
          ],
          "data": "0x00000000000000000000000000000000000000000000000000000000000002bd",
          "blockHash": "0xf38e202f4c788bb16a81f92d31c8d4314f1eb77708b2d46b39ec507b76a0d8c5",
          "blockNumber": "0x464eeb",
          "transactionHash": "0x16760e03345df3644d03c76e32f0bb0e7c05375aee3c0f79fa326a94765218c0",
          "transactionIndex": "0x9",
          "logIndex": "0x7d",
          "removed": false
        },
        {
          "address": "0x08878209484D8178DD1FFA50AB1689F21aDBB856",
          "topics": [
            "0xc16f4e4ca34d790de4c656c72fd015c667d688f20be64eea360618545c4c530f",
            "0x0000000000000000000000006a763430e347d1e152823d646c700442a4db84aa",
            "0x000000000000000000000000c5e0b6e472dde70eceffa4c568bd52f2a7a1632a"
          ],
          "data": "0x00000000000000000000000000000000000000000000000000000000000002bd000000000000000000000000000000000000000000000000000000000000000000000000000000000000000000000000000000000000000000000000000000000000000000000000000000000000000000000000018c28464e06ffa0c85b19330000000000000000000000000000000000000000002bbfb8c4bb609c7a76f4bc00000000000000000000000000000000000000000000000000000000003feb9b",
          "blockHash": "0xf38e202f4c788bb16a81f92d31c8d4314f1eb77708b2d46b39ec507b76a0d8c5",
          "blockNumber": "0x464eeb",
          "transactionHash": "0x16760e03345df3644d03c76e32f0bb0e7c05375aee3c0f79fa326a94765218c0",
          "transactionIndex": "0x9",
          "logIndex": "0x7e",
          "removed": false
        },
        {
          "address": "0x6Ae43d3271ff6888e7Fc43Fd7321a503ff738951",
          "topics": [
            "0x804c9b842b2748a22bb64b345453a3de7ca54a6ca45ce00d415894979e22897a",
            "0x0000000000000000000000006d906e526a4e2ca02097ba9d0caa3c382f52278e"
          ],
          "data": "0x0000000000000000000000000000000000000000014b75300e5b78081d4412470000000000000000000000000000000000000000018c2ae8a5a743b66c136bd00000000000000000000000000000000000000000017fc289048941c9fd136bd00000000000000000000000000000000000000000034b1ca28b72a81a3d5d35dd0000000000000000000000000000000000000000034e799b2869d13dee850853",
          "blockHash": "0xf38e202f4c788bb16a81f92d31c8d4314f1eb77708b2d46b39ec507b76a0d8c5",
          "blockNumber": "0x464eeb",
          "transactionHash": "0x16760e03345df3644d03c76e32f0bb0e7c05375aee3c0f79fa326a94765218c0",
          "transactionIndex": "0x9",
          "logIndex": "0x7f",
          "removed": false
        },
        {
          "address": "0x6d906e526a4e2Ca02097BA9d0caA3c382F52278E",
          "topics": [
            "0xddf252ad1be2c89b69c2b068fc378daa952ba7f163c4a11628f55a4df523b3ef",
            "0x000000000000000000000000b20691021f9aced8631edaa3c0cd2949eb45662d",
            "0x0000000000000000000000006a763430e347d1e152823d646c700442a4db84aa"
          ],
          "data": "0x00000000000000000000000000000000000000000000000000000000000002bd",
          "blockHash": "0xf38e202f4c788bb16a81f92d31c8d4314f1eb77708b2d46b39ec507b76a0d8c5",
          "blockNumber": "0x464eeb",
          "transactionHash": "0x16760e03345df3644d03c76e32f0bb0e7c05375aee3c0f79fa326a94765218c0",
          "transactionIndex": "0x9",
          "logIndex": "0x80",
          "removed": false
        },
        {
          "address": "0x6Ae43d3271ff6888e7Fc43Fd7321a503ff738951",
          "topics": [
            "0xb3d084820fb1a9decffb176436bd02558d15fac9b0ddfed8c465bc7359d7dce0",
            "0x0000000000000000000000006d906e526a4e2ca02097ba9d0caa3c382f52278e",
            "0x000000000000000000000000c5e0b6e472dde70eceffa4c568bd52f2a7a1632a",
            "0x0000000000000000000000000000000000000000000000000000000000000000"
          ],
          "data": "0x0000000000000000000000006a763430e347d1e152823d646c700442a4db84aa00000000000000000000000000000000000000000000000000000000000002bd00000000000000000000000000000000000000000000000000000000000000010000000000000000000000000000000000000000018c28464e04fc66c1a83444",
          "blockHash": "0xf38e202f4c788bb16a81f92d31c8d4314f1eb77708b2d46b39ec507b76a0d8c5",
          "blockNumber": "0x464eeb",
          "transactionHash": "0x16760e03345df3644d03c76e32f0bb0e7c05375aee3c0f79fa326a94765218c0",
          "transactionIndex": "0x9",
          "logIndex": "0x81",
          "removed": false
        },
        {
          "address": "0x6d906e526a4e2Ca02097BA9d0caA3c382F52278E",
          "topics": [
            "0x8c5be1e5ebec7d5bd14f71427d1e84f3dd0314c0f7b2291e5b200ac8c7c3b925",
            "0x0000000000000000000000006a763430e347d1e152823d646c700442a4db84aa",
            "0x0000000000000000000000006ae43d3271ff6888e7fc43fd7321a503ff738951"
          ],
          "data": "0xffffffffffffffffffffffffffffffffffffffffffffffffffffffffffffffff",
          "blockHash": "0xf38e202f4c788bb16a81f92d31c8d4314f1eb77708b2d46b39ec507b76a0d8c5",
          "blockNumber": "0x464eeb",
          "transactionHash": "0x16760e03345df3644d03c76e32f0bb0e7c05375aee3c0f79fa326a94765218c0",
          "transactionIndex": "0x9",
          "logIndex": "0x82",
          "removed": false
        },
        {
          "address": "0x6Ae43d3271ff6888e7Fc43Fd7321a503ff738951",
          "topics": [
            "0x804c9b842b2748a22bb64b345453a3de7ca54a6ca45ce00d415894979e22897a",
            "0x000000000000000000000000ff34b3d4aee8ddcd6f9afffb6fe49bd371b8a357"
          ],
          "data": "0x00000000000000000000000000000000000000000001f176aec3614094aecef40000000000000000000000000000000000000000002a70f28351a598b51f658800000000000000000000000000000000000000000008a848a76cf97a18fb2c43000000000000000000000000000000000000000003454443953f8a2309093d0900000000000000000000000000000000000000000346f47c8e355cf0700802ff",
          "blockHash": "0xf38e202f4c788bb16a81f92d31c8d4314f1eb77708b2d46b39ec507b76a0d8c5",
          "blockNumber": "0x464eeb",
          "transactionHash": "0x16760e03345df3644d03c76e32f0bb0e7c05375aee3c0f79fa326a94765218c0",
          "transactionIndex": "0x9",
          "logIndex": "0x83",
          "removed": false
        },
        {
          "address": "0xFF34B3d4Aee8ddCd6F9AFFFB6Fe49bD371b8a357",
          "topics": [
            "0xddf252ad1be2c89b69c2b068fc378daa952ba7f163c4a11628f55a4df523b3ef",
            "0x0000000000000000000000006a763430e347d1e152823d646c700442a4db84aa",
            "0x00000000000000000000000029598b72eb5cebd806c5dcd549490fda35b13cd8"
          ],
          "data": "0x00000000000000000000000000000000000000000000060f98a48fbab92e9e54",
          "blockHash": "0xf38e202f4c788bb16a81f92d31c8d4314f1eb77708b2d46b39ec507b76a0d8c5",
          "blockNumber": "0x464eeb",
          "transactionHash": "0x16760e03345df3644d03c76e32f0bb0e7c05375aee3c0f79fa326a94765218c0",
          "transactionIndex": "0x9",
          "logIndex": "0x84",
          "removed": false
        },
        {
          "address": "0xFF34B3d4Aee8ddCd6F9AFFFB6Fe49bD371b8a357",
          "topics": [
            "0x8c5be1e5ebec7d5bd14f71427d1e84f3dd0314c0f7b2291e5b200ac8c7c3b925",
            "0x0000000000000000000000006a763430e347d1e152823d646c700442a4db84aa",
            "0x0000000000000000000000006ae43d3271ff6888e7fc43fd7321a503ff738951"
          ],
          "data": "0xfffffffffffffffffffffffffffffffffffffffffffff9f0675b704546d161ab",
          "blockHash": "0xf38e202f4c788bb16a81f92d31c8d4314f1eb77708b2d46b39ec507b76a0d8c5",
          "blockNumber": "0x464eeb",
          "transactionHash": "0x16760e03345df3644d03c76e32f0bb0e7c05375aee3c0f79fa326a94765218c0",
          "transactionIndex": "0x9",
          "logIndex": "0x85",
          "removed": false
        },
        {
          "address": "0x6Ae43d3271ff6888e7Fc43Fd7321a503ff738951",
          "topics": [
            "0xefefaba5e921573100900a3ad9cf29f222d995fb3b6045797eaea7521bd8d6f0",
            "0x0000000000000000000000006a763430e347d1e152823d646c700442a4db84aa",
            "0x000000000000000000000000ff34b3d4aee8ddcd6f9afffb6fe49bd371b8a357",
            "0x0000000000000000000000000000000000000000000000000000000000000000"
          ],
          "data": "0x0000000000000000000000006a763430e347d1e152823d646c700442a4db84aa00000000000000000000000000000000000000000000060ed22343891e6a369f0000000000000000000000000000000000000000000000000000000000000000000000000000000000000000000000000000000000000000c6814c319ac467b5",
          "blockHash": "0xf38e202f4c788bb16a81f92d31c8d4314f1eb77708b2d46b39ec507b76a0d8c5",
          "blockNumber": "0x464eeb",
          "transactionHash": "0x16760e03345df3644d03c76e32f0bb0e7c05375aee3c0f79fa326a94765218c0",
          "transactionIndex": "0x9",
          "logIndex": "0x86",
          "removed": false
        },
        {
          "address": "0x6Ae43d3271ff6888e7Fc43Fd7321a503ff738951",
          "topics": [
            "0x804c9b842b2748a22bb64b345453a3de7ca54a6ca45ce00d415894979e22897a",
            "0x000000000000000000000000ff34b3d4aee8ddcd6f9afffb6fe49bd371b8a357"
          ],
          "data": "0x00000000000000000000000000000000000000000001f175dd11b9fa62483a0f0000000000000000000000000000000000000000002a70f242761cf4810885c900000000000000000000000000000000000000000008a846a090b45878442e40000000000000000000000000000000000000000003454443ae50ca071283836300000000000000000000000000000000000000000346f47c8e355cf0700802ff",
          "blockHash": "0xf38e202f4c788bb16a81f92d31c8d4314f1eb77708b2d46b39ec507b76a0d8c5",
          "blockNumber": "0x464eeb",
          "transactionHash": "0x16760e03345df3644d03c76e32f0bb0e7c05375aee3c0f79fa326a94765218c0",
          "transactionIndex": "0x9",
          "logIndex": "0x87",
          "removed": false
        },
        {
          "address": "0xFF34B3d4Aee8ddCd6F9AFFFB6Fe49bD371b8a357",
          "topics": [
            "0xddf252ad1be2c89b69c2b068fc378daa952ba7f163c4a11628f55a4df523b3ef",
            "0x0000000000000000000000006a763430e347d1e152823d646c700442a4db84aa",
            "0x00000000000000000000000029598b72eb5cebd806c5dcd549490fda35b13cd8"
          ],
          "data": "0x00000000000000000000000000000000000000000000000115dc09f5b5264d0b",
          "blockHash": "0xf38e202f4c788bb16a81f92d31c8d4314f1eb77708b2d46b39ec507b76a0d8c5",
          "blockNumber": "0x464eeb",
          "transactionHash": "0x16760e03345df3644d03c76e32f0bb0e7c05375aee3c0f79fa326a94765218c0",
          "transactionIndex": "0x9",
          "logIndex": "0x88",
          "removed": false
        },
        {
          "address": "0xFF34B3d4Aee8ddCd6F9AFFFB6Fe49bD371b8a357",
          "topics": [
            "0x8c5be1e5ebec7d5bd14f71427d1e84f3dd0314c0f7b2291e5b200ac8c7c3b925",
            "0x0000000000000000000000006a763430e347d1e152823d646c700442a4db84aa",
            "0x0000000000000000000000006ae43d3271ff6888e7fc43fd7321a503ff738951"
          ],
          "data": "0xfffffffffffffffffffffffffffffffffffffffffffff9ef517f664f91ab14a0",
          "blockHash": "0xf38e202f4c788bb16a81f92d31c8d4314f1eb77708b2d46b39ec507b76a0d8c5",
          "blockNumber": "0x464eeb",
          "transactionHash": "0x16760e03345df3644d03c76e32f0bb0e7c05375aee3c0f79fa326a94765218c0",
          "transactionIndex": "0x9",
          "logIndex": "0x89",
          "removed": false
        },
        {
          "address": "0x6Ae43d3271ff6888e7Fc43Fd7321a503ff738951",
          "topics": [
            "0xefefaba5e921573100900a3ad9cf29f222d995fb3b6045797eaea7521bd8d6f0",
            "0x0000000000000000000000006a763430e347d1e152823d646c700442a4db84aa",
            "0x000000000000000000000000ff34b3d4aee8ddcd6f9afffb6fe49bd371b8a357",
            "0x0000000000000000000000000000000000000000000000000000000000000000"
          ],
          "data": "0x0000000000000000000000006a763430e347d1e152823d646c700442a4db84aa00000000000000000000000000000000000000000000000115b87d9be6d381d8000000000000000000000000000000000000000000000000000000000000000000000000000000000000000000000000000000000000000000238c59ce52cb33",
          "blockHash": "0xf38e202f4c788bb16a81f92d31c8d4314f1eb77708b2d46b39ec507b76a0d8c5",
          "blockNumber": "0x464eeb",
          "transactionHash": "0x16760e03345df3644d03c76e32f0bb0e7c05375aee3c0f79fa326a94765218c0",
          "transactionIndex": "0x9",
          "logIndex": "0x8a",
          "removed": false
        },
        {
          "address": "0x6Ae43d3271ff6888e7Fc43Fd7321a503ff738951",
          "topics": [
            "0x804c9b842b2748a22bb64b345453a3de7ca54a6ca45ce00d415894979e22897a",
            "0x000000000000000000000000f8fb3713d459d7c1018bd0a49d19b4c44290ebe5"
          ],
          "data": "0x000000000000000000000000000000000000000006ddbc87e7af79dfd99c95bb000000000000000000000000000000000000000009539f15f0198b808bf80e2f000000000000000000000000000000000000000009092cd829657ff5f1f80e2f0000000000000000000000000000000000000000038783a257d7e51be47acdfc000000000000000000000000000000000000000003a043e4063f889ed41f1e8e",
          "blockHash": "0xf38e202f4c788bb16a81f92d31c8d4314f1eb77708b2d46b39ec507b76a0d8c5",
          "blockNumber": "0x464eeb",
          "transactionHash": "0x16760e03345df3644d03c76e32f0bb0e7c05375aee3c0f79fa326a94765218c0",
          "transactionIndex": "0x9",
          "logIndex": "0x8b",
          "removed": false
        },
        {
          "address": "0xf8Fb3713D459D7C1018BD0A49D19b4C44290EBE5",
          "topics": [
            "0xddf252ad1be2c89b69c2b068fc378daa952ba7f163c4a11628f55a4df523b3ef",
            "0x0000000000000000000000006a763430e347d1e152823d646c700442a4db84aa",
            "0x0000000000000000000000003ffaf50d4f4e96eb78f2407c090b72e86ecaed24"
          ],
          "data": "0x00000000000000000000000000000000000000000000000000003fd6593b98e0",
          "blockHash": "0xf38e202f4c788bb16a81f92d31c8d4314f1eb77708b2d46b39ec507b76a0d8c5",
          "blockNumber": "0x464eeb",
          "transactionHash": "0x16760e03345df3644d03c76e32f0bb0e7c05375aee3c0f79fa326a94765218c0",
          "transactionIndex": "0x9",
          "logIndex": "0x8c",
          "removed": false
        },
        {
          "address": "0xf8Fb3713D459D7C1018BD0A49D19b4C44290EBE5",
          "topics": [
            "0x8c5be1e5ebec7d5bd14f71427d1e84f3dd0314c0f7b2291e5b200ac8c7c3b925",
            "0x0000000000000000000000006a763430e347d1e152823d646c700442a4db84aa",
            "0x0000000000000000000000006ae43d3271ff6888e7fc43fd7321a503ff738951"
          ],
          "data": "0xffffffffffffffffffffffffffffffffffffffffffffffffffffc029a6c4671f",
          "blockHash": "0xf38e202f4c788bb16a81f92d31c8d4314f1eb77708b2d46b39ec507b76a0d8c5",
          "blockNumber": "0x464eeb",
          "transactionHash": "0x16760e03345df3644d03c76e32f0bb0e7c05375aee3c0f79fa326a94765218c0",
          "transactionIndex": "0x9",
          "logIndex": "0x8d",
          "removed": false
        },
        {
          "address": "0x6Ae43d3271ff6888e7Fc43Fd7321a503ff738951",
          "topics": [
            "0xefefaba5e921573100900a3ad9cf29f222d995fb3b6045797eaea7521bd8d6f0",
            "0x0000000000000000000000006a763430e347d1e152823d646c700442a4db84aa",
            "0x000000000000000000000000f8fb3713d459d7c1018bd0a49d19b4c44290ebe5",
            "0x0000000000000000000000000000000000000000000000000000000000000000"
          ],
          "data": "0x0000000000000000000000006a763430e347d1e152823d646c700442a4db84aa00000000000000000000000000000000000000000000000000003fce2e75237b0000000000000000000000000000000000000000000000000000000000000000000000000000000000000000000000000000000000000000000000082ac67565",
          "blockHash": "0xf38e202f4c788bb16a81f92d31c8d4314f1eb77708b2d46b39ec507b76a0d8c5",
          "blockNumber": "0x464eeb",
          "transactionHash": "0x16760e03345df3644d03c76e32f0bb0e7c05375aee3c0f79fa326a94765218c0",
          "transactionIndex": "0x9",
          "logIndex": "0x8e",
          "removed": false
        },
        {
          "address": "0x6Ae43d3271ff6888e7Fc43Fd7321a503ff738951",
          "topics": [
            "0x804c9b842b2748a22bb64b345453a3de7ca54a6ca45ce00d415894979e22897a",
            "0x000000000000000000000000aa8e23fb1079ea71e0a56f48a2aa51851d8433d0"
          ],
          "data": "0x0000000000000000000000000000000000000000000003953cba9b9395f0f6a500000000000000000000000000000000000000000029614b12b2aadb7bfb96a5000000000000000000000000000000000000000000002b0d227523904fdcb52200000000000000000000000000000000000000000342ac3eecf73e3fda3bc2610000000000000000000000000000000000000000034505630f83f324e4248d66",
          "blockHash": "0xf38e202f4c788bb16a81f92d31c8d4314f1eb77708b2d46b39ec507b76a0d8c5",
          "blockNumber": "0x464eeb",
          "transactionHash": "0x16760e03345df3644d03c76e32f0bb0e7c05375aee3c0f79fa326a94765218c0",
          "transactionIndex": "0x9",
          "logIndex": "0x8f",
          "removed": false
        },
        {
          "address": "0xaA8E23Fb1079EA71e0a56F48a2aA51851D8433D0",
          "topics": [
            "0xddf252ad1be2c89b69c2b068fc378daa952ba7f163c4a11628f55a4df523b3ef",
            "0x0000000000000000000000006a763430e347d1e152823d646c700442a4db84aa",
            "0x000000000000000000000000af0f6e8b0dc5c913bbf4d14c22b4e78dd14310b6"
          ],
          "data": "0x000000000000000000000000000000000000000000000000000000047e90d831",
          "blockHash": "0xf38e202f4c788bb16a81f92d31c8d4314f1eb77708b2d46b39ec507b76a0d8c5",
          "blockNumber": "0x464eeb",
          "transactionHash": "0x16760e03345df3644d03c76e32f0bb0e7c05375aee3c0f79fa326a94765218c0",
          "transactionIndex": "0x9",
          "logIndex": "0x90",
          "removed": false
        },
        {
          "address": "0xaA8E23Fb1079EA71e0a56F48a2aA51851D8433D0",
          "topics": [
            "0x8c5be1e5ebec7d5bd14f71427d1e84f3dd0314c0f7b2291e5b200ac8c7c3b925",
            "0x0000000000000000000000006a763430e347d1e152823d646c700442a4db84aa",
            "0x0000000000000000000000006ae43d3271ff6888e7fc43fd7321a503ff738951"
          ],
          "data": "0xfffffffffffffffffffffffffffffffffffffffffffffffffffffffb816f27ce",
          "blockHash": "0xf38e202f4c788bb16a81f92d31c8d4314f1eb77708b2d46b39ec507b76a0d8c5",
          "blockNumber": "0x464eeb",
          "transactionHash": "0x16760e03345df3644d03c76e32f0bb0e7c05375aee3c0f79fa326a94765218c0",
          "transactionIndex": "0x9",
          "logIndex": "0x91",
          "removed": false
        },
        {
          "address": "0x6Ae43d3271ff6888e7Fc43Fd7321a503ff738951",
          "topics": [
            "0xefefaba5e921573100900a3ad9cf29f222d995fb3b6045797eaea7521bd8d6f0",
            "0x0000000000000000000000006a763430e347d1e152823d646c700442a4db84aa",
            "0x000000000000000000000000aa8e23fb1079ea71e0a56f48a2aa51851d8433d0",
            "0x0000000000000000000000000000000000000000000000000000000000000000"
          ],
          "data": "0x0000000000000000000000006a763430e347d1e152823d646c700442a4db84aa000000000000000000000000000000000000000000000000000000047dfda54b000000000000000000000000000000000000000000000000000000000000000000000000000000000000000000000000000000000000000000000000009332e6",
          "blockHash": "0xf38e202f4c788bb16a81f92d31c8d4314f1eb77708b2d46b39ec507b76a0d8c5",
          "blockNumber": "0x464eeb",
          "transactionHash": "0x16760e03345df3644d03c76e32f0bb0e7c05375aee3c0f79fa326a94765218c0",
          "transactionIndex": "0x9",
          "logIndex": "0x92",
          "removed": false
        },
        {
          "address": "0x6Ae43d3271ff6888e7Fc43Fd7321a503ff738951",
          "topics": [
            "0x804c9b842b2748a22bb64b345453a3de7ca54a6ca45ce00d415894979e22897a",
            "0x000000000000000000000000aa8e23fb1079ea71e0a56f48a2aa51851d8433d0"
          ],
          "data": "0x0000000000000000000000000000000000000000000003953cb8f206767bc18a00000000000000000000000000000000000000000029614b12b047aca461ef96000000000000000000000000000000000000000000002b0d22620a19930f7cb400000000000000000000000000000000000000000342ac3eed26995276add4a70000000000000000000000000000000000000000034505630f83f324e4248d66",
          "blockHash": "0xf38e202f4c788bb16a81f92d31c8d4314f1eb77708b2d46b39ec507b76a0d8c5",
          "blockNumber": "0x464eeb",
          "transactionHash": "0x16760e03345df3644d03c76e32f0bb0e7c05375aee3c0f79fa326a94765218c0",
          "transactionIndex": "0x9",
          "logIndex": "0x93",
          "removed": false
        },
        {
          "address": "0xaA8E23Fb1079EA71e0a56F48a2aA51851D8433D0",
          "topics": [
            "0xddf252ad1be2c89b69c2b068fc378daa952ba7f163c4a11628f55a4df523b3ef",
            "0x0000000000000000000000006a763430e347d1e152823d646c700442a4db84aa",
            "0x000000000000000000000000af0f6e8b0dc5c913bbf4d14c22b4e78dd14310b6"
          ],
          "data": "0x000000000000000000000000000000000000000000000000000000000098c146",
          "blockHash": "0xf38e202f4c788bb16a81f92d31c8d4314f1eb77708b2d46b39ec507b76a0d8c5",
          "blockNumber": "0x464eeb",
          "transactionHash": "0x16760e03345df3644d03c76e32f0bb0e7c05375aee3c0f79fa326a94765218c0",
          "transactionIndex": "0x9",
          "logIndex": "0x94",
          "removed": false
        },
        {
          "address": "0xaA8E23Fb1079EA71e0a56F48a2aA51851D8433D0",
          "topics": [
            "0x8c5be1e5ebec7d5bd14f71427d1e84f3dd0314c0f7b2291e5b200ac8c7c3b925",
            "0x0000000000000000000000006a763430e347d1e152823d646c700442a4db84aa",
            "0x0000000000000000000000006ae43d3271ff6888e7fc43fd7321a503ff738951"
          ],
          "data": "0xfffffffffffffffffffffffffffffffffffffffffffffffffffffffb80d66688",
          "blockHash": "0xf38e202f4c788bb16a81f92d31c8d4314f1eb77708b2d46b39ec507b76a0d8c5",
          "blockNumber": "0x464eeb",
          "transactionHash": "0x16760e03345df3644d03c76e32f0bb0e7c05375aee3c0f79fa326a94765218c0",
          "transactionIndex": "0x9",
          "logIndex": "0x95",
          "removed": false
        },
        {
          "address": "0x6Ae43d3271ff6888e7Fc43Fd7321a503ff738951",
          "topics": [
            "0xefefaba5e921573100900a3ad9cf29f222d995fb3b6045797eaea7521bd8d6f0",
            "0x0000000000000000000000006a763430e347d1e152823d646c700442a4db84aa",
            "0x000000000000000000000000aa8e23fb1079ea71e0a56f48a2aa51851d8433d0",
            "0x0000000000000000000000000000000000000000000000000000000000000000"
          ],
          "data": "0x0000000000000000000000006a763430e347d1e152823d646c700442a4db84aa000000000000000000000000000000000000000000000000000000000098adbb0000000000000000000000000000000000000000000000000000000000000000000000000000000000000000000000000000000000000000000000000000138b",
          "blockHash": "0xf38e202f4c788bb16a81f92d31c8d4314f1eb77708b2d46b39ec507b76a0d8c5",
          "blockNumber": "0x464eeb",
          "transactionHash": "0x16760e03345df3644d03c76e32f0bb0e7c05375aee3c0f79fa326a94765218c0",
          "transactionIndex": "0x9",
          "logIndex": "0x96",
          "removed": false
        },
        {
          "address": "0x6Ae43d3271ff6888e7Fc43Fd7321a503ff738951",
          "topics": [
            "0x804c9b842b2748a22bb64b345453a3de7ca54a6ca45ce00d415894979e22897a",
            "0x0000000000000000000000006d906e526a4e2ca02097ba9d0caa3c382f52278e"
          ],
          "data": "0x0000000000000000000000000000000000000000014b74814730929b1c02caae0000000000000000000000000000000000000000018c2a2cf6f3127a2788600e0000000000000000000000000000000000000000017fc1cd55d5108db888600e0000000000000000000000000000000000000000034b1ca28b72a81a3d5d35dd0000000000000000000000000000000000000000034e799b2869d13dee850853",
          "blockHash": "0xf38e202f4c788bb16a81f92d31c8d4314f1eb77708b2d46b39ec507b76a0d8c5",
          "blockNumber": "0x464eeb",
          "transactionHash": "0x16760e03345df3644d03c76e32f0bb0e7c05375aee3c0f79fa326a94765218c0",
          "transactionIndex": "0x9",
          "logIndex": "0x97",
          "removed": false
        },
        {
          "address": "0x6d906e526a4e2Ca02097BA9d0caA3c382F52278E",
          "topics": [
            "0xddf252ad1be2c89b69c2b068fc378daa952ba7f163c4a11628f55a4df523b3ef",
            "0x0000000000000000000000006a763430e347d1e152823d646c700442a4db84aa",
            "0x000000000000000000000000b20691021f9aced8631edaa3c0cd2949eb45662d"
          ],
          "data": "0x00000000000000000000000000000000000000000000000000000000000000c9",
          "blockHash": "0xf38e202f4c788bb16a81f92d31c8d4314f1eb77708b2d46b39ec507b76a0d8c5",
          "blockNumber": "0x464eeb",
          "transactionHash": "0x16760e03345df3644d03c76e32f0bb0e7c05375aee3c0f79fa326a94765218c0",
          "transactionIndex": "0x9",
          "logIndex": "0x98",
          "removed": false
        },
        {
          "address": "0x6d906e526a4e2Ca02097BA9d0caA3c382F52278E",
          "topics": [
            "0x8c5be1e5ebec7d5bd14f71427d1e84f3dd0314c0f7b2291e5b200ac8c7c3b925",
            "0x0000000000000000000000006a763430e347d1e152823d646c700442a4db84aa",
            "0x0000000000000000000000006ae43d3271ff6888e7fc43fd7321a503ff738951"
          ],
          "data": "0xffffffffffffffffffffffffffffffffffffffffffffffffffffffffffffff36",
          "blockHash": "0xf38e202f4c788bb16a81f92d31c8d4314f1eb77708b2d46b39ec507b76a0d8c5",
          "blockNumber": "0x464eeb",
          "transactionHash": "0x16760e03345df3644d03c76e32f0bb0e7c05375aee3c0f79fa326a94765218c0",
          "transactionIndex": "0x9",
          "logIndex": "0x99",
          "removed": false
        },
        {
          "address": "0x6Ae43d3271ff6888e7Fc43Fd7321a503ff738951",
          "topics": [
            "0xefefaba5e921573100900a3ad9cf29f222d995fb3b6045797eaea7521bd8d6f0",
            "0x0000000000000000000000006a763430e347d1e152823d646c700442a4db84aa",
            "0x0000000000000000000000006d906e526a4e2ca02097ba9d0caa3c382f52278e",
            "0x0000000000000000000000000000000000000000000000000000000000000000"
          ],
          "data": "0x0000000000000000000000006a763430e347d1e152823d646c700442a4db84aa00000000000000000000000000000000000000000000000000000000000000c900000000000000000000000000000000000000000000000000000000000000000000000000000000000000000000000000000000000000000000000000000000",
          "blockHash": "0xf38e202f4c788bb16a81f92d31c8d4314f1eb77708b2d46b39ec507b76a0d8c5",
          "blockNumber": "0x464eeb",
          "transactionHash": "0x16760e03345df3644d03c76e32f0bb0e7c05375aee3c0f79fa326a94765218c0",
          "transactionIndex": "0x9",
          "logIndex": "0x9a",
          "removed": false
        },
        {
          "address": "0x6Ae43d3271ff6888e7Fc43Fd7321a503ff738951",
          "topics": [
            "0x804c9b842b2748a22bb64b345453a3de7ca54a6ca45ce00d415894979e22897a",
            "0x0000000000000000000000006d906e526a4e2ca02097ba9d0caa3c382f52278e"
          ],
          "data": "0x0000000000000000000000000000000000000000014b721fbb698121a1e1afa80000000000000000000000000000000000000000018c279e69875d53801596520000000000000000000000000000000000000000017fbf3ec8695b67111596520000000000000000000000000000000000000000034b1ca28b72a81a3d5d35dd0000000000000000000000000000000000000000034e799b2869d13dee850853",
          "blockHash": "0xf38e202f4c788bb16a81f92d31c8d4314f1eb77708b2d46b39ec507b76a0d8c5",
          "blockNumber": "0x464eeb",
          "transactionHash": "0x16760e03345df3644d03c76e32f0bb0e7c05375aee3c0f79fa326a94765218c0",
          "transactionIndex": "0x9",
          "logIndex": "0x9b",
          "removed": false
        },
        {
          "address": "0x6d906e526a4e2Ca02097BA9d0caA3c382F52278E",
          "topics": [
            "0xddf252ad1be2c89b69c2b068fc378daa952ba7f163c4a11628f55a4df523b3ef",
            "0x0000000000000000000000006a763430e347d1e152823d646c700442a4db84aa",
            "0x000000000000000000000000b20691021f9aced8631edaa3c0cd2949eb45662d"
          ],
          "data": "0x00000000000000000000000000000000000000000000000000000000000002bd",
          "blockHash": "0xf38e202f4c788bb16a81f92d31c8d4314f1eb77708b2d46b39ec507b76a0d8c5",
          "blockNumber": "0x464eeb",
          "transactionHash": "0x16760e03345df3644d03c76e32f0bb0e7c05375aee3c0f79fa326a94765218c0",
          "transactionIndex": "0x9",
          "logIndex": "0x9c",
          "removed": false
        },
        {
          "address": "0x6d906e526a4e2Ca02097BA9d0caA3c382F52278E",
          "topics": [
            "0x8c5be1e5ebec7d5bd14f71427d1e84f3dd0314c0f7b2291e5b200ac8c7c3b925",
            "0x0000000000000000000000006a763430e347d1e152823d646c700442a4db84aa",
            "0x0000000000000000000000006ae43d3271ff6888e7fc43fd7321a503ff738951"
          ],
          "data": "0xfffffffffffffffffffffffffffffffffffffffffffffffffffffffffffffc79",
          "blockHash": "0xf38e202f4c788bb16a81f92d31c8d4314f1eb77708b2d46b39ec507b76a0d8c5",
          "blockNumber": "0x464eeb",
          "transactionHash": "0x16760e03345df3644d03c76e32f0bb0e7c05375aee3c0f79fa326a94765218c0",
          "transactionIndex": "0x9",
          "logIndex": "0x9d",
          "removed": false
        },
        {
          "address": "0x6Ae43d3271ff6888e7Fc43Fd7321a503ff738951",
          "topics": [
            "0xefefaba5e921573100900a3ad9cf29f222d995fb3b6045797eaea7521bd8d6f0",
            "0x0000000000000000000000006a763430e347d1e152823d646c700442a4db84aa",
            "0x0000000000000000000000006d906e526a4e2ca02097ba9d0caa3c382f52278e",
            "0x0000000000000000000000000000000000000000000000000000000000000000"
          ],
          "data": "0x0000000000000000000000006a763430e347d1e152823d646c700442a4db84aa00000000000000000000000000000000000000000000000000000000000002bd00000000000000000000000000000000000000000000000000000000000000000000000000000000000000000000000000000000000000000000000000000000",
          "blockHash": "0xf38e202f4c788bb16a81f92d31c8d4314f1eb77708b2d46b39ec507b76a0d8c5",
          "blockNumber": "0x464eeb",
          "transactionHash": "0x16760e03345df3644d03c76e32f0bb0e7c05375aee3c0f79fa326a94765218c0",
          "transactionIndex": "0x9",
          "logIndex": "0x9e",
          "removed": false
        }
      ],
      "status": "0x1",
      "logsBloom": "0x101208000800084006800002000068000000000000408000020004000000008100000080400000000000400000040020000500004020000200000000002000000000000000010080c0002008080000000000000000000000000000040000300004000000020020000010001080200c00004204000040000008000011401000002000008081040000005000000000000000200000080000000000000000002000020000000080424000000084800000000010308c40104000020006000102010002008042000011100000002040080300004280100000040100000001000020040010500408800020000080004001000100010000000801000000002001050000",
      "type": "0x2",
      "effectiveGasPrice": "0x73c318c39"
    }
  ],
  "libraries": [],
  "pending": [],
  "returns": {},
  "timestamp": 1698839906,
  "chain": 11155111,
  "multi": false,
  "commit": "0d3f206"
}