{
  "transactions": [
    {
      "hash": "0xeb13d06dfcb9072447685283f338af7018cd162001e97f886ba892068559ad7d",
      "transactionType": "CALL",
      "contractName": "InitializableImmutableAdminUpgradeabilityProxy",
      "contractAddress": "0x22675C506A8FC26447aFFfa33640f6af5d4D4cF0",
      "function": "approveDelegation(address,uint256)",
      "arguments": [
        "0x6A763430e347d1E152823d646c700442A4db84aA",
        "29194372341771271759436"
      ],
      "transaction": {
        "type": "0x02",
        "from": "0x3e122a3db43d225dd5bffd929ad4176ce69117e0",
        "to": "0x22675c506a8fc26447afffa33640f6af5d4d4cf0",
        "gas": "0xc594",
        "value": "0x0",
        "data": "0xc04a8a100000000000000000000000006a763430e347d1e152823d646c700442a4db84aa00000000000000000000000000000000000000000000062ea14df66d5599664c",
        "nonce": "0xe6",
        "accessList": []
      },
      "additionalContracts": [],
      "isFixedGasLimit": false
    },
    {
      "hash": "0x4a97fc959084222198505fb8e6faed330130d2049ca60a5f83b3e8fd64396c48",
      "transactionType": "CALL",
      "contractName": "InitializableImmutableAdminUpgradeabilityProxy",
      "contractAddress": "0xbEF786E742edB13361ff2f005b901A82c23AA491",
      "function": "approveDelegation(address,uint256)",
      "arguments": [
        "0x6A763430e347d1E152823d646c700442A4db84aA",
        "20422447587802479310"
      ],
      "transaction": {
        "type": "0x02",
        "from": "0x3e122a3db43d225dd5bffd929ad4176ce69117e0",
        "to": "0xbef786e742edb13361ff2f005b901a82c23aa491",
        "gas": "0xd102",
        "value": "0x0",
        "data": "0xc04a8a100000000000000000000000006a763430e347d1e152823d646c700442a4db84aa0000000000000000000000000000000000000000000000011b6b1be0daffface",
        "nonce": "0xe7",
        "accessList": []
      },
      "additionalContracts": [],
      "isFixedGasLimit": false
    },
    {
      "hash": "0xd6dae0895416e2b8dae3f2c13a3b7467636785238f191d7c5d50e4e23b657759",
      "transactionType": "CALL",
      "contractName": "InitializableImmutableAdminUpgradeabilityProxy",
      "contractAddress": "0x34a4d932E722b9dFb492B9D8131127690CE2430B",
      "function": "approveDelegation(address,uint256)",
      "arguments": [
        "0x6A763430e347d1E152823d646c700442A4db84aA",
        "71616735176442"
      ],
      "transaction": {
        "type": "0x02",
        "from": "0x3e122a3db43d225dd5bffd929ad4176ce69117e0",
        "to": "0x34a4d932e722b9dfb492b9d8131127690ce2430b",
        "gas": "0xc552",
        "value": "0x0",
        "data": "0xc04a8a100000000000000000000000006a763430e347d1e152823d646c700442a4db84aa00000000000000000000000000000000000000000000000000004122920f66fa",
        "nonce": "0xe8",
        "accessList": []
      },
      "additionalContracts": [],
      "isFixedGasLimit": false
    },
    {
      "hash": "0x90c0aa20cfaf277bb8eb42da7d9b75d819c420671c54ca1494eecaba11012132",
      "transactionType": "CALL",
      "contractName": "InitializableImmutableAdminUpgradeabilityProxy",
      "contractAddress": "0x9844386d29EEd970B9F6a2B9a676083b0478210e",
      "function": "approveDelegation(address,uint256)",
      "arguments": [
        "0x6A763430e347d1E152823d646c700442A4db84aA",
        "19392287921"
      ],
      "transaction": {
        "type": "0x02",
        "from": "0x3e122a3db43d225dd5bffd929ad4176ce69117e0",
        "to": "0x9844386d29eed970b9f6a2b9a676083b0478210e",
        "gas": "0xc542",
        "value": "0x0",
        "data": "0xc04a8a100000000000000000000000006a763430e347d1e152823d646c700442a4db84aa0000000000000000000000000000000000000000000000000000000483ded4b1",
        "nonce": "0xe9",
        "accessList": []
      },
      "additionalContracts": [],
      "isFixedGasLimit": false
    },
    {
      "hash": "0x2e654da4a4a2cc44e59c2ddfa9753bd9c0eb281bf020b88f017259824e998e32",
      "transactionType": "CALL",
      "contractName": "InitializableImmutableAdminUpgradeabilityProxy",
      "contractAddress": "0xEAF54fA3b1C7243033C2893c6B807f9cEaBCf0AF",
      "function": "approveDelegation(address,uint256)",
      "arguments": [
        "0x6A763430e347d1E152823d646c700442A4db84aA",
        "10211228"
      ],
      "transaction": {
        "type": "0x02",
        "from": "0x3e122a3db43d225dd5bffd929ad4176ce69117e0",
        "to": "0xeaf54fa3b1c7243033c2893c6b807f9ceabcf0af",
        "gas": "0xd099",
        "value": "0x0",
        "data": "0xc04a8a100000000000000000000000006a763430e347d1e152823d646c700442a4db84aa00000000000000000000000000000000000000000000000000000000009bcf9c",
        "nonce": "0xea",
        "accessList": []
      },
      "additionalContracts": [],
      "isFixedGasLimit": false
    },
    {
      "hash": "0xd1c3c6fae5de8c73eb52f1018a2b361075e4bc0d5e01a0d3fdc74bdb8c59f249",
      "transactionType": "CALL",
      "contractName": "InitializableImmutableAdminUpgradeabilityProxy",
      "contractAddress": "0x94482C7A7477196259D8a0f74fB853277Fa5a75b",
      "function": "approveDelegation(address,uint256)",
      "arguments": [
        "0x6A763430e347d1E152823d646c700442A4db84aA",
        "205"
      ],
      "transaction": {
        "type": "0x02",
        "from": "0x3e122a3db43d225dd5bffd929ad4176ce69117e0",
        "to": "0x94482c7a7477196259d8a0f74fb853277fa5a75b",
        "gas": "0xb5e4",
        "value": "0x0",
        "data": "0xc04a8a100000000000000000000000006a763430e347d1e152823d646c700442a4db84aa00000000000000000000000000000000000000000000000000000000000000cd",
        "nonce": "0xeb",
        "accessList": []
      },
      "additionalContracts": [],
      "isFixedGasLimit": false
    },
    {
      "hash": "0xb5b0ea4445bde4014f1b286d05d4356cd485ff74cf8a12973fa56fc1ad327932",
      "transactionType": "CALL",
      "contractName": "InitializableImmutableAdminUpgradeabilityProxy",
      "contractAddress": "0x08878209484D8178DD1FFA50AB1689F21aDBB856",
      "function": "approveDelegation(address,uint256)",
      "arguments": [
        "0x6A763430e347d1E152823d646c700442A4db84aA",
        "715"
      ],
      "transaction": {
        "type": "0x02",
        "from": "0x3e122a3db43d225dd5bffd929ad4176ce69117e0",
        "to": "0x08878209484d8178dd1ffa50ab1689f21adbb856",
        "gas": "0xb5d6",
        "value": "0x0",
        "data": "0xc04a8a100000000000000000000000006a763430e347d1e152823d646c700442a4db84aa00000000000000000000000000000000000000000000000000000000000002cb",
        "nonce": "0xec",
        "accessList": []
      },
      "additionalContracts": [],
      "isFixedGasLimit": false
    },
    {
      "hash": "0x4c6f3041bbc4a8d95a82359848308b2900c162d627bff7a465bc55c36f346ac1",
      "transactionType": "CALL",
      "contractName": "InitializableImmutableAdminUpgradeabilityProxy",
      "contractAddress": "0x3FfAf50D4F4E96eB78f2407c090b72e86eCaed24",
      "function": "approve(address,uint256):(bool)",
      "arguments": [
        "0x6A763430e347d1E152823d646c700442A4db84aA",
        "1044958567216188680823"
      ],
      "transaction": {
        "type": "0x02",
        "from": "0xc5e0b6e472dde70eceffa4c568bd52f2a7a1632a",
        "to": "0x3ffaf50d4f4e96eb78f2407c090b72e86ecaed24",
        "gas": "0xb849",
        "value": "0x0",
        "data": "0x095ea7b30000000000000000000000006a763430e347d1e152823d646c700442a4db84aa000000000000000000000000000000000000000000000038a5b698749212ea77",
        "nonce": "0xac",
        "accessList": []
      },
      "additionalContracts": [],
      "isFixedGasLimit": false
    },
    {
      "hash": "0x0788301ab62660b9cdce2ec5ce086e7939e1596597fd76f3825b75c93b7902ba",
      "transactionType": "CALL",
      "contractName": "InitializableImmutableAdminUpgradeabilityProxy",
      "contractAddress": "0x16dA4541aD1807f4443d92D26044C1147406EB80",
      "function": "approve(address,uint256):(bool)",
      "arguments": [
        "0x6A763430e347d1E152823d646c700442A4db84aA",
        "1017525737"
      ],
      "transaction": {
        "type": "0x02",
        "from": "0xc5e0b6e472dde70eceffa4c568bd52f2a7a1632a",
        "to": "0x16da4541ad1807f4443d92d26044c1147406eb80",
        "gas": "0xb7f7",
        "value": "0x0",
        "data": "0x095ea7b30000000000000000000000006a763430e347d1e152823d646c700442a4db84aa000000000000000000000000000000000000000000000000000000003ca635e9",
        "nonce": "0xad",
        "accessList": []
      },
      "additionalContracts": [],
      "isFixedGasLimit": false
    },
    {
      "hash": "0xc5bde3cc46c697e094945c44b361de204c36011d463faa1e7da1962a7ef455a8",
      "transactionType": "CALL",
      "contractName": "InitializableImmutableAdminUpgradeabilityProxy",
      "contractAddress": "0x1804Bf30507dc2EB3bDEbbbdd859991EAeF6EefF",
      "function": "approve(address,uint256):(bool)",
      "arguments": [
        "0x6A763430e347d1E152823d646c700442A4db84aA",
        "100000001"
      ],
      "transaction": {
        "type": "0x02",
        "from": "0xc5e0b6e472dde70eceffa4c568bd52f2a7a1632a",
        "to": "0x1804bf30507dc2eb3bdebbbdd859991eaef6eeff",
        "gas": "0xa8db",
        "value": "0x0",
        "data": "0x095ea7b30000000000000000000000006a763430e347d1e152823d646c700442a4db84aa0000000000000000000000000000000000000000000000000000000005f5e101",
        "nonce": "0xae",
        "accessList": []
      },
      "additionalContracts": [],
      "isFixedGasLimit": false
    },
    {
      "hash": "0x5fc9e93617366b238e78d482978fe8a58bb9d8bb7965c8464ba5314ad451d43f",
      "transactionType": "CALL",
      "contractName": "InitializableImmutableAdminUpgradeabilityProxy",
      "contractAddress": "0xAF0F6e8b0Dc5c913bbF4d14c22B4E78Dd14310B6",
      "function": "approve(address,uint256):(bool)",
      "arguments": [
        "0x6A763430e347d1E152823d646c700442A4db84aA",
        "2015913"
      ],
      "transaction": {
        "type": "0x02",
        "from": "0xc5e0b6e472dde70eceffa4c568bd52f2a7a1632a",
        "to": "0xaf0f6e8b0dc5c913bbf4d14c22b4e78dd14310b6",
        "gas": "0xa8ca",
        "value": "0x0",
        "data": "0x095ea7b30000000000000000000000006a763430e347d1e152823d646c700442a4db84aa00000000000000000000000000000000000000000000000000000000001ec2a9",
        "nonce": "0xaf",
        "accessList": []
      },
      "additionalContracts": [],
      "isFixedGasLimit": false
    },
    {
      "hash": "0xaa63df9182d4f2e66f5d5e4c9a1967555363d10e0c742bb99d4b8aeae0a3b5ff",
      "transactionType": "CALL",
      "contractName": "InitializableImmutableAdminUpgradeabilityProxy",
      "contractAddress": "0x6b8558764d3b7572136F17174Cb9aB1DDc7E1259",
      "function": "approve(address,uint256):(bool)",
      "arguments": [
        "0x6A763430e347d1E152823d646c700442A4db84aA",
        "100000000000000000000"
      ],
      "transaction": {
        "type": "0x02",
        "from": "0xc5e0b6e472dde70eceffa4c568bd52f2a7a1632a",
        "to": "0x6b8558764d3b7572136f17174cb9ab1ddc7e1259",
        "gas": "0xa90d",
        "value": "0x0",
        "data": "0x095ea7b30000000000000000000000006a763430e347d1e152823d646c700442a4db84aa0000000000000000000000000000000000000000000000056bc75e2d63100000",
        "nonce": "0xb0",
        "accessList": []
      },
      "additionalContracts": [],
      "isFixedGasLimit": false
    },
    {
      "hash": "0xc4cdb19ba70f3cb1cb46bcc79fa6c25fae832c31c48ffc626e68377be174cf87",
      "transactionType": "CALL",
      "contractName": "TeleportAaveV3",
      "contractAddress": "0x6A763430e347d1E152823d646c700442A4db84aA",
      "function": "moveAavePositionToAnotherWallet(address,address,address[],uint256[],uint256[],uint256[],address[],uint256[])",
      "arguments": [
        "0xC5e0B6E472dDE70eCEfFa4c568Bd52f2A7a1632A",
        "0x3e122A3dB43d225DD5BFFD929AD4176ce69117E0",
        "[0xFF34B3d4Aee8ddCd6F9AFFFB6Fe49bD371b8a357, 0xFF34B3d4Aee8ddCd6F9AFFFB6Fe49bD371b8a357, 0xf8Fb3713D459D7C1018BD0A49D19b4C44290EBE5, 0xaA8E23Fb1079EA71e0a56F48a2aA51851D8433D0, 0xaA8E23Fb1079EA71e0a56F48a2aA51851D8433D0, 0x6d906e526a4e2Ca02097BA9d0caA3c382F52278E, 0x6d906e526a4e2Ca02097BA9d0caA3c382F52278E]",
        "[28621933668403207607291, 20022007439022038540, 70212485467100, 19012046982, 10011008, 201, 701]",
        "[2, 1, 2, 2, 1, 2, 1]",
        "[0, 0, 0, 0, 0, 0, 0]",
        "[0x3FfAf50D4F4E96eB78f2407c090b72e86eCaed24, 0x16dA4541aD1807f4443d92D26044C1147406EB80, 0x1804Bf30507dc2EB3bDEbbbdd859991EAeF6EefF, 0xAF0F6e8b0Dc5c913bbF4d14c22B4E78Dd14310B6, 0x6b8558764d3b7572136F17174Cb9aB1DDc7E1259]",
        "[1044958567216188680823, 1017525737, 100000001, 2015913, 100000000000000000000]"
      ],
      "transaction": {
        "type": "0x02",
        "from": "0xc5e0b6e472dde70eceffa4c568bd52f2a7a1632a",
        "to": "0x6a763430e347d1e152823d646c700442a4db84aa",
        "gas": "0x3478e6",
        "value": "0x0",
        "data": "0xab745c4a000000000000000000000000c5e0b6e472dde70eceffa4c568bd52f2a7a1632a0000000000000000000000003e122a3db43d225dd5bffd929ad4176ce69117e00000000000000000000000000000000000000000000000000000000000000100000000000000000000000000000000000000000000000000000000000000020000000000000000000000000000000000000000000000000000000000000003000000000000000000000000000000000000000000000000000000000000000400000000000000000000000000000000000000000000000000000000000000050000000000000000000000000000000000000000000000000000000000000005c00000000000000000000000000000000000000000000000000000000000000007000000000000000000000000ff34b3d4aee8ddcd6f9afffb6fe49bd371b8a357000000000000000000000000ff34b3d4aee8ddcd6f9afffb6fe49bd371b8a357000000000000000000000000f8fb3713d459d7c1018bd0a49d19b4c44290ebe5000000000000000000000000aa8e23fb1079ea71e0a56f48a2aa51851d8433d0000000000000000000000000aa8e23fb1079ea71e0a56f48a2aa51851d8433d00000000000000000000000006d906e526a4e2ca02097ba9d0caa3c382f52278e0000000000000000000000006d906e526a4e2ca02097ba9d0caa3c382f52278e000000000000000000000000000000000000000000000000000000000000000700000000000000000000000000000000000000000000060f991f41e8ae4613fb00000000000000000000000000000000000000000000000115dc75af45231e0c00000000000000000000000000000000000000000000000000003fdb9e414bdc000000000000000000000000000000000000000000000000000000046d34d086000000000000000000000000000000000000000000000000000000000098c18000000000000000000000000000000000000000000000000000000000000000c900000000000000000000000000000000000000000000000000000000000002bd000000000000000000000000000000000000000000000000000000000000000700000000000000000000000000000000000000000000000000000000000000020000000000000000000000000000000000000000000000000000000000000001000000000000000000000000000000000000000000000000000000000000000200000000000000000000000000000000000000000000000000000000000000020000000000000000000000000000000000000000000000000000000000000001000000000000000000000000000000000000000000000000000000000000000200000000000000000000000000000000000000000000000000000000000000010000000000000000000000000000000000000000000000000000000000000007000000000000000000000000000000000000000000000000000000000000000000000000000000000000000000000000000000000000000000000000000000000000000000000000000000000000000000000000000000000000000000000000000000000000000000000000000000000000000000000000000000000000000000000000000000000000000000000000000000000000000000000000000000000000000000000000000000000000000000000000000000000000000000000000000000000000000000000000000000000000000000000000000000000000000000000000000000000000000000000000000000000000000000000000000000050000000000000000000000003ffaf50d4f4e96eb78f2407c090b72e86ecaed2400000000000000000000000016da4541ad1807f4443d92d26044c1147406eb800000000000000000000000001804bf30507dc2eb3bdebbbdd859991eaef6eeff000000000000000000000000af0f6e8b0dc5c913bbf4d14c22b4e78dd14310b60000000000000000000000006b8558764d3b7572136f17174cb9ab1ddc7e12590000000000000000000000000000000000000000000000000000000000000005000000000000000000000000000000000000000000000038a5b698749212ea77000000000000000000000000000000000000000000000000000000003ca635e90000000000000000000000000000000000000000000000000000000005f5e10100000000000000000000000000000000000000000000000000000000001ec2a90000000000000000000000000000000000000000000000056bc75e2d63100000",
        "nonce": "0xb1",
        "accessList": []
      },
      "additionalContracts": [],
      "isFixedGasLimit": false
    }
  ],
  "receipts": [
    {
      "transactionHash": "0xeb13d06dfcb9072447685283f338af7018cd162001e97f886ba892068559ad7d",
      "transactionIndex": "0xb",
      "blockHash": "0x50e18bb7d8f12d474e5f886929cdf9321a576cada8d57047beb9c62e4be00d37",
      "blockNumber": "0x465002",
      "from": "0x3e122A3dB43d225DD5BFFD929AD4176ce69117E0",
      "to": "0x22675C506A8FC26447aFFfa33640f6af5d4D4cF0",
      "cumulativeGasUsed": "0x1531b8",
      "gasUsed": "0x8f0c",
      "contractAddress": null,
      "logs": [
        {
          "address": "0x22675C506A8FC26447aFFfa33640f6af5d4D4cF0",
          "topics": [
            "0xda919360433220e13b51e8c211e490d148e61a3bd53de8c097194e458b97f3e1",
            "0x0000000000000000000000003e122a3db43d225dd5bffd929ad4176ce69117e0",
            "0x0000000000000000000000006a763430e347d1e152823d646c700442a4db84aa",
            "0x000000000000000000000000ff34b3d4aee8ddcd6f9afffb6fe49bd371b8a357"
          ],
          "data": "0x00000000000000000000000000000000000000000000062ea14df66d5599664c",
          "blockHash": "0x50e18bb7d8f12d474e5f886929cdf9321a576cada8d57047beb9c62e4be00d37",
          "blockNumber": "0x465002",
          "transactionHash": "0xeb13d06dfcb9072447685283f338af7018cd162001e97f886ba892068559ad7d",
          "transactionIndex": "0xb",
          "logIndex": "0x3",
          "removed": false
        }
      ],
      "status": "0x1",
      "logsBloom": "0x00000000080000000000000000000000000000000000800000000000000000800000000000000000000000000000000000000000000000000000000000000000000000000000000040000000000000000000000000000000000000000000100000000000000000000010000000000000000000000000000000000000000000000000000080040000000000000000000000000000000000000000000000002000000000000000004000000080800000000000000000000000000000000002000000000000000010000000000000000000000000000000000000000000000000000000000000000000000000000000000100000000000000000000000000000000",
      "type": "0x2",
      "effectiveGasPrice": "0x42e83964f"
    },
    {
      "transactionHash": "0x4a97fc959084222198505fb8e6faed330130d2049ca60a5f83b3e8fd64396c48",
      "transactionIndex": "0x8",
      "blockHash": "0x5ce7956b18accb688768bef5189512212e17a370c4e498443b54d84ba6975775",
      "blockNumber": "0x465004",
      "from": "0x3e122A3dB43d225DD5BFFD929AD4176ce69117E0",
      "to": "0xbEF786E742edB13361ff2f005b901A82c23AA491",
      "cumulativeGasUsed": "0x100ef9",
      "gasUsed": "0x8eea",
      "contractAddress": null,
      "logs": [
        {
          "address": "0xbEF786E742edB13361ff2f005b901A82c23AA491",
          "topics": [
            "0xda919360433220e13b51e8c211e490d148e61a3bd53de8c097194e458b97f3e1",
            "0x0000000000000000000000003e122a3db43d225dd5bffd929ad4176ce69117e0",
            "0x0000000000000000000000006a763430e347d1e152823d646c700442a4db84aa",
            "0x000000000000000000000000ff34b3d4aee8ddcd6f9afffb6fe49bd371b8a357"
          ],
          "data": "0x0000000000000000000000000000000000000000000000011b6b1be0daffface",
          "blockHash": "0x5ce7956b18accb688768bef5189512212e17a370c4e498443b54d84ba6975775",
          "blockNumber": "0x465004",
          "transactionHash": "0x4a97fc959084222198505fb8e6faed330130d2049ca60a5f83b3e8fd64396c48",
          "transactionIndex": "0x8",
          "logIndex": "0x2",
          "removed": false
        }
      ],
      "status": "0x1",
      "logsBloom": "0x00000000080000000000000000000000000000000000800000000000000000800000000000000000000040000000000000000000000000000000000000000000000000000000000040000000000000000000000000000000000000000000100000000000000000000000000000000000000000000000000000000000000000000000000080040000000000000000000000000000000000000000000000000000000000000000000000000084800000000000000000000000000000000002000000000000000010000000000000000000000000000000000000000000000000000000000000800000000000000000000100000000000000000000000000000000",
      "type": "0x2",
      "effectiveGasPrice": "0x3c9be31de"
    },
    {
      "transactionHash": "0xd6dae0895416e2b8dae3f2c13a3b7467636785238f191d7c5d50e4e23b657759",
      "transactionIndex": "0x7",
      "blockHash": "0x1bc3d7f1fd886918502f887fa5c0cf1ac66c976ba85465bc2f8c4a3ae531e6bb",
      "blockNumber": "0x465005",
      "from": "0x3e122A3dB43d225DD5BFFD929AD4176ce69117E0",
      "to": "0x34a4d932E722b9dFb492B9D8131127690CE2430B",
      "cumulativeGasUsed": "0x9527f",
      "gasUsed": "0x8edc",
      "contractAddress": null,
      "logs": [
        {
          "address": "0x34a4d932E722b9dFb492B9D8131127690CE2430B",
          "topics": [
            "0xda919360433220e13b51e8c211e490d148e61a3bd53de8c097194e458b97f3e1",
            "0x0000000000000000000000003e122a3db43d225dd5bffd929ad4176ce69117e0",
            "0x0000000000000000000000006a763430e347d1e152823d646c700442a4db84aa",
            "0x000000000000000000000000f8fb3713d459d7c1018bd0a49d19b4c44290ebe5"
          ],
          "data": "0x00000000000000000000000000000000000000000000000000004122920f66fa",
          "blockHash": "0x1bc3d7f1fd886918502f887fa5c0cf1ac66c976ba85465bc2f8c4a3ae531e6bb",
          "blockNumber": "0x465005",
          "transactionHash": "0xd6dae0895416e2b8dae3f2c13a3b7467636785238f191d7c5d50e4e23b657759",
          "transactionIndex": "0x7",
          "logIndex": "0x9",
          "removed": false
        }
      ],
      "status": "0x1",
      "logsBloom": "0x00020000080000000000000000000000000000000000000000000000000000800000000040000000000000000000000000000000000000000000000000000000000000000001000040000000000000000000000000000000000000000000100000000000000020000000000000000000000000000000000000000000000000000000000080040000000000000000000000000000000000000000000000000000000000000000020000000080800000000000000000000000000000000000000000000000000000000000000000000000004000000000000000000000000000000000000000000000000000000000000100000000000000000000000000000000",
      "type": "0x2",
      "effectiveGasPrice": "0x3c56f034f"
    },
    {
      "transactionHash": "0x90c0aa20cfaf277bb8eb42da7d9b75d819c420671c54ca1494eecaba11012132",
      "transactionIndex": "0x5",
      "blockHash": "0xeac2b15177e724f9ebf069dde5fd3ba11f8e2d71e4014c9dca90b59dad3625af",
      "blockNumber": "0x465006",
      "from": "0x3e122A3dB43d225DD5BFFD929AD4176ce69117E0",
      "to": "0x9844386d29EEd970B9F6a2B9a676083b0478210e",
      "cumulativeGasUsed": "0x67a6c",
      "gasUsed": "0x8ed0",
      "contractAddress": null,
      "logs": [
        {
          "address": "0x9844386d29EEd970B9F6a2B9a676083b0478210e",
          "topics": [
            "0xda919360433220e13b51e8c211e490d148e61a3bd53de8c097194e458b97f3e1",
            "0x0000000000000000000000003e122a3db43d225dd5bffd929ad4176ce69117e0",
            "0x0000000000000000000000006a763430e347d1e152823d646c700442a4db84aa",
            "0x000000000000000000000000aa8e23fb1079ea71e0a56f48a2aa51851d8433d0"
          ],
          "data": "0x0000000000000000000000000000000000000000000000000000000483ded4b1",
          "blockHash": "0xeac2b15177e724f9ebf069dde5fd3ba11f8e2d71e4014c9dca90b59dad3625af",
          "blockNumber": "0x465006",
          "transactionHash": "0x90c0aa20cfaf277bb8eb42da7d9b75d819c420671c54ca1494eecaba11012132",
          "transactionIndex": "0x5",
          "logIndex": "0x3",
          "removed": false
        }
      ],
      "status": "0x1",
      "logsBloom": "0x00000000080000000000000000000000000000000000000000000000000000800000000000000000000000000000000000000000000000000000000000000000000000000000000040000000000000000000000000000000000000000000100000000000000000000000000080000000000000000000000000000000000000000000000080040000000000000000000000000000000000000000000000000000000000000000000000000080800000000000000000000000020004000000000000000000000000000000000000000000000200100000000000000000000000000000000000000000000000000000000100010000000000000000000000000000",
      "type": "0x2",
      "effectiveGasPrice": "0x3a16933b6"
    },
    {
      "transactionHash": "0x2e654da4a4a2cc44e59c2ddfa9753bd9c0eb281bf020b88f017259824e998e32",
      "transactionIndex": "0x3",
      "blockHash": "0xc0df02e5748b933de5d6c1aa1ff48dcc6d09d901b1a5711a9bc796623d24226a",
      "blockNumber": "0x465007",
      "from": "0x3e122A3dB43d225DD5BFFD929AD4176ce69117E0",
      "to": "0xEAF54fA3b1C7243033C2893c6B807f9cEaBCf0AF",
      "cumulativeGasUsed": "0x28c51",
      "gasUsed": "0x8ea2",
      "contractAddress": null,
      "logs": [
        {
          "address": "0xEAF54fA3b1C7243033C2893c6B807f9cEaBCf0AF",
          "topics": [
            "0xda919360433220e13b51e8c211e490d148e61a3bd53de8c097194e458b97f3e1",
            "0x0000000000000000000000003e122a3db43d225dd5bffd929ad4176ce69117e0",
            "0x0000000000000000000000006a763430e347d1e152823d646c700442a4db84aa",
            "0x000000000000000000000000aa8e23fb1079ea71e0a56f48a2aa51851d8433d0"
          ],
          "data": "0x00000000000000000000000000000000000000000000000000000000009bcf9c",
          "blockHash": "0xc0df02e5748b933de5d6c1aa1ff48dcc6d09d901b1a5711a9bc796623d24226a",
          "blockNumber": "0x465007",
          "transactionHash": "0x2e654da4a4a2cc44e59c2ddfa9753bd9c0eb281bf020b88f017259824e998e32",
          "transactionIndex": "0x3",
          "logIndex": "0x2",
          "removed": false
        }
      ],
      "status": "0x1",
      "logsBloom": "0x00000000080000000000000000000000000000000040000000000000000000800000000000000000000000000000000000000000000000000000000000000000000000000000000040000000000000000000000000000000000000000000100000000000000000000000000080000000000000000000000000000000000000000000000080040000000000000000000000000000000000000000000000000000000000000000000000000080800000000000000000000000000004000000000000000000000000000000000040000100000000000000000000000000000000000000000000000000000000000000000100010000000000000000000000000000",
      "type": "0x2",
      "effectiveGasPrice": "0x399b95b58"
    },
    {
      "transactionHash": "0xd1c3c6fae5de8c73eb52f1018a2b361075e4bc0d5e01a0d3fdc74bdb8c59f249",
      "transactionIndex": "0x6",
      "blockHash": "0x8c3539cdebfb1ca04cf908c35d81bc83ff002a5f1bd2c4b0b36d3c5c80d3a948",
      "blockNumber": "0x465008",
      "from": "0x3e122A3dB43d225DD5BFFD929AD4176ce69117E0",
      "to": "0x94482C7A7477196259D8a0f74fB853277Fa5a75b",
      "cumulativeGasUsed": "0x43d85b",
      "gasUsed": "0x83b0",
      "contractAddress": null,
      "logs": [
        {
          "address": "0x94482C7A7477196259D8a0f74fB853277Fa5a75b",
          "topics": [
            "0xda919360433220e13b51e8c211e490d148e61a3bd53de8c097194e458b97f3e1",
            "0x0000000000000000000000003e122a3db43d225dd5bffd929ad4176ce69117e0",
            "0x0000000000000000000000006a763430e347d1e152823d646c700442a4db84aa",
            "0x0000000000000000000000006d906e526a4e2ca02097ba9d0caa3c382f52278e"
          ],
          "data": "0x00000000000000000000000000000000000000000000000000000000000000cd",
          "blockHash": "0x8c3539cdebfb1ca04cf908c35d81bc83ff002a5f1bd2c4b0b36d3c5c80d3a948",
          "blockNumber": "0x465008",
          "transactionHash": "0xd1c3c6fae5de8c73eb52f1018a2b361075e4bc0d5e01a0d3fdc74bdb8c59f249",
          "transactionIndex": "0x6",
          "logIndex": "0x8",
          "removed": false
        }
      ],
      "status": "0x1",
      "logsBloom": "0x00000000080000000400000000000000000000000000000000000000000000810000000000000000000000000000000000000000000000000000000000000000000000000000000040000000000000000000000000000000000000000000100000000000000000000000000000200000000000000040000000000000000000000000000080040000000000000000000000000000000000000000000000000000000000000080000000000080800000000000000000000000000000000000000000000040000000000000000000000000000000000000000000000000000000000000000000000000000000000000000100000000000000000000000000000000",
      "type": "0x2",
      "effectiveGasPrice": "0x3a4451e4a"
    },
    {
      "transactionHash": "0xb5b0ea4445bde4014f1b286d05d4356cd485ff74cf8a12973fa56fc1ad327932",
      "transactionIndex": "0x1",
      "blockHash": "0x883300f25b3f72caaac97acefdbb7d58c7a13cadc0737497fa0b3bfe7a46c0c3",
      "blockNumber": "0x465009",
      "from": "0x3e122A3dB43d225DD5BFFD929AD4176ce69117E0",
      "to": "0x08878209484D8178DD1FFA50AB1689F21aDBB856",
      "cumulativeGasUsed": "0xd5ae",
      "gasUsed": "0x83a6",
      "contractAddress": null,
      "logs": [
        {
          "address": "0x08878209484D8178DD1FFA50AB1689F21aDBB856",
          "topics": [
            "0xda919360433220e13b51e8c211e490d148e61a3bd53de8c097194e458b97f3e1",
            "0x0000000000000000000000003e122a3db43d225dd5bffd929ad4176ce69117e0",
            "0x0000000000000000000000006a763430e347d1e152823d646c700442a4db84aa",
            "0x0000000000000000000000006d906e526a4e2ca02097ba9d0caa3c382f52278e"
          ],
          "data": "0x00000000000000000000000000000000000000000000000000000000000002cb",
          "blockHash": "0x883300f25b3f72caaac97acefdbb7d58c7a13cadc0737497fa0b3bfe7a46c0c3",
          "blockNumber": "0x465009",
          "transactionHash": "0xb5b0ea4445bde4014f1b286d05d4356cd485ff74cf8a12973fa56fc1ad327932",
          "transactionIndex": "0x1",
          "logIndex": "0x0",
          "removed": false
        }
      ],
      "status": "0x1",
      "logsBloom": "0x00000000080000000000000000000000000000000000000000000000000000800000000000000000000000000000000000000000000000000000000000000000000000000000000040000000000000000000000000000000000000000000100000000000000000000000000000000000000000000040000000000000000000000000000080040000001000000000000000000000000000000000000000000000000000000080400000000080800000000000000000000000000000000000000000000040000000000000000000000000000000000000000000000000000000000000000000000000000000000000000100000000000000000000000000000000",
      "type": "0x2",
      "effectiveGasPrice": "0x390c1c15a"
    },
    {
      "transactionHash": "0x4c6f3041bbc4a8d95a82359848308b2900c162d627bff7a465bc55c36f346ac1",
      "transactionIndex": "0x7",
      "blockHash": "0x5f0e3a4db4e0b18166d2fcc4d6a19475af4588b48de51082b5631558cde012a1",
      "blockNumber": "0x46500a",
      "from": "0xC5e0B6E472dDE70eCEfFa4c568Bd52f2A7a1632A",
      "to": "0x3FfAf50D4F4E96eB78f2407c090b72e86eCaed24",
      "cumulativeGasUsed": "0x1343cd",
      "gasUsed": "0x856c",
      "contractAddress": null,
      "logs": [
        {
          "address": "0x3FfAf50D4F4E96eB78f2407c090b72e86eCaed24",
          "topics": [
            "0x8c5be1e5ebec7d5bd14f71427d1e84f3dd0314c0f7b2291e5b200ac8c7c3b925",
            "0x000000000000000000000000c5e0b6e472dde70eceffa4c568bd52f2a7a1632a",
            "0x0000000000000000000000006a763430e347d1e152823d646c700442a4db84aa"
          ],
          "data": "0x000000000000000000000000000000000000000000000038a5b698749212ea77",
          "blockHash": "0x5f0e3a4db4e0b18166d2fcc4d6a19475af4588b48de51082b5631558cde012a1",
          "blockNumber": "0x46500a",
          "transactionHash": "0x4c6f3041bbc4a8d95a82359848308b2900c162d627bff7a465bc55c36f346ac1",
          "transactionIndex": "0x7",
          "logIndex": "0x1",
          "removed": false
        }
      ],
      "status": "0x1",
      "logsBloom": "0x00000000000000000000000000002000000000000000000000000000000000800000000000000000000000000000000000000000000000000000000000200000000000000000000040000000000000000000000000000000000000000000000000000000000000000000001000000000000000000000000000000001000000000000008080000000000000000000000000000000000000000000000000000000020000000000000000000000000000000000000040000000000000000000000000000000000000000000000000000000000000000000000000000000000000000010000000000000000000000000000000000000000000000000000001000000",
      "type": "0x2",
      "effectiveGasPrice": "0x345dce8f1"
    },
    {
      "transactionHash": "0x0788301ab62660b9cdce2ec5ce086e7939e1596597fd76f3825b75c93b7902ba",
      "transactionIndex": "0x2",
      "blockHash": "0xdf05f97084833ccbba4d16b10e6bf8c632e70a7c59fbacd9f22456a2af7031aa",
      "blockNumber": "0x46500b",
      "from": "0xC5e0B6E472dDE70eCEfFa4c568Bd52f2A7a1632A",
      "to": "0x16dA4541aD1807f4443d92D26044C1147406EB80",
      "cumulativeGasUsed": "0x7b615",
      "gasUsed": "0x8530",
      "contractAddress": null,
      "logs": [
        {
          "address": "0x16dA4541aD1807f4443d92D26044C1147406EB80",
          "topics": [
            "0x8c5be1e5ebec7d5bd14f71427d1e84f3dd0314c0f7b2291e5b200ac8c7c3b925",
            "0x000000000000000000000000c5e0b6e472dde70eceffa4c568bd52f2a7a1632a",
            "0x0000000000000000000000006a763430e347d1e152823d646c700442a4db84aa"
          ],
          "data": "0x000000000000000000000000000000000000000000000000000000003ca635e9",
          "blockHash": "0xdf05f97084833ccbba4d16b10e6bf8c632e70a7c59fbacd9f22456a2af7031aa",
          "blockNumber": "0x46500b",
          "transactionHash": "0x0788301ab62660b9cdce2ec5ce086e7939e1596597fd76f3825b75c93b7902ba",
          "transactionIndex": "0x2",
          "logIndex": "0x9",
          "removed": false
        }
      ],
      "status": "0x1",
      "logsBloom": "0x00000000000000000200000000002000000000000000000000000000000000800000008000000000000000000000000000000000000000000000000000200000000000000000000040000000000000000000000000000000000000000000000000000000000000000000000000000000000000000000000000000001000000000000000080000000000000000000000000000000000000000000000000000000020000000000000000000000000000000000000040000000000000000000000000008000000000000000000000000000000000000000000000000000000000000010000000000000000000000000000000000000000000000000000000000000",
      "type": "0x2",
      "effectiveGasPrice": "0x32aabeeb9"
    },
    {
      "transactionHash": "0xc5bde3cc46c697e094945c44b361de204c36011d463faa1e7da1962a7ef455a8",
      "transactionIndex": "0x0",
      "blockHash": "0x0210e55520b21747ff0db8a68af719174d079e8567963a4f847d6814e8720df3",
      "blockNumber": "0x46500c",
      "from": "0xC5e0B6E472dDE70eCEfFa4c568Bd52f2A7a1632A",
      "to": "0x1804Bf30507dc2EB3bDEbbbdd859991EAeF6EefF",
      "cumulativeGasUsed": "0x7a40",
      "gasUsed": "0x7a40",
      "contractAddress": null,
      "logs": [
        {
          "address": "0x1804Bf30507dc2EB3bDEbbbdd859991EAeF6EefF",
          "topics": [
            "0x8c5be1e5ebec7d5bd14f71427d1e84f3dd0314c0f7b2291e5b200ac8c7c3b925",
            "0x000000000000000000000000c5e0b6e472dde70eceffa4c568bd52f2a7a1632a",
            "0x0000000000000000000000006a763430e347d1e152823d646c700442a4db84aa"
          ],
          "data": "0x0000000000000000000000000000000000000000000000000000000005f5e101",
          "blockHash": "0x0210e55520b21747ff0db8a68af719174d079e8567963a4f847d6814e8720df3",
          "blockNumber": "0x46500c",
          "transactionHash": "0xc5bde3cc46c697e094945c44b361de204c36011d463faa1e7da1962a7ef455a8",
          "transactionIndex": "0x0",
          "logIndex": "0x0",
          "removed": false
        }
      ],
      "status": "0x1",
      "logsBloom": "0x00000000000000000000000000002000000000000000000000000000000000800000000000000000000000000000000000000000000000000000000000200000000000000000000040000000000000000000000000000000000000000000000000000000000000000000000000000000000000000000000000000001000000000000000080000000000000000000000000000000000000000000000000000000020000000000000000000000000000000000000040004000000002000000000000000000000000000000000000000000000000000000000000000000000000000010000008000000000000000000000000000000000000000000000000000000",
      "type": "0x2",
      "effectiveGasPrice": "0x30f7402cd"
    },
    {
      "transactionHash": "0x5fc9e93617366b238e78d482978fe8a58bb9d8bb7965c8464ba5314ad451d43f",
      "transactionIndex": "0x7",
      "blockHash": "0xaa785b6819096373abfdda9af1312abcbd1be9d719441e367e4b3c8e2160f359",
      "blockNumber": "0x46500d",
      "from": "0xC5e0B6E472dDE70eCEfFa4c568Bd52f2A7a1632A",
      "to": "0xAF0F6e8b0Dc5c913bbF4d14c22B4E78Dd14310B6",
      "cumulativeGasUsed": "0x7cb6c",
      "gasUsed": "0x7a34",
      "contractAddress": null,
      "logs": [
        {
          "address": "0xAF0F6e8b0Dc5c913bbF4d14c22B4E78Dd14310B6",
          "topics": [
            "0x8c5be1e5ebec7d5bd14f71427d1e84f3dd0314c0f7b2291e5b200ac8c7c3b925",
            "0x000000000000000000000000c5e0b6e472dde70eceffa4c568bd52f2a7a1632a",
            "0x0000000000000000000000006a763430e347d1e152823d646c700442a4db84aa"
          ],
          "data": "0x00000000000000000000000000000000000000000000000000000000001ec2a9",
          "blockHash": "0xaa785b6819096373abfdda9af1312abcbd1be9d719441e367e4b3c8e2160f359",
          "blockNumber": "0x46500d",
          "transactionHash": "0x5fc9e93617366b238e78d482978fe8a58bb9d8bb7965c8464ba5314ad451d43f",
          "transactionIndex": "0x7",
          "logIndex": "0x2",
          "removed": false
        }
      ],
      "status": "0x1",
      "logsBloom": "0x00000000000000000000000000002000000000000000000000000000000000800000000000000000000000000000000000000000000000000000000000200000000000000000000040000000000000000000000000000000000000000000000000000000000000000000000000000000000000000000000000000001000000000000000080000000000000000000000000000000000000000000000000000000020000000000000000000000000000000000008040000000000000000000000000000000000000000000000000080000000000000000000000000001000000000010000000000000000000000000000000000000000000000000000000000000",
      "type": "0x2",
      "effectiveGasPrice": "0x2e84bff26"
    },
    {
      "transactionHash": "0xaa63df9182d4f2e66f5d5e4c9a1967555363d10e0c742bb99d4b8aeae0a3b5ff",
      "transactionIndex": "0x2",
      "blockHash": "0x81c021346214ba34cd70ce5343a123a30bba9d0f9644f0d93e4de1faa260f615",
      "blockNumber": "0x46500e",
      "from": "0xC5e0B6E472dDE70eCEfFa4c568Bd52f2A7a1632A",
      "to": "0x6b8558764d3b7572136F17174Cb9aB1DDc7E1259",
      "cumulativeGasUsed": "0x1a3733",
      "gasUsed": "0x7a64",
      "contractAddress": null,
      "logs": [
        {
          "address": "0x6b8558764d3b7572136F17174Cb9aB1DDc7E1259",
          "topics": [
            "0x8c5be1e5ebec7d5bd14f71427d1e84f3dd0314c0f7b2291e5b200ac8c7c3b925",
            "0x000000000000000000000000c5e0b6e472dde70eceffa4c568bd52f2a7a1632a",
            "0x0000000000000000000000006a763430e347d1e152823d646c700442a4db84aa"
          ],
          "data": "0x0000000000000000000000000000000000000000000000056bc75e2d63100000",
          "blockHash": "0x81c021346214ba34cd70ce5343a123a30bba9d0f9644f0d93e4de1faa260f615",
          "blockNumber": "0x46500e",
          "transactionHash": "0xaa63df9182d4f2e66f5d5e4c9a1967555363d10e0c742bb99d4b8aeae0a3b5ff",
          "transactionIndex": "0x2",
          "logIndex": "0x9",
          "removed": false
        }
      ],
      "status": "0x1",
      "logsBloom": "0x00000000000000000000000000002800000000000000000000000000000000800000000000000000000000000000000000000000000000000000000000200000000000000000000040002000000000000000000000000000000000000000000000000000000000000000000000000000000000000000000000000001000000000000000080000000000000000000000000000000000000000000000000000000020000000000000000000000000000000000000040000000000000000000000000000000000000000000000000000000000000000000000000000000000000000010000400000000000000000000000000000000000000000000000000000000",
      "type": "0x2",
      "effectiveGasPrice": "0x2f730582d"
    },
    {
      "transactionHash": "0xc4cdb19ba70f3cb1cb46bcc79fa6c25fae832c31c48ffc626e68377be174cf87",
      "transactionIndex": "0x5",
      "blockHash": "0x4d2cfe89bfeb3b07bdc1c681e606543cb1dd674cfc719332bec300ec2b4d1abe",
      "blockNumber": "0x46500f",
      "from": "0xC5e0B6E472dDE70eCEfFa4c568Bd52f2A7a1632A",
      "to": "0x6A763430e347d1E152823d646c700442A4db84aA",
      "cumulativeGasUsed": "0x3168cb",
      "gasUsed": "0x25fd2e",
      "contractAddress": null,
      "logs": [
        {
          "address": "0xFF34B3d4Aee8ddCd6F9AFFFB6Fe49bD371b8a357",
          "topics": [
            "0xddf252ad1be2c89b69c2b068fc378daa952ba7f163c4a11628f55a4df523b3ef",
            "0x00000000000000000000000029598b72eb5cebd806c5dcd549490fda35b13cd8",
            "0x0000000000000000000000006a763430e347d1e152823d646c700442a4db84aa"
          ],
          "data": "0x00000000000000000000000000000000000000000000060f991f41e8ae4613fb",
          "blockHash": "0x4d2cfe89bfeb3b07bdc1c681e606543cb1dd674cfc719332bec300ec2b4d1abe",
          "blockNumber": "0x46500f",
          "transactionHash": "0xc4cdb19ba70f3cb1cb46bcc79fa6c25fae832c31c48ffc626e68377be174cf87",
          "transactionIndex": "0x5",
          "logIndex": "0x0",
          "removed": false
        },
        {
          "address": "0xFF34B3d4Aee8ddCd6F9AFFFB6Fe49bD371b8a357",
          "topics": [
            "0xddf252ad1be2c89b69c2b068fc378daa952ba7f163c4a11628f55a4df523b3ef",
            "0x00000000000000000000000029598b72eb5cebd806c5dcd549490fda35b13cd8",
            "0x0000000000000000000000006a763430e347d1e152823d646c700442a4db84aa"
          ],
          "data": "0x00000000000000000000000000000000000000000000000115dc75af45231e0c",
          "blockHash": "0x4d2cfe89bfeb3b07bdc1c681e606543cb1dd674cfc719332bec300ec2b4d1abe",
          "blockNumber": "0x46500f",
          "transactionHash": "0xc4cdb19ba70f3cb1cb46bcc79fa6c25fae832c31c48ffc626e68377be174cf87",
          "transactionIndex": "0x5",
          "logIndex": "0x1",
          "removed": false
        },
        {
          "address": "0xf8Fb3713D459D7C1018BD0A49D19b4C44290EBE5",
          "topics": [
            "0xddf252ad1be2c89b69c2b068fc378daa952ba7f163c4a11628f55a4df523b3ef",
            "0x0000000000000000000000003ffaf50d4f4e96eb78f2407c090b72e86ecaed24",
            "0x0000000000000000000000006a763430e347d1e152823d646c700442a4db84aa"
          ],
          "data": "0x00000000000000000000000000000000000000000000000000003fdb9e414bdc",
          "blockHash": "0x4d2cfe89bfeb3b07bdc1c681e606543cb1dd674cfc719332bec300ec2b4d1abe",
          "blockNumber": "0x46500f",
          "transactionHash": "0xc4cdb19ba70f3cb1cb46bcc79fa6c25fae832c31c48ffc626e68377be174cf87",
          "transactionIndex": "0x5",
          "logIndex": "0x2",
          "removed": false
        },
        {
          "address": "0xaA8E23Fb1079EA71e0a56F48a2aA51851D8433D0",
          "topics": [
            "0xddf252ad1be2c89b69c2b068fc378daa952ba7f163c4a11628f55a4df523b3ef",
            "0x000000000000000000000000af0f6e8b0dc5c913bbf4d14c22b4e78dd14310b6",
            "0x0000000000000000000000006a763430e347d1e152823d646c700442a4db84aa"
          ],
          "data": "0x000000000000000000000000000000000000000000000000000000046d34d086",
          "blockHash": "0x4d2cfe89bfeb3b07bdc1c681e606543cb1dd674cfc719332bec300ec2b4d1abe",
          "blockNumber": "0x46500f",
          "transactionHash": "0xc4cdb19ba70f3cb1cb46bcc79fa6c25fae832c31c48ffc626e68377be174cf87",
          "transactionIndex": "0x5",
          "logIndex": "0x3",
          "removed": false
        },
        {
          "address": "0xaA8E23Fb1079EA71e0a56F48a2aA51851D8433D0",
          "topics": [
            "0xddf252ad1be2c89b69c2b068fc378daa952ba7f163c4a11628f55a4df523b3ef",
            "0x000000000000000000000000af0f6e8b0dc5c913bbf4d14c22b4e78dd14310b6",
            "0x0000000000000000000000006a763430e347d1e152823d646c700442a4db84aa"
          ],
          "data": "0x000000000000000000000000000000000000000000000000000000000098c180",
          "blockHash": "0x4d2cfe89bfeb3b07bdc1c681e606543cb1dd674cfc719332bec300ec2b4d1abe",
          "blockNumber": "0x46500f",
          "transactionHash": "0xc4cdb19ba70f3cb1cb46bcc79fa6c25fae832c31c48ffc626e68377be174cf87",
          "transactionIndex": "0x5",
          "logIndex": "0x4",
          "removed": false
        },
        {
          "address": "0x6d906e526a4e2Ca02097BA9d0caA3c382F52278E",
          "topics": [
            "0xddf252ad1be2c89b69c2b068fc378daa952ba7f163c4a11628f55a4df523b3ef",
            "0x000000000000000000000000b20691021f9aced8631edaa3c0cd2949eb45662d",
            "0x0000000000000000000000006a763430e347d1e152823d646c700442a4db84aa"
          ],
          "data": "0x00000000000000000000000000000000000000000000000000000000000000c9",
          "blockHash": "0x4d2cfe89bfeb3b07bdc1c681e606543cb1dd674cfc719332bec300ec2b4d1abe",
          "blockNumber": "0x46500f",
          "transactionHash": "0xc4cdb19ba70f3cb1cb46bcc79fa6c25fae832c31c48ffc626e68377be174cf87",
          "transactionIndex": "0x5",
          "logIndex": "0x5",
          "removed": false
        },
        {
          "address": "0x6d906e526a4e2Ca02097BA9d0caA3c382F52278E",
          "topics": [
            "0xddf252ad1be2c89b69c2b068fc378daa952ba7f163c4a11628f55a4df523b3ef",
            "0x000000000000000000000000b20691021f9aced8631edaa3c0cd2949eb45662d",
            "0x0000000000000000000000006a763430e347d1e152823d646c700442a4db84aa"
          ],
          "data": "0x00000000000000000000000000000000000000000000000000000000000002bd",
          "blockHash": "0x4d2cfe89bfeb3b07bdc1c681e606543cb1dd674cfc719332bec300ec2b4d1abe",
          "blockNumber": "0x46500f",
          "transactionHash": "0xc4cdb19ba70f3cb1cb46bcc79fa6c25fae832c31c48ffc626e68377be174cf87",
          "transactionIndex": "0x5",
          "logIndex": "0x6",
          "removed": false
        },
        {
          "address": "0xFF34B3d4Aee8ddCd6F9AFFFB6Fe49bD371b8a357",
          "topics": [
            "0x8c5be1e5ebec7d5bd14f71427d1e84f3dd0314c0f7b2291e5b200ac8c7c3b925",
            "0x0000000000000000000000006a763430e347d1e152823d646c700442a4db84aa",
            "0x0000000000000000000000006ae43d3271ff6888e7fc43fd7321a503ff738951"
          ],
          "data": "0x00000000000000000000000000000000000000000000060f991f41e8ae4613fb",
          "blockHash": "0x4d2cfe89bfeb3b07bdc1c681e606543cb1dd674cfc719332bec300ec2b4d1abe",
          "blockNumber": "0x46500f",
          "transactionHash": "0xc4cdb19ba70f3cb1cb46bcc79fa6c25fae832c31c48ffc626e68377be174cf87",
          "transactionIndex": "0x5",
          "logIndex": "0x7",
          "removed": false
        },
        {
          "address": "0x22675C506A8FC26447aFFfa33640f6af5d4D4cF0",
          "topics": [
            "0xddf252ad1be2c89b69c2b068fc378daa952ba7f163c4a11628f55a4df523b3ef",
            "0x000000000000000000000000c5e0b6e472dde70eceffa4c568bd52f2a7a1632a",
            "0x0000000000000000000000000000000000000000000000000000000000000000"
          ],
          "data": "0x00000000000000000000000000000000000000000000060f98a55cf43aa2a8d6",
          "blockHash": "0x4d2cfe89bfeb3b07bdc1c681e606543cb1dd674cfc719332bec300ec2b4d1abe",
          "blockNumber": "0x46500f",
          "transactionHash": "0xc4cdb19ba70f3cb1cb46bcc79fa6c25fae832c31c48ffc626e68377be174cf87",
          "transactionIndex": "0x5",
          "logIndex": "0x8",
          "removed": false
        },
        {
          "address": "0x22675C506A8FC26447aFFfa33640f6af5d4D4cF0",
          "topics": [
            "0x4cf25bc1d991c17529c25213d3cc0cda295eeaad5f13f361969b12ea48015f90",
            "0x000000000000000000000000c5e0b6e472dde70eceffa4c568bd52f2a7a1632a",
            "0x0000000000000000000000000000000000000000000000000000000000000000"
          ],
          "data": "0x00000000000000000000000000000000000000000000060f98a55cf43aa2a8d60000000000000000000000000000000000000000000000000079e4f473a36b2500000000000000000000000000000000000000000346f4be76dd9390265f83c9",
          "blockHash": "0x4d2cfe89bfeb3b07bdc1c681e606543cb1dd674cfc719332bec300ec2b4d1abe",
          "blockNumber": "0x46500f",
          "transactionHash": "0xc4cdb19ba70f3cb1cb46bcc79fa6c25fae832c31c48ffc626e68377be174cf87",
          "transactionIndex": "0x5",
          "logIndex": "0x9",
          "removed": false
        },
        {
          "address": "0x6Ae43d3271ff6888e7Fc43Fd7321a503ff738951",
          "topics": [
            "0x804c9b842b2748a22bb64b345453a3de7ca54a6ca45ce00d415894979e22897a",
            "0x000000000000000000000000ff34b3d4aee8ddcd6f9afffb6fe49bd371b8a357"
          ],
          "data": "0x00000000000000000000000000000000000000000001e237b8d5bcc3d7c76ef50000000000000000000000000000000000000000002a6b9386abeafa56d98431000000000000000000000000000000000000000000087d50c23f248726cc218500000000000000000000000000000000000000000345445271e422f85e476b5100000000000000000000000000000000000000000346f4be76dd9390265f83c9",
          "blockHash": "0x4d2cfe89bfeb3b07bdc1c681e606543cb1dd674cfc719332bec300ec2b4d1abe",
          "blockNumber": "0x46500f",
          "transactionHash": "0xc4cdb19ba70f3cb1cb46bcc79fa6c25fae832c31c48ffc626e68377be174cf87",
          "transactionIndex": "0x5",
          "logIndex": "0xa",
          "removed": false
        },
        {
          "address": "0xFF34B3d4Aee8ddCd6F9AFFFB6Fe49bD371b8a357",
          "topics": [
            "0xddf252ad1be2c89b69c2b068fc378daa952ba7f163c4a11628f55a4df523b3ef",
            "0x0000000000000000000000006a763430e347d1e152823d646c700442a4db84aa",
            "0x00000000000000000000000029598b72eb5cebd806c5dcd549490fda35b13cd8"
          ],
          "data": "0x00000000000000000000000000000000000000000000060f991f41e8ae4613fb",
          "blockHash": "0x4d2cfe89bfeb3b07bdc1c681e606543cb1dd674cfc719332bec300ec2b4d1abe",
          "blockNumber": "0x46500f",
          "transactionHash": "0xc4cdb19ba70f3cb1cb46bcc79fa6c25fae832c31c48ffc626e68377be174cf87",
          "transactionIndex": "0x5",
          "logIndex": "0xb",
          "removed": false
        },
        {
          "address": "0xFF34B3d4Aee8ddCd6F9AFFFB6Fe49bD371b8a357",
          "topics": [
            "0x8c5be1e5ebec7d5bd14f71427d1e84f3dd0314c0f7b2291e5b200ac8c7c3b925",
            "0x0000000000000000000000006a763430e347d1e152823d646c700442a4db84aa",
            "0x0000000000000000000000006ae43d3271ff6888e7fc43fd7321a503ff738951"
          ],
          "data": "0x0000000000000000000000000000000000000000000000000000000000000000",
          "blockHash": "0x4d2cfe89bfeb3b07bdc1c681e606543cb1dd674cfc719332bec300ec2b4d1abe",
          "blockNumber": "0x46500f",
          "transactionHash": "0xc4cdb19ba70f3cb1cb46bcc79fa6c25fae832c31c48ffc626e68377be174cf87",
          "transactionIndex": "0x5",
          "logIndex": "0xc",
          "removed": false
        },
        {
          "address": "0x6Ae43d3271ff6888e7Fc43Fd7321a503ff738951",
          "topics": [
            "0xa534c8dbe71f871f9f3530e97a74601fea17b426cae02e1c5aee42c96c784051",
            "0x000000000000000000000000ff34b3d4aee8ddcd6f9afffb6fe49bd371b8a357",
            "0x000000000000000000000000c5e0b6e472dde70eceffa4c568bd52f2a7a1632a",
            "0x0000000000000000000000006a763430e347d1e152823d646c700442a4db84aa"
          ],
          "data": "0x00000000000000000000000000000000000000000000060f991f41e8ae4613fb0000000000000000000000000000000000000000000000000000000000000000",
          "blockHash": "0x4d2cfe89bfeb3b07bdc1c681e606543cb1dd674cfc719332bec300ec2b4d1abe",
          "blockNumber": "0x46500f",
          "transactionHash": "0xc4cdb19ba70f3cb1cb46bcc79fa6c25fae832c31c48ffc626e68377be174cf87",
          "transactionIndex": "0x5",
          "logIndex": "0xd",
          "removed": false
        },
        {
          "address": "0xFF34B3d4Aee8ddCd6F9AFFFB6Fe49bD371b8a357",
          "topics": [
            "0x8c5be1e5ebec7d5bd14f71427d1e84f3dd0314c0f7b2291e5b200ac8c7c3b925",
            "0x0000000000000000000000006a763430e347d1e152823d646c700442a4db84aa",
            "0x0000000000000000000000006ae43d3271ff6888e7fc43fd7321a503ff738951"
          ],
          "data": "0x00000000000000000000000000000000000000000000000115dc75af45231e0c",
          "blockHash": "0x4d2cfe89bfeb3b07bdc1c681e606543cb1dd674cfc719332bec300ec2b4d1abe",
          "blockNumber": "0x46500f",
          "transactionHash": "0xc4cdb19ba70f3cb1cb46bcc79fa6c25fae832c31c48ffc626e68377be174cf87",
          "transactionIndex": "0x5",
          "logIndex": "0xe",
          "removed": false
        },
        {
          "address": "0xbEF786E742edB13361ff2f005b901A82c23AA491",
          "topics": [
            "0xddf252ad1be2c89b69c2b068fc378daa952ba7f163c4a11628f55a4df523b3ef",
            "0x000000000000000000000000c5e0b6e472dde70eceffa4c568bd52f2a7a1632a",
            "0x0000000000000000000000000000000000000000000000000000000000000000"
          ],
          "data": "0x00000000000000000000000000000000000000000000000115dc0aa8755aa6c1",
          "blockHash": "0x4d2cfe89bfeb3b07bdc1c681e606543cb1dd674cfc719332bec300ec2b4d1abe",
          "blockNumber": "0x46500f",
          "transactionHash": "0xc4cdb19ba70f3cb1cb46bcc79fa6c25fae832c31c48ffc626e68377be174cf87",
          "transactionIndex": "0x5",
          "logIndex": "0xf",
          "removed": false
        },
        {
          "address": "0xbEF786E742edB13361ff2f005b901A82c23AA491",
          "topics": [
            "0x44bd20a79e993bdcc7cbedf54a3b4d19fb78490124b6b90d04fe3242eea579e8",
            "0x000000000000000000000000c5e0b6e472dde70eceffa4c568bd52f2a7a1632a"
          ],
          "data": "0x00000000000000000000000000000000000000000000000115dc0aa8755aa6c100000000000000000000000000000000000000000000000115dc7c15bde26b7800000000000000000000000000000000000000000000000000006b06cfc8774b0000000000000000000000000000000000000000002c882423b6b54643e362d2000000000000000000000000000000000000000000000b797ddb7402d7413c66",
          "blockHash": "0x4d2cfe89bfeb3b07bdc1c681e606543cb1dd674cfc719332bec300ec2b4d1abe",
          "blockNumber": "0x46500f",
          "transactionHash": "0xc4cdb19ba70f3cb1cb46bcc79fa6c25fae832c31c48ffc626e68377be174cf87",
          "transactionIndex": "0x5",
          "logIndex": "0x10",
          "removed": false
        },
        {
          "address": "0x6Ae43d3271ff6888e7Fc43Fd7321a503ff738951",
          "topics": [
            "0x804c9b842b2748a22bb64b345453a3de7ca54a6ca45ce00d415894979e22897a",
            "0x000000000000000000000000ff34b3d4aee8ddcd6f9afffb6fe49bd371b8a357"
          ],
          "data": "0x00000000000000000000000000000000000000000001e22d0506645e63e8df750000000000000000000000000000000000000000002a6b924f3b88cc05f03414000000000000000000000000000000000000000000087d4706bc13149f81a0a300000000000000000000000000000000000000000345445271e422f85e476b5100000000000000000000000000000000000000000346f4be76dd9390265f83c9",
          "blockHash": "0x4d2cfe89bfeb3b07bdc1c681e606543cb1dd674cfc719332bec300ec2b4d1abe",
          "blockNumber": "0x46500f",
          "transactionHash": "0xc4cdb19ba70f3cb1cb46bcc79fa6c25fae832c31c48ffc626e68377be174cf87",
          "transactionIndex": "0x5",
          "logIndex": "0x11",
          "removed": false
        },
        {
          "address": "0xFF34B3d4Aee8ddCd6F9AFFFB6Fe49bD371b8a357",
          "topics": [
            "0xddf252ad1be2c89b69c2b068fc378daa952ba7f163c4a11628f55a4df523b3ef",
            "0x0000000000000000000000006a763430e347d1e152823d646c700442a4db84aa",
            "0x00000000000000000000000029598b72eb5cebd806c5dcd549490fda35b13cd8"
          ],
          "data": "0x00000000000000000000000000000000000000000000000115dc75af45231e0c",
          "blockHash": "0x4d2cfe89bfeb3b07bdc1c681e606543cb1dd674cfc719332bec300ec2b4d1abe",
          "blockNumber": "0x46500f",
          "transactionHash": "0xc4cdb19ba70f3cb1cb46bcc79fa6c25fae832c31c48ffc626e68377be174cf87",
          "transactionIndex": "0x5",
          "logIndex": "0x12",
          "removed": false
        },
        {
          "address": "0xFF34B3d4Aee8ddCd6F9AFFFB6Fe49bD371b8a357",
          "topics": [
            "0x8c5be1e5ebec7d5bd14f71427d1e84f3dd0314c0f7b2291e5b200ac8c7c3b925",
            "0x0000000000000000000000006a763430e347d1e152823d646c700442a4db84aa",
            "0x0000000000000000000000006ae43d3271ff6888e7fc43fd7321a503ff738951"
          ],
          "data": "0x0000000000000000000000000000000000000000000000000000000000000000",
          "blockHash": "0x4d2cfe89bfeb3b07bdc1c681e606543cb1dd674cfc719332bec300ec2b4d1abe",
          "blockNumber": "0x46500f",
          "transactionHash": "0xc4cdb19ba70f3cb1cb46bcc79fa6c25fae832c31c48ffc626e68377be174cf87",
          "transactionIndex": "0x5",
          "logIndex": "0x13",
          "removed": false
        },
        {
          "address": "0x6Ae43d3271ff6888e7Fc43Fd7321a503ff738951",
          "topics": [
            "0xa534c8dbe71f871f9f3530e97a74601fea17b426cae02e1c5aee42c96c784051",
            "0x000000000000000000000000ff34b3d4aee8ddcd6f9afffb6fe49bd371b8a357",
            "0x000000000000000000000000c5e0b6e472dde70eceffa4c568bd52f2a7a1632a",
            "0x0000000000000000000000006a763430e347d1e152823d646c700442a4db84aa"
          ],
          "data": "0x00000000000000000000000000000000000000000000000115dc75af45231e0c0000000000000000000000000000000000000000000000000000000000000000",
          "blockHash": "0x4d2cfe89bfeb3b07bdc1c681e606543cb1dd674cfc719332bec300ec2b4d1abe",
          "blockNumber": "0x46500f",
          "transactionHash": "0xc4cdb19ba70f3cb1cb46bcc79fa6c25fae832c31c48ffc626e68377be174cf87",
          "transactionIndex": "0x5",
          "logIndex": "0x14",
          "removed": false
        },
        {
          "address": "0xf8Fb3713D459D7C1018BD0A49D19b4C44290EBE5",
          "topics": [
            "0x8c5be1e5ebec7d5bd14f71427d1e84f3dd0314c0f7b2291e5b200ac8c7c3b925",
            "0x0000000000000000000000006a763430e347d1e152823d646c700442a4db84aa",
            "0x0000000000000000000000006ae43d3271ff6888e7fc43fd7321a503ff738951"
          ],
          "data": "0x00000000000000000000000000000000000000000000000000003fdb9e414bdc",
          "blockHash": "0x4d2cfe89bfeb3b07bdc1c681e606543cb1dd674cfc719332bec300ec2b4d1abe",
          "blockNumber": "0x46500f",
          "transactionHash": "0xc4cdb19ba70f3cb1cb46bcc79fa6c25fae832c31c48ffc626e68377be174cf87",
          "transactionIndex": "0x5",
          "logIndex": "0x15",
          "removed": false
        },
        {
          "address": "0x34a4d932E722b9dFb492B9D8131127690CE2430B",
          "topics": [
            "0xddf252ad1be2c89b69c2b068fc378daa952ba7f163c4a11628f55a4df523b3ef",
            "0x000000000000000000000000c5e0b6e472dde70eceffa4c568bd52f2a7a1632a",
            "0x0000000000000000000000000000000000000000000000000000000000000000"
          ],
          "data": "0x00000000000000000000000000000000000000000000000000003fd662027860",
          "blockHash": "0x4d2cfe89bfeb3b07bdc1c681e606543cb1dd674cfc719332bec300ec2b4d1abe",
          "blockNumber": "0x46500f",
          "transactionHash": "0xc4cdb19ba70f3cb1cb46bcc79fa6c25fae832c31c48ffc626e68377be174cf87",
          "transactionIndex": "0x5",
          "logIndex": "0x16",
          "removed": false
        },
        {
          "address": "0x34a4d932E722b9dFb492B9D8131127690CE2430B",
          "topics": [
            "0x4cf25bc1d991c17529c25213d3cc0cda295eeaad5f13f361969b12ea48015f90",
            "0x000000000000000000000000c5e0b6e472dde70eceffa4c568bd52f2a7a1632a",
            "0x0000000000000000000000000000000000000000000000000000000000000000"
          ],
          "data": "0x00000000000000000000000000000000000000000000000000003fd662027860000000000000000000000000000000000000000000000000000000053c3ed37c000000000000000000000000000000000000000003a09004442e5e700c450264",
          "blockHash": "0x4d2cfe89bfeb3b07bdc1c681e606543cb1dd674cfc719332bec300ec2b4d1abe",
          "blockNumber": "0x46500f",
          "transactionHash": "0xc4cdb19ba70f3cb1cb46bcc79fa6c25fae832c31c48ffc626e68377be174cf87",
          "transactionIndex": "0x5",
          "logIndex": "0x17",
          "removed": false
        },
        {
          "address": "0x6Ae43d3271ff6888e7Fc43Fd7321a503ff738951",
          "topics": [
            "0x804c9b842b2748a22bb64b345453a3de7ca54a6ca45ce00d415894979e22897a",
            "0x000000000000000000000000f8fb3713d459d7c1018bd0a49d19b4c44290ebe5"
          ],
          "data": "0x000000000000000000000000000000000000000006ddd125c01fa6637fe8c97200000000000000000000000000000000000000000953b0b4c3997985b4b26330000000000000000000000000000000000000000009093e76fce56dfb1ab2633000000000000000000000000000000000000000000387bbee704dff694a5f412b000000000000000000000000000000000000000003a09004442e5e700c450264",
          "blockHash": "0x4d2cfe89bfeb3b07bdc1c681e606543cb1dd674cfc719332bec300ec2b4d1abe",
          "blockNumber": "0x46500f",
          "transactionHash": "0xc4cdb19ba70f3cb1cb46bcc79fa6c25fae832c31c48ffc626e68377be174cf87",
          "transactionIndex": "0x5",
          "logIndex": "0x18",
          "removed": false
        },
        {
          "address": "0xf8Fb3713D459D7C1018BD0A49D19b4C44290EBE5",
          "topics": [
            "0xddf252ad1be2c89b69c2b068fc378daa952ba7f163c4a11628f55a4df523b3ef",
            "0x0000000000000000000000006a763430e347d1e152823d646c700442a4db84aa",
            "0x0000000000000000000000003ffaf50d4f4e96eb78f2407c090b72e86ecaed24"
          ],
          "data": "0x00000000000000000000000000000000000000000000000000003fdb9e414bdc",
          "blockHash": "0x4d2cfe89bfeb3b07bdc1c681e606543cb1dd674cfc719332bec300ec2b4d1abe",
          "blockNumber": "0x46500f",
          "transactionHash": "0xc4cdb19ba70f3cb1cb46bcc79fa6c25fae832c31c48ffc626e68377be174cf87",
          "transactionIndex": "0x5",
          "logIndex": "0x19",
          "removed": false
        },
        {
          "address": "0xf8Fb3713D459D7C1018BD0A49D19b4C44290EBE5",
          "topics": [
            "0x8c5be1e5ebec7d5bd14f71427d1e84f3dd0314c0f7b2291e5b200ac8c7c3b925",
            "0x0000000000000000000000006a763430e347d1e152823d646c700442a4db84aa",
            "0x0000000000000000000000006ae43d3271ff6888e7fc43fd7321a503ff738951"
          ],
          "data": "0x0000000000000000000000000000000000000000000000000000000000000000",
          "blockHash": "0x4d2cfe89bfeb3b07bdc1c681e606543cb1dd674cfc719332bec300ec2b4d1abe",
          "blockNumber": "0x46500f",
          "transactionHash": "0xc4cdb19ba70f3cb1cb46bcc79fa6c25fae832c31c48ffc626e68377be174cf87",
          "transactionIndex": "0x5",
          "logIndex": "0x1a",
          "removed": false
        },
        {
          "address": "0x6Ae43d3271ff6888e7Fc43Fd7321a503ff738951",
          "topics": [
            "0xa534c8dbe71f871f9f3530e97a74601fea17b426cae02e1c5aee42c96c784051",
            "0x000000000000000000000000f8fb3713d459d7c1018bd0a49d19b4c44290ebe5",
            "0x000000000000000000000000c5e0b6e472dde70eceffa4c568bd52f2a7a1632a",
            "0x0000000000000000000000006a763430e347d1e152823d646c700442a4db84aa"
          ],
          "data": "0x00000000000000000000000000000000000000000000000000003fdb9e414bdc0000000000000000000000000000000000000000000000000000000000000000",
          "blockHash": "0x4d2cfe89bfeb3b07bdc1c681e606543cb1dd674cfc719332bec300ec2b4d1abe",
          "blockNumber": "0x46500f",
          "transactionHash": "0xc4cdb19ba70f3cb1cb46bcc79fa6c25fae832c31c48ffc626e68377be174cf87",
          "transactionIndex": "0x5",
          "logIndex": "0x1b",
          "removed": false
        },
        {
          "address": "0xaA8E23Fb1079EA71e0a56F48a2aA51851D8433D0",
          "topics": [
            "0x8c5be1e5ebec7d5bd14f71427d1e84f3dd0314c0f7b2291e5b200ac8c7c3b925",
            "0x0000000000000000000000006a763430e347d1e152823d646c700442a4db84aa",
            "0x0000000000000000000000006ae43d3271ff6888e7fc43fd7321a503ff738951"
          ],
          "data": "0x000000000000000000000000000000000000000000000000000000046d34d086",
          "blockHash": "0x4d2cfe89bfeb3b07bdc1c681e606543cb1dd674cfc719332bec300ec2b4d1abe",
          "blockNumber": "0x46500f",
          "transactionHash": "0xc4cdb19ba70f3cb1cb46bcc79fa6c25fae832c31c48ffc626e68377be174cf87",
          "transactionIndex": "0x5",
          "logIndex": "0x1c",
          "removed": false
        },
        {
          "address": "0x9844386d29EEd970B9F6a2B9a676083b0478210e",
          "topics": [
            "0xddf252ad1be2c89b69c2b068fc378daa952ba7f163c4a11628f55a4df523b3ef",
            "0x000000000000000000000000c5e0b6e472dde70eceffa4c568bd52f2a7a1632a",
            "0x0000000000000000000000000000000000000000000000000000000000000000"
          ],
          "data": "0x000000000000000000000000000000000000000000000000000000046d34d044",
          "blockHash": "0x4d2cfe89bfeb3b07bdc1c681e606543cb1dd674cfc719332bec300ec2b4d1abe",
          "blockNumber": "0x46500f",
          "transactionHash": "0xc4cdb19ba70f3cb1cb46bcc79fa6c25fae832c31c48ffc626e68377be174cf87",
          "transactionIndex": "0x5",
          "logIndex": "0x1d",
          "removed": false
        },
        {
          "address": "0x9844386d29EEd970B9F6a2B9a676083b0478210e",
          "topics": [
            "0x4cf25bc1d991c17529c25213d3cc0cda295eeaad5f13f361969b12ea48015f90",
            "0x000000000000000000000000c5e0b6e472dde70eceffa4c568bd52f2a7a1632a",
            "0x0000000000000000000000000000000000000000000000000000000000000000"
          ],
          "data": "0x000000000000000000000000000000000000000000000000000000046d34d044000000000000000000000000000000000000000000000000000000000000004200000000000000000000000000000000000000000345056456461d33f8a9fe25",
          "blockHash": "0x4d2cfe89bfeb3b07bdc1c681e606543cb1dd674cfc719332bec300ec2b4d1abe",
          "blockNumber": "0x46500f",
          "transactionHash": "0xc4cdb19ba70f3cb1cb46bcc79fa6c25fae832c31c48ffc626e68377be174cf87",
          "transactionIndex": "0x5",
          "logIndex": "0x1e",
          "removed": false
        },
        {
          "address": "0x6Ae43d3271ff6888e7Fc43Fd7321a503ff738951",
          "topics": [
            "0x804c9b842b2748a22bb64b345453a3de7ca54a6ca45ce00d415894979e22897a",
            "0x000000000000000000000000aa8e23fb1079ea71e0a56f48a2aa51851d8433d0"
          ],
          "data": "0x00000000000000000000000000000000000000000000039453d7b040fc33ed2800000000000000000000000000000000000000000029613bdd99cab0b118a17a000000000000000000000000000000000000000000002a9379ae2239f8c50bcd00000000000000000000000000000000000000000342ac3f084978be5690fa7b00000000000000000000000000000000000000000345056456461d33f8a9fe25",
          "blockHash": "0x4d2cfe89bfeb3b07bdc1c681e606543cb1dd674cfc719332bec300ec2b4d1abe",
          "blockNumber": "0x46500f",
          "transactionHash": "0xc4cdb19ba70f3cb1cb46bcc79fa6c25fae832c31c48ffc626e68377be174cf87",
          "transactionIndex": "0x5",
          "logIndex": "0x1f",
          "removed": false
        },
        {
          "address": "0xaA8E23Fb1079EA71e0a56F48a2aA51851D8433D0",
          "topics": [
            "0xddf252ad1be2c89b69c2b068fc378daa952ba7f163c4a11628f55a4df523b3ef",
            "0x0000000000000000000000006a763430e347d1e152823d646c700442a4db84aa",
            "0x000000000000000000000000af0f6e8b0dc5c913bbf4d14c22b4e78dd14310b6"
          ],
          "data": "0x000000000000000000000000000000000000000000000000000000046d34d086",
          "blockHash": "0x4d2cfe89bfeb3b07bdc1c681e606543cb1dd674cfc719332bec300ec2b4d1abe",
          "blockNumber": "0x46500f",
          "transactionHash": "0xc4cdb19ba70f3cb1cb46bcc79fa6c25fae832c31c48ffc626e68377be174cf87",
          "transactionIndex": "0x5",
          "logIndex": "0x20",
          "removed": false
        },
        {
          "address": "0xaA8E23Fb1079EA71e0a56F48a2aA51851D8433D0",
          "topics": [
            "0x8c5be1e5ebec7d5bd14f71427d1e84f3dd0314c0f7b2291e5b200ac8c7c3b925",
            "0x0000000000000000000000006a763430e347d1e152823d646c700442a4db84aa",
            "0x0000000000000000000000006ae43d3271ff6888e7fc43fd7321a503ff738951"
          ],
          "data": "0x0000000000000000000000000000000000000000000000000000000000000000",
          "blockHash": "0x4d2cfe89bfeb3b07bdc1c681e606543cb1dd674cfc719332bec300ec2b4d1abe",
          "blockNumber": "0x46500f",
          "transactionHash": "0xc4cdb19ba70f3cb1cb46bcc79fa6c25fae832c31c48ffc626e68377be174cf87",
          "transactionIndex": "0x5",
          "logIndex": "0x21",
          "removed": false
        },
        {
          "address": "0x6Ae43d3271ff6888e7Fc43Fd7321a503ff738951",
          "topics": [
            "0xa534c8dbe71f871f9f3530e97a74601fea17b426cae02e1c5aee42c96c784051",
            "0x000000000000000000000000aa8e23fb1079ea71e0a56f48a2aa51851d8433d0",
            "0x000000000000000000000000c5e0b6e472dde70eceffa4c568bd52f2a7a1632a",
            "0x0000000000000000000000006a763430e347d1e152823d646c700442a4db84aa"
          ],
          "data": "0x000000000000000000000000000000000000000000000000000000046d34d0860000000000000000000000000000000000000000000000000000000000000000",
          "blockHash": "0x4d2cfe89bfeb3b07bdc1c681e606543cb1dd674cfc719332bec300ec2b4d1abe",
          "blockNumber": "0x46500f",
          "transactionHash": "0xc4cdb19ba70f3cb1cb46bcc79fa6c25fae832c31c48ffc626e68377be174cf87",
          "transactionIndex": "0x5",
          "logIndex": "0x22",
          "removed": false
        },
        {
          "address": "0xaA8E23Fb1079EA71e0a56F48a2aA51851D8433D0",
          "topics": [
            "0x8c5be1e5ebec7d5bd14f71427d1e84f3dd0314c0f7b2291e5b200ac8c7c3b925",
            "0x0000000000000000000000006a763430e347d1e152823d646c700442a4db84aa",
            "0x0000000000000000000000006ae43d3271ff6888e7fc43fd7321a503ff738951"
          ],
          "data": "0x000000000000000000000000000000000000000000000000000000000098c180",
          "blockHash": "0x4d2cfe89bfeb3b07bdc1c681e606543cb1dd674cfc719332bec300ec2b4d1abe",
          "blockNumber": "0x46500f",
          "transactionHash": "0xc4cdb19ba70f3cb1cb46bcc79fa6c25fae832c31c48ffc626e68377be174cf87",
          "transactionIndex": "0x5",
          "logIndex": "0x23",
          "removed": false
        },
        {
          "address": "0xEAF54fA3b1C7243033C2893c6B807f9cEaBCf0AF",
          "topics": [
            "0xddf252ad1be2c89b69c2b068fc378daa952ba7f163c4a11628f55a4df523b3ef",
            "0x000000000000000000000000c5e0b6e472dde70eceffa4c568bd52f2a7a1632a",
            "0x0000000000000000000000000000000000000000000000000000000000000000"
          ],
          "data": "0x000000000000000000000000000000000000000000000000000000000098c147",
          "blockHash": "0x4d2cfe89bfeb3b07bdc1c681e606543cb1dd674cfc719332bec300ec2b4d1abe",
          "blockNumber": "0x46500f",
          "transactionHash": "0xc4cdb19ba70f3cb1cb46bcc79fa6c25fae832c31c48ffc626e68377be174cf87",
          "transactionIndex": "0x5",
          "logIndex": "0x24",
          "removed": false
        },
        {
          "address": "0xEAF54fA3b1C7243033C2893c6B807f9cEaBCf0AF",
          "topics": [
            "0x44bd20a79e993bdcc7cbedf54a3b4d19fb78490124b6b90d04fe3242eea579e8",
            "0x000000000000000000000000c5e0b6e472dde70eceffa4c568bd52f2a7a1632a"
          ],
          "data": "0x000000000000000000000000000000000000000000000000000000000098c147000000000000000000000000000000000000000000000000000000000098c18300000000000000000000000000000000000000000000000000000000000000390000000000000000000000000000000000000000002b61797a8e17d34c79ab610000000000000000000000000000000000000000000000000000001e266562f7",
          "blockHash": "0x4d2cfe89bfeb3b07bdc1c681e606543cb1dd674cfc719332bec300ec2b4d1abe",
          "blockNumber": "0x46500f",
          "transactionHash": "0xc4cdb19ba70f3cb1cb46bcc79fa6c25fae832c31c48ffc626e68377be174cf87",
          "transactionIndex": "0x5",
          "logIndex": "0x25",
          "removed": false
        },
        {
          "address": "0x6Ae43d3271ff6888e7Fc43Fd7321a503ff738951",
          "topics": [
            "0x804c9b842b2748a22bb64b345453a3de7ca54a6ca45ce00d415894979e22897a",
            "0x000000000000000000000000aa8e23fb1079ea71e0a56f48a2aa51851d8433d0"
          ],
          "data": "0x00000000000000000000000000000000000000000000039443420c13f20b800300000000000000000000000000000000000000000029613bdb8fd80d6c93ca1c000000000000000000000000000000000000000000002a93695e8d1fd49e50db00000000000000000000000000000000000000000342ac3f084978be5690fa7b00000000000000000000000000000000000000000345056456461d33f8a9fe25",
          "blockHash": "0x4d2cfe89bfeb3b07bdc1c681e606543cb1dd674cfc719332bec300ec2b4d1abe",
          "blockNumber": "0x46500f",
          "transactionHash": "0xc4cdb19ba70f3cb1cb46bcc79fa6c25fae832c31c48ffc626e68377be174cf87",
          "transactionIndex": "0x5",
          "logIndex": "0x26",
          "removed": false
        },
        {
          "address": "0xaA8E23Fb1079EA71e0a56F48a2aA51851D8433D0",
          "topics": [
            "0xddf252ad1be2c89b69c2b068fc378daa952ba7f163c4a11628f55a4df523b3ef",
            "0x0000000000000000000000006a763430e347d1e152823d646c700442a4db84aa",
            "0x000000000000000000000000af0f6e8b0dc5c913bbf4d14c22b4e78dd14310b6"
          ],
          "data": "0x000000000000000000000000000000000000000000000000000000000098c180",
          "blockHash": "0x4d2cfe89bfeb3b07bdc1c681e606543cb1dd674cfc719332bec300ec2b4d1abe",
          "blockNumber": "0x46500f",
          "transactionHash": "0xc4cdb19ba70f3cb1cb46bcc79fa6c25fae832c31c48ffc626e68377be174cf87",
          "transactionIndex": "0x5",
          "logIndex": "0x27",
          "removed": false
        },
        {
          "address": "0xaA8E23Fb1079EA71e0a56F48a2aA51851D8433D0",
          "topics": [
            "0x8c5be1e5ebec7d5bd14f71427d1e84f3dd0314c0f7b2291e5b200ac8c7c3b925",
            "0x0000000000000000000000006a763430e347d1e152823d646c700442a4db84aa",
            "0x0000000000000000000000006ae43d3271ff6888e7fc43fd7321a503ff738951"
          ],
          "data": "0x0000000000000000000000000000000000000000000000000000000000000000",
          "blockHash": "0x4d2cfe89bfeb3b07bdc1c681e606543cb1dd674cfc719332bec300ec2b4d1abe",
          "blockNumber": "0x46500f",
          "transactionHash": "0xc4cdb19ba70f3cb1cb46bcc79fa6c25fae832c31c48ffc626e68377be174cf87",
          "transactionIndex": "0x5",
          "logIndex": "0x28",
          "removed": false
        },
        {
          "address": "0x6Ae43d3271ff6888e7Fc43Fd7321a503ff738951",
          "topics": [
            "0xa534c8dbe71f871f9f3530e97a74601fea17b426cae02e1c5aee42c96c784051",
            "0x000000000000000000000000aa8e23fb1079ea71e0a56f48a2aa51851d8433d0",
            "0x000000000000000000000000c5e0b6e472dde70eceffa4c568bd52f2a7a1632a",
            "0x0000000000000000000000006a763430e347d1e152823d646c700442a4db84aa"
          ],
          "data": "0x000000000000000000000000000000000000000000000000000000000098c1800000000000000000000000000000000000000000000000000000000000000000",
          "blockHash": "0x4d2cfe89bfeb3b07bdc1c681e606543cb1dd674cfc719332bec300ec2b4d1abe",
          "blockNumber": "0x46500f",
          "transactionHash": "0xc4cdb19ba70f3cb1cb46bcc79fa6c25fae832c31c48ffc626e68377be174cf87",
          "transactionIndex": "0x5",
          "logIndex": "0x29",
          "removed": false
        },
        {
          "address": "0x6d906e526a4e2Ca02097BA9d0caA3c382F52278E",
          "topics": [
            "0x8c5be1e5ebec7d5bd14f71427d1e84f3dd0314c0f7b2291e5b200ac8c7c3b925",
            "0x0000000000000000000000006a763430e347d1e152823d646c700442a4db84aa",
            "0x0000000000000000000000006ae43d3271ff6888e7fc43fd7321a503ff738951"
          ],
          "data": "0x00000000000000000000000000000000000000000000000000000000000000c9",
          "blockHash": "0x4d2cfe89bfeb3b07bdc1c681e606543cb1dd674cfc719332bec300ec2b4d1abe",
          "blockNumber": "0x46500f",
          "transactionHash": "0xc4cdb19ba70f3cb1cb46bcc79fa6c25fae832c31c48ffc626e68377be174cf87",
          "transactionIndex": "0x5",
          "logIndex": "0x2a",
          "removed": false
        },
        {
          "address": "0x94482C7A7477196259D8a0f74fB853277Fa5a75b",
          "topics": [
            "0xddf252ad1be2c89b69c2b068fc378daa952ba7f163c4a11628f55a4df523b3ef",
            "0x000000000000000000000000c5e0b6e472dde70eceffa4c568bd52f2a7a1632a",
            "0x0000000000000000000000000000000000000000000000000000000000000000"
          ],
          "data": "0x00000000000000000000000000000000000000000000000000000000000000c9",
          "blockHash": "0x4d2cfe89bfeb3b07bdc1c681e606543cb1dd674cfc719332bec300ec2b4d1abe",
          "blockNumber": "0x46500f",
          "transactionHash": "0xc4cdb19ba70f3cb1cb46bcc79fa6c25fae832c31c48ffc626e68377be174cf87",
          "transactionIndex": "0x5",
          "logIndex": "0x2b",
          "removed": false
        },
        {
          "address": "0x94482C7A7477196259D8a0f74fB853277Fa5a75b",
          "topics": [
            "0x4cf25bc1d991c17529c25213d3cc0cda295eeaad5f13f361969b12ea48015f90",
            "0x000000000000000000000000c5e0b6e472dde70eceffa4c568bd52f2a7a1632a",
            "0x0000000000000000000000000000000000000000000000000000000000000000"
          ],
          "data": "0x00000000000000000000000000000000000000000000000000000000000000c900000000000000000000000000000000000000000000000000000000000000000000000000000000000000000000000000000000034e851ee9d034206a3c2690",
          "blockHash": "0x4d2cfe89bfeb3b07bdc1c681e606543cb1dd674cfc719332bec300ec2b4d1abe",
          "blockNumber": "0x46500f",
          "transactionHash": "0xc4cdb19ba70f3cb1cb46bcc79fa6c25fae832c31c48ffc626e68377be174cf87",
          "transactionIndex": "0x5",
          "logIndex": "0x2c",
          "removed": false
        },
        {
          "address": "0x6Ae43d3271ff6888e7Fc43Fd7321a503ff738951",
          "topics": [
            "0x804c9b842b2748a22bb64b345453a3de7ca54a6ca45ce00d415894979e22897a",
            "0x0000000000000000000000006d906e526a4e2ca02097ba9d0caa3c382f52278e"
          ],
          "data": "0x0000000000000000000000000000000000000000014b764ca3c7dee04507254e0000000000000000000000000000000000000000018c2c0dfb347f18425b889a0000000000000000000000000000000000000000017fc3ae5a167d2bd35b889a0000000000000000000000000000000000000000034b268a5d610d71a92f1cc60000000000000000000000000000000000000000034e851ee9d034206a3c2690",
          "blockHash": "0x4d2cfe89bfeb3b07bdc1c681e606543cb1dd674cfc719332bec300ec2b4d1abe",
          "blockNumber": "0x46500f",
          "transactionHash": "0xc4cdb19ba70f3cb1cb46bcc79fa6c25fae832c31c48ffc626e68377be174cf87",
          "transactionIndex": "0x5",
          "logIndex": "0x2d",
          "removed": false
        },
        {
          "address": "0x6d906e526a4e2Ca02097BA9d0caA3c382F52278E",
          "topics": [
            "0xddf252ad1be2c89b69c2b068fc378daa952ba7f163c4a11628f55a4df523b3ef",
            "0x0000000000000000000000006a763430e347d1e152823d646c700442a4db84aa",
            "0x000000000000000000000000b20691021f9aced8631edaa3c0cd2949eb45662d"
          ],
          "data": "0x00000000000000000000000000000000000000000000000000000000000000c9",
          "blockHash": "0x4d2cfe89bfeb3b07bdc1c681e606543cb1dd674cfc719332bec300ec2b4d1abe",
          "blockNumber": "0x46500f",
          "transactionHash": "0xc4cdb19ba70f3cb1cb46bcc79fa6c25fae832c31c48ffc626e68377be174cf87",
          "transactionIndex": "0x5",
          "logIndex": "0x2e",
          "removed": false
        },
        {
          "address": "0x6d906e526a4e2Ca02097BA9d0caA3c382F52278E",
          "topics": [
            "0x8c5be1e5ebec7d5bd14f71427d1e84f3dd0314c0f7b2291e5b200ac8c7c3b925",
            "0x0000000000000000000000006a763430e347d1e152823d646c700442a4db84aa",
            "0x0000000000000000000000006ae43d3271ff6888e7fc43fd7321a503ff738951"
          ],
          "data": "0x0000000000000000000000000000000000000000000000000000000000000000",
          "blockHash": "0x4d2cfe89bfeb3b07bdc1c681e606543cb1dd674cfc719332bec300ec2b4d1abe",
          "blockNumber": "0x46500f",
          "transactionHash": "0xc4cdb19ba70f3cb1cb46bcc79fa6c25fae832c31c48ffc626e68377be174cf87",
          "transactionIndex": "0x5",
          "logIndex": "0x2f",
          "removed": false
        },
        {
          "address": "0x6Ae43d3271ff6888e7Fc43Fd7321a503ff738951",
          "topics": [
            "0xa534c8dbe71f871f9f3530e97a74601fea17b426cae02e1c5aee42c96c784051",
            "0x0000000000000000000000006d906e526a4e2ca02097ba9d0caa3c382f52278e",
            "0x000000000000000000000000c5e0b6e472dde70eceffa4c568bd52f2a7a1632a",
            "0x0000000000000000000000006a763430e347d1e152823d646c700442a4db84aa"
          ],
          "data": "0x00000000000000000000000000000000000000000000000000000000000000c90000000000000000000000000000000000000000000000000000000000000000",
          "blockHash": "0x4d2cfe89bfeb3b07bdc1c681e606543cb1dd674cfc719332bec300ec2b4d1abe",
          "blockNumber": "0x46500f",
          "transactionHash": "0xc4cdb19ba70f3cb1cb46bcc79fa6c25fae832c31c48ffc626e68377be174cf87",
          "transactionIndex": "0x5",
          "logIndex": "0x30",
          "removed": false
        },
        {
          "address": "0x6d906e526a4e2Ca02097BA9d0caA3c382F52278E",
          "topics": [
            "0x8c5be1e5ebec7d5bd14f71427d1e84f3dd0314c0f7b2291e5b200ac8c7c3b925",
            "0x0000000000000000000000006a763430e347d1e152823d646c700442a4db84aa",
            "0x0000000000000000000000006ae43d3271ff6888e7fc43fd7321a503ff738951"
          ],
          "data": "0x00000000000000000000000000000000000000000000000000000000000002bd",
          "blockHash": "0x4d2cfe89bfeb3b07bdc1c681e606543cb1dd674cfc719332bec300ec2b4d1abe",
          "blockNumber": "0x46500f",
          "transactionHash": "0xc4cdb19ba70f3cb1cb46bcc79fa6c25fae832c31c48ffc626e68377be174cf87",
          "transactionIndex": "0x5",
          "logIndex": "0x31",
          "removed": false
        },
        {
          "address": "0x08878209484D8178DD1FFA50AB1689F21aDBB856",
          "topics": [
            "0xddf252ad1be2c89b69c2b068fc378daa952ba7f163c4a11628f55a4df523b3ef",
            "0x000000000000000000000000c5e0b6e472dde70eceffa4c568bd52f2a7a1632a",
            "0x0000000000000000000000000000000000000000000000000000000000000000"
          ],
          "data": "0x00000000000000000000000000000000000000000000000000000000000002bd",
          "blockHash": "0x4d2cfe89bfeb3b07bdc1c681e606543cb1dd674cfc719332bec300ec2b4d1abe",
          "blockNumber": "0x46500f",
          "transactionHash": "0xc4cdb19ba70f3cb1cb46bcc79fa6c25fae832c31c48ffc626e68377be174cf87",
          "transactionIndex": "0x5",
          "logIndex": "0x32",
          "removed": false
        },
        {
          "address": "0x08878209484D8178DD1FFA50AB1689F21aDBB856",
          "topics": [
            "0x44bd20a79e993bdcc7cbedf54a3b4d19fb78490124b6b90d04fe3242eea579e8",
            "0x000000000000000000000000c5e0b6e472dde70eceffa4c568bd52f2a7a1632a"
          ],
          "data": "0x00000000000000000000000000000000000000000000000000000000000002bd00000000000000000000000000000000000000000000000000000000000002bd00000000000000000000000000000000000000000000000000000000000000000000000000000000000000000000000000000000002bb09f5c4c01fcb6f5e8f400000000000000000000000000000000000000000000000000000000003fe8f7",
          "blockHash": "0x4d2cfe89bfeb3b07bdc1c681e606543cb1dd674cfc719332bec300ec2b4d1abe",
          "blockNumber": "0x46500f",
          "transactionHash": "0xc4cdb19ba70f3cb1cb46bcc79fa6c25fae832c31c48ffc626e68377be174cf87",
          "transactionIndex": "0x5",
          "logIndex": "0x33",
          "removed": false
        },
        {
          "address": "0x6Ae43d3271ff6888e7Fc43Fd7321a503ff738951",
          "topics": [
            "0x804c9b842b2748a22bb64b345453a3de7ca54a6ca45ce00d415894979e22897a",
            "0x0000000000000000000000006d906e526a4e2ca02097ba9d0caa3c382f52278e"
          ],
          "data": "0x0000000000000000000000000000000000000000014b73d6a5b112b68761e2f10000000000000000000000000000000000000000018c296bac5fb6a7192770360000000000000000000000000000000000000000017fc10c0b41b4baaa2770360000000000000000000000000000000000000000034b268a5d610d71a92f1cc60000000000000000000000000000000000000000034e851ee9d034206a3c2690",
          "blockHash": "0x4d2cfe89bfeb3b07bdc1c681e606543cb1dd674cfc719332bec300ec2b4d1abe",
          "blockNumber": "0x46500f",
          "transactionHash": "0xc4cdb19ba70f3cb1cb46bcc79fa6c25fae832c31c48ffc626e68377be174cf87",
          "transactionIndex": "0x5",
          "logIndex": "0x34",
          "removed": false
        },
        {
          "address": "0x6d906e526a4e2Ca02097BA9d0caA3c382F52278E",
          "topics": [
            "0xddf252ad1be2c89b69c2b068fc378daa952ba7f163c4a11628f55a4df523b3ef",
            "0x0000000000000000000000006a763430e347d1e152823d646c700442a4db84aa",
            "0x000000000000000000000000b20691021f9aced8631edaa3c0cd2949eb45662d"
          ],
          "data": "0x00000000000000000000000000000000000000000000000000000000000002bd",
          "blockHash": "0x4d2cfe89bfeb3b07bdc1c681e606543cb1dd674cfc719332bec300ec2b4d1abe",
          "blockNumber": "0x46500f",
          "transactionHash": "0xc4cdb19ba70f3cb1cb46bcc79fa6c25fae832c31c48ffc626e68377be174cf87",
          "transactionIndex": "0x5",
          "logIndex": "0x35",
          "removed": false
        },
        {
          "address": "0x6d906e526a4e2Ca02097BA9d0caA3c382F52278E",
          "topics": [
            "0x8c5be1e5ebec7d5bd14f71427d1e84f3dd0314c0f7b2291e5b200ac8c7c3b925",
            "0x0000000000000000000000006a763430e347d1e152823d646c700442a4db84aa",
            "0x0000000000000000000000006ae43d3271ff6888e7fc43fd7321a503ff738951"
          ],
          "data": "0x0000000000000000000000000000000000000000000000000000000000000000",
          "blockHash": "0x4d2cfe89bfeb3b07bdc1c681e606543cb1dd674cfc719332bec300ec2b4d1abe",
          "blockNumber": "0x46500f",
          "transactionHash": "0xc4cdb19ba70f3cb1cb46bcc79fa6c25fae832c31c48ffc626e68377be174cf87",
          "transactionIndex": "0x5",
          "logIndex": "0x36",
          "removed": false
        },
        {
          "address": "0x6Ae43d3271ff6888e7Fc43Fd7321a503ff738951",
          "topics": [
            "0xa534c8dbe71f871f9f3530e97a74601fea17b426cae02e1c5aee42c96c784051",
            "0x0000000000000000000000006d906e526a4e2ca02097ba9d0caa3c382f52278e",
            "0x000000000000000000000000c5e0b6e472dde70eceffa4c568bd52f2a7a1632a",
            "0x0000000000000000000000006a763430e347d1e152823d646c700442a4db84aa"
          ],
          "data": "0x00000000000000000000000000000000000000000000000000000000000002bd0000000000000000000000000000000000000000000000000000000000000000",
          "blockHash": "0x4d2cfe89bfeb3b07bdc1c681e606543cb1dd674cfc719332bec300ec2b4d1abe",
          "blockNumber": "0x46500f",
          "transactionHash": "0xc4cdb19ba70f3cb1cb46bcc79fa6c25fae832c31c48ffc626e68377be174cf87",
          "transactionIndex": "0x5",
          "logIndex": "0x37",
          "removed": false
        },
        {
          "address": "0x3FfAf50D4F4E96eB78f2407c090b72e86eCaed24",
          "topics": [
            "0x8c5be1e5ebec7d5bd14f71427d1e84f3dd0314c0f7b2291e5b200ac8c7c3b925",
            "0x000000000000000000000000c5e0b6e472dde70eceffa4c568bd52f2a7a1632a",
            "0x0000000000000000000000006a763430e347d1e152823d646c700442a4db84aa"
          ],
          "data": "0x0000000000000000000000000000000000000000000000000000000000000000",
          "blockHash": "0x4d2cfe89bfeb3b07bdc1c681e606543cb1dd674cfc719332bec300ec2b4d1abe",
          "blockNumber": "0x46500f",
          "transactionHash": "0xc4cdb19ba70f3cb1cb46bcc79fa6c25fae832c31c48ffc626e68377be174cf87",
          "transactionIndex": "0x5",
          "logIndex": "0x38",
          "removed": false
        },
        {
          "address": "0x3FfAf50D4F4E96eB78f2407c090b72e86eCaed24",
          "topics": [
            "0xddf252ad1be2c89b69c2b068fc378daa952ba7f163c4a11628f55a4df523b3ef",
            "0x0000000000000000000000000000000000000000000000000000000000000000",
            "0x000000000000000000000000c5e0b6e472dde70eceffa4c568bd52f2a7a1632a"
          ],
          "data": "0x000000000000000000000000000000000000000000000000038762298c17ef3b",
          "blockHash": "0x4d2cfe89bfeb3b07bdc1c681e606543cb1dd674cfc719332bec300ec2b4d1abe",
          "blockNumber": "0x46500f",
          "transactionHash": "0xc4cdb19ba70f3cb1cb46bcc79fa6c25fae832c31c48ffc626e68377be174cf87",
          "transactionIndex": "0x5",
          "logIndex": "0x39",
          "removed": false
        },
        {
          "address": "0x3FfAf50D4F4E96eB78f2407c090b72e86eCaed24",
          "topics": [
            "0x458f5fa412d0f69b08dd84872b0215675cc67bc1d5b6fd93300a1c3878b86196",
            "0x0000000000000000000000006a763430e347d1e152823d646c700442a4db84aa",
            "0x000000000000000000000000c5e0b6e472dde70eceffa4c568bd52f2a7a1632a"
          ],
          "data": "0x000000000000000000000000000000000000000000000000038762298c17ef3b000000000000000000000000000000000000000000000000038762298c17ef3b00000000000000000000000000000000000000000387bbee704dff694a5f412b",
          "blockHash": "0x4d2cfe89bfeb3b07bdc1c681e606543cb1dd674cfc719332bec300ec2b4d1abe",
          "blockNumber": "0x46500f",
          "transactionHash": "0xc4cdb19ba70f3cb1cb46bcc79fa6c25fae832c31c48ffc626e68377be174cf87",
          "transactionIndex": "0x5",
          "logIndex": "0x3a",
          "removed": false
        },
        {
          "address": "0x3FfAf50D4F4E96eB78f2407c090b72e86eCaed24",
          "topics": [
            "0xddf252ad1be2c89b69c2b068fc378daa952ba7f163c4a11628f55a4df523b3ef",
            "0x0000000000000000000000000000000000000000000000000000000000000000",
            "0x0000000000000000000000003e122a3db43d225dd5bffd929ad4176ce69117e0"
          ],
          "data": "0x000000000000000000000000000000000000000000000000000003ed252ff0c5",
          "blockHash": "0x4d2cfe89bfeb3b07bdc1c681e606543cb1dd674cfc719332bec300ec2b4d1abe",
          "blockNumber": "0x46500f",
          "transactionHash": "0xc4cdb19ba70f3cb1cb46bcc79fa6c25fae832c31c48ffc626e68377be174cf87",
          "transactionIndex": "0x5",
          "logIndex": "0x3b",
          "removed": false
        },
        {
          "address": "0x3FfAf50D4F4E96eB78f2407c090b72e86eCaed24",
          "topics": [
            "0x458f5fa412d0f69b08dd84872b0215675cc67bc1d5b6fd93300a1c3878b86196",
            "0x0000000000000000000000006a763430e347d1e152823d646c700442a4db84aa",
            "0x0000000000000000000000003e122a3db43d225dd5bffd929ad4176ce69117e0"
          ],
          "data": "0x000000000000000000000000000000000000000000000000000003ed252ff0c5000000000000000000000000000000000000000000000000000003ed252ff0c500000000000000000000000000000000000000000387bbee704dff694a5f412b",
          "blockHash": "0x4d2cfe89bfeb3b07bdc1c681e606543cb1dd674cfc719332bec300ec2b4d1abe",
          "blockNumber": "0x46500f",
          "transactionHash": "0xc4cdb19ba70f3cb1cb46bcc79fa6c25fae832c31c48ffc626e68377be174cf87",
          "transactionIndex": "0x5",
          "logIndex": "0x3c",
          "removed": false
        },
        {
          "address": "0x3FfAf50D4F4E96eB78f2407c090b72e86eCaed24",
          "topics": [
            "0xddf252ad1be2c89b69c2b068fc378daa952ba7f163c4a11628f55a4df523b3ef",
            "0x000000000000000000000000c5e0b6e472dde70eceffa4c568bd52f2a7a1632a",
            "0x0000000000000000000000003e122a3db43d225dd5bffd929ad4176ce69117e0"
          ],
          "data": "0x000000000000000000000000000000000000000000000038a5b698749212ea77",
          "blockHash": "0x4d2cfe89bfeb3b07bdc1c681e606543cb1dd674cfc719332bec300ec2b4d1abe",
          "blockNumber": "0x46500f",
          "transactionHash": "0xc4cdb19ba70f3cb1cb46bcc79fa6c25fae832c31c48ffc626e68377be174cf87",
          "transactionIndex": "0x5",
          "logIndex": "0x3d",
          "removed": false
        },
        {
          "address": "0x3FfAf50D4F4E96eB78f2407c090b72e86eCaed24",
          "topics": [
            "0x4beccb90f994c31aced7a23b5611020728a23d8ec5cddd1a3e9d97b96fda8666",
            "0x000000000000000000000000c5e0b6e472dde70eceffa4c568bd52f2a7a1632a",
            "0x0000000000000000000000003e122a3db43d225dd5bffd929ad4176ce69117e0"
          ],
          "data": "0x000000000000000000000000000000000000000000000033d94d67d18d4f3f9a00000000000000000000000000000000000000000387bbee704dff694a5f412b",
          "blockHash": "0x4d2cfe89bfeb3b07bdc1c681e606543cb1dd674cfc719332bec300ec2b4d1abe",
          "blockNumber": "0x46500f",
          "transactionHash": "0xc4cdb19ba70f3cb1cb46bcc79fa6c25fae832c31c48ffc626e68377be174cf87",
          "transactionIndex": "0x5",
          "logIndex": "0x3e",
          "removed": false
        },
        {
          "address": "0x16dA4541aD1807f4443d92D26044C1147406EB80",
          "topics": [
            "0x8c5be1e5ebec7d5bd14f71427d1e84f3dd0314c0f7b2291e5b200ac8c7c3b925",
            "0x000000000000000000000000c5e0b6e472dde70eceffa4c568bd52f2a7a1632a",
            "0x0000000000000000000000006a763430e347d1e152823d646c700442a4db84aa"
          ],
          "data": "0x0000000000000000000000000000000000000000000000000000000000000000",
          "blockHash": "0x4d2cfe89bfeb3b07bdc1c681e606543cb1dd674cfc719332bec300ec2b4d1abe",
          "blockNumber": "0x46500f",
          "transactionHash": "0xc4cdb19ba70f3cb1cb46bcc79fa6c25fae832c31c48ffc626e68377be174cf87",
          "transactionIndex": "0x5",
          "logIndex": "0x3f",
          "removed": false
        },
        {
          "address": "0x16dA4541aD1807f4443d92D26044C1147406EB80",
          "topics": [
            "0xddf252ad1be2c89b69c2b068fc378daa952ba7f163c4a11628f55a4df523b3ef",
            "0x0000000000000000000000000000000000000000000000000000000000000000",
            "0x000000000000000000000000c5e0b6e472dde70eceffa4c568bd52f2a7a1632a"
          ],
          "data": "0x00000000000000000000000000000000000000000000000000000000000004f6",
          "blockHash": "0x4d2cfe89bfeb3b07bdc1c681e606543cb1dd674cfc719332bec300ec2b4d1abe",
          "blockNumber": "0x46500f",
          "transactionHash": "0xc4cdb19ba70f3cb1cb46bcc79fa6c25fae832c31c48ffc626e68377be174cf87",
          "transactionIndex": "0x5",
          "logIndex": "0x40",
          "removed": false
        },
        {
          "address": "0x16dA4541aD1807f4443d92D26044C1147406EB80",
          "topics": [
            "0x458f5fa412d0f69b08dd84872b0215675cc67bc1d5b6fd93300a1c3878b86196",
            "0x0000000000000000000000006a763430e347d1e152823d646c700442a4db84aa",
            "0x000000000000000000000000c5e0b6e472dde70eceffa4c568bd52f2a7a1632a"
          ],
          "data": "0x00000000000000000000000000000000000000000000000000000000000004f600000000000000000000000000000000000000000000000000000000000004f6000000000000000000000000000000000000000003498b679ab22bedf9c3463d",
          "blockHash": "0x4d2cfe89bfeb3b07bdc1c681e606543cb1dd674cfc719332bec300ec2b4d1abe",
          "blockNumber": "0x46500f",
          "transactionHash": "0xc4cdb19ba70f3cb1cb46bcc79fa6c25fae832c31c48ffc626e68377be174cf87",
          "transactionIndex": "0x5",
          "logIndex": "0x41",
          "removed": false
        },
        {
          "address": "0x16dA4541aD1807f4443d92D26044C1147406EB80",
          "topics": [
            "0xddf252ad1be2c89b69c2b068fc378daa952ba7f163c4a11628f55a4df523b3ef",
            "0x000000000000000000000000c5e0b6e472dde70eceffa4c568bd52f2a7a1632a",
            "0x0000000000000000000000003e122a3db43d225dd5bffd929ad4176ce69117e0"
          ],
          "data": "0x000000000000000000000000000000000000000000000000000000003ca635e9",
          "blockHash": "0x4d2cfe89bfeb3b07bdc1c681e606543cb1dd674cfc719332bec300ec2b4d1abe",
          "blockNumber": "0x46500f",
          "transactionHash": "0xc4cdb19ba70f3cb1cb46bcc79fa6c25fae832c31c48ffc626e68377be174cf87",
          "transactionIndex": "0x5",
          "logIndex": "0x42",
          "removed": false
        },
        {
          "address": "0x16dA4541aD1807f4443d92D26044C1147406EB80",
          "topics": [
            "0x4beccb90f994c31aced7a23b5611020728a23d8ec5cddd1a3e9d97b96fda8666",
            "0x000000000000000000000000c5e0b6e472dde70eceffa4c568bd52f2a7a1632a",
            "0x0000000000000000000000003e122a3db43d225dd5bffd929ad4176ce69117e0"
          ],
          "data": "0x000000000000000000000000000000000000000000000000000000003b9d336a000000000000000000000000000000000000000003498b679ab22bedf9c3463d",
          "blockHash": "0x4d2cfe89bfeb3b07bdc1c681e606543cb1dd674cfc719332bec300ec2b4d1abe",
          "blockNumber": "0x46500f",
          "transactionHash": "0xc4cdb19ba70f3cb1cb46bcc79fa6c25fae832c31c48ffc626e68377be174cf87",
          "transactionIndex": "0x5",
          "logIndex": "0x43",
          "removed": false
        },
        {
          "address": "0x1804Bf30507dc2EB3bDEbbbdd859991EAeF6EefF",
          "topics": [
            "0x8c5be1e5ebec7d5bd14f71427d1e84f3dd0314c0f7b2291e5b200ac8c7c3b925",
            "0x000000000000000000000000c5e0b6e472dde70eceffa4c568bd52f2a7a1632a",
            "0x0000000000000000000000006a763430e347d1e152823d646c700442a4db84aa"
          ],
          "data": "0x0000000000000000000000000000000000000000000000000000000000000000",
          "blockHash": "0x4d2cfe89bfeb3b07bdc1c681e606543cb1dd674cfc719332bec300ec2b4d1abe",
          "blockNumber": "0x46500f",
          "transactionHash": "0xc4cdb19ba70f3cb1cb46bcc79fa6c25fae832c31c48ffc626e68377be174cf87",
          "transactionIndex": "0x5",
          "logIndex": "0x44",
          "removed": false
        },
        {
          "address": "0x1804Bf30507dc2EB3bDEbbbdd859991EAeF6EefF",
          "topics": [
            "0xddf252ad1be2c89b69c2b068fc378daa952ba7f163c4a11628f55a4df523b3ef",
            "0x000000000000000000000000c5e0b6e472dde70eceffa4c568bd52f2a7a1632a",
            "0x0000000000000000000000003e122a3db43d225dd5bffd929ad4176ce69117e0"
          ],
          "data": "0x0000000000000000000000000000000000000000000000000000000005f5e101",
          "blockHash": "0x4d2cfe89bfeb3b07bdc1c681e606543cb1dd674cfc719332bec300ec2b4d1abe",
          "blockNumber": "0x46500f",
          "transactionHash": "0xc4cdb19ba70f3cb1cb46bcc79fa6c25fae832c31c48ffc626e68377be174cf87",
          "transactionIndex": "0x5",
          "logIndex": "0x45",
          "removed": false
        },
        {
          "address": "0x6Ae43d3271ff6888e7Fc43Fd7321a503ff738951",
          "topics": [
            "0x44c58d81365b66dd4b1a7f36c25aa97b8c71c361ee4937adc1a00000227db5dd",
            "0x00000000000000000000000029f2d40b0605204364af54ec677bd022da425d03",
            "0x000000000000000000000000c5e0b6e472dde70eceffa4c568bd52f2a7a1632a"
          ],
          "data": "0x",
          "blockHash": "0x4d2cfe89bfeb3b07bdc1c681e606543cb1dd674cfc719332bec300ec2b4d1abe",
          "blockNumber": "0x46500f",
          "transactionHash": "0xc4cdb19ba70f3cb1cb46bcc79fa6c25fae832c31c48ffc626e68377be174cf87",
          "transactionIndex": "0x5",
          "logIndex": "0x46",
          "removed": false
        },
        {
          "address": "0x6Ae43d3271ff6888e7Fc43Fd7321a503ff738951",
          "topics": [
            "0x00058a56ea94653cdf4f152d227ace22d4c00ad99e2a43f58cb7d9e3feb295f2",
            "0x00000000000000000000000029f2d40b0605204364af54ec677bd022da425d03",
            "0x0000000000000000000000003e122a3db43d225dd5bffd929ad4176ce69117e0"
          ],
          "data": "0x",
          "blockHash": "0x4d2cfe89bfeb3b07bdc1c681e606543cb1dd674cfc719332bec300ec2b4d1abe",
          "blockNumber": "0x46500f",
          "transactionHash": "0xc4cdb19ba70f3cb1cb46bcc79fa6c25fae832c31c48ffc626e68377be174cf87",
          "transactionIndex": "0x5",
          "logIndex": "0x47",
          "removed": false
        },
        {
          "address": "0x1804Bf30507dc2EB3bDEbbbdd859991EAeF6EefF",
          "topics": [
            "0x4beccb90f994c31aced7a23b5611020728a23d8ec5cddd1a3e9d97b96fda8666",
            "0x000000000000000000000000c5e0b6e472dde70eceffa4c568bd52f2a7a1632a",
            "0x0000000000000000000000003e122a3db43d225dd5bffd929ad4176ce69117e0"
          ],
          "data": "0x0000000000000000000000000000000000000000000000000000000005f5a3fb0000000000000000000000000000000000000000033b4f526b45e522e03fdabe",
          "blockHash": "0x4d2cfe89bfeb3b07bdc1c681e606543cb1dd674cfc719332bec300ec2b4d1abe",
          "blockNumber": "0x46500f",
          "transactionHash": "0xc4cdb19ba70f3cb1cb46bcc79fa6c25fae832c31c48ffc626e68377be174cf87",
          "transactionIndex": "0x5",
          "logIndex": "0x48",
          "removed": false
        },
        {
          "address": "0xAF0F6e8b0Dc5c913bbF4d14c22B4E78Dd14310B6",
          "topics": [
            "0x8c5be1e5ebec7d5bd14f71427d1e84f3dd0314c0f7b2291e5b200ac8c7c3b925",
            "0x000000000000000000000000c5e0b6e472dde70eceffa4c568bd52f2a7a1632a",
            "0x0000000000000000000000006a763430e347d1e152823d646c700442a4db84aa"
          ],
          "data": "0x0000000000000000000000000000000000000000000000000000000000000000",
          "blockHash": "0x4d2cfe89bfeb3b07bdc1c681e606543cb1dd674cfc719332bec300ec2b4d1abe",
          "blockNumber": "0x46500f",
          "transactionHash": "0xc4cdb19ba70f3cb1cb46bcc79fa6c25fae832c31c48ffc626e68377be174cf87",
          "transactionIndex": "0x5",
          "logIndex": "0x49",
          "removed": false
        },
        {
          "address": "0xAF0F6e8b0Dc5c913bbF4d14c22B4E78Dd14310B6",
          "topics": [
            "0xddf252ad1be2c89b69c2b068fc378daa952ba7f163c4a11628f55a4df523b3ef",
            "0x000000000000000000000000c5e0b6e472dde70eceffa4c568bd52f2a7a1632a",
            "0x0000000000000000000000003e122a3db43d225dd5bffd929ad4176ce69117e0"
          ],
          "data": "0x00000000000000000000000000000000000000000000000000000000001ec2a9",
          "blockHash": "0x4d2cfe89bfeb3b07bdc1c681e606543cb1dd674cfc719332bec300ec2b4d1abe",
          "blockNumber": "0x46500f",
          "transactionHash": "0xc4cdb19ba70f3cb1cb46bcc79fa6c25fae832c31c48ffc626e68377be174cf87",
          "transactionIndex": "0x5",
          "logIndex": "0x4a",
          "removed": false
        },
        {
          "address": "0xAF0F6e8b0Dc5c913bbF4d14c22B4E78Dd14310B6",
          "topics": [
            "0x4beccb90f994c31aced7a23b5611020728a23d8ec5cddd1a3e9d97b96fda8666",
            "0x000000000000000000000000c5e0b6e472dde70eceffa4c568bd52f2a7a1632a",
            "0x0000000000000000000000003e122a3db43d225dd5bffd929ad4176ce69117e0"
          ],
          "data": "0x00000000000000000000000000000000000000000000000000000000001e7bfa00000000000000000000000000000000000000000342ac3f084978be5690fa7b",
          "blockHash": "0x4d2cfe89bfeb3b07bdc1c681e606543cb1dd674cfc719332bec300ec2b4d1abe",
          "blockNumber": "0x46500f",
          "transactionHash": "0xc4cdb19ba70f3cb1cb46bcc79fa6c25fae832c31c48ffc626e68377be174cf87",
          "transactionIndex": "0x5",
          "logIndex": "0x4b",
          "removed": false
        },
        {
          "address": "0x6b8558764d3b7572136F17174Cb9aB1DDc7E1259",
          "topics": [
            "0x8c5be1e5ebec7d5bd14f71427d1e84f3dd0314c0f7b2291e5b200ac8c7c3b925",
            "0x000000000000000000000000c5e0b6e472dde70eceffa4c568bd52f2a7a1632a",
            "0x0000000000000000000000006a763430e347d1e152823d646c700442a4db84aa"
          ],
          "data": "0x0000000000000000000000000000000000000000000000000000000000000000",
          "blockHash": "0x4d2cfe89bfeb3b07bdc1c681e606543cb1dd674cfc719332bec300ec2b4d1abe",
          "blockNumber": "0x46500f",
          "transactionHash": "0xc4cdb19ba70f3cb1cb46bcc79fa6c25fae832c31c48ffc626e68377be174cf87",
          "transactionIndex": "0x5",
          "logIndex": "0x4c",
          "removed": false
        },
        {
          "address": "0x6b8558764d3b7572136F17174Cb9aB1DDc7E1259",
          "topics": [
            "0xddf252ad1be2c89b69c2b068fc378daa952ba7f163c4a11628f55a4df523b3ef",
            "0x000000000000000000000000c5e0b6e472dde70eceffa4c568bd52f2a7a1632a",
            "0x0000000000000000000000003e122a3db43d225dd5bffd929ad4176ce69117e0"
          ],
          "data": "0x0000000000000000000000000000000000000000000000056bc75e2d63100000",
          "blockHash": "0x4d2cfe89bfeb3b07bdc1c681e606543cb1dd674cfc719332bec300ec2b4d1abe",
          "blockNumber": "0x46500f",
          "transactionHash": "0xc4cdb19ba70f3cb1cb46bcc79fa6c25fae832c31c48ffc626e68377be174cf87",
          "transactionIndex": "0x5",
          "logIndex": "0x4d",
          "removed": false
        },
        {
          "address": "0x6Ae43d3271ff6888e7Fc43Fd7321a503ff738951",
          "topics": [
            "0x44c58d81365b66dd4b1a7f36c25aa97b8c71c361ee4937adc1a00000227db5dd",
            "0x00000000000000000000000088541670e55cc00beefd87eb59edd1b7c511ac9a",
            "0x000000000000000000000000c5e0b6e472dde70eceffa4c568bd52f2a7a1632a"
          ],
          "data": "0x",
          "blockHash": "0x4d2cfe89bfeb3b07bdc1c681e606543cb1dd674cfc719332bec300ec2b4d1abe",
          "blockNumber": "0x46500f",
          "transactionHash": "0xc4cdb19ba70f3cb1cb46bcc79fa6c25fae832c31c48ffc626e68377be174cf87",
          "transactionIndex": "0x5",
          "logIndex": "0x4e",
          "removed": false
        },
        {
          "address": "0x6Ae43d3271ff6888e7Fc43Fd7321a503ff738951",
          "topics": [
            "0x00058a56ea94653cdf4f152d227ace22d4c00ad99e2a43f58cb7d9e3feb295f2",
            "0x00000000000000000000000088541670e55cc00beefd87eb59edd1b7c511ac9a",
            "0x0000000000000000000000003e122a3db43d225dd5bffd929ad4176ce69117e0"
          ],
          "data": "0x",
          "blockHash": "0x4d2cfe89bfeb3b07bdc1c681e606543cb1dd674cfc719332bec300ec2b4d1abe",
          "blockNumber": "0x46500f",
          "transactionHash": "0xc4cdb19ba70f3cb1cb46bcc79fa6c25fae832c31c48ffc626e68377be174cf87",
          "transactionIndex": "0x5",
          "logIndex": "0x4f",
          "removed": false
        },
        {
          "address": "0x6b8558764d3b7572136F17174Cb9aB1DDc7E1259",
          "topics": [
            "0x4beccb90f994c31aced7a23b5611020728a23d8ec5cddd1a3e9d97b96fda8666",
            "0x000000000000000000000000c5e0b6e472dde70eceffa4c568bd52f2a7a1632a",
            "0x0000000000000000000000003e122a3db43d225dd5bffd929ad4176ce69117e0"
          ],
          "data": "0x0000000000000000000000000000000000000000000000056bc74c139cd4f48f0000000000000000000000000000000000000000033b2e4769c27e5b821decfc",
          "blockHash": "0x4d2cfe89bfeb3b07bdc1c681e606543cb1dd674cfc719332bec300ec2b4d1abe",
          "blockNumber": "0x46500f",
          "transactionHash": "0xc4cdb19ba70f3cb1cb46bcc79fa6c25fae832c31c48ffc626e68377be174cf87",
          "transactionIndex": "0x5",
          "logIndex": "0x50",
          "removed": false
        },
        {
          "address": "0x22675C506A8FC26447aFFfa33640f6af5d4D4cF0",
          "topics": [
            "0xda919360433220e13b51e8c211e490d148e61a3bd53de8c097194e458b97f3e1",
            "0x0000000000000000000000003e122a3db43d225dd5bffd929ad4176ce69117e0",
            "0x0000000000000000000000006a763430e347d1e152823d646c700442a4db84aa",
            "0x000000000000000000000000ff34b3d4aee8ddcd6f9afffb6fe49bd371b8a357"
          ],
          "data": "0x00000000000000000000000000000000000000000000001e4193f0015657a375",
          "blockHash": "0x4d2cfe89bfeb3b07bdc1c681e606543cb1dd674cfc719332bec300ec2b4d1abe",
          "blockNumber": "0x46500f",
          "transactionHash": "0xc4cdb19ba70f3cb1cb46bcc79fa6c25fae832c31c48ffc626e68377be174cf87",
          "transactionIndex": "0x5",
          "logIndex": "0x51",
          "removed": false
        },
        {
          "address": "0x22675C506A8FC26447aFFfa33640f6af5d4D4cF0",
          "topics": [
            "0xddf252ad1be2c89b69c2b068fc378daa952ba7f163c4a11628f55a4df523b3ef",
            "0x0000000000000000000000000000000000000000000000000000000000000000",
            "0x0000000000000000000000003e122a3db43d225dd5bffd929ad4176ce69117e0"
          ],
          "data": "0x0000000000000000000000000000000000000000000006105fba066caa33fa91",
          "blockHash": "0x4d2cfe89bfeb3b07bdc1c681e606543cb1dd674cfc719332bec300ec2b4d1abe",
          "blockNumber": "0x46500f",
          "transactionHash": "0xc4cdb19ba70f3cb1cb46bcc79fa6c25fae832c31c48ffc626e68377be174cf87",
          "transactionIndex": "0x5",
          "logIndex": "0x52",
          "removed": false
        },
        {
          "address": "0x22675C506A8FC26447aFFfa33640f6af5d4D4cF0",
          "topics": [
            "0x458f5fa412d0f69b08dd84872b0215675cc67bc1d5b6fd93300a1c3878b86196",
            "0x0000000000000000000000006a763430e347d1e152823d646c700442a4db84aa",
            "0x0000000000000000000000003e122a3db43d225dd5bffd929ad4176ce69117e0"
          ],
          "data": "0x0000000000000000000000000000000000000000000006105fba066caa33fa9100000000000000000000000000000000000000000000000000000000aaf237ba00000000000000000000000000000000000000000346f4be76dd9390265f83c9",
          "blockHash": "0x4d2cfe89bfeb3b07bdc1c681e606543cb1dd674cfc719332bec300ec2b4d1abe",
          "blockNumber": "0x46500f",
          "transactionHash": "0xc4cdb19ba70f3cb1cb46bcc79fa6c25fae832c31c48ffc626e68377be174cf87",
          "transactionIndex": "0x5",
          "logIndex": "0x53",
          "removed": false
        },
        {
          "address": "0x6Ae43d3271ff6888e7Fc43Fd7321a503ff738951",
          "topics": [
            "0x804c9b842b2748a22bb64b345453a3de7ca54a6ca45ce00d415894979e22897a",
            "0x000000000000000000000000ff34b3d4aee8ddcd6f9afffb6fe49bd371b8a357"
          ],
          "data": "0x00000000000000000000000000000000000000000001f60a8623afe5db8948520000000000000000000000000000000000000000002a725e474234155e3bb2db00000000000000000000000000000000000000000008b3a6c6f16d5f61dd96d900000000000000000000000000000000000000000345445271e422f85e476b5100000000000000000000000000000000000000000346f4be76dd9390265f83c9",
          "blockHash": "0x4d2cfe89bfeb3b07bdc1c681e606543cb1dd674cfc719332bec300ec2b4d1abe",
          "blockNumber": "0x46500f",
          "transactionHash": "0xc4cdb19ba70f3cb1cb46bcc79fa6c25fae832c31c48ffc626e68377be174cf87",
          "transactionIndex": "0x5",
          "logIndex": "0x54",
          "removed": false
        },
        {
          "address": "0xFF34B3d4Aee8ddCd6F9AFFFB6Fe49bD371b8a357",
          "topics": [
            "0xddf252ad1be2c89b69c2b068fc378daa952ba7f163c4a11628f55a4df523b3ef",
            "0x00000000000000000000000029598b72eb5cebd806c5dcd549490fda35b13cd8",
            "0x0000000000000000000000006a763430e347d1e152823d646c700442a4db84aa"
          ],
          "data": "0x0000000000000000000000000000000000000000000006105fba066bff41c2d7",
          "blockHash": "0x4d2cfe89bfeb3b07bdc1c681e606543cb1dd674cfc719332bec300ec2b4d1abe",
          "blockNumber": "0x46500f",
          "transactionHash": "0xc4cdb19ba70f3cb1cb46bcc79fa6c25fae832c31c48ffc626e68377be174cf87",
          "transactionIndex": "0x5",
          "logIndex": "0x55",
          "removed": false
        },
        {
          "address": "0x6Ae43d3271ff6888e7Fc43Fd7321a503ff738951",
          "topics": [
            "0xb3d084820fb1a9decffb176436bd02558d15fac9b0ddfed8c465bc7359d7dce0",
            "0x000000000000000000000000ff34b3d4aee8ddcd6f9afffb6fe49bd371b8a357",
            "0x0000000000000000000000003e122a3db43d225dd5bffd929ad4176ce69117e0",
            "0x0000000000000000000000000000000000000000000000000000000000000000"
          ],
          "data": "0x0000000000000000000000006a763430e347d1e152823d646c700442a4db84aa0000000000000000000000000000000000000000000006105fba066bff41c2d7000000000000000000000000000000000000000000000000000000000000000200000000000000000000000000000000000000000008b3a6c6f16d5f61dd96d9",
          "blockHash": "0x4d2cfe89bfeb3b07bdc1c681e606543cb1dd674cfc719332bec300ec2b4d1abe",
          "blockNumber": "0x46500f",
          "transactionHash": "0xc4cdb19ba70f3cb1cb46bcc79fa6c25fae832c31c48ffc626e68377be174cf87",
          "transactionIndex": "0x5",
          "logIndex": "0x56",
          "removed": false
        },
        {
          "address": "0xFF34B3d4Aee8ddCd6F9AFFFB6Fe49bD371b8a357",
          "topics": [
            "0x8c5be1e5ebec7d5bd14f71427d1e84f3dd0314c0f7b2291e5b200ac8c7c3b925",
            "0x0000000000000000000000006a763430e347d1e152823d646c700442a4db84aa",
            "0x0000000000000000000000006ae43d3271ff6888e7fc43fd7321a503ff738951"
          ],
          "data": "0xffffffffffffffffffffffffffffffffffffffffffffffffffffffffffffffff",
          "blockHash": "0x4d2cfe89bfeb3b07bdc1c681e606543cb1dd674cfc719332bec300ec2b4d1abe",
          "blockNumber": "0x46500f",
          "transactionHash": "0xc4cdb19ba70f3cb1cb46bcc79fa6c25fae832c31c48ffc626e68377be174cf87",
          "transactionIndex": "0x5",
          "logIndex": "0x57",
          "removed": false
        },
        {
          "address": "0xbEF786E742edB13361ff2f005b901A82c23AA491",
          "topics": [
            "0xda919360433220e13b51e8c211e490d148e61a3bd53de8c097194e458b97f3e1",
            "0x0000000000000000000000003e122a3db43d225dd5bffd929ad4176ce69117e0",
            "0x0000000000000000000000006a763430e347d1e152823d646c700442a4db84aa",
            "0x000000000000000000000000ff34b3d4aee8ddcd6f9afffb6fe49bd371b8a357"
          ],
          "data": "0x000000000000000000000000000000000000000000000000056b153d2550f0d7",
          "blockHash": "0x4d2cfe89bfeb3b07bdc1c681e606543cb1dd674cfc719332bec300ec2b4d1abe",
          "blockNumber": "0x46500f",
          "transactionHash": "0xc4cdb19ba70f3cb1cb46bcc79fa6c25fae832c31c48ffc626e68377be174cf87",
          "transactionIndex": "0x5",
          "logIndex": "0x58",
          "removed": false
        },
        {
          "address": "0xbEF786E742edB13361ff2f005b901A82c23AA491",
          "topics": [
            "0xddf252ad1be2c89b69c2b068fc378daa952ba7f163c4a11628f55a4df523b3ef",
            "0x0000000000000000000000000000000000000000000000000000000000000000",
            "0x0000000000000000000000003e122a3db43d225dd5bffd929ad4176ce69117e0"
          ],
          "data": "0x000000000000000000000000000000000000000000000001160006a3b88ef621",
          "blockHash": "0x4d2cfe89bfeb3b07bdc1c681e606543cb1dd674cfc719332bec300ec2b4d1abe",
          "blockNumber": "0x46500f",
          "transactionHash": "0xc4cdb19ba70f3cb1cb46bcc79fa6c25fae832c31c48ffc626e68377be174cf87",
          "transactionIndex": "0x5",
          "logIndex": "0x59",
          "removed": false
        },
        {
          "address": "0xbEF786E742edB13361ff2f005b901A82c23AA491",
          "topics": [
            "0xc16f4e4ca34d790de4c656c72fd015c667d688f20be64eea360618545c4c530f",
            "0x0000000000000000000000006a763430e347d1e152823d646c700442a4db84aa",
            "0x0000000000000000000000003e122a3db43d225dd5bffd929ad4176ce69117e0"
          ],
          "data": "0x000000000000000000000000000000000000000000000001160006a3b88ef6210000000000000000000000000000000000000000000000000000077698268aa10000000000000000000000000000000000000000000000000000000002dfec2a0000000000000000000000000000000000000000002a725e47422743e767cdb10000000000000000000000000000000000000000002c87f1a484f64864eb9247000000000000000000000000000000000000000000000b7a93db7aa68cf0465d",
          "blockHash": "0x4d2cfe89bfeb3b07bdc1c681e606543cb1dd674cfc719332bec300ec2b4d1abe",
          "blockNumber": "0x46500f",
          "transactionHash": "0xc4cdb19ba70f3cb1cb46bcc79fa6c25fae832c31c48ffc626e68377be174cf87",
          "transactionIndex": "0x5",
          "logIndex": "0x5a",
          "removed": false
        },
        {
          "address": "0x6Ae43d3271ff6888e7Fc43Fd7321a503ff738951",
          "topics": [
            "0x804c9b842b2748a22bb64b345453a3de7ca54a6ca45ce00d415894979e22897a",
            "0x000000000000000000000000ff34b3d4aee8ddcd6f9afffb6fe49bd371b8a357"
          ],
          "data": "0x00000000000000000000000000000000000000000001f61546d765dc85b2f9860000000000000000000000000000000000000000002a725f7eda737f5af6063400000000000000000000000000000000000000000008b3b083b368af47b031a500000000000000000000000000000000000000000345445271e422f85e476b5100000000000000000000000000000000000000000346f4be76dd9390265f83c9",
          "blockHash": "0x4d2cfe89bfeb3b07bdc1c681e606543cb1dd674cfc719332bec300ec2b4d1abe",
          "blockNumber": "0x46500f",
          "transactionHash": "0xc4cdb19ba70f3cb1cb46bcc79fa6c25fae832c31c48ffc626e68377be174cf87",
          "transactionIndex": "0x5",
          "logIndex": "0x5b",
          "removed": false
        },
        {
          "address": "0xFF34B3d4Aee8ddCd6F9AFFFB6Fe49bD371b8a357",
          "topics": [
            "0xddf252ad1be2c89b69c2b068fc378daa952ba7f163c4a11628f55a4df523b3ef",
            "0x00000000000000000000000029598b72eb5cebd806c5dcd549490fda35b13cd8",
            "0x0000000000000000000000006a763430e347d1e152823d646c700442a4db84aa"
          ],
          "data": "0x000000000000000000000000000000000000000000000001160006a3b5af09f7",
          "blockHash": "0x4d2cfe89bfeb3b07bdc1c681e606543cb1dd674cfc719332bec300ec2b4d1abe",
          "blockNumber": "0x46500f",
          "transactionHash": "0xc4cdb19ba70f3cb1cb46bcc79fa6c25fae832c31c48ffc626e68377be174cf87",
          "transactionIndex": "0x5",
          "logIndex": "0x5c",
          "removed": false
        },
        {
          "address": "0x6Ae43d3271ff6888e7Fc43Fd7321a503ff738951",
          "topics": [
            "0xb3d084820fb1a9decffb176436bd02558d15fac9b0ddfed8c465bc7359d7dce0",
            "0x000000000000000000000000ff34b3d4aee8ddcd6f9afffb6fe49bd371b8a357",
            "0x0000000000000000000000003e122a3db43d225dd5bffd929ad4176ce69117e0",
            "0x0000000000000000000000000000000000000000000000000000000000000000"
          ],
          "data": "0x0000000000000000000000006a763430e347d1e152823d646c700442a4db84aa000000000000000000000000000000000000000000000001160006a3b5af09f700000000000000000000000000000000000000000000000000000000000000010000000000000000000000000000000000000000002a725e474234155e3bb2db",
          "blockHash": "0x4d2cfe89bfeb3b07bdc1c681e606543cb1dd674cfc719332bec300ec2b4d1abe",
          "blockNumber": "0x46500f",
          "transactionHash": "0xc4cdb19ba70f3cb1cb46bcc79fa6c25fae832c31c48ffc626e68377be174cf87",
          "transactionIndex": "0x5",
          "logIndex": "0x5d",
          "removed": false
        },
        {
          "address": "0xFF34B3d4Aee8ddCd6F9AFFFB6Fe49bD371b8a357",
          "topics": [
            "0x8c5be1e5ebec7d5bd14f71427d1e84f3dd0314c0f7b2291e5b200ac8c7c3b925",
            "0x0000000000000000000000006a763430e347d1e152823d646c700442a4db84aa",
            "0x0000000000000000000000006ae43d3271ff6888e7fc43fd7321a503ff738951"
          ],
          "data": "0xffffffffffffffffffffffffffffffffffffffffffffffffffffffffffffffff",
          "blockHash": "0x4d2cfe89bfeb3b07bdc1c681e606543cb1dd674cfc719332bec300ec2b4d1abe",
          "blockNumber": "0x46500f",
          "transactionHash": "0xc4cdb19ba70f3cb1cb46bcc79fa6c25fae832c31c48ffc626e68377be174cf87",
          "transactionIndex": "0x5",
          "logIndex": "0x5e",
          "removed": false
        },
        {
          "address": "0x34a4d932E722b9dFb492B9D8131127690CE2430B",
          "topics": [
            "0xda919360433220e13b51e8c211e490d148e61a3bd53de8c097194e458b97f3e1",
            "0x0000000000000000000000003e122a3db43d225dd5bffd929ad4176ce69117e0",
            "0x0000000000000000000000006a763430e347d1e152823d646c700442a4db84aa",
            "0x000000000000000000000000f8fb3713d459d7c1018bd0a49d19b4c44290ebe5"
          ],
          "data": "0x0000000000000000000000000000000000000000000000000000013ec74f5a70",
          "blockHash": "0x4d2cfe89bfeb3b07bdc1c681e606543cb1dd674cfc719332bec300ec2b4d1abe",
          "blockNumber": "0x46500f",
          "transactionHash": "0xc4cdb19ba70f3cb1cb46bcc79fa6c25fae832c31c48ffc626e68377be174cf87",
          "transactionIndex": "0x5",
          "logIndex": "0x5f",
          "removed": false
        },
        {
          "address": "0x34a4d932E722b9dFb492B9D8131127690CE2430B",
          "topics": [
            "0xddf252ad1be2c89b69c2b068fc378daa952ba7f163c4a11628f55a4df523b3ef",
            "0x0000000000000000000000000000000000000000000000000000000000000000",
            "0x0000000000000000000000003e122a3db43d225dd5bffd929ad4176ce69117e0"
          ],
          "data": "0x00000000000000000000000000000000000000000000000000003fe3cac7b643",
          "blockHash": "0x4d2cfe89bfeb3b07bdc1c681e606543cb1dd674cfc719332bec300ec2b4d1abe",
          "blockNumber": "0x46500f",
          "transactionHash": "0xc4cdb19ba70f3cb1cb46bcc79fa6c25fae832c31c48ffc626e68377be174cf87",
          "transactionIndex": "0x5",
          "logIndex": "0x60",
          "removed": false
        },
        {
          "address": "0x34a4d932E722b9dFb492B9D8131127690CE2430B",
          "topics": [
            "0x458f5fa412d0f69b08dd84872b0215675cc67bc1d5b6fd93300a1c3878b86196",
            "0x0000000000000000000000006a763430e347d1e152823d646c700442a4db84aa",
            "0x0000000000000000000000003e122a3db43d225dd5bffd929ad4176ce69117e0"
          ],
          "data": "0x00000000000000000000000000000000000000000000000000003fe3cac7b643000000000000000000000000000000000000000000000000000000000007a9b9000000000000000000000000000000000000000003a09004442e5e700c450264",
          "blockHash": "0x4d2cfe89bfeb3b07bdc1c681e606543cb1dd674cfc719332bec300ec2b4d1abe",
          "blockNumber": "0x46500f",
          "transactionHash": "0xc4cdb19ba70f3cb1cb46bcc79fa6c25fae832c31c48ffc626e68377be174cf87",
          "transactionIndex": "0x5",
          "logIndex": "0x61",
          "removed": false
        },
        {
          "address": "0x6Ae43d3271ff6888e7Fc43Fd7321a503ff738951",
          "topics": [
            "0x804c9b842b2748a22bb64b345453a3de7ca54a6ca45ce00d415894979e22897a",
            "0x000000000000000000000000f8fb3713d459d7c1018bd0a49d19b4c44290ebe5"
          ],
          "data": "0x000000000000000000000000000000000000000006ddd125cf5df370972ab37a00000000000000000000000000000000000000000953b0b4d0a0a07ad874d95e000000000000000000000000000000000000000009093e7709ec94f03e74d95e00000000000000000000000000000000000000000387bbee704dff694a5f412b000000000000000000000000000000000000000003a09004442e5e700c450264",
          "blockHash": "0x4d2cfe89bfeb3b07bdc1c681e606543cb1dd674cfc719332bec300ec2b4d1abe",
          "blockNumber": "0x46500f",
          "transactionHash": "0xc4cdb19ba70f3cb1cb46bcc79fa6c25fae832c31c48ffc626e68377be174cf87",
          "transactionIndex": "0x5",
          "logIndex": "0x62",
          "removed": false
        },
        {
          "address": "0xf8Fb3713D459D7C1018BD0A49D19b4C44290EBE5",
          "topics": [
            "0xddf252ad1be2c89b69c2b068fc378daa952ba7f163c4a11628f55a4df523b3ef",
            "0x0000000000000000000000003ffaf50d4f4e96eb78f2407c090b72e86ecaed24",
            "0x0000000000000000000000006a763430e347d1e152823d646c700442a4db84aa"
          ],
          "data": "0x00000000000000000000000000000000000000000000000000003fe3cac00c8a",
          "blockHash": "0x4d2cfe89bfeb3b07bdc1c681e606543cb1dd674cfc719332bec300ec2b4d1abe",
          "blockNumber": "0x46500f",
          "transactionHash": "0xc4cdb19ba70f3cb1cb46bcc79fa6c25fae832c31c48ffc626e68377be174cf87",
          "transactionIndex": "0x5",
          "logIndex": "0x63",
          "removed": false
        },
        {
          "address": "0x6Ae43d3271ff6888e7Fc43Fd7321a503ff738951",
          "topics": [
            "0xb3d084820fb1a9decffb176436bd02558d15fac9b0ddfed8c465bc7359d7dce0",
            "0x000000000000000000000000f8fb3713d459d7c1018bd0a49d19b4c44290ebe5",
            "0x0000000000000000000000003e122a3db43d225dd5bffd929ad4176ce69117e0",
            "0x0000000000000000000000000000000000000000000000000000000000000000"
          ],
          "data": "0x0000000000000000000000006a763430e347d1e152823d646c700442a4db84aa00000000000000000000000000000000000000000000000000003fe3cac00c8a0000000000000000000000000000000000000000000000000000000000000002000000000000000000000000000000000000000009093e7709ec94f03e74d95e",
          "blockHash": "0x4d2cfe89bfeb3b07bdc1c681e606543cb1dd674cfc719332bec300ec2b4d1abe",
          "blockNumber": "0x46500f",
          "transactionHash": "0xc4cdb19ba70f3cb1cb46bcc79fa6c25fae832c31c48ffc626e68377be174cf87",
          "transactionIndex": "0x5",
          "logIndex": "0x64",
          "removed": false
        },
        {
          "address": "0xf8Fb3713D459D7C1018BD0A49D19b4C44290EBE5",
          "topics": [
            "0x8c5be1e5ebec7d5bd14f71427d1e84f3dd0314c0f7b2291e5b200ac8c7c3b925",
            "0x0000000000000000000000006a763430e347d1e152823d646c700442a4db84aa",
            "0x0000000000000000000000006ae43d3271ff6888e7fc43fd7321a503ff738951"
          ],
          "data": "0xffffffffffffffffffffffffffffffffffffffffffffffffffffffffffffffff",
          "blockHash": "0x4d2cfe89bfeb3b07bdc1c681e606543cb1dd674cfc719332bec300ec2b4d1abe",
          "blockNumber": "0x46500f",
          "transactionHash": "0xc4cdb19ba70f3cb1cb46bcc79fa6c25fae832c31c48ffc626e68377be174cf87",
          "transactionIndex": "0x5",
          "logIndex": "0x65",
          "removed": false
        },
        {
          "address": "0x9844386d29EEd970B9F6a2B9a676083b0478210e",
          "topics": [
            "0xda919360433220e13b51e8c211e490d148e61a3bd53de8c097194e458b97f3e1",
            "0x0000000000000000000000003e122a3db43d225dd5bffd929ad4176ce69117e0",
            "0x0000000000000000000000006a763430e347d1e152823d646c700442a4db84aa",
            "0x000000000000000000000000aa8e23fb1079ea71e0a56f48a2aa51851d8433d0"
          ],
          "data": "0x000000000000000000000000000000000000000000000000000000001618f744",
          "blockHash": "0x4d2cfe89bfeb3b07bdc1c681e606543cb1dd674cfc719332bec300ec2b4d1abe",
          "blockNumber": "0x46500f",
          "transactionHash": "0xc4cdb19ba70f3cb1cb46bcc79fa6c25fae832c31c48ffc626e68377be174cf87",
          "transactionIndex": "0x5",
          "logIndex": "0x66",
          "removed": false
        },
        {
          "address": "0x9844386d29EEd970B9F6a2B9a676083b0478210e",
          "topics": [
            "0xddf252ad1be2c89b69c2b068fc378daa952ba7f163c4a11628f55a4df523b3ef",
            "0x0000000000000000000000000000000000000000000000000000000000000000",
            "0x0000000000000000000000003e122a3db43d225dd5bffd929ad4176ce69117e0"
          ],
          "data": "0x000000000000000000000000000000000000000000000000000000046dc5dd6d",
          "blockHash": "0x4d2cfe89bfeb3b07bdc1c681e606543cb1dd674cfc719332bec300ec2b4d1abe",
          "blockNumber": "0x46500f",
          "transactionHash": "0xc4cdb19ba70f3cb1cb46bcc79fa6c25fae832c31c48ffc626e68377be174cf87",
          "transactionIndex": "0x5",
          "logIndex": "0x67",
          "removed": false
        },
        {
          "address": "0x9844386d29EEd970B9F6a2B9a676083b0478210e",
          "topics": [
            "0x458f5fa412d0f69b08dd84872b0215675cc67bc1d5b6fd93300a1c3878b86196",
            "0x0000000000000000000000006a763430e347d1e152823d646c700442a4db84aa",
            "0x0000000000000000000000003e122a3db43d225dd5bffd929ad4176ce69117e0"
          ],
          "data": "0x000000000000000000000000000000000000000000000000000000046dc5dd6d000000000000000000000000000000000000000000000000000000000000000000000000000000000000000000000000000000000345056456461d33f8a9fe25",
          "blockHash": "0x4d2cfe89bfeb3b07bdc1c681e606543cb1dd674cfc719332bec300ec2b4d1abe",
          "blockNumber": "0x46500f",
          "transactionHash": "0xc4cdb19ba70f3cb1cb46bcc79fa6c25fae832c31c48ffc626e68377be174cf87",
          "transactionIndex": "0x5",
          "logIndex": "0x68",
          "removed": false
        },
        {
          "address": "0x6Ae43d3271ff6888e7Fc43Fd7321a503ff738951",
          "topics": [
            "0x804c9b842b2748a22bb64b345453a3de7ca54a6ca45ce00d415894979e22897a",
            "0x000000000000000000000000aa8e23fb1079ea71e0a56f48a2aa51851d8433d0"
          ],
          "data": "0x000000000000000000000000000000000000000000000395377adc82da3a108300000000000000000000000000000000000000000029614afd85ecaf0ce2d741000000000000000000000000000000000000000000002b0c790f322cd716ba0400000000000000000000000000000000000000000342ac3f084978be5690fa7b00000000000000000000000000000000000000000345056456461d33f8a9fe25",
          "blockHash": "0x4d2cfe89bfeb3b07bdc1c681e606543cb1dd674cfc719332bec300ec2b4d1abe",
          "blockNumber": "0x46500f",
          "transactionHash": "0xc4cdb19ba70f3cb1cb46bcc79fa6c25fae832c31c48ffc626e68377be174cf87",
          "transactionIndex": "0x5",
          "logIndex": "0x69",
          "removed": false
        },
        {
          "address": "0xaA8E23Fb1079EA71e0a56F48a2aA51851D8433D0",
          "topics": [
            "0xddf252ad1be2c89b69c2b068fc378daa952ba7f163c4a11628f55a4df523b3ef",
            "0x000000000000000000000000af0f6e8b0dc5c913bbf4d14c22b4e78dd14310b6",
            "0x0000000000000000000000006a763430e347d1e152823d646c700442a4db84aa"
          ],
          "data": "0x000000000000000000000000000000000000000000000000000000046dc5dd6d",
          "blockHash": "0x4d2cfe89bfeb3b07bdc1c681e606543cb1dd674cfc719332bec300ec2b4d1abe",
          "blockNumber": "0x46500f",
          "transactionHash": "0xc4cdb19ba70f3cb1cb46bcc79fa6c25fae832c31c48ffc626e68377be174cf87",
          "transactionIndex": "0x5",
          "logIndex": "0x6a",
          "removed": false
        },
        {
          "address": "0x6Ae43d3271ff6888e7Fc43Fd7321a503ff738951",
          "topics": [
            "0xb3d084820fb1a9decffb176436bd02558d15fac9b0ddfed8c465bc7359d7dce0",
            "0x000000000000000000000000aa8e23fb1079ea71e0a56f48a2aa51851d8433d0",
            "0x0000000000000000000000003e122a3db43d225dd5bffd929ad4176ce69117e0",
            "0x0000000000000000000000000000000000000000000000000000000000000000"
          ],
          "data": "0x0000000000000000000000006a763430e347d1e152823d646c700442a4db84aa000000000000000000000000000000000000000000000000000000046dc5dd6d0000000000000000000000000000000000000000000000000000000000000002000000000000000000000000000000000000000000002b0c790f322cd716ba04",
          "blockHash": "0x4d2cfe89bfeb3b07bdc1c681e606543cb1dd674cfc719332bec300ec2b4d1abe",
          "blockNumber": "0x46500f",
          "transactionHash": "0xc4cdb19ba70f3cb1cb46bcc79fa6c25fae832c31c48ffc626e68377be174cf87",
          "transactionIndex": "0x5",
          "logIndex": "0x6b",
          "removed": false
        },
        {
          "address": "0xaA8E23Fb1079EA71e0a56F48a2aA51851D8433D0",
          "topics": [
            "0x8c5be1e5ebec7d5bd14f71427d1e84f3dd0314c0f7b2291e5b200ac8c7c3b925",
            "0x0000000000000000000000006a763430e347d1e152823d646c700442a4db84aa",
            "0x0000000000000000000000006ae43d3271ff6888e7fc43fd7321a503ff738951"
          ],
          "data": "0xffffffffffffffffffffffffffffffffffffffffffffffffffffffffffffffff",
          "blockHash": "0x4d2cfe89bfeb3b07bdc1c681e606543cb1dd674cfc719332bec300ec2b4d1abe",
          "blockNumber": "0x46500f",
          "transactionHash": "0xc4cdb19ba70f3cb1cb46bcc79fa6c25fae832c31c48ffc626e68377be174cf87",
          "transactionIndex": "0x5",
          "logIndex": "0x6c",
          "removed": false
        },
        {
          "address": "0xEAF54fA3b1C7243033C2893c6B807f9cEaBCf0AF",
          "topics": [
            "0xda919360433220e13b51e8c211e490d148e61a3bd53de8c097194e458b97f3e1",
            "0x0000000000000000000000003e122a3db43d225dd5bffd929ad4176ce69117e0",
            "0x0000000000000000000000006a763430e347d1e152823d646c700442a4db84aa",
            "0x000000000000000000000000aa8e23fb1079ea71e0a56f48a2aa51851d8433d0"
          ],
          "data": "0x000000000000000000000000000000000000000000000000000000000002fa8e",
          "blockHash": "0x4d2cfe89bfeb3b07bdc1c681e606543cb1dd674cfc719332bec300ec2b4d1abe",
          "blockNumber": "0x46500f",
          "transactionHash": "0xc4cdb19ba70f3cb1cb46bcc79fa6c25fae832c31c48ffc626e68377be174cf87",
          "transactionIndex": "0x5",
          "logIndex": "0x6d",
          "removed": false
        },
        {
          "address": "0xEAF54fA3b1C7243033C2893c6B807f9cEaBCf0AF",
          "topics": [
            "0xddf252ad1be2c89b69c2b068fc378daa952ba7f163c4a11628f55a4df523b3ef",
            "0x0000000000000000000000000000000000000000000000000000000000000000",
            "0x0000000000000000000000003e122a3db43d225dd5bffd929ad4176ce69117e0"
          ],
          "data": "0x000000000000000000000000000000000000000000000000000000000098d50e",
          "blockHash": "0x4d2cfe89bfeb3b07bdc1c681e606543cb1dd674cfc719332bec300ec2b4d1abe",
          "blockNumber": "0x46500f",
          "transactionHash": "0xc4cdb19ba70f3cb1cb46bcc79fa6c25fae832c31c48ffc626e68377be174cf87",
          "transactionIndex": "0x5",
          "logIndex": "0x6e",
          "removed": false
        },
        {
          "address": "0xEAF54fA3b1C7243033C2893c6B807f9cEaBCf0AF",
          "topics": [
            "0xc16f4e4ca34d790de4c656c72fd015c667d688f20be64eea360618545c4c530f",
            "0x0000000000000000000000006a763430e347d1e152823d646c700442a4db84aa",
            "0x0000000000000000000000003e122a3db43d225dd5bffd929ad4176ce69117e0"
          ],
          "data": "0x000000000000000000000000000000000000000000000000000000000098d50e0000000000000000000000000000000000000000000000000000000000000004000000000000000000000000000000000000000000000000000000000000000000000000000000000000000000000000000000000029614afd85eda11cdac7080000000000000000000000000000000000000000002b616f56794c8a8c9e7ae80000000000000000000000000000000000000000000000000000001e26fe3805",
          "blockHash": "0x4d2cfe89bfeb3b07bdc1c681e606543cb1dd674cfc719332bec300ec2b4d1abe",
          "blockNumber": "0x46500f",
          "transactionHash": "0xc4cdb19ba70f3cb1cb46bcc79fa6c25fae832c31c48ffc626e68377be174cf87",
          "transactionIndex": "0x5",
          "logIndex": "0x6f",
          "removed": false
        },
        {
          "address": "0x6Ae43d3271ff6888e7Fc43Fd7321a503ff738951",
          "topics": [
            "0x804c9b842b2748a22bb64b345453a3de7ca54a6ca45ce00d415894979e22897a",
            "0x000000000000000000000000aa8e23fb1079ea71e0a56f48a2aa51851d8433d0"
          ],
          "data": "0x0000000000000000000000000000000000000000000003954812d079740ca01000000000000000000000000000000000000000000029614aff90222332c9dc33000000000000000000000000000000000000000000002b0c8960ddce064ee19600000000000000000000000000000000000000000342ac3f084978be5690fa7b00000000000000000000000000000000000000000345056456461d33f8a9fe25",
          "blockHash": "0x4d2cfe89bfeb3b07bdc1c681e606543cb1dd674cfc719332bec300ec2b4d1abe",
          "blockNumber": "0x46500f",
          "transactionHash": "0xc4cdb19ba70f3cb1cb46bcc79fa6c25fae832c31c48ffc626e68377be174cf87",
          "transactionIndex": "0x5",
          "logIndex": "0x70",
          "removed": false
        },
        {
          "address": "0xaA8E23Fb1079EA71e0a56F48a2aA51851D8433D0",
          "topics": [
            "0xddf252ad1be2c89b69c2b068fc378daa952ba7f163c4a11628f55a4df523b3ef",
            "0x000000000000000000000000af0f6e8b0dc5c913bbf4d14c22b4e78dd14310b6",
            "0x0000000000000000000000006a763430e347d1e152823d646c700442a4db84aa"
          ],
          "data": "0x000000000000000000000000000000000000000000000000000000000098d50e",
          "blockHash": "0x4d2cfe89bfeb3b07bdc1c681e606543cb1dd674cfc719332bec300ec2b4d1abe",
          "blockNumber": "0x46500f",
          "transactionHash": "0xc4cdb19ba70f3cb1cb46bcc79fa6c25fae832c31c48ffc626e68377be174cf87",
          "transactionIndex": "0x5",
          "logIndex": "0x71",
          "removed": false
        },
        {
          "address": "0x6Ae43d3271ff6888e7Fc43Fd7321a503ff738951",
          "topics": [
            "0xb3d084820fb1a9decffb176436bd02558d15fac9b0ddfed8c465bc7359d7dce0",
            "0x000000000000000000000000aa8e23fb1079ea71e0a56f48a2aa51851d8433d0",
            "0x0000000000000000000000003e122a3db43d225dd5bffd929ad4176ce69117e0",
            "0x0000000000000000000000000000000000000000000000000000000000000000"
          ],
          "data": "0x0000000000000000000000006a763430e347d1e152823d646c700442a4db84aa000000000000000000000000000000000000000000000000000000000098d50e000000000000000000000000000000000000000000000000000000000000000100000000000000000000000000000000000000000029614afd85ecaf0ce2d741",
          "blockHash": "0x4d2cfe89bfeb3b07bdc1c681e606543cb1dd674cfc719332bec300ec2b4d1abe",
          "blockNumber": "0x46500f",
          "transactionHash": "0xc4cdb19ba70f3cb1cb46bcc79fa6c25fae832c31c48ffc626e68377be174cf87",
          "transactionIndex": "0x5",
          "logIndex": "0x72",
          "removed": false
        },
        {
          "address": "0xaA8E23Fb1079EA71e0a56F48a2aA51851D8433D0",
          "topics": [
            "0x8c5be1e5ebec7d5bd14f71427d1e84f3dd0314c0f7b2291e5b200ac8c7c3b925",
            "0x0000000000000000000000006a763430e347d1e152823d646c700442a4db84aa",
            "0x0000000000000000000000006ae43d3271ff6888e7fc43fd7321a503ff738951"
          ],
          "data": "0xffffffffffffffffffffffffffffffffffffffffffffffffffffffffffffffff",
          "blockHash": "0x4d2cfe89bfeb3b07bdc1c681e606543cb1dd674cfc719332bec300ec2b4d1abe",
          "blockNumber": "0x46500f",
          "transactionHash": "0xc4cdb19ba70f3cb1cb46bcc79fa6c25fae832c31c48ffc626e68377be174cf87",
          "transactionIndex": "0x5",
          "logIndex": "0x73",
          "removed": false
        },
        {
          "address": "0x94482C7A7477196259D8a0f74fB853277Fa5a75b",
          "topics": [
            "0xda919360433220e13b51e8c211e490d148e61a3bd53de8c097194e458b97f3e1",
            "0x0000000000000000000000003e122a3db43d225dd5bffd929ad4176ce69117e0",
            "0x0000000000000000000000006a763430e347d1e152823d646c700442a4db84aa",
            "0x0000000000000000000000006d906e526a4e2ca02097ba9d0caa3c382f52278e"
          ],
          "data": "0x0000000000000000000000000000000000000000000000000000000000000004",
          "blockHash": "0x4d2cfe89bfeb3b07bdc1c681e606543cb1dd674cfc719332bec300ec2b4d1abe",
          "blockNumber": "0x46500f",
          "transactionHash": "0xc4cdb19ba70f3cb1cb46bcc79fa6c25fae832c31c48ffc626e68377be174cf87",
          "transactionIndex": "0x5",
          "logIndex": "0x74",
          "removed": false
        },
        {
          "address": "0x94482C7A7477196259D8a0f74fB853277Fa5a75b",
          "topics": [
            "0xddf252ad1be2c89b69c2b068fc378daa952ba7f163c4a11628f55a4df523b3ef",
            "0x0000000000000000000000000000000000000000000000000000000000000000",
            "0x0000000000000000000000003e122a3db43d225dd5bffd929ad4176ce69117e0"
          ],
          "data": "0x00000000000000000000000000000000000000000000000000000000000000c9",
          "blockHash": "0x4d2cfe89bfeb3b07bdc1c681e606543cb1dd674cfc719332bec300ec2b4d1abe",
          "blockNumber": "0x46500f",
          "transactionHash": "0xc4cdb19ba70f3cb1cb46bcc79fa6c25fae832c31c48ffc626e68377be174cf87",
          "transactionIndex": "0x5",
          "logIndex": "0x75",
          "removed": false
        },
        {
          "address": "0x94482C7A7477196259D8a0f74fB853277Fa5a75b",
          "topics": [
            "0x458f5fa412d0f69b08dd84872b0215675cc67bc1d5b6fd93300a1c3878b86196",
            "0x0000000000000000000000006a763430e347d1e152823d646c700442a4db84aa",
            "0x0000000000000000000000003e122a3db43d225dd5bffd929ad4176ce69117e0"
          ],
          "data": "0x00000000000000000000000000000000000000000000000000000000000000c900000000000000000000000000000000000000000000000000000000000000000000000000000000000000000000000000000000034e851ee9d034206a3c2690",
          "blockHash": "0x4d2cfe89bfeb3b07bdc1c681e606543cb1dd674cfc719332bec300ec2b4d1abe",
          "blockNumber": "0x46500f",
          "transactionHash": "0xc4cdb19ba70f3cb1cb46bcc79fa6c25fae832c31c48ffc626e68377be174cf87",
          "transactionIndex": "0x5",
          "logIndex": "0x76",
          "removed": false
        },
        {
          "address": "0x6Ae43d3271ff6888e7Fc43Fd7321a503ff738951",
          "topics": [
            "0x804c9b842b2748a22bb64b345453a3de7ca54a6ca45ce00d415894979e22897a",
            "0x0000000000000000000000006d906e526a4e2ca02097ba9d0caa3c382f52278e"
          ],
          "data": "0x0000000000000000000000000000000000000000014b748ada2df39db25e71430000000000000000000000000000000000000000018c2a2d0513c7397c3fdeec0000000000000000000000000000000000000000017fc1cd63f5c54d0d3fdeec0000000000000000000000000000000000000000034b268a5d610d71a92f1cc60000000000000000000000000000000000000000034e851ee9d034206a3c2690",
          "blockHash": "0x4d2cfe89bfeb3b07bdc1c681e606543cb1dd674cfc719332bec300ec2b4d1abe",
          "blockNumber": "0x46500f",
          "transactionHash": "0xc4cdb19ba70f3cb1cb46bcc79fa6c25fae832c31c48ffc626e68377be174cf87",
          "transactionIndex": "0x5",
          "logIndex": "0x77",
          "removed": false
        },
        {
          "address": "0x6d906e526a4e2Ca02097BA9d0caA3c382F52278E",
          "topics": [
            "0xddf252ad1be2c89b69c2b068fc378daa952ba7f163c4a11628f55a4df523b3ef",
            "0x000000000000000000000000b20691021f9aced8631edaa3c0cd2949eb45662d",
            "0x0000000000000000000000006a763430e347d1e152823d646c700442a4db84aa"
          ],
          "data": "0x00000000000000000000000000000000000000000000000000000000000000c9",
          "blockHash": "0x4d2cfe89bfeb3b07bdc1c681e606543cb1dd674cfc719332bec300ec2b4d1abe",
          "blockNumber": "0x46500f",
          "transactionHash": "0xc4cdb19ba70f3cb1cb46bcc79fa6c25fae832c31c48ffc626e68377be174cf87",
          "transactionIndex": "0x5",
          "logIndex": "0x78",
          "removed": false
        },
        {
          "address": "0x6Ae43d3271ff6888e7Fc43Fd7321a503ff738951",
          "topics": [
            "0xb3d084820fb1a9decffb176436bd02558d15fac9b0ddfed8c465bc7359d7dce0",
            "0x0000000000000000000000006d906e526a4e2ca02097ba9d0caa3c382f52278e",
            "0x0000000000000000000000003e122a3db43d225dd5bffd929ad4176ce69117e0",
            "0x0000000000000000000000000000000000000000000000000000000000000000"
          ],
          "data": "0x0000000000000000000000006a763430e347d1e152823d646c700442a4db84aa00000000000000000000000000000000000000000000000000000000000000c900000000000000000000000000000000000000000000000000000000000000020000000000000000000000000000000000000000017fc1cd63f5c54d0d3fdeec",
          "blockHash": "0x4d2cfe89bfeb3b07bdc1c681e606543cb1dd674cfc719332bec300ec2b4d1abe",
          "blockNumber": "0x46500f",
          "transactionHash": "0xc4cdb19ba70f3cb1cb46bcc79fa6c25fae832c31c48ffc626e68377be174cf87",
          "transactionIndex": "0x5",
          "logIndex": "0x79",
          "removed": false
        },
        {
          "address": "0x6d906e526a4e2Ca02097BA9d0caA3c382F52278E",
          "topics": [
            "0x8c5be1e5ebec7d5bd14f71427d1e84f3dd0314c0f7b2291e5b200ac8c7c3b925",
            "0x0000000000000000000000006a763430e347d1e152823d646c700442a4db84aa",
            "0x0000000000000000000000006ae43d3271ff6888e7fc43fd7321a503ff738951"
          ],
          "data": "0xffffffffffffffffffffffffffffffffffffffffffffffffffffffffffffffff",
          "blockHash": "0x4d2cfe89bfeb3b07bdc1c681e606543cb1dd674cfc719332bec300ec2b4d1abe",
          "blockNumber": "0x46500f",
          "transactionHash": "0xc4cdb19ba70f3cb1cb46bcc79fa6c25fae832c31c48ffc626e68377be174cf87",
          "transactionIndex": "0x5",
          "logIndex": "0x7a",
          "removed": false
        },
        {
          "address": "0x08878209484D8178DD1FFA50AB1689F21aDBB856",
          "topics": [
            "0xda919360433220e13b51e8c211e490d148e61a3bd53de8c097194e458b97f3e1",
            "0x0000000000000000000000003e122a3db43d225dd5bffd929ad4176ce69117e0",
            "0x0000000000000000000000006a763430e347d1e152823d646c700442a4db84aa",
            "0x0000000000000000000000006d906e526a4e2ca02097ba9d0caa3c382f52278e"
          ],
          "data": "0x000000000000000000000000000000000000000000000000000000000000000e",
          "blockHash": "0x4d2cfe89bfeb3b07bdc1c681e606543cb1dd674cfc719332bec300ec2b4d1abe",
          "blockNumber": "0x46500f",
          "transactionHash": "0xc4cdb19ba70f3cb1cb46bcc79fa6c25fae832c31c48ffc626e68377be174cf87",
          "transactionIndex": "0x5",
          "logIndex": "0x7b",
          "removed": false
        },
        {
          "address": "0x08878209484D8178DD1FFA50AB1689F21aDBB856",
          "topics": [
            "0xddf252ad1be2c89b69c2b068fc378daa952ba7f163c4a11628f55a4df523b3ef",
            "0x0000000000000000000000000000000000000000000000000000000000000000",
            "0x0000000000000000000000003e122a3db43d225dd5bffd929ad4176ce69117e0"
          ],
          "data": "0x00000000000000000000000000000000000000000000000000000000000002bd",
          "blockHash": "0x4d2cfe89bfeb3b07bdc1c681e606543cb1dd674cfc719332bec300ec2b4d1abe",
          "blockNumber": "0x46500f",
          "transactionHash": "0xc4cdb19ba70f3cb1cb46bcc79fa6c25fae832c31c48ffc626e68377be174cf87",
          "transactionIndex": "0x5",
          "logIndex": "0x7c",
          "removed": false
        },
        {
          "address": "0x08878209484D8178DD1FFA50AB1689F21aDBB856",
          "topics": [
            "0xc16f4e4ca34d790de4c656c72fd015c667d688f20be64eea360618545c4c530f",
            "0x0000000000000000000000006a763430e347d1e152823d646c700442a4db84aa",
            "0x0000000000000000000000003e122a3db43d225dd5bffd929ad4176ce69117e0"
          ],
          "data": "0x00000000000000000000000000000000000000000000000000000000000002bd000000000000000000000000000000000000000000000000000000000000000000000000000000000000000000000000000000000000000000000000000000000000000000000000000000000000000000000000018c2a2d05151be06a68b6990000000000000000000000000000000000000000002bbfb8d9950a50baace01000000000000000000000000000000000000000000000000000000000003febb4",
          "blockHash": "0x4d2cfe89bfeb3b07bdc1c681e606543cb1dd674cfc719332bec300ec2b4d1abe",
          "blockNumber": "0x46500f",
          "transactionHash": "0xc4cdb19ba70f3cb1cb46bcc79fa6c25fae832c31c48ffc626e68377be174cf87",
          "transactionIndex": "0x5",
          "logIndex": "0x7d",
          "removed": false
        },
        {
          "address": "0x6Ae43d3271ff6888e7Fc43Fd7321a503ff738951",
          "topics": [
            "0x804c9b842b2748a22bb64b345453a3de7ca54a6ca45ce00d415894979e22897a",
            "0x0000000000000000000000006d906e526a4e2ca02097ba9d0caa3c382f52278e"
          ],
          "data": "0x0000000000000000000000000000000000000000014b7700d897e7e6f821612c0000000000000000000000000000000000000000018c2ccf53e88faaa573f7500000000000000000000000000000000000000000017fc46fb2ca8dbe3673f7500000000000000000000000000000000000000000034b268a5d610d71a92f1cc60000000000000000000000000000000000000000034e851ee9d034206a3c2690",
          "blockHash": "0x4d2cfe89bfeb3b07bdc1c681e606543cb1dd674cfc719332bec300ec2b4d1abe",
          "blockNumber": "0x46500f",
          "transactionHash": "0xc4cdb19ba70f3cb1cb46bcc79fa6c25fae832c31c48ffc626e68377be174cf87",
          "transactionIndex": "0x5",
          "logIndex": "0x7e",
          "removed": false
        },
        {
          "address": "0x6d906e526a4e2Ca02097BA9d0caA3c382F52278E",
          "topics": [
            "0xddf252ad1be2c89b69c2b068fc378daa952ba7f163c4a11628f55a4df523b3ef",
            "0x000000000000000000000000b20691021f9aced8631edaa3c0cd2949eb45662d",
            "0x0000000000000000000000006a763430e347d1e152823d646c700442a4db84aa"
          ],
          "data": "0x00000000000000000000000000000000000000000000000000000000000002bd",
          "blockHash": "0x4d2cfe89bfeb3b07bdc1c681e606543cb1dd674cfc719332bec300ec2b4d1abe",
          "blockNumber": "0x46500f",
          "transactionHash": "0xc4cdb19ba70f3cb1cb46bcc79fa6c25fae832c31c48ffc626e68377be174cf87",
          "transactionIndex": "0x5",
          "logIndex": "0x7f",
          "removed": false
        },
        {
          "address": "0x6Ae43d3271ff6888e7Fc43Fd7321a503ff738951",
          "topics": [
            "0xb3d084820fb1a9decffb176436bd02558d15fac9b0ddfed8c465bc7359d7dce0",
            "0x0000000000000000000000006d906e526a4e2ca02097ba9d0caa3c382f52278e",
            "0x0000000000000000000000003e122a3db43d225dd5bffd929ad4176ce69117e0",
            "0x0000000000000000000000000000000000000000000000000000000000000000"
          ],
          "data": "0x0000000000000000000000006a763430e347d1e152823d646c700442a4db84aa00000000000000000000000000000000000000000000000000000000000002bd00000000000000000000000000000000000000000000000000000000000000010000000000000000000000000000000000000000018c2a2d0513c7397c3fdeec",
          "blockHash": "0x4d2cfe89bfeb3b07bdc1c681e606543cb1dd674cfc719332bec300ec2b4d1abe",
          "blockNumber": "0x46500f",
          "transactionHash": "0xc4cdb19ba70f3cb1cb46bcc79fa6c25fae832c31c48ffc626e68377be174cf87",
          "transactionIndex": "0x5",
          "logIndex": "0x80",
          "removed": false
        },
        {
          "address": "0x6d906e526a4e2Ca02097BA9d0caA3c382F52278E",
          "topics": [
            "0x8c5be1e5ebec7d5bd14f71427d1e84f3dd0314c0f7b2291e5b200ac8c7c3b925",
            "0x0000000000000000000000006a763430e347d1e152823d646c700442a4db84aa",
            "0x0000000000000000000000006ae43d3271ff6888e7fc43fd7321a503ff738951"
          ],
          "data": "0xffffffffffffffffffffffffffffffffffffffffffffffffffffffffffffffff",
          "blockHash": "0x4d2cfe89bfeb3b07bdc1c681e606543cb1dd674cfc719332bec300ec2b4d1abe",
          "blockNumber": "0x46500f",
          "transactionHash": "0xc4cdb19ba70f3cb1cb46bcc79fa6c25fae832c31c48ffc626e68377be174cf87",
          "transactionIndex": "0x5",
          "logIndex": "0x81",
          "removed": false
        },
        {
          "address": "0x6Ae43d3271ff6888e7Fc43Fd7321a503ff738951",
          "topics": [
            "0x804c9b842b2748a22bb64b345453a3de7ca54a6ca45ce00d415894979e22897a",
            "0x000000000000000000000000ff34b3d4aee8ddcd6f9afffb6fe49bd371b8a357"
          ],
          "data": "0x00000000000000000000000000000000000000000001f179017f17420b95c3b40000000000000000000000000000000000000000002a70f347162b813eb8ad6b00000000000000000000000000000000000000000008a84ec59128be65c56b4f0000000000000000000000000000000000000000034544de7e6f293954bdc1d500000000000000000000000000000000000000000346f4be76dd9390265f83c9",
          "blockHash": "0x4d2cfe89bfeb3b07bdc1c681e606543cb1dd674cfc719332bec300ec2b4d1abe",
          "blockNumber": "0x46500f",
          "transactionHash": "0xc4cdb19ba70f3cb1cb46bcc79fa6c25fae832c31c48ffc626e68377be174cf87",
          "transactionIndex": "0x5",
          "logIndex": "0x82",
          "removed": false
        },
        {
          "address": "0xFF34B3d4Aee8ddCd6F9AFFFB6Fe49bD371b8a357",
          "topics": [
            "0xddf252ad1be2c89b69c2b068fc378daa952ba7f163c4a11628f55a4df523b3ef",
            "0x0000000000000000000000006a763430e347d1e152823d646c700442a4db84aa",
            "0x00000000000000000000000029598b72eb5cebd806c5dcd549490fda35b13cd8"
          ],
          "data": "0x0000000000000000000000000000000000000000000006105fba066bff41c2d7",
          "blockHash": "0x4d2cfe89bfeb3b07bdc1c681e606543cb1dd674cfc719332bec300ec2b4d1abe",
          "blockNumber": "0x46500f",
          "transactionHash": "0xc4cdb19ba70f3cb1cb46bcc79fa6c25fae832c31c48ffc626e68377be174cf87",
          "transactionIndex": "0x5",
          "logIndex": "0x83",
          "removed": false
        },
        {
          "address": "0xFF34B3d4Aee8ddCd6F9AFFFB6Fe49bD371b8a357",
          "topics": [
            "0x8c5be1e5ebec7d5bd14f71427d1e84f3dd0314c0f7b2291e5b200ac8c7c3b925",
            "0x0000000000000000000000006a763430e347d1e152823d646c700442a4db84aa",
            "0x0000000000000000000000006ae43d3271ff6888e7fc43fd7321a503ff738951"
          ],
          "data": "0xfffffffffffffffffffffffffffffffffffffffffffff9efa045f99400be3d28",
          "blockHash": "0x4d2cfe89bfeb3b07bdc1c681e606543cb1dd674cfc719332bec300ec2b4d1abe",
          "blockNumber": "0x46500f",
          "transactionHash": "0xc4cdb19ba70f3cb1cb46bcc79fa6c25fae832c31c48ffc626e68377be174cf87",
          "transactionIndex": "0x5",
          "logIndex": "0x84",
          "removed": false
        },
        {
          "address": "0x6Ae43d3271ff6888e7Fc43Fd7321a503ff738951",
          "topics": [
            "0xefefaba5e921573100900a3ad9cf29f222d995fb3b6045797eaea7521bd8d6f0",
            "0x0000000000000000000000006a763430e347d1e152823d646c700442a4db84aa",
            "0x000000000000000000000000ff34b3d4aee8ddcd6f9afffb6fe49bd371b8a357",
            "0x0000000000000000000000000000000000000000000000000000000000000000"
          ],
          "data": "0x0000000000000000000000006a763430e347d1e152823d646c700442a4db84aa00000000000000000000000000000000000000000000060f991f41e8ae4613fb0000000000000000000000000000000000000000000000000000000000000000000000000000000000000000000000000000000000000000c69ac48350fbaedc",
          "blockHash": "0x4d2cfe89bfeb3b07bdc1c681e606543cb1dd674cfc719332bec300ec2b4d1abe",
          "blockNumber": "0x46500f",
          "transactionHash": "0xc4cdb19ba70f3cb1cb46bcc79fa6c25fae832c31c48ffc626e68377be174cf87",
          "transactionIndex": "0x5",
          "logIndex": "0x85",
          "removed": false
        },
        {
          "address": "0x6Ae43d3271ff6888e7Fc43Fd7321a503ff738951",
          "topics": [
            "0x804c9b842b2748a22bb64b345453a3de7ca54a6ca45ce00d415894979e22897a",
            "0x000000000000000000000000ff34b3d4aee8ddcd6f9afffb6fe49bd371b8a357"
          ],
          "data": "0x00000000000000000000000000000000000000000001f1782fb15d5aa7c567d40000000000000000000000000000000000000000002a70f306321abc79f9ca0000000000000000000000000000000000000000000008a84cbe70a2983fce50020000000000000000000000000000000000000000034544de9783a831f96fc04200000000000000000000000000000000000000000346f4be76dd9390265f83c9",
          "blockHash": "0x4d2cfe89bfeb3b07bdc1c681e606543cb1dd674cfc719332bec300ec2b4d1abe",
          "blockNumber": "0x46500f",
          "transactionHash": "0xc4cdb19ba70f3cb1cb46bcc79fa6c25fae832c31c48ffc626e68377be174cf87",
          "transactionIndex": "0x5",
          "logIndex": "0x86",
          "removed": false
        },
        {
          "address": "0xFF34B3d4Aee8ddCd6F9AFFFB6Fe49bD371b8a357",
          "topics": [
            "0xddf252ad1be2c89b69c2b068fc378daa952ba7f163c4a11628f55a4df523b3ef",
            "0x0000000000000000000000006a763430e347d1e152823d646c700442a4db84aa",
            "0x00000000000000000000000029598b72eb5cebd806c5dcd549490fda35b13cd8"
          ],
          "data": "0x000000000000000000000000000000000000000000000001160006a3b5af09f7",
          "blockHash": "0x4d2cfe89bfeb3b07bdc1c681e606543cb1dd674cfc719332bec300ec2b4d1abe",
          "blockNumber": "0x46500f",
          "transactionHash": "0xc4cdb19ba70f3cb1cb46bcc79fa6c25fae832c31c48ffc626e68377be174cf87",
          "transactionIndex": "0x5",
          "logIndex": "0x87",
          "removed": false
        },
        {
          "address": "0xFF34B3d4Aee8ddCd6F9AFFFB6Fe49bD371b8a357",
          "topics": [
            "0x8c5be1e5ebec7d5bd14f71427d1e84f3dd0314c0f7b2291e5b200ac8c7c3b925",
            "0x0000000000000000000000006a763430e347d1e152823d646c700442a4db84aa",
            "0x0000000000000000000000006ae43d3271ff6888e7fc43fd7321a503ff738951"
          ],
          "data": "0xfffffffffffffffffffffffffffffffffffffffffffff9ee8a45f2f04b0f3331",
          "blockHash": "0x4d2cfe89bfeb3b07bdc1c681e606543cb1dd674cfc719332bec300ec2b4d1abe",
          "blockNumber": "0x46500f",
          "transactionHash": "0xc4cdb19ba70f3cb1cb46bcc79fa6c25fae832c31c48ffc626e68377be174cf87",
          "transactionIndex": "0x5",
          "logIndex": "0x88",
          "removed": false
        },
        {
          "address": "0x6Ae43d3271ff6888e7Fc43Fd7321a503ff738951",
          "topics": [
            "0xefefaba5e921573100900a3ad9cf29f222d995fb3b6045797eaea7521bd8d6f0",
            "0x0000000000000000000000006a763430e347d1e152823d646c700442a4db84aa",
            "0x000000000000000000000000ff34b3d4aee8ddcd6f9afffb6fe49bd371b8a357",
            "0x0000000000000000000000000000000000000000000000000000000000000000"
          ],
          "data": "0x0000000000000000000000006a763430e347d1e152823d646c700442a4db84aa00000000000000000000000000000000000000000000000115dc75af45231e0c0000000000000000000000000000000000000000000000000000000000000000000000000000000000000000000000000000000000000000002390f4708bebeb",
          "blockHash": "0x4d2cfe89bfeb3b07bdc1c681e606543cb1dd674cfc719332bec300ec2b4d1abe",
          "blockNumber": "0x46500f",
          "transactionHash": "0xc4cdb19ba70f3cb1cb46bcc79fa6c25fae832c31c48ffc626e68377be174cf87",
          "transactionIndex": "0x5",
          "logIndex": "0x89",
          "removed": false
        },
        {
          "address": "0x6Ae43d3271ff6888e7Fc43Fd7321a503ff738951",
          "topics": [
            "0x804c9b842b2748a22bb64b345453a3de7ca54a6ca45ce00d415894979e22897a",
            "0x000000000000000000000000f8fb3713d459d7c1018bd0a49d19b4c44290ebe5"
          ],
          "data": "0x000000000000000000000000000000000000000006ddd125c0e349f70cbd369300000000000000000000000000000000000000000953b0b4c440ae19cfd82613000000000000000000000000000000000000000009093e76fd8ca28f35d8261300000000000000000000000000000000000000000387bbee704e54da91ad3d69000000000000000000000000000000000000000003a09004442e5e700c450264",
          "blockHash": "0x4d2cfe89bfeb3b07bdc1c681e606543cb1dd674cfc719332bec300ec2b4d1abe",
          "blockNumber": "0x46500f",
          "transactionHash": "0xc4cdb19ba70f3cb1cb46bcc79fa6c25fae832c31c48ffc626e68377be174cf87",
          "transactionIndex": "0x5",
          "logIndex": "0x8a",
          "removed": false
        },
        {
          "address": "0xf8Fb3713D459D7C1018BD0A49D19b4C44290EBE5",
          "topics": [
            "0xddf252ad1be2c89b69c2b068fc378daa952ba7f163c4a11628f55a4df523b3ef",
            "0x0000000000000000000000006a763430e347d1e152823d646c700442a4db84aa",
            "0x0000000000000000000000003ffaf50d4f4e96eb78f2407c090b72e86ecaed24"
          ],
          "data": "0x00000000000000000000000000000000000000000000000000003fe3cac00c8a",
          "blockHash": "0x4d2cfe89bfeb3b07bdc1c681e606543cb1dd674cfc719332bec300ec2b4d1abe",
          "blockNumber": "0x46500f",
          "transactionHash": "0xc4cdb19ba70f3cb1cb46bcc79fa6c25fae832c31c48ffc626e68377be174cf87",
          "transactionIndex": "0x5",
          "logIndex": "0x8b",
          "removed": false
        },
        {
          "address": "0xf8Fb3713D459D7C1018BD0A49D19b4C44290EBE5",
          "topics": [
            "0x8c5be1e5ebec7d5bd14f71427d1e84f3dd0314c0f7b2291e5b200ac8c7c3b925",
            "0x0000000000000000000000006a763430e347d1e152823d646c700442a4db84aa",
            "0x0000000000000000000000006ae43d3271ff6888e7fc43fd7321a503ff738951"
          ],
          "data": "0xffffffffffffffffffffffffffffffffffffffffffffffffffffc01c353ff375",
          "blockHash": "0x4d2cfe89bfeb3b07bdc1c681e606543cb1dd674cfc719332bec300ec2b4d1abe",
          "blockNumber": "0x46500f",
          "transactionHash": "0xc4cdb19ba70f3cb1cb46bcc79fa6c25fae832c31c48ffc626e68377be174cf87",
          "transactionIndex": "0x5",
          "logIndex": "0x8c",
          "removed": false
        },
        {
          "address": "0x6Ae43d3271ff6888e7Fc43Fd7321a503ff738951",
          "topics": [
            "0xefefaba5e921573100900a3ad9cf29f222d995fb3b6045797eaea7521bd8d6f0",
            "0x0000000000000000000000006a763430e347d1e152823d646c700442a4db84aa",
            "0x000000000000000000000000f8fb3713d459d7c1018bd0a49d19b4c44290ebe5",
            "0x0000000000000000000000000000000000000000000000000000000000000000"
          ],
          "data": "0x0000000000000000000000006a763430e347d1e152823d646c700442a4db84aa00000000000000000000000000000000000000000000000000003fdb9e414bdc0000000000000000000000000000000000000000000000000000000000000000000000000000000000000000000000000000000000000000000000082c7ec0ae",
          "blockHash": "0x4d2cfe89bfeb3b07bdc1c681e606543cb1dd674cfc719332bec300ec2b4d1abe",
          "blockNumber": "0x46500f",
          "transactionHash": "0xc4cdb19ba70f3cb1cb46bcc79fa6c25fae832c31c48ffc626e68377be174cf87",
          "transactionIndex": "0x5",
          "logIndex": "0x8d",
          "removed": false
        },
        {
          "address": "0x6Ae43d3271ff6888e7Fc43Fd7321a503ff738951",
          "topics": [
            "0x804c9b842b2748a22bb64b345453a3de7ca54a6ca45ce00d415894979e22897a",
            "0x000000000000000000000000aa8e23fb1079ea71e0a56f48a2aa51851d8433d0"
          ],
          "data": "0x0000000000000000000000000000000000000000000003953bbc2ddc08a2596000000000000000000000000000000000000000000029614aedd813d27d8cdd4e000000000000000000000000000000000000000000002b0bfba06b485c66ea6f00000000000000000000000000000000000000000342ac4067c4710378af50b800000000000000000000000000000000000000000345056456461d33f8a9fe25",
          "blockHash": "0x4d2cfe89bfeb3b07bdc1c681e606543cb1dd674cfc719332bec300ec2b4d1abe",
          "blockNumber": "0x46500f",
          "transactionHash": "0xc4cdb19ba70f3cb1cb46bcc79fa6c25fae832c31c48ffc626e68377be174cf87",
          "transactionIndex": "0x5",
          "logIndex": "0x8e",
          "removed": false
        },
        {
          "address": "0xaA8E23Fb1079EA71e0a56F48a2aA51851D8433D0",
          "topics": [
            "0xddf252ad1be2c89b69c2b068fc378daa952ba7f163c4a11628f55a4df523b3ef",
            "0x0000000000000000000000006a763430e347d1e152823d646c700442a4db84aa",
            "0x000000000000000000000000af0f6e8b0dc5c913bbf4d14c22b4e78dd14310b6"
          ],
          "data": "0x000000000000000000000000000000000000000000000000000000046dc5dd6d",
          "blockHash": "0x4d2cfe89bfeb3b07bdc1c681e606543cb1dd674cfc719332bec300ec2b4d1abe",
          "blockNumber": "0x46500f",
          "transactionHash": "0xc4cdb19ba70f3cb1cb46bcc79fa6c25fae832c31c48ffc626e68377be174cf87",
          "transactionIndex": "0x5",
          "logIndex": "0x8f",
          "removed": false
        },
        {
          "address": "0xaA8E23Fb1079EA71e0a56F48a2aA51851D8433D0",
          "topics": [
            "0x8c5be1e5ebec7d5bd14f71427d1e84f3dd0314c0f7b2291e5b200ac8c7c3b925",
            "0x0000000000000000000000006a763430e347d1e152823d646c700442a4db84aa",
            "0x0000000000000000000000006ae43d3271ff6888e7fc43fd7321a503ff738951"
          ],
          "data": "0xfffffffffffffffffffffffffffffffffffffffffffffffffffffffb923a2292",
          "blockHash": "0x4d2cfe89bfeb3b07bdc1c681e606543cb1dd674cfc719332bec300ec2b4d1abe",
          "blockNumber": "0x46500f",
          "transactionHash": "0xc4cdb19ba70f3cb1cb46bcc79fa6c25fae832c31c48ffc626e68377be174cf87",
          "transactionIndex": "0x5",
          "logIndex": "0x90",
          "removed": false
        },
        {
          "address": "0x6Ae43d3271ff6888e7Fc43Fd7321a503ff738951",
          "topics": [
            "0xefefaba5e921573100900a3ad9cf29f222d995fb3b6045797eaea7521bd8d6f0",
            "0x0000000000000000000000006a763430e347d1e152823d646c700442a4db84aa",
            "0x000000000000000000000000aa8e23fb1079ea71e0a56f48a2aa51851d8433d0",
            "0x0000000000000000000000000000000000000000000000000000000000000000"
          ],
          "data": "0x0000000000000000000000006a763430e347d1e152823d646c700442a4db84aa000000000000000000000000000000000000000000000000000000046d34d08600000000000000000000000000000000000000000000000000000000000000000000000000000000000000000000000000000000000000000000000000910ce7",
          "blockHash": "0x4d2cfe89bfeb3b07bdc1c681e606543cb1dd674cfc719332bec300ec2b4d1abe",
          "blockNumber": "0x46500f",
          "transactionHash": "0xc4cdb19ba70f3cb1cb46bcc79fa6c25fae832c31c48ffc626e68377be174cf87",
          "transactionIndex": "0x5",
          "logIndex": "0x91",
          "removed": false
        },
        {
          "address": "0x6Ae43d3271ff6888e7Fc43Fd7321a503ff738951",
          "topics": [
            "0x804c9b842b2748a22bb64b345453a3de7ca54a6ca45ce00d415894979e22897a",
            "0x000000000000000000000000aa8e23fb1079ea71e0a56f48a2aa51851d8433d0"
          ],
          "data": "0x0000000000000000000000000000000000000000000003953bba8419497a660e00000000000000000000000000000000000000000029614aedd5b064dd5b365f000000000000000000000000000000000000000000002b0bfb8d4fdb5ad9b2f600000000000000000000000000000000000000000342ac4067f3d35bd03efe2d00000000000000000000000000000000000000000345056456461d33f8a9fe25",
          "blockHash": "0x4d2cfe89bfeb3b07bdc1c681e606543cb1dd674cfc719332bec300ec2b4d1abe",
          "blockNumber": "0x46500f",
          "transactionHash": "0xc4cdb19ba70f3cb1cb46bcc79fa6c25fae832c31c48ffc626e68377be174cf87",
          "transactionIndex": "0x5",
          "logIndex": "0x92",
          "removed": false
        },
        {
          "address": "0xaA8E23Fb1079EA71e0a56F48a2aA51851D8433D0",
          "topics": [
            "0xddf252ad1be2c89b69c2b068fc378daa952ba7f163c4a11628f55a4df523b3ef",
            "0x0000000000000000000000006a763430e347d1e152823d646c700442a4db84aa",
            "0x000000000000000000000000af0f6e8b0dc5c913bbf4d14c22b4e78dd14310b6"
          ],
          "data": "0x000000000000000000000000000000000000000000000000000000000098d50e",
          "blockHash": "0x4d2cfe89bfeb3b07bdc1c681e606543cb1dd674cfc719332bec300ec2b4d1abe",
          "blockNumber": "0x46500f",
          "transactionHash": "0xc4cdb19ba70f3cb1cb46bcc79fa6c25fae832c31c48ffc626e68377be174cf87",
          "transactionIndex": "0x5",
          "logIndex": "0x93",
          "removed": false
        },
        {
          "address": "0xaA8E23Fb1079EA71e0a56F48a2aA51851D8433D0",
          "topics": [
            "0x8c5be1e5ebec7d5bd14f71427d1e84f3dd0314c0f7b2291e5b200ac8c7c3b925",
            "0x0000000000000000000000006a763430e347d1e152823d646c700442a4db84aa",
            "0x0000000000000000000000006ae43d3271ff6888e7fc43fd7321a503ff738951"
          ],
          "data": "0xfffffffffffffffffffffffffffffffffffffffffffffffffffffffb91a14d84",
          "blockHash": "0x4d2cfe89bfeb3b07bdc1c681e606543cb1dd674cfc719332bec300ec2b4d1abe",
          "blockNumber": "0x46500f",
          "transactionHash": "0xc4cdb19ba70f3cb1cb46bcc79fa6c25fae832c31c48ffc626e68377be174cf87",
          "transactionIndex": "0x5",
          "logIndex": "0x94",
          "removed": false
        },
        {
          "address": "0x6Ae43d3271ff6888e7Fc43Fd7321a503ff738951",
          "topics": [
            "0xefefaba5e921573100900a3ad9cf29f222d995fb3b6045797eaea7521bd8d6f0",
            "0x0000000000000000000000006a763430e347d1e152823d646c700442a4db84aa",
            "0x000000000000000000000000aa8e23fb1079ea71e0a56f48a2aa51851d8433d0",
            "0x0000000000000000000000000000000000000000000000000000000000000000"
          ],
          "data": "0x0000000000000000000000006a763430e347d1e152823d646c700442a4db84aa000000000000000000000000000000000000000000000000000000000098c1800000000000000000000000000000000000000000000000000000000000000000000000000000000000000000000000000000000000000000000000000000138e",
          "blockHash": "0x4d2cfe89bfeb3b07bdc1c681e606543cb1dd674cfc719332bec300ec2b4d1abe",
          "blockNumber": "0x46500f",
          "transactionHash": "0xc4cdb19ba70f3cb1cb46bcc79fa6c25fae832c31c48ffc626e68377be174cf87",
          "transactionIndex": "0x5",
          "logIndex": "0x95",
          "removed": false
        },
        {
          "address": "0x6Ae43d3271ff6888e7Fc43Fd7321a503ff738951",
          "topics": [
            "0x804c9b842b2748a22bb64b345453a3de7ca54a6ca45ce00d415894979e22897a",
            "0x0000000000000000000000006d906e526a4e2ca02097ba9d0caa3c382f52278e"
          ],
          "data": "0x0000000000000000000000000000000000000000014b7652137be171340b52d90000000000000000000000000000000000000000018c2c13a794999f48cefd580000000000000000000000000000000000000000017fc3b4067697b2d9cefd580000000000000000000000000000000000000000034b268a5d610d71a92f1cc60000000000000000000000000000000000000000034e851ee9d034206a3c2690",
          "blockHash": "0x4d2cfe89bfeb3b07bdc1c681e606543cb1dd674cfc719332bec300ec2b4d1abe",
          "blockNumber": "0x46500f",
          "transactionHash": "0xc4cdb19ba70f3cb1cb46bcc79fa6c25fae832c31c48ffc626e68377be174cf87",
          "transactionIndex": "0x5",
          "logIndex": "0x96",
          "removed": false
        },
        {
          "address": "0x6d906e526a4e2Ca02097BA9d0caA3c382F52278E",
          "topics": [
            "0xddf252ad1be2c89b69c2b068fc378daa952ba7f163c4a11628f55a4df523b3ef",
            "0x0000000000000000000000006a763430e347d1e152823d646c700442a4db84aa",
            "0x000000000000000000000000b20691021f9aced8631edaa3c0cd2949eb45662d"
          ],
          "data": "0x00000000000000000000000000000000000000000000000000000000000000c9",
          "blockHash": "0x4d2cfe89bfeb3b07bdc1c681e606543cb1dd674cfc719332bec300ec2b4d1abe",
          "blockNumber": "0x46500f",
          "transactionHash": "0xc4cdb19ba70f3cb1cb46bcc79fa6c25fae832c31c48ffc626e68377be174cf87",
          "transactionIndex": "0x5",
          "logIndex": "0x97",
          "removed": false
        },
        {
          "address": "0x6d906e526a4e2Ca02097BA9d0caA3c382F52278E",
          "topics": [
            "0x8c5be1e5ebec7d5bd14f71427d1e84f3dd0314c0f7b2291e5b200ac8c7c3b925",
            "0x0000000000000000000000006a763430e347d1e152823d646c700442a4db84aa",
            "0x0000000000000000000000006ae43d3271ff6888e7fc43fd7321a503ff738951"
          ],
          "data": "0xffffffffffffffffffffffffffffffffffffffffffffffffffffffffffffff36",
          "blockHash": "0x4d2cfe89bfeb3b07bdc1c681e606543cb1dd674cfc719332bec300ec2b4d1abe",
          "blockNumber": "0x46500f",
          "transactionHash": "0xc4cdb19ba70f3cb1cb46bcc79fa6c25fae832c31c48ffc626e68377be174cf87",
          "transactionIndex": "0x5",
          "logIndex": "0x98",
          "removed": false
        },
        {
          "address": "0x6Ae43d3271ff6888e7Fc43Fd7321a503ff738951",
          "topics": [
            "0xefefaba5e921573100900a3ad9cf29f222d995fb3b6045797eaea7521bd8d6f0",
            "0x0000000000000000000000006a763430e347d1e152823d646c700442a4db84aa",
            "0x0000000000000000000000006d906e526a4e2ca02097ba9d0caa3c382f52278e",
            "0x0000000000000000000000000000000000000000000000000000000000000000"
          ],
          "data": "0x0000000000000000000000006a763430e347d1e152823d646c700442a4db84aa00000000000000000000000000000000000000000000000000000000000000c900000000000000000000000000000000000000000000000000000000000000000000000000000000000000000000000000000000000000000000000000000000",
          "blockHash": "0x4d2cfe89bfeb3b07bdc1c681e606543cb1dd674cfc719332bec300ec2b4d1abe",
          "blockNumber": "0x46500f",
          "transactionHash": "0xc4cdb19ba70f3cb1cb46bcc79fa6c25fae832c31c48ffc626e68377be174cf87",
          "transactionIndex": "0x5",
          "logIndex": "0x99",
          "removed": false
        },
        {
          "address": "0x6Ae43d3271ff6888e7Fc43Fd7321a503ff738951",
          "topics": [
            "0x804c9b842b2748a22bb64b345453a3de7ca54a6ca45ce00d415894979e22897a",
            "0x0000000000000000000000006d906e526a4e2ca02097ba9d0caa3c382f52278e"
          ],
          "data": "0x0000000000000000000000000000000000000000014b73f08ee249a0156fc8f50000000000000000000000000000000000000000018c29852272200a746c777a0000000000000000000000000000000000000000017fc12581541e1e056c777a0000000000000000000000000000000000000000034b268a5d610d71a92f1cc60000000000000000000000000000000000000000034e851ee9d034206a3c2690",
          "blockHash": "0x4d2cfe89bfeb3b07bdc1c681e606543cb1dd674cfc719332bec300ec2b4d1abe",
          "blockNumber": "0x46500f",
          "transactionHash": "0xc4cdb19ba70f3cb1cb46bcc79fa6c25fae832c31c48ffc626e68377be174cf87",
          "transactionIndex": "0x5",
          "logIndex": "0x9a",
          "removed": false
        },
        {
          "address": "0x6d906e526a4e2Ca02097BA9d0caA3c382F52278E",
          "topics": [
            "0xddf252ad1be2c89b69c2b068fc378daa952ba7f163c4a11628f55a4df523b3ef",
            "0x0000000000000000000000006a763430e347d1e152823d646c700442a4db84aa",
            "0x000000000000000000000000b20691021f9aced8631edaa3c0cd2949eb45662d"
          ],
          "data": "0x00000000000000000000000000000000000000000000000000000000000002bd",
          "blockHash": "0x4d2cfe89bfeb3b07bdc1c681e606543cb1dd674cfc719332bec300ec2b4d1abe",
          "blockNumber": "0x46500f",
          "transactionHash": "0xc4cdb19ba70f3cb1cb46bcc79fa6c25fae832c31c48ffc626e68377be174cf87",
          "transactionIndex": "0x5",
          "logIndex": "0x9b",
          "removed": false
        },
        {
          "address": "0x6d906e526a4e2Ca02097BA9d0caA3c382F52278E",
          "topics": [
            "0x8c5be1e5ebec7d5bd14f71427d1e84f3dd0314c0f7b2291e5b200ac8c7c3b925",
            "0x0000000000000000000000006a763430e347d1e152823d646c700442a4db84aa",
            "0x0000000000000000000000006ae43d3271ff6888e7fc43fd7321a503ff738951"
          ],
          "data": "0xfffffffffffffffffffffffffffffffffffffffffffffffffffffffffffffc79",
          "blockHash": "0x4d2cfe89bfeb3b07bdc1c681e606543cb1dd674cfc719332bec300ec2b4d1abe",
          "blockNumber": "0x46500f",
          "transactionHash": "0xc4cdb19ba70f3cb1cb46bcc79fa6c25fae832c31c48ffc626e68377be174cf87",
          "transactionIndex": "0x5",
          "logIndex": "0x9c",
          "removed": false
        },
        {
          "address": "0x6Ae43d3271ff6888e7Fc43Fd7321a503ff738951",
          "topics": [
            "0xefefaba5e921573100900a3ad9cf29f222d995fb3b6045797eaea7521bd8d6f0",
            "0x0000000000000000000000006a763430e347d1e152823d646c700442a4db84aa",
            "0x0000000000000000000000006d906e526a4e2ca02097ba9d0caa3c382f52278e",
            "0x0000000000000000000000000000000000000000000000000000000000000000"
          ],
          "data": "0x0000000000000000000000006a763430e347d1e152823d646c700442a4db84aa00000000000000000000000000000000000000000000000000000000000002bd00000000000000000000000000000000000000000000000000000000000000000000000000000000000000000000000000000000000000000000000000000000",
          "blockHash": "0x4d2cfe89bfeb3b07bdc1c681e606543cb1dd674cfc719332bec300ec2b4d1abe",
          "blockNumber": "0x46500f",
          "transactionHash": "0xc4cdb19ba70f3cb1cb46bcc79fa6c25fae832c31c48ffc626e68377be174cf87",
          "transactionIndex": "0x5",
          "logIndex": "0x9d",
          "removed": false
        }
      ],
      "status": "0x1",
      "logsBloom": "0x101208000800084006800002000068000000000000408000020004000000008100000080400000000000400000040020000500004020000200000000002000000000000000010080c0002008080000000000000000000000000000040000300004000000020020000010001080200c00004204000040000008000011401000002000008081040000005000000000000000200000080000000000000000002000020000000080424000000084800000000010308c40104000020006000102010002008042000011100000002040080300004280100000040100000001000020040010500408800020000080004001000100010000000801000000002001050000",
      "type": "0x2",
      "effectiveGasPrice": "0x2e8f47499"
    }
  ],
  "libraries": [],
  "pending": [],
  "returns": {},
  "timestamp": 1698843522,
  "chain": 11155111,
  "multi": false,
  "commit": "0d3f206"
}