{
  "transactions": [
    {
      "hash": "0x7aea69c16354a7b7b33ca22bb10e917c764a439b048014859a9383b489a9da12",
      "transactionType": "CALL",
      "contractName": "InitializableImmutableAdminUpgradeabilityProxy",
      "contractAddress": "0x22675C506A8FC26447aFFfa33640f6af5d4D4cF0",
      "function": "approveDelegation(address,uint256)",
      "arguments": [
        "0x557150d167cA1259856CF1e4E327108B16543098",
        "29165147352945050851367"
      ],
      "transaction": {
        "type": "0x02",
        "from": "0x3e122a3db43d225dd5bffd929ad4176ce69117e0",
        "to": "0x22675c506a8fc26447afffa33640f6af5d4d4cf0",
        "gas": "0x121d8",
        "value": "0x0",
        "data": "0xc04a8a10000000000000000000000000557150d167ca1259856cf1e4e327108b1654309800000000000000000000000000000000000000000000062d0bb9f1ee25f11827",
        "nonce": "0xca",
        "accessList": []
      },
      "additionalContracts": [],
      "isFixedGasLimit": false
    },
    {
      "hash": "0x9e2d789633f31b6dc680abb25093af1466c79680ce554181025110ab698892c0",
      "transactionType": "CALL",
      "contractName": "InitializableImmutableAdminUpgradeabilityProxy",
      "contractAddress": "0xbEF786E742edB13361ff2f005b901A82c23AA491",
      "function": "approveDelegation(address,uint256)",
      "arguments": [
        "0x557150d167cA1259856CF1e4E327108B16543098",
        "20401860396510023658"
      ],
      "transaction": {
        "type": "0x02",
        "from": "0x3e122a3db43d225dd5bffd929ad4176ce69117e0",
        "to": "0xbef786e742edb13361ff2f005b901a82c23aa491",
        "gas": "0x121a9",
        "value": "0x0",
        "data": "0xc04a8a10000000000000000000000000557150d167ca1259856cf1e4e327108b165430980000000000000000000000000000000000000000000000011b21f7efdb170fea",
        "nonce": "0xcb",
        "accessList": []
      },
      "additionalContracts": [],
      "isFixedGasLimit": false
    },
    {
      "hash": "0xd7b02976ef826c2a75c626f14dc5aa2e49df216839536b7846e85e3195c8940d",
      "transactionType": "CALL",
      "contractName": "InitializableImmutableAdminUpgradeabilityProxy",
      "contractAddress": "0x34a4d932E722b9dFb492B9D8131127690CE2430B",
      "function": "approveDelegation(address,uint256)",
      "arguments": [
        "0x557150d167cA1259856CF1e4E327108B16543098",
        "71509735797242"
      ],
      "transaction": {
        "type": "0x02",
        "from": "0x3e122a3db43d225dd5bffd929ad4176ce69117e0",
        "to": "0x34a4d932e722b9dfb492b9d8131127690ce2430b",
        "gas": "0x12195",
        "value": "0x0",
        "data": "0xc04a8a10000000000000000000000000557150d167ca1259856cf1e4e327108b1654309800000000000000000000000000000000000000000000000000004109a86671fa",
        "nonce": "0xcc",
        "accessList": []
      },
      "additionalContracts": [],
      "isFixedGasLimit": false
    },
    {
      "hash": "0x9b703afdd3db3e2c2a74e9861f97268113996ef0d4eb174b38d1a2940c0662cb",
      "transactionType": "CALL",
      "contractName": "InitializableImmutableAdminUpgradeabilityProxy",
      "contractAddress": "0x9844386d29EEd970B9F6a2B9a676083b0478210e",
      "function": "approveDelegation(address,uint256)",
      "arguments": [
        "0x557150d167cA1259856CF1e4E327108B16543098",
        "19669681920"
      ],
      "transaction": {
        "type": "0x02",
        "from": "0x3e122a3db43d225dd5bffd929ad4176ce69117e0",
        "to": "0x9844386d29eed970b9f6a2b9a676083b0478210e",
        "gas": "0x12175",
        "value": "0x0",
        "data": "0xc04a8a10000000000000000000000000557150d167ca1259856cf1e4e327108b165430980000000000000000000000000000000000000000000000000000000494678700",
        "nonce": "0xcd",
        "accessList": []
      },
      "additionalContracts": [],
      "isFixedGasLimit": false
    },
    {
      "hash": "0x56cce67166351ca57a06bd338c9032671175352d01c85eea1eb8687c3f4e5ebf",
      "transactionType": "CALL",
      "contractName": "InitializableImmutableAdminUpgradeabilityProxy",
      "contractAddress": "0xEAF54fA3b1C7243033C2893c6B807f9cEaBCf0AF",
      "function": "approveDelegation(address,uint256)",
      "arguments": [
        "0x557150d167cA1259856CF1e4E327108B16543098",
        "10200937"
      ],
      "transaction": {
        "type": "0x02",
        "from": "0x3e122a3db43d225dd5bffd929ad4176ce69117e0",
        "to": "0xeaf54fa3b1c7243033c2893c6b807f9ceabcf0af",
        "gas": "0x12145",
        "value": "0x0",
        "data": "0xc04a8a10000000000000000000000000557150d167ca1259856cf1e4e327108b1654309800000000000000000000000000000000000000000000000000000000009ba769",
        "nonce": "0xce",
        "accessList": []
      },
      "additionalContracts": [],
      "isFixedGasLimit": false
    },
    {
      "hash": "0xce3c8d5d04fae3bb31499d891e89e09de5994aedc044f261cadf446e25f56e21",
      "transactionType": "CALL",
      "contractName": "InitializableImmutableAdminUpgradeabilityProxy",
      "contractAddress": "0x94482C7A7477196259D8a0f74fB853277Fa5a75b",
      "function": "approveDelegation(address,uint256)",
      "arguments": [
        "0x557150d167cA1259856CF1e4E327108B16543098",
        "205"
      ],
      "transaction": {
        "type": "0x02",
        "from": "0x3e122a3db43d225dd5bffd929ad4176ce69117e0",
        "to": "0x94482c7a7477196259d8a0f74fb853277fa5a75b",
        "gas": "0x12142",
        "value": "0x0",
        "data": "0xc04a8a10000000000000000000000000557150d167ca1259856cf1e4e327108b1654309800000000000000000000000000000000000000000000000000000000000000cd",
        "nonce": "0xcf",
        "accessList": []
      },
      "additionalContracts": [],
      "isFixedGasLimit": false
    },
    {
      "hash": "0x28b39affca1340d34c2faf4ad0249b8426f3536ea214ca53d563779e364f5647",
      "transactionType": "CALL",
      "contractName": "InitializableImmutableAdminUpgradeabilityProxy",
      "contractAddress": "0x08878209484D8178DD1FFA50AB1689F21aDBB856",
      "function": "approveDelegation(address,uint256)",
      "arguments": [
        "0x557150d167cA1259856CF1e4E327108B16543098",
        "715"
      ],
      "transaction": {
        "type": "0x02",
        "from": "0x3e122a3db43d225dd5bffd929ad4176ce69117e0",
        "to": "0x08878209484d8178dd1ffa50ab1689f21adbb856",
        "gas": "0x13238",
        "value": "0x0",
        "data": "0xc04a8a10000000000000000000000000557150d167ca1259856cf1e4e327108b1654309800000000000000000000000000000000000000000000000000000000000002cb",
        "nonce": "0xd0",
        "accessList": []
      },
      "additionalContracts": [],
      "isFixedGasLimit": false
    },
    {
      "hash": "0xe1d6e5e0a1f578ae8ddadda50f70c312e9f349719cced9e76a41666313b72fe1",
      "transactionType": "CALL",
      "contractName": "InitializableImmutableAdminUpgradeabilityProxy",
      "contractAddress": "0x3FfAf50D4F4E96eB78f2407c090b72e86eCaed24",
      "function": "approve(address,uint256):(bool)",
      "arguments": [
        "0x557150d167cA1259856CF1e4E327108B16543098",
        "1044564978798560385577"
      ],
      "transaction": {
        "type": "0x02",
        "from": "0xc5e0b6e472dde70eceffa4c568bd52f2a7a1632a",
        "to": "0x3ffaf50d4f4e96eb78f2407c090b72e86ecaed24",
        "gas": "0x1148c",
        "value": "0x0",
        "data": "0x095ea7b3000000000000000000000000557150d167ca1259856cf1e4e327108b16543098000000000000000000000000000000000000000000000038a04049dff5a19a29",
        "nonce": "0x92",
        "accessList": []
      },
      "additionalContracts": [],
      "isFixedGasLimit": false
    },
    {
      "hash": "0x6302a9473ae34785890c4977d683dd39ffa4561185d0edab8c9d81b3ee0cf5b7",
      "transactionType": "CALL",
      "contractName": "InitializableImmutableAdminUpgradeabilityProxy",
      "contractAddress": "0x16dA4541aD1807f4443d92D26044C1147406EB80",
      "function": "approve(address,uint256):(bool)",
      "arguments": [
        "0x557150d167cA1259856CF1e4E327108B16543098",
        "1017518198"
      ],
      "transaction": {
        "type": "0x02",
        "from": "0xc5e0b6e472dde70eceffa4c568bd52f2a7a1632a",
        "to": "0x16da4541ad1807f4443d92d26044c1147406eb80",
        "gas": "0x11439",
        "value": "0x0",
        "data": "0x095ea7b3000000000000000000000000557150d167ca1259856cf1e4e327108b16543098000000000000000000000000000000000000000000000000000000003ca61876",
        "nonce": "0x93",
        "accessList": []
      },
      "additionalContracts": [],
      "isFixedGasLimit": false
    },
    {
      "hash": "0xf0cae3e55421ba292784a5603fe7f9ac8884998daf3b61bdc340fd504abd862e",
      "transactionType": "CALL",
      "contractName": "InitializableImmutableAdminUpgradeabilityProxy",
      "contractAddress": "0x1804Bf30507dc2EB3bDEbbbdd859991EAeF6EefF",
      "function": "approve(address,uint256):(bool)",
      "arguments": [
        "0x557150d167cA1259856CF1e4E327108B16543098",
        "100000001"
      ],
      "transaction": {
        "type": "0x02",
        "from": "0xc5e0b6e472dde70eceffa4c568bd52f2a7a1632a",
        "to": "0x1804bf30507dc2eb3bdebbbdd859991eaef6eeff",
        "gas": "0x11439",
        "value": "0x0",
        "data": "0x095ea7b3000000000000000000000000557150d167ca1259856cf1e4e327108b165430980000000000000000000000000000000000000000000000000000000005f5e101",
        "nonce": "0x94",
        "accessList": []
      },
      "additionalContracts": [],
      "isFixedGasLimit": false
    },
    {
      "hash": "0x928d39807468d412d3aca7748d5102223da85442c41f112ed64735b25ab636c4",
      "transactionType": "CALL",
      "contractName": "InitializableImmutableAdminUpgradeabilityProxy",
      "contractAddress": "0xAF0F6e8b0Dc5c913bbF4d14c22B4E78Dd14310B6",
      "function": "approve(address,uint256):(bool)",
      "arguments": [
        "0x557150d167cA1259856CF1e4E327108B16543098",
        "2015913"
      ],
      "transaction": {
        "type": "0x02",
        "from": "0xc5e0b6e472dde70eceffa4c568bd52f2a7a1632a",
        "to": "0xaf0f6e8b0dc5c913bbf4d14c22b4e78dd14310b6",
        "gas": "0x11429",
        "value": "0x0",
        "data": "0x095ea7b3000000000000000000000000557150d167ca1259856cf1e4e327108b1654309800000000000000000000000000000000000000000000000000000000001ec2a9",
        "nonce": "0x95",
        "accessList": []
      },
      "additionalContracts": [],
      "isFixedGasLimit": false
    },
    {
      "hash": "0xceb24c9308a552ff10d9d6926c59bce3e7d196ea2289ce943e3232772bd86a50",
      "transactionType": "CALL",
      "contractName": "InitializableImmutableAdminUpgradeabilityProxy",
      "contractAddress": "0x6b8558764d3b7572136F17174Cb9aB1DDc7E1259",
      "function": "approve(address,uint256):(bool)",
      "arguments": [
        "0x557150d167cA1259856CF1e4E327108B16543098",
        "100000000000000000000"
      ],
      "transaction": {
        "type": "0x02",
        "from": "0xc5e0b6e472dde70eceffa4c568bd52f2a7a1632a",
        "to": "0x6b8558764d3b7572136f17174cb9ab1ddc7e1259",
        "gas": "0x1146c",
        "value": "0x0",
        "data": "0x095ea7b3000000000000000000000000557150d167ca1259856cf1e4e327108b165430980000000000000000000000000000000000000000000000056bc75e2d63100000",
        "nonce": "0x96",
        "accessList": []
      },
      "additionalContracts": [],
      "isFixedGasLimit": false
    },
    {
      "hash": "0x77d260babcbad6abb83c37a97e884f3ff994cabc7a2ef6f626114983546bc3e4",
      "transactionType": "CALL",
      "contractName": "TeleportAaveV3",
      "contractAddress": "0x557150d167cA1259856CF1e4E327108B16543098",
      "function": "moveAavePositionToAnotherWallet(address,address,address[],uint256[],uint256[],uint256[],address[],uint256[])",
      "arguments": [
        "0xC5e0B6E472dDE70eCEfFa4c568Bd52f2A7a1632A",
        "0x3e122A3dB43d225DD5BFFD929AD4176ce69117E0",
        "[0xFF34B3d4Aee8ddCd6F9AFFFB6Fe49bD371b8a357, 0xFF34B3d4Aee8ddCd6F9AFFFB6Fe49bD371b8a357, 0xf8Fb3713D459D7C1018BD0A49D19b4C44290EBE5, 0xaA8E23Fb1079EA71e0a56F48a2aA51851D8433D0, 0xaA8E23Fb1079EA71e0a56F48a2aA51851D8433D0, 0x6d906e526a4e2Ca02097BA9d0caA3c382F52278E, 0x6d906e526a4e2Ca02097BA9d0caA3c382F52278E]",
        "[28593281718573579266047, 20001823918147082018, 70107584114944, 19284001883, 10000919, 201, 701]",
        "[2, 1, 2, 2, 1, 2, 1]",
        "[0, 0, 0, 0, 0, 0, 0]",
        "[0x3FfAf50D4F4E96eB78f2407c090b72e86eCaed24, 0x16dA4541aD1807f4443d92D26044C1147406EB80, 0x1804Bf30507dc2EB3bDEbbbdd859991EAeF6EefF, 0xAF0F6e8b0Dc5c913bbF4d14c22B4E78Dd14310B6, 0x6b8558764d3b7572136F17174Cb9aB1DDc7E1259]",
        "[1044564978798560385577, 1017518198, 100000001, 2015913, 100000000000000000000]"
      ],
      "transaction": {
        "type": "0x02",
        "from": "0xc5e0b6e472dde70eceffa4c568bd52f2a7a1632a",
        "to": "0x557150d167ca1259856cf1e4e327108b16543098",
        "gas": "0x39458e",
        "value": "0x0",
        "data": "0xab745c4a000000000000000000000000c5e0b6e472dde70eceffa4c568bd52f2a7a1632a0000000000000000000000003e122a3db43d225dd5bffd929ad4176ce69117e00000000000000000000000000000000000000000000000000000000000000100000000000000000000000000000000000000000000000000000000000000020000000000000000000000000000000000000000000000000000000000000003000000000000000000000000000000000000000000000000000000000000000400000000000000000000000000000000000000000000000000000000000000050000000000000000000000000000000000000000000000000000000000000005c00000000000000000000000000000000000000000000000000000000000000007000000000000000000000000ff34b3d4aee8ddcd6f9afffb6fe49bd371b8a357000000000000000000000000ff34b3d4aee8ddcd6f9afffb6fe49bd371b8a357000000000000000000000000f8fb3713d459d7c1018bd0a49d19b4c44290ebe5000000000000000000000000aa8e23fb1079ea71e0a56f48a2aa51851d8433d0000000000000000000000000aa8e23fb1079ea71e0a56f48a2aa51851d8433d00000000000000000000000006d906e526a4e2ca02097ba9d0caa3c382f52278e0000000000000000000000006d906e526a4e2ca02097ba9d0caa3c382f52278e000000000000000000000000000000000000000000000000000000000000000700000000000000000000000000000000000000000000060e0b7f1557e8f667ff0000000000000000000000000000000000000000000000011594c0e11d11972200000000000000000000000000000000000000000000000000003fc331a5b100000000000000000000000000000000000000000000000000000000047d6a845b0000000000000000000000000000000000000000000000000000000000989a1700000000000000000000000000000000000000000000000000000000000000c900000000000000000000000000000000000000000000000000000000000002bd000000000000000000000000000000000000000000000000000000000000000700000000000000000000000000000000000000000000000000000000000000020000000000000000000000000000000000000000000000000000000000000001000000000000000000000000000000000000000000000000000000000000000200000000000000000000000000000000000000000000000000000000000000020000000000000000000000000000000000000000000000000000000000000001000000000000000000000000000000000000000000000000000000000000000200000000000000000000000000000000000000000000000000000000000000010000000000000000000000000000000000000000000000000000000000000007000000000000000000000000000000000000000000000000000000000000000000000000000000000000000000000000000000000000000000000000000000000000000000000000000000000000000000000000000000000000000000000000000000000000000000000000000000000000000000000000000000000000000000000000000000000000000000000000000000000000000000000000000000000000000000000000000000000000000000000000000000000000000000000000000000000000000000000000000000000000000000000000000000000000000000000000000000000000000000000000000000000000000000000000000000050000000000000000000000003ffaf50d4f4e96eb78f2407c090b72e86ecaed2400000000000000000000000016da4541ad1807f4443d92d26044c1147406eb800000000000000000000000001804bf30507dc2eb3bdebbbdd859991eaef6eeff000000000000000000000000af0f6e8b0dc5c913bbf4d14c22b4e78dd14310b60000000000000000000000006b8558764d3b7572136f17174cb9ab1ddc7e12590000000000000000000000000000000000000000000000000000000000000005000000000000000000000000000000000000000000000038a04049dff5a19a29000000000000000000000000000000000000000000000000000000003ca618760000000000000000000000000000000000000000000000000000000005f5e10100000000000000000000000000000000000000000000000000000000001ec2a90000000000000000000000000000000000000000000000056bc75e2d63100000",
        "nonce": "0x97",
        "accessList": []
      },
      "additionalContracts": [],
      "isFixedGasLimit": false
    }
  ],
  "receipts": [
    {
      "transactionHash": "0x7aea69c16354a7b7b33ca22bb10e917c764a439b048014859a9383b489a9da12",
      "transactionIndex": "0x31",
      "blockHash": "0x6e451137a7a45e3c4144816abdc803a7a26a6d4f71c7d9e5601b7b85fc210a32",
      "blockNumber": "0x464e3c",
      "from": "0x3e122A3dB43d225DD5BFFD929AD4176ce69117E0",
      "to": "0x22675C506A8FC26447aFFfa33640f6af5d4D4cF0",
      "cumulativeGasUsed": "0x2a708a",
      "gasUsed": "0xd1d8",
      "contractAddress": null,
      "logs": [
        {
          "address": "0x22675C506A8FC26447aFFfa33640f6af5d4D4cF0",
          "topics": [
            "0xda919360433220e13b51e8c211e490d148e61a3bd53de8c097194e458b97f3e1",
            "0x0000000000000000000000003e122a3db43d225dd5bffd929ad4176ce69117e0",
            "0x000000000000000000000000557150d167ca1259856cf1e4e327108b16543098",
            "0x000000000000000000000000ff34b3d4aee8ddcd6f9afffb6fe49bd371b8a357"
          ],
          "data": "0x00000000000000000000000000000000000000000000062d0bb9f1ee25f11827",
          "blockHash": "0x6e451137a7a45e3c4144816abdc803a7a26a6d4f71c7d9e5601b7b85fc210a32",
          "blockNumber": "0x464e3c",
          "transactionHash": "0x7aea69c16354a7b7b33ca22bb10e917c764a439b048014859a9383b489a9da12",
          "transactionIndex": "0x31",
          "logIndex": "0x6",
          "removed": false
        }
      ],
      "status": "0x1",
      "logsBloom": "0x00000000080000000000000000010000000000000000800000000000000000000000000000000000000000000000000000000000000000000000000000000000000000000000000000000000000000000000000000000000000000000000100000000000000000000010000000000000000000000000000000000000000000000000000000040000000000000000000000000000000000000000000000002000000000000000004000000080800000000000000000000000000000000002000000000000000110000000000008000000000000000000000000000000000000000000000000000000000000000000000100000000000000000000000000000000",
      "type": "0x2",
      "effectiveGasPrice": "0xa3b048a93"
    },
    {
      "transactionHash": "0x9e2d789633f31b6dc680abb25093af1466c79680ce554181025110ab698892c0",
      "transactionIndex": "0x6",
      "blockHash": "0x68a03d8b6320bfdacd97605172fb6d121ab8c6711c2f605f112b1efb53fcef3f",
      "blockNumber": "0x464e3d",
      "from": "0x3e122A3dB43d225DD5BFFD929AD4176ce69117E0",
      "to": "0xbEF786E742edB13361ff2f005b901A82c23AA491",
      "cumulativeGasUsed": "0xe33f7",
      "gasUsed": "0xd1b6",
      "contractAddress": null,
      "logs": [
        {
          "address": "0xbEF786E742edB13361ff2f005b901A82c23AA491",
          "topics": [
            "0xda919360433220e13b51e8c211e490d148e61a3bd53de8c097194e458b97f3e1",
            "0x0000000000000000000000003e122a3db43d225dd5bffd929ad4176ce69117e0",
            "0x000000000000000000000000557150d167ca1259856cf1e4e327108b16543098",
            "0x000000000000000000000000ff34b3d4aee8ddcd6f9afffb6fe49bd371b8a357"
          ],
          "data": "0x0000000000000000000000000000000000000000000000011b21f7efdb170fea",
          "blockHash": "0x68a03d8b6320bfdacd97605172fb6d121ab8c6711c2f605f112b1efb53fcef3f",
          "blockNumber": "0x464e3d",
          "transactionHash": "0x9e2d789633f31b6dc680abb25093af1466c79680ce554181025110ab698892c0",
          "transactionIndex": "0x6",
          "logIndex": "0x1",
          "removed": false
        }
      ],
      "status": "0x1",
      "logsBloom": "0x00000000080000000000000000010000000000000000800000000000000000000000000000000000000040000000000000000000000000000000000000000000000000000000000000000000000000000000000000000000000000000000100000000000000000000000000000000000000000000000000000000000000000000000000000040000000000000000000000000000000000000000000000000000000000000000000000000084800000000000000000000000000000000002000000000000000110000000000008000000000000000000000000000000000000000000000000800000000000000000000100000000000000000000000000000000",
      "type": "0x2",
      "effectiveGasPrice": "0xafd0b40bb"
    },
    {
      "transactionHash": "0xd7b02976ef826c2a75c626f14dc5aa2e49df216839536b7846e85e3195c8940d",
      "transactionIndex": "0x4",
      "blockHash": "0x50cb64ca13356b40d71f17dfaf9221bbdabb1e31b7149bca2cde252547b12862",
      "blockNumber": "0x464e3e",
      "from": "0x3e122A3dB43d225DD5BFFD929AD4176ce69117E0",
      "to": "0x34a4d932E722b9dFb492B9D8131127690CE2430B",
      "cumulativeGasUsed": "0x25fb8",
      "gasUsed": "0xd1a8",
      "contractAddress": null,
      "logs": [
        {
          "address": "0x34a4d932E722b9dFb492B9D8131127690CE2430B",
          "topics": [
            "0xda919360433220e13b51e8c211e490d148e61a3bd53de8c097194e458b97f3e1",
            "0x0000000000000000000000003e122a3db43d225dd5bffd929ad4176ce69117e0",
            "0x000000000000000000000000557150d167ca1259856cf1e4e327108b16543098",
            "0x000000000000000000000000f8fb3713d459d7c1018bd0a49d19b4c44290ebe5"
          ],
          "data": "0x00000000000000000000000000000000000000000000000000004109a86671fa",
          "blockHash": "0x50cb64ca13356b40d71f17dfaf9221bbdabb1e31b7149bca2cde252547b12862",
          "blockNumber": "0x464e3e",
          "transactionHash": "0xd7b02976ef826c2a75c626f14dc5aa2e49df216839536b7846e85e3195c8940d",
          "transactionIndex": "0x4",
          "logIndex": "0x1",
          "removed": false
        }
      ],
      "status": "0x1",
      "logsBloom": "0x00020000080000000000000000010000000000000000000000000000000000000000000040000000000000000000000000000000000000000000000000000000000000000001000000000000000000000000000000000000000000000000100000000000000020000000000000000000000000000000000000000000000000000000000000040000000000000000000000000000000000000000000000000000000000000000020000000080800000000000000000000000000000000000000000000000000100000000000008000000004000000000000000000000000000000000000000000000000000000000000100000000000000000000000000000000",
      "type": "0x2",
      "effectiveGasPrice": "0xab6d0dcaa"
    },
    {
      "transactionHash": "0x9b703afdd3db3e2c2a74e9861f97268113996ef0d4eb174b38d1a2940c0662cb",
      "transactionIndex": "0x6",
      "blockHash": "0x8a23ef140a0d70f3534161e1b39a54f121a3146b443c4b02c301cf8cb28d9a0e",
      "blockNumber": "0x464e3f",
      "from": "0x3e122A3dB43d225DD5BFFD929AD4176ce69117E0",
      "to": "0x9844386d29EEd970B9F6a2B9a676083b0478210e",
      "cumulativeGasUsed": "0xd8602",
      "gasUsed": "0xd190",
      "contractAddress": null,
      "logs": [
        {
          "address": "0x9844386d29EEd970B9F6a2B9a676083b0478210e",
          "topics": [
            "0xda919360433220e13b51e8c211e490d148e61a3bd53de8c097194e458b97f3e1",
            "0x0000000000000000000000003e122a3db43d225dd5bffd929ad4176ce69117e0",
            "0x000000000000000000000000557150d167ca1259856cf1e4e327108b16543098",
            "0x000000000000000000000000aa8e23fb1079ea71e0a56f48a2aa51851d8433d0"
          ],
          "data": "0x0000000000000000000000000000000000000000000000000000000494678700",
          "blockHash": "0x8a23ef140a0d70f3534161e1b39a54f121a3146b443c4b02c301cf8cb28d9a0e",
          "blockNumber": "0x464e3f",
          "transactionHash": "0x9b703afdd3db3e2c2a74e9861f97268113996ef0d4eb174b38d1a2940c0662cb",
          "transactionIndex": "0x6",
          "logIndex": "0x1",
          "removed": false
        }
      ],
      "status": "0x1",
      "logsBloom": "0x00000000080000000000000000010000000000000000000000000000000000000000000000000000000000000000000000000000000000000000000000000000000000000000000000000000000000000000000000000000000000000000100000000000000000000000000080000000000000000000000000000000000000000000000000040000000000000000000000000000000000000000000000000000000000000000000000000080800000000000000000000000020004000000000000000000000100000000000008000000000200100000000000000000000000000000000000000000000000000000000100010000000000000000000000000000",
      "type": "0x2",
      "effectiveGasPrice": "0xb813d8984"
    },
    {
      "transactionHash": "0x56cce67166351ca57a06bd338c9032671175352d01c85eea1eb8687c3f4e5ebf",
      "transactionIndex": "0x39",
      "blockHash": "0xa687aa47657c528e34796b578f6847bcd01e060771c062a770c7421bf5e5b045",
      "blockNumber": "0x464e41",
      "from": "0x3e122A3dB43d225DD5BFFD929AD4176ce69117E0",
      "to": "0xEAF54fA3b1C7243033C2893c6B807f9cEaBCf0AF",
      "cumulativeGasUsed": "0x140368a",
      "gasUsed": "0xd16e",
      "contractAddress": null,
      "logs": [
        {
          "address": "0xEAF54fA3b1C7243033C2893c6B807f9cEaBCf0AF",
          "topics": [
            "0xda919360433220e13b51e8c211e490d148e61a3bd53de8c097194e458b97f3e1",
            "0x0000000000000000000000003e122a3db43d225dd5bffd929ad4176ce69117e0",
            "0x000000000000000000000000557150d167ca1259856cf1e4e327108b16543098",
            "0x000000000000000000000000aa8e23fb1079ea71e0a56f48a2aa51851d8433d0"
          ],
          "data": "0x00000000000000000000000000000000000000000000000000000000009ba769",
          "blockHash": "0xa687aa47657c528e34796b578f6847bcd01e060771c062a770c7421bf5e5b045",
          "blockNumber": "0x464e41",
          "transactionHash": "0x56cce67166351ca57a06bd338c9032671175352d01c85eea1eb8687c3f4e5ebf",
          "transactionIndex": "0x39",
          "logIndex": "0xaa",
          "removed": false
        }
      ],
      "status": "0x1",
      "logsBloom": "0x00000000080000000000000000010000000000000040000000000000000000000000000000000000000000000000000000000000000000000000000000000000000000000000000000000000000000000000000000000000000000000000100000000000000000000000000080000000000000000000000000000000000000000000000000040000000000000000000000000000000000000000000000000000000000000000000000000080800000000000000000000000000004000000000000000000000100000000000048000100000000000000000000000000000000000000000000000000000000000000000100010000000000000000000000000000",
      "type": "0x2",
      "effectiveGasPrice": "0xa4d0e3dff"
    },
    {
      "transactionHash": "0xce3c8d5d04fae3bb31499d891e89e09de5994aedc044f261cadf446e25f56e21",
      "transactionIndex": "0x4",
      "blockHash": "0x4a7782cb14e0a53c0a0086d2bd2b48c338ffe2168aca20b3902fe169b185a972",
      "blockNumber": "0x464e42",
      "from": "0x3e122A3dB43d225DD5BFFD929AD4176ce69117E0",
      "to": "0x94482C7A7477196259D8a0f74fB853277Fa5a75b",
      "cumulativeGasUsed": "0x12248c",
      "gasUsed": "0xd16c",
      "contractAddress": null,
      "logs": [
        {
          "address": "0x94482C7A7477196259D8a0f74fB853277Fa5a75b",
          "topics": [
            "0xda919360433220e13b51e8c211e490d148e61a3bd53de8c097194e458b97f3e1",
            "0x0000000000000000000000003e122a3db43d225dd5bffd929ad4176ce69117e0",
            "0x000000000000000000000000557150d167ca1259856cf1e4e327108b16543098",
            "0x0000000000000000000000006d906e526a4e2ca02097ba9d0caa3c382f52278e"
          ],
          "data": "0x00000000000000000000000000000000000000000000000000000000000000cd",
          "blockHash": "0x4a7782cb14e0a53c0a0086d2bd2b48c338ffe2168aca20b3902fe169b185a972",
          "blockNumber": "0x464e42",
          "transactionHash": "0xce3c8d5d04fae3bb31499d891e89e09de5994aedc044f261cadf446e25f56e21",
          "transactionIndex": "0x4",
          "logIndex": "0x8",
          "removed": false
        }
      ],
      "status": "0x1",
      "logsBloom": "0x00000000080000000400000000010000000000000000000000000000000000010000000000000000000000000000000000000000000000000000000000000000000000000000000000000000000000000000000000000000000000000000100000000000000000000000000000200000000000000040000000000000000000000000000000040000000000000000000000000000000000000000000000000000000000000080000000000080800000000000000000000000000000000000000000000040000100000000000008000000000000000000000000000000000000000000000000000000000000000000000100000000000000000000000000000000",
      "type": "0x2",
      "effectiveGasPrice": "0xb804dc18a"
    },
    {
      "transactionHash": "0x28b39affca1340d34c2faf4ad0249b8426f3536ea214ca53d563779e364f5647",
      "transactionIndex": "0x6",
      "blockHash": "0x72fbabdd5833ab6d1a11257f422f918eacf00846b838b0959e1593c8b2d2dbdd",
      "blockNumber": "0x464e43",
      "from": "0x3e122A3dB43d225DD5BFFD929AD4176ce69117E0",
      "to": "0x08878209484D8178DD1FFA50AB1689F21aDBB856",
      "cumulativeGasUsed": "0x180f02",
      "gasUsed": "0xd162",
      "contractAddress": null,
      "logs": [
        {
          "address": "0x08878209484D8178DD1FFA50AB1689F21aDBB856",
          "topics": [
            "0xda919360433220e13b51e8c211e490d148e61a3bd53de8c097194e458b97f3e1",
            "0x0000000000000000000000003e122a3db43d225dd5bffd929ad4176ce69117e0",
            "0x000000000000000000000000557150d167ca1259856cf1e4e327108b16543098",
            "0x0000000000000000000000006d906e526a4e2ca02097ba9d0caa3c382f52278e"
          ],
          "data": "0x00000000000000000000000000000000000000000000000000000000000002cb",
          "blockHash": "0x72fbabdd5833ab6d1a11257f422f918eacf00846b838b0959e1593c8b2d2dbdd",
          "blockNumber": "0x464e43",
          "transactionHash": "0x28b39affca1340d34c2faf4ad0249b8426f3536ea214ca53d563779e364f5647",
          "transactionIndex": "0x6",
          "logIndex": "0xd",
          "removed": false
        }
      ],
      "status": "0x1",
      "logsBloom": "0x00000000080000000000000000010000000000000000000000000000000000000000000000000000000000000000000000000000000000000000000000000000000000000000000000000000000000000000000000000000000000000000100000000000000000000000000000000000000000000040000000000000000000000000000000040000001000000000000000000000000000000000000000000000000000000080400000000080800000000000000000000000000000000000000000000040000100000000000008000000000000000000000000000000000000000000000000000000000000000000000100000000000000000000000000000000",
      "type": "0x2",
      "effectiveGasPrice": "0xb65dd2e84"
    },
    {
      "transactionHash": "0xe1d6e5e0a1f578ae8ddadda50f70c312e9f349719cced9e76a41666313b72fe1",
      "transactionIndex": "0xa",
      "blockHash": "0x91ac17d52ac4cec73165281c4db3fb3057b73602e5dbc66b9eedc8166a235c16",
      "blockNumber": "0x464e44",
      "from": "0xC5e0B6E472dDE70eCEfFa4c568Bd52f2A7a1632A",
      "to": "0x3FfAf50D4F4E96eB78f2407c090b72e86eCaed24",
      "cumulativeGasUsed": "0x1893e1",
      "gasUsed": "0xc838",
      "contractAddress": null,
      "logs": [
        {
          "address": "0x3FfAf50D4F4E96eB78f2407c090b72e86eCaed24",
          "topics": [
            "0x8c5be1e5ebec7d5bd14f71427d1e84f3dd0314c0f7b2291e5b200ac8c7c3b925",
            "0x000000000000000000000000c5e0b6e472dde70eceffa4c568bd52f2a7a1632a",
            "0x000000000000000000000000557150d167ca1259856cf1e4e327108b16543098"
          ],
          "data": "0x000000000000000000000000000000000000000000000038a04049dff5a19a29",
          "blockHash": "0x91ac17d52ac4cec73165281c4db3fb3057b73602e5dbc66b9eedc8166a235c16",
          "blockNumber": "0x464e44",
          "transactionHash": "0xe1d6e5e0a1f578ae8ddadda50f70c312e9f349719cced9e76a41666313b72fe1",
          "transactionIndex": "0xa",
          "logIndex": "0xd",
          "removed": false
        }
      ],
      "status": "0x1",
      "logsBloom": "0x00000000000000000000000000012000000000000000000000000000000000000000000000000000000000000000000000000000000000000000000000200000000000000000000000000000000000000000000000000000000000000000000000000000000000000000001000000000000000000000000000000001000000000000008000000000000000000000000000000000000000000000000000000000020000000000000000000000000000000000000040000000000000000000000000000000000100000000000008000000000000000000000000000000000000000010000000000000000000000000000000000000000000000000000001000000",
      "type": "0x2",
      "effectiveGasPrice": "0xb7363a692"
    },
    {
      "transactionHash": "0x6302a9473ae34785890c4977d683dd39ffa4561185d0edab8c9d81b3ee0cf5b7",
      "transactionIndex": "0x9",
      "blockHash": "0x5ff5c1f77294f3e0816d2cd830d9a08ec84987bdb91697f0c04b4c5b3fd091bd",
      "blockNumber": "0x464e45",
      "from": "0xC5e0B6E472dDE70eCEfFa4c568Bd52f2A7a1632A",
      "to": "0x16dA4541aD1807f4443d92D26044C1147406EB80",
      "cumulativeGasUsed": "0x227ac2",
      "gasUsed": "0xc7fc",
      "contractAddress": null,
      "logs": [
        {
          "address": "0x16dA4541aD1807f4443d92D26044C1147406EB80",
          "topics": [
            "0x8c5be1e5ebec7d5bd14f71427d1e84f3dd0314c0f7b2291e5b200ac8c7c3b925",
            "0x000000000000000000000000c5e0b6e472dde70eceffa4c568bd52f2a7a1632a",
            "0x000000000000000000000000557150d167ca1259856cf1e4e327108b16543098"
          ],
          "data": "0x000000000000000000000000000000000000000000000000000000003ca61876",
          "blockHash": "0x5ff5c1f77294f3e0816d2cd830d9a08ec84987bdb91697f0c04b4c5b3fd091bd",
          "blockNumber": "0x464e45",
          "transactionHash": "0x6302a9473ae34785890c4977d683dd39ffa4561185d0edab8c9d81b3ee0cf5b7",
          "transactionIndex": "0x9",
          "logIndex": "0xd",
          "removed": false
        }
      ],
      "status": "0x1",
      "logsBloom": "0x00000000000000000200000000012000000000000000000000000000000000000000008000000000000000000000000000000000000000000000000000200000000000000000000000000000000000000000000000000000000000000000000000000000000000000000000000000000000000000000000000000001000000000000000000000000000000000000000000000000000000000000000000000000020000000000000000000000000000000000000040000000000000000000000000008000000100000000000008000000000000000000000000000000000000000010000000000000000000000000000000000000000000000000000000000000",
      "type": "0x2",
      "effectiveGasPrice": "0xcafa47993"
    },
    {
      "transactionHash": "0xf0cae3e55421ba292784a5603fe7f9ac8884998daf3b61bdc340fd504abd862e",
      "transactionIndex": "0xa",
      "blockHash": "0x8286ea0f894a6028ab71aeac8c254ef7bd4afd13595073a10e49393ecf67a414",
      "blockNumber": "0x464e46",
      "from": "0xC5e0B6E472dDE70eCEfFa4c568Bd52f2A7a1632A",
      "to": "0x1804Bf30507dc2EB3bDEbbbdd859991EAeF6EefF",
      "cumulativeGasUsed": "0x236922",
      "gasUsed": "0xc7fc",
      "contractAddress": null,
      "logs": [
        {
          "address": "0x1804Bf30507dc2EB3bDEbbbdd859991EAeF6EefF",
          "topics": [
            "0x8c5be1e5ebec7d5bd14f71427d1e84f3dd0314c0f7b2291e5b200ac8c7c3b925",
            "0x000000000000000000000000c5e0b6e472dde70eceffa4c568bd52f2a7a1632a",
            "0x000000000000000000000000557150d167ca1259856cf1e4e327108b16543098"
          ],
          "data": "0x0000000000000000000000000000000000000000000000000000000005f5e101",
          "blockHash": "0x8286ea0f894a6028ab71aeac8c254ef7bd4afd13595073a10e49393ecf67a414",
          "blockNumber": "0x464e46",
          "transactionHash": "0xf0cae3e55421ba292784a5603fe7f9ac8884998daf3b61bdc340fd504abd862e",
          "transactionIndex": "0xa",
          "logIndex": "0xf",
          "removed": false
        }
      ],
      "status": "0x1",
      "logsBloom": "0x00000000000000000000000000012000000000000000000000000000000000000000000000000000000000000000000000000000000000000000000000200000000000000000000000000000000000000000000000000000000000000000000000000000000000000000000000000000000000000000000000000001000000000000000000000000000000000000000000000000000000000000000000000000020000000000000000000000000000000000000040004000000002000000000000000000000100000000000008000000000000000000000000000000000000000010000008000000000000000000000000000000000000000000000000000000",
      "type": "0x2",
      "effectiveGasPrice": "0xcae359c26"
    },
    {
      "transactionHash": "0x928d39807468d412d3aca7748d5102223da85442c41f112ed64735b25ab636c4",
      "transactionIndex": "0x7",
      "blockHash": "0x22126ad941f9249856adf8d7be2c0233b66d9c27273b20276ca2d6ad32fe165e",
      "blockNumber": "0x464e47",
      "from": "0xC5e0B6E472dDE70eCEfFa4c568Bd52f2A7a1632A",
      "to": "0xAF0F6e8b0Dc5c913bbF4d14c22B4E78Dd14310B6",
      "cumulativeGasUsed": "0x19956c",
      "gasUsed": "0xc7f0",
      "contractAddress": null,
      "logs": [
        {
          "address": "0xAF0F6e8b0Dc5c913bbF4d14c22B4E78Dd14310B6",
          "topics": [
            "0x8c5be1e5ebec7d5bd14f71427d1e84f3dd0314c0f7b2291e5b200ac8c7c3b925",
            "0x000000000000000000000000c5e0b6e472dde70eceffa4c568bd52f2a7a1632a",
            "0x000000000000000000000000557150d167ca1259856cf1e4e327108b16543098"
          ],
          "data": "0x00000000000000000000000000000000000000000000000000000000001ec2a9",
          "blockHash": "0x22126ad941f9249856adf8d7be2c0233b66d9c27273b20276ca2d6ad32fe165e",
          "blockNumber": "0x464e47",
          "transactionHash": "0x928d39807468d412d3aca7748d5102223da85442c41f112ed64735b25ab636c4",
          "transactionIndex": "0x7",
          "logIndex": "0x12",
          "removed": false
        }
      ],
      "status": "0x1",
      "logsBloom": "0x00000000000000000000000000012000000000000000000000000000000000000000000000000000000000000000000000000000000000000000000000200000000000000000000000000000000000000000000000000000000000000000000000000000000000000000000000000000000000000000000000000001000000000000000000000000000000000000000000000000000000000000000000000000020000000000000000000000000000000000008040000000000000000000000000000000000100000000000008080000000000000000000000000001000000000010000000000000000000000000000000000000000000000000000000000000",
      "type": "0x2",
      "effectiveGasPrice": "0xd9a9172f7"
    },
    {
      "transactionHash": "0xceb24c9308a552ff10d9d6926c59bce3e7d196ea2289ce943e3232772bd86a50",
      "transactionIndex": "0x7",
      "blockHash": "0x6a83cc402a3612a156fc1d26b4b8aa9d187630e73ed262954c00ba2e2c41ffc9",
      "blockNumber": "0x464e48",
      "from": "0xC5e0B6E472dDE70eCEfFa4c568Bd52f2A7a1632A",
      "to": "0x6b8558764d3b7572136F17174Cb9aB1DDc7E1259",
      "cumulativeGasUsed": "0x1b9e78",
      "gasUsed": "0xc820",
      "contractAddress": null,
      "logs": [
        {
          "address": "0x6b8558764d3b7572136F17174Cb9aB1DDc7E1259",
          "topics": [
            "0x8c5be1e5ebec7d5bd14f71427d1e84f3dd0314c0f7b2291e5b200ac8c7c3b925",
            "0x000000000000000000000000c5e0b6e472dde70eceffa4c568bd52f2a7a1632a",
            "0x000000000000000000000000557150d167ca1259856cf1e4e327108b16543098"
          ],
          "data": "0x0000000000000000000000000000000000000000000000056bc75e2d63100000",
          "blockHash": "0x6a83cc402a3612a156fc1d26b4b8aa9d187630e73ed262954c00ba2e2c41ffc9",
          "blockNumber": "0x464e48",
          "transactionHash": "0xceb24c9308a552ff10d9d6926c59bce3e7d196ea2289ce943e3232772bd86a50",
          "transactionIndex": "0x7",
          "logIndex": "0xd",
          "removed": false
        }
      ],
      "status": "0x1",
      "logsBloom": "0x00000000000000000000000000012800000000000000000000000000000000000000000000000000000000000000000000000000000000000000000000200000000000000000000000002000000000000000000000000000000000000000000000000000000000000000000000000000000000000000000000000001000000000000000000000000000000000000000000000000000000000000000000000000020000000000000000000000000000000000000040000000000000000000000000000000000100000000000008000000000000000000000000000000000000000010000400000000000000000000000000000000000000000000000000000000",
      "type": "0x2",
      "effectiveGasPrice": "0xd59e5053c"
    },
    {
      "transactionHash": "0x77d260babcbad6abb83c37a97e884f3ff994cabc7a2ef6f626114983546bc3e4",
      "transactionIndex": "0x8",
      "blockHash": "0xe5df071f73dbc2eede900c38504eba667c2d1cc493d7eef196325c98d44ea6e7",
      "blockNumber": "0x464e49",
      "from": "0xC5e0B6E472dDE70eCEfFa4c568Bd52f2A7a1632A",
      "to": "0x557150d167cA1259856CF1e4E327108B16543098",
      "cumulativeGasUsed": "0x41e0d4",
      "gasUsed": "0x2976b4",
      "contractAddress": null,
      "logs": [
        {
          "address": "0xFF34B3d4Aee8ddCd6F9AFFFB6Fe49bD371b8a357",
          "topics": [
            "0xddf252ad1be2c89b69c2b068fc378daa952ba7f163c4a11628f55a4df523b3ef",
            "0x00000000000000000000000029598b72eb5cebd806c5dcd549490fda35b13cd8",
            "0x000000000000000000000000557150d167ca1259856cf1e4e327108b16543098"
          ],
          "data": "0x00000000000000000000000000000000000000000000060e0b7f1557e8f667ff",
          "blockHash": "0xe5df071f73dbc2eede900c38504eba667c2d1cc493d7eef196325c98d44ea6e7",
          "blockNumber": "0x464e49",
          "transactionHash": "0x77d260babcbad6abb83c37a97e884f3ff994cabc7a2ef6f626114983546bc3e4",
          "transactionIndex": "0x8",
          "logIndex": "0x10",
          "removed": false
        },
        {
          "address": "0xFF34B3d4Aee8ddCd6F9AFFFB6Fe49bD371b8a357",
          "topics": [
            "0xddf252ad1be2c89b69c2b068fc378daa952ba7f163c4a11628f55a4df523b3ef",
            "0x00000000000000000000000029598b72eb5cebd806c5dcd549490fda35b13cd8",
            "0x000000000000000000000000557150d167ca1259856cf1e4e327108b16543098"
          ],
          "data": "0x0000000000000000000000000000000000000000000000011594c0e11d119722",
          "blockHash": "0xe5df071f73dbc2eede900c38504eba667c2d1cc493d7eef196325c98d44ea6e7",
          "blockNumber": "0x464e49",
          "transactionHash": "0x77d260babcbad6abb83c37a97e884f3ff994cabc7a2ef6f626114983546bc3e4",
          "transactionIndex": "0x8",
          "logIndex": "0x11",
          "removed": false
        },
        {
          "address": "0xf8Fb3713D459D7C1018BD0A49D19b4C44290EBE5",
          "topics": [
            "0xddf252ad1be2c89b69c2b068fc378daa952ba7f163c4a11628f55a4df523b3ef",
            "0x0000000000000000000000003ffaf50d4f4e96eb78f2407c090b72e86ecaed24",
            "0x000000000000000000000000557150d167ca1259856cf1e4e327108b16543098"
          ],
          "data": "0x00000000000000000000000000000000000000000000000000003fc331a5b100",
          "blockHash": "0xe5df071f73dbc2eede900c38504eba667c2d1cc493d7eef196325c98d44ea6e7",
          "blockNumber": "0x464e49",
          "transactionHash": "0x77d260babcbad6abb83c37a97e884f3ff994cabc7a2ef6f626114983546bc3e4",
          "transactionIndex": "0x8",
          "logIndex": "0x12",
          "removed": false
        },
        {
          "address": "0xaA8E23Fb1079EA71e0a56F48a2aA51851D8433D0",
          "topics": [
            "0xddf252ad1be2c89b69c2b068fc378daa952ba7f163c4a11628f55a4df523b3ef",
            "0x000000000000000000000000af0f6e8b0dc5c913bbf4d14c22b4e78dd14310b6",
            "0x000000000000000000000000557150d167ca1259856cf1e4e327108b16543098"
          ],
          "data": "0x000000000000000000000000000000000000000000000000000000047d6a845b",
          "blockHash": "0xe5df071f73dbc2eede900c38504eba667c2d1cc493d7eef196325c98d44ea6e7",
          "blockNumber": "0x464e49",
          "transactionHash": "0x77d260babcbad6abb83c37a97e884f3ff994cabc7a2ef6f626114983546bc3e4",
          "transactionIndex": "0x8",
          "logIndex": "0x13",
          "removed": false
        },
        {
          "address": "0xaA8E23Fb1079EA71e0a56F48a2aA51851D8433D0",
          "topics": [
            "0xddf252ad1be2c89b69c2b068fc378daa952ba7f163c4a11628f55a4df523b3ef",
            "0x000000000000000000000000af0f6e8b0dc5c913bbf4d14c22b4e78dd14310b6",
            "0x000000000000000000000000557150d167ca1259856cf1e4e327108b16543098"
          ],
          "data": "0x0000000000000000000000000000000000000000000000000000000000989a17",
          "blockHash": "0xe5df071f73dbc2eede900c38504eba667c2d1cc493d7eef196325c98d44ea6e7",
          "blockNumber": "0x464e49",
          "transactionHash": "0x77d260babcbad6abb83c37a97e884f3ff994cabc7a2ef6f626114983546bc3e4",
          "transactionIndex": "0x8",
          "logIndex": "0x14",
          "removed": false
        },
        {
          "address": "0x6d906e526a4e2Ca02097BA9d0caA3c382F52278E",
          "topics": [
            "0xddf252ad1be2c89b69c2b068fc378daa952ba7f163c4a11628f55a4df523b3ef",
            "0x000000000000000000000000b20691021f9aced8631edaa3c0cd2949eb45662d",
            "0x000000000000000000000000557150d167ca1259856cf1e4e327108b16543098"
          ],
          "data": "0x00000000000000000000000000000000000000000000000000000000000000c9",
          "blockHash": "0xe5df071f73dbc2eede900c38504eba667c2d1cc493d7eef196325c98d44ea6e7",
          "blockNumber": "0x464e49",
          "transactionHash": "0x77d260babcbad6abb83c37a97e884f3ff994cabc7a2ef6f626114983546bc3e4",
          "transactionIndex": "0x8",
          "logIndex": "0x15",
          "removed": false
        },
        {
          "address": "0x6d906e526a4e2Ca02097BA9d0caA3c382F52278E",
          "topics": [
            "0xddf252ad1be2c89b69c2b068fc378daa952ba7f163c4a11628f55a4df523b3ef",
            "0x000000000000000000000000b20691021f9aced8631edaa3c0cd2949eb45662d",
            "0x000000000000000000000000557150d167ca1259856cf1e4e327108b16543098"
          ],
          "data": "0x00000000000000000000000000000000000000000000000000000000000002bd",
          "blockHash": "0xe5df071f73dbc2eede900c38504eba667c2d1cc493d7eef196325c98d44ea6e7",
          "blockNumber": "0x464e49",
          "transactionHash": "0x77d260babcbad6abb83c37a97e884f3ff994cabc7a2ef6f626114983546bc3e4",
          "transactionIndex": "0x8",
          "logIndex": "0x16",
          "removed": false
        },
        {
          "address": "0xFF34B3d4Aee8ddCd6F9AFFFB6Fe49bD371b8a357",
          "topics": [
            "0x8c5be1e5ebec7d5bd14f71427d1e84f3dd0314c0f7b2291e5b200ac8c7c3b925",
            "0x000000000000000000000000557150d167ca1259856cf1e4e327108b16543098",
            "0x0000000000000000000000006ae43d3271ff6888e7fc43fd7321a503ff738951"
          ],
          "data": "0x00000000000000000000000000000000000000000000060e0b7f1557e8f667ff",
          "blockHash": "0xe5df071f73dbc2eede900c38504eba667c2d1cc493d7eef196325c98d44ea6e7",
          "blockNumber": "0x464e49",
          "transactionHash": "0x77d260babcbad6abb83c37a97e884f3ff994cabc7a2ef6f626114983546bc3e4",
          "transactionIndex": "0x8",
          "logIndex": "0x17",
          "removed": false
        },
        {
          "address": "0x22675C506A8FC26447aFFfa33640f6af5d4D4cF0",
          "topics": [
            "0xddf252ad1be2c89b69c2b068fc378daa952ba7f163c4a11628f55a4df523b3ef",
            "0x000000000000000000000000c5e0b6e472dde70eceffa4c568bd52f2a7a1632a",
            "0x0000000000000000000000000000000000000000000000000000000000000000"
          ],
          "data": "0x00000000000000000000000000000000000000000000060e0456f4b2e4fbdeee",
          "blockHash": "0xe5df071f73dbc2eede900c38504eba667c2d1cc493d7eef196325c98d44ea6e7",
          "blockNumber": "0x464e49",
          "transactionHash": "0x77d260babcbad6abb83c37a97e884f3ff994cabc7a2ef6f626114983546bc3e4",
          "transactionIndex": "0x8",
          "logIndex": "0x18",
          "removed": false
        },
        {
          "address": "0x22675C506A8FC26447aFFfa33640f6af5d4D4cF0",
          "topics": [
            "0x4cf25bc1d991c17529c25213d3cc0cda295eeaad5f13f361969b12ea48015f90",
            "0x000000000000000000000000c5e0b6e472dde70eceffa4c568bd52f2a7a1632a",
            "0x0000000000000000000000000000000000000000000000000000000000000000"
          ],
          "data": "0x00000000000000000000000000000000000000000000060e0456f4b2e4fbdeee000000000000000000000000000000000000000000000000072820a503fa891100000000000000000000000000000000000000000346f45754e8617dd1f052f7",
          "blockHash": "0xe5df071f73dbc2eede900c38504eba667c2d1cc493d7eef196325c98d44ea6e7",
          "blockNumber": "0x464e49",
          "transactionHash": "0x77d260babcbad6abb83c37a97e884f3ff994cabc7a2ef6f626114983546bc3e4",
          "transactionIndex": "0x8",
          "logIndex": "0x19",
          "removed": false
        },
        {
          "address": "0x6Ae43d3271ff6888e7Fc43Fd7321a503ff738951",
          "topics": [
            "0x804c9b842b2748a22bb64b345453a3de7ca54a6ca45ce00d415894979e22897a",
            "0x000000000000000000000000ff34b3d4aee8ddcd6f9afffb6fe49bd371b8a357"
          ],
          "data": "0x00000000000000000000000000000000000000000001e23727edf1aba4b835a50000000000000000000000000000000000000000002a6b936695702f4bafd8e2000000000000000000000000000000000000000000087d4fc18b4e2ecd7ec70b000000000000000000000000000000000000000003454323425a6c04e6096ad100000000000000000000000000000000000000000346f45754e8617dd1f052f7",
          "blockHash": "0xe5df071f73dbc2eede900c38504eba667c2d1cc493d7eef196325c98d44ea6e7",
          "blockNumber": "0x464e49",
          "transactionHash": "0x77d260babcbad6abb83c37a97e884f3ff994cabc7a2ef6f626114983546bc3e4",
          "transactionIndex": "0x8",
          "logIndex": "0x1a",
          "removed": false
        },
        {
          "address": "0xFF34B3d4Aee8ddCd6F9AFFFB6Fe49bD371b8a357",
          "topics": [
            "0xddf252ad1be2c89b69c2b068fc378daa952ba7f163c4a11628f55a4df523b3ef",
            "0x000000000000000000000000557150d167ca1259856cf1e4e327108b16543098",
            "0x00000000000000000000000029598b72eb5cebd806c5dcd549490fda35b13cd8"
          ],
          "data": "0x00000000000000000000000000000000000000000000060e0b7f1557e8f667ff",
          "blockHash": "0xe5df071f73dbc2eede900c38504eba667c2d1cc493d7eef196325c98d44ea6e7",
          "blockNumber": "0x464e49",
          "transactionHash": "0x77d260babcbad6abb83c37a97e884f3ff994cabc7a2ef6f626114983546bc3e4",
          "transactionIndex": "0x8",
          "logIndex": "0x1b",
          "removed": false
        },
        {
          "address": "0xFF34B3d4Aee8ddCd6F9AFFFB6Fe49bD371b8a357",
          "topics": [
            "0x8c5be1e5ebec7d5bd14f71427d1e84f3dd0314c0f7b2291e5b200ac8c7c3b925",
            "0x000000000000000000000000557150d167ca1259856cf1e4e327108b16543098",
            "0x0000000000000000000000006ae43d3271ff6888e7fc43fd7321a503ff738951"
          ],
          "data": "0x0000000000000000000000000000000000000000000000000000000000000000",
          "blockHash": "0xe5df071f73dbc2eede900c38504eba667c2d1cc493d7eef196325c98d44ea6e7",
          "blockNumber": "0x464e49",
          "transactionHash": "0x77d260babcbad6abb83c37a97e884f3ff994cabc7a2ef6f626114983546bc3e4",
          "transactionIndex": "0x8",
          "logIndex": "0x1c",
          "removed": false
        },
        {
          "address": "0x6Ae43d3271ff6888e7Fc43Fd7321a503ff738951",
          "topics": [
            "0xa534c8dbe71f871f9f3530e97a74601fea17b426cae02e1c5aee42c96c784051",
            "0x000000000000000000000000ff34b3d4aee8ddcd6f9afffb6fe49bd371b8a357",
            "0x000000000000000000000000c5e0b6e472dde70eceffa4c568bd52f2a7a1632a",
            "0x000000000000000000000000557150d167ca1259856cf1e4e327108b16543098"
          ],
          "data": "0x00000000000000000000000000000000000000000000060e0b7f1557e8f667ff0000000000000000000000000000000000000000000000000000000000000000",
          "blockHash": "0xe5df071f73dbc2eede900c38504eba667c2d1cc493d7eef196325c98d44ea6e7",
          "blockNumber": "0x464e49",
          "transactionHash": "0x77d260babcbad6abb83c37a97e884f3ff994cabc7a2ef6f626114983546bc3e4",
          "transactionIndex": "0x8",
          "logIndex": "0x1d",
          "removed": false
        },
        {
          "address": "0xFF34B3d4Aee8ddCd6F9AFFFB6Fe49bD371b8a357",
          "topics": [
            "0x8c5be1e5ebec7d5bd14f71427d1e84f3dd0314c0f7b2291e5b200ac8c7c3b925",
            "0x000000000000000000000000557150d167ca1259856cf1e4e327108b16543098",
            "0x0000000000000000000000006ae43d3271ff6888e7fc43fd7321a503ff738951"
          ],
          "data": "0x0000000000000000000000000000000000000000000000011594c0e11d119722",
          "blockHash": "0xe5df071f73dbc2eede900c38504eba667c2d1cc493d7eef196325c98d44ea6e7",
          "blockNumber": "0x464e49",
          "transactionHash": "0x77d260babcbad6abb83c37a97e884f3ff994cabc7a2ef6f626114983546bc3e4",
          "transactionIndex": "0x8",
          "logIndex": "0x1e",
          "removed": false
        },
        {
          "address": "0xbEF786E742edB13361ff2f005b901A82c23AA491",
          "topics": [
            "0xddf252ad1be2c89b69c2b068fc378daa952ba7f163c4a11628f55a4df523b3ef",
            "0x000000000000000000000000c5e0b6e472dde70eceffa4c568bd52f2a7a1632a",
            "0x0000000000000000000000000000000000000000000000000000000000000000"
          ],
          "data": "0x000000000000000000000000000000000000000000000001158e3eefdc675a42",
          "blockHash": "0xe5df071f73dbc2eede900c38504eba667c2d1cc493d7eef196325c98d44ea6e7",
          "blockNumber": "0x464e49",
          "transactionHash": "0x77d260babcbad6abb83c37a97e884f3ff994cabc7a2ef6f626114983546bc3e4",
          "transactionIndex": "0x8",
          "logIndex": "0x1f",
          "removed": false
        },
        {
          "address": "0xbEF786E742edB13361ff2f005b901A82c23AA491",
          "topics": [
            "0x44bd20a79e993bdcc7cbedf54a3b4d19fb78490124b6b90d04fe3242eea579e8",
            "0x000000000000000000000000c5e0b6e472dde70eceffa4c568bd52f2a7a1632a"
          ],
          "data": "0x000000000000000000000000000000000000000000000001158e3eefdc675a420000000000000000000000000000000000000000000000011594c7fa547a3ce0000000000000000000000000000000000000000000000000000681f140aa3ce00000000000000000000000000000000000000000002c882423b969024059ca4a000000000000000000000000000000000000000000000b797699f6f9ce7483bf",
          "blockHash": "0xe5df071f73dbc2eede900c38504eba667c2d1cc493d7eef196325c98d44ea6e7",
          "blockNumber": "0x464e49",
          "transactionHash": "0x77d260babcbad6abb83c37a97e884f3ff994cabc7a2ef6f626114983546bc3e4",
          "transactionIndex": "0x8",
          "logIndex": "0x20",
          "removed": false
        },
        {
          "address": "0x6Ae43d3271ff6888e7Fc43Fd7321a503ff738951",
          "topics": [
            "0x804c9b842b2748a22bb64b345453a3de7ca54a6ca45ce00d415894979e22897a",
            "0x000000000000000000000000ff34b3d4aee8ddcd6f9afffb6fe49bd371b8a357"
          ],
          "data": "0x00000000000000000000000000000000000000000001e22c78bdfd0928490e6f0000000000000000000000000000000000000000002a6b922f7563b7ef2fa788000000000000000000000000000000000000000000087d46088aea73e97d3c3e000000000000000000000000000000000000000003454323425a6c04e6096ad100000000000000000000000000000000000000000346f45754e8617dd1f052f7",
          "blockHash": "0xe5df071f73dbc2eede900c38504eba667c2d1cc493d7eef196325c98d44ea6e7",
          "blockNumber": "0x464e49",
          "transactionHash": "0x77d260babcbad6abb83c37a97e884f3ff994cabc7a2ef6f626114983546bc3e4",
          "transactionIndex": "0x8",
          "logIndex": "0x21",
          "removed": false
        },
        {
          "address": "0xFF34B3d4Aee8ddCd6F9AFFFB6Fe49bD371b8a357",
          "topics": [
            "0xddf252ad1be2c89b69c2b068fc378daa952ba7f163c4a11628f55a4df523b3ef",
            "0x000000000000000000000000557150d167ca1259856cf1e4e327108b16543098",
            "0x00000000000000000000000029598b72eb5cebd806c5dcd549490fda35b13cd8"
          ],
          "data": "0x0000000000000000000000000000000000000000000000011594c0e11d119722",
          "blockHash": "0xe5df071f73dbc2eede900c38504eba667c2d1cc493d7eef196325c98d44ea6e7",
          "blockNumber": "0x464e49",
          "transactionHash": "0x77d260babcbad6abb83c37a97e884f3ff994cabc7a2ef6f626114983546bc3e4",
          "transactionIndex": "0x8",
          "logIndex": "0x22",
          "removed": false
        },
        {
          "address": "0xFF34B3d4Aee8ddCd6F9AFFFB6Fe49bD371b8a357",
          "topics": [
            "0x8c5be1e5ebec7d5bd14f71427d1e84f3dd0314c0f7b2291e5b200ac8c7c3b925",
            "0x000000000000000000000000557150d167ca1259856cf1e4e327108b16543098",
            "0x0000000000000000000000006ae43d3271ff6888e7fc43fd7321a503ff738951"
          ],
          "data": "0x0000000000000000000000000000000000000000000000000000000000000000",
          "blockHash": "0xe5df071f73dbc2eede900c38504eba667c2d1cc493d7eef196325c98d44ea6e7",
          "blockNumber": "0x464e49",
          "transactionHash": "0x77d260babcbad6abb83c37a97e884f3ff994cabc7a2ef6f626114983546bc3e4",
          "transactionIndex": "0x8",
          "logIndex": "0x23",
          "removed": false
        },
        {
          "address": "0x6Ae43d3271ff6888e7Fc43Fd7321a503ff738951",
          "topics": [
            "0xa534c8dbe71f871f9f3530e97a74601fea17b426cae02e1c5aee42c96c784051",
            "0x000000000000000000000000ff34b3d4aee8ddcd6f9afffb6fe49bd371b8a357",
            "0x000000000000000000000000c5e0b6e472dde70eceffa4c568bd52f2a7a1632a",
            "0x000000000000000000000000557150d167ca1259856cf1e4e327108b16543098"
          ],
          "data": "0x0000000000000000000000000000000000000000000000011594c0e11d1197220000000000000000000000000000000000000000000000000000000000000000",
          "blockHash": "0xe5df071f73dbc2eede900c38504eba667c2d1cc493d7eef196325c98d44ea6e7",
          "blockNumber": "0x464e49",
          "transactionHash": "0x77d260babcbad6abb83c37a97e884f3ff994cabc7a2ef6f626114983546bc3e4",
          "transactionIndex": "0x8",
          "logIndex": "0x24",
          "removed": false
        },
        {
          "address": "0xf8Fb3713D459D7C1018BD0A49D19b4C44290EBE5",
          "topics": [
            "0x8c5be1e5ebec7d5bd14f71427d1e84f3dd0314c0f7b2291e5b200ac8c7c3b925",
            "0x000000000000000000000000557150d167ca1259856cf1e4e327108b16543098",
            "0x0000000000000000000000006ae43d3271ff6888e7fc43fd7321a503ff738951"
          ],
          "data": "0x00000000000000000000000000000000000000000000000000003fc331a5b100",
          "blockHash": "0xe5df071f73dbc2eede900c38504eba667c2d1cc493d7eef196325c98d44ea6e7",
          "blockNumber": "0x464e49",
          "transactionHash": "0x77d260babcbad6abb83c37a97e884f3ff994cabc7a2ef6f626114983546bc3e4",
          "transactionIndex": "0x8",
          "logIndex": "0x25",
          "removed": false
        },
        {
          "address": "0x34a4d932E722b9dFb492B9D8131127690CE2430B",
          "topics": [
            "0xddf252ad1be2c89b69c2b068fc378daa952ba7f163c4a11628f55a4df523b3ef",
            "0x000000000000000000000000c5e0b6e472dde70eceffa4c568bd52f2a7a1632a",
            "0x0000000000000000000000000000000000000000000000000000000000000000"
          ],
          "data": "0x00000000000000000000000000000000000000000000000000003e6841a7872c",
          "blockHash": "0xe5df071f73dbc2eede900c38504eba667c2d1cc493d7eef196325c98d44ea6e7",
          "blockNumber": "0x464e49",
          "transactionHash": "0x77d260babcbad6abb83c37a97e884f3ff994cabc7a2ef6f626114983546bc3e4",
          "transactionIndex": "0x8",
          "logIndex": "0x26",
          "removed": false
        },
        {
          "address": "0x34a4d932E722b9dFb492B9D8131127690CE2430B",
          "topics": [
            "0x4cf25bc1d991c17529c25213d3cc0cda295eeaad5f13f361969b12ea48015f90",
            "0x000000000000000000000000c5e0b6e472dde70eceffa4c568bd52f2a7a1632a",
            "0x0000000000000000000000000000000000000000000000000000000000000000"
          ],
          "data": "0x00000000000000000000000000000000000000000000000000003e6841a7872c0000000000000000000000000000000000000000000000000000015aeffe29d4000000000000000000000000000000000000000003a018e85d7642024e866768",
          "blockHash": "0xe5df071f73dbc2eede900c38504eba667c2d1cc493d7eef196325c98d44ea6e7",
          "blockNumber": "0x464e49",
          "transactionHash": "0x77d260babcbad6abb83c37a97e884f3ff994cabc7a2ef6f626114983546bc3e4",
          "transactionIndex": "0x8",
          "logIndex": "0x27",
          "removed": false
        },
        {
          "address": "0x6Ae43d3271ff6888e7Fc43Fd7321a503ff738951",
          "topics": [
            "0x804c9b842b2748a22bb64b345453a3de7ca54a6ca45ce00d415894979e22897a",
            "0x000000000000000000000000f8fb3713d459d7c1018bd0a49d19b4c44290ebe5"
          ],
          "data": "0x000000000000000000000000000000000000000006ddb0e28b5ebdead5d798fe000000000000000000000000000000000000000009539521cfa9c8bd7f18bdb60000000000000000000000000000000000000000090922e408f5bd32e518bdb60000000000000000000000000000000000000000038763d8482da1ee72e304cc000000000000000000000000000000000000000003a018e85d7642024e866768",
          "blockHash": "0xe5df071f73dbc2eede900c38504eba667c2d1cc493d7eef196325c98d44ea6e7",
          "blockNumber": "0x464e49",
          "transactionHash": "0x77d260babcbad6abb83c37a97e884f3ff994cabc7a2ef6f626114983546bc3e4",
          "transactionIndex": "0x8",
          "logIndex": "0x28",
          "removed": false
        },
        {
          "address": "0xf8Fb3713D459D7C1018BD0A49D19b4C44290EBE5",
          "topics": [
            "0xddf252ad1be2c89b69c2b068fc378daa952ba7f163c4a11628f55a4df523b3ef",
            "0x000000000000000000000000557150d167ca1259856cf1e4e327108b16543098",
            "0x0000000000000000000000003ffaf50d4f4e96eb78f2407c090b72e86ecaed24"
          ],
          "data": "0x00000000000000000000000000000000000000000000000000003fc331a5b100",
          "blockHash": "0xe5df071f73dbc2eede900c38504eba667c2d1cc493d7eef196325c98d44ea6e7",
          "blockNumber": "0x464e49",
          "transactionHash": "0x77d260babcbad6abb83c37a97e884f3ff994cabc7a2ef6f626114983546bc3e4",
          "transactionIndex": "0x8",
          "logIndex": "0x29",
          "removed": false
        },
        {
          "address": "0xf8Fb3713D459D7C1018BD0A49D19b4C44290EBE5",
          "topics": [
            "0x8c5be1e5ebec7d5bd14f71427d1e84f3dd0314c0f7b2291e5b200ac8c7c3b925",
            "0x000000000000000000000000557150d167ca1259856cf1e4e327108b16543098",
            "0x0000000000000000000000006ae43d3271ff6888e7fc43fd7321a503ff738951"
          ],
          "data": "0x0000000000000000000000000000000000000000000000000000000000000000",
          "blockHash": "0xe5df071f73dbc2eede900c38504eba667c2d1cc493d7eef196325c98d44ea6e7",
          "blockNumber": "0x464e49",
          "transactionHash": "0x77d260babcbad6abb83c37a97e884f3ff994cabc7a2ef6f626114983546bc3e4",
          "transactionIndex": "0x8",
          "logIndex": "0x2a",
          "removed": false
        },
        {
          "address": "0x6Ae43d3271ff6888e7Fc43Fd7321a503ff738951",
          "topics": [
            "0xa534c8dbe71f871f9f3530e97a74601fea17b426cae02e1c5aee42c96c784051",
            "0x000000000000000000000000f8fb3713d459d7c1018bd0a49d19b4c44290ebe5",
            "0x000000000000000000000000c5e0b6e472dde70eceffa4c568bd52f2a7a1632a",
            "0x000000000000000000000000557150d167ca1259856cf1e4e327108b16543098"
          ],
          "data": "0x00000000000000000000000000000000000000000000000000003fc331a5b1000000000000000000000000000000000000000000000000000000000000000000",
          "blockHash": "0xe5df071f73dbc2eede900c38504eba667c2d1cc493d7eef196325c98d44ea6e7",
          "blockNumber": "0x464e49",
          "transactionHash": "0x77d260babcbad6abb83c37a97e884f3ff994cabc7a2ef6f626114983546bc3e4",
          "transactionIndex": "0x8",
          "logIndex": "0x2b",
          "removed": false
        },
        {
          "address": "0xaA8E23Fb1079EA71e0a56F48a2aA51851D8433D0",
          "topics": [
            "0x8c5be1e5ebec7d5bd14f71427d1e84f3dd0314c0f7b2291e5b200ac8c7c3b925",
            "0x000000000000000000000000557150d167ca1259856cf1e4e327108b16543098",
            "0x0000000000000000000000006ae43d3271ff6888e7fc43fd7321a503ff738951"
          ],
          "data": "0x000000000000000000000000000000000000000000000000000000047d6a845b",
          "blockHash": "0xe5df071f73dbc2eede900c38504eba667c2d1cc493d7eef196325c98d44ea6e7",
          "blockNumber": "0x464e49",
          "transactionHash": "0x77d260babcbad6abb83c37a97e884f3ff994cabc7a2ef6f626114983546bc3e4",
          "transactionIndex": "0x8",
          "logIndex": "0x2c",
          "removed": false
        },
        {
          "address": "0x9844386d29EEd970B9F6a2B9a676083b0478210e",
          "topics": [
            "0xddf252ad1be2c89b69c2b068fc378daa952ba7f163c4a11628f55a4df523b3ef",
            "0x000000000000000000000000c5e0b6e472dde70eceffa4c568bd52f2a7a1632a",
            "0x0000000000000000000000000000000000000000000000000000000000000000"
          ],
          "data": "0x000000000000000000000000000000000000000000000000000000047d65063e",
          "blockHash": "0xe5df071f73dbc2eede900c38504eba667c2d1cc493d7eef196325c98d44ea6e7",
          "blockNumber": "0x464e49",
          "transactionHash": "0x77d260babcbad6abb83c37a97e884f3ff994cabc7a2ef6f626114983546bc3e4",
          "transactionIndex": "0x8",
          "logIndex": "0x2d",
          "removed": false
        },
        {
          "address": "0x9844386d29EEd970B9F6a2B9a676083b0478210e",
          "topics": [
            "0x4cf25bc1d991c17529c25213d3cc0cda295eeaad5f13f361969b12ea48015f90",
            "0x000000000000000000000000c5e0b6e472dde70eceffa4c568bd52f2a7a1632a",
            "0x0000000000000000000000000000000000000000000000000000000000000000"
          ],
          "data": "0x000000000000000000000000000000000000000000000000000000047d65063e0000000000000000000000000000000000000000000000000000000000057e1d00000000000000000000000000000000000000000345056256d57e51cecec307",
          "blockHash": "0xe5df071f73dbc2eede900c38504eba667c2d1cc493d7eef196325c98d44ea6e7",
          "blockNumber": "0x464e49",
          "transactionHash": "0x77d260babcbad6abb83c37a97e884f3ff994cabc7a2ef6f626114983546bc3e4",
          "transactionIndex": "0x8",
          "logIndex": "0x2e",
          "removed": false
        },
        {
          "address": "0x6Ae43d3271ff6888e7Fc43Fd7321a503ff738951",
          "topics": [
            "0x804c9b842b2748a22bb64b345453a3de7ca54a6ca45ce00d415894979e22897a",
            "0x000000000000000000000000aa8e23fb1079ea71e0a56f48a2aa51851d8433d0"
          ],
          "data": "0x0000000000000000000000000000000000000000000003945131251323c2bd1700000000000000000000000000000000000000000029613bc93e0d2fe43ddf7c000000000000000000000000000000000000000000002a92d6d0363391eefbd800000000000000000000000000000000000000000342ac3c14426e7331d34d0200000000000000000000000000000000000000000345056256d57e51cecec307",
          "blockHash": "0xe5df071f73dbc2eede900c38504eba667c2d1cc493d7eef196325c98d44ea6e7",
          "blockNumber": "0x464e49",
          "transactionHash": "0x77d260babcbad6abb83c37a97e884f3ff994cabc7a2ef6f626114983546bc3e4",
          "transactionIndex": "0x8",
          "logIndex": "0x2f",
          "removed": false
        },
        {
          "address": "0xaA8E23Fb1079EA71e0a56F48a2aA51851D8433D0",
          "topics": [
            "0xddf252ad1be2c89b69c2b068fc378daa952ba7f163c4a11628f55a4df523b3ef",
            "0x000000000000000000000000557150d167ca1259856cf1e4e327108b16543098",
            "0x000000000000000000000000af0f6e8b0dc5c913bbf4d14c22b4e78dd14310b6"
          ],
          "data": "0x000000000000000000000000000000000000000000000000000000047d6a845b",
          "blockHash": "0xe5df071f73dbc2eede900c38504eba667c2d1cc493d7eef196325c98d44ea6e7",
          "blockNumber": "0x464e49",
          "transactionHash": "0x77d260babcbad6abb83c37a97e884f3ff994cabc7a2ef6f626114983546bc3e4",
          "transactionIndex": "0x8",
          "logIndex": "0x30",
          "removed": false
        },
        {
          "address": "0xaA8E23Fb1079EA71e0a56F48a2aA51851D8433D0",
          "topics": [
            "0x8c5be1e5ebec7d5bd14f71427d1e84f3dd0314c0f7b2291e5b200ac8c7c3b925",
            "0x000000000000000000000000557150d167ca1259856cf1e4e327108b16543098",
            "0x0000000000000000000000006ae43d3271ff6888e7fc43fd7321a503ff738951"
          ],
          "data": "0x0000000000000000000000000000000000000000000000000000000000000000",
          "blockHash": "0xe5df071f73dbc2eede900c38504eba667c2d1cc493d7eef196325c98d44ea6e7",
          "blockNumber": "0x464e49",
          "transactionHash": "0x77d260babcbad6abb83c37a97e884f3ff994cabc7a2ef6f626114983546bc3e4",
          "transactionIndex": "0x8",
          "logIndex": "0x31",
          "removed": false
        },
        {
          "address": "0x6Ae43d3271ff6888e7Fc43Fd7321a503ff738951",
          "topics": [
            "0xa534c8dbe71f871f9f3530e97a74601fea17b426cae02e1c5aee42c96c784051",
            "0x000000000000000000000000aa8e23fb1079ea71e0a56f48a2aa51851d8433d0",
            "0x000000000000000000000000c5e0b6e472dde70eceffa4c568bd52f2a7a1632a",
            "0x000000000000000000000000557150d167ca1259856cf1e4e327108b16543098"
          ],
          "data": "0x000000000000000000000000000000000000000000000000000000047d6a845b0000000000000000000000000000000000000000000000000000000000000000",
          "blockHash": "0xe5df071f73dbc2eede900c38504eba667c2d1cc493d7eef196325c98d44ea6e7",
          "blockNumber": "0x464e49",
          "transactionHash": "0x77d260babcbad6abb83c37a97e884f3ff994cabc7a2ef6f626114983546bc3e4",
          "transactionIndex": "0x8",
          "logIndex": "0x32",
          "removed": false
        },
        {
          "address": "0xaA8E23Fb1079EA71e0a56F48a2aA51851D8433D0",
          "topics": [
            "0x8c5be1e5ebec7d5bd14f71427d1e84f3dd0314c0f7b2291e5b200ac8c7c3b925",
            "0x000000000000000000000000557150d167ca1259856cf1e4e327108b16543098",
            "0x0000000000000000000000006ae43d3271ff6888e7fc43fd7321a503ff738951"
          ],
          "data": "0x0000000000000000000000000000000000000000000000000000000000989a17",
          "blockHash": "0xe5df071f73dbc2eede900c38504eba667c2d1cc493d7eef196325c98d44ea6e7",
          "blockNumber": "0x464e49",
          "transactionHash": "0x77d260babcbad6abb83c37a97e884f3ff994cabc7a2ef6f626114983546bc3e4",
          "transactionIndex": "0x8",
          "logIndex": "0x33",
          "removed": false
        },
        {
          "address": "0xEAF54fA3b1C7243033C2893c6B807f9cEaBCf0AF",
          "topics": [
            "0xddf252ad1be2c89b69c2b068fc378daa952ba7f163c4a11628f55a4df523b3ef",
            "0x000000000000000000000000c5e0b6e472dde70eceffa4c568bd52f2a7a1632a",
            "0x0000000000000000000000000000000000000000000000000000000000000000"
          ],
          "data": "0x000000000000000000000000000000000000000000000000000000000098967c",
          "blockHash": "0xe5df071f73dbc2eede900c38504eba667c2d1cc493d7eef196325c98d44ea6e7",
          "blockNumber": "0x464e49",
          "transactionHash": "0x77d260babcbad6abb83c37a97e884f3ff994cabc7a2ef6f626114983546bc3e4",
          "transactionIndex": "0x8",
          "logIndex": "0x34",
          "removed": false
        },
        {
          "address": "0xEAF54fA3b1C7243033C2893c6B807f9cEaBCf0AF",
          "topics": [
            "0x44bd20a79e993bdcc7cbedf54a3b4d19fb78490124b6b90d04fe3242eea579e8",
            "0x000000000000000000000000c5e0b6e472dde70eceffa4c568bd52f2a7a1632a"
          ],
          "data": "0x000000000000000000000000000000000000000000000000000000000098967c0000000000000000000000000000000000000000000000000000000000989a1b000000000000000000000000000000000000000000000000000000000000039b0000000000000000000000000000000000000000002b61797a8ed15f714625740000000000000000000000000000000000000000000000000000001e2652d089",
          "blockHash": "0xe5df071f73dbc2eede900c38504eba667c2d1cc493d7eef196325c98d44ea6e7",
          "blockNumber": "0x464e49",
          "transactionHash": "0x77d260babcbad6abb83c37a97e884f3ff994cabc7a2ef6f626114983546bc3e4",
          "transactionIndex": "0x8",
          "logIndex": "0x35",
          "removed": false
        },
        {
          "address": "0x6Ae43d3271ff6888e7Fc43Fd7321a503ff738951",
          "topics": [
            "0x804c9b842b2748a22bb64b345453a3de7ca54a6ca45ce00d415894979e22897a",
            "0x000000000000000000000000aa8e23fb1079ea71e0a56f48a2aa51851d8433d0"
          ],
          "data": "0x000000000000000000000000000000000000000000000394400e7fcca77d851000000000000000000000000000000000000000000029613bc734a11b14475d51000000000000000000000000000000000000000000002a92c684d58d123aea8b00000000000000000000000000000000000000000342ac3c14426e7331d34d0200000000000000000000000000000000000000000345056256d57e51cecec307",
          "blockHash": "0xe5df071f73dbc2eede900c38504eba667c2d1cc493d7eef196325c98d44ea6e7",
          "blockNumber": "0x464e49",
          "transactionHash": "0x77d260babcbad6abb83c37a97e884f3ff994cabc7a2ef6f626114983546bc3e4",
          "transactionIndex": "0x8",
          "logIndex": "0x36",
          "removed": false
        },
        {
          "address": "0xaA8E23Fb1079EA71e0a56F48a2aA51851D8433D0",
          "topics": [
            "0xddf252ad1be2c89b69c2b068fc378daa952ba7f163c4a11628f55a4df523b3ef",
            "0x000000000000000000000000557150d167ca1259856cf1e4e327108b16543098",
            "0x000000000000000000000000af0f6e8b0dc5c913bbf4d14c22b4e78dd14310b6"
          ],
          "data": "0x0000000000000000000000000000000000000000000000000000000000989a17",
          "blockHash": "0xe5df071f73dbc2eede900c38504eba667c2d1cc493d7eef196325c98d44ea6e7",
          "blockNumber": "0x464e49",
          "transactionHash": "0x77d260babcbad6abb83c37a97e884f3ff994cabc7a2ef6f626114983546bc3e4",
          "transactionIndex": "0x8",
          "logIndex": "0x37",
          "removed": false
        },
        {
          "address": "0xaA8E23Fb1079EA71e0a56F48a2aA51851D8433D0",
          "topics": [
            "0x8c5be1e5ebec7d5bd14f71427d1e84f3dd0314c0f7b2291e5b200ac8c7c3b925",
            "0x000000000000000000000000557150d167ca1259856cf1e4e327108b16543098",
            "0x0000000000000000000000006ae43d3271ff6888e7fc43fd7321a503ff738951"
          ],
          "data": "0x0000000000000000000000000000000000000000000000000000000000000000",
          "blockHash": "0xe5df071f73dbc2eede900c38504eba667c2d1cc493d7eef196325c98d44ea6e7",
          "blockNumber": "0x464e49",
          "transactionHash": "0x77d260babcbad6abb83c37a97e884f3ff994cabc7a2ef6f626114983546bc3e4",
          "transactionIndex": "0x8",
          "logIndex": "0x38",
          "removed": false
        },
        {
          "address": "0x6Ae43d3271ff6888e7Fc43Fd7321a503ff738951",
          "topics": [
            "0xa534c8dbe71f871f9f3530e97a74601fea17b426cae02e1c5aee42c96c784051",
            "0x000000000000000000000000aa8e23fb1079ea71e0a56f48a2aa51851d8433d0",
            "0x000000000000000000000000c5e0b6e472dde70eceffa4c568bd52f2a7a1632a",
            "0x000000000000000000000000557150d167ca1259856cf1e4e327108b16543098"
          ],
          "data": "0x0000000000000000000000000000000000000000000000000000000000989a170000000000000000000000000000000000000000000000000000000000000000",
          "blockHash": "0xe5df071f73dbc2eede900c38504eba667c2d1cc493d7eef196325c98d44ea6e7",
          "blockNumber": "0x464e49",
          "transactionHash": "0x77d260babcbad6abb83c37a97e884f3ff994cabc7a2ef6f626114983546bc3e4",
          "transactionIndex": "0x8",
          "logIndex": "0x39",
          "removed": false
        },
        {
          "address": "0x6d906e526a4e2Ca02097BA9d0caA3c382F52278E",
          "topics": [
            "0x8c5be1e5ebec7d5bd14f71427d1e84f3dd0314c0f7b2291e5b200ac8c7c3b925",
            "0x000000000000000000000000557150d167ca1259856cf1e4e327108b16543098",
            "0x0000000000000000000000006ae43d3271ff6888e7fc43fd7321a503ff738951"
          ],
          "data": "0x00000000000000000000000000000000000000000000000000000000000000c9",
          "blockHash": "0xe5df071f73dbc2eede900c38504eba667c2d1cc493d7eef196325c98d44ea6e7",
          "blockNumber": "0x464e49",
          "transactionHash": "0x77d260babcbad6abb83c37a97e884f3ff994cabc7a2ef6f626114983546bc3e4",
          "transactionIndex": "0x8",
          "logIndex": "0x3a",
          "removed": false
        },
        {
          "address": "0x94482C7A7477196259D8a0f74fB853277Fa5a75b",
          "topics": [
            "0xddf252ad1be2c89b69c2b068fc378daa952ba7f163c4a11628f55a4df523b3ef",
            "0x000000000000000000000000c5e0b6e472dde70eceffa4c568bd52f2a7a1632a",
            "0x0000000000000000000000000000000000000000000000000000000000000000"
          ],
          "data": "0x00000000000000000000000000000000000000000000000000000000000000c8",
          "blockHash": "0xe5df071f73dbc2eede900c38504eba667c2d1cc493d7eef196325c98d44ea6e7",
          "blockNumber": "0x464e49",
          "transactionHash": "0x77d260babcbad6abb83c37a97e884f3ff994cabc7a2ef6f626114983546bc3e4",
          "transactionIndex": "0x8",
          "logIndex": "0x3b",
          "removed": false
        },
        {
          "address": "0x94482C7A7477196259D8a0f74fB853277Fa5a75b",
          "topics": [
            "0x4cf25bc1d991c17529c25213d3cc0cda295eeaad5f13f361969b12ea48015f90",
            "0x000000000000000000000000c5e0b6e472dde70eceffa4c568bd52f2a7a1632a",
            "0x0000000000000000000000000000000000000000000000000000000000000000"
          ],
          "data": "0x00000000000000000000000000000000000000000000000000000000000000c800000000000000000000000000000000000000000000000000000000000000010000000000000000000000000000000000000000034e731a6665c8f9b06f324d",
          "blockHash": "0xe5df071f73dbc2eede900c38504eba667c2d1cc493d7eef196325c98d44ea6e7",
          "blockNumber": "0x464e49",
          "transactionHash": "0x77d260babcbad6abb83c37a97e884f3ff994cabc7a2ef6f626114983546bc3e4",
          "transactionIndex": "0x8",
          "logIndex": "0x3c",
          "removed": false
        },
        {
          "address": "0x6Ae43d3271ff6888e7Fc43Fd7321a503ff738951",
          "topics": [
            "0x804c9b842b2748a22bb64b345453a3de7ca54a6ca45ce00d415894979e22897a",
            "0x0000000000000000000000006d906e526a4e2ca02097ba9d0caa3c382f52278e"
          ],
          "data": "0x0000000000000000000000000000000000000000014b73770facbd678c7884370000000000000000000000000000000000000000018c29146c122ba5d12fcc9a0000000000000000000000000000000000000000017fc0b4caf429b9622fcc9a0000000000000000000000000000000000000000034b170a688e97699d2f96710000000000000000000000000000000000000000034e731a6665c8f9b06f324d",
          "blockHash": "0xe5df071f73dbc2eede900c38504eba667c2d1cc493d7eef196325c98d44ea6e7",
          "blockNumber": "0x464e49",
          "transactionHash": "0x77d260babcbad6abb83c37a97e884f3ff994cabc7a2ef6f626114983546bc3e4",
          "transactionIndex": "0x8",
          "logIndex": "0x3d",
          "removed": false
        },
        {
          "address": "0x6d906e526a4e2Ca02097BA9d0caA3c382F52278E",
          "topics": [
            "0xddf252ad1be2c89b69c2b068fc378daa952ba7f163c4a11628f55a4df523b3ef",
            "0x000000000000000000000000557150d167ca1259856cf1e4e327108b16543098",
            "0x000000000000000000000000b20691021f9aced8631edaa3c0cd2949eb45662d"
          ],
          "data": "0x00000000000000000000000000000000000000000000000000000000000000c9",
          "blockHash": "0xe5df071f73dbc2eede900c38504eba667c2d1cc493d7eef196325c98d44ea6e7",
          "blockNumber": "0x464e49",
          "transactionHash": "0x77d260babcbad6abb83c37a97e884f3ff994cabc7a2ef6f626114983546bc3e4",
          "transactionIndex": "0x8",
          "logIndex": "0x3e",
          "removed": false
        },
        {
          "address": "0x6d906e526a4e2Ca02097BA9d0caA3c382F52278E",
          "topics": [
            "0x8c5be1e5ebec7d5bd14f71427d1e84f3dd0314c0f7b2291e5b200ac8c7c3b925",
            "0x000000000000000000000000557150d167ca1259856cf1e4e327108b16543098",
            "0x0000000000000000000000006ae43d3271ff6888e7fc43fd7321a503ff738951"
          ],
          "data": "0x0000000000000000000000000000000000000000000000000000000000000000",
          "blockHash": "0xe5df071f73dbc2eede900c38504eba667c2d1cc493d7eef196325c98d44ea6e7",
          "blockNumber": "0x464e49",
          "transactionHash": "0x77d260babcbad6abb83c37a97e884f3ff994cabc7a2ef6f626114983546bc3e4",
          "transactionIndex": "0x8",
          "logIndex": "0x3f",
          "removed": false
        },
        {
          "address": "0x6Ae43d3271ff6888e7Fc43Fd7321a503ff738951",
          "topics": [
            "0xa534c8dbe71f871f9f3530e97a74601fea17b426cae02e1c5aee42c96c784051",
            "0x0000000000000000000000006d906e526a4e2ca02097ba9d0caa3c382f52278e",
            "0x000000000000000000000000c5e0b6e472dde70eceffa4c568bd52f2a7a1632a",
            "0x000000000000000000000000557150d167ca1259856cf1e4e327108b16543098"
          ],
          "data": "0x00000000000000000000000000000000000000000000000000000000000000c90000000000000000000000000000000000000000000000000000000000000000",
          "blockHash": "0xe5df071f73dbc2eede900c38504eba667c2d1cc493d7eef196325c98d44ea6e7",
          "blockNumber": "0x464e49",
          "transactionHash": "0x77d260babcbad6abb83c37a97e884f3ff994cabc7a2ef6f626114983546bc3e4",
          "transactionIndex": "0x8",
          "logIndex": "0x40",
          "removed": false
        },
        {
          "address": "0x6d906e526a4e2Ca02097BA9d0caA3c382F52278E",
          "topics": [
            "0x8c5be1e5ebec7d5bd14f71427d1e84f3dd0314c0f7b2291e5b200ac8c7c3b925",
            "0x000000000000000000000000557150d167ca1259856cf1e4e327108b16543098",
            "0x0000000000000000000000006ae43d3271ff6888e7fc43fd7321a503ff738951"
          ],
          "data": "0x00000000000000000000000000000000000000000000000000000000000002bd",
          "blockHash": "0xe5df071f73dbc2eede900c38504eba667c2d1cc493d7eef196325c98d44ea6e7",
          "blockNumber": "0x464e49",
          "transactionHash": "0x77d260babcbad6abb83c37a97e884f3ff994cabc7a2ef6f626114983546bc3e4",
          "transactionIndex": "0x8",
          "logIndex": "0x41",
          "removed": false
        },
        {
          "address": "0x08878209484D8178DD1FFA50AB1689F21aDBB856",
          "topics": [
            "0xddf252ad1be2c89b69c2b068fc378daa952ba7f163c4a11628f55a4df523b3ef",
            "0x000000000000000000000000c5e0b6e472dde70eceffa4c568bd52f2a7a1632a",
            "0x0000000000000000000000000000000000000000000000000000000000000000"
          ],
          "data": "0x00000000000000000000000000000000000000000000000000000000000002bc",
          "blockHash": "0xe5df071f73dbc2eede900c38504eba667c2d1cc493d7eef196325c98d44ea6e7",
          "blockNumber": "0x464e49",
          "transactionHash": "0x77d260babcbad6abb83c37a97e884f3ff994cabc7a2ef6f626114983546bc3e4",
          "transactionIndex": "0x8",
          "logIndex": "0x42",
          "removed": false
        },
        {
          "address": "0x08878209484D8178DD1FFA50AB1689F21aDBB856",
          "topics": [
            "0x44bd20a79e993bdcc7cbedf54a3b4d19fb78490124b6b90d04fe3242eea579e8",
            "0x000000000000000000000000c5e0b6e472dde70eceffa4c568bd52f2a7a1632a"
          ],
          "data": "0x00000000000000000000000000000000000000000000000000000000000002bc00000000000000000000000000000000000000000000000000000000000002bd00000000000000000000000000000000000000000000000000000000000000010000000000000000000000000000000000000000002bb09f5315325e375e4ce100000000000000000000000000000000000000000000000000000000003fe8d0",
          "blockHash": "0xe5df071f73dbc2eede900c38504eba667c2d1cc493d7eef196325c98d44ea6e7",
          "blockNumber": "0x464e49",
          "transactionHash": "0x77d260babcbad6abb83c37a97e884f3ff994cabc7a2ef6f626114983546bc3e4",
          "transactionIndex": "0x8",
          "logIndex": "0x43",
          "removed": false
        },
        {
          "address": "0x6Ae43d3271ff6888e7Fc43Fd7321a503ff738951",
          "topics": [
            "0x804c9b842b2748a22bb64b345453a3de7ca54a6ca45ce00d415894979e22897a",
            "0x0000000000000000000000006d906e526a4e2ca02097ba9d0caa3c382f52278e"
          ],
          "data": "0x0000000000000000000000000000000000000000014b70ff4a7b7adfd8d4cc5e0000000000000000000000000000000000000000018c26720f772effd0daa0a60000000000000000000000000000000000000000017fbe126e592d1361daa0a60000000000000000000000000000000000000000034b170a688e97699d2f96710000000000000000000000000000000000000000034e731a6665c8f9b06f324d",
          "blockHash": "0xe5df071f73dbc2eede900c38504eba667c2d1cc493d7eef196325c98d44ea6e7",
          "blockNumber": "0x464e49",
          "transactionHash": "0x77d260babcbad6abb83c37a97e884f3ff994cabc7a2ef6f626114983546bc3e4",
          "transactionIndex": "0x8",
          "logIndex": "0x44",
          "removed": false
        },
        {
          "address": "0x6d906e526a4e2Ca02097BA9d0caA3c382F52278E",
          "topics": [
            "0xddf252ad1be2c89b69c2b068fc378daa952ba7f163c4a11628f55a4df523b3ef",
            "0x000000000000000000000000557150d167ca1259856cf1e4e327108b16543098",
            "0x000000000000000000000000b20691021f9aced8631edaa3c0cd2949eb45662d"
          ],
          "data": "0x00000000000000000000000000000000000000000000000000000000000002bd",
          "blockHash": "0xe5df071f73dbc2eede900c38504eba667c2d1cc493d7eef196325c98d44ea6e7",
          "blockNumber": "0x464e49",
          "transactionHash": "0x77d260babcbad6abb83c37a97e884f3ff994cabc7a2ef6f626114983546bc3e4",
          "transactionIndex": "0x8",
          "logIndex": "0x45",
          "removed": false
        },
        {
          "address": "0x6d906e526a4e2Ca02097BA9d0caA3c382F52278E",
          "topics": [
            "0x8c5be1e5ebec7d5bd14f71427d1e84f3dd0314c0f7b2291e5b200ac8c7c3b925",
            "0x000000000000000000000000557150d167ca1259856cf1e4e327108b16543098",
            "0x0000000000000000000000006ae43d3271ff6888e7fc43fd7321a503ff738951"
          ],
          "data": "0x0000000000000000000000000000000000000000000000000000000000000000",
          "blockHash": "0xe5df071f73dbc2eede900c38504eba667c2d1cc493d7eef196325c98d44ea6e7",
          "blockNumber": "0x464e49",
          "transactionHash": "0x77d260babcbad6abb83c37a97e884f3ff994cabc7a2ef6f626114983546bc3e4",
          "transactionIndex": "0x8",
          "logIndex": "0x46",
          "removed": false
        },
        {
          "address": "0x6Ae43d3271ff6888e7Fc43Fd7321a503ff738951",
          "topics": [
            "0xa534c8dbe71f871f9f3530e97a74601fea17b426cae02e1c5aee42c96c784051",
            "0x0000000000000000000000006d906e526a4e2ca02097ba9d0caa3c382f52278e",
            "0x000000000000000000000000c5e0b6e472dde70eceffa4c568bd52f2a7a1632a",
            "0x000000000000000000000000557150d167ca1259856cf1e4e327108b16543098"
          ],
          "data": "0x00000000000000000000000000000000000000000000000000000000000002bd0000000000000000000000000000000000000000000000000000000000000000",
          "blockHash": "0xe5df071f73dbc2eede900c38504eba667c2d1cc493d7eef196325c98d44ea6e7",
          "blockNumber": "0x464e49",
          "transactionHash": "0x77d260babcbad6abb83c37a97e884f3ff994cabc7a2ef6f626114983546bc3e4",
          "transactionIndex": "0x8",
          "logIndex": "0x47",
          "removed": false
        },
        {
          "address": "0x3FfAf50D4F4E96eB78f2407c090b72e86eCaed24",
          "topics": [
            "0x8c5be1e5ebec7d5bd14f71427d1e84f3dd0314c0f7b2291e5b200ac8c7c3b925",
            "0x000000000000000000000000c5e0b6e472dde70eceffa4c568bd52f2a7a1632a",
            "0x000000000000000000000000557150d167ca1259856cf1e4e327108b16543098"
          ],
          "data": "0x0000000000000000000000000000000000000000000000000000000000000000",
          "blockHash": "0xe5df071f73dbc2eede900c38504eba667c2d1cc493d7eef196325c98d44ea6e7",
          "blockNumber": "0x464e49",
          "transactionHash": "0x77d260babcbad6abb83c37a97e884f3ff994cabc7a2ef6f626114983546bc3e4",
          "transactionIndex": "0x8",
          "logIndex": "0x48",
          "removed": false
        },
        {
          "address": "0x3FfAf50D4F4E96eB78f2407c090b72e86eCaed24",
          "topics": [
            "0xddf252ad1be2c89b69c2b068fc378daa952ba7f163c4a11628f55a4df523b3ef",
            "0x0000000000000000000000000000000000000000000000000000000000000000",
            "0x000000000000000000000000c5e0b6e472dde70eceffa4c568bd52f2a7a1632a"
          ],
          "data": "0x000000000000000000000000000000000000000000000000ed9e9b79bddd78e8",
          "blockHash": "0xe5df071f73dbc2eede900c38504eba667c2d1cc493d7eef196325c98d44ea6e7",
          "blockNumber": "0x464e49",
          "transactionHash": "0x77d260babcbad6abb83c37a97e884f3ff994cabc7a2ef6f626114983546bc3e4",
          "transactionIndex": "0x8",
          "logIndex": "0x49",
          "removed": false
        },
        {
          "address": "0x3FfAf50D4F4E96eB78f2407c090b72e86eCaed24",
          "topics": [
            "0x458f5fa412d0f69b08dd84872b0215675cc67bc1d5b6fd93300a1c3878b86196",
            "0x000000000000000000000000557150d167ca1259856cf1e4e327108b16543098",
            "0x000000000000000000000000c5e0b6e472dde70eceffa4c568bd52f2a7a1632a"
          ],
          "data": "0x000000000000000000000000000000000000000000000000ed9e9b79bddd78e8000000000000000000000000000000000000000000000000ed9e9b79bddd78e80000000000000000000000000000000000000000038763d8482da1ee72e304cc",
          "blockHash": "0xe5df071f73dbc2eede900c38504eba667c2d1cc493d7eef196325c98d44ea6e7",
          "blockNumber": "0x464e49",
          "transactionHash": "0x77d260babcbad6abb83c37a97e884f3ff994cabc7a2ef6f626114983546bc3e4",
          "transactionIndex": "0x8",
          "logIndex": "0x4a",
          "removed": false
        },
        {
          "address": "0x3FfAf50D4F4E96eB78f2407c090b72e86eCaed24",
          "topics": [
            "0xddf252ad1be2c89b69c2b068fc378daa952ba7f163c4a11628f55a4df523b3ef",
            "0x0000000000000000000000000000000000000000000000000000000000000000",
            "0x0000000000000000000000003e122a3db43d225dd5bffd929ad4176ce69117e0"
          ],
          "data": "0x0000000000000000000000000000000000000000000000000000afd021306a4b",
          "blockHash": "0xe5df071f73dbc2eede900c38504eba667c2d1cc493d7eef196325c98d44ea6e7",
          "blockNumber": "0x464e49",
          "transactionHash": "0x77d260babcbad6abb83c37a97e884f3ff994cabc7a2ef6f626114983546bc3e4",
          "transactionIndex": "0x8",
          "logIndex": "0x4b",
          "removed": false
        },
        {
          "address": "0x3FfAf50D4F4E96eB78f2407c090b72e86eCaed24",
          "topics": [
            "0x458f5fa412d0f69b08dd84872b0215675cc67bc1d5b6fd93300a1c3878b86196",
            "0x000000000000000000000000557150d167ca1259856cf1e4e327108b16543098",
            "0x0000000000000000000000003e122a3db43d225dd5bffd929ad4176ce69117e0"
          ],
          "data": "0x0000000000000000000000000000000000000000000000000000afd021306a4b0000000000000000000000000000000000000000000000000000afd021306a4b0000000000000000000000000000000000000000038763d8482da1ee72e304cc",
          "blockHash": "0xe5df071f73dbc2eede900c38504eba667c2d1cc493d7eef196325c98d44ea6e7",
          "blockNumber": "0x464e49",
          "transactionHash": "0x77d260babcbad6abb83c37a97e884f3ff994cabc7a2ef6f626114983546bc3e4",
          "transactionIndex": "0x8",
          "logIndex": "0x4c",
          "removed": false
        },
        {
          "address": "0x3FfAf50D4F4E96eB78f2407c090b72e86eCaed24",
          "topics": [
            "0xddf252ad1be2c89b69c2b068fc378daa952ba7f163c4a11628f55a4df523b3ef",
            "0x000000000000000000000000c5e0b6e472dde70eceffa4c568bd52f2a7a1632a",
            "0x0000000000000000000000003e122a3db43d225dd5bffd929ad4176ce69117e0"
          ],
          "data": "0x000000000000000000000000000000000000000000000038a04049dff5a19a29",
          "blockHash": "0xe5df071f73dbc2eede900c38504eba667c2d1cc493d7eef196325c98d44ea6e7",
          "blockNumber": "0x464e49",
          "transactionHash": "0x77d260babcbad6abb83c37a97e884f3ff994cabc7a2ef6f626114983546bc3e4",
          "transactionIndex": "0x8",
          "logIndex": "0x4d",
          "removed": false
        },
        {
          "address": "0x3FfAf50D4F4E96eB78f2407c090b72e86eCaed24",
          "topics": [
            "0x4beccb90f994c31aced7a23b5611020728a23d8ec5cddd1a3e9d97b96fda8666",
            "0x000000000000000000000000c5e0b6e472dde70eceffa4c568bd52f2a7a1632a",
            "0x0000000000000000000000003e122a3db43d225dd5bffd929ad4176ce69117e0"
          ],
          "data": "0x000000000000000000000000000000000000000000000033d95b4b5a22ff07710000000000000000000000000000000000000000038763d8482da1ee72e304cc",
          "blockHash": "0xe5df071f73dbc2eede900c38504eba667c2d1cc493d7eef196325c98d44ea6e7",
          "blockNumber": "0x464e49",
          "transactionHash": "0x77d260babcbad6abb83c37a97e884f3ff994cabc7a2ef6f626114983546bc3e4",
          "transactionIndex": "0x8",
          "logIndex": "0x4e",
          "removed": false
        },
        {
          "address": "0x16dA4541aD1807f4443d92D26044C1147406EB80",
          "topics": [
            "0x8c5be1e5ebec7d5bd14f71427d1e84f3dd0314c0f7b2291e5b200ac8c7c3b925",
            "0x000000000000000000000000c5e0b6e472dde70eceffa4c568bd52f2a7a1632a",
            "0x000000000000000000000000557150d167ca1259856cf1e4e327108b16543098"
          ],
          "data": "0x0000000000000000000000000000000000000000000000000000000000000000",
          "blockHash": "0xe5df071f73dbc2eede900c38504eba667c2d1cc493d7eef196325c98d44ea6e7",
          "blockNumber": "0x464e49",
          "transactionHash": "0x77d260babcbad6abb83c37a97e884f3ff994cabc7a2ef6f626114983546bc3e4",
          "transactionIndex": "0x8",
          "logIndex": "0x4f",
          "removed": false
        },
        {
          "address": "0x16dA4541aD1807f4443d92D26044C1147406EB80",
          "topics": [
            "0xddf252ad1be2c89b69c2b068fc378daa952ba7f163c4a11628f55a4df523b3ef",
            "0x0000000000000000000000000000000000000000000000000000000000000000",
            "0x000000000000000000000000c5e0b6e472dde70eceffa4c568bd52f2a7a1632a"
          ],
          "data": "0x0000000000000000000000000000000000000000000000000000000000031a8b",
          "blockHash": "0xe5df071f73dbc2eede900c38504eba667c2d1cc493d7eef196325c98d44ea6e7",
          "blockNumber": "0x464e49",
          "transactionHash": "0x77d260babcbad6abb83c37a97e884f3ff994cabc7a2ef6f626114983546bc3e4",
          "transactionIndex": "0x8",
          "logIndex": "0x50",
          "removed": false
        },
        {
          "address": "0x16dA4541aD1807f4443d92D26044C1147406EB80",
          "topics": [
            "0x458f5fa412d0f69b08dd84872b0215675cc67bc1d5b6fd93300a1c3878b86196",
            "0x000000000000000000000000557150d167ca1259856cf1e4e327108b16543098",
            "0x000000000000000000000000c5e0b6e472dde70eceffa4c568bd52f2a7a1632a"
          ],
          "data": "0x0000000000000000000000000000000000000000000000000000000000031a8b0000000000000000000000000000000000000000000000000000000000031a8b000000000000000000000000000000000000000003498b033477e6196f68eb50",
          "blockHash": "0xe5df071f73dbc2eede900c38504eba667c2d1cc493d7eef196325c98d44ea6e7",
          "blockNumber": "0x464e49",
          "transactionHash": "0x77d260babcbad6abb83c37a97e884f3ff994cabc7a2ef6f626114983546bc3e4",
          "transactionIndex": "0x8",
          "logIndex": "0x51",
          "removed": false
        },
        {
          "address": "0x16dA4541aD1807f4443d92D26044C1147406EB80",
          "topics": [
            "0xddf252ad1be2c89b69c2b068fc378daa952ba7f163c4a11628f55a4df523b3ef",
            "0x000000000000000000000000c5e0b6e472dde70eceffa4c568bd52f2a7a1632a",
            "0x0000000000000000000000003e122a3db43d225dd5bffd929ad4176ce69117e0"
          ],
          "data": "0x000000000000000000000000000000000000000000000000000000003ca61876",
          "blockHash": "0xe5df071f73dbc2eede900c38504eba667c2d1cc493d7eef196325c98d44ea6e7",
          "blockNumber": "0x464e49",
          "transactionHash": "0x77d260babcbad6abb83c37a97e884f3ff994cabc7a2ef6f626114983546bc3e4",
          "transactionIndex": "0x8",
          "logIndex": "0x52",
          "removed": false
        },
        {
          "address": "0x16dA4541aD1807f4443d92D26044C1147406EB80",
          "topics": [
            "0x4beccb90f994c31aced7a23b5611020728a23d8ec5cddd1a3e9d97b96fda8666",
            "0x000000000000000000000000c5e0b6e472dde70eceffa4c568bd52f2a7a1632a",
            "0x0000000000000000000000003e122a3db43d225dd5bffd929ad4176ce69117e0"
          ],
          "data": "0x000000000000000000000000000000000000000000000000000000003b9d1d94000000000000000000000000000000000000000003498b033477e6196f68eb50",
          "blockHash": "0xe5df071f73dbc2eede900c38504eba667c2d1cc493d7eef196325c98d44ea6e7",
          "blockNumber": "0x464e49",
          "transactionHash": "0x77d260babcbad6abb83c37a97e884f3ff994cabc7a2ef6f626114983546bc3e4",
          "transactionIndex": "0x8",
          "logIndex": "0x53",
          "removed": false
        },
        {
          "address": "0x1804Bf30507dc2EB3bDEbbbdd859991EAeF6EefF",
          "topics": [
            "0x8c5be1e5ebec7d5bd14f71427d1e84f3dd0314c0f7b2291e5b200ac8c7c3b925",
            "0x000000000000000000000000c5e0b6e472dde70eceffa4c568bd52f2a7a1632a",
            "0x000000000000000000000000557150d167ca1259856cf1e4e327108b16543098"
          ],
          "data": "0x0000000000000000000000000000000000000000000000000000000000000000",
          "blockHash": "0xe5df071f73dbc2eede900c38504eba667c2d1cc493d7eef196325c98d44ea6e7",
          "blockNumber": "0x464e49",
          "transactionHash": "0x77d260babcbad6abb83c37a97e884f3ff994cabc7a2ef6f626114983546bc3e4",
          "transactionIndex": "0x8",
          "logIndex": "0x54",
          "removed": false
        },
        {
          "address": "0x1804Bf30507dc2EB3bDEbbbdd859991EAeF6EefF",
          "topics": [
            "0xddf252ad1be2c89b69c2b068fc378daa952ba7f163c4a11628f55a4df523b3ef",
            "0x000000000000000000000000c5e0b6e472dde70eceffa4c568bd52f2a7a1632a",
            "0x0000000000000000000000003e122a3db43d225dd5bffd929ad4176ce69117e0"
          ],
          "data": "0x0000000000000000000000000000000000000000000000000000000005f5e101",
          "blockHash": "0xe5df071f73dbc2eede900c38504eba667c2d1cc493d7eef196325c98d44ea6e7",
          "blockNumber": "0x464e49",
          "transactionHash": "0x77d260babcbad6abb83c37a97e884f3ff994cabc7a2ef6f626114983546bc3e4",
          "transactionIndex": "0x8",
          "logIndex": "0x55",
          "removed": false
        },
        {
          "address": "0x6Ae43d3271ff6888e7Fc43Fd7321a503ff738951",
          "topics": [
            "0x44c58d81365b66dd4b1a7f36c25aa97b8c71c361ee4937adc1a00000227db5dd",
            "0x00000000000000000000000029f2d40b0605204364af54ec677bd022da425d03",
            "0x000000000000000000000000c5e0b6e472dde70eceffa4c568bd52f2a7a1632a"
          ],
          "data": "0x",
          "blockHash": "0xe5df071f73dbc2eede900c38504eba667c2d1cc493d7eef196325c98d44ea6e7",
          "blockNumber": "0x464e49",
          "transactionHash": "0x77d260babcbad6abb83c37a97e884f3ff994cabc7a2ef6f626114983546bc3e4",
          "transactionIndex": "0x8",
          "logIndex": "0x56",
          "removed": false
        },
        {
          "address": "0x6Ae43d3271ff6888e7Fc43Fd7321a503ff738951",
          "topics": [
            "0x00058a56ea94653cdf4f152d227ace22d4c00ad99e2a43f58cb7d9e3feb295f2",
            "0x00000000000000000000000029f2d40b0605204364af54ec677bd022da425d03",
            "0x0000000000000000000000003e122a3db43d225dd5bffd929ad4176ce69117e0"
          ],
          "data": "0x",
          "blockHash": "0xe5df071f73dbc2eede900c38504eba667c2d1cc493d7eef196325c98d44ea6e7",
          "blockNumber": "0x464e49",
          "transactionHash": "0x77d260babcbad6abb83c37a97e884f3ff994cabc7a2ef6f626114983546bc3e4",
          "transactionIndex": "0x8",
          "logIndex": "0x57",
          "removed": false
        },
        {
          "address": "0x1804Bf30507dc2EB3bDEbbbdd859991EAeF6EefF",
          "topics": [
            "0x4beccb90f994c31aced7a23b5611020728a23d8ec5cddd1a3e9d97b96fda8666",
            "0x000000000000000000000000c5e0b6e472dde70eceffa4c568bd52f2a7a1632a",
            "0x0000000000000000000000003e122a3db43d225dd5bffd929ad4176ce69117e0"
          ],
          "data": "0x0000000000000000000000000000000000000000000000000000000005f5a3fb0000000000000000000000000000000000000000033b4f526b45c24c8d82cbeb",
          "blockHash": "0xe5df071f73dbc2eede900c38504eba667c2d1cc493d7eef196325c98d44ea6e7",
          "blockNumber": "0x464e49",
          "transactionHash": "0x77d260babcbad6abb83c37a97e884f3ff994cabc7a2ef6f626114983546bc3e4",
          "transactionIndex": "0x8",
          "logIndex": "0x58",
          "removed": false
        },
        {
          "address": "0xAF0F6e8b0Dc5c913bbF4d14c22B4E78Dd14310B6",
          "topics": [
            "0x8c5be1e5ebec7d5bd14f71427d1e84f3dd0314c0f7b2291e5b200ac8c7c3b925",
            "0x000000000000000000000000c5e0b6e472dde70eceffa4c568bd52f2a7a1632a",
            "0x000000000000000000000000557150d167ca1259856cf1e4e327108b16543098"
          ],
          "data": "0x0000000000000000000000000000000000000000000000000000000000000000",
          "blockHash": "0xe5df071f73dbc2eede900c38504eba667c2d1cc493d7eef196325c98d44ea6e7",
          "blockNumber": "0x464e49",
          "transactionHash": "0x77d260babcbad6abb83c37a97e884f3ff994cabc7a2ef6f626114983546bc3e4",
          "transactionIndex": "0x8",
          "logIndex": "0x59",
          "removed": false
        },
        {
          "address": "0xAF0F6e8b0Dc5c913bbF4d14c22B4E78Dd14310B6",
          "topics": [
            "0xddf252ad1be2c89b69c2b068fc378daa952ba7f163c4a11628f55a4df523b3ef",
            "0x0000000000000000000000000000000000000000000000000000000000000000",
            "0x000000000000000000000000c5e0b6e472dde70eceffa4c568bd52f2a7a1632a"
          ],
          "data": "0x000000000000000000000000000000000000000000000000000000000000001e",
          "blockHash": "0xe5df071f73dbc2eede900c38504eba667c2d1cc493d7eef196325c98d44ea6e7",
          "blockNumber": "0x464e49",
          "transactionHash": "0x77d260babcbad6abb83c37a97e884f3ff994cabc7a2ef6f626114983546bc3e4",
          "transactionIndex": "0x8",
          "logIndex": "0x5a",
          "removed": false
        },
        {
          "address": "0xAF0F6e8b0Dc5c913bbF4d14c22B4E78Dd14310B6",
          "topics": [
            "0x458f5fa412d0f69b08dd84872b0215675cc67bc1d5b6fd93300a1c3878b86196",
            "0x000000000000000000000000557150d167ca1259856cf1e4e327108b16543098",
            "0x000000000000000000000000c5e0b6e472dde70eceffa4c568bd52f2a7a1632a"
          ],
          "data": "0x000000000000000000000000000000000000000000000000000000000000001e000000000000000000000000000000000000000000000000000000000000001e00000000000000000000000000000000000000000342ac3c14426e7331d34d02",
          "blockHash": "0xe5df071f73dbc2eede900c38504eba667c2d1cc493d7eef196325c98d44ea6e7",
          "blockNumber": "0x464e49",
          "transactionHash": "0x77d260babcbad6abb83c37a97e884f3ff994cabc7a2ef6f626114983546bc3e4",
          "transactionIndex": "0x8",
          "logIndex": "0x5b",
          "removed": false
        },
        {
          "address": "0xAF0F6e8b0Dc5c913bbF4d14c22B4E78Dd14310B6",
          "topics": [
            "0xddf252ad1be2c89b69c2b068fc378daa952ba7f163c4a11628f55a4df523b3ef",
            "0x000000000000000000000000c5e0b6e472dde70eceffa4c568bd52f2a7a1632a",
            "0x0000000000000000000000003e122a3db43d225dd5bffd929ad4176ce69117e0"
          ],
          "data": "0x00000000000000000000000000000000000000000000000000000000001ec2a9",
          "blockHash": "0xe5df071f73dbc2eede900c38504eba667c2d1cc493d7eef196325c98d44ea6e7",
          "blockNumber": "0x464e49",
          "transactionHash": "0x77d260babcbad6abb83c37a97e884f3ff994cabc7a2ef6f626114983546bc3e4",
          "transactionIndex": "0x8",
          "logIndex": "0x5c",
          "removed": false
        },
        {
          "address": "0xAF0F6e8b0Dc5c913bbF4d14c22B4E78Dd14310B6",
          "topics": [
            "0x4beccb90f994c31aced7a23b5611020728a23d8ec5cddd1a3e9d97b96fda8666",
            "0x000000000000000000000000c5e0b6e472dde70eceffa4c568bd52f2a7a1632a",
            "0x0000000000000000000000003e122a3db43d225dd5bffd929ad4176ce69117e0"
          ],
          "data": "0x00000000000000000000000000000000000000000000000000000000001e7bfa00000000000000000000000000000000000000000342ac3c14426e7331d34d02",
          "blockHash": "0xe5df071f73dbc2eede900c38504eba667c2d1cc493d7eef196325c98d44ea6e7",
          "blockNumber": "0x464e49",
          "transactionHash": "0x77d260babcbad6abb83c37a97e884f3ff994cabc7a2ef6f626114983546bc3e4",
          "transactionIndex": "0x8",
          "logIndex": "0x5d",
          "removed": false
        },
        {
          "address": "0x6b8558764d3b7572136F17174Cb9aB1DDc7E1259",
          "topics": [
            "0x8c5be1e5ebec7d5bd14f71427d1e84f3dd0314c0f7b2291e5b200ac8c7c3b925",
            "0x000000000000000000000000c5e0b6e472dde70eceffa4c568bd52f2a7a1632a",
            "0x000000000000000000000000557150d167ca1259856cf1e4e327108b16543098"
          ],
          "data": "0x0000000000000000000000000000000000000000000000000000000000000000",
          "blockHash": "0xe5df071f73dbc2eede900c38504eba667c2d1cc493d7eef196325c98d44ea6e7",
          "blockNumber": "0x464e49",
          "transactionHash": "0x77d260babcbad6abb83c37a97e884f3ff994cabc7a2ef6f626114983546bc3e4",
          "transactionIndex": "0x8",
          "logIndex": "0x5e",
          "removed": false
        },
        {
          "address": "0x6b8558764d3b7572136F17174Cb9aB1DDc7E1259",
          "topics": [
            "0xddf252ad1be2c89b69c2b068fc378daa952ba7f163c4a11628f55a4df523b3ef",
            "0x000000000000000000000000c5e0b6e472dde70eceffa4c568bd52f2a7a1632a",
            "0x0000000000000000000000003e122a3db43d225dd5bffd929ad4176ce69117e0"
          ],
          "data": "0x0000000000000000000000000000000000000000000000056bc75e2d63100000",
          "blockHash": "0xe5df071f73dbc2eede900c38504eba667c2d1cc493d7eef196325c98d44ea6e7",
          "blockNumber": "0x464e49",
          "transactionHash": "0x77d260babcbad6abb83c37a97e884f3ff994cabc7a2ef6f626114983546bc3e4",
          "transactionIndex": "0x8",
          "logIndex": "0x5f",
          "removed": false
        },
        {
          "address": "0x6Ae43d3271ff6888e7Fc43Fd7321a503ff738951",
          "topics": [
            "0x44c58d81365b66dd4b1a7f36c25aa97b8c71c361ee4937adc1a00000227db5dd",
            "0x00000000000000000000000088541670e55cc00beefd87eb59edd1b7c511ac9a",
            "0x000000000000000000000000c5e0b6e472dde70eceffa4c568bd52f2a7a1632a"
          ],
          "data": "0x",
          "blockHash": "0xe5df071f73dbc2eede900c38504eba667c2d1cc493d7eef196325c98d44ea6e7",
          "blockNumber": "0x464e49",
          "transactionHash": "0x77d260babcbad6abb83c37a97e884f3ff994cabc7a2ef6f626114983546bc3e4",
          "transactionIndex": "0x8",
          "logIndex": "0x60",
          "removed": false
        },
        {
          "address": "0x6Ae43d3271ff6888e7Fc43Fd7321a503ff738951",
          "topics": [
            "0x00058a56ea94653cdf4f152d227ace22d4c00ad99e2a43f58cb7d9e3feb295f2",
            "0x00000000000000000000000088541670e55cc00beefd87eb59edd1b7c511ac9a",
            "0x0000000000000000000000003e122a3db43d225dd5bffd929ad4176ce69117e0"
          ],
          "data": "0x",
          "blockHash": "0xe5df071f73dbc2eede900c38504eba667c2d1cc493d7eef196325c98d44ea6e7",
          "blockNumber": "0x464e49",
          "transactionHash": "0x77d260babcbad6abb83c37a97e884f3ff994cabc7a2ef6f626114983546bc3e4",
          "transactionIndex": "0x8",
          "logIndex": "0x61",
          "removed": false
        },
        {
          "address": "0x6b8558764d3b7572136F17174Cb9aB1DDc7E1259",
          "topics": [
            "0x4beccb90f994c31aced7a23b5611020728a23d8ec5cddd1a3e9d97b96fda8666",
            "0x000000000000000000000000c5e0b6e472dde70eceffa4c568bd52f2a7a1632a",
            "0x0000000000000000000000003e122a3db43d225dd5bffd929ad4176ce69117e0"
          ],
          "data": "0x0000000000000000000000000000000000000000000000056bc74c139cd4f48f0000000000000000000000000000000000000000033b2e4769c27e5b821decfc",
          "blockHash": "0xe5df071f73dbc2eede900c38504eba667c2d1cc493d7eef196325c98d44ea6e7",
          "blockNumber": "0x464e49",
          "transactionHash": "0x77d260babcbad6abb83c37a97e884f3ff994cabc7a2ef6f626114983546bc3e4",
          "transactionIndex": "0x8",
          "logIndex": "0x62",
          "removed": false
        },
        {
          "address": "0x22675C506A8FC26447aFFfa33640f6af5d4D4cF0",
          "topics": [
            "0xda919360433220e13b51e8c211e490d148e61a3bd53de8c097194e458b97f3e1",
            "0x0000000000000000000000003e122a3db43d225dd5bffd929ad4176ce69117e0",
            "0x000000000000000000000000557150d167ca1259856cf1e4e327108b16543098",
            "0x000000000000000000000000ff34b3d4aee8ddcd6f9afffb6fe49bd371b8a357"
          ],
          "data": "0x00000000000000000000000000000000000000000000001e39d2fd78e1dad227",
          "blockHash": "0xe5df071f73dbc2eede900c38504eba667c2d1cc493d7eef196325c98d44ea6e7",
          "blockNumber": "0x464e49",
          "transactionHash": "0x77d260babcbad6abb83c37a97e884f3ff994cabc7a2ef6f626114983546bc3e4",
          "transactionIndex": "0x8",
          "logIndex": "0x63",
          "removed": false
        },
        {
          "address": "0x22675C506A8FC26447aFFfa33640f6af5d4D4cF0",
          "topics": [
            "0xddf252ad1be2c89b69c2b068fc378daa952ba7f163c4a11628f55a4df523b3ef",
            "0x0000000000000000000000000000000000000000000000000000000000000000",
            "0x0000000000000000000000003e122a3db43d225dd5bffd929ad4176ce69117e0"
          ],
          "data": "0x00000000000000000000000000000000000000000000060ed1e6f47544164600",
          "blockHash": "0xe5df071f73dbc2eede900c38504eba667c2d1cc493d7eef196325c98d44ea6e7",
          "blockNumber": "0x464e49",
          "transactionHash": "0x77d260babcbad6abb83c37a97e884f3ff994cabc7a2ef6f626114983546bc3e4",
          "transactionIndex": "0x8",
          "logIndex": "0x64",
          "removed": false
        },
        {
          "address": "0x22675C506A8FC26447aFFfa33640f6af5d4D4cF0",
          "topics": [
            "0x458f5fa412d0f69b08dd84872b0215675cc67bc1d5b6fd93300a1c3878b86196",
            "0x000000000000000000000000557150d167ca1259856cf1e4e327108b16543098",
            "0x0000000000000000000000003e122a3db43d225dd5bffd929ad4176ce69117e0"
          ],
          "data": "0x00000000000000000000000000000000000000000000060ed1e6f47544164600000000000000000000000000000000000000000000000000000000000000000000000000000000000000000000000000000000000346f45754e8617dd1f052f7",
          "blockHash": "0xe5df071f73dbc2eede900c38504eba667c2d1cc493d7eef196325c98d44ea6e7",
          "blockNumber": "0x464e49",
          "transactionHash": "0x77d260babcbad6abb83c37a97e884f3ff994cabc7a2ef6f626114983546bc3e4",
          "transactionIndex": "0x8",
          "logIndex": "0x65",
          "removed": false
        },
        {
          "address": "0x6Ae43d3271ff6888e7Fc43Fd7321a503ff738951",
          "topics": [
            "0x804c9b842b2748a22bb64b345453a3de7ca54a6ca45ce00d415894979e22897a",
            "0x000000000000000000000000ff34b3d4aee8ddcd6f9afffb6fe49bd371b8a357"
          ],
          "data": "0x00000000000000000000000000000000000000000001f604d0ad556037d7d6450000000000000000000000000000000000000000002a725c69ca6235dc809e6600000000000000000000000000000000000000000008b397db32de635404f32c000000000000000000000000000000000000000003454323425a6c04e6096ad100000000000000000000000000000000000000000346f45754e8617dd1f052f7",
          "blockHash": "0xe5df071f73dbc2eede900c38504eba667c2d1cc493d7eef196325c98d44ea6e7",
          "blockNumber": "0x464e49",
          "transactionHash": "0x77d260babcbad6abb83c37a97e884f3ff994cabc7a2ef6f626114983546bc3e4",
          "transactionIndex": "0x8",
          "logIndex": "0x66",
          "removed": false
        },
        {
          "address": "0xFF34B3d4Aee8ddCd6F9AFFFB6Fe49bD371b8a357",
          "topics": [
            "0xddf252ad1be2c89b69c2b068fc378daa952ba7f163c4a11628f55a4df523b3ef",
            "0x00000000000000000000000029598b72eb5cebd806c5dcd549490fda35b13cd8",
            "0x000000000000000000000000557150d167ca1259856cf1e4e327108b16543098"
          ],
          "data": "0x00000000000000000000000000000000000000000000060ed1e6f47544164600",
          "blockHash": "0xe5df071f73dbc2eede900c38504eba667c2d1cc493d7eef196325c98d44ea6e7",
          "blockNumber": "0x464e49",
          "transactionHash": "0x77d260babcbad6abb83c37a97e884f3ff994cabc7a2ef6f626114983546bc3e4",
          "transactionIndex": "0x8",
          "logIndex": "0x67",
          "removed": false
        },
        {
          "address": "0x6Ae43d3271ff6888e7Fc43Fd7321a503ff738951",
          "topics": [
            "0xb3d084820fb1a9decffb176436bd02558d15fac9b0ddfed8c465bc7359d7dce0",
            "0x000000000000000000000000ff34b3d4aee8ddcd6f9afffb6fe49bd371b8a357",
            "0x0000000000000000000000003e122a3db43d225dd5bffd929ad4176ce69117e0",
            "0x0000000000000000000000000000000000000000000000000000000000000000"
          ],
          "data": "0x000000000000000000000000557150d167ca1259856cf1e4e327108b1654309800000000000000000000000000000000000000000000060ed1e6f47544164600000000000000000000000000000000000000000000000000000000000000000200000000000000000000000000000000000000000008b397db32de635404f32c",
          "blockHash": "0xe5df071f73dbc2eede900c38504eba667c2d1cc493d7eef196325c98d44ea6e7",
          "blockNumber": "0x464e49",
          "transactionHash": "0x77d260babcbad6abb83c37a97e884f3ff994cabc7a2ef6f626114983546bc3e4",
          "transactionIndex": "0x8",
          "logIndex": "0x68",
          "removed": false
        },
        {
          "address": "0xFF34B3d4Aee8ddCd6F9AFFFB6Fe49bD371b8a357",
          "topics": [
            "0x8c5be1e5ebec7d5bd14f71427d1e84f3dd0314c0f7b2291e5b200ac8c7c3b925",
            "0x000000000000000000000000557150d167ca1259856cf1e4e327108b16543098",
            "0x0000000000000000000000006ae43d3271ff6888e7fc43fd7321a503ff738951"
          ],
          "data": "0xffffffffffffffffffffffffffffffffffffffffffffffffffffffffffffffff",
          "blockHash": "0xe5df071f73dbc2eede900c38504eba667c2d1cc493d7eef196325c98d44ea6e7",
          "blockNumber": "0x464e49",
          "transactionHash": "0x77d260babcbad6abb83c37a97e884f3ff994cabc7a2ef6f626114983546bc3e4",
          "transactionIndex": "0x8",
          "logIndex": "0x69",
          "removed": false
        },
        {
          "address": "0xbEF786E742edB13361ff2f005b901A82c23AA491",
          "topics": [
            "0xda919360433220e13b51e8c211e490d148e61a3bd53de8c097194e458b97f3e1",
            "0x0000000000000000000000003e122a3db43d225dd5bffd929ad4176ce69117e0",
            "0x000000000000000000000000557150d167ca1259856cf1e4e327108b16543098",
            "0x000000000000000000000000ff34b3d4aee8ddcd6f9afffb6fe49bd371b8a357"
          ],
          "data": "0x0000000000000000000000000000000000000000000000000569af47f94555c3",
          "blockHash": "0xe5df071f73dbc2eede900c38504eba667c2d1cc493d7eef196325c98d44ea6e7",
          "blockNumber": "0x464e49",
          "transactionHash": "0x77d260babcbad6abb83c37a97e884f3ff994cabc7a2ef6f626114983546bc3e4",
          "transactionIndex": "0x8",
          "logIndex": "0x6a",
          "removed": false
        },
        {
          "address": "0xbEF786E742edB13361ff2f005b901A82c23AA491",
          "topics": [
            "0xddf252ad1be2c89b69c2b068fc378daa952ba7f163c4a11628f55a4df523b3ef",
            "0x0000000000000000000000000000000000000000000000000000000000000000",
            "0x0000000000000000000000003e122a3db43d225dd5bffd929ad4176ce69117e0"
          ],
          "data": "0x00000000000000000000000000000000000000000000000115b848a7e1d1ba27",
          "blockHash": "0xe5df071f73dbc2eede900c38504eba667c2d1cc493d7eef196325c98d44ea6e7",
          "blockNumber": "0x464e49",
          "transactionHash": "0x77d260babcbad6abb83c37a97e884f3ff994cabc7a2ef6f626114983546bc3e4",
          "transactionIndex": "0x8",
          "logIndex": "0x6b",
          "removed": false
        },
        {
          "address": "0xbEF786E742edB13361ff2f005b901A82c23AA491",
          "topics": [
            "0xc16f4e4ca34d790de4c656c72fd015c667d688f20be64eea360618545c4c530f",
            "0x000000000000000000000000557150d167ca1259856cf1e4e327108b16543098",
            "0x0000000000000000000000003e122a3db43d225dd5bffd929ad4176ce69117e0"
          ],
          "data": "0x00000000000000000000000000000000000000000000000115b848a7e1d1ba27000000000000000000000000000000000000000000000000000000000000000000000000000000000000000000000000000000000000000000000000000000000000000000000000000000000000000000000000002a725c69ca6235dc809e660000000000000000000000000000000000000000002c87f1b1417a06a7f39bd6000000000000000000000000000000000000000000000b7a8c523fa1b0463de6",
          "blockHash": "0xe5df071f73dbc2eede900c38504eba667c2d1cc493d7eef196325c98d44ea6e7",
          "blockNumber": "0x464e49",
          "transactionHash": "0x77d260babcbad6abb83c37a97e884f3ff994cabc7a2ef6f626114983546bc3e4",
          "transactionIndex": "0x8",
          "logIndex": "0x6c",
          "removed": false
        },
        {
          "address": "0x6Ae43d3271ff6888e7Fc43Fd7321a503ff738951",
          "topics": [
            "0x804c9b842b2748a22bb64b345453a3de7ca54a6ca45ce00d415894979e22897a",
            "0x000000000000000000000000ff34b3d4aee8ddcd6f9afffb6fe49bd371b8a357"
          ],
          "data": "0x00000000000000000000000000000000000000000001f60f8e977d909f8bb68d0000000000000000000000000000000000000000002a725da11241a07b7b3e5d00000000000000000000000000000000000000000008b3a19571d9b84bd9f2e7000000000000000000000000000000000000000003454323425a6c04e6096ad100000000000000000000000000000000000000000346f45754e8617dd1f052f7",
          "blockHash": "0xe5df071f73dbc2eede900c38504eba667c2d1cc493d7eef196325c98d44ea6e7",
          "blockNumber": "0x464e49",
          "transactionHash": "0x77d260babcbad6abb83c37a97e884f3ff994cabc7a2ef6f626114983546bc3e4",
          "transactionIndex": "0x8",
          "logIndex": "0x6d",
          "removed": false
        },
        {
          "address": "0xFF34B3d4Aee8ddCd6F9AFFFB6Fe49bD371b8a357",
          "topics": [
            "0xddf252ad1be2c89b69c2b068fc378daa952ba7f163c4a11628f55a4df523b3ef",
            "0x00000000000000000000000029598b72eb5cebd806c5dcd549490fda35b13cd8",
            "0x000000000000000000000000557150d167ca1259856cf1e4e327108b16543098"
          ],
          "data": "0x00000000000000000000000000000000000000000000000115b848a7e1d1ba27",
          "blockHash": "0xe5df071f73dbc2eede900c38504eba667c2d1cc493d7eef196325c98d44ea6e7",
          "blockNumber": "0x464e49",
          "transactionHash": "0x77d260babcbad6abb83c37a97e884f3ff994cabc7a2ef6f626114983546bc3e4",
          "transactionIndex": "0x8",
          "logIndex": "0x6e",
          "removed": false
        },
        {
          "address": "0x6Ae43d3271ff6888e7Fc43Fd7321a503ff738951",
          "topics": [
            "0xb3d084820fb1a9decffb176436bd02558d15fac9b0ddfed8c465bc7359d7dce0",
            "0x000000000000000000000000ff34b3d4aee8ddcd6f9afffb6fe49bd371b8a357",
            "0x0000000000000000000000003e122a3db43d225dd5bffd929ad4176ce69117e0",
            "0x0000000000000000000000000000000000000000000000000000000000000000"
          ],
          "data": "0x000000000000000000000000557150d167ca1259856cf1e4e327108b1654309800000000000000000000000000000000000000000000000115b848a7e1d1ba2700000000000000000000000000000000000000000000000000000000000000010000000000000000000000000000000000000000002a725c69ca6235dc809e66",
          "blockHash": "0xe5df071f73dbc2eede900c38504eba667c2d1cc493d7eef196325c98d44ea6e7",
          "blockNumber": "0x464e49",
          "transactionHash": "0x77d260babcbad6abb83c37a97e884f3ff994cabc7a2ef6f626114983546bc3e4",
          "transactionIndex": "0x8",
          "logIndex": "0x6f",
          "removed": false
        },
        {
          "address": "0xFF34B3d4Aee8ddCd6F9AFFFB6Fe49bD371b8a357",
          "topics": [
            "0x8c5be1e5ebec7d5bd14f71427d1e84f3dd0314c0f7b2291e5b200ac8c7c3b925",
            "0x000000000000000000000000557150d167ca1259856cf1e4e327108b16543098",
            "0x0000000000000000000000006ae43d3271ff6888e7fc43fd7321a503ff738951"
          ],
          "data": "0xffffffffffffffffffffffffffffffffffffffffffffffffffffffffffffffff",
          "blockHash": "0xe5df071f73dbc2eede900c38504eba667c2d1cc493d7eef196325c98d44ea6e7",
          "blockNumber": "0x464e49",
          "transactionHash": "0x77d260babcbad6abb83c37a97e884f3ff994cabc7a2ef6f626114983546bc3e4",
          "transactionIndex": "0x8",
          "logIndex": "0x70",
          "removed": false
        },
        {
          "address": "0x34a4d932E722b9dFb492B9D8131127690CE2430B",
          "topics": [
            "0xda919360433220e13b51e8c211e490d148e61a3bd53de8c097194e458b97f3e1",
            "0x0000000000000000000000003e122a3db43d225dd5bffd929ad4176ce69117e0",
            "0x000000000000000000000000557150d167ca1259856cf1e4e327108b16543098",
            "0x000000000000000000000000f8fb3713d459d7c1018bd0a49d19b4c44290ebe5"
          ],
          "data": "0x0000000000000000000000000000000000000000000000000000013e4d6255c1",
          "blockHash": "0xe5df071f73dbc2eede900c38504eba667c2d1cc493d7eef196325c98d44ea6e7",
          "blockNumber": "0x464e49",
          "transactionHash": "0x77d260babcbad6abb83c37a97e884f3ff994cabc7a2ef6f626114983546bc3e4",
          "transactionIndex": "0x8",
          "logIndex": "0x71",
          "removed": false
        },
        {
          "address": "0x34a4d932E722b9dFb492B9D8131127690CE2430B",
          "topics": [
            "0xddf252ad1be2c89b69c2b068fc378daa952ba7f163c4a11628f55a4df523b3ef",
            "0x0000000000000000000000000000000000000000000000000000000000000000",
            "0x0000000000000000000000003e122a3db43d225dd5bffd929ad4176ce69117e0"
          ],
          "data": "0x00000000000000000000000000000000000000000000000000003fcb5c4d6078",
          "blockHash": "0xe5df071f73dbc2eede900c38504eba667c2d1cc493d7eef196325c98d44ea6e7",
          "blockNumber": "0x464e49",
          "transactionHash": "0x77d260babcbad6abb83c37a97e884f3ff994cabc7a2ef6f626114983546bc3e4",
          "transactionIndex": "0x8",
          "logIndex": "0x72",
          "removed": false
        },
        {
          "address": "0x34a4d932E722b9dFb492B9D8131127690CE2430B",
          "topics": [
            "0x458f5fa412d0f69b08dd84872b0215675cc67bc1d5b6fd93300a1c3878b86196",
            "0x000000000000000000000000557150d167ca1259856cf1e4e327108b16543098",
            "0x0000000000000000000000003e122a3db43d225dd5bffd929ad4176ce69117e0"
          ],
          "data": "0x00000000000000000000000000000000000000000000000000003fcb5c4d6078000000000000000000000000000000000000000000000000000000000149443f000000000000000000000000000000000000000003a018e85d7642024e866768",
          "blockHash": "0xe5df071f73dbc2eede900c38504eba667c2d1cc493d7eef196325c98d44ea6e7",
          "blockNumber": "0x464e49",
          "transactionHash": "0x77d260babcbad6abb83c37a97e884f3ff994cabc7a2ef6f626114983546bc3e4",
          "transactionIndex": "0x8",
          "logIndex": "0x73",
          "removed": false
        },
        {
          "address": "0x6Ae43d3271ff6888e7Fc43Fd7321a503ff738951",
          "topics": [
            "0x804c9b842b2748a22bb64b345453a3de7ca54a6ca45ce00d415894979e22897a",
            "0x000000000000000000000000f8fb3713d459d7c1018bd0a49d19b4c44290ebe5"
          ],
          "data": "0x000000000000000000000000000000000000000006ddb0e29a98f0d2a86d11f1000000000000000000000000000000000000000009539521dcad8a0566fee3690000000000000000000000000000000000000000090922e415f97e7accfee3690000000000000000000000000000000000000000038763d8482da1ee72e304cc000000000000000000000000000000000000000003a018e85d7642024e866768",
          "blockHash": "0xe5df071f73dbc2eede900c38504eba667c2d1cc493d7eef196325c98d44ea6e7",
          "blockNumber": "0x464e49",
          "transactionHash": "0x77d260babcbad6abb83c37a97e884f3ff994cabc7a2ef6f626114983546bc3e4",
          "transactionIndex": "0x8",
          "logIndex": "0x74",
          "removed": false
        },
        {
          "address": "0xf8Fb3713D459D7C1018BD0A49D19b4C44290EBE5",
          "topics": [
            "0xddf252ad1be2c89b69c2b068fc378daa952ba7f163c4a11628f55a4df523b3ef",
            "0x0000000000000000000000003ffaf50d4f4e96eb78f2407c090b72e86ecaed24",
            "0x000000000000000000000000557150d167ca1259856cf1e4e327108b16543098"
          ],
          "data": "0x00000000000000000000000000000000000000000000000000003fcb5b041c39",
          "blockHash": "0xe5df071f73dbc2eede900c38504eba667c2d1cc493d7eef196325c98d44ea6e7",
          "blockNumber": "0x464e49",
          "transactionHash": "0x77d260babcbad6abb83c37a97e884f3ff994cabc7a2ef6f626114983546bc3e4",
          "transactionIndex": "0x8",
          "logIndex": "0x75",
          "removed": false
        },
        {
          "address": "0x6Ae43d3271ff6888e7Fc43Fd7321a503ff738951",
          "topics": [
            "0xb3d084820fb1a9decffb176436bd02558d15fac9b0ddfed8c465bc7359d7dce0",
            "0x000000000000000000000000f8fb3713d459d7c1018bd0a49d19b4c44290ebe5",
            "0x0000000000000000000000003e122a3db43d225dd5bffd929ad4176ce69117e0",
            "0x0000000000000000000000000000000000000000000000000000000000000000"
          ],
          "data": "0x000000000000000000000000557150d167ca1259856cf1e4e327108b1654309800000000000000000000000000000000000000000000000000003fcb5b041c3900000000000000000000000000000000000000000000000000000000000000020000000000000000000000000000000000000000090922e415f97e7accfee369",
          "blockHash": "0xe5df071f73dbc2eede900c38504eba667c2d1cc493d7eef196325c98d44ea6e7",
          "blockNumber": "0x464e49",
          "transactionHash": "0x77d260babcbad6abb83c37a97e884f3ff994cabc7a2ef6f626114983546bc3e4",
          "transactionIndex": "0x8",
          "logIndex": "0x76",
          "removed": false
        },
        {
          "address": "0xf8Fb3713D459D7C1018BD0A49D19b4C44290EBE5",
          "topics": [
            "0x8c5be1e5ebec7d5bd14f71427d1e84f3dd0314c0f7b2291e5b200ac8c7c3b925",
            "0x000000000000000000000000557150d167ca1259856cf1e4e327108b16543098",
            "0x0000000000000000000000006ae43d3271ff6888e7fc43fd7321a503ff738951"
          ],
          "data": "0xffffffffffffffffffffffffffffffffffffffffffffffffffffffffffffffff",
          "blockHash": "0xe5df071f73dbc2eede900c38504eba667c2d1cc493d7eef196325c98d44ea6e7",
          "blockNumber": "0x464e49",
          "transactionHash": "0x77d260babcbad6abb83c37a97e884f3ff994cabc7a2ef6f626114983546bc3e4",
          "transactionIndex": "0x8",
          "logIndex": "0x77",
          "removed": false
        },
        {
          "address": "0x9844386d29EEd970B9F6a2B9a676083b0478210e",
          "topics": [
            "0xda919360433220e13b51e8c211e490d148e61a3bd53de8c097194e458b97f3e1",
            "0x0000000000000000000000003e122a3db43d225dd5bffd929ad4176ce69117e0",
            "0x000000000000000000000000557150d167ca1259856cf1e4e327108b16543098",
            "0x000000000000000000000000aa8e23fb1079ea71e0a56f48a2aa51851d8433d0"
          ],
          "data": "0x000000000000000000000000000000000000000000000000000000001669e294",
          "blockHash": "0xe5df071f73dbc2eede900c38504eba667c2d1cc493d7eef196325c98d44ea6e7",
          "blockNumber": "0x464e49",
          "transactionHash": "0x77d260babcbad6abb83c37a97e884f3ff994cabc7a2ef6f626114983546bc3e4",
          "transactionIndex": "0x8",
          "logIndex": "0x78",
          "removed": false
        },
        {
          "address": "0x9844386d29EEd970B9F6a2B9a676083b0478210e",
          "topics": [
            "0xddf252ad1be2c89b69c2b068fc378daa952ba7f163c4a11628f55a4df523b3ef",
            "0x0000000000000000000000000000000000000000000000000000000000000000",
            "0x0000000000000000000000003e122a3db43d225dd5bffd929ad4176ce69117e0"
          ],
          "data": "0x000000000000000000000000000000000000000000000000000000047dfda46c",
          "blockHash": "0xe5df071f73dbc2eede900c38504eba667c2d1cc493d7eef196325c98d44ea6e7",
          "blockNumber": "0x464e49",
          "transactionHash": "0x77d260babcbad6abb83c37a97e884f3ff994cabc7a2ef6f626114983546bc3e4",
          "transactionIndex": "0x8",
          "logIndex": "0x79",
          "removed": false
        },
        {
          "address": "0x9844386d29EEd970B9F6a2B9a676083b0478210e",
          "topics": [
            "0x458f5fa412d0f69b08dd84872b0215675cc67bc1d5b6fd93300a1c3878b86196",
            "0x000000000000000000000000557150d167ca1259856cf1e4e327108b16543098",
            "0x0000000000000000000000003e122a3db43d225dd5bffd929ad4176ce69117e0"
          ],
          "data": "0x000000000000000000000000000000000000000000000000000000047dfda46c000000000000000000000000000000000000000000000000000000000000000000000000000000000000000000000000000000000345056256d57e51cecec307",
          "blockHash": "0xe5df071f73dbc2eede900c38504eba667c2d1cc493d7eef196325c98d44ea6e7",
          "blockNumber": "0x464e49",
          "transactionHash": "0x77d260babcbad6abb83c37a97e884f3ff994cabc7a2ef6f626114983546bc3e4",
          "transactionIndex": "0x8",
          "logIndex": "0x7a",
          "removed": false
        },
        {
          "address": "0x6Ae43d3271ff6888e7Fc43Fd7321a503ff738951",
          "topics": [
            "0x804c9b842b2748a22bb64b345453a3de7ca54a6ca45ce00d415894979e22897a",
            "0x000000000000000000000000aa8e23fb1079ea71e0a56f48a2aa51851d8433d0"
          ],
          "data": "0x00000000000000000000000000000000000000000000039537c715a39468320600000000000000000000000000000000000000000029614b209598482cbbb155000000000000000000000000000000000000000000002b0d918c8ef5d5dd8aa900000000000000000000000000000000000000000342ac3c14426e7331d34d0200000000000000000000000000000000000000000345056256d57e51cecec307",
          "blockHash": "0xe5df071f73dbc2eede900c38504eba667c2d1cc493d7eef196325c98d44ea6e7",
          "blockNumber": "0x464e49",
          "transactionHash": "0x77d260babcbad6abb83c37a97e884f3ff994cabc7a2ef6f626114983546bc3e4",
          "transactionIndex": "0x8",
          "logIndex": "0x7b",
          "removed": false
        },
        {
          "address": "0xaA8E23Fb1079EA71e0a56F48a2aA51851D8433D0",
          "topics": [
            "0xddf252ad1be2c89b69c2b068fc378daa952ba7f163c4a11628f55a4df523b3ef",
            "0x000000000000000000000000af0f6e8b0dc5c913bbf4d14c22b4e78dd14310b6",
            "0x000000000000000000000000557150d167ca1259856cf1e4e327108b16543098"
          ],
          "data": "0x000000000000000000000000000000000000000000000000000000047dfda46c",
          "blockHash": "0xe5df071f73dbc2eede900c38504eba667c2d1cc493d7eef196325c98d44ea6e7",
          "blockNumber": "0x464e49",
          "transactionHash": "0x77d260babcbad6abb83c37a97e884f3ff994cabc7a2ef6f626114983546bc3e4",
          "transactionIndex": "0x8",
          "logIndex": "0x7c",
          "removed": false
        },
        {
          "address": "0x6Ae43d3271ff6888e7Fc43Fd7321a503ff738951",
          "topics": [
            "0xb3d084820fb1a9decffb176436bd02558d15fac9b0ddfed8c465bc7359d7dce0",
            "0x000000000000000000000000aa8e23fb1079ea71e0a56f48a2aa51851d8433d0",
            "0x0000000000000000000000003e122a3db43d225dd5bffd929ad4176ce69117e0",
            "0x0000000000000000000000000000000000000000000000000000000000000000"
          ],
          "data": "0x000000000000000000000000557150d167ca1259856cf1e4e327108b16543098000000000000000000000000000000000000000000000000000000047dfda46c0000000000000000000000000000000000000000000000000000000000000002000000000000000000000000000000000000000000002b0d918c8ef5d5dd8aa9",
          "blockHash": "0xe5df071f73dbc2eede900c38504eba667c2d1cc493d7eef196325c98d44ea6e7",
          "blockNumber": "0x464e49",
          "transactionHash": "0x77d260babcbad6abb83c37a97e884f3ff994cabc7a2ef6f626114983546bc3e4",
          "transactionIndex": "0x8",
          "logIndex": "0x7d",
          "removed": false
        },
        {
          "address": "0xaA8E23Fb1079EA71e0a56F48a2aA51851D8433D0",
          "topics": [
            "0x8c5be1e5ebec7d5bd14f71427d1e84f3dd0314c0f7b2291e5b200ac8c7c3b925",
            "0x000000000000000000000000557150d167ca1259856cf1e4e327108b16543098",
            "0x0000000000000000000000006ae43d3271ff6888e7fc43fd7321a503ff738951"
          ],
          "data": "0xffffffffffffffffffffffffffffffffffffffffffffffffffffffffffffffff",
          "blockHash": "0xe5df071f73dbc2eede900c38504eba667c2d1cc493d7eef196325c98d44ea6e7",
          "blockNumber": "0x464e49",
          "transactionHash": "0x77d260babcbad6abb83c37a97e884f3ff994cabc7a2ef6f626114983546bc3e4",
          "transactionIndex": "0x8",
          "logIndex": "0x7e",
          "removed": false
        },
        {
          "address": "0xEAF54fA3b1C7243033C2893c6B807f9cEaBCf0AF",
          "topics": [
            "0xda919360433220e13b51e8c211e490d148e61a3bd53de8c097194e458b97f3e1",
            "0x0000000000000000000000003e122a3db43d225dd5bffd929ad4176ce69117e0",
            "0x000000000000000000000000557150d167ca1259856cf1e4e327108b16543098",
            "0x000000000000000000000000aa8e23fb1079ea71e0a56f48a2aa51851d8433d0"
          ],
          "data": "0x000000000000000000000000000000000000000000000000000000000002f9ca",
          "blockHash": "0xe5df071f73dbc2eede900c38504eba667c2d1cc493d7eef196325c98d44ea6e7",
          "blockNumber": "0x464e49",
          "transactionHash": "0x77d260babcbad6abb83c37a97e884f3ff994cabc7a2ef6f626114983546bc3e4",
          "transactionIndex": "0x8",
          "logIndex": "0x7f",
          "removed": false
        },
        {
          "address": "0xEAF54fA3b1C7243033C2893c6B807f9cEaBCf0AF",
          "topics": [
            "0xddf252ad1be2c89b69c2b068fc378daa952ba7f163c4a11628f55a4df523b3ef",
            "0x0000000000000000000000000000000000000000000000000000000000000000",
            "0x0000000000000000000000003e122a3db43d225dd5bffd929ad4176ce69117e0"
          ],
          "data": "0x000000000000000000000000000000000000000000000000000000000098ad9f",
          "blockHash": "0xe5df071f73dbc2eede900c38504eba667c2d1cc493d7eef196325c98d44ea6e7",
          "blockNumber": "0x464e49",
          "transactionHash": "0x77d260babcbad6abb83c37a97e884f3ff994cabc7a2ef6f626114983546bc3e4",
          "transactionIndex": "0x8",
          "logIndex": "0x80",
          "removed": false
        },
        {
          "address": "0xEAF54fA3b1C7243033C2893c6B807f9cEaBCf0AF",
          "topics": [
            "0xc16f4e4ca34d790de4c656c72fd015c667d688f20be64eea360618545c4c530f",
            "0x000000000000000000000000557150d167ca1259856cf1e4e327108b16543098",
            "0x0000000000000000000000003e122a3db43d225dd5bffd929ad4176ce69117e0"
          ],
          "data": "0x000000000000000000000000000000000000000000000000000000000098ad9f0000000000000000000000000000000000000000000000000000000000000000000000000000000000000000000000000000000000000000000000000000000000000000000000000000000000000000000000000029614b209598440a1845bb0000000000000000000000000000000000000000002b616f591243673146bd290000000000000000000000000000000000000000000000000000001e26eb7e28",
          "blockHash": "0xe5df071f73dbc2eede900c38504eba667c2d1cc493d7eef196325c98d44ea6e7",
          "blockNumber": "0x464e49",
          "transactionHash": "0x77d260babcbad6abb83c37a97e884f3ff994cabc7a2ef6f626114983546bc3e4",
          "transactionIndex": "0x8",
          "logIndex": "0x81",
          "removed": false
        },
        {
          "address": "0x6Ae43d3271ff6888e7Fc43Fd7321a503ff738951",
          "topics": [
            "0x804c9b842b2748a22bb64b345453a3de7ca54a6ca45ce00d415894979e22897a",
            "0x000000000000000000000000aa8e23fb1079ea71e0a56f48a2aa51851d8433d0"
          ],
          "data": "0x000000000000000000000000000000000000000000000395485ac2e27dcf2c7f00000000000000000000000000000000000000000029614b229f4719612348ed000000000000000000000000000000000000000000002b0da1da057f791a476a00000000000000000000000000000000000000000342ac3c14426e7331d34d0200000000000000000000000000000000000000000345056256d57e51cecec307",
          "blockHash": "0xe5df071f73dbc2eede900c38504eba667c2d1cc493d7eef196325c98d44ea6e7",
          "blockNumber": "0x464e49",
          "transactionHash": "0x77d260babcbad6abb83c37a97e884f3ff994cabc7a2ef6f626114983546bc3e4",
          "transactionIndex": "0x8",
          "logIndex": "0x82",
          "removed": false
        },
        {
          "address": "0xaA8E23Fb1079EA71e0a56F48a2aA51851D8433D0",
          "topics": [
            "0xddf252ad1be2c89b69c2b068fc378daa952ba7f163c4a11628f55a4df523b3ef",
            "0x000000000000000000000000af0f6e8b0dc5c913bbf4d14c22b4e78dd14310b6",
            "0x000000000000000000000000557150d167ca1259856cf1e4e327108b16543098"
          ],
          "data": "0x000000000000000000000000000000000000000000000000000000000098ad9f",
          "blockHash": "0xe5df071f73dbc2eede900c38504eba667c2d1cc493d7eef196325c98d44ea6e7",
          "blockNumber": "0x464e49",
          "transactionHash": "0x77d260babcbad6abb83c37a97e884f3ff994cabc7a2ef6f626114983546bc3e4",
          "transactionIndex": "0x8",
          "logIndex": "0x83",
          "removed": false
        },
        {
          "address": "0x6Ae43d3271ff6888e7Fc43Fd7321a503ff738951",
          "topics": [
            "0xb3d084820fb1a9decffb176436bd02558d15fac9b0ddfed8c465bc7359d7dce0",
            "0x000000000000000000000000aa8e23fb1079ea71e0a56f48a2aa51851d8433d0",
            "0x0000000000000000000000003e122a3db43d225dd5bffd929ad4176ce69117e0",
            "0x0000000000000000000000000000000000000000000000000000000000000000"
          ],
          "data": "0x000000000000000000000000557150d167ca1259856cf1e4e327108b16543098000000000000000000000000000000000000000000000000000000000098ad9f000000000000000000000000000000000000000000000000000000000000000100000000000000000000000000000000000000000029614b209598482cbbb155",
          "blockHash": "0xe5df071f73dbc2eede900c38504eba667c2d1cc493d7eef196325c98d44ea6e7",
          "blockNumber": "0x464e49",
          "transactionHash": "0x77d260babcbad6abb83c37a97e884f3ff994cabc7a2ef6f626114983546bc3e4",
          "transactionIndex": "0x8",
          "logIndex": "0x84",
          "removed": false
        },
        {
          "address": "0xaA8E23Fb1079EA71e0a56F48a2aA51851D8433D0",
          "topics": [
            "0x8c5be1e5ebec7d5bd14f71427d1e84f3dd0314c0f7b2291e5b200ac8c7c3b925",
            "0x000000000000000000000000557150d167ca1259856cf1e4e327108b16543098",
            "0x0000000000000000000000006ae43d3271ff6888e7fc43fd7321a503ff738951"
          ],
          "data": "0xffffffffffffffffffffffffffffffffffffffffffffffffffffffffffffffff",
          "blockHash": "0xe5df071f73dbc2eede900c38504eba667c2d1cc493d7eef196325c98d44ea6e7",
          "blockNumber": "0x464e49",
          "transactionHash": "0x77d260babcbad6abb83c37a97e884f3ff994cabc7a2ef6f626114983546bc3e4",
          "transactionIndex": "0x8",
          "logIndex": "0x85",
          "removed": false
        },
        {
          "address": "0x94482C7A7477196259D8a0f74fB853277Fa5a75b",
          "topics": [
            "0xda919360433220e13b51e8c211e490d148e61a3bd53de8c097194e458b97f3e1",
            "0x0000000000000000000000003e122a3db43d225dd5bffd929ad4176ce69117e0",
            "0x000000000000000000000000557150d167ca1259856cf1e4e327108b16543098",
            "0x0000000000000000000000006d906e526a4e2ca02097ba9d0caa3c382f52278e"
          ],
          "data": "0x0000000000000000000000000000000000000000000000000000000000000004",
          "blockHash": "0xe5df071f73dbc2eede900c38504eba667c2d1cc493d7eef196325c98d44ea6e7",
          "blockNumber": "0x464e49",
          "transactionHash": "0x77d260babcbad6abb83c37a97e884f3ff994cabc7a2ef6f626114983546bc3e4",
          "transactionIndex": "0x8",
          "logIndex": "0x86",
          "removed": false
        },
        {
          "address": "0x94482C7A7477196259D8a0f74fB853277Fa5a75b",
          "topics": [
            "0xddf252ad1be2c89b69c2b068fc378daa952ba7f163c4a11628f55a4df523b3ef",
            "0x0000000000000000000000000000000000000000000000000000000000000000",
            "0x0000000000000000000000003e122a3db43d225dd5bffd929ad4176ce69117e0"
          ],
          "data": "0x00000000000000000000000000000000000000000000000000000000000000c9",
          "blockHash": "0xe5df071f73dbc2eede900c38504eba667c2d1cc493d7eef196325c98d44ea6e7",
          "blockNumber": "0x464e49",
          "transactionHash": "0x77d260babcbad6abb83c37a97e884f3ff994cabc7a2ef6f626114983546bc3e4",
          "transactionIndex": "0x8",
          "logIndex": "0x87",
          "removed": false
        },
        {
          "address": "0x94482C7A7477196259D8a0f74fB853277Fa5a75b",
          "topics": [
            "0x458f5fa412d0f69b08dd84872b0215675cc67bc1d5b6fd93300a1c3878b86196",
            "0x000000000000000000000000557150d167ca1259856cf1e4e327108b16543098",
            "0x0000000000000000000000003e122a3db43d225dd5bffd929ad4176ce69117e0"
          ],
          "data": "0x00000000000000000000000000000000000000000000000000000000000000c900000000000000000000000000000000000000000000000000000000000000000000000000000000000000000000000000000000034e731a6665c8f9b06f324d",
          "blockHash": "0xe5df071f73dbc2eede900c38504eba667c2d1cc493d7eef196325c98d44ea6e7",
          "blockNumber": "0x464e49",
          "transactionHash": "0x77d260babcbad6abb83c37a97e884f3ff994cabc7a2ef6f626114983546bc3e4",
          "transactionIndex": "0x8",
          "logIndex": "0x88",
          "removed": false
        },
        {
          "address": "0x6Ae43d3271ff6888e7Fc43Fd7321a503ff738951",
          "topics": [
            "0x804c9b842b2748a22bb64b345453a3de7ca54a6ca45ce00d415894979e22897a",
            "0x0000000000000000000000006d906e526a4e2ca02097ba9d0caa3c382f52278e"
          ],
          "data": "0x0000000000000000000000000000000000000000014b71b3826759959cec7aad0000000000000000000000000000000000000000018c27336c1e5404afb785d00000000000000000000000000000000000000000017fbed3cb00521840b785d00000000000000000000000000000000000000000034b170a688e97699d2f96710000000000000000000000000000000000000000034e731a6665c8f9b06f324d",
          "blockHash": "0xe5df071f73dbc2eede900c38504eba667c2d1cc493d7eef196325c98d44ea6e7",
          "blockNumber": "0x464e49",
          "transactionHash": "0x77d260babcbad6abb83c37a97e884f3ff994cabc7a2ef6f626114983546bc3e4",
          "transactionIndex": "0x8",
          "logIndex": "0x89",
          "removed": false
        },
        {
          "address": "0x6d906e526a4e2Ca02097BA9d0caA3c382F52278E",
          "topics": [
            "0xddf252ad1be2c89b69c2b068fc378daa952ba7f163c4a11628f55a4df523b3ef",
            "0x000000000000000000000000b20691021f9aced8631edaa3c0cd2949eb45662d",
            "0x000000000000000000000000557150d167ca1259856cf1e4e327108b16543098"
          ],
          "data": "0x00000000000000000000000000000000000000000000000000000000000000c9",
          "blockHash": "0xe5df071f73dbc2eede900c38504eba667c2d1cc493d7eef196325c98d44ea6e7",
          "blockNumber": "0x464e49",
          "transactionHash": "0x77d260babcbad6abb83c37a97e884f3ff994cabc7a2ef6f626114983546bc3e4",
          "transactionIndex": "0x8",
          "logIndex": "0x8a",
          "removed": false
        },
        {
          "address": "0x6Ae43d3271ff6888e7Fc43Fd7321a503ff738951",
          "topics": [
            "0xb3d084820fb1a9decffb176436bd02558d15fac9b0ddfed8c465bc7359d7dce0",
            "0x0000000000000000000000006d906e526a4e2ca02097ba9d0caa3c382f52278e",
            "0x0000000000000000000000003e122a3db43d225dd5bffd929ad4176ce69117e0",
            "0x0000000000000000000000000000000000000000000000000000000000000000"
          ],
          "data": "0x000000000000000000000000557150d167ca1259856cf1e4e327108b1654309800000000000000000000000000000000000000000000000000000000000000c900000000000000000000000000000000000000000000000000000000000000020000000000000000000000000000000000000000017fbed3cb00521840b785d0",
          "blockHash": "0xe5df071f73dbc2eede900c38504eba667c2d1cc493d7eef196325c98d44ea6e7",
          "blockNumber": "0x464e49",
          "transactionHash": "0x77d260babcbad6abb83c37a97e884f3ff994cabc7a2ef6f626114983546bc3e4",
          "transactionIndex": "0x8",
          "logIndex": "0x8b",
          "removed": false
        },
        {
          "address": "0x6d906e526a4e2Ca02097BA9d0caA3c382F52278E",
          "topics": [
            "0x8c5be1e5ebec7d5bd14f71427d1e84f3dd0314c0f7b2291e5b200ac8c7c3b925",
            "0x000000000000000000000000557150d167ca1259856cf1e4e327108b16543098",
            "0x0000000000000000000000006ae43d3271ff6888e7fc43fd7321a503ff738951"
          ],
          "data": "0xffffffffffffffffffffffffffffffffffffffffffffffffffffffffffffffff",
          "blockHash": "0xe5df071f73dbc2eede900c38504eba667c2d1cc493d7eef196325c98d44ea6e7",
          "blockNumber": "0x464e49",
          "transactionHash": "0x77d260babcbad6abb83c37a97e884f3ff994cabc7a2ef6f626114983546bc3e4",
          "transactionIndex": "0x8",
          "logIndex": "0x8c",
          "removed": false
        },
        {
          "address": "0x08878209484D8178DD1FFA50AB1689F21aDBB856",
          "topics": [
            "0xda919360433220e13b51e8c211e490d148e61a3bd53de8c097194e458b97f3e1",
            "0x0000000000000000000000003e122a3db43d225dd5bffd929ad4176ce69117e0",
            "0x000000000000000000000000557150d167ca1259856cf1e4e327108b16543098",
            "0x0000000000000000000000006d906e526a4e2ca02097ba9d0caa3c382f52278e"
          ],
          "data": "0x000000000000000000000000000000000000000000000000000000000000000e",
          "blockHash": "0xe5df071f73dbc2eede900c38504eba667c2d1cc493d7eef196325c98d44ea6e7",
          "blockNumber": "0x464e49",
          "transactionHash": "0x77d260babcbad6abb83c37a97e884f3ff994cabc7a2ef6f626114983546bc3e4",
          "transactionIndex": "0x8",
          "logIndex": "0x8d",
          "removed": false
        },
        {
          "address": "0x08878209484D8178DD1FFA50AB1689F21aDBB856",
          "topics": [
            "0xddf252ad1be2c89b69c2b068fc378daa952ba7f163c4a11628f55a4df523b3ef",
            "0x0000000000000000000000000000000000000000000000000000000000000000",
            "0x0000000000000000000000003e122a3db43d225dd5bffd929ad4176ce69117e0"
          ],
          "data": "0x00000000000000000000000000000000000000000000000000000000000002bd",
          "blockHash": "0xe5df071f73dbc2eede900c38504eba667c2d1cc493d7eef196325c98d44ea6e7",
          "blockNumber": "0x464e49",
          "transactionHash": "0x77d260babcbad6abb83c37a97e884f3ff994cabc7a2ef6f626114983546bc3e4",
          "transactionIndex": "0x8",
          "logIndex": "0x8e",
          "removed": false
        },
        {
          "address": "0x08878209484D8178DD1FFA50AB1689F21aDBB856",
          "topics": [
            "0xc16f4e4ca34d790de4c656c72fd015c667d688f20be64eea360618545c4c530f",
            "0x000000000000000000000000557150d167ca1259856cf1e4e327108b16543098",
            "0x0000000000000000000000003e122a3db43d225dd5bffd929ad4176ce69117e0"
          ],
          "data": "0x00000000000000000000000000000000000000000000000000000000000002bd000000000000000000000000000000000000000000000000000000000000000000000000000000000000000000000000000000000000000000000000000000000000000000000000000000000000000000000000018c27336c1ee85e133db4c50000000000000000000000000000000000000000002bbfb8b8f4cd8add9cef7800000000000000000000000000000000000000000000000000000000003feb8d",
          "blockHash": "0xe5df071f73dbc2eede900c38504eba667c2d1cc493d7eef196325c98d44ea6e7",
          "blockNumber": "0x464e49",
          "transactionHash": "0x77d260babcbad6abb83c37a97e884f3ff994cabc7a2ef6f626114983546bc3e4",
          "transactionIndex": "0x8",
          "logIndex": "0x8f",
          "removed": false
        },
        {
          "address": "0x6Ae43d3271ff6888e7Fc43Fd7321a503ff738951",
          "topics": [
            "0x804c9b842b2748a22bb64b345453a3de7ca54a6ca45ce00d415894979e22897a",
            "0x0000000000000000000000006d906e526a4e2ca02097ba9d0caa3c382f52278e"
          ],
          "data": "0x0000000000000000000000000000000000000000014b74298cd2c77c23f8afe30000000000000000000000000000000000000000018c29d5c8b950aab00cb1be0000000000000000000000000000000000000000017fc176279b4ebe410cb1be0000000000000000000000000000000000000000034b170a688e97699d2f96710000000000000000000000000000000000000000034e731a6665c8f9b06f324d",
          "blockHash": "0xe5df071f73dbc2eede900c38504eba667c2d1cc493d7eef196325c98d44ea6e7",
          "blockNumber": "0x464e49",
          "transactionHash": "0x77d260babcbad6abb83c37a97e884f3ff994cabc7a2ef6f626114983546bc3e4",
          "transactionIndex": "0x8",
          "logIndex": "0x90",
          "removed": false
        },
        {
          "address": "0x6d906e526a4e2Ca02097BA9d0caA3c382F52278E",
          "topics": [
            "0xddf252ad1be2c89b69c2b068fc378daa952ba7f163c4a11628f55a4df523b3ef",
            "0x000000000000000000000000b20691021f9aced8631edaa3c0cd2949eb45662d",
            "0x000000000000000000000000557150d167ca1259856cf1e4e327108b16543098"
          ],
          "data": "0x00000000000000000000000000000000000000000000000000000000000002bd",
          "blockHash": "0xe5df071f73dbc2eede900c38504eba667c2d1cc493d7eef196325c98d44ea6e7",
          "blockNumber": "0x464e49",
          "transactionHash": "0x77d260babcbad6abb83c37a97e884f3ff994cabc7a2ef6f626114983546bc3e4",
          "transactionIndex": "0x8",
          "logIndex": "0x91",
          "removed": false
        },
        {
          "address": "0x6Ae43d3271ff6888e7Fc43Fd7321a503ff738951",
          "topics": [
            "0xb3d084820fb1a9decffb176436bd02558d15fac9b0ddfed8c465bc7359d7dce0",
            "0x0000000000000000000000006d906e526a4e2ca02097ba9d0caa3c382f52278e",
            "0x0000000000000000000000003e122a3db43d225dd5bffd929ad4176ce69117e0",
            "0x0000000000000000000000000000000000000000000000000000000000000000"
          ],
          "data": "0x000000000000000000000000557150d167ca1259856cf1e4e327108b1654309800000000000000000000000000000000000000000000000000000000000002bd00000000000000000000000000000000000000000000000000000000000000010000000000000000000000000000000000000000018c27336c1e5404afb785d0",
          "blockHash": "0xe5df071f73dbc2eede900c38504eba667c2d1cc493d7eef196325c98d44ea6e7",
          "blockNumber": "0x464e49",
          "transactionHash": "0x77d260babcbad6abb83c37a97e884f3ff994cabc7a2ef6f626114983546bc3e4",
          "transactionIndex": "0x8",
          "logIndex": "0x92",
          "removed": false
        },
        {
          "address": "0x6d906e526a4e2Ca02097BA9d0caA3c382F52278E",
          "topics": [
            "0x8c5be1e5ebec7d5bd14f71427d1e84f3dd0314c0f7b2291e5b200ac8c7c3b925",
            "0x000000000000000000000000557150d167ca1259856cf1e4e327108b16543098",
            "0x0000000000000000000000006ae43d3271ff6888e7fc43fd7321a503ff738951"
          ],
          "data": "0xffffffffffffffffffffffffffffffffffffffffffffffffffffffffffffffff",
          "blockHash": "0xe5df071f73dbc2eede900c38504eba667c2d1cc493d7eef196325c98d44ea6e7",
          "blockNumber": "0x464e49",
          "transactionHash": "0x77d260babcbad6abb83c37a97e884f3ff994cabc7a2ef6f626114983546bc3e4",
          "transactionIndex": "0x8",
          "logIndex": "0x93",
          "removed": false
        },
        {
          "address": "0x6Ae43d3271ff6888e7Fc43Fd7321a503ff738951",
          "topics": [
            "0x804c9b842b2748a22bb64b345453a3de7ca54a6ca45ce00d415894979e22897a",
            "0x000000000000000000000000ff34b3d4aee8ddcd6f9afffb6fe49bd371b8a357"
          ],
          "data": "0x00000000000000000000000000000000000000000001f17483f05f7e865752560000000000000000000000000000000000000000002a70f1c88fcac304334a6600000000000000000000000000000000000000000008a842d15e22cc919a53310000000000000000000000000000000000000000034543af2b020486ae7ad65c00000000000000000000000000000000000000000346f45754e8617dd1f052f7",
          "blockHash": "0xe5df071f73dbc2eede900c38504eba667c2d1cc493d7eef196325c98d44ea6e7",
          "blockNumber": "0x464e49",
          "transactionHash": "0x77d260babcbad6abb83c37a97e884f3ff994cabc7a2ef6f626114983546bc3e4",
          "transactionIndex": "0x8",
          "logIndex": "0x94",
          "removed": false
        },
        {
          "address": "0xFF34B3d4Aee8ddCd6F9AFFFB6Fe49bD371b8a357",
          "topics": [
            "0xddf252ad1be2c89b69c2b068fc378daa952ba7f163c4a11628f55a4df523b3ef",
            "0x000000000000000000000000557150d167ca1259856cf1e4e327108b16543098",
            "0x00000000000000000000000029598b72eb5cebd806c5dcd549490fda35b13cd8"
          ],
          "data": "0x00000000000000000000000000000000000000000000060ed1e6f47544164600",
          "blockHash": "0xe5df071f73dbc2eede900c38504eba667c2d1cc493d7eef196325c98d44ea6e7",
          "blockNumber": "0x464e49",
          "transactionHash": "0x77d260babcbad6abb83c37a97e884f3ff994cabc7a2ef6f626114983546bc3e4",
          "transactionIndex": "0x8",
          "logIndex": "0x95",
          "removed": false
        },
        {
          "address": "0xFF34B3d4Aee8ddCd6F9AFFFB6Fe49bD371b8a357",
          "topics": [
            "0x8c5be1e5ebec7d5bd14f71427d1e84f3dd0314c0f7b2291e5b200ac8c7c3b925",
            "0x000000000000000000000000557150d167ca1259856cf1e4e327108b16543098",
            "0x0000000000000000000000006ae43d3271ff6888e7fc43fd7321a503ff738951"
          ],
          "data": "0xfffffffffffffffffffffffffffffffffffffffffffff9f12e190b8abbe9b9ff",
          "blockHash": "0xe5df071f73dbc2eede900c38504eba667c2d1cc493d7eef196325c98d44ea6e7",
          "blockNumber": "0x464e49",
          "transactionHash": "0x77d260babcbad6abb83c37a97e884f3ff994cabc7a2ef6f626114983546bc3e4",
          "transactionIndex": "0x8",
          "logIndex": "0x96",
          "removed": false
        },
        {
          "address": "0x6Ae43d3271ff6888e7Fc43Fd7321a503ff738951",
          "topics": [
            "0xefefaba5e921573100900a3ad9cf29f222d995fb3b6045797eaea7521bd8d6f0",
            "0x000000000000000000000000557150d167ca1259856cf1e4e327108b16543098",
            "0x000000000000000000000000ff34b3d4aee8ddcd6f9afffb6fe49bd371b8a357",
            "0x0000000000000000000000000000000000000000000000000000000000000000"
          ],
          "data": "0x000000000000000000000000557150d167ca1259856cf1e4e327108b1654309800000000000000000000000000000000000000000000060e0b7f1557e8f667ff0000000000000000000000000000000000000000000000000000000000000000000000000000000000000000000000000000000000000000c667df1d5b1fde01",
          "blockHash": "0xe5df071f73dbc2eede900c38504eba667c2d1cc493d7eef196325c98d44ea6e7",
          "blockNumber": "0x464e49",
          "transactionHash": "0x77d260babcbad6abb83c37a97e884f3ff994cabc7a2ef6f626114983546bc3e4",
          "transactionIndex": "0x8",
          "logIndex": "0x97",
          "removed": false
        },
        {
          "address": "0x6Ae43d3271ff6888e7Fc43Fd7321a503ff738951",
          "topics": [
            "0x804c9b842b2748a22bb64b345453a3de7ca54a6ca45ce00d415894979e22897a",
            "0x000000000000000000000000ff34b3d4aee8ddcd6f9afffb6fe49bd371b8a357"
          ],
          "data": "0x00000000000000000000000000000000000000000001f173b25a90d1380418d50000000000000000000000000000000000000000002a70f187bcbacde088078b00000000000000000000000000000000000000000008a840cac5a32374403c560000000000000000000000000000000000000000034543af44100aabedcffa0e00000000000000000000000000000000000000000346f45754e8617dd1f052f7",
          "blockHash": "0xe5df071f73dbc2eede900c38504eba667c2d1cc493d7eef196325c98d44ea6e7",
          "blockNumber": "0x464e49",
          "transactionHash": "0x77d260babcbad6abb83c37a97e884f3ff994cabc7a2ef6f626114983546bc3e4",
          "transactionIndex": "0x8",
          "logIndex": "0x98",
          "removed": false
        },
        {
          "address": "0xFF34B3d4Aee8ddCd6F9AFFFB6Fe49bD371b8a357",
          "topics": [
            "0xddf252ad1be2c89b69c2b068fc378daa952ba7f163c4a11628f55a4df523b3ef",
            "0x000000000000000000000000557150d167ca1259856cf1e4e327108b16543098",
            "0x00000000000000000000000029598b72eb5cebd806c5dcd549490fda35b13cd8"
          ],
          "data": "0x00000000000000000000000000000000000000000000000115b848a7e1d1ba27",
          "blockHash": "0xe5df071f73dbc2eede900c38504eba667c2d1cc493d7eef196325c98d44ea6e7",
          "blockNumber": "0x464e49",
          "transactionHash": "0x77d260babcbad6abb83c37a97e884f3ff994cabc7a2ef6f626114983546bc3e4",
          "transactionIndex": "0x8",
          "logIndex": "0x99",
          "removed": false
        },
        {
          "address": "0xFF34B3d4Aee8ddCd6F9AFFFB6Fe49bD371b8a357",
          "topics": [
            "0x8c5be1e5ebec7d5bd14f71427d1e84f3dd0314c0f7b2291e5b200ac8c7c3b925",
            "0x000000000000000000000000557150d167ca1259856cf1e4e327108b16543098",
            "0x0000000000000000000000006ae43d3271ff6888e7fc43fd7321a503ff738951"
          ],
          "data": "0xfffffffffffffffffffffffffffffffffffffffffffff9f01860c2e2da17ffd8",
          "blockHash": "0xe5df071f73dbc2eede900c38504eba667c2d1cc493d7eef196325c98d44ea6e7",
          "blockNumber": "0x464e49",
          "transactionHash": "0x77d260babcbad6abb83c37a97e884f3ff994cabc7a2ef6f626114983546bc3e4",
          "transactionIndex": "0x8",
          "logIndex": "0x9a",
          "removed": false
        },
        {
          "address": "0x6Ae43d3271ff6888e7Fc43Fd7321a503ff738951",
          "topics": [
            "0xefefaba5e921573100900a3ad9cf29f222d995fb3b6045797eaea7521bd8d6f0",
            "0x000000000000000000000000557150d167ca1259856cf1e4e327108b16543098",
            "0x000000000000000000000000ff34b3d4aee8ddcd6f9afffb6fe49bd371b8a357",
            "0x0000000000000000000000000000000000000000000000000000000000000000"
          ],
          "data": "0x000000000000000000000000557150d167ca1259856cf1e4e327108b165430980000000000000000000000000000000000000000000000011594c0e11d1197220000000000000000000000000000000000000000000000000000000000000000000000000000000000000000000000000000000000000000002387c6c4c02305",
          "blockHash": "0xe5df071f73dbc2eede900c38504eba667c2d1cc493d7eef196325c98d44ea6e7",
          "blockNumber": "0x464e49",
          "transactionHash": "0x77d260babcbad6abb83c37a97e884f3ff994cabc7a2ef6f626114983546bc3e4",
          "transactionIndex": "0x8",
          "logIndex": "0x9b",
          "removed": false
        },
        {
          "address": "0x6Ae43d3271ff6888e7Fc43Fd7321a503ff738951",
          "topics": [
            "0x804c9b842b2748a22bb64b345453a3de7ca54a6ca45ce00d415894979e22897a",
            "0x000000000000000000000000f8fb3713d459d7c1018bd0a49d19b4c44290ebe5"
          ],
          "data": "0x000000000000000000000000000000000000000006ddb0e28c2244ab3ddcdda9000000000000000000000000000000000000000009539521d050e61473338ecf0000000000000000000000000000000000000000090922e4099cda89d9338ecf0000000000000000000000000000000000000000038763d8482df74120896bb3000000000000000000000000000000000000000003a018e85d7642024e866768",
          "blockHash": "0xe5df071f73dbc2eede900c38504eba667c2d1cc493d7eef196325c98d44ea6e7",
          "blockNumber": "0x464e49",
          "transactionHash": "0x77d260babcbad6abb83c37a97e884f3ff994cabc7a2ef6f626114983546bc3e4",
          "transactionIndex": "0x8",
          "logIndex": "0x9c",
          "removed": false
        },
        {
          "address": "0xf8Fb3713D459D7C1018BD0A49D19b4C44290EBE5",
          "topics": [
            "0xddf252ad1be2c89b69c2b068fc378daa952ba7f163c4a11628f55a4df523b3ef",
            "0x000000000000000000000000557150d167ca1259856cf1e4e327108b16543098",
            "0x0000000000000000000000003ffaf50d4f4e96eb78f2407c090b72e86ecaed24"
          ],
          "data": "0x00000000000000000000000000000000000000000000000000003fcb5b041c39",
          "blockHash": "0xe5df071f73dbc2eede900c38504eba667c2d1cc493d7eef196325c98d44ea6e7",
          "blockNumber": "0x464e49",
          "transactionHash": "0x77d260babcbad6abb83c37a97e884f3ff994cabc7a2ef6f626114983546bc3e4",
          "transactionIndex": "0x8",
          "logIndex": "0x9d",
          "removed": false
        },
        {
          "address": "0xf8Fb3713D459D7C1018BD0A49D19b4C44290EBE5",
          "topics": [
            "0x8c5be1e5ebec7d5bd14f71427d1e84f3dd0314c0f7b2291e5b200ac8c7c3b925",
            "0x000000000000000000000000557150d167ca1259856cf1e4e327108b16543098",
            "0x0000000000000000000000006ae43d3271ff6888e7fc43fd7321a503ff738951"
          ],
          "data": "0xffffffffffffffffffffffffffffffffffffffffffffffffffffc034a4fbe3c6",
          "blockHash": "0xe5df071f73dbc2eede900c38504eba667c2d1cc493d7eef196325c98d44ea6e7",
          "blockNumber": "0x464e49",
          "transactionHash": "0x77d260babcbad6abb83c37a97e884f3ff994cabc7a2ef6f626114983546bc3e4",
          "transactionIndex": "0x8",
          "logIndex": "0x9e",
          "removed": false
        },
        {
          "address": "0x6Ae43d3271ff6888e7Fc43Fd7321a503ff738951",
          "topics": [
            "0xefefaba5e921573100900a3ad9cf29f222d995fb3b6045797eaea7521bd8d6f0",
            "0x000000000000000000000000557150d167ca1259856cf1e4e327108b16543098",
            "0x000000000000000000000000f8fb3713d459d7c1018bd0a49d19b4c44290ebe5",
            "0x0000000000000000000000000000000000000000000000000000000000000000"
          ],
          "data": "0x000000000000000000000000557150d167ca1259856cf1e4e327108b1654309800000000000000000000000000000000000000000000000000003fc331a5b100000000000000000000000000000000000000000000000000000000000000000000000000000000000000000000000000000000000000000000000008295e6b39",
          "blockHash": "0xe5df071f73dbc2eede900c38504eba667c2d1cc493d7eef196325c98d44ea6e7",
          "blockNumber": "0x464e49",
          "transactionHash": "0x77d260babcbad6abb83c37a97e884f3ff994cabc7a2ef6f626114983546bc3e4",
          "transactionIndex": "0x8",
          "logIndex": "0x9f",
          "removed": false
        },
        {
          "address": "0x6Ae43d3271ff6888e7Fc43Fd7321a503ff738951",
          "topics": [
            "0x804c9b842b2748a22bb64b345453a3de7ca54a6ca45ce00d415894979e22897a",
            "0x000000000000000000000000aa8e23fb1079ea71e0a56f48a2aa51851d8433d0"
          ],
          "data": "0x0000000000000000000000000000000000000000000003953bd6e93790b7eb8c00000000000000000000000000000000000000000029614b10a5e0fc55bca163000000000000000000000000000000000000000000002b0d120ed4971de50b1d00000000000000000000000000000000000000000342ac3d78c47db61fd5ef8700000000000000000000000000000000000000000345056256d57e51cecec307",
          "blockHash": "0xe5df071f73dbc2eede900c38504eba667c2d1cc493d7eef196325c98d44ea6e7",
          "blockNumber": "0x464e49",
          "transactionHash": "0x77d260babcbad6abb83c37a97e884f3ff994cabc7a2ef6f626114983546bc3e4",
          "transactionIndex": "0x8",
          "logIndex": "0xa0",
          "removed": false
        },
        {
          "address": "0xaA8E23Fb1079EA71e0a56F48a2aA51851D8433D0",
          "topics": [
            "0xddf252ad1be2c89b69c2b068fc378daa952ba7f163c4a11628f55a4df523b3ef",
            "0x000000000000000000000000557150d167ca1259856cf1e4e327108b16543098",
            "0x000000000000000000000000af0f6e8b0dc5c913bbf4d14c22b4e78dd14310b6"
          ],
          "data": "0x000000000000000000000000000000000000000000000000000000047dfda46c",
          "blockHash": "0xe5df071f73dbc2eede900c38504eba667c2d1cc493d7eef196325c98d44ea6e7",
          "blockNumber": "0x464e49",
          "transactionHash": "0x77d260babcbad6abb83c37a97e884f3ff994cabc7a2ef6f626114983546bc3e4",
          "transactionIndex": "0x8",
          "logIndex": "0xa1",
          "removed": false
        },
        {
          "address": "0xaA8E23Fb1079EA71e0a56F48a2aA51851D8433D0",
          "topics": [
            "0x8c5be1e5ebec7d5bd14f71427d1e84f3dd0314c0f7b2291e5b200ac8c7c3b925",
            "0x000000000000000000000000557150d167ca1259856cf1e4e327108b16543098",
            "0x0000000000000000000000006ae43d3271ff6888e7fc43fd7321a503ff738951"
          ],
          "data": "0xfffffffffffffffffffffffffffffffffffffffffffffffffffffffb82025b93",
          "blockHash": "0xe5df071f73dbc2eede900c38504eba667c2d1cc493d7eef196325c98d44ea6e7",
          "blockNumber": "0x464e49",
          "transactionHash": "0x77d260babcbad6abb83c37a97e884f3ff994cabc7a2ef6f626114983546bc3e4",
          "transactionIndex": "0x8",
          "logIndex": "0xa2",
          "removed": false
        },
        {
          "address": "0x6Ae43d3271ff6888e7Fc43Fd7321a503ff738951",
          "topics": [
            "0xefefaba5e921573100900a3ad9cf29f222d995fb3b6045797eaea7521bd8d6f0",
            "0x000000000000000000000000557150d167ca1259856cf1e4e327108b16543098",
            "0x000000000000000000000000aa8e23fb1079ea71e0a56f48a2aa51851d8433d0",
            "0x0000000000000000000000000000000000000000000000000000000000000000"
          ],
          "data": "0x000000000000000000000000557150d167ca1259856cf1e4e327108b16543098000000000000000000000000000000000000000000000000000000047d6a845b00000000000000000000000000000000000000000000000000000000000000000000000000000000000000000000000000000000000000000000000000932011",
          "blockHash": "0xe5df071f73dbc2eede900c38504eba667c2d1cc493d7eef196325c98d44ea6e7",
          "blockNumber": "0x464e49",
          "transactionHash": "0x77d260babcbad6abb83c37a97e884f3ff994cabc7a2ef6f626114983546bc3e4",
          "transactionIndex": "0x8",
          "logIndex": "0xa3",
          "removed": false
        },
        {
          "address": "0x6Ae43d3271ff6888e7Fc43Fd7321a503ff738951",
          "topics": [
            "0x804c9b842b2748a22bb64b345453a3de7ca54a6ca45ce00d415894979e22897a",
            "0x000000000000000000000000aa8e23fb1079ea71e0a56f48a2aa51851d8433d0"
          ],
          "data": "0x0000000000000000000000000000000000000000000003953bd53fe1a3792bf400000000000000000000000000000000000000000029614b10a37e1d07240ba8000000000000000000000000000000000000000000002b0d11fbbd9ca9205d4700000000000000000000000000000000000000000342ac3d78f3d1830117545100000000000000000000000000000000000000000345056256d57e51cecec307",
          "blockHash": "0xe5df071f73dbc2eede900c38504eba667c2d1cc493d7eef196325c98d44ea6e7",
          "blockNumber": "0x464e49",
          "transactionHash": "0x77d260babcbad6abb83c37a97e884f3ff994cabc7a2ef6f626114983546bc3e4",
          "transactionIndex": "0x8",
          "logIndex": "0xa4",
          "removed": false
        },
        {
          "address": "0xaA8E23Fb1079EA71e0a56F48a2aA51851D8433D0",
          "topics": [
            "0xddf252ad1be2c89b69c2b068fc378daa952ba7f163c4a11628f55a4df523b3ef",
            "0x000000000000000000000000557150d167ca1259856cf1e4e327108b16543098",
            "0x000000000000000000000000af0f6e8b0dc5c913bbf4d14c22b4e78dd14310b6"
          ],
          "data": "0x000000000000000000000000000000000000000000000000000000000098ad9f",
          "blockHash": "0xe5df071f73dbc2eede900c38504eba667c2d1cc493d7eef196325c98d44ea6e7",
          "blockNumber": "0x464e49",
          "transactionHash": "0x77d260babcbad6abb83c37a97e884f3ff994cabc7a2ef6f626114983546bc3e4",
          "transactionIndex": "0x8",
          "logIndex": "0xa5",
          "removed": false
        },
        {
          "address": "0xaA8E23Fb1079EA71e0a56F48a2aA51851D8433D0",
          "topics": [
            "0x8c5be1e5ebec7d5bd14f71427d1e84f3dd0314c0f7b2291e5b200ac8c7c3b925",
            "0x000000000000000000000000557150d167ca1259856cf1e4e327108b16543098",
            "0x0000000000000000000000006ae43d3271ff6888e7fc43fd7321a503ff738951"
          ],
          "data": "0xfffffffffffffffffffffffffffffffffffffffffffffffffffffffb8169adf4",
          "blockHash": "0xe5df071f73dbc2eede900c38504eba667c2d1cc493d7eef196325c98d44ea6e7",
          "blockNumber": "0x464e49",
          "transactionHash": "0x77d260babcbad6abb83c37a97e884f3ff994cabc7a2ef6f626114983546bc3e4",
          "transactionIndex": "0x8",
          "logIndex": "0xa6",
          "removed": false
        },
        {
          "address": "0x6Ae43d3271ff6888e7Fc43Fd7321a503ff738951",
          "topics": [
            "0xefefaba5e921573100900a3ad9cf29f222d995fb3b6045797eaea7521bd8d6f0",
            "0x000000000000000000000000557150d167ca1259856cf1e4e327108b16543098",
            "0x000000000000000000000000aa8e23fb1079ea71e0a56f48a2aa51851d8433d0",
            "0x0000000000000000000000000000000000000000000000000000000000000000"
          ],
          "data": "0x000000000000000000000000557150d167ca1259856cf1e4e327108b165430980000000000000000000000000000000000000000000000000000000000989a1700000000000000000000000000000000000000000000000000000000000000000000000000000000000000000000000000000000000000000000000000001388",
          "blockHash": "0xe5df071f73dbc2eede900c38504eba667c2d1cc493d7eef196325c98d44ea6e7",
          "blockNumber": "0x464e49",
          "transactionHash": "0x77d260babcbad6abb83c37a97e884f3ff994cabc7a2ef6f626114983546bc3e4",
          "transactionIndex": "0x8",
          "logIndex": "0xa7",
          "removed": false
        },
        {
          "address": "0x6Ae43d3271ff6888e7Fc43Fd7321a503ff738951",
          "topics": [
            "0x804c9b842b2748a22bb64b345453a3de7ca54a6ca45ce00d415894979e22897a",
            "0x0000000000000000000000006d906e526a4e2ca02097ba9d0caa3c382f52278e"
          ],
          "data": "0x0000000000000000000000000000000000000000014b737ac47e54120ede9f7c0000000000000000000000000000000000000000018c291a18ad9cc92f8a6cda0000000000000000000000000000000000000000017fc0ba778f9adcc08a6cda0000000000000000000000000000000000000000034b170a688e97699d2f96710000000000000000000000000000000000000000034e731a6665c8f9b06f324d",
          "blockHash": "0xe5df071f73dbc2eede900c38504eba667c2d1cc493d7eef196325c98d44ea6e7",
          "blockNumber": "0x464e49",
          "transactionHash": "0x77d260babcbad6abb83c37a97e884f3ff994cabc7a2ef6f626114983546bc3e4",
          "transactionIndex": "0x8",
          "logIndex": "0xa8",
          "removed": false
        },
        {
          "address": "0x6d906e526a4e2Ca02097BA9d0caA3c382F52278E",
          "topics": [
            "0xddf252ad1be2c89b69c2b068fc378daa952ba7f163c4a11628f55a4df523b3ef",
            "0x000000000000000000000000557150d167ca1259856cf1e4e327108b16543098",
            "0x000000000000000000000000b20691021f9aced8631edaa3c0cd2949eb45662d"
          ],
          "data": "0x00000000000000000000000000000000000000000000000000000000000000c9",
          "blockHash": "0xe5df071f73dbc2eede900c38504eba667c2d1cc493d7eef196325c98d44ea6e7",
          "blockNumber": "0x464e49",
          "transactionHash": "0x77d260babcbad6abb83c37a97e884f3ff994cabc7a2ef6f626114983546bc3e4",
          "transactionIndex": "0x8",
          "logIndex": "0xa9",
          "removed": false
        },
        {
          "address": "0x6d906e526a4e2Ca02097BA9d0caA3c382F52278E",
          "topics": [
            "0x8c5be1e5ebec7d5bd14f71427d1e84f3dd0314c0f7b2291e5b200ac8c7c3b925",
            "0x000000000000000000000000557150d167ca1259856cf1e4e327108b16543098",
            "0x0000000000000000000000006ae43d3271ff6888e7fc43fd7321a503ff738951"
          ],
          "data": "0xffffffffffffffffffffffffffffffffffffffffffffffffffffffffffffff36",
          "blockHash": "0xe5df071f73dbc2eede900c38504eba667c2d1cc493d7eef196325c98d44ea6e7",
          "blockNumber": "0x464e49",
          "transactionHash": "0x77d260babcbad6abb83c37a97e884f3ff994cabc7a2ef6f626114983546bc3e4",
          "transactionIndex": "0x8",
          "logIndex": "0xaa",
          "removed": false
        },
        {
          "address": "0x6Ae43d3271ff6888e7Fc43Fd7321a503ff738951",
          "topics": [
            "0xefefaba5e921573100900a3ad9cf29f222d995fb3b6045797eaea7521bd8d6f0",
            "0x000000000000000000000000557150d167ca1259856cf1e4e327108b16543098",
            "0x0000000000000000000000006d906e526a4e2ca02097ba9d0caa3c382f52278e",
            "0x0000000000000000000000000000000000000000000000000000000000000000"
          ],
          "data": "0x000000000000000000000000557150d167ca1259856cf1e4e327108b1654309800000000000000000000000000000000000000000000000000000000000000c900000000000000000000000000000000000000000000000000000000000000000000000000000000000000000000000000000000000000000000000000000000",
          "blockHash": "0xe5df071f73dbc2eede900c38504eba667c2d1cc493d7eef196325c98d44ea6e7",
          "blockNumber": "0x464e49",
          "transactionHash": "0x77d260babcbad6abb83c37a97e884f3ff994cabc7a2ef6f626114983546bc3e4",
          "transactionIndex": "0x8",
          "logIndex": "0xab",
          "removed": false
        },
        {
          "address": "0x6Ae43d3271ff6888e7Fc43Fd7321a503ff738951",
          "topics": [
            "0x804c9b842b2748a22bb64b345453a3de7ca54a6ca45ce00d415894979e22897a",
            "0x0000000000000000000000006d906e526a4e2ca02097ba9d0caa3c382f52278e"
          ],
          "data": "0x0000000000000000000000000000000000000000014b711934a987f88637c7c30000000000000000000000000000000000000000018c268b8693e5cd4aa73cc20000000000000000000000000000000000000000017fbe2be575e3e0dba73cc20000000000000000000000000000000000000000034b170a688e97699d2f96710000000000000000000000000000000000000000034e731a6665c8f9b06f324d",
          "blockHash": "0xe5df071f73dbc2eede900c38504eba667c2d1cc493d7eef196325c98d44ea6e7",
          "blockNumber": "0x464e49",
          "transactionHash": "0x77d260babcbad6abb83c37a97e884f3ff994cabc7a2ef6f626114983546bc3e4",
          "transactionIndex": "0x8",
          "logIndex": "0xac",
          "removed": false
        },
        {
          "address": "0x6d906e526a4e2Ca02097BA9d0caA3c382F52278E",
          "topics": [
            "0xddf252ad1be2c89b69c2b068fc378daa952ba7f163c4a11628f55a4df523b3ef",
            "0x000000000000000000000000557150d167ca1259856cf1e4e327108b16543098",
            "0x000000000000000000000000b20691021f9aced8631edaa3c0cd2949eb45662d"
          ],
          "data": "0x00000000000000000000000000000000000000000000000000000000000002bd",
          "blockHash": "0xe5df071f73dbc2eede900c38504eba667c2d1cc493d7eef196325c98d44ea6e7",
          "blockNumber": "0x464e49",
          "transactionHash": "0x77d260babcbad6abb83c37a97e884f3ff994cabc7a2ef6f626114983546bc3e4",
          "transactionIndex": "0x8",
          "logIndex": "0xad",
          "removed": false
        },
        {
          "address": "0x6d906e526a4e2Ca02097BA9d0caA3c382F52278E",
          "topics": [
            "0x8c5be1e5ebec7d5bd14f71427d1e84f3dd0314c0f7b2291e5b200ac8c7c3b925",
            "0x000000000000000000000000557150d167ca1259856cf1e4e327108b16543098",
            "0x0000000000000000000000006ae43d3271ff6888e7fc43fd7321a503ff738951"
          ],
          "data": "0xfffffffffffffffffffffffffffffffffffffffffffffffffffffffffffffc79",
          "blockHash": "0xe5df071f73dbc2eede900c38504eba667c2d1cc493d7eef196325c98d44ea6e7",
          "blockNumber": "0x464e49",
          "transactionHash": "0x77d260babcbad6abb83c37a97e884f3ff994cabc7a2ef6f626114983546bc3e4",
          "transactionIndex": "0x8",
          "logIndex": "0xae",
          "removed": false
        },
        {
          "address": "0x6Ae43d3271ff6888e7Fc43Fd7321a503ff738951",
          "topics": [
            "0xefefaba5e921573100900a3ad9cf29f222d995fb3b6045797eaea7521bd8d6f0",
            "0x000000000000000000000000557150d167ca1259856cf1e4e327108b16543098",
            "0x0000000000000000000000006d906e526a4e2ca02097ba9d0caa3c382f52278e",
            "0x0000000000000000000000000000000000000000000000000000000000000000"
          ],
          "data": "0x000000000000000000000000557150d167ca1259856cf1e4e327108b1654309800000000000000000000000000000000000000000000000000000000000002bd00000000000000000000000000000000000000000000000000000000000000000000000000000000000000000000000000000000000000000000000000000000",
          "blockHash": "0xe5df071f73dbc2eede900c38504eba667c2d1cc493d7eef196325c98d44ea6e7",
          "blockNumber": "0x464e49",
          "transactionHash": "0x77d260babcbad6abb83c37a97e884f3ff994cabc7a2ef6f626114983546bc3e4",
          "transactionIndex": "0x8",
          "logIndex": "0xaf",
          "removed": false
        }
      ],
      "status": "0x1",
      "logsBloom": "0x10120800080008400680000200016800000000000040800002000400000000810000008040000000000040000004002000050000402000020000000000200000000000000001008080002008080000000000000000000000000000040000300004000000020020000010001080200c00004204000040000008000011401000002000008081040000005000000000000000200000080000000000000000002000020000000080424000000084800000000010308c40104000020006000102010002008042000111100000002048080300004280100000040100000001000020040010500408800020000080004001000100010000000801000000002001050000",
      "type": "0x2",
      "effectiveGasPrice": "0xdc30fd9f1"
    }
  ],
  "libraries": [],
  "pending": [],
  "returns": {},
  "timestamp": 1698837867,
  "chain": 11155111,
  "multi": false,
  "commit": "0d3f206"
}