{
  "transactions": [
    {
      "hash": "0xca9a562f08d14b1b9e15cef465743f576bab9b562d3caeef05a770f8b4fc5a35",
      "transactionType": "CALL",
      "contractName": "InitializableImmutableAdminUpgradeabilityProxy",
      "contractAddress": "0x34a4d932E722b9dFb492B9D8131127690CE2430B",
      "function": "approveDelegation(address,uint256)",
      "arguments": [
        "0x5d6085935AD04FBACC9D025Ba989bEAE91f94090",
        "69908341836250"
      ],
      "transaction": {
        "type": "0x02",
        "from": "0x3e122a3db43d225dd5bffd929ad4176ce69117e0",
        "to": "0x34a4d932e722b9dfb492b9d8131127690ce2430b",
        "gas": "0x12195",
        "value": "0x0",
        "data": "0xc04a8a100000000000000000000000005d6085935ad04fbacc9d025ba989beae91f9409000000000000000000000000000000000000000000000000000003f94cde1c9da",
        "nonce": "0xac",
        "accessList": []
      },
      "additionalContracts": [],
      "isFixedGasLimit": false
    },
    {
      "hash": "0x85cafb2ee6cfe31a21ce6c2d2b897612005199f7c5f3fb33cc32e797c6945763",
      "transactionType": "CALL",
      "contractName": "InitializableImmutableAdminUpgradeabilityProxy",
      "contractAddress": "0x9844386d29EEd970B9F6a2B9a676083b0478210e",
      "function": "approveDelegation(address,uint256)",
      "arguments": [
        "0x5d6085935AD04FBACC9D025Ba989bEAE91f94090",
        "109135623"
      ],
      "transaction": {
        "type": "0x02",
        "from": "0x3e122a3db43d225dd5bffd929ad4176ce69117e0",
        "to": "0x9844386d29eed970b9f6a2b9a676083b0478210e",
        "gas": "0x12175",
        "value": "0x0",
        "data": "0xc04a8a100000000000000000000000005d6085935ad04fbacc9d025ba989beae91f940900000000000000000000000000000000000000000000000000000000006814707",
        "nonce": "0xad",
        "accessList": []
      },
      "additionalContracts": [],
      "isFixedGasLimit": false
    },
    {
      "hash": "0xbc59ae198ab1949477a2da3a5253190c12f94000bfec0662a06c34ff960c2812",
      "transactionType": "CALL",
      "contractName": "InitializableImmutableAdminUpgradeabilityProxy",
      "contractAddress": "0x3FfAf50D4F4E96eB78f2407c090b72e86eCaed24",
      "function": "approve(address,uint256):(bool)",
      "arguments": [
        "0x5d6085935AD04FBACC9D025Ba989bEAE91f94090",
        "1027309661989132873041"
      ],
      "transaction": {
        "type": "0x02",
        "from": "0xc5e0b6e472dde70eceffa4c568bd52f2a7a1632a",
        "to": "0x3ffaf50d4f4e96eb78f2407c090b72e86ecaed24",
        "gas": "0x1148c",
        "value": "0x0",
        "data": "0x095ea7b30000000000000000000000005d6085935ad04fbacc9d025ba989beae91f94090000000000000000000000000000000000000000000000037b0c916a8c4e0ad51",
        "nonce": "0x59",
        "accessList": []
      },
      "additionalContracts": [],
      "isFixedGasLimit": false
    },
    {
      "hash": "0x4eb010126181eacc9b9b624ab3fad998eb61fc593392b39737a346ad378dd93f",
      "transactionType": "CALL",
      "contractName": "InitializableImmutableAdminUpgradeabilityProxy",
      "contractAddress": "0x16dA4541aD1807f4443d92D26044C1147406EB80",
      "function": "approve(address,uint256):(bool)",
      "arguments": [
        "0x5d6085935AD04FBACC9D025Ba989bEAE91f94090",
        "1017319997"
      ],
      "transaction": {
        "type": "0x02",
        "from": "0xc5e0b6e472dde70eceffa4c568bd52f2a7a1632a",
        "to": "0x16da4541ad1807f4443d92d26044c1147406eb80",
        "gas": "0x11439",
        "value": "0x0",
        "data": "0x095ea7b30000000000000000000000005d6085935ad04fbacc9d025ba989beae91f94090000000000000000000000000000000000000000000000000000000003ca3123d",
        "nonce": "0x5a",
        "accessList": []
      },
      "additionalContracts": [],
      "isFixedGasLimit": false
    },
    {
      "hash": "0xf01faa3040edb3fadd957349b5c034c7cfeea609f9986f6bd54d17e785160fba",
      "transactionType": "CALL",
      "contractName": "InitializableImmutableAdminUpgradeabilityProxy",
      "contractAddress": "0x1804Bf30507dc2EB3bDEbbbdd859991EAeF6EefF",
      "function": "approve(address,uint256):(bool)",
      "arguments": [
        "0x5d6085935AD04FBACC9D025Ba989bEAE91f94090",
        "100000001"
      ],
      "transaction": {
        "type": "0x02",
        "from": "0xc5e0b6e472dde70eceffa4c568bd52f2a7a1632a",
        "to": "0x1804bf30507dc2eb3bdebbbdd859991eaef6eeff",
        "gas": "0x11439",
        "value": "0x0",
        "data": "0x095ea7b30000000000000000000000005d6085935ad04fbacc9d025ba989beae91f940900000000000000000000000000000000000000000000000000000000005f5e101",
        "nonce": "0x5b",
        "accessList": []
      },
      "additionalContracts": [],
      "isFixedGasLimit": false
    },
    {
      "hash": "0xd1a37292a156cb638ff38119b32aa79ac74c162817f9dc6724729ab0647f6db1",
      "transactionType": "CALL",
      "contractName": "InitializableImmutableAdminUpgradeabilityProxy",
      "contractAddress": "0xAF0F6e8b0Dc5c913bbF4d14c22B4E78Dd14310B6",
      "function": "approve(address,uint256):(bool)",
      "arguments": [
        "0x5d6085935AD04FBACC9D025Ba989bEAE91f94090",
        "2015883"
      ],
      "transaction": {
        "type": "0x02",
        "from": "0xc5e0b6e472dde70eceffa4c568bd52f2a7a1632a",
        "to": "0xaf0f6e8b0dc5c913bbf4d14c22b4e78dd14310b6",
        "gas": "0x11429",
        "value": "0x0",
        "data": "0x095ea7b30000000000000000000000005d6085935ad04fbacc9d025ba989beae91f9409000000000000000000000000000000000000000000000000000000000001ec28b",
        "nonce": "0x5c",
        "accessList": []
      },
      "additionalContracts": [],
      "isFixedGasLimit": false
    },
    {
      "hash": "0x7d54344a21c3faf8e727bed99ee602e1b0f38d3b07f1b7e0c95a1165a4bc04b5",
      "transactionType": "CALL",
      "contractName": "InitializableImmutableAdminUpgradeabilityProxy",
      "contractAddress": "0x6b8558764d3b7572136F17174Cb9aB1DDc7E1259",
      "function": "approve(address,uint256):(bool)",
      "arguments": [
        "0x5d6085935AD04FBACC9D025Ba989bEAE91f94090",
        "100000000000000000000"
      ],
      "transaction": {
        "type": "0x02",
        "from": "0xc5e0b6e472dde70eceffa4c568bd52f2a7a1632a",
        "to": "0x6b8558764d3b7572136f17174cb9ab1ddc7e1259",
        "gas": "0x1146c",
        "value": "0x0",
        "data": "0x095ea7b30000000000000000000000005d6085935ad04fbacc9d025ba989beae91f940900000000000000000000000000000000000000000000000056bc75e2d63100000",
        "nonce": "0x5d",
        "accessList": []
      },
      "additionalContracts": [],
      "isFixedGasLimit": false
    },
    {
      "hash": "0x072aa807f80350ee96a7b5479dde5a4960f741dda60ec9ce56844f2d759540e7",
      "transactionType": "CALL",
      "contractName": "TeleportAaveV3",
      "contractAddress": "0x5d6085935AD04FBACC9D025Ba989bEAE91f94090",
      "function": "moveAavePositionToAnotherWallet(address,address,address[],uint256[],uint256[],address[],uint256[])",
      "arguments": [
        "0xC5e0B6E472dDE70eCEfFa4c568Bd52f2A7a1632A",
        "0x3e122A3dB43d225DD5BFFD929AD4176ce69117E0",
        "[0xf8Fb3713D459D7C1018BD0A49D19b4C44290EBE5, 0xaA8E23Fb1079EA71e0a56F48a2aA51851D8433D0]",
        "[68537590035540, 106995709]",
        "[0, 0]",
        "[0x3FfAf50D4F4E96eB78f2407c090b72e86eCaed24, 0x16dA4541aD1807f4443d92D26044C1147406EB80, 0x1804Bf30507dc2EB3bDEbbbdd859991EAeF6EefF, 0xAF0F6e8b0Dc5c913bbF4d14c22B4E78Dd14310B6, 0x6b8558764d3b7572136F17174Cb9aB1DDc7E1259]",
        "[1027309661989132873041, 1017319997, 100000001, 2015883, 100000000000000000000]"
      ],
      "transaction": {
        "type": "0x02",
        "from": "0xc5e0b6e472dde70eceffa4c568bd52f2a7a1632a",
        "to": "0x5d6085935ad04fbacc9d025ba989beae91f94090",
        "gas": "0x1a225a",
        "value": "0x0",
        "data": "0x849c3744000000000000000000000000c5e0b6e472dde70eceffa4c568bd52f2a7a1632a0000000000000000000000003e122a3db43d225dd5bffd929ad4176ce69117e000000000000000000000000000000000000000000000000000000000000000e0000000000000000000000000000000000000000000000000000000000000014000000000000000000000000000000000000000000000000000000000000001a0000000000000000000000000000000000000000000000000000000000000020000000000000000000000000000000000000000000000000000000000000002c00000000000000000000000000000000000000000000000000000000000000002000000000000000000000000f8fb3713d459d7c1018bd0a49d19b4c44290ebe5000000000000000000000000aa8e23fb1079ea71e0a56f48a2aa51851d8433d0000000000000000000000000000000000000000000000000000000000000000200000000000000000000000000000000000000000000000000003e55a6b534540000000000000000000000000000000000000000000000000000000006609ffd00000000000000000000000000000000000000000000000000000000000000020000000000000000000000000000000000000000000000000000000000000000000000000000000000000000000000000000000000000000000000000000000000000000000000000000000000000000000000000000000000000000000000050000000000000000000000003ffaf50d4f4e96eb78f2407c090b72e86ecaed2400000000000000000000000016da4541ad1807f4443d92d26044c1147406eb800000000000000000000000001804bf30507dc2eb3bdebbbdd859991eaef6eeff000000000000000000000000af0f6e8b0dc5c913bbf4d14c22b4e78dd14310b60000000000000000000000006b8558764d3b7572136f17174cb9ab1ddc7e12590000000000000000000000000000000000000000000000000000000000000005000000000000000000000000000000000000000000000037b0c916a8c4e0ad51000000000000000000000000000000000000000000000000000000003ca3123d0000000000000000000000000000000000000000000000000000000005f5e10100000000000000000000000000000000000000000000000000000000001ec28b0000000000000000000000000000000000000000000000056bc75e2d63100000",
        "nonce": "0x5e",
        "accessList": []
      },
      "additionalContracts": [],
      "isFixedGasLimit": false
    }
  ],
  "receipts": [
    {
      "transactionHash": "0xca9a562f08d14b1b9e15cef465743f576bab9b562d3caeef05a770f8b4fc5a35",
      "transactionIndex": "0x1",
      "blockHash": "0x7b149a85e5d77fa56e41c61e6e918dd3ed89c7b59573665da3d4939d9b7be054",
      "blockNumber": "0x460465",
      "from": "0x3e122A3dB43d225DD5BFFD929AD4176ce69117E0",
      "to": "0x34a4d932E722b9dFb492B9D8131127690CE2430B",
      "cumulativeGasUsed": "0x2b556",
      "gasUsed": "0xd1a8",
      "contractAddress": null,
      "logs": [
        {
          "address": "0x34a4d932E722b9dFb492B9D8131127690CE2430B",
          "topics": [
            "0xda919360433220e13b51e8c211e490d148e61a3bd53de8c097194e458b97f3e1",
            "0x0000000000000000000000003e122a3db43d225dd5bffd929ad4176ce69117e0",
            "0x0000000000000000000000005d6085935ad04fbacc9d025ba989beae91f94090",
            "0x000000000000000000000000f8fb3713d459d7c1018bd0a49d19b4c44290ebe5"
          ],
          "data": "0x00000000000000000000000000000000000000000000000000003f94cde1c9da",
          "blockHash": "0x7b149a85e5d77fa56e41c61e6e918dd3ed89c7b59573665da3d4939d9b7be054",
          "blockNumber": "0x460465",
          "transactionHash": "0xca9a562f08d14b1b9e15cef465743f576bab9b562d3caeef05a770f8b4fc5a35",
          "transactionIndex": "0x1",
          "logIndex": "0x1",
          "removed": false
        }
      ],
      "status": "0x1",
      "logsBloom": "0x00020000080000000000000000000000000000000000000000000000000000000000000040000000000000000000000000000000008000000000000000000000000000000001000000000000000000000000000000000000000000000000100000000000000020000000000000000000000000000000000000000000000000000000000000040000000000000000000000000000000000000000000000000000000000000000020000000080800000000000000000004000000000000000000000000000000000000000000000000000004000000000000000000000000000000000000000000010000000000000000100000000000000000000000000000000",
      "type": "0x2",
      "effectiveGasPrice": "0xb2d05e09"
    },
    {
      "transactionHash": "0x85cafb2ee6cfe31a21ce6c2d2b897612005199f7c5f3fb33cc32e797c6945763",
      "transactionIndex": "0x1",
      "blockHash": "0xa6e5224d9361e2912ac5c997a4f0be907dd62ca620d3a66829e4b82300893be3",
      "blockNumber": "0x460466",
      "from": "0x3e122A3dB43d225DD5BFFD929AD4176ce69117E0",
      "to": "0x9844386d29EEd970B9F6a2B9a676083b0478210e",
      "cumulativeGasUsed": "0x3cdc1",
      "gasUsed": "0xd190",
      "contractAddress": null,
      "logs": [
        {
          "address": "0x9844386d29EEd970B9F6a2B9a676083b0478210e",
          "topics": [
            "0xda919360433220e13b51e8c211e490d148e61a3bd53de8c097194e458b97f3e1",
            "0x0000000000000000000000003e122a3db43d225dd5bffd929ad4176ce69117e0",
            "0x0000000000000000000000005d6085935ad04fbacc9d025ba989beae91f94090",
            "0x000000000000000000000000aa8e23fb1079ea71e0a56f48a2aa51851d8433d0"
          ],
          "data": "0x0000000000000000000000000000000000000000000000000000000006814707",
          "blockHash": "0xa6e5224d9361e2912ac5c997a4f0be907dd62ca620d3a66829e4b82300893be3",
          "blockNumber": "0x460466",
          "transactionHash": "0x85cafb2ee6cfe31a21ce6c2d2b897612005199f7c5f3fb33cc32e797c6945763",
          "transactionIndex": "0x1",
          "logIndex": "0x1",
          "removed": false
        }
      ],
      "status": "0x1",
      "logsBloom": "0x00000000080000000000000000000000000000000000000000000000000000000000000000000000000000000000000000000000008000000000000000000000000000000000000000000000000000000000000000000000000000000000100000000000000000000000000080000000000000000000000000000000000000000000000000040000000000000000000000000000000000000000000000000000000000000000000000000080800000000000000000004000020004000000000000000000000000000000000000000000000200100000000000000000000000000000000000000010000000000000000100010000000000000000000000000000",
      "type": "0x2",
      "effectiveGasPrice": "0xb2d05e09"
    },
    {
      "transactionHash": "0xbc59ae198ab1949477a2da3a5253190c12f94000bfec0662a06c34ff960c2812",
      "transactionIndex": "0x0",
      "blockHash": "0x3d8cbdb701b171028cf65bf6d20d5a109597fe80fd2de21f9acf9c01e6deb275",
      "blockNumber": "0x460467",
      "from": "0xC5e0B6E472dDE70eCEfFa4c568Bd52f2A7a1632A",
      "to": "0x3FfAf50D4F4E96eB78f2407c090b72e86eCaed24",
      "cumulativeGasUsed": "0xc838",
      "gasUsed": "0xc838",
      "contractAddress": null,
      "logs": [
        {
          "address": "0x3FfAf50D4F4E96eB78f2407c090b72e86eCaed24",
          "topics": [
            "0x8c5be1e5ebec7d5bd14f71427d1e84f3dd0314c0f7b2291e5b200ac8c7c3b925",
            "0x000000000000000000000000c5e0b6e472dde70eceffa4c568bd52f2a7a1632a",
            "0x0000000000000000000000005d6085935ad04fbacc9d025ba989beae91f94090"
          ],
          "data": "0x000000000000000000000000000000000000000000000037b0c916a8c4e0ad51",
          "blockHash": "0x3d8cbdb701b171028cf65bf6d20d5a109597fe80fd2de21f9acf9c01e6deb275",
          "blockNumber": "0x460467",
          "transactionHash": "0xbc59ae198ab1949477a2da3a5253190c12f94000bfec0662a06c34ff960c2812",
          "transactionIndex": "0x0",
          "logIndex": "0x0",
          "removed": false
        }
      ],
      "status": "0x1",
      "logsBloom": "0x00000000000000000000000000002000000000000000000000000000000000000000000000000000000000000000000000000000008000000000000000200000000000000000000000000000000000000000000000000000000000000000000000000000000000000000001000000000000000000000000000000001000000000000008000000000000000000000000000000000000000000000000000000000020000000000000000000000000000000000000040004000000000000000000000000000000000000000000000000000000000000000000000000000000000000010000000000010000000000000000000000000000000000000000001000000",
      "type": "0x2",
      "effectiveGasPrice": "0xb2d05e09"
    },
    {
      "transactionHash": "0x4eb010126181eacc9b9b624ab3fad998eb61fc593392b39737a346ad378dd93f",
      "transactionIndex": "0x0",
      "blockHash": "0xfccab6d01d3488552e4c8706b181890875fd2f8d160d80257abd9a6be72f3de7",
      "blockNumber": "0x460468",
      "from": "0xC5e0B6E472dDE70eCEfFa4c568Bd52f2A7a1632A",
      "to": "0x16dA4541aD1807f4443d92D26044C1147406EB80",
      "cumulativeGasUsed": "0xc7fc",
      "gasUsed": "0xc7fc",
      "contractAddress": null,
      "logs": [
        {
          "address": "0x16dA4541aD1807f4443d92D26044C1147406EB80",
          "topics": [
            "0x8c5be1e5ebec7d5bd14f71427d1e84f3dd0314c0f7b2291e5b200ac8c7c3b925",
            "0x000000000000000000000000c5e0b6e472dde70eceffa4c568bd52f2a7a1632a",
            "0x0000000000000000000000005d6085935ad04fbacc9d025ba989beae91f94090"
          ],
          "data": "0x000000000000000000000000000000000000000000000000000000003ca3123d",
          "blockHash": "0xfccab6d01d3488552e4c8706b181890875fd2f8d160d80257abd9a6be72f3de7",
          "blockNumber": "0x460468",
          "transactionHash": "0x4eb010126181eacc9b9b624ab3fad998eb61fc593392b39737a346ad378dd93f",
          "transactionIndex": "0x0",
          "logIndex": "0x0",
          "removed": false
        }
      ],
      "status": "0x1",
      "logsBloom": "0x00000000000000000200000000002000000000000000000000000000000000000000008000000000000000000000000000000000008000000000000000200000000000000000000000000000000000000000000000000000000000000000000000000000000000000000000000000000000000000000000000000001000000000000000000000000000000000000000000000000000000000000000000000000020000000000000000000000000000000000000040004000000000000000000000008000000000000000000000000000000000000000000000000000000000000010000000000010000000000000000000000000000000000000000000000000",
      "type": "0x2",
      "effectiveGasPrice": "0xb2d05e09"
    },
    {
      "transactionHash": "0xf01faa3040edb3fadd957349b5c034c7cfeea609f9986f6bd54d17e785160fba",
      "transactionIndex": "0x1",
      "blockHash": "0xef20dd745ee2b9af55dd2f515a18699a491e4435cc3a3e0e411370cb1c9d0686",
      "blockNumber": "0x460469",
      "from": "0xC5e0B6E472dDE70eCEfFa4c568Bd52f2A7a1632A",
      "to": "0x1804Bf30507dc2EB3bDEbbbdd859991EAeF6EefF",
      "cumulativeGasUsed": "0xaebd1",
      "gasUsed": "0xc7fc",
      "contractAddress": null,
      "logs": [
        {
          "address": "0x1804Bf30507dc2EB3bDEbbbdd859991EAeF6EefF",
          "topics": [
            "0x8c5be1e5ebec7d5bd14f71427d1e84f3dd0314c0f7b2291e5b200ac8c7c3b925",
            "0x000000000000000000000000c5e0b6e472dde70eceffa4c568bd52f2a7a1632a",
            "0x0000000000000000000000005d6085935ad04fbacc9d025ba989beae91f94090"
          ],
          "data": "0x0000000000000000000000000000000000000000000000000000000005f5e101",
          "blockHash": "0xef20dd745ee2b9af55dd2f515a18699a491e4435cc3a3e0e411370cb1c9d0686",
          "blockNumber": "0x460469",
          "transactionHash": "0xf01faa3040edb3fadd957349b5c034c7cfeea609f9986f6bd54d17e785160fba",
          "transactionIndex": "0x1",
          "logIndex": "0x0",
          "removed": false
        }
      ],
      "status": "0x1",
      "logsBloom": "0x00000000000000000000000000002000000000000000000000000000000000000000000000000000000000000000000000000000008000000000000000200000000000000000000000000000000000000000000000000000000000000000000000000000000000000000000000000000000000000000000000000001000000000000000000000000000000000000000000000000000000000000000000000000020000000000000000000000000000000000000040004000000002000000000000000000000000000000000000000000000000000000000000000000000000000010000008000010000000000000000000000000000000000000000000000000",
      "type": "0x2",
      "effectiveGasPrice": "0xb2d05e09"
    },
    {
      "transactionHash": "0xd1a37292a156cb638ff38119b32aa79ac74c162817f9dc6724729ab0647f6db1",
      "transactionIndex": "0x1",
      "blockHash": "0x0d1ca125f1422eb3f975a4ffd8743d8c07aafd62226228d70687f3e5b92c0498",
      "blockNumber": "0x46046a",
      "from": "0xC5e0B6E472dDE70eCEfFa4c568Bd52f2A7a1632A",
      "to": "0xAF0F6e8b0Dc5c913bbF4d14c22B4E78Dd14310B6",
      "cumulativeGasUsed": "0x16ed5",
      "gasUsed": "0xc7f0",
      "contractAddress": null,
      "logs": [
        {
          "address": "0xAF0F6e8b0Dc5c913bbF4d14c22B4E78Dd14310B6",
          "topics": [
            "0x8c5be1e5ebec7d5bd14f71427d1e84f3dd0314c0f7b2291e5b200ac8c7c3b925",
            "0x000000000000000000000000c5e0b6e472dde70eceffa4c568bd52f2a7a1632a",
            "0x0000000000000000000000005d6085935ad04fbacc9d025ba989beae91f94090"
          ],
          "data": "0x00000000000000000000000000000000000000000000000000000000001ec28b",
          "blockHash": "0x0d1ca125f1422eb3f975a4ffd8743d8c07aafd62226228d70687f3e5b92c0498",
          "blockNumber": "0x46046a",
          "transactionHash": "0xd1a37292a156cb638ff38119b32aa79ac74c162817f9dc6724729ab0647f6db1",
          "transactionIndex": "0x1",
          "logIndex": "0x2",
          "removed": false
        }
      ],
      "status": "0x1",
      "logsBloom": "0x00000000000000000000000000002000000000000000000000000000000000000000000000000000000000000000000000000000008000000000000000200000000000000000000000000000000000000000000000000000000000000000000000000000000000000000000000000000000000000000000000000001000000000000000000000000000000000000000000000000000000000000000000000000020000000000000000000000000000000000008040004000000000000000000000000000000000000000000000080000000000000000000000000001000000000010000000000010000000000000000000000000000000000000000000000000",
      "type": "0x2",
      "effectiveGasPrice": "0xb2d05e09"
    },
    {
      "transactionHash": "0x7d54344a21c3faf8e727bed99ee602e1b0f38d3b07f1b7e0c95a1165a4bc04b5",
      "transactionIndex": "0x2",
      "blockHash": "0x2f355b8dd6996ebe9da81c287cdfe9bab81ef857cbeddf392f2656fed94b2322",
      "blockNumber": "0x46046c",
      "from": "0xC5e0B6E472dDE70eCEfFa4c568Bd52f2A7a1632A",
      "to": "0x6b8558764d3b7572136F17174Cb9aB1DDc7E1259",
      "cumulativeGasUsed": "0xf0022",
      "gasUsed": "0xc820",
      "contractAddress": null,
      "logs": [
        {
          "address": "0x6b8558764d3b7572136F17174Cb9aB1DDc7E1259",
          "topics": [
            "0x8c5be1e5ebec7d5bd14f71427d1e84f3dd0314c0f7b2291e5b200ac8c7c3b925",
            "0x000000000000000000000000c5e0b6e472dde70eceffa4c568bd52f2a7a1632a",
            "0x0000000000000000000000005d6085935ad04fbacc9d025ba989beae91f94090"
          ],
          "data": "0x0000000000000000000000000000000000000000000000056bc75e2d63100000",
          "blockHash": "0x2f355b8dd6996ebe9da81c287cdfe9bab81ef857cbeddf392f2656fed94b2322",
          "blockNumber": "0x46046c",
          "transactionHash": "0x7d54344a21c3faf8e727bed99ee602e1b0f38d3b07f1b7e0c95a1165a4bc04b5",
          "transactionIndex": "0x2",
          "logIndex": "0x1",
          "removed": false
        }
      ],
      "status": "0x1",
      "logsBloom": "0x00000000000000000000000000002800000000000000000000000000000000000000000000000000000000000000000000000000008000000000000000200000000000000000000000002000000000000000000000000000000000000000000000000000000000000000000000000000000000000000000000000001000000000000000000000000000000000000000000000000000000000000000000000000020000000000000000000000000000000000000040004000000000000000000000000000000000000000000000000000000000000000000000000000000000000010000400000010000000000000000000000000000000000000000000000000",
      "type": "0x2",
      "effectiveGasPrice": "0xb2d05e08"
    },
    {
      "transactionHash": "0x072aa807f80350ee96a7b5479dde5a4960f741dda60ec9ce56844f2d759540e7",
      "transactionIndex": "0x1",
      "blockHash": "0x06460aebf10f7406e6a9c0a2837dcc7040a8b77de62322c951c7b157c3a9c222",
      "blockNumber": "0x46046d",
      "from": "0xC5e0B6E472dDE70eCEfFa4c568Bd52f2A7a1632A",
      "to": "0x5d6085935AD04FBACC9D025Ba989bEAE91f94090",
      "cumulativeGasUsed": "0x14819e",
      "gasUsed": "0x11e306",
      "contractAddress": null,
      "logs": [
        {
          "address": "0xf8Fb3713D459D7C1018BD0A49D19b4C44290EBE5",
          "topics": [
            "0xddf252ad1be2c89b69c2b068fc378daa952ba7f163c4a11628f55a4df523b3ef",
            "0x0000000000000000000000003ffaf50d4f4e96eb78f2407c090b72e86ecaed24",
            "0x0000000000000000000000005d6085935ad04fbacc9d025ba989beae91f94090"
          ],
          "data": "0x00000000000000000000000000000000000000000000000000003e55a6b53454",
          "blockHash": "0x06460aebf10f7406e6a9c0a2837dcc7040a8b77de62322c951c7b157c3a9c222",
          "blockNumber": "0x46046d",
          "transactionHash": "0x072aa807f80350ee96a7b5479dde5a4960f741dda60ec9ce56844f2d759540e7",
          "transactionIndex": "0x1",
          "logIndex": "0x1",
          "removed": false
        },
        {
          "address": "0xaA8E23Fb1079EA71e0a56F48a2aA51851D8433D0",
          "topics": [
            "0xddf252ad1be2c89b69c2b068fc378daa952ba7f163c4a11628f55a4df523b3ef",
            "0x000000000000000000000000af0f6e8b0dc5c913bbf4d14c22b4e78dd14310b6",
            "0x0000000000000000000000005d6085935ad04fbacc9d025ba989beae91f94090"
          ],
          "data": "0x0000000000000000000000000000000000000000000000000000000006609ffd",
          "blockHash": "0x06460aebf10f7406e6a9c0a2837dcc7040a8b77de62322c951c7b157c3a9c222",
          "blockNumber": "0x46046d",
          "transactionHash": "0x072aa807f80350ee96a7b5479dde5a4960f741dda60ec9ce56844f2d759540e7",
          "transactionIndex": "0x1",
          "logIndex": "0x2",
          "removed": false
        },
        {
          "address": "0xf8Fb3713D459D7C1018BD0A49D19b4C44290EBE5",
          "topics": [
            "0x8c5be1e5ebec7d5bd14f71427d1e84f3dd0314c0f7b2291e5b200ac8c7c3b925",
            "0x0000000000000000000000005d6085935ad04fbacc9d025ba989beae91f94090",
            "0x0000000000000000000000006ae43d3271ff6888e7fc43fd7321a503ff738951"
          ],
          "data": "0x00000000000000000000000000000000000000000000000000003e55a6b53454",
          "blockHash": "0x06460aebf10f7406e6a9c0a2837dcc7040a8b77de62322c951c7b157c3a9c222",
          "blockNumber": "0x46046d",
          "transactionHash": "0x072aa807f80350ee96a7b5479dde5a4960f741dda60ec9ce56844f2d759540e7",
          "transactionIndex": "0x1",
          "logIndex": "0x3",
          "removed": false
        },
        {
          "address": "0x34a4d932E722b9dFb492B9D8131127690CE2430B",
          "topics": [
            "0xddf252ad1be2c89b69c2b068fc378daa952ba7f163c4a11628f55a4df523b3ef",
            "0x000000000000000000000000c5e0b6e472dde70eceffa4c568bd52f2a7a1632a",
            "0x0000000000000000000000000000000000000000000000000000000000000000"
          ],
          "data": "0x00000000000000000000000000000000000000000000000000003c411986eb25",
          "blockHash": "0x06460aebf10f7406e6a9c0a2837dcc7040a8b77de62322c951c7b157c3a9c222",
          "blockNumber": "0x46046d",
          "transactionHash": "0x072aa807f80350ee96a7b5479dde5a4960f741dda60ec9ce56844f2d759540e7",
          "transactionIndex": "0x1",
          "logIndex": "0x4",
          "removed": false
        },
        {
          "address": "0x34a4d932E722b9dFb492B9D8131127690CE2430B",
          "topics": [
            "0x4cf25bc1d991c17529c25213d3cc0cda295eeaad5f13f361969b12ea48015f90",
            "0x000000000000000000000000c5e0b6e472dde70eceffa4c568bd52f2a7a1632a",
            "0x0000000000000000000000000000000000000000000000000000000000000000"
          ],
          "data": "0x00000000000000000000000000000000000000000000000000003c411986eb25000000000000000000000000000000000000000000000000000002148d2e492f0000000000000000000000000000000000000000038c339d7458d475e2d7d8e9",
          "blockHash": "0x06460aebf10f7406e6a9c0a2837dcc7040a8b77de62322c951c7b157c3a9c222",
          "blockNumber": "0x46046d",
          "transactionHash": "0x072aa807f80350ee96a7b5479dde5a4960f741dda60ec9ce56844f2d759540e7",
          "transactionIndex": "0x1",
          "logIndex": "0x5",
          "removed": false
        },
        {
          "address": "0x6Ae43d3271ff6888e7Fc43Fd7321a503ff738951",
          "topics": [
            "0x804c9b842b2748a22bb64b345453a3de7ca54a6ca45ce00d415894979e22897a",
            "0x000000000000000000000000f8fb3713d459d7c1018bd0a49d19b4c44290ebe5"
          ],
          "data": "0x00000000000000000000000000000000000000000760244b87ea6a5e0c09f9d2000000000000000000000000000000000000000009c14140ae77a8ec58f87ce200000000000000000000000000000000000000000976cf02e7c39d61bef87ce20000000000000000000000000000000000000000037873d2881df653f705f1be0000000000000000000000000000000000000000038c339d7458d475e2d7d8e9",
          "blockHash": "0x06460aebf10f7406e6a9c0a2837dcc7040a8b77de62322c951c7b157c3a9c222",
          "blockNumber": "0x46046d",
          "transactionHash": "0x072aa807f80350ee96a7b5479dde5a4960f741dda60ec9ce56844f2d759540e7",
          "transactionIndex": "0x1",
          "logIndex": "0x6",
          "removed": false
        },
        {
          "address": "0xf8Fb3713D459D7C1018BD0A49D19b4C44290EBE5",
          "topics": [
            "0xddf252ad1be2c89b69c2b068fc378daa952ba7f163c4a11628f55a4df523b3ef",
            "0x0000000000000000000000005d6085935ad04fbacc9d025ba989beae91f94090",
            "0x0000000000000000000000003ffaf50d4f4e96eb78f2407c090b72e86ecaed24"
          ],
          "data": "0x00000000000000000000000000000000000000000000000000003e55a6b53454",
          "blockHash": "0x06460aebf10f7406e6a9c0a2837dcc7040a8b77de62322c951c7b157c3a9c222",
          "blockNumber": "0x46046d",
          "transactionHash": "0x072aa807f80350ee96a7b5479dde5a4960f741dda60ec9ce56844f2d759540e7",
          "transactionIndex": "0x1",
          "logIndex": "0x7",
          "removed": false
        },
        {
          "address": "0xf8Fb3713D459D7C1018BD0A49D19b4C44290EBE5",
          "topics": [
            "0x8c5be1e5ebec7d5bd14f71427d1e84f3dd0314c0f7b2291e5b200ac8c7c3b925",
            "0x0000000000000000000000005d6085935ad04fbacc9d025ba989beae91f94090",
            "0x0000000000000000000000006ae43d3271ff6888e7fc43fd7321a503ff738951"
          ],
          "data": "0x0000000000000000000000000000000000000000000000000000000000000000",
          "blockHash": "0x06460aebf10f7406e6a9c0a2837dcc7040a8b77de62322c951c7b157c3a9c222",
          "blockNumber": "0x46046d",
          "transactionHash": "0x072aa807f80350ee96a7b5479dde5a4960f741dda60ec9ce56844f2d759540e7",
          "transactionIndex": "0x1",
          "logIndex": "0x8",
          "removed": false
        },
        {
          "address": "0x6Ae43d3271ff6888e7Fc43Fd7321a503ff738951",
          "topics": [
            "0xa534c8dbe71f871f9f3530e97a74601fea17b426cae02e1c5aee42c96c784051",
            "0x000000000000000000000000f8fb3713d459d7c1018bd0a49d19b4c44290ebe5",
            "0x000000000000000000000000c5e0b6e472dde70eceffa4c568bd52f2a7a1632a",
            "0x0000000000000000000000005d6085935ad04fbacc9d025ba989beae91f94090"
          ],
          "data": "0x00000000000000000000000000000000000000000000000000003e55a6b534540000000000000000000000000000000000000000000000000000000000000000",
          "blockHash": "0x06460aebf10f7406e6a9c0a2837dcc7040a8b77de62322c951c7b157c3a9c222",
          "blockNumber": "0x46046d",
          "transactionHash": "0x072aa807f80350ee96a7b5479dde5a4960f741dda60ec9ce56844f2d759540e7",
          "transactionIndex": "0x1",
          "logIndex": "0x9",
          "removed": false
        },
        {
          "address": "0xaA8E23Fb1079EA71e0a56F48a2aA51851D8433D0",
          "topics": [
            "0x8c5be1e5ebec7d5bd14f71427d1e84f3dd0314c0f7b2291e5b200ac8c7c3b925",
            "0x0000000000000000000000005d6085935ad04fbacc9d025ba989beae91f94090",
            "0x0000000000000000000000006ae43d3271ff6888e7fc43fd7321a503ff738951"
          ],
          "data": "0x0000000000000000000000000000000000000000000000000000000006609ffd",
          "blockHash": "0x06460aebf10f7406e6a9c0a2837dcc7040a8b77de62322c951c7b157c3a9c222",
          "blockNumber": "0x46046d",
          "transactionHash": "0x072aa807f80350ee96a7b5479dde5a4960f741dda60ec9ce56844f2d759540e7",
          "transactionIndex": "0x1",
          "logIndex": "0xa",
          "removed": false
        },
        {
          "address": "0x9844386d29EEd970B9F6a2B9a676083b0478210e",
          "topics": [
            "0xddf252ad1be2c89b69c2b068fc378daa952ba7f163c4a11628f55a4df523b3ef",
            "0x000000000000000000000000c5e0b6e472dde70eceffa4c568bd52f2a7a1632a",
            "0x0000000000000000000000000000000000000000000000000000000000000000"
          ],
          "data": "0x0000000000000000000000000000000000000000000000000000000006609c6a",
          "blockHash": "0x06460aebf10f7406e6a9c0a2837dcc7040a8b77de62322c951c7b157c3a9c222",
          "blockNumber": "0x46046d",
          "transactionHash": "0x072aa807f80350ee96a7b5479dde5a4960f741dda60ec9ce56844f2d759540e7",
          "transactionIndex": "0x1",
          "logIndex": "0xb",
          "removed": false
        },
        {
          "address": "0x9844386d29EEd970B9F6a2B9a676083b0478210e",
          "topics": [
            "0x4cf25bc1d991c17529c25213d3cc0cda295eeaad5f13f361969b12ea48015f90",
            "0x000000000000000000000000c5e0b6e472dde70eceffa4c568bd52f2a7a1632a",
            "0x0000000000000000000000000000000000000000000000000000000000000000"
          ],
          "data": "0x0000000000000000000000000000000000000000000000000000000006609c6a000000000000000000000000000000000000000000000000000000000000039300000000000000000000000000000000000000000344fbb0de114b4b01d61398",
          "blockHash": "0x06460aebf10f7406e6a9c0a2837dcc7040a8b77de62322c951c7b157c3a9c222",
          "blockNumber": "0x46046d",
          "transactionHash": "0x072aa807f80350ee96a7b5479dde5a4960f741dda60ec9ce56844f2d759540e7",
          "transactionIndex": "0x1",
          "logIndex": "0xc",
          "removed": false
        },
        {
          "address": "0x6Ae43d3271ff6888e7Fc43Fd7321a503ff738951",
          "topics": [
            "0x804c9b842b2748a22bb64b345453a3de7ca54a6ca45ce00d415894979e22897a",
            "0x000000000000000000000000aa8e23fb1079ea71e0a56f48a2aa51851d8433d0"
          ],
          "data": "0x000000000000000000000000000000000000000000000c9b90457819854352f1000000000000000000000000000000000000000000296a60ad9c437b3191e9550000000000000000000000000000000000000000000073b9f9c1e88dfc8f4aac00000000000000000000000000000000000000000342a909649bae8ea710e4cb00000000000000000000000000000000000000000344fbb0de114b4b01d61398",
          "blockHash": "0x06460aebf10f7406e6a9c0a2837dcc7040a8b77de62322c951c7b157c3a9c222",
          "blockNumber": "0x46046d",
          "transactionHash": "0x072aa807f80350ee96a7b5479dde5a4960f741dda60ec9ce56844f2d759540e7",
          "transactionIndex": "0x1",
          "logIndex": "0xd",
          "removed": false
        },
        {
          "address": "0xaA8E23Fb1079EA71e0a56F48a2aA51851D8433D0",
          "topics": [
            "0xddf252ad1be2c89b69c2b068fc378daa952ba7f163c4a11628f55a4df523b3ef",
            "0x0000000000000000000000005d6085935ad04fbacc9d025ba989beae91f94090",
            "0x000000000000000000000000af0f6e8b0dc5c913bbf4d14c22b4e78dd14310b6"
          ],
          "data": "0x0000000000000000000000000000000000000000000000000000000006609ffd",
          "blockHash": "0x06460aebf10f7406e6a9c0a2837dcc7040a8b77de62322c951c7b157c3a9c222",
          "blockNumber": "0x46046d",
          "transactionHash": "0x072aa807f80350ee96a7b5479dde5a4960f741dda60ec9ce56844f2d759540e7",
          "transactionIndex": "0x1",
          "logIndex": "0xe",
          "removed": false
        },
        {
          "address": "0xaA8E23Fb1079EA71e0a56F48a2aA51851D8433D0",
          "topics": [
            "0x8c5be1e5ebec7d5bd14f71427d1e84f3dd0314c0f7b2291e5b200ac8c7c3b925",
            "0x0000000000000000000000005d6085935ad04fbacc9d025ba989beae91f94090",
            "0x0000000000000000000000006ae43d3271ff6888e7fc43fd7321a503ff738951"
          ],
          "data": "0x0000000000000000000000000000000000000000000000000000000000000000",
          "blockHash": "0x06460aebf10f7406e6a9c0a2837dcc7040a8b77de62322c951c7b157c3a9c222",
          "blockNumber": "0x46046d",
          "transactionHash": "0x072aa807f80350ee96a7b5479dde5a4960f741dda60ec9ce56844f2d759540e7",
          "transactionIndex": "0x1",
          "logIndex": "0xf",
          "removed": false
        },
        {
          "address": "0x6Ae43d3271ff6888e7Fc43Fd7321a503ff738951",
          "topics": [
            "0xa534c8dbe71f871f9f3530e97a74601fea17b426cae02e1c5aee42c96c784051",
            "0x000000000000000000000000aa8e23fb1079ea71e0a56f48a2aa51851d8433d0",
            "0x000000000000000000000000c5e0b6e472dde70eceffa4c568bd52f2a7a1632a",
            "0x0000000000000000000000005d6085935ad04fbacc9d025ba989beae91f94090"
          ],
          "data": "0x0000000000000000000000000000000000000000000000000000000006609ffd0000000000000000000000000000000000000000000000000000000000000000",
          "blockHash": "0x06460aebf10f7406e6a9c0a2837dcc7040a8b77de62322c951c7b157c3a9c222",
          "blockNumber": "0x46046d",
          "transactionHash": "0x072aa807f80350ee96a7b5479dde5a4960f741dda60ec9ce56844f2d759540e7",
          "transactionIndex": "0x1",
          "logIndex": "0x10",
          "removed": false
        },
        {
          "address": "0x3FfAf50D4F4E96eB78f2407c090b72e86eCaed24",
          "topics": [
            "0x8c5be1e5ebec7d5bd14f71427d1e84f3dd0314c0f7b2291e5b200ac8c7c3b925",
            "0x000000000000000000000000c5e0b6e472dde70eceffa4c568bd52f2a7a1632a",
            "0x0000000000000000000000005d6085935ad04fbacc9d025ba989beae91f94090"
          ],
          "data": "0x0000000000000000000000000000000000000000000000000000000000000000",
          "blockHash": "0x06460aebf10f7406e6a9c0a2837dcc7040a8b77de62322c951c7b157c3a9c222",
          "blockNumber": "0x46046d",
          "transactionHash": "0x072aa807f80350ee96a7b5479dde5a4960f741dda60ec9ce56844f2d759540e7",
          "transactionIndex": "0x1",
          "logIndex": "0x11",
          "removed": false
        },
        {
          "address": "0x3FfAf50D4F4E96eB78f2407c090b72e86eCaed24",
          "topics": [
            "0xddf252ad1be2c89b69c2b068fc378daa952ba7f163c4a11628f55a4df523b3ef",
            "0x0000000000000000000000000000000000000000000000000000000000000000",
            "0x000000000000000000000000c5e0b6e472dde70eceffa4c568bd52f2a7a1632a"
          ],
          "data": "0x00000000000000000000000000000000000000000000000176cfdc7f77cb943b",
          "blockHash": "0x06460aebf10f7406e6a9c0a2837dcc7040a8b77de62322c951c7b157c3a9c222",
          "blockNumber": "0x46046d",
          "transactionHash": "0x072aa807f80350ee96a7b5479dde5a4960f741dda60ec9ce56844f2d759540e7",
          "transactionIndex": "0x1",
          "logIndex": "0x12",
          "removed": false
        },
        {
          "address": "0x3FfAf50D4F4E96eB78f2407c090b72e86eCaed24",
          "topics": [
            "0x458f5fa412d0f69b08dd84872b0215675cc67bc1d5b6fd93300a1c3878b86196",
            "0x0000000000000000000000005d6085935ad04fbacc9d025ba989beae91f94090",
            "0x000000000000000000000000c5e0b6e472dde70eceffa4c568bd52f2a7a1632a"
          ],
          "data": "0x00000000000000000000000000000000000000000000000176cfdc7f77cb943b00000000000000000000000000000000000000000000000176cfdc7f77cb943b0000000000000000000000000000000000000000037873d2881df653f705f1be",
          "blockHash": "0x06460aebf10f7406e6a9c0a2837dcc7040a8b77de62322c951c7b157c3a9c222",
          "blockNumber": "0x46046d",
          "transactionHash": "0x072aa807f80350ee96a7b5479dde5a4960f741dda60ec9ce56844f2d759540e7",
          "transactionIndex": "0x1",
          "logIndex": "0x13",
          "removed": false
        },
        {
          "address": "0x3FfAf50D4F4E96eB78f2407c090b72e86eCaed24",
          "topics": [
            "0xddf252ad1be2c89b69c2b068fc378daa952ba7f163c4a11628f55a4df523b3ef",
            "0x000000000000000000000000c5e0b6e472dde70eceffa4c568bd52f2a7a1632a",
            "0x0000000000000000000000003e122a3db43d225dd5bffd929ad4176ce69117e0"
          ],
          "data": "0x000000000000000000000000000000000000000000000037b0c916a8c4e0ad51",
          "blockHash": "0x06460aebf10f7406e6a9c0a2837dcc7040a8b77de62322c951c7b157c3a9c222",
          "blockNumber": "0x46046d",
          "transactionHash": "0x072aa807f80350ee96a7b5479dde5a4960f741dda60ec9ce56844f2d759540e7",
          "transactionIndex": "0x1",
          "logIndex": "0x14",
          "removed": false
        },
        {
          "address": "0x6Ae43d3271ff6888e7Fc43Fd7321a503ff738951",
          "topics": [
            "0x00058a56ea94653cdf4f152d227ace22d4c00ad99e2a43f58cb7d9e3feb295f2",
            "0x000000000000000000000000f8fb3713d459d7c1018bd0a49d19b4c44290ebe5",
            "0x0000000000000000000000003e122a3db43d225dd5bffd929ad4176ce69117e0"
          ],
          "data": "0x",
          "blockHash": "0x06460aebf10f7406e6a9c0a2837dcc7040a8b77de62322c951c7b157c3a9c222",
          "blockNumber": "0x46046d",
          "transactionHash": "0x072aa807f80350ee96a7b5479dde5a4960f741dda60ec9ce56844f2d759540e7",
          "transactionIndex": "0x1",
          "logIndex": "0x15",
          "removed": false
        },
        {
          "address": "0x3FfAf50D4F4E96eB78f2407c090b72e86eCaed24",
          "topics": [
            "0x4beccb90f994c31aced7a23b5611020728a23d8ec5cddd1a3e9d97b96fda8666",
            "0x000000000000000000000000c5e0b6e472dde70eceffa4c568bd52f2a7a1632a",
            "0x0000000000000000000000003e122a3db43d225dd5bffd929ad4176ce69117e0"
          ],
          "data": "0x000000000000000000000000000000000000000000000033d992374b9174e6470000000000000000000000000000000000000000037873d2881df653f705f1be",
          "blockHash": "0x06460aebf10f7406e6a9c0a2837dcc7040a8b77de62322c951c7b157c3a9c222",
          "blockNumber": "0x46046d",
          "transactionHash": "0x072aa807f80350ee96a7b5479dde5a4960f741dda60ec9ce56844f2d759540e7",
          "transactionIndex": "0x1",
          "logIndex": "0x16",
          "removed": false
        },
        {
          "address": "0x16dA4541aD1807f4443d92D26044C1147406EB80",
          "topics": [
            "0x8c5be1e5ebec7d5bd14f71427d1e84f3dd0314c0f7b2291e5b200ac8c7c3b925",
            "0x000000000000000000000000c5e0b6e472dde70eceffa4c568bd52f2a7a1632a",
            "0x0000000000000000000000005d6085935ad04fbacc9d025ba989beae91f94090"
          ],
          "data": "0x0000000000000000000000000000000000000000000000000000000000000000",
          "blockHash": "0x06460aebf10f7406e6a9c0a2837dcc7040a8b77de62322c951c7b157c3a9c222",
          "blockNumber": "0x46046d",
          "transactionHash": "0x072aa807f80350ee96a7b5479dde5a4960f741dda60ec9ce56844f2d759540e7",
          "transactionIndex": "0x1",
          "logIndex": "0x17",
          "removed": false
        },
        {
          "address": "0x16dA4541aD1807f4443d92D26044C1147406EB80",
          "topics": [
            "0xddf252ad1be2c89b69c2b068fc378daa952ba7f163c4a11628f55a4df523b3ef",
            "0x0000000000000000000000000000000000000000000000000000000000000000",
            "0x000000000000000000000000c5e0b6e472dde70eceffa4c568bd52f2a7a1632a"
          ],
          "data": "0x0000000000000000000000000000000000000000000000000000000000019648",
          "blockHash": "0x06460aebf10f7406e6a9c0a2837dcc7040a8b77de62322c951c7b157c3a9c222",
          "blockNumber": "0x46046d",
          "transactionHash": "0x072aa807f80350ee96a7b5479dde5a4960f741dda60ec9ce56844f2d759540e7",
          "transactionIndex": "0x1",
          "logIndex": "0x18",
          "removed": false
        },
        {
          "address": "0x16dA4541aD1807f4443d92D26044C1147406EB80",
          "topics": [
            "0x458f5fa412d0f69b08dd84872b0215675cc67bc1d5b6fd93300a1c3878b86196",
            "0x0000000000000000000000005d6085935ad04fbacc9d025ba989beae91f94090",
            "0x000000000000000000000000c5e0b6e472dde70eceffa4c568bd52f2a7a1632a"
          ],
          "data": "0x00000000000000000000000000000000000000000000000000000000000196480000000000000000000000000000000000000000000000000000000000019648000000000000000000000000000000000000000003495fd3a506cc97d1ee3b10",
          "blockHash": "0x06460aebf10f7406e6a9c0a2837dcc7040a8b77de62322c951c7b157c3a9c222",
          "blockNumber": "0x46046d",
          "transactionHash": "0x072aa807f80350ee96a7b5479dde5a4960f741dda60ec9ce56844f2d759540e7",
          "transactionIndex": "0x1",
          "logIndex": "0x19",
          "removed": false
        },
        {
          "address": "0x16dA4541aD1807f4443d92D26044C1147406EB80",
          "topics": [
            "0xddf252ad1be2c89b69c2b068fc378daa952ba7f163c4a11628f55a4df523b3ef",
            "0x000000000000000000000000c5e0b6e472dde70eceffa4c568bd52f2a7a1632a",
            "0x0000000000000000000000003e122a3db43d225dd5bffd929ad4176ce69117e0"
          ],
          "data": "0x000000000000000000000000000000000000000000000000000000003ca3123d",
          "blockHash": "0x06460aebf10f7406e6a9c0a2837dcc7040a8b77de62322c951c7b157c3a9c222",
          "blockNumber": "0x46046d",
          "transactionHash": "0x072aa807f80350ee96a7b5479dde5a4960f741dda60ec9ce56844f2d759540e7",
          "transactionIndex": "0x1",
          "logIndex": "0x1a",
          "removed": false
        },
        {
          "address": "0x6Ae43d3271ff6888e7Fc43Fd7321a503ff738951",
          "topics": [
            "0x00058a56ea94653cdf4f152d227ace22d4c00ad99e2a43f58cb7d9e3feb295f2",
            "0x00000000000000000000000094a9d9ac8a22534e3faca9f4e7f2e2cf85d5e4c8",
            "0x0000000000000000000000003e122a3db43d225dd5bffd929ad4176ce69117e0"
          ],
          "data": "0x",
          "blockHash": "0x06460aebf10f7406e6a9c0a2837dcc7040a8b77de62322c951c7b157c3a9c222",
          "blockNumber": "0x46046d",
          "transactionHash": "0x072aa807f80350ee96a7b5479dde5a4960f741dda60ec9ce56844f2d759540e7",
          "transactionIndex": "0x1",
          "logIndex": "0x1b",
          "removed": false
        },
        {
          "address": "0x16dA4541aD1807f4443d92D26044C1147406EB80",
          "topics": [
            "0x4beccb90f994c31aced7a23b5611020728a23d8ec5cddd1a3e9d97b96fda8666",
            "0x000000000000000000000000c5e0b6e472dde70eceffa4c568bd52f2a7a1632a",
            "0x0000000000000000000000003e122a3db43d225dd5bffd929ad4176ce69117e0"
          ],
          "data": "0x000000000000000000000000000000000000000000000000000000003b9d33bc000000000000000000000000000000000000000003495fd3a506cc97d1ee3b10",
          "blockHash": "0x06460aebf10f7406e6a9c0a2837dcc7040a8b77de62322c951c7b157c3a9c222",
          "blockNumber": "0x46046d",
          "transactionHash": "0x072aa807f80350ee96a7b5479dde5a4960f741dda60ec9ce56844f2d759540e7",
          "transactionIndex": "0x1",
          "logIndex": "0x1c",
          "removed": false
        },
        {
          "address": "0x1804Bf30507dc2EB3bDEbbbdd859991EAeF6EefF",
          "topics": [
            "0x8c5be1e5ebec7d5bd14f71427d1e84f3dd0314c0f7b2291e5b200ac8c7c3b925",
            "0x000000000000000000000000c5e0b6e472dde70eceffa4c568bd52f2a7a1632a",
            "0x0000000000000000000000005d6085935ad04fbacc9d025ba989beae91f94090"
          ],
          "data": "0x0000000000000000000000000000000000000000000000000000000000000000",
          "blockHash": "0x06460aebf10f7406e6a9c0a2837dcc7040a8b77de62322c951c7b157c3a9c222",
          "blockNumber": "0x46046d",
          "transactionHash": "0x072aa807f80350ee96a7b5479dde5a4960f741dda60ec9ce56844f2d759540e7",
          "transactionIndex": "0x1",
          "logIndex": "0x1d",
          "removed": false
        },
        {
          "address": "0x1804Bf30507dc2EB3bDEbbbdd859991EAeF6EefF",
          "topics": [
            "0xddf252ad1be2c89b69c2b068fc378daa952ba7f163c4a11628f55a4df523b3ef",
            "0x000000000000000000000000c5e0b6e472dde70eceffa4c568bd52f2a7a1632a",
            "0x0000000000000000000000003e122a3db43d225dd5bffd929ad4176ce69117e0"
          ],
          "data": "0x0000000000000000000000000000000000000000000000000000000005f5e101",
          "blockHash": "0x06460aebf10f7406e6a9c0a2837dcc7040a8b77de62322c951c7b157c3a9c222",
          "blockNumber": "0x46046d",
          "transactionHash": "0x072aa807f80350ee96a7b5479dde5a4960f741dda60ec9ce56844f2d759540e7",
          "transactionIndex": "0x1",
          "logIndex": "0x1e",
          "removed": false
        },
        {
          "address": "0x6Ae43d3271ff6888e7Fc43Fd7321a503ff738951",
          "topics": [
            "0x44c58d81365b66dd4b1a7f36c25aa97b8c71c361ee4937adc1a00000227db5dd",
            "0x00000000000000000000000029f2d40b0605204364af54ec677bd022da425d03",
            "0x000000000000000000000000c5e0b6e472dde70eceffa4c568bd52f2a7a1632a"
          ],
          "data": "0x",
          "blockHash": "0x06460aebf10f7406e6a9c0a2837dcc7040a8b77de62322c951c7b157c3a9c222",
          "blockNumber": "0x46046d",
          "transactionHash": "0x072aa807f80350ee96a7b5479dde5a4960f741dda60ec9ce56844f2d759540e7",
          "transactionIndex": "0x1",
          "logIndex": "0x1f",
          "removed": false
        },
        {
          "address": "0x6Ae43d3271ff6888e7Fc43Fd7321a503ff738951",
          "topics": [
            "0x00058a56ea94653cdf4f152d227ace22d4c00ad99e2a43f58cb7d9e3feb295f2",
            "0x00000000000000000000000029f2d40b0605204364af54ec677bd022da425d03",
            "0x0000000000000000000000003e122a3db43d225dd5bffd929ad4176ce69117e0"
          ],
          "data": "0x",
          "blockHash": "0x06460aebf10f7406e6a9c0a2837dcc7040a8b77de62322c951c7b157c3a9c222",
          "blockNumber": "0x46046d",
          "transactionHash": "0x072aa807f80350ee96a7b5479dde5a4960f741dda60ec9ce56844f2d759540e7",
          "transactionIndex": "0x1",
          "logIndex": "0x20",
          "removed": false
        },
        {
          "address": "0x1804Bf30507dc2EB3bDEbbbdd859991EAeF6EefF",
          "topics": [
            "0x4beccb90f994c31aced7a23b5611020728a23d8ec5cddd1a3e9d97b96fda8666",
            "0x000000000000000000000000c5e0b6e472dde70eceffa4c568bd52f2a7a1632a",
            "0x0000000000000000000000003e122a3db43d225dd5bffd929ad4176ce69117e0"
          ],
          "data": "0x0000000000000000000000000000000000000000000000000000000005f5a3fb0000000000000000000000000000000000000000033b4f526b402594ffb152ed",
          "blockHash": "0x06460aebf10f7406e6a9c0a2837dcc7040a8b77de62322c951c7b157c3a9c222",
          "blockNumber": "0x46046d",
          "transactionHash": "0x072aa807f80350ee96a7b5479dde5a4960f741dda60ec9ce56844f2d759540e7",
          "transactionIndex": "0x1",
          "logIndex": "0x21",
          "removed": false
        },
        {
          "address": "0xAF0F6e8b0Dc5c913bbF4d14c22B4E78Dd14310B6",
          "topics": [
            "0x8c5be1e5ebec7d5bd14f71427d1e84f3dd0314c0f7b2291e5b200ac8c7c3b925",
            "0x000000000000000000000000c5e0b6e472dde70eceffa4c568bd52f2a7a1632a",
            "0x0000000000000000000000005d6085935ad04fbacc9d025ba989beae91f94090"
          ],
          "data": "0x0000000000000000000000000000000000000000000000000000000000000000",
          "blockHash": "0x06460aebf10f7406e6a9c0a2837dcc7040a8b77de62322c951c7b157c3a9c222",
          "blockNumber": "0x46046d",
          "transactionHash": "0x072aa807f80350ee96a7b5479dde5a4960f741dda60ec9ce56844f2d759540e7",
          "transactionIndex": "0x1",
          "logIndex": "0x22",
          "removed": false
        },
        {
          "address": "0xAF0F6e8b0Dc5c913bbF4d14c22B4E78Dd14310B6",
          "topics": [
            "0xddf252ad1be2c89b69c2b068fc378daa952ba7f163c4a11628f55a4df523b3ef",
            "0x0000000000000000000000000000000000000000000000000000000000000000",
            "0x000000000000000000000000c5e0b6e472dde70eceffa4c568bd52f2a7a1632a"
          ],
          "data": "0x0000000000000000000000000000000000000000000000000000000000000002",
          "blockHash": "0x06460aebf10f7406e6a9c0a2837dcc7040a8b77de62322c951c7b157c3a9c222",
          "blockNumber": "0x46046d",
          "transactionHash": "0x072aa807f80350ee96a7b5479dde5a4960f741dda60ec9ce56844f2d759540e7",
          "transactionIndex": "0x1",
          "logIndex": "0x23",
          "removed": false
        },
        {
          "address": "0xAF0F6e8b0Dc5c913bbF4d14c22B4E78Dd14310B6",
          "topics": [
            "0x458f5fa412d0f69b08dd84872b0215675cc67bc1d5b6fd93300a1c3878b86196",
            "0x0000000000000000000000005d6085935ad04fbacc9d025ba989beae91f94090",
            "0x000000000000000000000000c5e0b6e472dde70eceffa4c568bd52f2a7a1632a"
          ],
          "data": "0x0000000000000000000000000000000000000000000000000000000000000002000000000000000000000000000000000000000000000000000000000000000200000000000000000000000000000000000000000342a909649bae8ea710e4cb",
          "blockHash": "0x06460aebf10f7406e6a9c0a2837dcc7040a8b77de62322c951c7b157c3a9c222",
          "blockNumber": "0x46046d",
          "transactionHash": "0x072aa807f80350ee96a7b5479dde5a4960f741dda60ec9ce56844f2d759540e7",
          "transactionIndex": "0x1",
          "logIndex": "0x24",
          "removed": false
        },
        {
          "address": "0xAF0F6e8b0Dc5c913bbF4d14c22B4E78Dd14310B6",
          "topics": [
            "0xddf252ad1be2c89b69c2b068fc378daa952ba7f163c4a11628f55a4df523b3ef",
            "0x000000000000000000000000c5e0b6e472dde70eceffa4c568bd52f2a7a1632a",
            "0x0000000000000000000000003e122a3db43d225dd5bffd929ad4176ce69117e0"
          ],
          "data": "0x00000000000000000000000000000000000000000000000000000000001ec28b",
          "blockHash": "0x06460aebf10f7406e6a9c0a2837dcc7040a8b77de62322c951c7b157c3a9c222",
          "blockNumber": "0x46046d",
          "transactionHash": "0x072aa807f80350ee96a7b5479dde5a4960f741dda60ec9ce56844f2d759540e7",
          "transactionIndex": "0x1",
          "logIndex": "0x25",
          "removed": false
        },
        {
          "address": "0xAF0F6e8b0Dc5c913bbF4d14c22B4E78Dd14310B6",
          "topics": [
            "0x4beccb90f994c31aced7a23b5611020728a23d8ec5cddd1a3e9d97b96fda8666",
            "0x000000000000000000000000c5e0b6e472dde70eceffa4c568bd52f2a7a1632a",
            "0x0000000000000000000000003e122a3db43d225dd5bffd929ad4176ce69117e0"
          ],
          "data": "0x00000000000000000000000000000000000000000000000000000000001e7bfa00000000000000000000000000000000000000000342a909649bae8ea710e4cb",
          "blockHash": "0x06460aebf10f7406e6a9c0a2837dcc7040a8b77de62322c951c7b157c3a9c222",
          "blockNumber": "0x46046d",
          "transactionHash": "0x072aa807f80350ee96a7b5479dde5a4960f741dda60ec9ce56844f2d759540e7",
          "transactionIndex": "0x1",
          "logIndex": "0x26",
          "removed": false
        },
        {
          "address": "0x6b8558764d3b7572136F17174Cb9aB1DDc7E1259",
          "topics": [
            "0x8c5be1e5ebec7d5bd14f71427d1e84f3dd0314c0f7b2291e5b200ac8c7c3b925",
            "0x000000000000000000000000c5e0b6e472dde70eceffa4c568bd52f2a7a1632a",
            "0x0000000000000000000000005d6085935ad04fbacc9d025ba989beae91f94090"
          ],
          "data": "0x0000000000000000000000000000000000000000000000000000000000000000",
          "blockHash": "0x06460aebf10f7406e6a9c0a2837dcc7040a8b77de62322c951c7b157c3a9c222",
          "blockNumber": "0x46046d",
          "transactionHash": "0x072aa807f80350ee96a7b5479dde5a4960f741dda60ec9ce56844f2d759540e7",
          "transactionIndex": "0x1",
          "logIndex": "0x27",
          "removed": false
        },
        {
          "address": "0x6b8558764d3b7572136F17174Cb9aB1DDc7E1259",
          "topics": [
            "0xddf252ad1be2c89b69c2b068fc378daa952ba7f163c4a11628f55a4df523b3ef",
            "0x000000000000000000000000c5e0b6e472dde70eceffa4c568bd52f2a7a1632a",
            "0x0000000000000000000000003e122a3db43d225dd5bffd929ad4176ce69117e0"
          ],
          "data": "0x0000000000000000000000000000000000000000000000056bc75e2d63100000",
          "blockHash": "0x06460aebf10f7406e6a9c0a2837dcc7040a8b77de62322c951c7b157c3a9c222",
          "blockNumber": "0x46046d",
          "transactionHash": "0x072aa807f80350ee96a7b5479dde5a4960f741dda60ec9ce56844f2d759540e7",
          "transactionIndex": "0x1",
          "logIndex": "0x28",
          "removed": false
        },
        {
          "address": "0x6Ae43d3271ff6888e7Fc43Fd7321a503ff738951",
          "topics": [
            "0x44c58d81365b66dd4b1a7f36c25aa97b8c71c361ee4937adc1a00000227db5dd",
            "0x00000000000000000000000088541670e55cc00beefd87eb59edd1b7c511ac9a",
            "0x000000000000000000000000c5e0b6e472dde70eceffa4c568bd52f2a7a1632a"
          ],
          "data": "0x",
          "blockHash": "0x06460aebf10f7406e6a9c0a2837dcc7040a8b77de62322c951c7b157c3a9c222",
          "blockNumber": "0x46046d",
          "transactionHash": "0x072aa807f80350ee96a7b5479dde5a4960f741dda60ec9ce56844f2d759540e7",
          "transactionIndex": "0x1",
          "logIndex": "0x29",
          "removed": false
        },
        {
          "address": "0x6Ae43d3271ff6888e7Fc43Fd7321a503ff738951",
          "topics": [
            "0x00058a56ea94653cdf4f152d227ace22d4c00ad99e2a43f58cb7d9e3feb295f2",
            "0x00000000000000000000000088541670e55cc00beefd87eb59edd1b7c511ac9a",
            "0x0000000000000000000000003e122a3db43d225dd5bffd929ad4176ce69117e0"
          ],
          "data": "0x",
          "blockHash": "0x06460aebf10f7406e6a9c0a2837dcc7040a8b77de62322c951c7b157c3a9c222",
          "blockNumber": "0x46046d",
          "transactionHash": "0x072aa807f80350ee96a7b5479dde5a4960f741dda60ec9ce56844f2d759540e7",
          "transactionIndex": "0x1",
          "logIndex": "0x2a",
          "removed": false
        },
        {
          "address": "0x6b8558764d3b7572136F17174Cb9aB1DDc7E1259",
          "topics": [
            "0x4beccb90f994c31aced7a23b5611020728a23d8ec5cddd1a3e9d97b96fda8666",
            "0x000000000000000000000000c5e0b6e472dde70eceffa4c568bd52f2a7a1632a",
            "0x0000000000000000000000003e122a3db43d225dd5bffd929ad4176ce69117e0"
          ],
          "data": "0x0000000000000000000000000000000000000000000000056bc74c139cd4f48f0000000000000000000000000000000000000000033b2e4769c27e5b821decfc",
          "blockHash": "0x06460aebf10f7406e6a9c0a2837dcc7040a8b77de62322c951c7b157c3a9c222",
          "blockNumber": "0x46046d",
          "transactionHash": "0x072aa807f80350ee96a7b5479dde5a4960f741dda60ec9ce56844f2d759540e7",
          "transactionIndex": "0x1",
          "logIndex": "0x2b",
          "removed": false
        },
        {
          "address": "0x34a4d932E722b9dFb492B9D8131127690CE2430B",
          "topics": [
            "0xda919360433220e13b51e8c211e490d148e61a3bd53de8c097194e458b97f3e1",
            "0x0000000000000000000000003e122a3db43d225dd5bffd929ad4176ce69117e0",
            "0x0000000000000000000000005d6085935ad04fbacc9d025ba989beae91f94090",
            "0x000000000000000000000000f8fb3713d459d7c1018bd0a49d19b4c44290ebe5"
          ],
          "data": "0x000000000000000000000000000000000000000000000000000001372c9844fc",
          "blockHash": "0x06460aebf10f7406e6a9c0a2837dcc7040a8b77de62322c951c7b157c3a9c222",
          "blockNumber": "0x46046d",
          "transactionHash": "0x072aa807f80350ee96a7b5479dde5a4960f741dda60ec9ce56844f2d759540e7",
          "transactionIndex": "0x1",
          "logIndex": "0x2c",
          "removed": false
        },
        {
          "address": "0x34a4d932E722b9dFb492B9D8131127690CE2430B",
          "topics": [
            "0xddf252ad1be2c89b69c2b068fc378daa952ba7f163c4a11628f55a4df523b3ef",
            "0x0000000000000000000000000000000000000000000000000000000000000000",
            "0x0000000000000000000000003e122a3db43d225dd5bffd929ad4176ce69117e0"
          ],
          "data": "0x00000000000000000000000000000000000000000000000000003e5da14984de",
          "blockHash": "0x06460aebf10f7406e6a9c0a2837dcc7040a8b77de62322c951c7b157c3a9c222",
          "blockNumber": "0x46046d",
          "transactionHash": "0x072aa807f80350ee96a7b5479dde5a4960f741dda60ec9ce56844f2d759540e7",
          "transactionIndex": "0x1",
          "logIndex": "0x2d",
          "removed": false
        },
        {
          "address": "0x34a4d932E722b9dFb492B9D8131127690CE2430B",
          "topics": [
            "0x458f5fa412d0f69b08dd84872b0215675cc67bc1d5b6fd93300a1c3878b86196",
            "0x0000000000000000000000005d6085935ad04fbacc9d025ba989beae91f94090",
            "0x0000000000000000000000003e122a3db43d225dd5bffd929ad4176ce69117e0"
          ],
          "data": "0x00000000000000000000000000000000000000000000000000003e5da14984de00000000000000000000000000000000000000000000000000000000000000000000000000000000000000000000000000000000038c339d7458d475e2d7d8e9",
          "blockHash": "0x06460aebf10f7406e6a9c0a2837dcc7040a8b77de62322c951c7b157c3a9c222",
          "blockNumber": "0x46046d",
          "transactionHash": "0x072aa807f80350ee96a7b5479dde5a4960f741dda60ec9ce56844f2d759540e7",
          "transactionIndex": "0x1",
          "logIndex": "0x2e",
          "removed": false
        },
        {
          "address": "0x6Ae43d3271ff6888e7Fc43Fd7321a503ff738951",
          "topics": [
            "0x804c9b842b2748a22bb64b345453a3de7ca54a6ca45ce00d415894979e22897a",
            "0x000000000000000000000000f8fb3713d459d7c1018bd0a49d19b4c44290ebe5"
          ],
          "data": "0x00000000000000000000000000000000000000000760244b980a557bd7d25aba000000000000000000000000000000000000000009c14140bbce405d5f3f5f3d00000000000000000000000000000000000000000976cf02f51a34d2c53f5f3d0000000000000000000000000000000000000000037873d2881df653f705f1be0000000000000000000000000000000000000000038c339d7458d475e2d7d8e9",
          "blockHash": "0x06460aebf10f7406e6a9c0a2837dcc7040a8b77de62322c951c7b157c3a9c222",
          "blockNumber": "0x46046d",
          "transactionHash": "0x072aa807f80350ee96a7b5479dde5a4960f741dda60ec9ce56844f2d759540e7",
          "transactionIndex": "0x1",
          "logIndex": "0x2f",
          "removed": false
        },
        {
          "address": "0xf8Fb3713D459D7C1018BD0A49D19b4C44290EBE5",
          "topics": [
            "0xddf252ad1be2c89b69c2b068fc378daa952ba7f163c4a11628f55a4df523b3ef",
            "0x0000000000000000000000003ffaf50d4f4e96eb78f2407c090b72e86ecaed24",
            "0x0000000000000000000000005d6085935ad04fbacc9d025ba989beae91f94090"
          ],
          "data": "0x00000000000000000000000000000000000000000000000000003e5da14984de",
          "blockHash": "0x06460aebf10f7406e6a9c0a2837dcc7040a8b77de62322c951c7b157c3a9c222",
          "blockNumber": "0x46046d",
          "transactionHash": "0x072aa807f80350ee96a7b5479dde5a4960f741dda60ec9ce56844f2d759540e7",
          "transactionIndex": "0x1",
          "logIndex": "0x30",
          "removed": false
        },
        {
          "address": "0x6Ae43d3271ff6888e7Fc43Fd7321a503ff738951",
          "topics": [
            "0xb3d084820fb1a9decffb176436bd02558d15fac9b0ddfed8c465bc7359d7dce0",
            "0x000000000000000000000000f8fb3713d459d7c1018bd0a49d19b4c44290ebe5",
            "0x0000000000000000000000003e122a3db43d225dd5bffd929ad4176ce69117e0",
            "0x0000000000000000000000000000000000000000000000000000000000000000"
          ],
          "data": "0x0000000000000000000000005d6085935ad04fbacc9d025ba989beae91f9409000000000000000000000000000000000000000000000000000003e5da14984de000000000000000000000000000000000000000000000000000000000000000200000000000000000000000000000000000000000976cf02f51a34d2c53f5f3d",
          "blockHash": "0x06460aebf10f7406e6a9c0a2837dcc7040a8b77de62322c951c7b157c3a9c222",
          "blockNumber": "0x46046d",
          "transactionHash": "0x072aa807f80350ee96a7b5479dde5a4960f741dda60ec9ce56844f2d759540e7",
          "transactionIndex": "0x1",
          "logIndex": "0x31",
          "removed": false
        },
        {
          "address": "0xf8Fb3713D459D7C1018BD0A49D19b4C44290EBE5",
          "topics": [
            "0x8c5be1e5ebec7d5bd14f71427d1e84f3dd0314c0f7b2291e5b200ac8c7c3b925",
            "0x0000000000000000000000005d6085935ad04fbacc9d025ba989beae91f94090",
            "0x0000000000000000000000006ae43d3271ff6888e7fc43fd7321a503ff738951"
          ],
          "data": "0x00000000000000000000000000000000000000000000000000003e5da14984de",
          "blockHash": "0x06460aebf10f7406e6a9c0a2837dcc7040a8b77de62322c951c7b157c3a9c222",
          "blockNumber": "0x46046d",
          "transactionHash": "0x072aa807f80350ee96a7b5479dde5a4960f741dda60ec9ce56844f2d759540e7",
          "transactionIndex": "0x1",
          "logIndex": "0x32",
          "removed": false
        },
        {
          "address": "0x9844386d29EEd970B9F6a2B9a676083b0478210e",
          "topics": [
            "0xda919360433220e13b51e8c211e490d148e61a3bd53de8c097194e458b97f3e1",
            "0x0000000000000000000000003e122a3db43d225dd5bffd929ad4176ce69117e0",
            "0x0000000000000000000000005d6085935ad04fbacc9d025ba989beae91f94090",
            "0x000000000000000000000000aa8e23fb1079ea71e0a56f48a2aa51851d8433d0"
          ],
          "data": "0x00000000000000000000000000000000000000000000000000000000001fd610",
          "blockHash": "0x06460aebf10f7406e6a9c0a2837dcc7040a8b77de62322c951c7b157c3a9c222",
          "blockNumber": "0x46046d",
          "transactionHash": "0x072aa807f80350ee96a7b5479dde5a4960f741dda60ec9ce56844f2d759540e7",
          "transactionIndex": "0x1",
          "logIndex": "0x33",
          "removed": false
        },
        {
          "address": "0x9844386d29EEd970B9F6a2B9a676083b0478210e",
          "topics": [
            "0xddf252ad1be2c89b69c2b068fc378daa952ba7f163c4a11628f55a4df523b3ef",
            "0x0000000000000000000000000000000000000000000000000000000000000000",
            "0x0000000000000000000000003e122a3db43d225dd5bffd929ad4176ce69117e0"
          ],
          "data": "0x00000000000000000000000000000000000000000000000000000000066170f7",
          "blockHash": "0x06460aebf10f7406e6a9c0a2837dcc7040a8b77de62322c951c7b157c3a9c222",
          "blockNumber": "0x46046d",
          "transactionHash": "0x072aa807f80350ee96a7b5479dde5a4960f741dda60ec9ce56844f2d759540e7",
          "transactionIndex": "0x1",
          "logIndex": "0x34",
          "removed": false
        },
        {
          "address": "0x9844386d29EEd970B9F6a2B9a676083b0478210e",
          "topics": [
            "0x458f5fa412d0f69b08dd84872b0215675cc67bc1d5b6fd93300a1c3878b86196",
            "0x0000000000000000000000005d6085935ad04fbacc9d025ba989beae91f94090",
            "0x0000000000000000000000003e122a3db43d225dd5bffd929ad4176ce69117e0"
          ],
          "data": "0x00000000000000000000000000000000000000000000000000000000066170f7000000000000000000000000000000000000000000000000000000000000000000000000000000000000000000000000000000000344fbb0de114b4b01d61398",
          "blockHash": "0x06460aebf10f7406e6a9c0a2837dcc7040a8b77de62322c951c7b157c3a9c222",
          "blockNumber": "0x46046d",
          "transactionHash": "0x072aa807f80350ee96a7b5479dde5a4960f741dda60ec9ce56844f2d759540e7",
          "transactionIndex": "0x1",
          "logIndex": "0x35",
          "removed": false
        },
        {
          "address": "0x6Ae43d3271ff6888e7Fc43Fd7321a503ff738951",
          "topics": [
            "0x804c9b842b2748a22bb64b345453a3de7ca54a6ca45ce00d415894979e22897a",
            "0x000000000000000000000000aa8e23fb1079ea71e0a56f48a2aa51851d8433d0"
          ],
          "data": "0x000000000000000000000000000000000000000000000c9b9a766c1f1503890a000000000000000000000000000000000000000000296a60ea002b51716a3a7b0000000000000000000000000000000000000000000073bbdce1273ffb51d3da00000000000000000000000000000000000000000342a909649bae8ea710e4cb00000000000000000000000000000000000000000344fbb0de114b4b01d61398",
          "blockHash": "0x06460aebf10f7406e6a9c0a2837dcc7040a8b77de62322c951c7b157c3a9c222",
          "blockNumber": "0x46046d",
          "transactionHash": "0x072aa807f80350ee96a7b5479dde5a4960f741dda60ec9ce56844f2d759540e7",
          "transactionIndex": "0x1",
          "logIndex": "0x36",
          "removed": false
        },
        {
          "address": "0xaA8E23Fb1079EA71e0a56F48a2aA51851D8433D0",
          "topics": [
            "0xddf252ad1be2c89b69c2b068fc378daa952ba7f163c4a11628f55a4df523b3ef",
            "0x000000000000000000000000af0f6e8b0dc5c913bbf4d14c22b4e78dd14310b6",
            "0x0000000000000000000000005d6085935ad04fbacc9d025ba989beae91f94090"
          ],
          "data": "0x00000000000000000000000000000000000000000000000000000000066170f7",
          "blockHash": "0x06460aebf10f7406e6a9c0a2837dcc7040a8b77de62322c951c7b157c3a9c222",
          "blockNumber": "0x46046d",
          "transactionHash": "0x072aa807f80350ee96a7b5479dde5a4960f741dda60ec9ce56844f2d759540e7",
          "transactionIndex": "0x1",
          "logIndex": "0x37",
          "removed": false
        },
        {
          "address": "0x6Ae43d3271ff6888e7Fc43Fd7321a503ff738951",
          "topics": [
            "0xb3d084820fb1a9decffb176436bd02558d15fac9b0ddfed8c465bc7359d7dce0",
            "0x000000000000000000000000aa8e23fb1079ea71e0a56f48a2aa51851d8433d0",
            "0x0000000000000000000000003e122a3db43d225dd5bffd929ad4176ce69117e0",
            "0x0000000000000000000000000000000000000000000000000000000000000000"
          ],
          "data": "0x0000000000000000000000005d6085935ad04fbacc9d025ba989beae91f9409000000000000000000000000000000000000000000000000000000000066170f700000000000000000000000000000000000000000000000000000000000000020000000000000000000000000000000000000000000073bbdce1273ffb51d3da",
          "blockHash": "0x06460aebf10f7406e6a9c0a2837dcc7040a8b77de62322c951c7b157c3a9c222",
          "blockNumber": "0x46046d",
          "transactionHash": "0x072aa807f80350ee96a7b5479dde5a4960f741dda60ec9ce56844f2d759540e7",
          "transactionIndex": "0x1",
          "logIndex": "0x38",
          "removed": false
        },
        {
          "address": "0xaA8E23Fb1079EA71e0a56F48a2aA51851D8433D0",
          "topics": [
            "0x8c5be1e5ebec7d5bd14f71427d1e84f3dd0314c0f7b2291e5b200ac8c7c3b925",
            "0x0000000000000000000000005d6085935ad04fbacc9d025ba989beae91f94090",
            "0x0000000000000000000000006ae43d3271ff6888e7fc43fd7321a503ff738951"
          ],
          "data": "0x00000000000000000000000000000000000000000000000000000000066170f7",
          "blockHash": "0x06460aebf10f7406e6a9c0a2837dcc7040a8b77de62322c951c7b157c3a9c222",
          "blockNumber": "0x46046d",
          "transactionHash": "0x072aa807f80350ee96a7b5479dde5a4960f741dda60ec9ce56844f2d759540e7",
          "transactionIndex": "0x1",
          "logIndex": "0x39",
          "removed": false
        },
        {
          "address": "0x6Ae43d3271ff6888e7Fc43Fd7321a503ff738951",
          "topics": [
            "0x804c9b842b2748a22bb64b345453a3de7ca54a6ca45ce00d415894979e22897a",
            "0x000000000000000000000000f8fb3713d459d7c1018bd0a49d19b4c44290ebe5"
          ],
          "data": "0x00000000000000000000000000000000000000000760244b8855201230287ee2000000000000000000000000000000000000000009c14140aecfedfa7d5875ec00000000000000000000000000000000000000000976cf02e81be26fe35875ec0000000000000000000000000000000000000000037873d2881e4c5336e1d3380000000000000000000000000000000000000000038c339d7458d475e2d7d8e9",
          "blockHash": "0x06460aebf10f7406e6a9c0a2837dcc7040a8b77de62322c951c7b157c3a9c222",
          "blockNumber": "0x46046d",
          "transactionHash": "0x072aa807f80350ee96a7b5479dde5a4960f741dda60ec9ce56844f2d759540e7",
          "transactionIndex": "0x1",
          "logIndex": "0x3a",
          "removed": false
        },
        {
          "address": "0xf8Fb3713D459D7C1018BD0A49D19b4C44290EBE5",
          "topics": [
            "0xddf252ad1be2c89b69c2b068fc378daa952ba7f163c4a11628f55a4df523b3ef",
            "0x0000000000000000000000005d6085935ad04fbacc9d025ba989beae91f94090",
            "0x0000000000000000000000003ffaf50d4f4e96eb78f2407c090b72e86ecaed24"
          ],
          "data": "0x00000000000000000000000000000000000000000000000000003e5da14984de",
          "blockHash": "0x06460aebf10f7406e6a9c0a2837dcc7040a8b77de62322c951c7b157c3a9c222",
          "blockNumber": "0x46046d",
          "transactionHash": "0x072aa807f80350ee96a7b5479dde5a4960f741dda60ec9ce56844f2d759540e7",
          "transactionIndex": "0x1",
          "logIndex": "0x3b",
          "removed": false
        },
        {
          "address": "0xf8Fb3713D459D7C1018BD0A49D19b4C44290EBE5",
          "topics": [
            "0x8c5be1e5ebec7d5bd14f71427d1e84f3dd0314c0f7b2291e5b200ac8c7c3b925",
            "0x0000000000000000000000005d6085935ad04fbacc9d025ba989beae91f94090",
            "0x0000000000000000000000006ae43d3271ff6888e7fc43fd7321a503ff738951"
          ],
          "data": "0x0000000000000000000000000000000000000000000000000000000000000000",
          "blockHash": "0x06460aebf10f7406e6a9c0a2837dcc7040a8b77de62322c951c7b157c3a9c222",
          "blockNumber": "0x46046d",
          "transactionHash": "0x072aa807f80350ee96a7b5479dde5a4960f741dda60ec9ce56844f2d759540e7",
          "transactionIndex": "0x1",
          "logIndex": "0x3c",
          "removed": false
        },
        {
          "address": "0x6Ae43d3271ff6888e7Fc43Fd7321a503ff738951",
          "topics": [
            "0xefefaba5e921573100900a3ad9cf29f222d995fb3b6045797eaea7521bd8d6f0",
            "0x0000000000000000000000005d6085935ad04fbacc9d025ba989beae91f94090",
            "0x000000000000000000000000f8fb3713d459d7c1018bd0a49d19b4c44290ebe5",
            "0x0000000000000000000000000000000000000000000000000000000000000000"
          ],
          "data": "0x0000000000000000000000005d6085935ad04fbacc9d025ba989beae91f9409000000000000000000000000000000000000000000000000000003e55a6b53454000000000000000000000000000000000000000000000000000000000000000000000000000000000000000000000000000000000000000000000007fa94508a",
          "blockHash": "0x06460aebf10f7406e6a9c0a2837dcc7040a8b77de62322c951c7b157c3a9c222",
          "blockNumber": "0x46046d",
          "transactionHash": "0x072aa807f80350ee96a7b5479dde5a4960f741dda60ec9ce56844f2d759540e7",
          "transactionIndex": "0x1",
          "logIndex": "0x3d",
          "removed": false
        },
        {
          "address": "0x6Ae43d3271ff6888e7Fc43Fd7321a503ff738951",
          "topics": [
            "0x804c9b842b2748a22bb64b345453a3de7ca54a6ca45ce00d415894979e22897a",
            "0x000000000000000000000000aa8e23fb1079ea71e0a56f48a2aa51851d8433d0"
          ],
          "data": "0x000000000000000000000000000000000000000000000c9b99c17cdc2ba515b1000000000000000000000000000000000000000000296a60e9420eb2d00bc8a40000000000000000000000000000000000000000000073bbd6f0424af05e452000000000000000000000000000000000000000000342a9096a1667b9704306b400000000000000000000000000000000000000000344fbb0de114b4b01d61398",
          "blockHash": "0x06460aebf10f7406e6a9c0a2837dcc7040a8b77de62322c951c7b157c3a9c222",
          "blockNumber": "0x46046d",
          "transactionHash": "0x072aa807f80350ee96a7b5479dde5a4960f741dda60ec9ce56844f2d759540e7",
          "transactionIndex": "0x1",
          "logIndex": "0x3e",
          "removed": false
        },
        {
          "address": "0xaA8E23Fb1079EA71e0a56F48a2aA51851D8433D0",
          "topics": [
            "0xddf252ad1be2c89b69c2b068fc378daa952ba7f163c4a11628f55a4df523b3ef",
            "0x0000000000000000000000005d6085935ad04fbacc9d025ba989beae91f94090",
            "0x000000000000000000000000af0f6e8b0dc5c913bbf4d14c22b4e78dd14310b6"
          ],
          "data": "0x00000000000000000000000000000000000000000000000000000000066170f7",
          "blockHash": "0x06460aebf10f7406e6a9c0a2837dcc7040a8b77de62322c951c7b157c3a9c222",
          "blockNumber": "0x46046d",
          "transactionHash": "0x072aa807f80350ee96a7b5479dde5a4960f741dda60ec9ce56844f2d759540e7",
          "transactionIndex": "0x1",
          "logIndex": "0x3f",
          "removed": false
        },
        {
          "address": "0xaA8E23Fb1079EA71e0a56F48a2aA51851D8433D0",
          "topics": [
            "0x8c5be1e5ebec7d5bd14f71427d1e84f3dd0314c0f7b2291e5b200ac8c7c3b925",
            "0x0000000000000000000000005d6085935ad04fbacc9d025ba989beae91f94090",
            "0x0000000000000000000000006ae43d3271ff6888e7fc43fd7321a503ff738951"
          ],
          "data": "0x0000000000000000000000000000000000000000000000000000000000000000",
          "blockHash": "0x06460aebf10f7406e6a9c0a2837dcc7040a8b77de62322c951c7b157c3a9c222",
          "blockNumber": "0x46046d",
          "transactionHash": "0x072aa807f80350ee96a7b5479dde5a4960f741dda60ec9ce56844f2d759540e7",
          "transactionIndex": "0x1",
          "logIndex": "0x40",
          "removed": false
        },
        {
          "address": "0x6Ae43d3271ff6888e7Fc43Fd7321a503ff738951",
          "topics": [
            "0xefefaba5e921573100900a3ad9cf29f222d995fb3b6045797eaea7521bd8d6f0",
            "0x0000000000000000000000005d6085935ad04fbacc9d025ba989beae91f94090",
            "0x000000000000000000000000aa8e23fb1079ea71e0a56f48a2aa51851d8433d0",
            "0x0000000000000000000000000000000000000000000000000000000000000000"
          ],
          "data": "0x0000000000000000000000005d6085935ad04fbacc9d025ba989beae91f940900000000000000000000000000000000000000000000000000000000006609ffd0000000000000000000000000000000000000000000000000000000000000000000000000000000000000000000000000000000000000000000000000000d0fa",
          "blockHash": "0x06460aebf10f7406e6a9c0a2837dcc7040a8b77de62322c951c7b157c3a9c222",
          "blockNumber": "0x46046d",
          "transactionHash": "0x072aa807f80350ee96a7b5479dde5a4960f741dda60ec9ce56844f2d759540e7",
          "transactionIndex": "0x1",
          "logIndex": "0x41",
          "removed": false
        }
      ],
      "status": "0x1",
      "logsBloom": "0x1012000008000840028000000000680000000000000000000200000000000080000000804000000000010000000400200005000040a000020000000000200000000000000001008080002008000000000000000000000000000000040000300004000000020020000000001080000c00004004000000000008000011401000002000008081040000004000000000000000200000080000000000000000000000020000000000020000000080800000000010208040104000020006000000010002008002000001100000002000080000004200100000060100000001000020040010100408000030000080004001000100010000000800000000000001040000",
      "type": "0x2",
      "effectiveGasPrice": "0xb2d05e08"
    }
  ],
  "libraries": [],
  "pending": [],
  "returns": {},
  "timestamp": 1698599377,
  "chain": 11155111,
  "multi": false,
  "commit": "757a367"
}